{
  "_format": "hh-sol-artifact-1",
  "contractName": "PoolKeeper",
  "sourceName": "contracts/implementation/PoolKeeper.sol",
  "abi": [
    {
      "inputs": [
        {
          "internalType": "address",
          "name": "_factory",
          "type": "address"
        }
      ],
      "stateMutability": "nonpayable",
      "type": "constructor"
    },
    {
      "anonymous": false,
      "inputs": [
        {
          "indexed": true,
          "internalType": "address",
          "name": "_pool",
          "type": "address"
        },
        {
          "indexed": true,
          "internalType": "address",
          "name": "keeper",
          "type": "address"
        },
        {
          "indexed": false,
          "internalType": "uint256",
          "name": "reward",
          "type": "uint256"
        }
      ],
      "name": "KeeperPaid",
      "type": "event"
    },
    {
      "anonymous": false,
      "inputs": [
        {
          "indexed": true,
          "internalType": "address",
          "name": "_pool",
          "type": "address"
        },
        {
          "indexed": true,
          "internalType": "address",
          "name": "keeper",
          "type": "address"
        },
        {
          "indexed": false,
          "internalType": "uint256",
          "name": "expectedReward",
          "type": "uint256"
        }
      ],
      "name": "KeeperPaymentError",
      "type": "event"
    },
    {
      "anonymous": false,
      "inputs": [
        {
          "indexed": true,
          "internalType": "address",
          "name": "previousOwner",
          "type": "address"
        },
        {
          "indexed": true,
          "internalType": "address",
          "name": "newOwner",
          "type": "address"
        }
      ],
      "name": "OwnershipTransferred",
      "type": "event"
    },
    {
      "anonymous": false,
      "inputs": [
        {
          "indexed": true,
          "internalType": "address",
          "name": "poolAddress",
          "type": "address"
        },
        {
          "indexed": true,
          "internalType": "int256",
          "name": "firstPrice",
          "type": "int256"
        }
      ],
      "name": "PoolAdded",
      "type": "event"
    },
    {
      "anonymous": false,
      "inputs": [
        {
          "indexed": true,
          "internalType": "address",
          "name": "pool",
          "type": "address"
        },
        {
          "indexed": false,
          "internalType": "string",
          "name": "reason",
          "type": "string"
        }
      ],
      "name": "PoolUpkeepError",
      "type": "event"
    },
    {
      "anonymous": false,
      "inputs": [
        {
          "indexed": true,
          "internalType": "address",
          "name": "pool",
          "type": "address"
        },
        {
          "indexed": false,
          "internalType": "bytes",
          "name": "data",
          "type": "bytes"
        },
        {
          "indexed": true,
          "internalType": "int256",
          "name": "startPrice",
          "type": "int256"
        },
        {
          "indexed": true,
          "internalType": "int256",
          "name": "endPrice",
          "type": "int256"
        }
      ],
      "name": "UpkeepSuccessful",
      "type": "event"
    },
    {
      "inputs": [],
      "name": "BASE_TIP",
      "outputs": [
        {
          "internalType": "uint256",
          "name": "",
          "type": "uint256"
        }
      ],
      "stateMutability": "view",
      "type": "function"
    },
    {
      "inputs": [],
      "name": "BLOCK_TIME",
      "outputs": [
        {
          "internalType": "uint256",
          "name": "",
          "type": "uint256"
        }
      ],
      "stateMutability": "view",
      "type": "function"
    },
    {
      "inputs": [],
      "name": "MAX_DECIMALS",
      "outputs": [
        {
          "internalType": "uint256",
          "name": "",
          "type": "uint256"
        }
      ],
      "stateMutability": "view",
      "type": "function"
    },
    {
      "inputs": [],
      "name": "TIP_DELTA_PER_BLOCK",
      "outputs": [
        {
          "internalType": "uint256",
          "name": "",
          "type": "uint256"
        }
      ],
      "stateMutability": "view",
      "type": "function"
    },
    {
      "inputs": [
        {
          "internalType": "address[]",
          "name": "_pools",
          "type": "address[]"
        }
      ],
      "name": "checkUpkeepMultiplePools",
      "outputs": [
        {
          "internalType": "bool",
          "name": "",
          "type": "bool"
        }
      ],
      "stateMutability": "view",
      "type": "function"
    },
    {
      "inputs": [
        {
          "internalType": "address",
          "name": "_pool",
          "type": "address"
        }
      ],
      "name": "checkUpkeepSinglePool",
      "outputs": [
        {
          "internalType": "bool",
          "name": "",
          "type": "bool"
        }
      ],
      "stateMutability": "view",
      "type": "function"
    },
    {
      "inputs": [
        {
          "internalType": "address",
          "name": "",
          "type": "address"
        }
      ],
      "name": "executionPrice",
      "outputs": [
        {
          "internalType": "int256",
          "name": "",
          "type": "int256"
        }
      ],
      "stateMutability": "view",
      "type": "function"
    },
    {
      "inputs": [],
      "name": "factory",
      "outputs": [
        {
          "internalType": "contract IPoolFactory",
          "name": "",
          "type": "address"
        }
      ],
      "stateMutability": "view",
      "type": "function"
    },
    {
      "inputs": [],
      "name": "gasPrice",
      "outputs": [
        {
          "internalType": "uint256",
          "name": "",
          "type": "uint256"
        }
      ],
      "stateMutability": "view",
      "type": "function"
    },
    {
      "inputs": [
        {
          "internalType": "address",
          "name": "_pool",
          "type": "address"
        },
        {
          "internalType": "uint256",
          "name": "_gasPrice",
          "type": "uint256"
        },
        {
          "internalType": "uint256",
          "name": "_gasSpent",
          "type": "uint256"
        }
      ],
      "name": "keeperGas",
      "outputs": [
        {
          "internalType": "uint256",
          "name": "",
          "type": "uint256"
        }
      ],
      "stateMutability": "view",
      "type": "function"
    },
    {
      "inputs": [
        {
          "internalType": "address",
          "name": "_pool",
          "type": "address"
        },
        {
          "internalType": "uint256",
          "name": "_gasPrice",
          "type": "uint256"
        },
        {
          "internalType": "uint256",
          "name": "_gasSpent",
          "type": "uint256"
        },
        {
          "internalType": "uint256",
          "name": "_savedPreviousUpdatedTimestamp",
          "type": "uint256"
        },
        {
          "internalType": "uint256",
          "name": "_poolInterval",
          "type": "uint256"
        }
      ],
      "name": "keeperReward",
      "outputs": [
        {
          "internalType": "uint256",
          "name": "",
          "type": "uint256"
        }
      ],
      "stateMutability": "view",
      "type": "function"
    },
    {
      "inputs": [
        {
          "internalType": "uint256",
          "name": "_savedPreviousUpdatedTimestamp",
          "type": "uint256"
        },
        {
          "internalType": "uint256",
          "name": "_poolInterval",
          "type": "uint256"
        }
      ],
      "name": "keeperTip",
      "outputs": [
        {
          "internalType": "uint256",
          "name": "",
          "type": "uint256"
        }
      ],
      "stateMutability": "view",
      "type": "function"
    },
    {
      "inputs": [
        {
          "internalType": "address",
          "name": "_poolAddress",
          "type": "address"
        }
      ],
      "name": "newPool",
      "outputs": [],
      "stateMutability": "nonpayable",
      "type": "function"
    },
    {
      "inputs": [],
      "name": "observer",
      "outputs": [
        {
          "internalType": "address",
          "name": "",
          "type": "address"
        }
      ],
      "stateMutability": "view",
      "type": "function"
    },
    {
      "inputs": [],
      "name": "owner",
      "outputs": [
        {
          "internalType": "address",
          "name": "",
          "type": "address"
        }
      ],
      "stateMutability": "view",
      "type": "function"
    },
    {
      "inputs": [
        {
          "internalType": "address[]",
          "name": "pools",
          "type": "address[]"
        }
      ],
      "name": "performUpkeepMultiplePools",
      "outputs": [],
      "stateMutability": "nonpayable",
      "type": "function"
    },
    {
      "inputs": [
        {
          "internalType": "address",
          "name": "_pool",
          "type": "address"
        }
      ],
      "name": "performUpkeepSinglePool",
      "outputs": [],
      "stateMutability": "nonpayable",
      "type": "function"
    },
    {
      "inputs": [],
      "name": "renounceOwnership",
      "outputs": [],
      "stateMutability": "nonpayable",
      "type": "function"
    },
    {
      "inputs": [
        {
          "internalType": "address",
          "name": "_factory",
          "type": "address"
        }
      ],
      "name": "setFactory",
      "outputs": [],
      "stateMutability": "nonpayable",
      "type": "function"
    },
    {
      "inputs": [
        {
          "internalType": "uint256",
          "name": "_price",
          "type": "uint256"
        }
      ],
      "name": "setGasPrice",
      "outputs": [],
      "stateMutability": "nonpayable",
      "type": "function"
    },
    {
      "inputs": [
        {
          "internalType": "address",
          "name": "_observer",
          "type": "address"
        }
      ],
      "name": "setPriceObserver",
      "outputs": [],
      "stateMutability": "nonpayable",
      "type": "function"
    },
    {
      "inputs": [
        {
          "internalType": "address",
          "name": "newOwner",
          "type": "address"
        }
      ],
      "name": "transferOwnership",
      "outputs": [],
      "stateMutability": "nonpayable",
      "type": "function"
    }
  ],
  "bytecode": "0x60806040526402540be400600355600480546001600160a01b03191690553480156200002a57600080fd5b50604051620021ce380380620021ce8339810160408190526200004d9162000129565b6200005833620000d9565b6001600160a01b038116620000b35760405162461bcd60e51b815260206004820152601b60248201527f466163746f72792063616e6e6f74206265203020616464726573730000000000604482015260640160405180910390fd5b600280546001600160a01b0319166001600160a01b03929092169190911790556200015b565b600080546001600160a01b038381166001600160a01b0319831681178455604051919092169283917f8be0079c531659141344cd1fd0a4f28419497f9722a3daafe3b4186f6b6457e09190a35050565b6000602082840312156200013c57600080fd5b81516001600160a01b03811681146200015457600080fd5b9392505050565b612063806200016b6000396000f3fe608060405234801561001057600080fd5b50600436106101425760003560e01c8063b3fbb7c4116100b8578063ce1dcdfc1161007c578063ce1dcdfc14610287578063eb70e4981461029a578063f2fde38b146102ad578063f9301910146102c0578063fcab9e98146102c8578063fe173b97146102db57600080fd5b8063b3fbb7c41461021b578063b9c653651461022e578063bf1fe42014610241578063c45a015514610254578063cdd9e1371461026757600080fd5b8063715018a61161010a578063715018a6146101c05780638da5cb5b146101c857806391a60782146101ed5780639f9a3d9514610200578063a40d6b8014610208578063aea8acb11461020057600080fd5b80630417cf8e14610147578063225739b1146101625780633c5c7fb3146101855780635bb478081461019a5780635da36ec0146101ad575b600080fd5b61014f601281565b6040519081526020015b60405180910390f35b610175610170366004611b35565b6102e4565b6040519015158152602001610159565b610198610193366004611b35565b6103e5565b005b6101986101a8366004611b35565b6105f3565b6101986101bb366004611b35565b61063f565b6101986106ec565b6000546001600160a01b03165b6040516001600160a01b039091168152602001610159565b6101986101fb366004611b35565b610722565b61014f600581565b61014f610216366004611b6f565b610924565b61014f610229366004611ba4565b610a71565b61014f61023c366004611d63565b610c5b565b61019861024f366004611d4a565b610cb7565b6002546101d5906001600160a01b031681565b61014f610275366004611b35565b60016020526000908152604090205481565b610175610295366004611be8565b610ce6565b6004546101d5906001600160a01b031681565b6101986102bb366004611b35565b610d47565b61014f600d81565b6101986102d6366004611be8565b610de2565b61014f60035481565b600254604051635ab78ee160e01b81526001600160a01b0383811660048301526000921690635ab78ee19060240160206040518083038186803b15801561032a57600080fd5b505afa15801561033e573d6000803e3d6000fd5b505050506040513d601f19601f820116820180604052508101906103629190611c5d565b61036e57506000919050565b816001600160a01b0316637bbf10336040518163ffffffff1660e01b815260040160206040518083038186803b1580156103a757600080fd5b505afa1580156103bb573d6000803e3d6000fd5b505050506040513d601f19601f820116820180604052508101906103df9190611c5d565b92915050565b6002546001600160a01b031633146104395760405162461bcd60e51b815260206004820152601260248201527143616c6c6572206e6f7420666163746f727960701b60448201526064015b60405180910390fd5b6000816001600160a01b031663b9ed8abf6040518163ffffffff1660e01b815260040160206040518083038186803b15801561047457600080fd5b505afa158015610488573d6000803e3d6000fd5b505050506040513d601f19601f820116820180604052508101906104ac9190611b52565b90506000816001600160a01b03166398d5fdca6040518163ffffffff1660e01b815260040160206040518083038186803b1580156104e957600080fd5b505afa1580156104fd573d6000803e3d6000fd5b505050506040513d601f19601f820116820180604052508101906105219190611c7f565b9050600081136105735760405162461bcd60e51b815260206004820152601b60248201527f4669727374207072696365206973206e6f6e2d706f73697469766500000000006044820152606401610430565b600061059961059461058484610e2e565b668075782dace9d960c71b610ebc565b611139565b905081846001600160a01b03167fe950cb32f7a787627d713d7365623fef2d762ef8fcf813b865a04350852deb9b60405160405180910390a36001600160a01b039093166000908152600160205260409020929092555050565b6000546001600160a01b0316331461061d5760405162461bcd60e51b815260040161043090611de7565b600280546001600160a01b0319166001600160a01b0392909216919091179055565b6000546001600160a01b031633146106695760405162461bcd60e51b815260040161043090611de7565b6001600160a01b0381166106ca5760405162461bcd60e51b815260206004820152602260248201527f5072696365206f627365727665722063616e6e6f742062652030206164647265604482015261737360f01b6064820152608401610430565b600480546001600160a01b0319166001600160a01b0392909216919091179055565b6000546001600160a01b031633146107165760405162461bcd60e51b815260040161043090611de7565b61072060006111e0565b565b60005a9050610730826102e4565b610738575050565b6000829050600080600080846001600160a01b03166304883c276040518163ffffffff1660e01b815260040160006040518083038186803b15801561077c57600080fd5b505afa158015610790573d6000803e3d6000fd5b505050506040513d6000823e601f3d908101601f191682016040526107b89190810190611c98565b6001600160a01b038b81166000908152600160205260409081902080549087905590516303d8ce9d60e61b81526004810182905260248101879052959950939750919550935090919087169063f633a74090604401600060405180830381600087803b15801561082757600080fd5b505af1925050508015610838575060015b6108b757610844611f72565b806308c379a014156108ab5750610859611f8e565b8061086457506108ad565b886001600160a01b03167f8a47468bf96478429d382ed6385d9c77fba8b89540cd88199b1b51d5723b11fa8260405161089d9190611dd4565b60405180910390a25061091a565b505b3d6000803e3d6000fd5b60005a6108c49089611e75565b90506108d589600354838787611230565b85828a6001600160a01b03167f0aa8d2838ad6d4e2a5d7ca0826dfdbc36d922adf8fe5c6d25aee2724b07de074886040516109109190611dd4565b60405180910390a4505b5050505050505050565b600080846001600160a01b0316638226f3966040518163ffffffff1660e01b815260040160206040518083038186803b15801561096057600080fd5b505afa158015610974573d6000803e3d6000fd5b505050506040513d601f19601f820116820180604052508101906109989190611b52565b6001600160a01b03166398d5fdca6040518163ffffffff1660e01b815260040160206040518083038186803b1580156109d057600080fd5b505afa1580156109e4573d6000803e3d6000fd5b505050506040513d601f19601f82011682018060405250810190610a089190611c7f565b905060008113610a1c576000915050610a6a565b6000610a30610a2b8587611e56565b611355565b90506000610a3d83611355565b9050610a64610a5f610a4f8484610ebc565b668075782dace9d960c71b6113b9565b61164f565b93505050505b9392505050565b600080610a7f878787610924565b90506000610a90610a2b8686610c5b565b9050610aa581610aa06064611355565b6113b9565b90506000610ad2610594610ab885611355565b610acd610a4f610ac788611355565b87610ebc565b6116d2565b90506000896001600160a01b031663217a4b706040518163ffffffff1660e01b815260040160206040518083038186803b158015610b0f57600080fd5b505afa158015610b23573d6000803e3d6000fd5b505050506040513d601f19601f82011682018060405250810190610b479190611b52565b6001600160a01b031663313ce5676040518163ffffffff1660e01b815260040160206040518083038186803b158015610b7f57600080fd5b505afa158015610b93573d6000803e3d6000fd5b505050506040513d601f19601f82011682018060405250810190610bb79190611d85565b60405163bf36f0e960e01b81526004810184905260ff9190911660248201819052915060009073__$dc3b4b0a367edd91a2d74c73e2da54c142$__9063bf36f0e99060440160206040518083038186803b158015610c1457600080fd5b505af4158015610c28573d6000803e3d6000fd5b505050506040513d601f19601f82011682018060405250810190610c4c9190611c7f565b9b9a5050505050505050505050565b600080610c688385611e1c565b610c729042611e75565b90506000600d610c83836005611e56565b610c8d9190611e34565b610c98906005611e1c565b90506064811115610cae576064925050506103df565b91506103df9050565b6000546001600160a01b03163314610ce15760405162461bcd60e51b815260040161043090611de7565b600355565b6000805b82811015610d3d57610d1c848483818110610d0757610d07611f46565b90506020020160208101906101709190611b35565b15610d2b5760019150506103df565b80610d3581611ee9565b915050610cea565b5060009392505050565b6000546001600160a01b03163314610d715760405162461bcd60e51b815260040161043090611de7565b6001600160a01b038116610dd65760405162461bcd60e51b815260206004820152602660248201527f4f776e61626c653a206e6577206f776e657220697320746865207a65726f206160448201526564647265737360d01b6064820152608401610430565b610ddf816111e0565b50565b60005b81811015610e2957610e17838383818110610e0257610e02611f46565b90506020020160208101906101fb9190611b35565b80610e2181611ee9565b915050610de5565b505050565b600081610e3d57506000919050565b6000808313610e4f5782600003610e51565b825b90506000610e5e82611a92565b90506070811015610e77578060700382901b9150610e8a565b6070811115610e8a576070810382901c91505b6001600160701b03909116613fff820160701b17906000841215610eb2576001607f1b821791505b5060801b92915050565b6000617fff60f084811c8216919084901c811690821415610f6c5780617fff1415610f3a576001600160801b03198581169085161415610f0757505050600160ff1b811682186103df565b600160ff1b6001600160801b0319868618161415610f2a575050508181176103df565b5061ffff60ef1b91506103df9050565b600160801b600160ff1b038416610f5b575061ffff60ef1b91506103df9050565b505050600160ff1b811682186103df565b80617fff1415610fa857600160801b600160ff1b038516610f97575061ffff60ef1b91506103df9050565b505050600160ff1b821681186103df565b6001600160701b03608086901c1682610fc45760019250610fcb565b600160701b175b6001600160701b03608086901c1682610fe75760019250610fee565b600160701b175b908102908161101c57600160ff1b8787181661100b576000611011565b600160ff1b5b9450505050506103df565b928201926000600160e11b83101561104f57600160e01b8310156110485761104383611a92565b611052565b60e0611052565b60e15b9050614070818601101561106d57600094506000925061110a565b6140e081860110156110b05761407085101561109257846140700383901c92506110a7565b6140708511156110a757614070850383901b92505b6000945061110a565b61c0dd81860111156110ca57617fff94506000925061110a565b60708111156110e1576070810383901c92506110f4565b60708110156110f4578060700383901b92505b6001600160701b03831692506140df8186010394505b82607086901b888a186001607f1b60801b1660801c6001600160801b0316171760801b955050505050506103df565b6000617fff60f083901c166140fe81111561115357600080fd5b613fff8110156111665750600092915050565b600160701b6001600160701b03608085901c161761406f8210156111905761406f8290031c6111a2565b61406f8211156111a25761406e1982011b5b6001607f1b608085901c106111cc57600160ff1b8111156111c257600080fd5b6000039392505050565b6001600160ff1b03811115610a6a57600080fd5b600080546001600160a01b038381166001600160a01b0319831681178455604051919092169283917f8be0079c531659141344cd1fd0a4f28419497f9722a3daafe3b4186f6b6457e09190a35050565b600061123f8686868686610a71565b604051636dc2b27160e01b8152336004820152602481018290529091506001600160a01b03871690636dc2b27190604401602060405180830381600087803b15801561128a57600080fd5b505af115801561129e573d6000803e3d6000fd5b505050506040513d601f19601f820116820180604052508101906112c29190611c5d565b1561130c5760405181815233906001600160a01b038816907ff03012dd4aab142682aa01439f94e975e2ec77ef558352323bc05f382f74b0829060200160405180910390a361134d565b60405181815233906001600160a01b038816907f08b35d4c86707ba44cdcc5efaa79b8a307e6c7f789f1eb86ca1ff1e9bde056979060200160405180910390a35b505050505050565b60008161136457506000919050565b81600061137082611a92565b90506070811015611389578060700382901b915061139c565b607081111561139c576070810382901c91505b613fff0160701b6001600160701b03919091161760801b92915050565b6000617fff60f084811c8216919084901c8116908214156113ee5780617fff1415610f5b575061ffff60ef1b91506103df9050565b80617fff1415611432576dffffffffffffffffffffffffffff60801b841615611421575061ffff60ef1b91506103df9050565b505050808218600160ff1b166103df565b600160801b600160ff1b03841661147c57600160801b600160ff1b038516611464575061ffff60ef1b91506103df9050565b505050808218600160ff1b16617fff60f01b176103df565b6001600160701b03608085901c1681611498576001915061149f565b600160701b175b6001600160701b03608087901c16836114de5780156114d95760006114c382611a92565b6001955060e20393840160711901939190911b90505b6114e8565b600160701b1760721b5b8181816114f7576114f7611f30565b0490508061151357600160ff1b8787181661100b576000611011565b6001606c1b81101561152757611527611f04565b6000600160731b82101561156657600160721b82101561155b57600160711b82101561155457607061155e565b607161155e565b60725b60ff1661156f565b61156f82611a92565b90508361407101818601111561158d57617fff945060009150611620565b83818601613ffc0110156115a8576000945060009150611620565b83818601613f8c0110156115f5578385613ffc0111156115d3578385613ffc010382901b91506115ec565b8385613ffc0110156115ec57613ffc8585030382901c91505b60009450611620565b6070811115611608576070810382901c91505b6001600160701b038216915083818601613f8d010394505b81607086901b888a186001607f1b60801b1660801c6001600160801b0316171760801b955050505050506103df565b6000617fff60f083901c16613fff81101561166d5750600092915050565b6001607f1b608084901c1061168157600080fd5b6140fe81111561169057600080fd5b600160701b6001600160701b03608085901c161761406f8210156116ba5761406f8290031c610a6a565b61406f821115610a6a5761406e1982011b9392505050565b6000617fff60f084811c8216919084901c8116908214156117205780617fff1415611716576001600160801b03198581169085161415610f2a5784925050506103df565b84925050506103df565b80617fff14156117345783925050506103df565b6001607f1b608086901c90811015906001600160701b03168361175a5760019350611761565b600160701b175b6001607f1b608087901c90811015906001600160701b031684611787576001945061178e565b600160701b175b826117be576001600160801b03198816600160ff1b146117ae57876117b1565b60005b96505050505050506103df565b806117de576001600160801b03198916600160ff1b146117ae57886117b1565b84860384151583151514156118e957607081131561180557899750505050505050506103df565b60008113156118175790811c90611846565b606f1981121561183057889750505050505050506103df565b6000811215611846578060000384901c93508596505b92810192600160711b8410611861576001968701969390931c925b86617fff1415611893578461187b57617fff60f01b611885565b6001600160f01b03195b9750505050505050506103df565b600160701b8410156118a857600096506118b5565b6001600160701b03841693505b83607088901b866118c75760006118cd565b6001607f1b5b6001600160801b0316171760801b9750505050505050506103df565b600081131561190457600184901b935060018703965061191b565b600081121561191b57600182901b91506001860396505b607081131561192d576001915061197a565b600181131561194a576001810360018303901c600101915061197a565b606f1981121561195d576001935061197a565b60001981121561197a576001816000030360018503901c60010193505b81841061198b578184039350611994565b83820393508294505b836119aa5750600096506103df95505050505050565b60006119b585611a92565b905080607114156119db57600185901c6001600160701b03169450600188019750611a2a565b6070811015611a1d57607081900380891115611a0a578086901b6001600160701b031695508089039850611a17565b600098600019019590951b945b50611a2a565b6001600160701b03851694505b87617fff1415611a5d5785611a4457617fff60f01b611a4e565b6001600160f01b03195b985050505050505050506103df565b84607089901b87611a6f576000611a75565b6001607f1b5b6001600160801b0316171760801b985050505050505050506103df565b6000808211611aa057600080fd5b6000600160801b8310611ab557608092831c92015b680100000000000000008310611acd57604092831c92015b6401000000008310611ae157602092831c92015b620100008310611af357601092831c92015b6101008310611b0457600892831c92015b60108310611b1457600492831c92015b60048310611b2457600292831c92015b600283106103df5760010192915050565b600060208284031215611b4757600080fd5b8135610a6a81612018565b600060208284031215611b6457600080fd5b8151610a6a81612018565b600080600060608486031215611b8457600080fd5b8335611b8f81612018565b95602085013595506040909401359392505050565b600080600080600060a08688031215611bbc57600080fd5b8535611bc781612018565b97602087013597506040870135966060810135965060800135945092505050565b60008060208385031215611bfb57600080fd5b823567ffffffffffffffff80821115611c1357600080fd5b818501915085601f830112611c2757600080fd5b813581811115611c3657600080fd5b8660208260051b8501011115611c4b57600080fd5b60209290920196919550909350505050565b600060208284031215611c6f57600080fd5b81518015158114610a6a57600080fd5b600060208284031215611c9157600080fd5b5051919050565b60008060008060808587031215611cae57600080fd5b84519350602085015167ffffffffffffffff80821115611ccd57600080fd5b818701915087601f830112611ce157600080fd5b815181811115611cf357611cf3611f5c565b6040519150611d0c601f8201601f191660200183611ebc565b808252886020828501011115611d2157600080fd5b611d32816020840160208601611e8c565b50604087015160609097015195989097509350505050565b600060208284031215611d5c57600080fd5b5035919050565b60008060408385031215611d7657600080fd5b50508035926020909101359150565b600060208284031215611d9757600080fd5b815160ff81168114610a6a57600080fd5b60008151808452611dc0816020860160208601611e8c565b601f01601f19169290920160200192915050565b602081526000610a6a6020830184611da8565b6020808252818101527f4f776e61626c653a2063616c6c6572206973206e6f7420746865206f776e6572604082015260600190565b60008219821115611e2f57611e2f611f1a565b500190565b600082611e5157634e487b7160e01b600052601260045260246000fd5b500490565b6000816000190483118215151615611e7057611e70611f1a565b500290565b600082821015611e8757611e87611f1a565b500390565b60005b83811015611ea7578181015183820152602001611e8f565b83811115611eb6576000848401525b50505050565b601f8201601f1916810167ffffffffffffffff81118282101715611ee257611ee2611f5c565b6040525050565b6000600019821415611efd57611efd611f1a565b5060010190565b634e487b7160e01b600052600160045260246000fd5b634e487b7160e01b600052601160045260246000fd5b634e487b7160e01b600052601260045260246000fd5b634e487b7160e01b600052603260045260246000fd5b634e487b7160e01b600052604160045260246000fd5b600060033d1115611f8b5760046000803e5060005160e01c5b90565b600060443d1015611f9c5790565b6040516003193d81016004833e81513d67ffffffffffffffff8160248401118184111715611fcc57505050505090565b8285019150815181811115611fe45750505050505090565b843d8701016020828501011115611ffe5750505050505090565b61200d60208286010187611ebc565b509095945050505050565b6001600160a01b0381168114610ddf57600080fdfea2646970667358221220626f7e83e8c5a6f8169610c822bdcbde3d0c9159696fe3cc85c0f92f081a5e5964736f6c63430008070033",
  "linkReferences": {
    "contracts/implementation/PoolSwapLibrary.sol": {
      "PoolSwapLibrary": [
        {
          "length": 20,
          "start": 3402
        }
      ]
    }
  },
  "deployedLinkReferences": {
    "contracts/implementation/PoolSwapLibrary.sol": {
      "PoolSwapLibrary": [
        {
          "length": 20,
          "start": 3039
        }
      ]
    }
  }
}