{
  "address": "0x14AeC5949c1302671D3da4cA9B0cE4323D320609",
  "abi": [
    {
      "inputs": [
        {
          "internalType": "address",
          "name": "_feeReceiver",
          "type": "address"
        }
      ],
      "stateMutability": "nonpayable",
      "type": "constructor"
    },
    {
      "anonymous": false,
      "inputs": [
        {
          "indexed": true,
          "internalType": "address",
          "name": "pool",
          "type": "address"
        },
        {
          "indexed": false,
          "internalType": "string",
          "name": "ticker",
          "type": "string"
        }
      ],
      "name": "DeployPool",
      "type": "event"
    },
    {
      "anonymous": false,
      "inputs": [
        {
          "indexed": true,
          "internalType": "address",
          "name": "previousOwner",
          "type": "address"
        },
        {
          "indexed": true,
          "internalType": "address",
          "name": "newOwner",
          "type": "address"
        }
      ],
      "name": "OwnershipTransferred",
      "type": "event"
    },
    {
      "inputs": [
        {
          "components": [
            {
              "internalType": "string",
              "name": "poolName",
              "type": "string"
            },
            {
              "internalType": "uint32",
              "name": "frontRunningInterval",
              "type": "uint32"
            },
            {
              "internalType": "uint32",
              "name": "updateInterval",
              "type": "uint32"
            },
            {
              "internalType": "uint16",
              "name": "leverageAmount",
              "type": "uint16"
            },
            {
              "internalType": "address",
              "name": "quoteToken",
              "type": "address"
            },
            {
              "internalType": "address",
              "name": "oracleWrapper",
              "type": "address"
            },
            {
              "internalType": "address",
              "name": "settlementEthOracle",
              "type": "address"
            }
          ],
          "internalType": "struct IPoolFactory.PoolDeployment",
          "name": "deploymentParameters",
          "type": "tuple"
        }
      ],
      "name": "deployPool",
      "outputs": [
        {
          "internalType": "address",
          "name": "",
          "type": "address"
        }
      ],
      "stateMutability": "nonpayable",
      "type": "function"
    },
    {
      "inputs": [],
      "name": "fee",
      "outputs": [
        {
          "internalType": "bytes16",
          "name": "",
          "type": "bytes16"
        }
      ],
      "stateMutability": "view",
      "type": "function"
    },
    {
      "inputs": [
        {
          "internalType": "address",
          "name": "",
          "type": "address"
        }
      ],
      "name": "isValidPool",
      "outputs": [
        {
          "internalType": "bool",
          "name": "",
          "type": "bool"
        }
      ],
      "stateMutability": "view",
      "type": "function"
    },
    {
      "inputs": [],
      "name": "maxLeverage",
      "outputs": [
        {
          "internalType": "uint16",
          "name": "",
          "type": "uint16"
        }
      ],
      "stateMutability": "view",
      "type": "function"
    },
    {
      "inputs": [],
      "name": "numPools",
      "outputs": [
        {
          "internalType": "uint256",
          "name": "",
          "type": "uint256"
        }
      ],
      "stateMutability": "view",
      "type": "function"
    },
    {
      "inputs": [],
      "name": "owner",
      "outputs": [
        {
          "internalType": "address",
          "name": "",
          "type": "address"
        }
      ],
      "stateMutability": "view",
      "type": "function"
    },
    {
      "inputs": [],
      "name": "pairTokenBase",
      "outputs": [
        {
          "internalType": "contract PoolToken",
          "name": "",
          "type": "address"
        }
      ],
      "stateMutability": "view",
      "type": "function"
    },
    {
      "inputs": [],
      "name": "poolBase",
      "outputs": [
        {
          "internalType": "contract LeveragedPool",
          "name": "",
          "type": "address"
        }
      ],
      "stateMutability": "view",
      "type": "function"
    },
    {
      "inputs": [],
      "name": "poolCommitterDeployer",
      "outputs": [
        {
          "internalType": "contract IPoolCommitterDeployer",
          "name": "",
          "type": "address"
        }
      ],
      "stateMutability": "view",
      "type": "function"
    },
    {
      "inputs": [],
      "name": "poolKeeper",
      "outputs": [
        {
          "internalType": "contract IPoolKeeper",
          "name": "",
          "type": "address"
        }
      ],
      "stateMutability": "view",
      "type": "function"
    },
    {
      "inputs": [
        {
          "internalType": "uint256",
          "name": "",
          "type": "uint256"
        }
      ],
      "name": "pools",
      "outputs": [
        {
          "internalType": "address",
          "name": "",
          "type": "address"
        }
      ],
      "stateMutability": "view",
      "type": "function"
    },
    {
      "inputs": [],
      "name": "renounceOwnership",
      "outputs": [],
      "stateMutability": "nonpayable",
      "type": "function"
    },
    {
      "inputs": [
        {
          "internalType": "bytes16",
          "name": "_fee",
          "type": "bytes16"
        }
      ],
      "name": "setFee",
      "outputs": [],
      "stateMutability": "nonpayable",
      "type": "function"
    },
    {
      "inputs": [
        {
          "internalType": "address",
          "name": "_feeReceiver",
          "type": "address"
        }
      ],
      "name": "setFeeReceiver",
      "outputs": [],
      "stateMutability": "nonpayable",
      "type": "function"
    },
    {
      "inputs": [
        {
          "internalType": "uint16",
          "name": "newMaxLeverage",
          "type": "uint16"
        }
      ],
      "name": "setMaxLeverage",
      "outputs": [],
      "stateMutability": "nonpayable",
      "type": "function"
    },
    {
      "inputs": [
        {
          "internalType": "address",
          "name": "_poolCommitterDeployer",
          "type": "address"
        }
      ],
      "name": "setPoolCommitterDeployer",
      "outputs": [],
      "stateMutability": "nonpayable",
      "type": "function"
    },
    {
      "inputs": [
        {
          "internalType": "address",
          "name": "_poolKeeper",
          "type": "address"
        }
      ],
      "name": "setPoolKeeper",
      "outputs": [],
      "stateMutability": "nonpayable",
      "type": "function"
    },
    {
      "inputs": [
        {
          "internalType": "address",
          "name": "newOwner",
          "type": "address"
        }
      ],
      "name": "transferOwnership",
      "outputs": [],
      "stateMutability": "nonpayable",
      "type": "function"
    }
  ],
  "transactionHash": "0xae55e255bd3aed463fcfebd51e3b4dd95afd498235af9cbb5b5221aeb4cac579",
  "args": [
    "0xf9b333770295FDdD901acbE381E0dAdd861C0a48"
  ],
  "solcInputHash": "484d5af48c178cc229e5a1f1fff60728",
  "bytecode": "0x6080604052600a600460146101000a81548161ffff021916908361ffff1602179055503480156200002f57600080fd5b5060405162009b4738038062009b47833981810160405281019062000055919062000655565b62000075620000696200048a60201b60201c565b6200049260201b60201c565b620000c06040518060400160405280600281526020017f68690000000000000000000000000000000000000000000000000000000000008152506200055660201b620014121760201c565b604051620000ce9062000622565b604051809103906000f080158015620000eb573d6000803e3d6000fd5b50600160006101000a81548173ffffffffffffffffffffffffffffffffffffffff021916908373ffffffffffffffffffffffffffffffffffffffff1602179055506040516200013a9062000630565b604051809103906000f08015801562000157573d6000803e3d6000fd5b50600260006101000a81548173ffffffffffffffffffffffffffffffffffffffff021916908373ffffffffffffffffffffffffffffffffffffffff1602179055506000604051806101c001604052803073ffffffffffffffffffffffffffffffffffffffff1681526020013073ffffffffffffffffffffffffffffffffffffffff1681526020013073ffffffffffffffffffffffffffffffffffffffff1681526020013073ffffffffffffffffffffffffffffffffffffffff1681526020013073ffffffffffffffffffffffffffffffffffffffff1681526020013073ffffffffffffffffffffffffffffffffffffffff1681526020013073ffffffffffffffffffffffffffffffffffffffff1681526020016040518060400160405280600981526020017f424153455f504f4f4c00000000000000000000000000000000000000000000008152508152602001600f63ffffffff168152602001601e63ffffffff168152602001600060801b6fffffffffffffffffffffffffffffffff19168152602001600161ffff1681526020013073ffffffffffffffffffffffffffffffffffffffff1681526020013073ffffffffffffffffffffffffffffffffffffffff168152509050600260009054906101000a900473ffffffffffffffffffffffffffffffffffffffff1673ffffffffffffffffffffffffffffffffffffffff1663fab0dd6a826040518263ffffffff1660e01b81526004016200037c919062000961565b600060405180830381600087803b1580156200039757600080fd5b505af1158015620003ac573d6000803e3d6000fd5b50505050600160009054906101000a900473ffffffffffffffffffffffffffffffffffffffff1673ffffffffffffffffffffffffffffffffffffffff166390657147306040518263ffffffff1660e01b81526004016200040d9190620008f6565b600060405180830381600087803b1580156200042857600080fd5b505af11580156200043d573d6000803e3d6000fd5b5050505081600560006101000a81548173ffffffffffffffffffffffffffffffffffffffff021916908373ffffffffffffffffffffffffffffffffffffffff160217905550505062000ae8565b600033905090565b60008060009054906101000a900473ffffffffffffffffffffffffffffffffffffffff169050816000806101000a81548173ffffffffffffffffffffffffffffffffffffffff021916908373ffffffffffffffffffffffffffffffffffffffff1602179055508173ffffffffffffffffffffffffffffffffffffffff168173ffffffffffffffffffffffffffffffffffffffff167f8be0079c531659141344cd1fd0a4f28419497f9722a3daafe3b4186f6b6457e060405160405180910390a35050565b620005f6816040516024016200056d91906200093d565b6040516020818303038152906040527f41304fac000000000000000000000000000000000000000000000000000000007bffffffffffffffffffffffffffffffffffffffffffffffffffffffff19166020820180517bffffffffffffffffffffffffffffffffffffffffffffffffffffffff8381831617835250505050620005f960201b60201c565b50565b60008151905060006a636f6e736f6c652e6c6f679050602083016000808483855afa5050505050565b61211a80620031b783390190565b61487680620052d183390190565b6000815190506200064f8162000ace565b92915050565b6000602082840312156200066e576200066d62000a66565b5b60006200067e848285016200063e565b91505092915050565b6200069281620009b2565b82525050565b620006a381620009b2565b82525050565b620006b481620009c6565b82525050565b6000620006c78262000985565b620006d3818562000990565b9350620006e581856020860162000a30565b620006f08162000a6b565b840191505092915050565b6000620007088262000985565b620007148185620009a1565b93506200072681856020860162000a30565b620007318162000a6b565b840191505092915050565b60006200074b600483620009a1565b9150620007588262000a7c565b602082019050919050565b600062000772600a83620009a1565b91506200077f8262000aa5565b602082019050919050565b60006101c083016000830151620007a5600086018262000687565b506020830151620007ba602086018262000687565b506040830151620007cf604086018262000687565b506060830151620007e4606086018262000687565b506080830151620007f9608086018262000687565b5060a08301516200080e60a086018262000687565b5060c08301516200082360c086018262000687565b5060e083015184820360e08601526200083d8282620006ba565b91505061010083015162000856610100860182620008e5565b506101208301516200086d610120860182620008e5565b5061014083015162000884610140860182620006a9565b506101608301516200089b610160860182620008d4565b50610180830151620008b261018086018262000687565b506101a0830151620008c96101a086018262000687565b508091505092915050565b620008df81620009f2565b82525050565b620008f08162000a20565b82525050565b60006060820190506200090d600083018462000698565b8181036020830152620009208162000763565b9050818103604083015262000935816200073c565b905092915050565b60006020820190508181036000830152620009598184620006fb565b905092915050565b600060208201905081810360008301526200097d81846200078a565b905092915050565b600081519050919050565b600082825260208201905092915050565b600082825260208201905092915050565b6000620009bf8262000a00565b9050919050565b60007fffffffffffffffffffffffffffffffff0000000000000000000000000000000082169050919050565b600061ffff82169050919050565b600073ffffffffffffffffffffffffffffffffffffffff82169050919050565b600063ffffffff82169050919050565b60005b8381101562000a5057808201518184015260208101905062000a33565b8381111562000a60576000848401525b50505050565b600080fd5b6000601f19601f8301169050919050565b7f4241534500000000000000000000000000000000000000000000000000000000600082015250565b7f424153455f544f4b454e00000000000000000000000000000000000000000000600082015250565b62000ad981620009b2565b811462000ae557600080fd5b50565b6126bf8062000af86000396000f3fe608060405234801561001057600080fd5b50600436106101165760003560e01c8063715018a6116100a2578063ae3302c211610071578063ae3302c2146102bb578063d723c68b146102d9578063ddca3f43146102f7578063efdcd97414610315578063f2fde38b1461033157610116565b8063715018a61461024757806379b471cf146102515780638da5cb5b1461026d578063ac4afa381461028b57610116565b8063430ed6eb116100e9578063430ed6eb146101a3578063568212f6146101bf5780635ab78ee1146101db5780635bae377a1461020b57806367e047561461022957610116565b80630679d3621461011b578063178f9e35146101375780632a0a6aa11461015557806335c62bc214610185575b600080fd5b610135600480360381019061013091906118a1565b61034d565b005b61013f6103e9565b60405161014c9190611f18565b60405180910390f35b61016f600480360381019061016a9190611858565b61040f565b60405161017c9190611e3e565b60405180910390f35b61018d610d3e565b60405161019a91906120ec565b60405180910390f35b6101bd60048036038101906101b891906117d1565b610d44565b005b6101d960048036038101906101d491906117d1565b610e74565b005b6101f560048036038101906101f091906117d1565b610fa4565b6040516102029190611ec7565b60405180910390f35b610213610fc4565b6040516102209190611f33565b60405180910390f35b610231610fea565b60405161023e9190611efd565b60405180910390f35b61024f611010565b005b61026b6004803603810190610266919061182b565b611098565b005b610275611141565b6040516102829190611e3e565b60405180910390f35b6102a560048036038101906102a091906118ce565b61116a565b6040516102b29190611e3e565b60405180910390f35b6102c361119d565b6040516102d091906120d1565b60405180910390f35b6102e16111b1565b6040516102ee9190611f4e565b60405180910390f35b6102ff6111d7565b60405161030c9190611ee2565b60405180910390f35b61032f600480360381019061032a91906117d1565b6111ea565b005b61034b600480360381019061034691906117d1565b61131a565b005b6103556114ab565b73ffffffffffffffffffffffffffffffffffffffff16610373611141565b73ffffffffffffffffffffffffffffffffffffffff16146103c9576040517f08c379a00000000000000000000000000000000000000000000000000000000081526004016103c09061200f565b60405180910390fd5b80600460146101000a81548161ffff021916908361ffff16021790555050565b600360009054906101000a900473ffffffffffffffffffffffffffffffffffffffff1681565b600080600360009054906101000a900473ffffffffffffffffffffffffffffffffffffffff169050600073ffffffffffffffffffffffffffffffffffffffff168173ffffffffffffffffffffffffffffffffffffffff1614156104a7576040517f08c379a000000000000000000000000000000000000000000000000000000000815260040161049e9061204f565b60405180910390fd5b600073ffffffffffffffffffffffffffffffffffffffff16600460009054906101000a900473ffffffffffffffffffffffffffffffffffffffff1673ffffffffffffffffffffffffffffffffffffffff161415610539576040517f08c379a00000000000000000000000000000000000000000000000000000000081526004016105309061206f565b60405180910390fd5b6000600460009054906101000a900473ffffffffffffffffffffffffffffffffffffffff1673ffffffffffffffffffffffffffffffffffffffff1663775c300c6040518163ffffffff1660e01b8152600401602060405180830381600087803b1580156105a557600080fd5b505af11580156105b9573d6000803e3d6000fd5b505050506040513d601f19601f820116820180604052508101906105dd91906117fe565b905060018460600160208101906105f491906118a1565b61ffff16101580156106305750600460149054906101000a900461ffff1661ffff1684606001602081019061062991906118a1565b61ffff1611155b61066f576040517f08c379a000000000000000000000000000000000000000000000000000000000815260040161066690611fcf565b60405180910390fd5b601284608001602081019061068491906117d1565b73ffffffffffffffffffffffffffffffffffffffff1663313ce5676040518163ffffffff1660e01b815260040160206040518083038186803b1580156106c957600080fd5b505afa1580156106dd573d6000803e3d6000fd5b505050506040513d601f19601f820116820180604052508101906107019190611928565b60ff161115610745576040517f08c379a000000000000000000000000000000000000000000000000000000000815260040161073c9061202f565b60405180910390fd5b6000610772600260009054906101000a900473ffffffffffffffffffffffffffffffffffffffff166114b3565b905060008190508073ffffffffffffffffffffffffffffffffffffffff167fd76cdb035f3aba359cb02087e4c5bd75f911562b407fc3a52ed2bedfb46585b68780600001906107c19190612107565b6040516107cf929190611f69565b60405180910390a26000610842828880600001906107ed9190612107565b6040516020016107fe929190611dd2565b60405160208183030381529060405289806000019061081d9190612107565b60405160200161082e929190611df6565b604051602081830303815290604052611588565b905060006108af8389806000019061085a9190612107565b60405160200161086b929190611dae565b6040516020818303038152906040528a806000019061088a9190612107565b60405160200161089b929190611e1a565b604051602081830303815290604052611588565b90506000604051806101c001604052806108c7611141565b73ffffffffffffffffffffffffffffffffffffffff1681526020018873ffffffffffffffffffffffffffffffffffffffff1681526020018a60a001602081019061091191906117d1565b73ffffffffffffffffffffffffffffffffffffffff1681526020018a60c001602081019061093f91906117d1565b73ffffffffffffffffffffffffffffffffffffffff1681526020018473ffffffffffffffffffffffffffffffffffffffff1681526020018373ffffffffffffffffffffffffffffffffffffffff1681526020018773ffffffffffffffffffffffffffffffffffffffff1681526020018a80600001906109be9190612107565b8080601f016020809104026020016040519081016040528093929190818152602001838380828437600081840152601f19601f8201169050808301925050505050505081526020018a6020016020810190610a1991906118fb565b63ffffffff1681526020018a6040016020810190610a3791906118fb565b63ffffffff168152602001600660009054906101000a900460801b6fffffffffffffffffffffffffffffffff191681526020018a6060016020810190610a7d91906118a1565b61ffff168152602001600560009054906101000a900473ffffffffffffffffffffffffffffffffffffffff1673ffffffffffffffffffffffffffffffffffffffff1681526020018a6080016020810190610ad791906117d1565b73ffffffffffffffffffffffffffffffffffffffff1681525090508573ffffffffffffffffffffffffffffffffffffffff1663fd555fb98a6080016020810190610b2191906117d1565b866040518363ffffffff1660e01b8152600401610b3f929190611e59565b600060405180830381600087803b158015610b5957600080fd5b505af1158015610b6d573d6000803e3d6000fd5b505050508473ffffffffffffffffffffffffffffffffffffffff1663fab0dd6a826040518263ffffffff1660e01b8152600401610baa91906120af565b600060405180830381600087803b158015610bc457600080fd5b505af1158015610bd8573d6000803e3d6000fd5b50505050600360009054906101000a900473ffffffffffffffffffffffffffffffffffffffff1673ffffffffffffffffffffffffffffffffffffffff16633c5c7fb3856040518263ffffffff1660e01b8152600401610c379190611e3e565b600060405180830381600087803b158015610c5157600080fd5b505af1158015610c65573d6000803e3d6000fd5b505050508360076000600854815260200190815260200160002060006101000a81548173ffffffffffffffffffffffffffffffffffffffff021916908373ffffffffffffffffffffffffffffffffffffffff160217905550600160086000828254610cd091906121a2565b925050819055506001600960008673ffffffffffffffffffffffffffffffffffffffff1673ffffffffffffffffffffffffffffffffffffffff16815260200190815260200160002060006101000a81548160ff02191690831515021790555083975050505050505050919050565b60085481565b610d4c6114ab565b73ffffffffffffffffffffffffffffffffffffffff16610d6a611141565b73ffffffffffffffffffffffffffffffffffffffff1614610dc0576040517f08c379a0000000000000000000000000000000000000000000000000000000008152600401610db79061200f565b60405180910390fd5b600073ffffffffffffffffffffffffffffffffffffffff168173ffffffffffffffffffffffffffffffffffffffff161415610e30576040517f08c379a0000000000000000000000000000000000000000000000000000000008152600401610e279061208f565b60405180910390fd5b80600360006101000a81548173ffffffffffffffffffffffffffffffffffffffff021916908373ffffffffffffffffffffffffffffffffffffffff16021790555050565b610e7c6114ab565b73ffffffffffffffffffffffffffffffffffffffff16610e9a611141565b73ffffffffffffffffffffffffffffffffffffffff1614610ef0576040517f08c379a0000000000000000000000000000000000000000000000000000000008152600401610ee79061200f565b60405180910390fd5b600073ffffffffffffffffffffffffffffffffffffffff168173ffffffffffffffffffffffffffffffffffffffff161415610f60576040517f08c379a0000000000000000000000000000000000000000000000000000000008152600401610f579061208f565b60405180910390fd5b80600460006101000a81548173ffffffffffffffffffffffffffffffffffffffff021916908373ffffffffffffffffffffffffffffffffffffffff16021790555050565b60096020528060005260406000206000915054906101000a900460ff1681565b600260009054906101000a900473ffffffffffffffffffffffffffffffffffffffff1681565b600460009054906101000a900473ffffffffffffffffffffffffffffffffffffffff1681565b6110186114ab565b73ffffffffffffffffffffffffffffffffffffffff16611036611141565b73ffffffffffffffffffffffffffffffffffffffff161461108c576040517f08c379a00000000000000000000000000000000000000000000000000000000081526004016110839061200f565b60405180910390fd5b6110966000611632565b565b6110a06114ab565b73ffffffffffffffffffffffffffffffffffffffff166110be611141565b73ffffffffffffffffffffffffffffffffffffffff1614611114576040517f08c379a000000000000000000000000000000000000000000000000000000000815260040161110b9061200f565b60405180910390fd5b80600660006101000a8154816fffffffffffffffffffffffffffffffff021916908360801c021790555050565b60008060009054906101000a900473ffffffffffffffffffffffffffffffffffffffff16905090565b60076020528060005260406000206000915054906101000a900473ffffffffffffffffffffffffffffffffffffffff1681565b600460149054906101000a900461ffff1681565b600160009054906101000a900473ffffffffffffffffffffffffffffffffffffffff1681565b600660009054906101000a900460801b81565b6111f26114ab565b73ffffffffffffffffffffffffffffffffffffffff16611210611141565b73ffffffffffffffffffffffffffffffffffffffff1614611266576040517f08c379a000000000000000000000000000000000000000000000000000000000815260040161125d9061200f565b60405180910390fd5b600073ffffffffffffffffffffffffffffffffffffffff168173ffffffffffffffffffffffffffffffffffffffff1614156112d6576040517f08c379a00000000000000000000000000000000000000000000000000000000081526004016112cd9061208f565b60405180910390fd5b80600560006101000a81548173ffffffffffffffffffffffffffffffffffffffff021916908373ffffffffffffffffffffffffffffffffffffffff16021790555050565b6113226114ab565b73ffffffffffffffffffffffffffffffffffffffff16611340611141565b73ffffffffffffffffffffffffffffffffffffffff1614611396576040517f08c379a000000000000000000000000000000000000000000000000000000000815260040161138d9061200f565b60405180910390fd5b600073ffffffffffffffffffffffffffffffffffffffff168173ffffffffffffffffffffffffffffffffffffffff161415611406576040517f08c379a00000000000000000000000000000000000000000000000000000000081526004016113fd90611faf565b60405180910390fd5b61140f81611632565b50565b6114a8816040516024016114269190611f8d565b6040516020818303038152906040527f41304fac000000000000000000000000000000000000000000000000000000007bffffffffffffffffffffffffffffffffffffffffffffffffffffffff19166020820180517bffffffffffffffffffffffffffffffffffffffffffffffffffffffff83818316178352505050506116f6565b50565b600033905090565b60006040517f3d602d80600a3d3981f3363d3d373d3d3d363d7300000000000000000000000081528260601b60148201527f5af43d82803e903d91602b57fd5bf3000000000000000000000000000000000060288201526037816000f0915050600073ffffffffffffffffffffffffffffffffffffffff168173ffffffffffffffffffffffffffffffffffffffff161415611583576040517f08c379a000000000000000000000000000000000000000000000000000000000815260040161157a90611fef565b60405180910390fd5b919050565b6000806115b6600160009054906101000a900473ffffffffffffffffffffffffffffffffffffffff166114b3565b90508073ffffffffffffffffffffffffffffffffffffffff1663906571478686866040518463ffffffff1660e01b81526004016115f593929190611e82565b600060405180830381600087803b15801561160f57600080fd5b505af1158015611623573d6000803e3d6000fd5b50505050809150509392505050565b60008060009054906101000a900473ffffffffffffffffffffffffffffffffffffffff169050816000806101000a81548173ffffffffffffffffffffffffffffffffffffffff021916908373ffffffffffffffffffffffffffffffffffffffff1602179055508173ffffffffffffffffffffffffffffffffffffffff168173ffffffffffffffffffffffffffffffffffffffff167f8be0079c531659141344cd1fd0a4f28419497f9722a3daafe3b4186f6b6457e060405160405180910390a35050565b60008151905060006a636f6e736f6c652e6c6f679050602083016000808483855afa5050505050565b60008135905061172e816125ff565b92915050565b600081519050611743816125ff565b92915050565b60008135905061175881612616565b92915050565b600060e082840312156117745761177361239d565b5b81905092915050565b60008135905061178c8161262d565b92915050565b6000813590506117a181612644565b92915050565b6000813590506117b68161265b565b92915050565b6000815190506117cb81612672565b92915050565b6000602082840312156117e7576117e66123b1565b5b60006117f58482850161171f565b91505092915050565b600060208284031215611814576118136123b1565b5b600061182284828501611734565b91505092915050565b600060208284031215611841576118406123b1565b5b600061184f84828501611749565b91505092915050565b60006020828403121561186e5761186d6123b1565b5b600082013567ffffffffffffffff81111561188c5761188b6123ac565b5b6118988482850161175e565b91505092915050565b6000602082840312156118b7576118b66123b1565b5b60006118c58482850161177d565b91505092915050565b6000602082840312156118e4576118e36123b1565b5b60006118f284828501611792565b91505092915050565b600060208284031215611911576119106123b1565b5b600061191f848285016117a7565b91505092915050565b60006020828403121561193e5761193d6123b1565b5b600061194c848285016117bc565b91505092915050565b61195e816121f8565b82525050565b61196d816121f8565b82525050565b61197c8161220a565b82525050565b61198b81612216565b82525050565b61199a81612216565b82525050565b6119a981612297565b82525050565b6119b8816122bb565b82525050565b6119c7816122df565b82525050565b6119d681612303565b82525050565b60006119e88385612186565b93506119f5838584612327565b6119fe836123b6565b840190509392505050565b6000611a158385612197565b9350611a22838584612327565b82840190509392505050565b6000611a398261216a565b611a438185612175565b9350611a53818560208601612336565b611a5c816123b6565b840191505092915050565b6000611a728261216a565b611a7c8185612186565b9350611a8c818560208601612336565b611a95816123b6565b840191505092915050565b6000611aad602683612186565b9150611ab8826123c7565b604082019050919050565b6000611ad0600683612197565b9150611adb82612416565b600682019050919050565b6000611af3602483612186565b9150611afe8261243f565b604082019050919050565b6000611b16601683612186565b9150611b218261248e565b602082019050919050565b6000611b39600283612197565b9150611b44826124b7565b600282019050919050565b6000611b5c600283612197565b9150611b67826124e0565b600282019050919050565b6000611b7f600583612197565b9150611b8a82612509565b600582019050919050565b6000611ba2602083612186565b9150611bad82612532565b602082019050919050565b6000611bc5601383612186565b9150611bd08261255b565b602082019050919050565b6000611be8601283612186565b9150611bf382612584565b602082019050919050565b6000611c0b601d83612186565b9150611c16826125ad565b602082019050919050565b6000611c2e601683612186565b9150611c39826125d6565b602082019050919050565b60006101c083016000830151611c5d6000860182611955565b506020830151611c706020860182611955565b506040830151611c836040860182611955565b506060830151611c966060860182611955565b506080830151611ca96080860182611955565b5060a0830151611cbc60a0860182611955565b5060c0830151611ccf60c0860182611955565b5060e083015184820360e0860152611ce78282611a2e565b915050610100830151611cfe610100860182611d9f565b50610120830151611d13610120860182611d9f565b50610140830151611d28610140860182611982565b50610160830151611d3d610160860182611d72565b50610180830151611d52610180860182611955565b506101a0830151611d676101a0860182611955565b508091505092915050565b611d7b81612242565b82525050565b611d8a81612242565b82525050565b611d9981612270565b82525050565b611da88161227a565b82525050565b6000611dbb828486611a09565b9150611dc682611ac3565b91508190509392505050565b6000611ddf828486611a09565b9150611dea82611b72565b91508190509392505050565b6000611e0182611b2c565b9150611e0e828486611a09565b91508190509392505050565b6000611e2582611b4f565b9150611e32828486611a09565b91508190509392505050565b6000602082019050611e536000830184611964565b92915050565b6000604082019050611e6e6000830185611964565b611e7b6020830184611964565b9392505050565b6000606082019050611e976000830186611964565b8181036020830152611ea98185611a67565b90508181036040830152611ebd8184611a67565b9050949350505050565b6000602082019050611edc6000830184611973565b92915050565b6000602082019050611ef76000830184611991565b92915050565b6000602082019050611f1260008301846119a0565b92915050565b6000602082019050611f2d60008301846119af565b92915050565b6000602082019050611f4860008301846119be565b92915050565b6000602082019050611f6360008301846119cd565b92915050565b60006020820190508181036000830152611f848184866119dc565b90509392505050565b60006020820190508181036000830152611fa78184611a67565b905092915050565b60006020820190508181036000830152611fc881611aa0565b9050919050565b60006020820190508181036000830152611fe881611ae6565b9050919050565b6000602082019050818103600083015261200881611b09565b9050919050565b6000602082019050818103600083015261202881611b95565b9050919050565b6000602082019050818103600083015261204881611bb8565b9050919050565b6000602082019050818103600083015261206881611bdb565b9050919050565b6000602082019050818103600083015261208881611bfe565b9050919050565b600060208201905081810360008301526120a881611c21565b9050919050565b600060208201905081810360008301526120c98184611c44565b905092915050565b60006020820190506120e66000830184611d81565b92915050565b60006020820190506121016000830184611d90565b92915050565b60008083356001602003843603038112612124576121236123a2565b5b80840192508235915067ffffffffffffffff82111561214657612145612398565b5b602083019250600182023603831315612162576121616123a7565b5b509250929050565b600081519050919050565b600082825260208201905092915050565b600082825260208201905092915050565b600081905092915050565b60006121ad82612270565b91506121b883612270565b9250827fffffffffffffffffffffffffffffffffffffffffffffffffffffffffffffffff038211156121ed576121ec612369565b5b828201905092915050565b600061220382612250565b9050919050565b60008115159050919050565b60007fffffffffffffffffffffffffffffffff0000000000000000000000000000000082169050919050565b600061ffff82169050919050565b600073ffffffffffffffffffffffffffffffffffffffff82169050919050565b6000819050919050565b600063ffffffff82169050919050565b600060ff82169050919050565b60006122a2826122a9565b9050919050565b60006122b482612250565b9050919050565b60006122c6826122cd565b9050919050565b60006122d882612250565b9050919050565b60006122ea826122f1565b9050919050565b60006122fc82612250565b9050919050565b600061230e82612315565b9050919050565b600061232082612250565b9050919050565b82818337600083830152505050565b60005b83811015612354578082015181840152602081019050612339565b83811115612363576000848401525b50505050565b7f4e487b7100000000000000000000000000000000000000000000000000000000600052601160045260246000fd5b600080fd5b600080fd5b600080fd5b600080fd5b600080fd5b600080fd5b6000601f19601f8301169050919050565b7f4f776e61626c653a206e6577206f776e657220697320746865207a65726f206160008201527f6464726573730000000000000000000000000000000000000000000000000000602082015250565b7f2d53484f52540000000000000000000000000000000000000000000000000000600082015250565b7f506f6f6c4b65657065723a206c657665726167656420616d6f756e7420696e7660008201527f616c696400000000000000000000000000000000000000000000000000000000602082015250565b7f455243313136373a20637265617465206661696c656400000000000000000000600082015250565b7f4c2d000000000000000000000000000000000000000000000000000000000000600082015250565b7f532d000000000000000000000000000000000000000000000000000000000000600082015250565b7f2d4c4f4e47000000000000000000000000000000000000000000000000000000600082015250565b7f4f776e61626c653a2063616c6c6572206973206e6f7420746865206f776e6572600082015250565b7f546f6b656e20646563696d616c73203e20313800000000000000000000000000600082015250565b7f506f6f6c4b6565706572206e6f74207365740000000000000000000000000000600082015250565b7f506f6f6c436f6d6d69747465724465706c6f796572206e6f7420736574000000600082015250565b7f616464726573732063616e6e6f74206265206e756c6c00000000000000000000600082015250565b612608816121f8565b811461261357600080fd5b50565b61261f81612216565b811461262a57600080fd5b50565b61263681612242565b811461264157600080fd5b50565b61264d81612270565b811461265857600080fd5b50565b6126648161227a565b811461266f57600080fd5b50565b61267b8161228a565b811461268657600080fd5b5056fea264697066735822122027b55bc4a03cd4a0449fed289928d5ce3264ff87a99f39f8faf91c05addab05164736f6c6343000806003360806040523480156200001157600080fd5b506040518060400160405280600a81526020017f424153455f544f4b454e000000000000000000000000000000000000000000008152506040518060400160405280600481526020017f4241534500000000000000000000000000000000000000000000000000000000815250816004908051906020019062000096929190620000d4565b508060059080519060200190620000af929190620000d4565b506008600660006101000a81548160ff021916908360ff1602179055505050620001e9565b828054620000e29062000184565b90600052602060002090601f01602090048101928262000106576000855562000152565b82601f106200012157805160ff191683800117855562000152565b8280016001018555821562000152579182015b828111156200015157825182559160200191906001019062000134565b5b50905062000161919062000165565b5090565b5b808211156200018057600081600090555060010162000166565b5090565b600060028204905060018216806200019d57607f821691505b60208210811415620001b457620001b3620001ba565b5b50919050565b7f4e487b7100000000000000000000000000000000000000000000000000000000600052602260045260246000fd5b611f2180620001f96000396000f3fe608060405234801561001057600080fd5b50600436106101005760003560e01c80639065714711610097578063a9059cbb11610066578063a9059cbb146102d7578063dd62ed3e14610307578063f2fde38b14610337578063fcd3533c1461035357610100565b8063906571471461023d57806394bf804d1461025957806395d89b4114610289578063a457c2d7146102a757610100565b8063313ce567116100d3578063313ce567146101a157806339509351146101bf57806370a08231146101ef5780638da5cb5b1461021f57610100565b806306fdde0314610105578063095ea7b31461012357806318160ddd1461015357806323b872dd14610171575b600080fd5b61010d610383565b60405161011a9190611848565b60405180910390f35b61013d600480360381019061013891906115e2565b610415565b60405161014a919061182d565b60405180910390f35b61015b610433565b604051610168919061198a565b60405180910390f35b61018b60048036038101906101869190611504565b61043d565b604051610198919061182d565b60405180910390f35b6101a96104f5565b6040516101b691906119a5565b60405180910390f35b6101d960048036038101906101d491906115e2565b61050c565b6040516101e6919061182d565b60405180910390f35b61020960048036038101906102049190611497565b6105b8565b604051610216919061198a565b60405180910390f35b610227610601565b6040516102349190611812565b60405180910390f35b61025760048036038101906102529190611557565b610627565b005b610273600480360381019061026e9190611622565b61078e565b604051610280919061182d565b60405180910390f35b610291610834565b60405161029e9190611848565b60405180910390f35b6102c160048036038101906102bc91906115e2565b6108c6565b6040516102ce919061182d565b60405180910390f35b6102f160048036038101906102ec91906115e2565b610972565b6040516102fe919061182d565b60405180910390f35b610321600480360381019061031c91906114c4565b610990565b60405161032e919061198a565b60405180910390f35b610351600480360381019061034c9190611497565b610a17565b005b61036d60048036038101906103689190611622565b610b5b565b60405161037a919061182d565b60405180910390f35b60606004805461039290611b53565b80601f01602080910402602001604051908101604052809291908181526020018280546103be90611b53565b801561040b5780601f106103e05761010080835404028352916020019161040b565b820191906000526020600020905b8154815290600101906020018083116103ee57829003601f168201915b5050505050905090565b6000610429610422610c01565b8484610c09565b6001905092915050565b6000600354905090565b600061044a848484610dd4565b6104ea84610456610c01565b84600260008973ffffffffffffffffffffffffffffffffffffffff1673ffffffffffffffffffffffffffffffffffffffff16815260200190815260200160002060006104a0610c01565b73ffffffffffffffffffffffffffffffffffffffff1673ffffffffffffffffffffffffffffffffffffffff168152602001908152602001600020546104e59190611a88565b610c09565b600190509392505050565b6000600660009054906101000a900460ff16905090565b60006105ae610519610c01565b848460026000610527610c01565b73ffffffffffffffffffffffffffffffffffffffff1673ffffffffffffffffffffffffffffffffffffffff16815260200190815260200160002060008873ffffffffffffffffffffffffffffffffffffffff1673ffffffffffffffffffffffffffffffffffffffff168152602001908152602001600020546105a99190611a32565b610c09565b6001905092915050565b6000600160008373ffffffffffffffffffffffffffffffffffffffff1673ffffffffffffffffffffffffffffffffffffffff168152602001908152602001600020549050919050565b600660019054906101000a900473ffffffffffffffffffffffffffffffffffffffff1681565b600060019054906101000a900460ff168061064d575060008054906101000a900460ff16155b61068c576040517f08c379a0000000000000000000000000000000000000000000000000000000008152600401610683906118ca565b60405180910390fd5b60008060019054906101000a900460ff1615905080156106dc576001600060016101000a81548160ff02191690831515021790555060016000806101000a81548160ff0219169083151502179055505b83600660016101000a81548173ffffffffffffffffffffffffffffffffffffffff021916908373ffffffffffffffffffffffffffffffffffffffff160217905550826004908051906020019061073392919061135a565b50816005908051906020019061074a92919061135a565b506012600660006101000a81548160ff021916908360ff16021790555080156107885760008060016101000a81548160ff0219169083151502179055505b50505050565b6000600660019054906101000a900473ffffffffffffffffffffffffffffffffffffffff1673ffffffffffffffffffffffffffffffffffffffff163373ffffffffffffffffffffffffffffffffffffffff1614610820576040517f08c379a0000000000000000000000000000000000000000000000000000000008152600401610817906118ea565b60405180910390fd5b61082a8284611045565b6001905092915050565b60606005805461084390611b53565b80601f016020809104026020016040519081016040528092919081815260200182805461086f90611b53565b80156108bc5780601f10610891576101008083540402835291602001916108bc565b820191906000526020600020905b81548152906001019060200180831161089f57829003601f168201915b5050505050905090565b60006109686108d3610c01565b8484600260006108e1610c01565b73ffffffffffffffffffffffffffffffffffffffff1673ffffffffffffffffffffffffffffffffffffffff16815260200190815260200160002060008873ffffffffffffffffffffffffffffffffffffffff1673ffffffffffffffffffffffffffffffffffffffff168152602001908152602001600020546109639190611a88565b610c09565b6001905092915050565b600061098661097f610c01565b8484610dd4565b6001905092915050565b6000600260008473ffffffffffffffffffffffffffffffffffffffff1673ffffffffffffffffffffffffffffffffffffffff16815260200190815260200160002060008373ffffffffffffffffffffffffffffffffffffffff1673ffffffffffffffffffffffffffffffffffffffff16815260200190815260200160002054905092915050565b600660019054906101000a900473ffffffffffffffffffffffffffffffffffffffff1673ffffffffffffffffffffffffffffffffffffffff163373ffffffffffffffffffffffffffffffffffffffff1614610aa7576040517f08c379a0000000000000000000000000000000000000000000000000000000008152600401610a9e906118ea565b60405180910390fd5b600073ffffffffffffffffffffffffffffffffffffffff168173ffffffffffffffffffffffffffffffffffffffff161415610b17576040517f08c379a0000000000000000000000000000000000000000000000000000000008152600401610b0e9061188a565b60405180910390fd5b80600660016101000a81548173ffffffffffffffffffffffffffffffffffffffff021916908373ffffffffffffffffffffffffffffffffffffffff16021790555050565b6000600660019054906101000a900473ffffffffffffffffffffffffffffffffffffffff1673ffffffffffffffffffffffffffffffffffffffff163373ffffffffffffffffffffffffffffffffffffffff1614610bed576040517f08c379a0000000000000000000000000000000000000000000000000000000008152600401610be4906118ea565b60405180910390fd5b610bf782846111cd565b6001905092915050565b600033905090565b600073ffffffffffffffffffffffffffffffffffffffff168373ffffffffffffffffffffffffffffffffffffffff161415610c79576040517f08c379a0000000000000000000000000000000000000000000000000000000008152600401610c709061194a565b60405180910390fd5b600073ffffffffffffffffffffffffffffffffffffffff168273ffffffffffffffffffffffffffffffffffffffff161415610ce9576040517f08c379a0000000000000000000000000000000000000000000000000000000008152600401610ce0906118aa565b60405180910390fd5b80600260008573ffffffffffffffffffffffffffffffffffffffff1673ffffffffffffffffffffffffffffffffffffffff16815260200190815260200160002060008473ffffffffffffffffffffffffffffffffffffffff1673ffffffffffffffffffffffffffffffffffffffff168152602001908152602001600020819055508173ffffffffffffffffffffffffffffffffffffffff168373ffffffffffffffffffffffffffffffffffffffff167f8c5be1e5ebec7d5bd14f71427d1e84f3dd0314c0f7b2291e5b200ac8c7c3b92583604051610dc7919061198a565b60405180910390a3505050565b600073ffffffffffffffffffffffffffffffffffffffff168373ffffffffffffffffffffffffffffffffffffffff161415610e44576040517f08c379a0000000000000000000000000000000000000000000000000000000008152600401610e3b9061192a565b60405180910390fd5b600073ffffffffffffffffffffffffffffffffffffffff168273ffffffffffffffffffffffffffffffffffffffff161415610eb4576040517f08c379a0000000000000000000000000000000000000000000000000000000008152600401610eab9061186a565b60405180910390fd5b610ebf838383611355565b80600160008573ffffffffffffffffffffffffffffffffffffffff1673ffffffffffffffffffffffffffffffffffffffff16815260200190815260200160002054610f0a9190611a88565b600160008573ffffffffffffffffffffffffffffffffffffffff1673ffffffffffffffffffffffffffffffffffffffff1681526020019081526020016000208190555080600160008473ffffffffffffffffffffffffffffffffffffffff1673ffffffffffffffffffffffffffffffffffffffff16815260200190815260200160002054610f989190611a32565b600160008473ffffffffffffffffffffffffffffffffffffffff1673ffffffffffffffffffffffffffffffffffffffff168152602001908152602001600020819055508173ffffffffffffffffffffffffffffffffffffffff168373ffffffffffffffffffffffffffffffffffffffff167fddf252ad1be2c89b69c2b068fc378daa952ba7f163c4a11628f55a4df523b3ef83604051611038919061198a565b60405180910390a3505050565b600073ffffffffffffffffffffffffffffffffffffffff168273ffffffffffffffffffffffffffffffffffffffff1614156110b5576040517f08c379a00000000000000000000000000000000000000000000000000000000081526004016110ac9061196a565b60405180910390fd5b6110c160008383611355565b806003546110cf9190611a32565b60038190555080600160008473ffffffffffffffffffffffffffffffffffffffff1673ffffffffffffffffffffffffffffffffffffffff168152602001908152602001600020546111209190611a32565b600160008473ffffffffffffffffffffffffffffffffffffffff1673ffffffffffffffffffffffffffffffffffffffff168152602001908152602001600020819055508173ffffffffffffffffffffffffffffffffffffffff16600073ffffffffffffffffffffffffffffffffffffffff167fddf252ad1be2c89b69c2b068fc378daa952ba7f163c4a11628f55a4df523b3ef836040516111c1919061198a565b60405180910390a35050565b600073ffffffffffffffffffffffffffffffffffffffff168273ffffffffffffffffffffffffffffffffffffffff16141561123d576040517f08c379a00000000000000000000000000000000000000000000000000000000081526004016112349061190a565b60405180910390fd5b61124982600083611355565b80600160008473ffffffffffffffffffffffffffffffffffffffff1673ffffffffffffffffffffffffffffffffffffffff168152602001908152602001600020546112949190611a88565b600160008473ffffffffffffffffffffffffffffffffffffffff1673ffffffffffffffffffffffffffffffffffffffff16815260200190815260200160002081905550806003546112e59190611a88565b600381905550600073ffffffffffffffffffffffffffffffffffffffff168273ffffffffffffffffffffffffffffffffffffffff167fddf252ad1be2c89b69c2b068fc378daa952ba7f163c4a11628f55a4df523b3ef83604051611349919061198a565b60405180910390a35050565b505050565b82805461136690611b53565b90600052602060002090601f01602090048101928261138857600085556113cf565b82601f106113a157805160ff19168380011785556113cf565b828001600101855582156113cf579182015b828111156113ce5782518255916020019190600101906113b3565b5b5090506113dc91906113e0565b5090565b5b808211156113f95760008160009055506001016113e1565b5090565b600061141061140b846119e5565b6119c0565b90508281526020810184848401111561142c5761142b611c48565b5b611437848285611b11565b509392505050565b60008135905061144e81611ebd565b92915050565b600082601f83011261146957611468611c43565b5b81356114798482602086016113fd565b91505092915050565b60008135905061149181611ed4565b92915050565b6000602082840312156114ad576114ac611c52565b5b60006114bb8482850161143f565b91505092915050565b600080604083850312156114db576114da611c52565b5b60006114e98582860161143f565b92505060206114fa8582860161143f565b9150509250929050565b60008060006060848603121561151d5761151c611c52565b5b600061152b8682870161143f565b935050602061153c8682870161143f565b925050604061154d86828701611482565b9150509250925092565b6000806000606084860312156115705761156f611c52565b5b600061157e8682870161143f565b935050602084013567ffffffffffffffff81111561159f5761159e611c4d565b5b6115ab86828701611454565b925050604084013567ffffffffffffffff8111156115cc576115cb611c4d565b5b6115d886828701611454565b9150509250925092565b600080604083850312156115f9576115f8611c52565b5b60006116078582860161143f565b925050602061161885828601611482565b9150509250929050565b6000806040838503121561163957611638611c52565b5b600061164785828601611482565b92505060206116588582860161143f565b9150509250929050565b61166b81611abc565b82525050565b61167a81611ace565b82525050565b600061168b82611a16565b6116958185611a21565b93506116a5818560208601611b20565b6116ae81611c57565b840191505092915050565b60006116c6602383611a21565b91506116d182611c68565b604082019050919050565b60006116e9601b83611a21565b91506116f482611cb7565b602082019050919050565b600061170c602283611a21565b915061171782611ce0565b604082019050919050565b600061172f602e83611a21565b915061173a82611d2f565b604082019050919050565b6000611752601483611a21565b915061175d82611d7e565b602082019050919050565b6000611775602183611a21565b915061178082611da7565b604082019050919050565b6000611798602583611a21565b91506117a382611df6565b604082019050919050565b60006117bb602483611a21565b91506117c682611e45565b604082019050919050565b60006117de601f83611a21565b91506117e982611e94565b602082019050919050565b6117fd81611afa565b82525050565b61180c81611b04565b82525050565b60006020820190506118276000830184611662565b92915050565b60006020820190506118426000830184611671565b92915050565b600060208201905081810360008301526118628184611680565b905092915050565b60006020820190508181036000830152611883816116b9565b9050919050565b600060208201905081810360008301526118a3816116dc565b9050919050565b600060208201905081810360008301526118c3816116ff565b9050919050565b600060208201905081810360008301526118e381611722565b9050919050565b6000602082019050818103600083015261190381611745565b9050919050565b6000602082019050818103600083015261192381611768565b9050919050565b600060208201905081810360008301526119438161178b565b9050919050565b60006020820190508181036000830152611963816117ae565b9050919050565b60006020820190508181036000830152611983816117d1565b9050919050565b600060208201905061199f60008301846117f4565b92915050565b60006020820190506119ba6000830184611803565b92915050565b60006119ca6119db565b90506119d68282611b85565b919050565b6000604051905090565b600067ffffffffffffffff821115611a00576119ff611c14565b5b611a0982611c57565b9050602081019050919050565b600081519050919050565b600082825260208201905092915050565b6000611a3d82611afa565b9150611a4883611afa565b9250827fffffffffffffffffffffffffffffffffffffffffffffffffffffffffffffffff03821115611a7d57611a7c611bb6565b5b828201905092915050565b6000611a9382611afa565b9150611a9e83611afa565b925082821015611ab157611ab0611bb6565b5b828203905092915050565b6000611ac782611ada565b9050919050565b60008115159050919050565b600073ffffffffffffffffffffffffffffffffffffffff82169050919050565b6000819050919050565b600060ff82169050919050565b82818337600083830152505050565b60005b83811015611b3e578082015181840152602081019050611b23565b83811115611b4d576000848401525b50505050565b60006002820490506001821680611b6b57607f821691505b60208210811415611b7f57611b7e611be5565b5b50919050565b611b8e82611c57565b810181811067ffffffffffffffff82111715611bad57611bac611c14565b5b80604052505050565b7f4e487b7100000000000000000000000000000000000000000000000000000000600052601160045260246000fd5b7f4e487b7100000000000000000000000000000000000000000000000000000000600052602260045260246000fd5b7f4e487b7100000000000000000000000000000000000000000000000000000000600052604160045260246000fd5b600080fd5b600080fd5b600080fd5b600080fd5b6000601f19601f8301169050919050565b7f45524332303a207472616e7366657220746f20746865207a65726f206164647260008201527f6573730000000000000000000000000000000000000000000000000000000000602082015250565b7f4f776e65723a2073657474696e6720746f203020616464726573730000000000600082015250565b7f45524332303a20617070726f766520746f20746865207a65726f20616464726560008201527f7373000000000000000000000000000000000000000000000000000000000000602082015250565b7f496e697469616c697a61626c653a20636f6e747261637420697320616c72656160008201527f647920696e697469616c697a6564000000000000000000000000000000000000602082015250565b7f6d73672e73656e646572206e6f74206f776e6572000000000000000000000000600082015250565b7f45524332303a206275726e2066726f6d20746865207a65726f2061646472657360008201527f7300000000000000000000000000000000000000000000000000000000000000602082015250565b7f45524332303a207472616e736665722066726f6d20746865207a65726f20616460008201527f6472657373000000000000000000000000000000000000000000000000000000602082015250565b7f45524332303a20617070726f76652066726f6d20746865207a65726f2061646460008201527f7265737300000000000000000000000000000000000000000000000000000000602082015250565b7f45524332303a206d696e7420746f20746865207a65726f206164647265737300600082015250565b611ec681611abc565b8114611ed157600080fd5b50565b611edd81611afa565b8114611ee857600080fd5b5056fea26469706673582212201f747be7b5ada2f68067d198f26381441d9db8bfbd9375a400169d068ef1e73564736f6c63430008060033608060405234801561001057600080fd5b50614856806100206000396000f3fe608060405234801561001057600080fd5b50600436106101da5760003560e01c80637e71fc7d11610104578063bbcaac38116100a2578063f3466dfa11610071578063f3466dfa146104ff578063f633a7401461051d578063fab0dd6a14610539578063fd2c80ae14610555576101da565b8063bbcaac381461048b578063cd39f30f146104a7578063d38bfff4146104c5578063ddca3f43146104e1576101da565b8063ab47c2b3116100de578063ab47c2b314610413578063aced166114610431578063b9ed8abf1461044f578063ba8d54681461046d576101da565b80637e71fc7d146103bb5780638226f396146103d957806387f9ca5d146103f7576101da565b80636dc2b2711161017c5780637b0a0c901161014b5780637b0a0c90146103455780637bbf1033146103615780637bfe789a1461037f5780637de93f931461039d576101da565b80636dc2b271146102bf578063748747e6146102ef57806375c66e2f1461030b578063796da7af14610327576101da565b80634f64b2be116101b85780634f64b2be146102375780635817f0c6146102675780635aa6e675146102835780636d3e313e146102a1576101da565b8063217a4b70146101df5780633c3f8252146101fd5780634127535814610219575b600080fd5b6101e7610573565b6040516101f4919061382b565b60405180910390f35b61021760048036038101906102129190613063565b610599565b005b61022161063b565b60405161022e919061382b565b60405180910390f35b610251600480360381019061024c9190613036565b610661565b60405161025e919061382b565b60405180910390f35b610281600480360381019061027c9190612e5f565b610697565b005b61028b6107e8565b604051610298919061382b565b60405180910390f35b6102a961080e565b6040516102b691906138d8565b60405180910390f35b6102d960048036038101906102d49190612e5f565b61088f565b6040516102e691906138f3565b60405180910390f35b61030960048036038101906103049190612ddf565b610a47565b005b610325600480360381019061032091906130e3565b610c2f565b005b61032f610e83565b60405161033c9190613952565b60405180910390f35b61035f600480360381019061035a9190612e0c565b610f2a565b005b6103696110ee565b60405161037691906138f3565b60405180910390f35b61038761111e565b6040516103949190613e00565b60405180910390f35b6103a5611134565b6040516103b29190613d85565b60405180910390f35b6103c361113a565b6040516103d09190613d85565b60405180910390f35b6103e1611140565b6040516103ee919061382b565b60405180910390f35b610411600480360381019061040c91906130e3565b611166565b005b61041b6113ba565b604051610428919061390e565b60405180910390f35b6104396113cd565b604051610446919061382b565b60405180910390f35b6104576113f3565b604051610464919061382b565b60405180910390f35b610475611419565b6040516104829190613d85565b60405180910390f35b6104a560048036038101906104a09190612ddf565b61141f565b005b6104af611607565b6040516104bc919061382b565b60405180910390f35b6104df60048036038101906104da9190612ddf565b61162d565b005b6104e9611815565b6040516104f6919061390e565b60405180910390f35b610507611828565b604051610514919061396d565b60405180910390f35b61053760048036038101906105329190612f53565b6118b6565b005b610553600480360381019061054e9190612fc0565b611a59565b005b61055d6126a7565b60405161056a9190613e00565b60405180910390f35b600a60009054906101000a900473ffffffffffffffffffffffffffffffffffffffff1681565b600b60009054906101000a900473ffffffffffffffffffffffffffffffffffffffff1673ffffffffffffffffffffffffffffffffffffffff163373ffffffffffffffffffffffffffffffffffffffff1614610629576040517f08c379a000000000000000000000000000000000000000000000000000000000815260040161062090613bcf565b60405180910390fd5b81600281905550806001819055505050565b600960009054906101000a900473ffffffffffffffffffffffffffffffffffffffff1681565b6005816002811061067157600080fd5b016000915054906101000a900473ffffffffffffffffffffffffffffffffffffffff1681565b600b60009054906101000a900473ffffffffffffffffffffffffffffffffffffffff1673ffffffffffffffffffffffffffffffffffffffff163373ffffffffffffffffffffffffffffffffffffffff1614610727576040517f08c379a000000000000000000000000000000000000000000000000000000000815260040161071e90613bcf565b60405180910390fd5b600073ffffffffffffffffffffffffffffffffffffffff168273ffffffffffffffffffffffffffffffffffffffff161415610797576040517f08c379a000000000000000000000000000000000000000000000000000000000815260040161078e90613d2f565b60405180910390fd5b6107e48282600a60009054906101000a900473ffffffffffffffffffffffffffffffffffffffff1673ffffffffffffffffffffffffffffffffffffffff166126bd9092919063ffffffff16565b5050565b600760009054906101000a900473ffffffffffffffffffffffffffffffffffffffff1681565b610816612c13565b6005600280602002604051908101604052809291908260028015610885576020028201915b8160009054906101000a900473ffffffffffffffffffffffffffffffffffffffff1673ffffffffffffffffffffffffffffffffffffffff168152602001906001019080831161083b575b5050505050905090565b6000600860009054906101000a900473ffffffffffffffffffffffffffffffffffffffff1673ffffffffffffffffffffffffffffffffffffffff163373ffffffffffffffffffffffffffffffffffffffff1614610921576040517f08c379a000000000000000000000000000000000000000000000000000000000815260040161091890613aaf565b60405180910390fd5b6000600154905060006002549050808261093b9190613edd565b841061094c57600092505050610a41565b600080739C7259B98BE2f9110ed55D39e205f5CA3D3AE62263dc35bc138786866040518463ffffffff1660e01b815260040161098a93929190613dc9565b604080518083038186803b1580156109a157600080fd5b505af41580156109b5573d6000803e3d6000fd5b505050506040513d601f19601f820116820180604052508101906109d991906130a3565b915091508160018190555080600281905550610a388787600a60009054906101000a900473ffffffffffffffffffffffffffffffffffffffff1673ffffffffffffffffffffffffffffffffffffffff166126bd9092919063ffffffff16565b60019450505050505b92915050565b600760009054906101000a900473ffffffffffffffffffffffffffffffffffffffff1673ffffffffffffffffffffffffffffffffffffffff163373ffffffffffffffffffffffffffffffffffffffff1614610ad7576040517f08c379a0000000000000000000000000000000000000000000000000000000008152600401610ace90613cef565b60405180910390fd5b600073ffffffffffffffffffffffffffffffffffffffff168173ffffffffffffffffffffffffffffffffffffffff161415610b47576040517f08c379a0000000000000000000000000000000000000000000000000000000008152600401610b3e90613bef565b60405180910390fd5b6000600860009054906101000a900473ffffffffffffffffffffffffffffffffffffffff16905081600860006101000a81548173ffffffffffffffffffffffffffffffffffffffff021916908373ffffffffffffffffffffffffffffffffffffffff160217905550600860009054906101000a900473ffffffffffffffffffffffffffffffffffffffff1673ffffffffffffffffffffffffffffffffffffffff168173ffffffffffffffffffffffffffffffffffffffff167f402b3f9a8de3e388e7653c7a5892204fe18b579c8c23db19d6e00f1043ceb92160405160405180910390a35050565b600b60009054906101000a900473ffffffffffffffffffffffffffffffffffffffff1673ffffffffffffffffffffffffffffffffffffffff163373ffffffffffffffffffffffffffffffffffffffff1614610cbf576040517f08c379a0000000000000000000000000000000000000000000000000000000008152600401610cb690613bcf565b60405180910390fd5b600073ffffffffffffffffffffffffffffffffffffffff168173ffffffffffffffffffffffffffffffffffffffff161415610d2f576040517f08c379a0000000000000000000000000000000000000000000000000000000008152600401610d2690613b8f565b60405180910390fd5b6000831480610d3e5750600183145b610d7d576040517f08c379a0000000000000000000000000000000000000000000000000000000008152600401610d7490613a6f565b60405180910390fd5b60058360028110610d9157610d906140c0565b5b0160009054906101000a900473ffffffffffffffffffffffffffffffffffffffff1673ffffffffffffffffffffffffffffffffffffffff166394bf804d83836040518363ffffffff1660e01b8152600401610ded929190613da0565b602060405180830381600087803b158015610e0757600080fd5b505af1158015610e1b573d6000803e3d6000fd5b505050506040513d601f19601f82011682018060405250810190610e3f9190612e9f565b610e7e576040517f08c379a0000000000000000000000000000000000000000000000000000000008152600401610e75906139cf565b60405180910390fd5b505050565b6000600e60009054906101000a900473ffffffffffffffffffffffffffffffffffffffff1673ffffffffffffffffffffffffffffffffffffffff166398d5fdca6040518163ffffffff1660e01b815260040160206040518083038186803b158015610eed57600080fd5b505afa158015610f01573d6000803e3d6000fd5b505050506040513d601f19601f82011682018060405250810190610f259190612f26565b905090565b600b60009054906101000a900473ffffffffffffffffffffffffffffffffffffffff1673ffffffffffffffffffffffffffffffffffffffff163373ffffffffffffffffffffffffffffffffffffffff1614610fba576040517f08c379a0000000000000000000000000000000000000000000000000000000008152600401610fb190613bcf565b60405180910390fd5b600073ffffffffffffffffffffffffffffffffffffffff168373ffffffffffffffffffffffffffffffffffffffff16141561102a576040517f08c379a000000000000000000000000000000000000000000000000000000000815260040161102190613a2f565b60405180910390fd5b600073ffffffffffffffffffffffffffffffffffffffff168273ffffffffffffffffffffffffffffffffffffffff16141561109a576040517f08c379a000000000000000000000000000000000000000000000000000000000815260040161109190613d2f565b60405180910390fd5b6110e9838383600a60009054906101000a900473ffffffffffffffffffffffffffffffffffffffff1673ffffffffffffffffffffffffffffffffffffffff16612743909392919063ffffffff16565b505050565b6000600360049054906101000a900463ffffffff1663ffffffff16600c546111169190613edd565b421015905090565b600360009054906101000a900463ffffffff1681565b600c5481565b60025481565b600f60009054906101000a900473ffffffffffffffffffffffffffffffffffffffff1681565b600b60009054906101000a900473ffffffffffffffffffffffffffffffffffffffff1673ffffffffffffffffffffffffffffffffffffffff163373ffffffffffffffffffffffffffffffffffffffff16146111f6576040517f08c379a00000000000000000000000000000000000000000000000000000000081526004016111ed90613bcf565b60405180910390fd5b600073ffffffffffffffffffffffffffffffffffffffff168173ffffffffffffffffffffffffffffffffffffffff161415611266576040517f08c379a000000000000000000000000000000000000000000000000000000000815260040161125d906139af565b60405180910390fd5b60008314806112755750600183145b6112b4576040517f08c379a00000000000000000000000000000000000000000000000000000000081526004016112ab90613a6f565b60405180910390fd5b600583600281106112c8576112c76140c0565b5b0160009054906101000a900473ffffffffffffffffffffffffffffffffffffffff1673ffffffffffffffffffffffffffffffffffffffff1663fcd3533c83836040518363ffffffff1660e01b8152600401611324929190613da0565b602060405180830381600087803b15801561133e57600080fd5b505af1158015611352573d6000803e3d6000fd5b505050506040513d601f19601f820116820180604052508101906113769190612e9f565b6113b5576040517f08c379a00000000000000000000000000000000000000000000000000000000081526004016113ac90613a4f565b60405180910390fd5b505050565b600460009054906101000a900460801b81565b600860009054906101000a900473ffffffffffffffffffffffffffffffffffffffff1681565b600e60009054906101000a900473ffffffffffffffffffffffffffffffffffffffff1681565b60015481565b600760009054906101000a900473ffffffffffffffffffffffffffffffffffffffff1673ffffffffffffffffffffffffffffffffffffffff163373ffffffffffffffffffffffffffffffffffffffff16146114af576040517f08c379a00000000000000000000000000000000000000000000000000000000081526004016114a690613cef565b60405180910390fd5b600073ffffffffffffffffffffffffffffffffffffffff168173ffffffffffffffffffffffffffffffffffffffff16141561151f576040517f08c379a0000000000000000000000000000000000000000000000000000000008152600401611516906139ef565b60405180910390fd5b6000600960009054906101000a900473ffffffffffffffffffffffffffffffffffffffff16905081600960006101000a81548173ffffffffffffffffffffffffffffffffffffffff021916908373ffffffffffffffffffffffffffffffffffffffff160217905550600960009054906101000a900473ffffffffffffffffffffffffffffffffffffffff1673ffffffffffffffffffffffffffffffffffffffff168173ffffffffffffffffffffffffffffffffffffffff167f11f35a22548bcd4c3788ab4a7e4fba427a2014f02e5d5e2da9af62212c03183f60405160405180910390a35050565b600b60009054906101000a900473ffffffffffffffffffffffffffffffffffffffff1681565b600760009054906101000a900473ffffffffffffffffffffffffffffffffffffffff1673ffffffffffffffffffffffffffffffffffffffff163373ffffffffffffffffffffffffffffffffffffffff16146116bd576040517f08c379a00000000000000000000000000000000000000000000000000000000081526004016116b490613cef565b60405180910390fd5b600073ffffffffffffffffffffffffffffffffffffffff168173ffffffffffffffffffffffffffffffffffffffff16141561172d576040517f08c379a00000000000000000000000000000000000000000000000000000000081526004016117249061398f565b60405180910390fd5b6000600760009054906101000a900473ffffffffffffffffffffffffffffffffffffffff16905081600760006101000a81548173ffffffffffffffffffffffffffffffffffffffff021916908373ffffffffffffffffffffffffffffffffffffffff160217905550600760009054906101000a900473ffffffffffffffffffffffffffffffffffffffff1673ffffffffffffffffffffffffffffffffffffffff168173ffffffffffffffffffffffffffffffffffffffff167f023588d3d1dcaad34e471c9e01b616b794156174bc693539c8fe15c0bfd5d82660405160405180910390a35050565b600360089054906101000a900460801b81565b600d805461183590614030565b80601f016020809104026020016040519081016040528092919081815260200182805461186190614030565b80156118ae5780601f10611883576101008083540402835291602001916118ae565b820191906000526020600020905b81548152906001019060200180831161189157829003601f168201915b505050505081565b600860009054906101000a900473ffffffffffffffffffffffffffffffffffffffff1673ffffffffffffffffffffffffffffffffffffffff163373ffffffffffffffffffffffffffffffffffffffff1614611946576040517f08c379a000000000000000000000000000000000000000000000000000000000815260040161193d90613b2f565b60405180910390fd5b61194e6110ee565b61198d576040517f08c379a000000000000000000000000000000000000000000000000000000000815260040161198490613a8f565b60405180910390fd5b4264ffffffffff16600c819055506119a582826127cc565b600b60009054906101000a900473ffffffffffffffffffffffffffffffffffffffff1673ffffffffffffffffffffffffffffffffffffffff16631c536da46040518163ffffffff1660e01b8152600401600060405180830381600087803b158015611a0f57600080fd5b505af1158015611a23573d6000803e3d6000fd5b5050505080827fff8740b55453301923810a0c8f4b6b2da72577fdc5e874f77bebaadcfa2775e260405160405180910390a35050565b600060019054906101000a900460ff1680611a7f575060008054906101000a900460ff16155b611abe576040517f08c379a0000000000000000000000000000000000000000000000000000000008152600401611ab590613acf565b60405180910390fd5b60008060019054906101000a900460ff161590508015611b0e576001600060016101000a81548160ff02191690831515021790555060016000806101000a81548160ff0219169083151502179055505b600073ffffffffffffffffffffffffffffffffffffffff1682610180016020810190611b3a9190612ddf565b73ffffffffffffffffffffffffffffffffffffffff161415611b91576040517f08c379a0000000000000000000000000000000000000000000000000000000008152600401611b8890613c8f565b60405180910390fd5b600073ffffffffffffffffffffffffffffffffffffffff16826101a0016020810190611bbd9190612ddf565b73ffffffffffffffffffffffffffffffffffffffff161415611c14576040517f08c379a0000000000000000000000000000000000000000000000000000000008152600401611c0b90613b4f565b60405180910390fd5b600073ffffffffffffffffffffffffffffffffffffffff16826040016020810190611c3f9190612ddf565b73ffffffffffffffffffffffffffffffffffffffff161415611c96576040517f08c379a0000000000000000000000000000000000000000000000000000000008152600401611c8d90613aef565b60405180910390fd5b600073ffffffffffffffffffffffffffffffffffffffff16826060016020810190611cc19190612ddf565b73ffffffffffffffffffffffffffffffffffffffff161415611d18576040517f08c379a0000000000000000000000000000000000000000000000000000000008152600401611d0f90613c0f565b60405180910390fd5b600073ffffffffffffffffffffffffffffffffffffffff16826000016020810190611d439190612ddf565b73ffffffffffffffffffffffffffffffffffffffff161415611d9a576040517f08c379a0000000000000000000000000000000000000000000000000000000008152600401611d9190613b0f565b60405180910390fd5b600073ffffffffffffffffffffffffffffffffffffffff16826020016020810190611dc59190612ddf565b73ffffffffffffffffffffffffffffffffffffffff161415611e1c576040517f08c379a0000000000000000000000000000000000000000000000000000000008152600401611e1390613baf565b60405180910390fd5b600073ffffffffffffffffffffffffffffffffffffffff16826080016020810190611e479190612ddf565b73ffffffffffffffffffffffffffffffffffffffff161415611e9e576040517f08c379a0000000000000000000000000000000000000000000000000000000008152600401611e9590613c4f565b60405180910390fd5b600073ffffffffffffffffffffffffffffffffffffffff168260a0016020810190611ec99190612ddf565b73ffffffffffffffffffffffffffffffffffffffff161415611f20576040517f08c379a0000000000000000000000000000000000000000000000000000000008152600401611f1790613caf565b60405180910390fd5b600073ffffffffffffffffffffffffffffffffffffffff168260c0016020810190611f4b9190612ddf565b73ffffffffffffffffffffffffffffffffffffffff161415611fa2576040517f08c379a0000000000000000000000000000000000000000000000000000000008152600401611f9990613b6f565b60405180910390fd5b81610120016020810190611fb69190613189565b63ffffffff1682610100016020810190611fd09190613189565b63ffffffff1610612016576040517f08c379a000000000000000000000000000000000000000000000000000000000815260040161200d90613d0f565b60405180910390fd5b7fffffffffffffffffffffffffffffffffffffffffffffffffffffffffffffffff739C7259B98BE2f9110ed55D39e205f5CA3D3AE622631842c9d8846101400160208101906120659190612ecc565b6f3fff000000000000000000000000000060801b6040518363ffffffff1660e01b8152600401612096929190613929565b60206040518083038186803b1580156120ae57600080fd5b505af41580156120c2573d6000803e3d6000fd5b505050506040513d601f19601f820116820180604052508101906120e69190612f93565b60000b14612129576040517f08c379a000000000000000000000000000000000000000000000000000000000815260040161212090613c6f565b60405180910390fd5b81600001602081019061213c9190612ddf565b600760006101000a81548173ffffffffffffffffffffffffffffffffffffffff021916908373ffffffffffffffffffffffffffffffffffffffff16021790555081602001602081019061218f9190612ddf565b600860006101000a81548173ffffffffffffffffffffffffffffffffffffffff021916908373ffffffffffffffffffffffffffffffffffffffff1602179055508160400160208101906121e29190612ddf565b600e60006101000a81548173ffffffffffffffffffffffffffffffffffffffff021916908373ffffffffffffffffffffffffffffffffffffffff1602179055508160600160208101906122359190612ddf565b600f60006101000a81548173ffffffffffffffffffffffffffffffffffffffff021916908373ffffffffffffffffffffffffffffffffffffffff160217905550816101a00160208101906122899190612ddf565b600a60006101000a81548173ffffffffffffffffffffffffffffffffffffffff021916908373ffffffffffffffffffffffffffffffffffffffff160217905550816101000160208101906122dd9190613189565b600360006101000a81548163ffffffff021916908363ffffffff160217905550816101200160208101906123119190613189565b600360046101000a81548163ffffffff021916908363ffffffff160217905550816101400160208101906123459190612ecc565b600360086101000a8154816fffffffffffffffffffffffffffffffff021916908360801c0217905550739C7259B98BE2f9110ed55D39e205f5CA3D3AE62263dfdbe4da8361016001602081019061239c9190613009565b6040518263ffffffff1660e01b81526004016123b89190613d6a565b60206040518083038186803b1580156123d057600080fd5b505af41580156123e4573d6000803e3d6000fd5b505050506040513d601f19601f820116820180604052508101906124089190612ef9565b600460006101000a8154816fffffffffffffffffffffffffffffffff021916908360801c0217905550816101800160208101906124459190612ddf565b600960006101000a81548173ffffffffffffffffffffffffffffffffffffffff021916908373ffffffffffffffffffffffffffffffffffffffff1602179055504264ffffffffff16600c81905550818060e001906124a39190613e1b565b600d91906124b2929190612c35565b508160800160208101906124c69190612ddf565b60056000600281106124db576124da6140c0565b5b0160006101000a81548173ffffffffffffffffffffffffffffffffffffffff021916908373ffffffffffffffffffffffffffffffffffffffff1602179055508160a001602081019061252d9190612ddf565b6005600160028110612542576125416140c0565b5b0160006101000a81548173ffffffffffffffffffffffffffffffffffffffff021916908373ffffffffffffffffffffffffffffffffffffffff1602179055508160c00160208101906125949190612ddf565b600b60006101000a81548173ffffffffffffffffffffffffffffffffffffffff021916908373ffffffffffffffffffffffffffffffffffffffff1602179055508160a00160208101906125e79190612ddf565b73ffffffffffffffffffffffffffffffffffffffff168260800160208101906126109190612ddf565b73ffffffffffffffffffffffffffffffffffffffff167fbc8bd61e5dd69ff5cb8c389529c029503515ba368eaafbdaa406e072fdd36072846101a001602081019061265b9190612ddf565b858060e0019061266b9190613e1b565b60405161267a9392919061387d565b60405180910390a380156126a35760008060016101000a81548160ff0219169083151502179055505b5050565b600360049054906101000a900463ffffffff1681565b61273e8363a9059cbb60e01b84846040516024016126dc9291906138af565b604051602081830303815290604052907bffffffffffffffffffffffffffffffffffffffffffffffffffffffff19166020820180517bffffffffffffffffffffffffffffffffffffffffffffffffffffffff83818316178352505050506129a6565b505050565b6127c6846323b872dd60e01b85858560405160240161276493929190613846565b604051602081830303815290604052907bffffffffffffffffffffffffffffffffffffffffffffffffffffffff19166020820180517bffffffffffffffffffffffffffffffffffffffffffffffffffffffff83818316178352505050506129a6565b50505050565b6000821315806127dd575060008113155b156128155780827f27f70c863f1bd3e335bb4d6bf2a31075c861752f0b21a03b816a356035b1dec660405160405180910390a36129a2565b60006040518060c0016040528084815260200183815260200160025481526020016001548152602001600460009054906101000a900460801b6fffffffffffffffffffffffffffffffff19168152602001600360089054906101000a900460801b6fffffffffffffffffffffffffffffffff191681525090506000806000739C7259B98BE2f9110ed55D39e205f5CA3D3AE62263a481c1b4856040518263ffffffff1660e01b81526004016128ca9190613d4f565b60606040518083038186803b1580156128e257600080fd5b505af41580156128f6573d6000803e3d6000fd5b505050506040513d601f19601f8201168201806040525081019061291a9190613136565b925092509250826002819055508160018190555061299d600960009054906101000a900473ffffffffffffffffffffffffffffffffffffffff1682600a60009054906101000a900473ffffffffffffffffffffffffffffffffffffffff1673ffffffffffffffffffffffffffffffffffffffff166126bd9092919063ffffffff16565b505050505b5050565b6000612a08826040518060400160405280602081526020017f5361666545524332303a206c6f772d6c6576656c2063616c6c206661696c65648152508573ffffffffffffffffffffffffffffffffffffffff16612a6d9092919063ffffffff16565b9050600081511115612a685780806020019051810190612a289190612e9f565b612a67576040517f08c379a0000000000000000000000000000000000000000000000000000000008152600401612a5e90613ccf565b60405180910390fd5b5b505050565b6060612a7c8484600085612a85565b90509392505050565b606082471015612aca576040517f08c379a0000000000000000000000000000000000000000000000000000000008152600401612ac190613a0f565b60405180910390fd5b612ad385612b99565b612b12576040517f08c379a0000000000000000000000000000000000000000000000000000000008152600401612b0990613c2f565b60405180910390fd5b6000808673ffffffffffffffffffffffffffffffffffffffff168587604051612b3b9190613814565b60006040518083038185875af1925050503d8060008114612b78576040519150601f19603f3d011682016040523d82523d6000602084013e612b7d565b606091505b5091509150612b8d828286612bac565b92505050949350505050565b600080823b905060008111915050919050565b60608315612bbc57829050612c0c565b600083511115612bcf5782518084602001fd5b816040517f08c379a0000000000000000000000000000000000000000000000000000000008152600401612c03919061396d565b60405180910390fd5b9392505050565b6040518060400160405280600290602082028036833780820191505090505090565b828054612c4190614030565b90600052602060002090601f016020900481019282612c635760008555612caa565b82601f10612c7c57803560ff1916838001178555612caa565b82800160010185558215612caa579182015b82811115612ca9578235825591602001919060010190612c8e565b5b509050612cb79190612cbb565b5090565b5b80821115612cd4576000816000905550600101612cbc565b5090565b600081359050612ce781614768565b92915050565b600081519050612cfc8161477f565b92915050565b600081359050612d1181614796565b92915050565b600081519050612d2681614796565b92915050565b600081359050612d3b816147ad565b92915050565b600081519050612d50816147ad565b92915050565b600081519050612d65816147c4565b92915050565b60006101c08284031215612d8257612d816140f4565b5b81905092915050565b600081359050612d9a816147db565b92915050565b600081359050612daf816147f2565b92915050565b600081519050612dc4816147f2565b92915050565b600081359050612dd981614809565b92915050565b600060208284031215612df557612df4614108565b5b6000612e0384828501612cd8565b91505092915050565b600080600060608486031215612e2557612e24614108565b5b6000612e3386828701612cd8565b9350506020612e4486828701612cd8565b9250506040612e5586828701612da0565b9150509250925092565b60008060408385031215612e7657612e75614108565b5b6000612e8485828601612cd8565b9250506020612e9585828601612da0565b9150509250929050565b600060208284031215612eb557612eb4614108565b5b6000612ec384828501612ced565b91505092915050565b600060208284031215612ee257612ee1614108565b5b6000612ef084828501612d02565b91505092915050565b600060208284031215612f0f57612f0e614108565b5b6000612f1d84828501612d17565b91505092915050565b600060208284031215612f3c57612f3b614108565b5b6000612f4a84828501612d41565b91505092915050565b60008060408385031215612f6a57612f69614108565b5b6000612f7885828601612d2c565b9250506020612f8985828601612d2c565b9150509250929050565b600060208284031215612fa957612fa8614108565b5b6000612fb784828501612d56565b91505092915050565b600060208284031215612fd657612fd5614108565b5b600082013567ffffffffffffffff811115612ff457612ff3614103565b5b61300084828501612d6b565b91505092915050565b60006020828403121561301f5761301e614108565b5b600061302d84828501612d8b565b91505092915050565b60006020828403121561304c5761304b614108565b5b600061305a84828501612da0565b91505092915050565b6000806040838503121561307a57613079614108565b5b600061308885828601612da0565b925050602061309985828601612da0565b9150509250929050565b600080604083850312156130ba576130b9614108565b5b60006130c885828601612db5565b92505060206130d985828601612db5565b9150509250929050565b6000806000606084860312156130fc576130fb614108565b5b600061310a86828701612da0565b935050602061311b86828701612da0565b925050604061312c86828701612cd8565b9150509250925092565b60008060006060848603121561314f5761314e614108565b5b600061315d86828701612db5565b935050602061316e86828701612db5565b925050604061317f86828701612db5565b9150509250925092565b60006020828403121561319f5761319e614108565b5b60006131ad84828501612dca565b91505092915050565b60006131c283836131ce565b60208301905092915050565b6131d781613f33565b82525050565b6131e681613f33565b82525050565b6131f581613e88565b6131ff8184613eb6565b925061320a82613e7e565b8060005b8381101561323b57815161322287826131b6565b965061322d83613ea9565b92505060018101905061320e565b505050505050565b61324c81613f45565b82525050565b61325b81613f51565b82525050565b61326a81613f51565b82525050565b61327981613f51565b82525050565b600061328a82613e93565b6132948185613ec1565b93506132a4818560208601613ffd565b80840191505092915050565b6132b981613f7d565b82525050565b6132c881613f7d565b82525050565b60006132da8385613ecc565b93506132e7838584613fee565b6132f08361410d565b840190509392505050565b600061330682613e9e565b6133108185613ecc565b9350613320818560208601613ffd565b6133298161410d565b840191505092915050565b6000613341602683613ecc565b915061334c8261411e565b604082019050919050565b6000613364602283613ecc565b915061336f8261416d565b604082019050919050565b6000613387600b83613ecc565b9150613392826141bc565b602082019050919050565b60006133aa601b83613ecc565b91506133b5826141e5565b602082019050919050565b60006133cd602683613ecc565b91506133d88261420e565b604082019050919050565b60006133f0602083613ecc565b91506133fb8261425d565b602082019050919050565b6000613413600b83613ecc565b915061341e82614286565b602082019050919050565b6000613436601883613ecc565b9150613441826142af565b602082019050919050565b6000613459601d83613ecc565b9150613464826142d8565b602082019050919050565b600061347c601183613ecc565b915061348782614301565b602082019050919050565b600061349f602e83613ecc565b91506134aa8261432a565b604082019050919050565b60006134c2602283613ecc565b91506134cd82614379565b604082019050919050565b60006134e5601983613ecc565b91506134f0826143c8565b602082019050919050565b6000613508601583613ecc565b9150613513826143f1565b602082019050919050565b600061352b601f83613ecc565b91506135368261441a565b602082019050919050565b600061354e602183613ecc565b915061355982614443565b604082019050919050565b6000613571602283613ecc565b915061357c82614492565b604082019050919050565b6000613594601a83613ecc565b915061359f826144e1565b602082019050919050565b60006135b7601c83613ecc565b91506135c28261450a565b602082019050919050565b60006135da602283613ecc565b91506135e582614533565b604082019050919050565b60006135fd602183613ecc565b915061360882614582565b604082019050919050565b6000613620601d83613ecc565b915061362b826145d1565b602082019050919050565b6000613643601e83613ecc565b915061364e826145fa565b602082019050919050565b6000613666601883613ecc565b915061367182614623565b602082019050919050565b6000613689601f83613ecc565b91506136948261464c565b602082019050919050565b60006136ac601f83613ecc565b91506136b782614675565b602082019050919050565b60006136cf602a83613ecc565b91506136da8261469e565b604082019050919050565b60006136f2601983613ecc565b91506136fd826146ed565b602082019050919050565b6000613715601d83613ecc565b915061372082614716565b602082019050919050565b6000613738601e83613ecc565b91506137438261473f565b602082019050919050565b60c08201600082015161376460008501826132bf565b50602082015161377760208501826132bf565b50604082015161378a60408501826137f6565b50606082015161379d60608501826137f6565b5060808201516137b06080850182613270565b5060a08201516137c360a0850182613270565b50505050565b6137d281613fdc565b82525050565b6137e181613fc2565b82525050565b6137f081613fc2565b82525050565b6137ff81613fc2565b82525050565b61380e81613fcc565b82525050565b6000613820828461327f565b915081905092915050565b600060208201905061384060008301846131dd565b92915050565b600060608201905061385b60008301866131dd565b61386860208301856131dd565b61387560408301846137d8565b949350505050565b600060408201905061389260008301866131dd565b81810360208301526138a58184866132ce565b9050949350505050565b60006040820190506138c460008301856131dd565b6138d160208301846137d8565b9392505050565b60006040820190506138ed60008301846131ec565b92915050565b60006020820190506139086000830184613243565b92915050565b60006020820190506139236000830184613252565b92915050565b600060408201905061393e6000830185613261565b61394b6020830184613261565b9392505050565b600060208201905061396760008301846132b0565b92915050565b6000602082019050818103600083015261398781846132fb565b905092915050565b600060208201905081810360008301526139a881613334565b9050919050565b600060208201905081810360008301526139c881613357565b9050919050565b600060208201905081810360008301526139e88161337a565b9050919050565b60006020820190508181036000830152613a088161339d565b9050919050565b60006020820190508181036000830152613a28816133c0565b9050919050565b60006020820190508181036000830152613a48816133e3565b9050919050565b60006020820190508181036000830152613a6881613406565b9050919050565b60006020820190508181036000830152613a8881613429565b9050919050565b60006020820190508181036000830152613aa88161344c565b9050919050565b60006020820190508181036000830152613ac88161346f565b9050919050565b60006020820190508181036000830152613ae881613492565b9050919050565b60006020820190508181036000830152613b08816134b5565b9050919050565b60006020820190508181036000830152613b28816134d8565b9050919050565b60006020820190508181036000830152613b48816134fb565b9050919050565b60006020820190508181036000830152613b688161351e565b9050919050565b60006020820190508181036000830152613b8881613541565b9050919050565b60006020820190508181036000830152613ba881613564565b9050919050565b60006020820190508181036000830152613bc881613587565b9050919050565b60006020820190508181036000830152613be8816135aa565b9050919050565b60006020820190508181036000830152613c08816135cd565b9050919050565b60006020820190508181036000830152613c28816135f0565b9050919050565b60006020820190508181036000830152613c4881613613565b9050919050565b60006020820190508181036000830152613c6881613636565b9050919050565b60006020820190508181036000830152613c8881613659565b9050919050565b60006020820190508181036000830152613ca88161367c565b9050919050565b60006020820190508181036000830152613cc88161369f565b9050919050565b60006020820190508181036000830152613ce8816136c2565b9050919050565b60006020820190508181036000830152613d08816136e5565b9050919050565b60006020820190508181036000830152613d2881613708565b9050919050565b60006020820190508181036000830152613d488161372b565b9050919050565b600060c082019050613d64600083018461374e565b92915050565b6000602082019050613d7f60008301846137c9565b92915050565b6000602082019050613d9a60008301846137d8565b92915050565b6000604082019050613db560008301856137d8565b613dc260208301846131dd565b9392505050565b6000606082019050613dde60008301866137e7565b613deb60208301856137e7565b613df860408301846137e7565b949350505050565b6000602082019050613e156000830184613805565b92915050565b60008083356001602003843603038112613e3857613e376140f9565b5b80840192508235915067ffffffffffffffff821115613e5a57613e596140ef565b5b602083019250600182023603831315613e7657613e756140fe565b5b509250929050565b6000819050919050565b600060029050919050565b600081519050919050565b600081519050919050565b6000602082019050919050565b600081905092915050565b600081905092915050565b600082825260208201905092915050565b6000613ee882613fc2565b9150613ef383613fc2565b9250827fffffffffffffffffffffffffffffffffffffffffffffffffffffffffffffffff03821115613f2857613f27614062565b5b828201905092915050565b6000613f3e82613fa2565b9050919050565b60008115159050919050565b60007fffffffffffffffffffffffffffffffff0000000000000000000000000000000082169050919050565b6000819050919050565b60008160000b9050919050565b600061ffff82169050919050565b600073ffffffffffffffffffffffffffffffffffffffff82169050919050565b6000819050919050565b600063ffffffff82169050919050565b6000613fe782613f94565b9050919050565b82818337600083830152505050565b60005b8381101561401b578082015181840152602081019050614000565b8381111561402a576000848401525b50505050565b6000600282049050600182168061404857607f821691505b6020821081141561405c5761405b614091565b5b50919050565b7f4e487b7100000000000000000000000000000000000000000000000000000000600052601160045260246000fd5b7f4e487b7100000000000000000000000000000000000000000000000000000000600052602260045260246000fd5b7f4e487b7100000000000000000000000000000000000000000000000000000000600052603260045260246000fd5b600080fd5b600080fd5b600080fd5b600080fd5b600080fd5b600080fd5b6000601f19601f8301169050919050565b7f476f7665726e616e636520616464726573732063616e6e6f742062652030206160008201527f6464726573730000000000000000000000000000000000000000000000000000602082015250565b7f4275726e657220616464726573732063616e6e6f74206265203020616464726560008201527f7373000000000000000000000000000000000000000000000000000000000000602082015250565b7f4d696e74206661696c6564000000000000000000000000000000000000000000600082015250565b7f4163636f756e742063616e6e6f74206265203020616464726573730000000000600082015250565b7f416464726573733a20696e73756666696369656e742062616c616e636520666f60008201527f722063616c6c0000000000000000000000000000000000000000000000000000602082015250565b7f46726f6d20616464726573732063616e6e6f7420626520302061646472657373600082015250565b7f4275726e206661696c6564000000000000000000000000000000000000000000600082015250565b7f506f6f6c3a20746f6b656e206f7574206f662072616e67650000000000000000600082015250565b7f55706461746520696e74657276616c206861736e277420706173736564000000600082015250565b7f73656e646572206e6f74206b6565706572000000000000000000000000000000600082015250565b7f496e697469616c697a61626c653a20636f6e747261637420697320616c72656160008201527f647920696e697469616c697a6564000000000000000000000000000000000000602082015250565b7f4f7261636c6520777261707065722063616e6e6f74206265203020616464726560008201527f7373000000000000000000000000000000000000000000000000000000000000602082015250565b7f4f776e65722063616e6e6f742062652030206164647265737300000000000000600082015250565b7f6d73672e73656e646572206e6f74206b65657065720000000000000000000000600082015250565b7f51756f746520746f6b656e2063616e6e6f742062652030206164647265737300600082015250565b7f506f6f6c436f6d6d69747465722063616e6e6f7420626520302061646472657360008201527f7300000000000000000000000000000000000000000000000000000000000000602082015250565b7f4d696e74657220616464726573732063616e6e6f74206265203020616464726560008201527f7373000000000000000000000000000000000000000000000000000000000000602082015250565b7f4b65657065722063616e6e6f7420626520302061646472657373000000000000600082015250565b7f6d73672e73656e646572206e6f7420706f6f6c436f6d6d697474657200000000600082015250565b7f4b656570657220616464726573732063616e6e6f74206265203020616464726560008201527f7373000000000000000000000000000000000000000000000000000000000000602082015250565b7f4b6565706572206f7261636c652063616e6e6f7420626520302061646472657360008201527f7300000000000000000000000000000000000000000000000000000000000000602082015250565b7f416464726573733a2063616c6c20746f206e6f6e2d636f6e7472616374000000600082015250565b7f4c6f6e6720746f6b656e2063616e6e6f74206265203020616464726573730000600082015250565b7f4665652069732067726561746572207468616e20313030250000000000000000600082015250565b7f46656520616464726573732063616e6e6f742062652030206164647265737300600082015250565b7f53686f727420746f6b656e2063616e6e6f742062652030206164647265737300600082015250565b7f5361666545524332303a204552433230206f7065726174696f6e20646964206e60008201527f6f74207375636365656400000000000000000000000000000000000000000000602082015250565b7f6d73672e73656e646572206e6f7420676f7665726e616e636500000000000000600082015250565b7f66726f6e7452756e6e696e67203e20757064617465496e74657276616c000000600082015250565b7f546f20616464726573732063616e6e6f74206265203020616464726573730000600082015250565b61477181613f33565b811461477c57600080fd5b50565b61478881613f45565b811461479357600080fd5b50565b61479f81613f51565b81146147aa57600080fd5b50565b6147b681613f7d565b81146147c157600080fd5b50565b6147cd81613f87565b81146147d857600080fd5b50565b6147e481613f94565b81146147ef57600080fd5b50565b6147fb81613fc2565b811461480657600080fd5b50565b61481281613fcc565b811461481d57600080fd5b5056fea2646970667358221220884832a69b3bc051ccfea6485b8e4d9f080a6966943857f70645b167c76e7eaa64736f6c63430008060033",
  "libraries": {
    "PoolSwapLibrary": "0x9C7259B98BE2f9110ed55D39e205f5CA3D3AE622"
  },
  "devdoc": {
    "kind": "dev",
    "methods": {
      "deployPool((string,uint32,uint32,uint16,address,address,address))": {
        "params": {
          "deploymentParameters": "Deployment parameters of the market. Some may be reconfigurable"
        },
        "returns": {
          "_0": "Address of the created pool"
        }
      },
      "owner()": {
        "details": "Returns the address of the current owner."
      },
      "renounceOwnership()": {
        "details": "Leaves the contract without owner. It will not be possible to call `onlyOwner` functions anymore. Can only be called by the current owner. NOTE: Renouncing ownership will leave the contract without an owner, thereby removing any functionality that is only available to the owner."
      },
      "transferOwnership(address)": {
        "details": "Transfers ownership of the contract to a new account (`newOwner`). Can only be called by the current owner."
      }
    },
    "title": "The pool factory contract",
    "version": 1
  },
  "userdoc": {
    "events": {
      "DeployPool(address,string)": {
        "notice": "Creates a notification when a pool is deployed"
      }
    },
    "kind": "user",
    "methods": {
      "deployPool((string,uint32,uint32,uint16,address,address,address))": {
        "notice": "Deploy a leveraged pool with given parameters"
      },
      "isValidPool(address)": {
        "notice": "Format: Pool address => validity"
      },
      "pools(uint256)": {
        "notice": "Format: Pool counter => pool address"
      }
    },
    "version": 1
  },
  "storageLayout": {
    "storage": [
      {
        "astId": 110,
        "contract": "contracts/implementation/PoolFactory.sol:PoolFactory",
        "label": "_owner",
        "offset": 0,
        "slot": "0",
        "type": "t_address"
      },
      {
        "astId": 7005,
        "contract": "contracts/implementation/PoolFactory.sol:PoolFactory",
        "label": "pairTokenBase",
        "offset": 0,
        "slot": "1",
        "type": "t_contract(PoolToken)8715"
      },
      {
        "astId": 7008,
        "contract": "contracts/implementation/PoolFactory.sol:PoolFactory",
        "label": "poolBase",
        "offset": 0,
        "slot": "2",
        "type": "t_contract(LeveragedPool)6984"
      },
      {
        "astId": 7011,
        "contract": "contracts/implementation/PoolFactory.sol:PoolFactory",
        "label": "poolKeeper",
        "offset": 0,
        "slot": "3",
        "type": "t_contract(IPoolKeeper)9228"
      },
      {
        "astId": 7014,
        "contract": "contracts/implementation/PoolFactory.sol:PoolFactory",
        "label": "poolCommitterDeployer",
        "offset": 0,
        "slot": "4",
        "type": "t_contract(IPoolCommitterDeployer)9078"
      },
      {
        "astId": 7017,
        "contract": "contracts/implementation/PoolFactory.sol:PoolFactory",
        "label": "maxLeverage",
        "offset": 20,
        "slot": "4",
        "type": "t_uint16"
      },
      {
        "astId": 7019,
        "contract": "contracts/implementation/PoolFactory.sol:PoolFactory",
        "label": "feeReceiver",
        "offset": 0,
        "slot": "5",
        "type": "t_address"
      },
      {
        "astId": 7021,
        "contract": "contracts/implementation/PoolFactory.sol:PoolFactory",
        "label": "fee",
        "offset": 0,
        "slot": "6",
        "type": "t_bytes16"
      },
      {
        "astId": 7027,
        "contract": "contracts/implementation/PoolFactory.sol:PoolFactory",
        "label": "pools",
        "offset": 0,
        "slot": "7",
        "type": "t_mapping(t_uint256,t_address)"
      },
      {
        "astId": 7030,
        "contract": "contracts/implementation/PoolFactory.sol:PoolFactory",
        "label": "numPools",
        "offset": 0,
        "slot": "8",
        "type": "t_uint256"
      },
      {
        "astId": 7036,
        "contract": "contracts/implementation/PoolFactory.sol:PoolFactory",
        "label": "isValidPool",
        "offset": 0,
        "slot": "9",
        "type": "t_mapping(t_address,t_bool)"
      }
    ],
    "types": {
      "t_address": {
        "encoding": "inplace",
        "label": "address",
        "numberOfBytes": "20"
      },
      "t_bool": {
        "encoding": "inplace",
        "label": "bool",
        "numberOfBytes": "1"
      },
      "t_bytes16": {
        "encoding": "inplace",
        "label": "bytes16",
        "numberOfBytes": "16"
      },
      "t_contract(IPoolCommitterDeployer)9078": {
        "encoding": "inplace",
        "label": "contract IPoolCommitterDeployer",
        "numberOfBytes": "20"
      },
      "t_contract(IPoolKeeper)9228": {
        "encoding": "inplace",
        "label": "contract IPoolKeeper",
        "numberOfBytes": "20"
      },
      "t_contract(LeveragedPool)6984": {
        "encoding": "inplace",
        "label": "contract LeveragedPool",
        "numberOfBytes": "20"
      },
      "t_contract(PoolToken)8715": {
        "encoding": "inplace",
        "label": "contract PoolToken",
        "numberOfBytes": "20"
      },
      "t_mapping(t_address,t_bool)": {
        "encoding": "mapping",
        "key": "t_address",
        "label": "mapping(address => bool)",
        "numberOfBytes": "32",
        "value": "t_bool"
      },
      "t_mapping(t_uint256,t_address)": {
        "encoding": "mapping",
        "key": "t_uint256",
        "label": "mapping(uint256 => address)",
        "numberOfBytes": "32",
        "value": "t_address"
      },
      "t_uint16": {
        "encoding": "inplace",
        "label": "uint16",
        "numberOfBytes": "2"
      },
      "t_uint256": {
        "encoding": "inplace",
        "label": "uint256",
        "numberOfBytes": "32"
      }
    }
  }
}