{
  "address": "0xc780a41076C0eaFc3653bEE978856EDE8c0d2421",
  "abi": [
    {
      "inputs": [
        {
          "internalType": "address",
          "name": "_factory",
          "type": "address"
        }
      ],
      "stateMutability": "nonpayable",
      "type": "constructor"
    },
    {
      "inputs": [],
      "name": "deploy",
      "outputs": [
        {
          "internalType": "address",
          "name": "",
          "type": "address"
        }
      ],
      "stateMutability": "nonpayable",
      "type": "function"
    },
    {
      "inputs": [],
      "name": "factory",
      "outputs": [
        {
          "internalType": "address",
          "name": "",
          "type": "address"
        }
      ],
      "stateMutability": "view",
      "type": "function"
    }
  ],
  "transactionHash": "0x509ea1d37d7336e8fe1ee0aa483941c8641a12fe2e4007cc3370425e961d7498",
  "args": [
    "0x14AeC5949c1302671D3da4cA9B0cE4323D320609"
  ],
  "solcInputHash": "fbe836eae600467d274908d7e5994f61",
  "bytecode": "0x608060405234801561001057600080fd5b506040516148743803806148748339818101604052810190610032919061008d565b806000806101000a81548173ffffffffffffffffffffffffffffffffffffffff021916908373ffffffffffffffffffffffffffffffffffffffff16021790555050610108565b600081519050610087816100f1565b92915050565b6000602082840312156100a3576100a26100ec565b5b60006100b184828501610078565b91505092915050565b60006100c5826100cc565b9050919050565b600073ffffffffffffffffffffffffffffffffffffffff82169050919050565b600080fd5b6100fa816100ba565b811461010557600080fd5b50565b61475d806101176000396000f3fe608060405234801561001057600080fd5b50600436106100365760003560e01c8063775c300c1461003b578063c45a015514610059575b600080fd5b610043610077565b60405161005091906101c4565b60405180910390f35b610061610161565b60405161006e91906101c4565b60405180910390f35b60008060009054906101000a900473ffffffffffffffffffffffffffffffffffffffff1673ffffffffffffffffffffffffffffffffffffffff163373ffffffffffffffffffffffffffffffffffffffff1614610108576040517f08c379a00000000000000000000000000000000000000000000000000000000081526004016100ff906101df565b60405180910390fd5b60008054906101000a900473ffffffffffffffffffffffffffffffffffffffff1660405161013590610185565b61013f91906101c4565b604051809103906000f08015801561015b573d6000803e3d6000fd5b50905090565b60008054906101000a900473ffffffffffffffffffffffffffffffffffffffff1681565b6144bc8061026c83390190565b61019b81610210565b82525050565b60006101ae6016836101ff565b91506101b982610242565b602082019050919050565b60006020820190506101d96000830184610192565b92915050565b600060208201905081810360008301526101f8816101a1565b9050919050565b600082825260208201905092915050565b600061021b82610222565b9050919050565b600073ffffffffffffffffffffffffffffffffffffffff82169050919050565b7f6d73672e73656e646572206e6f7420666163746f72790000000000000000000060008201525056fe60806040526fffffffffffffffffffffffffffffffff600260006101000a8154816fffffffffffffffffffffffffffffffff02191690836fffffffffffffffffffffffffffffffff1602179055503480156200005a57600080fd5b50604051620044bc380380620044bc8339818101604052810190620000809190620001cb565b620000a062000094620000e860201b60201c565b620000f060201b60201c565b80600660006101000a81548173ffffffffffffffffffffffffffffffffffffffff021916908373ffffffffffffffffffffffffffffffffffffffff1602179055505062000250565b600033905090565b60008060009054906101000a900473ffffffffffffffffffffffffffffffffffffffff169050816000806101000a81548173ffffffffffffffffffffffffffffffffffffffff021916908373ffffffffffffffffffffffffffffffffffffffff1602179055508173ffffffffffffffffffffffffffffffffffffffff168173ffffffffffffffffffffffffffffffffffffffff167f8be0079c531659141344cd1fd0a4f28419497f9722a3daafe3b4186f6b6457e060405160405180910390a35050565b600081519050620001c58162000236565b92915050565b600060208284031215620001e457620001e362000231565b5b6000620001f484828501620001b4565b91505092915050565b60006200020a8262000211565b9050919050565b600073ffffffffffffffffffffffffffffffffffffffff82169050919050565b600080fd5b6200024181620001fd565b81146200024d57600080fd5b50565b61425c80620002606000396000f3fe608060405234801561001057600080fd5b50600436106101165760003560e01c80639eda0cc2116100a2578063d44b1ff311610071578063d44b1ff3146102be578063e323aac6146102dc578063f2fde38b146102fa578063f9a0e14e14610316578063fd555fb91461033457610116565b80639eda0cc214610236578063b3fecffe14610254578063c45a015514610270578063caf4c2c51461028e57610116565b806351b450f6116100e957806351b450f6146101a6578063605814fc146101c2578063715018a6146101f2578063822255de146101fc5780638da5cb5b1461021857610116565b80631c536da41461011b57806329075d711461012557806330f75260146101585780634139757714610176575b600080fd5b610123610350565b005b61013f600480360381019061013a91906134aa565b6109bb565b60405161014f9493929190613a77565b60405180910390f35b610160610a29565b60405161016d9190613a41565b60405180910390f35b610190600480360381019061018b91906134d7565b610a3d565b60405161019d9190613a5c565b60405180910390f35b6101c060048036038101906101bb91906134aa565b610a55565b005b6101dc60048036038101906101d79190613410565b610e66565b6040516101e99190613a5c565b60405180910390f35b6101fa610f48565b005b6102166004803603810190610211919061343d565b610fd0565b005b610220611563565b60405161022d91906137d4565b60405180910390f35b61023e61158c565b60405161024b9190613a41565b60405180910390f35b61026e6004803603810190610269919061347d565b6115ae565b005b610278612469565b60405161028591906137d4565b60405180910390f35b6102a860048036038101906102a391906134aa565b61248f565b6040516102b59190613a26565b60405180910390f35b6102c66125a4565b6040516102d39190613a41565b60405180910390f35b6102e46125c6565b6040516102f191906137d4565b60405180910390f35b610314600480360381019061030f919061331c565b6125ec565b005b61031e6126e4565b60405161032b9190613a41565b60405180910390f35b61034e60048036038101906103499190613349565b612706565b005b600160009054906101000a900473ffffffffffffffffffffffffffffffffffffffff1673ffffffffffffffffffffffffffffffffffffffff163373ffffffffffffffffffffffffffffffffffffffff16146103e0576040517f08c379a00000000000000000000000000000000000000000000000000000000081526004016103d790613a06565b60405180910390fd5b6fffffffffffffffffffffffffffffffff8016600260009054906101000a90046fffffffffffffffffffffffffffffffff166fffffffffffffffffffffffffffffffff16141561042f576109b9565b600080600160009054906101000a900473ffffffffffffffffffffffffffffffffffffffff16905060008173ffffffffffffffffffffffffffffffffffffffff16637bfe789a6040518163ffffffff1660e01b815260040160206040518083038186803b15801561049f57600080fd5b505afa1580156104b3573d6000803e3d6000fd5b505050506040513d601f19601f820116820180604052508101906104d79190613531565b63ffffffff16905060008273ffffffffffffffffffffffffffffffffffffffff16637de93f936040518163ffffffff1660e01b815260040160206040518083038186803b15801561052757600080fd5b505afa15801561053b573d6000803e3d6000fd5b505050506040513d601f19601f8201168201806040525081019061055f9190613504565b90506000600260009054906101000a90046fffffffffffffffffffffffffffffffff1690505b600260109054906101000a90046fffffffffffffffffffffffffffffffff166fffffffffffffffffffffffffffffffff16816fffffffffffffffffffffffffffffffff161161097a57600060046000836fffffffffffffffffffffffffffffffff166fffffffffffffffffffffffffffffffff168152602001908152602001600020604051806080016040529081600082015481526020016001820160009054906101000a900460ff16600381111561064157610640613e7d565b5b600381111561065357610652613e7d565b5b81526020016001820160019054906101000a900464ffffffffff1664ffffffffff1664ffffffffff1681526020016001820160069054906101000a900473ffffffffffffffffffffffffffffffffffffffff1673ffffffffffffffffffffffffffffffffffffffff1673ffffffffffffffffffffffffffffffffffffffff16815250509050819550600073ffffffffffffffffffffffffffffffffffffffff16816060015173ffffffffffffffffffffffffffffffffffffffff161415610729576001866107219190613be6565b955050610967565b83816040015164ffffffffff16846107419190613cb6565b1161074c575061097a565b7f53e7d7eb888194c67870ec86b8523606069fb6eeeab81f458a6065b9e88defa98260405161077b9190613a41565b60405180910390a13073ffffffffffffffffffffffffffffffffffffffff1663b3fecffe826040518263ffffffff1660e01b81526004016107bc9190613a26565b600060405180830381600087803b1580156107d657600080fd5b505af19250505080156107e7575060015b610831576107f581836129ee565b7f089a8e68b5afa612f76f7ec1235a9d9d07e0d79462a6b0d862aaa0ac035426c1826040516108249190613a41565b60405180910390a16108c7565b60046000836fffffffffffffffffffffffffffffffff166fffffffffffffffffffffffffffffffff1681526020019081526020016000206000808201600090556001820160006101000a81549060ff02191690556001820160016101000a81549064ffffffffff02191690556001820160066101000a81549073ffffffffffffffffffffffffffffffffffffffff021916905550505b600260109054906101000a90046fffffffffffffffffffffffffffffffff166fffffffffffffffffffffffffffffffff16826fffffffffffffffffffffffffffffffff161415610965576fffffffffffffffffffffffffffffffff600260006101000a8154816fffffffffffffffffffffffffffffffff02191690836fffffffffffffffffffffffffffffffff1602179055505050505050506109b9565b505b808061097290613e15565b915050610585565b5083600260006101000a8154816fffffffffffffffffffffffffffffffff02191690836fffffffffffffffffffffffffffffffff160217905550505050505b565b60046020528060005260406000206000915090508060000154908060010160009054906101000a900460ff16908060010160019054906101000a900464ffffffffff16908060010160069054906101000a900473ffffffffffffffffffffffffffffffffffffffff16905084565b6fffffffffffffffffffffffffffffffff81565b60056020528060005260406000206000915090505481565b600060046000836fffffffffffffffffffffffffffffffff166fffffffffffffffffffffffffffffffff168152602001908152602001600020604051806080016040529081600082015481526020016001820160009054906101000a900460ff166003811115610ac857610ac7613e7d565b5b6003811115610ada57610ad9613e7d565b5b81526020016001820160019054906101000a900464ffffffffff1664ffffffffff1664ffffffffff1681526020016001820160069054906101000a900473ffffffffffffffffffffffffffffffffffffffff1673ffffffffffffffffffffffffffffffffffffffff1673ffffffffffffffffffffffffffffffffffffffff168152505090506000600160009054906101000a900473ffffffffffffffffffffffffffffffffffffffff16905060008173ffffffffffffffffffffffffffffffffffffffff16637de93f936040518163ffffffff1660e01b815260040160206040518083038186803b158015610bce57600080fd5b505afa158015610be2573d6000803e3d6000fd5b505050506040513d601f19601f82011682018060405250810190610c069190613504565b905060008273ffffffffffffffffffffffffffffffffffffffff16637bfe789a6040518163ffffffff1660e01b815260040160206040518083038186803b158015610c5057600080fd5b505afa158015610c64573d6000803e3d6000fd5b505050506040513d601f19601f82011682018060405250810190610c889190613531565b63ffffffff16905060008373ffffffffffffffffffffffffffffffffffffffff1663fd2c80ae6040518163ffffffff1660e01b815260040160206040518083038186803b158015610cd857600080fd5b505afa158015610cec573d6000803e3d6000fd5b505050506040513d601f19601f82011682018060405250810190610d109190613531565b63ffffffff169050739C7259B98BE2f9110ed55D39e205f5CA3D3AE62263aaa578b28483856040518463ffffffff1660e01b8152600401610d5393929190613b0e565b60206040518083038186803b158015610d6b57600080fd5b505af4158015610d7f573d6000803e3d6000fd5b505050506040513d601f19601f82011682018060405250810190610da391906133b6565b610de2576040517f08c379a0000000000000000000000000000000000000000000000000000000008152600401610dd9906139a6565b60405180910390fd5b846060015173ffffffffffffffffffffffffffffffffffffffff163373ffffffffffffffffffffffffffffffffffffffff1614610e54576040517f08c379a0000000000000000000000000000000000000000000000000000000008152600401610e4b90613906565b60405180910390fd5b610e5e85876129ee565b505050505050565b6000806003811115610e7b57610e7a613e7d565b5b826003811115610e8e57610e8d613e7d565b5b1415610e9d5760009050610f43565b60016003811115610eb157610eb0613e7d565b5b826003811115610ec457610ec3613e7d565b5b1415610ed35760019050610f43565b60026003811115610ee757610ee6613e7d565b5b826003811115610efa57610ef9613e7d565b5b1415610f095760029050610f43565b600380811115610f1c57610f1b613e7d565b5b826003811115610f2f57610f2e613e7d565b5b1415610f3e5760039050610f43565b600090505b919050565b610f5061301d565b73ffffffffffffffffffffffffffffffffffffffff16610f6e611563565b73ffffffffffffffffffffffffffffffffffffffff1614610fc4576040517f08c379a0000000000000000000000000000000000000000000000000000000008152600401610fbb906139c6565b60405180910390fd5b610fce6000613025565b565b60008111611013576040517f08c379a000000000000000000000000000000000000000000000000000000000815260040161100a90613966565b60405180910390fd5b6000600360009054906101000a90046fffffffffffffffffffffffffffffffff1690506001816110439190613be6565b600360006101000a8154816fffffffffffffffffffffffffffffffff02191690836fffffffffffffffffffffffffffffffff1602179055506000600160009054906101000a900473ffffffffffffffffffffffffffffffffffffffff16905060405180608001604052808481526020018560038111156110c6576110c5613e7d565b5b81526020014264ffffffffff1681526020013373ffffffffffffffffffffffffffffffffffffffff1681525060046000846fffffffffffffffffffffffffffffffff166fffffffffffffffffffffffffffffffff1681526020019081526020016000206000820151816000015560208201518160010160006101000a81548160ff0219169083600381111561115e5761115d613e7d565b5b021790555060408201518160010160016101000a81548164ffffffffff021916908364ffffffffff16021790555060608201518160010160066101000a81548173ffffffffffffffffffffffffffffffffffffffff021916908373ffffffffffffffffffffffffffffffffffffffff16021790555090505060006111e185610e66565b90508360056000838152602001908152602001600020546112029190613c2c565b60056000838152602001908152602001600020819055506fffffffffffffffffffffffffffffffff8016600260009054906101000a90046fffffffffffffffffffffffffffffffff166fffffffffffffffffffffffffffffffff16141561129d5782600260006101000a8154816fffffffffffffffffffffffffffffffff02191690836fffffffffffffffffffffffffffffffff1602179055505b82600260106101000a8154816fffffffffffffffffffffffffffffffff02191690836fffffffffffffffffffffffffffffffff1602179055508460038111156112e9576112e8613e7d565b5b84846fffffffffffffffffffffffffffffffff167feeb519088468e5ea7765bbf8c4464c3bde5ff110d8de10ee5db057be2599d1fc60405160405180910390a46002600381111561133d5761133c613e7d565b5b8560038111156113505761134f613e7d565b5b148061138057506000600381111561136b5761136a613e7d565b5b85600381111561137e5761137d613e7d565b5b145b1561141b578173ffffffffffffffffffffffffffffffffffffffff16637b0a0c9033600160009054906101000a900473ffffffffffffffffffffffffffffffffffffffff16876040518463ffffffff1660e01b81526004016113e4939291906137ef565b600060405180830381600087803b1580156113fe57600080fd5b505af1158015611412573d6000803e3d6000fd5b5050505061155c565b60038081111561142e5761142d613e7d565b5b85600381111561144157611440613e7d565b5b14156114bc578173ffffffffffffffffffffffffffffffffffffffff166387f9ca5d600086336040518463ffffffff1660e01b815260040161148593929190613878565b600060405180830381600087803b15801561149f57600080fd5b505af11580156114b3573d6000803e3d6000fd5b5050505061155b565b600160038111156114d0576114cf613e7d565b5b8560038111156114e3576114e2613e7d565b5b141561155a578173ffffffffffffffffffffffffffffffffffffffff166387f9ca5d600186336040518463ffffffff1660e01b8152600401611527939291906138af565b600060405180830381600087803b15801561154157600080fd5b505af1158015611555573d6000803e3d6000fd5b505050505b5b5b5050505050565b60008060009054906101000a900473ffffffffffffffffffffffffffffffffffffffff16905090565b600260009054906101000a90046fffffffffffffffffffffffffffffffff1681565b3073ffffffffffffffffffffffffffffffffffffffff163373ffffffffffffffffffffffffffffffffffffffff161461161c576040517f08c379a000000000000000000000000000000000000000000000000000000000815260040161161390613986565b60405180910390fd5b6000600160009054906101000a900473ffffffffffffffffffffffffffffffffffffffff16905060008173ffffffffffffffffffffffffffffffffffffffff1663ba8d54686040518163ffffffff1660e01b815260040160206040518083038186803b15801561168b57600080fd5b505afa15801561169f573d6000803e3d6000fd5b505050506040513d601f19601f820116820180604052508101906116c39190613504565b905060008273ffffffffffffffffffffffffffffffffffffffff16637e71fc7d6040518163ffffffff1660e01b815260040160206040518083038186803b15801561170d57600080fd5b505afa158015611721573d6000803e3d6000fd5b505050506040513d601f19601f820116820180604052508101906117459190613504565b905060006117568560200151610e66565b90508460000151600560008381526020019081526020016000205461177b9190613cb6565b6005600083815260200190815260200160002081905550600260038111156117a6576117a5613e7d565b5b856020015160038111156117bd576117bc613e7d565b5b1415611a7b576000739C7259B98BE2f9110ed55D39e205f5CA3D3AE62263ab41556f8673ffffffffffffffffffffffffffffffffffffffff16636d3e313e6040518163ffffffff1660e01b8152600401604080518083038186803b15801561182457600080fd5b505afa158015611838573d6000803e3d6000fd5b505050506040513d601f19601f8201168201806040525081019061185c9190613389565b60006002811061186f5761186e613eac565b5b602002015173ffffffffffffffffffffffffffffffffffffffff166318160ddd6040518163ffffffff1660e01b815260040160206040518083038186803b1580156118b957600080fd5b505afa1580156118cd573d6000803e3d6000fd5b505050506040513d601f19601f820116820180604052508101906118f19190613504565b886000015186600560006119056003610e66565b8152602001908152602001600020546040518563ffffffff1660e01b81526004016119339493929190613b45565b60206040518083038186803b15801561194b57600080fd5b505af415801561195f573d6000803e3d6000fd5b505050506040513d601f19601f820116820180604052508101906119839190613504565b90508473ffffffffffffffffffffffffffffffffffffffff166375c66e2f60008389606001516040518463ffffffff1660e01b81526004016119c793929190613878565b600060405180830381600087803b1580156119e157600080fd5b505af11580156119f5573d6000803e3d6000fd5b505050508473ffffffffffffffffffffffffffffffffffffffff16633c3f8252876000015185611a259190613c2c565b866040518363ffffffff1660e01b8152600401611a43929190613ae5565b600060405180830381600087803b158015611a5d57600080fd5b505af1158015611a71573d6000803e3d6000fd5b5050505050612462565b600380811115611a8e57611a8d613e7d565b5b85602001516003811115611aa557611aa4613e7d565b5b1415611dfa576000739C7259B98BE2f9110ed55D39e205f5CA3D3AE62263cda8198c739C7259B98BE2f9110ed55D39e205f5CA3D3AE62263cff70001868a6000015160056000611af56003610e66565b8152602001908152602001600020548b73ffffffffffffffffffffffffffffffffffffffff16636d3e313e6040518163ffffffff1660e01b8152600401604080518083038186803b158015611b4957600080fd5b505afa158015611b5d573d6000803e3d6000fd5b505050506040513d601f19601f82011682018060405250810190611b819190613389565b600060028110611b9457611b93613eac565b5b602002015173ffffffffffffffffffffffffffffffffffffffff166318160ddd6040518163ffffffff1660e01b815260040160206040518083038186803b158015611bde57600080fd5b505afa158015611bf2573d6000803e3d6000fd5b505050506040513d601f19601f82011682018060405250810190611c169190613504565b611c209190613c2c565b611c2a9190613c2c565b6040518363ffffffff1660e01b8152600401611c47929190613abc565b60206040518083038186803b158015611c5f57600080fd5b505af4158015611c73573d6000803e3d6000fd5b505050506040513d601f19601f82011682018060405250810190611c9791906133e3565b88600001516040518363ffffffff1660e01b8152600401611cb992919061384f565b60206040518083038186803b158015611cd157600080fd5b505af4158015611ce5573d6000803e3d6000fd5b505050506040513d601f19601f82011682018060405250810190611d099190613504565b90508473ffffffffffffffffffffffffffffffffffffffff16633c3f82528285611d339190613cb6565b866040518363ffffffff1660e01b8152600401611d51929190613ae5565b600060405180830381600087803b158015611d6b57600080fd5b505af1158015611d7f573d6000803e3d6000fd5b505050508473ffffffffffffffffffffffffffffffffffffffff16635817f0c68760600151836040518363ffffffff1660e01b8152600401611dc2929190613826565b600060405180830381600087803b158015611ddc57600080fd5b505af1158015611df0573d6000803e3d6000fd5b5050505050612461565b60006003811115611e0e57611e0d613e7d565b5b85602001516003811115611e2557611e24613e7d565b5b14156120e3576000739C7259B98BE2f9110ed55D39e205f5CA3D3AE62263ab41556f8673ffffffffffffffffffffffffffffffffffffffff16636d3e313e6040518163ffffffff1660e01b8152600401604080518083038186803b158015611e8c57600080fd5b505afa158015611ea0573d6000803e3d6000fd5b505050506040513d601f19601f82011682018060405250810190611ec49190613389565b600160028110611ed757611ed6613eac565b5b602002015173ffffffffffffffffffffffffffffffffffffffff166318160ddd6040518163ffffffff1660e01b815260040160206040518083038186803b158015611f2157600080fd5b505afa158015611f35573d6000803e3d6000fd5b505050506040513d601f19601f82011682018060405250810190611f599190613504565b88600001518760056000611f6d6001610e66565b8152602001908152602001600020546040518563ffffffff1660e01b8152600401611f9b9493929190613b45565b60206040518083038186803b158015611fb357600080fd5b505af4158015611fc7573d6000803e3d6000fd5b505050506040513d601f19601f82011682018060405250810190611feb9190613504565b90508473ffffffffffffffffffffffffffffffffffffffff166375c66e2f60018389606001516040518463ffffffff1660e01b815260040161202f939291906138af565b600060405180830381600087803b15801561204957600080fd5b505af115801561205d573d6000803e3d6000fd5b505050508473ffffffffffffffffffffffffffffffffffffffff16633c3f82528488600001518761208e9190613c2c565b6040518363ffffffff1660e01b81526004016120ab929190613ae5565b600060405180830381600087803b1580156120c557600080fd5b505af11580156120d9573d6000803e3d6000fd5b5050505050612460565b600160038111156120f7576120f6613e7d565b5b8560200151600381111561210e5761210d613e7d565b5b141561245f576000739C7259B98BE2f9110ed55D39e205f5CA3D3AE62263cda8198c739C7259B98BE2f9110ed55D39e205f5CA3D3AE62263cff70001878a600001516005600061215e6001610e66565b8152602001908152602001600020548b73ffffffffffffffffffffffffffffffffffffffff16636d3e313e6040518163ffffffff1660e01b8152600401604080518083038186803b1580156121b257600080fd5b505afa1580156121c6573d6000803e3d6000fd5b505050506040513d601f19601f820116820180604052508101906121ea9190613389565b6001600281106121fd576121fc613eac565b5b602002015173ffffffffffffffffffffffffffffffffffffffff166318160ddd6040518163ffffffff1660e01b815260040160206040518083038186803b15801561224757600080fd5b505afa15801561225b573d6000803e3d6000fd5b505050506040513d601f19601f8201168201806040525081019061227f9190613504565b6122899190613c2c565b6122939190613c2c565b6040518363ffffffff1660e01b81526004016122b0929190613abc565b60206040518083038186803b1580156122c857600080fd5b505af41580156122dc573d6000803e3d6000fd5b505050506040513d601f19601f8201168201806040525081019061230091906133e3565b88600001516040518363ffffffff1660e01b815260040161232292919061384f565b60206040518083038186803b15801561233a57600080fd5b505af415801561234e573d6000803e3d6000fd5b505050506040513d601f19601f820116820180604052508101906123729190613504565b90508473ffffffffffffffffffffffffffffffffffffffff16633c3f825284838761239d9190613cb6565b6040518363ffffffff1660e01b81526004016123ba929190613ae5565b600060405180830381600087803b1580156123d457600080fd5b505af11580156123e8573d6000803e3d6000fd5b505050508473ffffffffffffffffffffffffffffffffffffffff16635817f0c68760600151836040518363ffffffff1660e01b815260040161242b929190613826565b600060405180830381600087803b15801561244557600080fd5b505af1158015612459573d6000803e3d6000fd5b50505050505b5b5b5b5050505050565b600660009054906101000a900473ffffffffffffffffffffffffffffffffffffffff1681565b6124976130e9565b60046000836fffffffffffffffffffffffffffffffff166fffffffffffffffffffffffffffffffff168152602001908152602001600020604051806080016040529081600082015481526020016001820160009054906101000a900460ff16600381111561250857612507613e7d565b5b600381111561251a57612519613e7d565b5b81526020016001820160019054906101000a900464ffffffffff1664ffffffffff1664ffffffffff1681526020016001820160069054906101000a900473ffffffffffffffffffffffffffffffffffffffff1673ffffffffffffffffffffffffffffffffffffffff1673ffffffffffffffffffffffffffffffffffffffff16815250509050919050565b600260109054906101000a90046fffffffffffffffffffffffffffffffff1681565b600160009054906101000a900473ffffffffffffffffffffffffffffffffffffffff1681565b6125f461301d565b73ffffffffffffffffffffffffffffffffffffffff16612612611563565b73ffffffffffffffffffffffffffffffffffffffff1614612668576040517f08c379a000000000000000000000000000000000000000000000000000000000815260040161265f906139c6565b60405180910390fd5b600073ffffffffffffffffffffffffffffffffffffffff168173ffffffffffffffffffffffffffffffffffffffff1614156126d8576040517f08c379a00000000000000000000000000000000000000000000000000000000081526004016126cf90613926565b60405180910390fd5b6126e181613025565b50565b600360009054906101000a90046fffffffffffffffffffffffffffffffff1681565b600660009054906101000a900473ffffffffffffffffffffffffffffffffffffffff1673ffffffffffffffffffffffffffffffffffffffff163373ffffffffffffffffffffffffffffffffffffffff1614612796576040517f08c379a000000000000000000000000000000000000000000000000000000000815260040161278d906139e6565b60405180910390fd5b600073ffffffffffffffffffffffffffffffffffffffff168273ffffffffffffffffffffffffffffffffffffffff161415612806576040517f08c379a00000000000000000000000000000000000000000000000000000000081526004016127fd906138e6565b60405180910390fd5b600073ffffffffffffffffffffffffffffffffffffffff168173ffffffffffffffffffffffffffffffffffffffff161415612876576040517f08c379a000000000000000000000000000000000000000000000000000000000815260040161286d90613946565b60405180910390fd5b80600160006101000a81548173ffffffffffffffffffffffffffffffffffffffff021916908373ffffffffffffffffffffffffffffffffffffffff16021790555060008290508073ffffffffffffffffffffffffffffffffffffffff1663095ea7b3600160009054906101000a900473ffffffffffffffffffffffffffffffffffffffff168373ffffffffffffffffffffffffffffffffffffffff166318160ddd6040518163ffffffff1660e01b815260040160206040518083038186803b15801561294157600080fd5b505afa158015612955573d6000803e3d6000fd5b505050506040513d601f19601f820116820180604052508101906129799190613504565b6040518363ffffffff1660e01b8152600401612996929190613826565b602060405180830381600087803b1580156129b057600080fd5b505af11580156129c4573d6000803e3d6000fd5b505050506040513d601f19601f820116820180604052508101906129e891906133b6565b50505050565b60006129fd8360200151610e66565b905082600001516005600083815260200190815260200160002054612a229190613cb6565b600560008381526020019081526020016000208190555082602001516003811115612a5057612a4f613e7d565b5b8360000151836fffffffffffffffffffffffffffffffff167f2f2b9ec00f96da9afe52a06f4a0392b84a333e3718b29186681f51ddfe7c593b60405160405180910390a460046000836fffffffffffffffffffffffffffffffff166fffffffffffffffffffffffffffffffff1681526020019081526020016000206000808201600090556001820160006101000a81549060ff02191690556001820160016101000a81549064ffffffffff02191690556001820160066101000a81549073ffffffffffffffffffffffffffffffffffffffff02191690555050816fffffffffffffffffffffffffffffffff16600260009054906101000a90046fffffffffffffffffffffffffffffffff166fffffffffffffffffffffffffffffffff161415612bd8576001600260008282829054906101000a90046fffffffffffffffffffffffffffffffff16612ba19190613be6565b92506101000a8154816fffffffffffffffffffffffffffffffff02191690836fffffffffffffffffffffffffffffffff1602179055505b600260109054906101000a90046fffffffffffffffffffffffffffffffff166fffffffffffffffffffffffffffffffff16600260009054906101000a90046fffffffffffffffffffffffffffffffff166fffffffffffffffffffffffffffffffff161115612c8a576fffffffffffffffffffffffffffffffff600260006101000a8154816fffffffffffffffffffffffffffffffff02191690836fffffffffffffffffffffffffffffffff1602179055505b816fffffffffffffffffffffffffffffffff16600260109054906101000a90046fffffffffffffffffffffffffffffffff166fffffffffffffffffffffffffffffffff16148015612d1d57506fffffffffffffffffffffffffffffffff8016600260009054906101000a90046fffffffffffffffffffffffffffffffff166fffffffffffffffffffffffffffffffff1614155b15612d87576001600260108282829054906101000a90046fffffffffffffffffffffffffffffffff16612d509190613c82565b92506101000a8154816fffffffffffffffffffffffffffffffff02191690836fffffffffffffffffffffffffffffffff1602179055505b60026003811115612d9b57612d9a613e7d565b5b83602001516003811115612db257612db1613e7d565b5b1480612de6575060006003811115612dcd57612dcc613e7d565b5b83602001516003811115612de457612de3613e7d565b5b145b15612e8357600160009054906101000a900473ffffffffffffffffffffffffffffffffffffffff1673ffffffffffffffffffffffffffffffffffffffff16635817f0c63385600001516040518363ffffffff1660e01b8152600401612e4c929190613826565b600060405180830381600087803b158015612e6657600080fd5b505af1158015612e7a573d6000803e3d6000fd5b50505050613018565b600380811115612e9657612e95613e7d565b5b83602001516003811115612ead57612eac613e7d565b5b1415612f4e57600160009054906101000a900473ffffffffffffffffffffffffffffffffffffffff1673ffffffffffffffffffffffffffffffffffffffff166375c66e2f60008560000151336040518463ffffffff1660e01b8152600401612f1793929190613878565b600060405180830381600087803b158015612f3157600080fd5b505af1158015612f45573d6000803e3d6000fd5b50505050613017565b60016003811115612f6257612f61613e7d565b5b83602001516003811115612f7957612f78613e7d565b5b141561301657600160009054906101000a900473ffffffffffffffffffffffffffffffffffffffff1673ffffffffffffffffffffffffffffffffffffffff166375c66e2f60018560000151336040518463ffffffff1660e01b8152600401612fe3939291906138af565b600060405180830381600087803b158015612ffd57600080fd5b505af1158015613011573d6000803e3d6000fd5b505050505b5b5b505050565b600033905090565b60008060009054906101000a900473ffffffffffffffffffffffffffffffffffffffff169050816000806101000a81548173ffffffffffffffffffffffffffffffffffffffff021916908373ffffffffffffffffffffffffffffffffffffffff1602179055508173ffffffffffffffffffffffffffffffffffffffff168173ffffffffffffffffffffffffffffffffffffffff167f8be0079c531659141344cd1fd0a4f28419497f9722a3daafe3b4186f6b6457e060405160405180910390a35050565b6040518060800160405280600081526020016000600381111561310f5761310e613e7d565b5b8152602001600064ffffffffff168152602001600073ffffffffffffffffffffffffffffffffffffffff1681525090565b600061315361314e84613baf565b613b8a565b9050808285602086028201111561316d5761316c613f14565b5b60005b8581101561319d578161318388826131bc565b845260208401935060208301925050600181019050613170565b5050509392505050565b6000813590506131b681614175565b92915050565b6000815190506131cb81614175565b92915050565b600082601f8301126131e6576131e5613f0a565b5b60026131f3848285613140565b91505092915050565b60008151905061320b8161418c565b92915050565b600081519050613220816141a3565b92915050565b600081359050613235816141ba565b92915050565b60006080828403121561325157613250613f0f565b5b61325b6080613b8a565b9050600061326b848285016132c8565b600083015250602061327f84828501613226565b602083015250604061329384828501613307565b60408301525060606132a7848285016131a7565b60608301525092915050565b6000813590506132c2816141ca565b92915050565b6000813590506132d7816141e1565b92915050565b6000815190506132ec816141e1565b92915050565b600081519050613301816141f8565b92915050565b6000813590506133168161420f565b92915050565b60006020828403121561333257613331613f19565b5b6000613340848285016131a7565b91505092915050565b600080604083850312156133605761335f613f19565b5b600061336e858286016131a7565b925050602061337f858286016131a7565b9150509250929050565b60006040828403121561339f5761339e613f19565b5b60006133ad848285016131d1565b91505092915050565b6000602082840312156133cc576133cb613f19565b5b60006133da848285016131fc565b91505092915050565b6000602082840312156133f9576133f8613f19565b5b600061340784828501613211565b91505092915050565b60006020828403121561342657613425613f19565b5b600061343484828501613226565b91505092915050565b6000806040838503121561345457613453613f19565b5b600061346285828601613226565b9250506020613473858286016132c8565b9150509250929050565b60006080828403121561349357613492613f19565b5b60006134a18482850161323b565b91505092915050565b6000602082840312156134c0576134bf613f19565b5b60006134ce848285016132b3565b91505092915050565b6000602082840312156134ed576134ec613f19565b5b60006134fb848285016132c8565b91505092915050565b60006020828403121561351a57613519613f19565b5b6000613528848285016132dd565b91505092915050565b60006020828403121561354757613546613f19565b5b6000613555848285016132f2565b91505092915050565b61356781613cea565b82525050565b61357681613cea565b82525050565b61358581613d08565b82525050565b61359481613dae565b82525050565b6135a381613dae565b82525050565b6135b281613dc0565b82525050565b6135c181613dd2565b82525050565b60006135d4602783613bd5565b91506135df82613f2f565b604082019050919050565b60006135f7600c83613bd5565b915061360282613f7e565b602082019050919050565b600061361a602683613bd5565b915061362582613fa7565b604082019050919050565b600061363d602a83613bd5565b915061364882613ff6565b604082019050919050565b6000613660601783613bd5565b915061366b82614045565b602082019050919050565b6000613683601383613bd5565b915061368e8261406e565b602082019050919050565b60006136a6602983613bd5565b91506136b182614097565b604082019050919050565b60006136c9602083613bd5565b91506136d4826140e6565b602082019050919050565b60006136ec601583613bd5565b91506136f78261410f565b602082019050919050565b600061370f601c83613bd5565b915061371a82614138565b602082019050919050565b60808201600082015161373b6000850182613789565b50602082015161374e602085018261358b565b50604082015161376160408501826137b6565b506060820151613774606085018261355e565b50505050565b61378381613d47565b82525050565b61379281613d83565b82525050565b6137a181613d83565b82525050565b6137b081613d83565b82525050565b6137bf81613d9d565b82525050565b6137ce81613d9d565b82525050565b60006020820190506137e9600083018461356d565b92915050565b6000606082019050613804600083018661356d565b613811602083018561356d565b61381e6040830184613798565b949350505050565b600060408201905061383b600083018561356d565b6138486020830184613798565b9392505050565b6000604082019050613864600083018561357c565b61387160208301846137a7565b9392505050565b600060608201905061388d60008301866135a9565b61389a6020830185613798565b6138a7604083018461356d565b949350505050565b60006060820190506138c460008301866135b8565b6138d16020830185613798565b6138de604083018461356d565b949350505050565b600060208201905081810360008301526138ff816135c7565b9050919050565b6000602082019050818103600083015261391f816135ea565b9050919050565b6000602082019050818103600083015261393f8161360d565b9050919050565b6000602082019050818103600083015261395f81613630565b9050919050565b6000602082019050818103600083015261397f81613653565b9050919050565b6000602082019050818103600083015261399f81613676565b9050919050565b600060208201905081810360008301526139bf81613699565b9050919050565b600060208201905081810360008301526139df816136bc565b9050919050565b600060208201905081810360008301526139ff816136df565b9050919050565b60006020820190508181036000830152613a1f81613702565b9050919050565b6000608082019050613a3b6000830184613725565b92915050565b6000602082019050613a56600083018461377a565b92915050565b6000602082019050613a716000830184613798565b92915050565b6000608082019050613a8c6000830187613798565b613a99602083018661359a565b613aa660408301856137c5565b613ab3606083018461356d565b95945050505050565b6000604082019050613ad160008301856137a7565b613ade60208301846137a7565b9392505050565b6000604082019050613afa6000830185613798565b613b076020830184613798565b9392505050565b6000606082019050613b2360008301866137a7565b613b3060208301856137a7565b613b3d60408301846137a7565b949350505050565b6000608082019050613b5a60008301876137a7565b613b6760208301866137a7565b613b7460408301856137a7565b613b8160608301846137a7565b95945050505050565b6000613b94613ba5565b9050613ba08282613de4565b919050565b6000604051905090565b600067ffffffffffffffff821115613bca57613bc9613edb565b5b602082029050919050565b600082825260208201905092915050565b6000613bf182613d47565b9150613bfc83613d47565b9250826fffffffffffffffffffffffffffffffff03821115613c2157613c20613e4e565b5b828201905092915050565b6000613c3782613d83565b9150613c4283613d83565b9250827fffffffffffffffffffffffffffffffffffffffffffffffffffffffffffffffff03821115613c7757613c76613e4e565b5b828201905092915050565b6000613c8d82613d47565b9150613c9883613d47565b925082821015613cab57613caa613e4e565b5b828203905092915050565b6000613cc182613d83565b9150613ccc83613d83565b925082821015613cdf57613cde613e4e565b5b828203905092915050565b6000613cf582613d63565b9050919050565b60008115159050919050565b60007fffffffffffffffffffffffffffffffff0000000000000000000000000000000082169050919050565b6000819050613d4282614161565b919050565b60006fffffffffffffffffffffffffffffffff82169050919050565b600073ffffffffffffffffffffffffffffffffffffffff82169050919050565b6000819050919050565b600063ffffffff82169050919050565b600064ffffffffff82169050919050565b6000613db982613d34565b9050919050565b6000613dcb82613d83565b9050919050565b6000613ddd82613d83565b9050919050565b613ded82613f1e565b810181811067ffffffffffffffff82111715613e0c57613e0b613edb565b5b80604052505050565b6000613e2082613d47565b91506fffffffffffffffffffffffffffffffff821415613e4357613e42613e4e565b5b600182019050919050565b7f4e487b7100000000000000000000000000000000000000000000000000000000600052601160045260246000fd5b7f4e487b7100000000000000000000000000000000000000000000000000000000600052602160045260246000fd5b7f4e487b7100000000000000000000000000000000000000000000000000000000600052603260045260246000fd5b7f4e487b7100000000000000000000000000000000000000000000000000000000600052604160045260246000fd5b600080fd5b600080fd5b600080fd5b600080fd5b6000601f19601f8301169050919050565b7f51756f746520746f6b656e20616464726573732063616e6e6f7420626520302060008201527f6164647265737300000000000000000000000000000000000000000000000000602082015250565b7f556e617574686f72697a65640000000000000000000000000000000000000000600082015250565b7f4f776e61626c653a206e6577206f776e657220697320746865207a65726f206160008201527f6464726573730000000000000000000000000000000000000000000000000000602082015250565b7f4c657665726167656420706f6f6c20616464726573732063616e6e6f7420626560008201527f2030206164647265737300000000000000000000000000000000000000000000602082015250565b7f416d6f756e74206d757374206e6f74206265207a65726f000000000000000000600082015250565b7f6d73672e73656e646572206e6f742073656c6600000000000000000000000000600082015250565b7f4d75737420756e636f6d6d6974206265666f72652066726f6e7452756e6e696e60008201527f67496e74657276616c0000000000000000000000000000000000000000000000602082015250565b7f4f776e61626c653a2063616c6c6572206973206e6f7420746865206f776e6572600082015250565b7f436f6d6d697465723a206e6f7420666163746f72790000000000000000000000600082015250565b7f6d73672e73656e646572206e6f74206c6576657261676564506f6f6c00000000600082015250565b6004811061417257614171613e7d565b5b50565b61417e81613cea565b811461418957600080fd5b50565b61419581613cfc565b81146141a057600080fd5b50565b6141ac81613d08565b81146141b757600080fd5b50565b600481106141c757600080fd5b50565b6141d381613d47565b81146141de57600080fd5b50565b6141ea81613d83565b81146141f557600080fd5b50565b61420181613d8d565b811461420c57600080fd5b50565b61421881613d9d565b811461422357600080fd5b5056fea2646970667358221220f76c7fbd4158278bbbfa99bf0d3487deb2bc066f4b2a60b19745c4201cb7013364736f6c63430008060033a2646970667358221220faf4381c02caf1a17f7af82a71357a9ac057ce2705a6977eb232524aef7f095664736f6c63430008060033",
  "deployedBytecode": "0x608060405234801561001057600080fd5b50600436106100365760003560e01c8063775c300c1461003b578063c45a015514610059575b600080fd5b610043610077565b60405161005091906101c4565b60405180910390f35b610061610161565b60405161006e91906101c4565b60405180910390f35b60008060009054906101000a900473ffffffffffffffffffffffffffffffffffffffff1673ffffffffffffffffffffffffffffffffffffffff163373ffffffffffffffffffffffffffffffffffffffff1614610108576040517f08c379a00000000000000000000000000000000000000000000000000000000081526004016100ff906101df565b60405180910390fd5b60008054906101000a900473ffffffffffffffffffffffffffffffffffffffff1660405161013590610185565b61013f91906101c4565b604051809103906000f08015801561015b573d6000803e3d6000fd5b50905090565b60008054906101000a900473ffffffffffffffffffffffffffffffffffffffff1681565b6144bc8061026c83390190565b61019b81610210565b82525050565b60006101ae6016836101ff565b91506101b982610242565b602082019050919050565b60006020820190506101d96000830184610192565b92915050565b600060208201905081810360008301526101f8816101a1565b9050919050565b600082825260208201905092915050565b600061021b82610222565b9050919050565b600073ffffffffffffffffffffffffffffffffffffffff82169050919050565b7f6d73672e73656e646572206e6f7420666163746f72790000000000000000000060008201525056fe60806040526fffffffffffffffffffffffffffffffff600260006101000a8154816fffffffffffffffffffffffffffffffff02191690836fffffffffffffffffffffffffffffffff1602179055503480156200005a57600080fd5b50604051620044bc380380620044bc8339818101604052810190620000809190620001cb565b620000a062000094620000e860201b60201c565b620000f060201b60201c565b80600660006101000a81548173ffffffffffffffffffffffffffffffffffffffff021916908373ffffffffffffffffffffffffffffffffffffffff1602179055505062000250565b600033905090565b60008060009054906101000a900473ffffffffffffffffffffffffffffffffffffffff169050816000806101000a81548173ffffffffffffffffffffffffffffffffffffffff021916908373ffffffffffffffffffffffffffffffffffffffff1602179055508173ffffffffffffffffffffffffffffffffffffffff168173ffffffffffffffffffffffffffffffffffffffff167f8be0079c531659141344cd1fd0a4f28419497f9722a3daafe3b4186f6b6457e060405160405180910390a35050565b600081519050620001c58162000236565b92915050565b600060208284031215620001e457620001e362000231565b5b6000620001f484828501620001b4565b91505092915050565b60006200020a8262000211565b9050919050565b600073ffffffffffffffffffffffffffffffffffffffff82169050919050565b600080fd5b6200024181620001fd565b81146200024d57600080fd5b50565b61425c80620002606000396000f3fe608060405234801561001057600080fd5b50600436106101165760003560e01c80639eda0cc2116100a2578063d44b1ff311610071578063d44b1ff3146102be578063e323aac6146102dc578063f2fde38b146102fa578063f9a0e14e14610316578063fd555fb91461033457610116565b80639eda0cc214610236578063b3fecffe14610254578063c45a015514610270578063caf4c2c51461028e57610116565b806351b450f6116100e957806351b450f6146101a6578063605814fc146101c2578063715018a6146101f2578063822255de146101fc5780638da5cb5b1461021857610116565b80631c536da41461011b57806329075d711461012557806330f75260146101585780634139757714610176575b600080fd5b610123610350565b005b61013f600480360381019061013a91906134aa565b6109bb565b60405161014f9493929190613a77565b60405180910390f35b610160610a29565b60405161016d9190613a41565b60405180910390f35b610190600480360381019061018b91906134d7565b610a3d565b60405161019d9190613a5c565b60405180910390f35b6101c060048036038101906101bb91906134aa565b610a55565b005b6101dc60048036038101906101d79190613410565b610e66565b6040516101e99190613a5c565b60405180910390f35b6101fa610f48565b005b6102166004803603810190610211919061343d565b610fd0565b005b610220611563565b60405161022d91906137d4565b60405180910390f35b61023e61158c565b60405161024b9190613a41565b60405180910390f35b61026e6004803603810190610269919061347d565b6115ae565b005b610278612469565b60405161028591906137d4565b60405180910390f35b6102a860048036038101906102a391906134aa565b61248f565b6040516102b59190613a26565b60405180910390f35b6102c66125a4565b6040516102d39190613a41565b60405180910390f35b6102e46125c6565b6040516102f191906137d4565b60405180910390f35b610314600480360381019061030f919061331c565b6125ec565b005b61031e6126e4565b60405161032b9190613a41565b60405180910390f35b61034e60048036038101906103499190613349565b612706565b005b600160009054906101000a900473ffffffffffffffffffffffffffffffffffffffff1673ffffffffffffffffffffffffffffffffffffffff163373ffffffffffffffffffffffffffffffffffffffff16146103e0576040517f08c379a00000000000000000000000000000000000000000000000000000000081526004016103d790613a06565b60405180910390fd5b6fffffffffffffffffffffffffffffffff8016600260009054906101000a90046fffffffffffffffffffffffffffffffff166fffffffffffffffffffffffffffffffff16141561042f576109b9565b600080600160009054906101000a900473ffffffffffffffffffffffffffffffffffffffff16905060008173ffffffffffffffffffffffffffffffffffffffff16637bfe789a6040518163ffffffff1660e01b815260040160206040518083038186803b15801561049f57600080fd5b505afa1580156104b3573d6000803e3d6000fd5b505050506040513d601f19601f820116820180604052508101906104d79190613531565b63ffffffff16905060008273ffffffffffffffffffffffffffffffffffffffff16637de93f936040518163ffffffff1660e01b815260040160206040518083038186803b15801561052757600080fd5b505afa15801561053b573d6000803e3d6000fd5b505050506040513d601f19601f8201168201806040525081019061055f9190613504565b90506000600260009054906101000a90046fffffffffffffffffffffffffffffffff1690505b600260109054906101000a90046fffffffffffffffffffffffffffffffff166fffffffffffffffffffffffffffffffff16816fffffffffffffffffffffffffffffffff161161097a57600060046000836fffffffffffffffffffffffffffffffff166fffffffffffffffffffffffffffffffff168152602001908152602001600020604051806080016040529081600082015481526020016001820160009054906101000a900460ff16600381111561064157610640613e7d565b5b600381111561065357610652613e7d565b5b81526020016001820160019054906101000a900464ffffffffff1664ffffffffff1664ffffffffff1681526020016001820160069054906101000a900473ffffffffffffffffffffffffffffffffffffffff1673ffffffffffffffffffffffffffffffffffffffff1673ffffffffffffffffffffffffffffffffffffffff16815250509050819550600073ffffffffffffffffffffffffffffffffffffffff16816060015173ffffffffffffffffffffffffffffffffffffffff161415610729576001866107219190613be6565b955050610967565b83816040015164ffffffffff16846107419190613cb6565b1161074c575061097a565b7f53e7d7eb888194c67870ec86b8523606069fb6eeeab81f458a6065b9e88defa98260405161077b9190613a41565b60405180910390a13073ffffffffffffffffffffffffffffffffffffffff1663b3fecffe826040518263ffffffff1660e01b81526004016107bc9190613a26565b600060405180830381600087803b1580156107d657600080fd5b505af19250505080156107e7575060015b610831576107f581836129ee565b7f089a8e68b5afa612f76f7ec1235a9d9d07e0d79462a6b0d862aaa0ac035426c1826040516108249190613a41565b60405180910390a16108c7565b60046000836fffffffffffffffffffffffffffffffff166fffffffffffffffffffffffffffffffff1681526020019081526020016000206000808201600090556001820160006101000a81549060ff02191690556001820160016101000a81549064ffffffffff02191690556001820160066101000a81549073ffffffffffffffffffffffffffffffffffffffff021916905550505b600260109054906101000a90046fffffffffffffffffffffffffffffffff166fffffffffffffffffffffffffffffffff16826fffffffffffffffffffffffffffffffff161415610965576fffffffffffffffffffffffffffffffff600260006101000a8154816fffffffffffffffffffffffffffffffff02191690836fffffffffffffffffffffffffffffffff1602179055505050505050506109b9565b505b808061097290613e15565b915050610585565b5083600260006101000a8154816fffffffffffffffffffffffffffffffff02191690836fffffffffffffffffffffffffffffffff160217905550505050505b565b60046020528060005260406000206000915090508060000154908060010160009054906101000a900460ff16908060010160019054906101000a900464ffffffffff16908060010160069054906101000a900473ffffffffffffffffffffffffffffffffffffffff16905084565b6fffffffffffffffffffffffffffffffff81565b60056020528060005260406000206000915090505481565b600060046000836fffffffffffffffffffffffffffffffff166fffffffffffffffffffffffffffffffff168152602001908152602001600020604051806080016040529081600082015481526020016001820160009054906101000a900460ff166003811115610ac857610ac7613e7d565b5b6003811115610ada57610ad9613e7d565b5b81526020016001820160019054906101000a900464ffffffffff1664ffffffffff1664ffffffffff1681526020016001820160069054906101000a900473ffffffffffffffffffffffffffffffffffffffff1673ffffffffffffffffffffffffffffffffffffffff1673ffffffffffffffffffffffffffffffffffffffff168152505090506000600160009054906101000a900473ffffffffffffffffffffffffffffffffffffffff16905060008173ffffffffffffffffffffffffffffffffffffffff16637de93f936040518163ffffffff1660e01b815260040160206040518083038186803b158015610bce57600080fd5b505afa158015610be2573d6000803e3d6000fd5b505050506040513d601f19601f82011682018060405250810190610c069190613504565b905060008273ffffffffffffffffffffffffffffffffffffffff16637bfe789a6040518163ffffffff1660e01b815260040160206040518083038186803b158015610c5057600080fd5b505afa158015610c64573d6000803e3d6000fd5b505050506040513d601f19601f82011682018060405250810190610c889190613531565b63ffffffff16905060008373ffffffffffffffffffffffffffffffffffffffff1663fd2c80ae6040518163ffffffff1660e01b815260040160206040518083038186803b158015610cd857600080fd5b505afa158015610cec573d6000803e3d6000fd5b505050506040513d601f19601f82011682018060405250810190610d109190613531565b63ffffffff16905073__$dc3b4b0a367edd91a2d74c73e2da54c142$__63aaa578b28483856040518463ffffffff1660e01b8152600401610d5393929190613b0e565b60206040518083038186803b158015610d6b57600080fd5b505af4158015610d7f573d6000803e3d6000fd5b505050506040513d601f19601f82011682018060405250810190610da391906133b6565b610de2576040517f08c379a0000000000000000000000000000000000000000000000000000000008152600401610dd9906139a6565b60405180910390fd5b846060015173ffffffffffffffffffffffffffffffffffffffff163373ffffffffffffffffffffffffffffffffffffffff1614610e54576040517f08c379a0000000000000000000000000000000000000000000000000000000008152600401610e4b90613906565b60405180910390fd5b610e5e85876129ee565b505050505050565b6000806003811115610e7b57610e7a613e7d565b5b826003811115610e8e57610e8d613e7d565b5b1415610e9d5760009050610f43565b60016003811115610eb157610eb0613e7d565b5b826003811115610ec457610ec3613e7d565b5b1415610ed35760019050610f43565b60026003811115610ee757610ee6613e7d565b5b826003811115610efa57610ef9613e7d565b5b1415610f095760029050610f43565b600380811115610f1c57610f1b613e7d565b5b826003811115610f2f57610f2e613e7d565b5b1415610f3e5760039050610f43565b600090505b919050565b610f5061301d565b73ffffffffffffffffffffffffffffffffffffffff16610f6e611563565b73ffffffffffffffffffffffffffffffffffffffff1614610fc4576040517f08c379a0000000000000000000000000000000000000000000000000000000008152600401610fbb906139c6565b60405180910390fd5b610fce6000613025565b565b60008111611013576040517f08c379a000000000000000000000000000000000000000000000000000000000815260040161100a90613966565b60405180910390fd5b6000600360009054906101000a90046fffffffffffffffffffffffffffffffff1690506001816110439190613be6565b600360006101000a8154816fffffffffffffffffffffffffffffffff02191690836fffffffffffffffffffffffffffffffff1602179055506000600160009054906101000a900473ffffffffffffffffffffffffffffffffffffffff16905060405180608001604052808481526020018560038111156110c6576110c5613e7d565b5b81526020014264ffffffffff1681526020013373ffffffffffffffffffffffffffffffffffffffff1681525060046000846fffffffffffffffffffffffffffffffff166fffffffffffffffffffffffffffffffff1681526020019081526020016000206000820151816000015560208201518160010160006101000a81548160ff0219169083600381111561115e5761115d613e7d565b5b021790555060408201518160010160016101000a81548164ffffffffff021916908364ffffffffff16021790555060608201518160010160066101000a81548173ffffffffffffffffffffffffffffffffffffffff021916908373ffffffffffffffffffffffffffffffffffffffff16021790555090505060006111e185610e66565b90508360056000838152602001908152602001600020546112029190613c2c565b60056000838152602001908152602001600020819055506fffffffffffffffffffffffffffffffff8016600260009054906101000a90046fffffffffffffffffffffffffffffffff166fffffffffffffffffffffffffffffffff16141561129d5782600260006101000a8154816fffffffffffffffffffffffffffffffff02191690836fffffffffffffffffffffffffffffffff1602179055505b82600260106101000a8154816fffffffffffffffffffffffffffffffff02191690836fffffffffffffffffffffffffffffffff1602179055508460038111156112e9576112e8613e7d565b5b84846fffffffffffffffffffffffffffffffff167feeb519088468e5ea7765bbf8c4464c3bde5ff110d8de10ee5db057be2599d1fc60405160405180910390a46002600381111561133d5761133c613e7d565b5b8560038111156113505761134f613e7d565b5b148061138057506000600381111561136b5761136a613e7d565b5b85600381111561137e5761137d613e7d565b5b145b1561141b578173ffffffffffffffffffffffffffffffffffffffff16637b0a0c9033600160009054906101000a900473ffffffffffffffffffffffffffffffffffffffff16876040518463ffffffff1660e01b81526004016113e4939291906137ef565b600060405180830381600087803b1580156113fe57600080fd5b505af1158015611412573d6000803e3d6000fd5b5050505061155c565b60038081111561142e5761142d613e7d565b5b85600381111561144157611440613e7d565b5b14156114bc578173ffffffffffffffffffffffffffffffffffffffff166387f9ca5d600086336040518463ffffffff1660e01b815260040161148593929190613878565b600060405180830381600087803b15801561149f57600080fd5b505af11580156114b3573d6000803e3d6000fd5b5050505061155b565b600160038111156114d0576114cf613e7d565b5b8560038111156114e3576114e2613e7d565b5b141561155a578173ffffffffffffffffffffffffffffffffffffffff166387f9ca5d600186336040518463ffffffff1660e01b8152600401611527939291906138af565b600060405180830381600087803b15801561154157600080fd5b505af1158015611555573d6000803e3d6000fd5b505050505b5b5b5050505050565b60008060009054906101000a900473ffffffffffffffffffffffffffffffffffffffff16905090565b600260009054906101000a90046fffffffffffffffffffffffffffffffff1681565b3073ffffffffffffffffffffffffffffffffffffffff163373ffffffffffffffffffffffffffffffffffffffff161461161c576040517f08c379a000000000000000000000000000000000000000000000000000000000815260040161161390613986565b60405180910390fd5b6000600160009054906101000a900473ffffffffffffffffffffffffffffffffffffffff16905060008173ffffffffffffffffffffffffffffffffffffffff1663ba8d54686040518163ffffffff1660e01b815260040160206040518083038186803b15801561168b57600080fd5b505afa15801561169f573d6000803e3d6000fd5b505050506040513d601f19601f820116820180604052508101906116c39190613504565b905060008273ffffffffffffffffffffffffffffffffffffffff16637e71fc7d6040518163ffffffff1660e01b815260040160206040518083038186803b15801561170d57600080fd5b505afa158015611721573d6000803e3d6000fd5b505050506040513d601f19601f820116820180604052508101906117459190613504565b905060006117568560200151610e66565b90508460000151600560008381526020019081526020016000205461177b9190613cb6565b6005600083815260200190815260200160002081905550600260038111156117a6576117a5613e7d565b5b856020015160038111156117bd576117bc613e7d565b5b1415611a7b57600073__$dc3b4b0a367edd91a2d74c73e2da54c142$__63ab41556f8673ffffffffffffffffffffffffffffffffffffffff16636d3e313e6040518163ffffffff1660e01b8152600401604080518083038186803b15801561182457600080fd5b505afa158015611838573d6000803e3d6000fd5b505050506040513d601f19601f8201168201806040525081019061185c9190613389565b60006002811061186f5761186e613eac565b5b602002015173ffffffffffffffffffffffffffffffffffffffff166318160ddd6040518163ffffffff1660e01b815260040160206040518083038186803b1580156118b957600080fd5b505afa1580156118cd573d6000803e3d6000fd5b505050506040513d601f19601f820116820180604052508101906118f19190613504565b886000015186600560006119056003610e66565b8152602001908152602001600020546040518563ffffffff1660e01b81526004016119339493929190613b45565b60206040518083038186803b15801561194b57600080fd5b505af415801561195f573d6000803e3d6000fd5b505050506040513d601f19601f820116820180604052508101906119839190613504565b90508473ffffffffffffffffffffffffffffffffffffffff166375c66e2f60008389606001516040518463ffffffff1660e01b81526004016119c793929190613878565b600060405180830381600087803b1580156119e157600080fd5b505af11580156119f5573d6000803e3d6000fd5b505050508473ffffffffffffffffffffffffffffffffffffffff16633c3f8252876000015185611a259190613c2c565b866040518363ffffffff1660e01b8152600401611a43929190613ae5565b600060405180830381600087803b158015611a5d57600080fd5b505af1158015611a71573d6000803e3d6000fd5b5050505050612462565b600380811115611a8e57611a8d613e7d565b5b85602001516003811115611aa557611aa4613e7d565b5b1415611dfa57600073__$dc3b4b0a367edd91a2d74c73e2da54c142$__63cda8198c73__$dc3b4b0a367edd91a2d74c73e2da54c142$__63cff70001868a6000015160056000611af56003610e66565b8152602001908152602001600020548b73ffffffffffffffffffffffffffffffffffffffff16636d3e313e6040518163ffffffff1660e01b8152600401604080518083038186803b158015611b4957600080fd5b505afa158015611b5d573d6000803e3d6000fd5b505050506040513d601f19601f82011682018060405250810190611b819190613389565b600060028110611b9457611b93613eac565b5b602002015173ffffffffffffffffffffffffffffffffffffffff166318160ddd6040518163ffffffff1660e01b815260040160206040518083038186803b158015611bde57600080fd5b505afa158015611bf2573d6000803e3d6000fd5b505050506040513d601f19601f82011682018060405250810190611c169190613504565b611c209190613c2c565b611c2a9190613c2c565b6040518363ffffffff1660e01b8152600401611c47929190613abc565b60206040518083038186803b158015611c5f57600080fd5b505af4158015611c73573d6000803e3d6000fd5b505050506040513d601f19601f82011682018060405250810190611c9791906133e3565b88600001516040518363ffffffff1660e01b8152600401611cb992919061384f565b60206040518083038186803b158015611cd157600080fd5b505af4158015611ce5573d6000803e3d6000fd5b505050506040513d601f19601f82011682018060405250810190611d099190613504565b90508473ffffffffffffffffffffffffffffffffffffffff16633c3f82528285611d339190613cb6565b866040518363ffffffff1660e01b8152600401611d51929190613ae5565b600060405180830381600087803b158015611d6b57600080fd5b505af1158015611d7f573d6000803e3d6000fd5b505050508473ffffffffffffffffffffffffffffffffffffffff16635817f0c68760600151836040518363ffffffff1660e01b8152600401611dc2929190613826565b600060405180830381600087803b158015611ddc57600080fd5b505af1158015611df0573d6000803e3d6000fd5b5050505050612461565b60006003811115611e0e57611e0d613e7d565b5b85602001516003811115611e2557611e24613e7d565b5b14156120e357600073__$dc3b4b0a367edd91a2d74c73e2da54c142$__63ab41556f8673ffffffffffffffffffffffffffffffffffffffff16636d3e313e6040518163ffffffff1660e01b8152600401604080518083038186803b158015611e8c57600080fd5b505afa158015611ea0573d6000803e3d6000fd5b505050506040513d601f19601f82011682018060405250810190611ec49190613389565b600160028110611ed757611ed6613eac565b5b602002015173ffffffffffffffffffffffffffffffffffffffff166318160ddd6040518163ffffffff1660e01b815260040160206040518083038186803b158015611f2157600080fd5b505afa158015611f35573d6000803e3d6000fd5b505050506040513d601f19601f82011682018060405250810190611f599190613504565b88600001518760056000611f6d6001610e66565b8152602001908152602001600020546040518563ffffffff1660e01b8152600401611f9b9493929190613b45565b60206040518083038186803b158015611fb357600080fd5b505af4158015611fc7573d6000803e3d6000fd5b505050506040513d601f19601f82011682018060405250810190611feb9190613504565b90508473ffffffffffffffffffffffffffffffffffffffff166375c66e2f60018389606001516040518463ffffffff1660e01b815260040161202f939291906138af565b600060405180830381600087803b15801561204957600080fd5b505af115801561205d573d6000803e3d6000fd5b505050508473ffffffffffffffffffffffffffffffffffffffff16633c3f82528488600001518761208e9190613c2c565b6040518363ffffffff1660e01b81526004016120ab929190613ae5565b600060405180830381600087803b1580156120c557600080fd5b505af11580156120d9573d6000803e3d6000fd5b5050505050612460565b600160038111156120f7576120f6613e7d565b5b8560200151600381111561210e5761210d613e7d565b5b141561245f57600073__$dc3b4b0a367edd91a2d74c73e2da54c142$__63cda8198c73__$dc3b4b0a367edd91a2d74c73e2da54c142$__63cff70001878a600001516005600061215e6001610e66565b8152602001908152602001600020548b73ffffffffffffffffffffffffffffffffffffffff16636d3e313e6040518163ffffffff1660e01b8152600401604080518083038186803b1580156121b257600080fd5b505afa1580156121c6573d6000803e3d6000fd5b505050506040513d601f19601f820116820180604052508101906121ea9190613389565b6001600281106121fd576121fc613eac565b5b602002015173ffffffffffffffffffffffffffffffffffffffff166318160ddd6040518163ffffffff1660e01b815260040160206040518083038186803b15801561224757600080fd5b505afa15801561225b573d6000803e3d6000fd5b505050506040513d601f19601f8201168201806040525081019061227f9190613504565b6122899190613c2c565b6122939190613c2c565b6040518363ffffffff1660e01b81526004016122b0929190613abc565b60206040518083038186803b1580156122c857600080fd5b505af41580156122dc573d6000803e3d6000fd5b505050506040513d601f19601f8201168201806040525081019061230091906133e3565b88600001516040518363ffffffff1660e01b815260040161232292919061384f565b60206040518083038186803b15801561233a57600080fd5b505af415801561234e573d6000803e3d6000fd5b505050506040513d601f19601f820116820180604052508101906123729190613504565b90508473ffffffffffffffffffffffffffffffffffffffff16633c3f825284838761239d9190613cb6565b6040518363ffffffff1660e01b81526004016123ba929190613ae5565b600060405180830381600087803b1580156123d457600080fd5b505af11580156123e8573d6000803e3d6000fd5b505050508473ffffffffffffffffffffffffffffffffffffffff16635817f0c68760600151836040518363ffffffff1660e01b815260040161242b929190613826565b600060405180830381600087803b15801561244557600080fd5b505af1158015612459573d6000803e3d6000fd5b50505050505b5b5b5b5050505050565b600660009054906101000a900473ffffffffffffffffffffffffffffffffffffffff1681565b6124976130e9565b60046000836fffffffffffffffffffffffffffffffff166fffffffffffffffffffffffffffffffff168152602001908152602001600020604051806080016040529081600082015481526020016001820160009054906101000a900460ff16600381111561250857612507613e7d565b5b600381111561251a57612519613e7d565b5b81526020016001820160019054906101000a900464ffffffffff1664ffffffffff1664ffffffffff1681526020016001820160069054906101000a900473ffffffffffffffffffffffffffffffffffffffff1673ffffffffffffffffffffffffffffffffffffffff1673ffffffffffffffffffffffffffffffffffffffff16815250509050919050565b600260109054906101000a90046fffffffffffffffffffffffffffffffff1681565b600160009054906101000a900473ffffffffffffffffffffffffffffffffffffffff1681565b6125f461301d565b73ffffffffffffffffffffffffffffffffffffffff16612612611563565b73ffffffffffffffffffffffffffffffffffffffff1614612668576040517f08c379a000000000000000000000000000000000000000000000000000000000815260040161265f906139c6565b60405180910390fd5b600073ffffffffffffffffffffffffffffffffffffffff168173ffffffffffffffffffffffffffffffffffffffff1614156126d8576040517f08c379a00000000000000000000000000000000000000000000000000000000081526004016126cf90613926565b60405180910390fd5b6126e181613025565b50565b600360009054906101000a90046fffffffffffffffffffffffffffffffff1681565b600660009054906101000a900473ffffffffffffffffffffffffffffffffffffffff1673ffffffffffffffffffffffffffffffffffffffff163373ffffffffffffffffffffffffffffffffffffffff1614612796576040517f08c379a000000000000000000000000000000000000000000000000000000000815260040161278d906139e6565b60405180910390fd5b600073ffffffffffffffffffffffffffffffffffffffff168273ffffffffffffffffffffffffffffffffffffffff161415612806576040517f08c379a00000000000000000000000000000000000000000000000000000000081526004016127fd906138e6565b60405180910390fd5b600073ffffffffffffffffffffffffffffffffffffffff168173ffffffffffffffffffffffffffffffffffffffff161415612876576040517f08c379a000000000000000000000000000000000000000000000000000000000815260040161286d90613946565b60405180910390fd5b80600160006101000a81548173ffffffffffffffffffffffffffffffffffffffff021916908373ffffffffffffffffffffffffffffffffffffffff16021790555060008290508073ffffffffffffffffffffffffffffffffffffffff1663095ea7b3600160009054906101000a900473ffffffffffffffffffffffffffffffffffffffff168373ffffffffffffffffffffffffffffffffffffffff166318160ddd6040518163ffffffff1660e01b815260040160206040518083038186803b15801561294157600080fd5b505afa158015612955573d6000803e3d6000fd5b505050506040513d601f19601f820116820180604052508101906129799190613504565b6040518363ffffffff1660e01b8152600401612996929190613826565b602060405180830381600087803b1580156129b057600080fd5b505af11580156129c4573d6000803e3d6000fd5b505050506040513d601f19601f820116820180604052508101906129e891906133b6565b50505050565b60006129fd8360200151610e66565b905082600001516005600083815260200190815260200160002054612a229190613cb6565b600560008381526020019081526020016000208190555082602001516003811115612a5057612a4f613e7d565b5b8360000151836fffffffffffffffffffffffffffffffff167f2f2b9ec00f96da9afe52a06f4a0392b84a333e3718b29186681f51ddfe7c593b60405160405180910390a460046000836fffffffffffffffffffffffffffffffff166fffffffffffffffffffffffffffffffff1681526020019081526020016000206000808201600090556001820160006101000a81549060ff02191690556001820160016101000a81549064ffffffffff02191690556001820160066101000a81549073ffffffffffffffffffffffffffffffffffffffff02191690555050816fffffffffffffffffffffffffffffffff16600260009054906101000a90046fffffffffffffffffffffffffffffffff166fffffffffffffffffffffffffffffffff161415612bd8576001600260008282829054906101000a90046fffffffffffffffffffffffffffffffff16612ba19190613be6565b92506101000a8154816fffffffffffffffffffffffffffffffff02191690836fffffffffffffffffffffffffffffffff1602179055505b600260109054906101000a90046fffffffffffffffffffffffffffffffff166fffffffffffffffffffffffffffffffff16600260009054906101000a90046fffffffffffffffffffffffffffffffff166fffffffffffffffffffffffffffffffff161115612c8a576fffffffffffffffffffffffffffffffff600260006101000a8154816fffffffffffffffffffffffffffffffff02191690836fffffffffffffffffffffffffffffffff1602179055505b816fffffffffffffffffffffffffffffffff16600260109054906101000a90046fffffffffffffffffffffffffffffffff166fffffffffffffffffffffffffffffffff16148015612d1d57506fffffffffffffffffffffffffffffffff8016600260009054906101000a90046fffffffffffffffffffffffffffffffff166fffffffffffffffffffffffffffffffff1614155b15612d87576001600260108282829054906101000a90046fffffffffffffffffffffffffffffffff16612d509190613c82565b92506101000a8154816fffffffffffffffffffffffffffffffff02191690836fffffffffffffffffffffffffffffffff1602179055505b60026003811115612d9b57612d9a613e7d565b5b83602001516003811115612db257612db1613e7d565b5b1480612de6575060006003811115612dcd57612dcc613e7d565b5b83602001516003811115612de457612de3613e7d565b5b145b15612e8357600160009054906101000a900473ffffffffffffffffffffffffffffffffffffffff1673ffffffffffffffffffffffffffffffffffffffff16635817f0c63385600001516040518363ffffffff1660e01b8152600401612e4c929190613826565b600060405180830381600087803b158015612e6657600080fd5b505af1158015612e7a573d6000803e3d6000fd5b50505050613018565b600380811115612e9657612e95613e7d565b5b83602001516003811115612ead57612eac613e7d565b5b1415612f4e57600160009054906101000a900473ffffffffffffffffffffffffffffffffffffffff1673ffffffffffffffffffffffffffffffffffffffff166375c66e2f60008560000151336040518463ffffffff1660e01b8152600401612f1793929190613878565b600060405180830381600087803b158015612f3157600080fd5b505af1158015612f45573d6000803e3d6000fd5b50505050613017565b60016003811115612f6257612f61613e7d565b5b83602001516003811115612f7957612f78613e7d565b5b141561301657600160009054906101000a900473ffffffffffffffffffffffffffffffffffffffff1673ffffffffffffffffffffffffffffffffffffffff166375c66e2f60018560000151336040518463ffffffff1660e01b8152600401612fe3939291906138af565b600060405180830381600087803b158015612ffd57600080fd5b505af1158015613011573d6000803e3d6000fd5b505050505b5b5b505050565b600033905090565b60008060009054906101000a900473ffffffffffffffffffffffffffffffffffffffff169050816000806101000a81548173ffffffffffffffffffffffffffffffffffffffff021916908373ffffffffffffffffffffffffffffffffffffffff1602179055508173ffffffffffffffffffffffffffffffffffffffff168173ffffffffffffffffffffffffffffffffffffffff167f8be0079c531659141344cd1fd0a4f28419497f9722a3daafe3b4186f6b6457e060405160405180910390a35050565b6040518060800160405280600081526020016000600381111561310f5761310e613e7d565b5b8152602001600064ffffffffff168152602001600073ffffffffffffffffffffffffffffffffffffffff1681525090565b600061315361314e84613baf565b613b8a565b9050808285602086028201111561316d5761316c613f14565b5b60005b8581101561319d578161318388826131bc565b845260208401935060208301925050600181019050613170565b5050509392505050565b6000813590506131b681614175565b92915050565b6000815190506131cb81614175565b92915050565b600082601f8301126131e6576131e5613f0a565b5b60026131f3848285613140565b91505092915050565b60008151905061320b8161418c565b92915050565b600081519050613220816141a3565b92915050565b600081359050613235816141ba565b92915050565b60006080828403121561325157613250613f0f565b5b61325b6080613b8a565b9050600061326b848285016132c8565b600083015250602061327f84828501613226565b602083015250604061329384828501613307565b60408301525060606132a7848285016131a7565b60608301525092915050565b6000813590506132c2816141ca565b92915050565b6000813590506132d7816141e1565b92915050565b6000815190506132ec816141e1565b92915050565b600081519050613301816141f8565b92915050565b6000813590506133168161420f565b92915050565b60006020828403121561333257613331613f19565b5b6000613340848285016131a7565b91505092915050565b600080604083850312156133605761335f613f19565b5b600061336e858286016131a7565b925050602061337f858286016131a7565b9150509250929050565b60006040828403121561339f5761339e613f19565b5b60006133ad848285016131d1565b91505092915050565b6000602082840312156133cc576133cb613f19565b5b60006133da848285016131fc565b91505092915050565b6000602082840312156133f9576133f8613f19565b5b600061340784828501613211565b91505092915050565b60006020828403121561342657613425613f19565b5b600061343484828501613226565b91505092915050565b6000806040838503121561345457613453613f19565b5b600061346285828601613226565b9250506020613473858286016132c8565b9150509250929050565b60006080828403121561349357613492613f19565b5b60006134a18482850161323b565b91505092915050565b6000602082840312156134c0576134bf613f19565b5b60006134ce848285016132b3565b91505092915050565b6000602082840312156134ed576134ec613f19565b5b60006134fb848285016132c8565b91505092915050565b60006020828403121561351a57613519613f19565b5b6000613528848285016132dd565b91505092915050565b60006020828403121561354757613546613f19565b5b6000613555848285016132f2565b91505092915050565b61356781613cea565b82525050565b61357681613cea565b82525050565b61358581613d08565b82525050565b61359481613dae565b82525050565b6135a381613dae565b82525050565b6135b281613dc0565b82525050565b6135c181613dd2565b82525050565b60006135d4602783613bd5565b91506135df82613f2f565b604082019050919050565b60006135f7600c83613bd5565b915061360282613f7e565b602082019050919050565b600061361a602683613bd5565b915061362582613fa7565b604082019050919050565b600061363d602a83613bd5565b915061364882613ff6565b604082019050919050565b6000613660601783613bd5565b915061366b82614045565b602082019050919050565b6000613683601383613bd5565b915061368e8261406e565b602082019050919050565b60006136a6602983613bd5565b91506136b182614097565b604082019050919050565b60006136c9602083613bd5565b91506136d4826140e6565b602082019050919050565b60006136ec601583613bd5565b91506136f78261410f565b602082019050919050565b600061370f601c83613bd5565b915061371a82614138565b602082019050919050565b60808201600082015161373b6000850182613789565b50602082015161374e602085018261358b565b50604082015161376160408501826137b6565b506060820151613774606085018261355e565b50505050565b61378381613d47565b82525050565b61379281613d83565b82525050565b6137a181613d83565b82525050565b6137b081613d83565b82525050565b6137bf81613d9d565b82525050565b6137ce81613d9d565b82525050565b60006020820190506137e9600083018461356d565b92915050565b6000606082019050613804600083018661356d565b613811602083018561356d565b61381e6040830184613798565b949350505050565b600060408201905061383b600083018561356d565b6138486020830184613798565b9392505050565b6000604082019050613864600083018561357c565b61387160208301846137a7565b9392505050565b600060608201905061388d60008301866135a9565b61389a6020830185613798565b6138a7604083018461356d565b949350505050565b60006060820190506138c460008301866135b8565b6138d16020830185613798565b6138de604083018461356d565b949350505050565b600060208201905081810360008301526138ff816135c7565b9050919050565b6000602082019050818103600083015261391f816135ea565b9050919050565b6000602082019050818103600083015261393f8161360d565b9050919050565b6000602082019050818103600083015261395f81613630565b9050919050565b6000602082019050818103600083015261397f81613653565b9050919050565b6000602082019050818103600083015261399f81613676565b9050919050565b600060208201905081810360008301526139bf81613699565b9050919050565b600060208201905081810360008301526139df816136bc565b9050919050565b600060208201905081810360008301526139ff816136df565b9050919050565b60006020820190508181036000830152613a1f81613702565b9050919050565b6000608082019050613a3b6000830184613725565b92915050565b6000602082019050613a56600083018461377a565b92915050565b6000602082019050613a716000830184613798565b92915050565b6000608082019050613a8c6000830187613798565b613a99602083018661359a565b613aa660408301856137c5565b613ab3606083018461356d565b95945050505050565b6000604082019050613ad160008301856137a7565b613ade60208301846137a7565b9392505050565b6000604082019050613afa6000830185613798565b613b076020830184613798565b9392505050565b6000606082019050613b2360008301866137a7565b613b3060208301856137a7565b613b3d60408301846137a7565b949350505050565b6000608082019050613b5a60008301876137a7565b613b6760208301866137a7565b613b7460408301856137a7565b613b8160608301846137a7565b95945050505050565b6000613b94613ba5565b9050613ba08282613de4565b919050565b6000604051905090565b600067ffffffffffffffff821115613bca57613bc9613edb565b5b602082029050919050565b600082825260208201905092915050565b6000613bf182613d47565b9150613bfc83613d47565b9250826fffffffffffffffffffffffffffffffff03821115613c2157613c20613e4e565b5b828201905092915050565b6000613c3782613d83565b9150613c4283613d83565b9250827fffffffffffffffffffffffffffffffffffffffffffffffffffffffffffffffff03821115613c7757613c76613e4e565b5b828201905092915050565b6000613c8d82613d47565b9150613c9883613d47565b925082821015613cab57613caa613e4e565b5b828203905092915050565b6000613cc182613d83565b9150613ccc83613d83565b925082821015613cdf57613cde613e4e565b5b828203905092915050565b6000613cf582613d63565b9050919050565b60008115159050919050565b60007fffffffffffffffffffffffffffffffff0000000000000000000000000000000082169050919050565b6000819050613d4282614161565b919050565b60006fffffffffffffffffffffffffffffffff82169050919050565b600073ffffffffffffffffffffffffffffffffffffffff82169050919050565b6000819050919050565b600063ffffffff82169050919050565b600064ffffffffff82169050919050565b6000613db982613d34565b9050919050565b6000613dcb82613d83565b9050919050565b6000613ddd82613d83565b9050919050565b613ded82613f1e565b810181811067ffffffffffffffff82111715613e0c57613e0b613edb565b5b80604052505050565b6000613e2082613d47565b91506fffffffffffffffffffffffffffffffff821415613e4357613e42613e4e565b5b600182019050919050565b7f4e487b7100000000000000000000000000000000000000000000000000000000600052601160045260246000fd5b7f4e487b7100000000000000000000000000000000000000000000000000000000600052602160045260246000fd5b7f4e487b7100000000000000000000000000000000000000000000000000000000600052603260045260246000fd5b7f4e487b7100000000000000000000000000000000000000000000000000000000600052604160045260246000fd5b600080fd5b600080fd5b600080fd5b600080fd5b6000601f19601f8301169050919050565b7f51756f746520746f6b656e20616464726573732063616e6e6f7420626520302060008201527f6164647265737300000000000000000000000000000000000000000000000000602082015250565b7f556e617574686f72697a65640000000000000000000000000000000000000000600082015250565b7f4f776e61626c653a206e6577206f776e657220697320746865207a65726f206160008201527f6464726573730000000000000000000000000000000000000000000000000000602082015250565b7f4c657665726167656420706f6f6c20616464726573732063616e6e6f7420626560008201527f2030206164647265737300000000000000000000000000000000000000000000602082015250565b7f416d6f756e74206d757374206e6f74206265207a65726f000000000000000000600082015250565b7f6d73672e73656e646572206e6f742073656c6600000000000000000000000000600082015250565b7f4d75737420756e636f6d6d6974206265666f72652066726f6e7452756e6e696e60008201527f67496e74657276616c0000000000000000000000000000000000000000000000602082015250565b7f4f776e61626c653a2063616c6c6572206973206e6f7420746865206f776e6572600082015250565b7f436f6d6d697465723a206e6f7420666163746f72790000000000000000000000600082015250565b7f6d73672e73656e646572206e6f74206c6576657261676564506f6f6c00000000600082015250565b6004811061417257614171613e7d565b5b50565b61417e81613cea565b811461418957600080fd5b50565b61419581613cfc565b81146141a057600080fd5b50565b6141ac81613d08565b81146141b757600080fd5b50565b600481106141c757600080fd5b50565b6141d381613d47565b81146141de57600080fd5b50565b6141ea81613d83565b81146141f557600080fd5b50565b61420181613d8d565b811461420c57600080fd5b50565b61421881613d9d565b811461422357600080fd5b5056fea2646970667358221220f76c7fbd4158278bbbfa99bf0d3487deb2bc066f4b2a60b19745c4201cb7013364736f6c63430008060033a2646970667358221220faf4381c02caf1a17f7af82a71357a9ac057ce2705a6977eb232524aef7f095664736f6c63430008060033",
  "libraries": {
    "PoolSwapLibrary": "0x9C7259B98BE2f9110ed55D39e205f5CA3D3AE622"
  },
  "devdoc": {
    "kind": "dev",
    "methods": {},
    "title": "The deployer of the PoolCommitter contract",
    "version": 1
  },
  "userdoc": {
    "kind": "user",
    "methods": {},
    "version": 1
  },
  "storageLayout": {
    "storage": [
      {
        "astId": 7911,
        "contract": "contracts/implementation/PoolCommitterDeployer.sol:PoolCommitterDeployer",
        "label": "factory",
        "offset": 0,
        "slot": "0",
        "type": "t_address"
      }
    ],
    "types": {
      "t_address": {
        "encoding": "inplace",
        "label": "address",
        "numberOfBytes": "20"
      }
    }
  }
}