{
  "_format": "hh-sol-artifact-1",
  "contractName": "LeveragedPool",
  "sourceName": "contracts/implementation/LeveragedPool.sol",
  "abi": [
    {
      "anonymous": false,
      "inputs": [
        {
          "indexed": true,
          "internalType": "bytes32",
          "name": "role",
          "type": "bytes32"
        },
        {
          "indexed": true,
          "internalType": "bytes32",
          "name": "previousAdminRole",
          "type": "bytes32"
        },
        {
          "indexed": true,
          "internalType": "bytes32",
          "name": "newAdminRole",
          "type": "bytes32"
        }
      ],
      "name": "RoleAdminChanged",
      "type": "event"
    },
    {
      "anonymous": false,
      "inputs": [
        {
          "indexed": true,
          "internalType": "bytes32",
          "name": "role",
          "type": "bytes32"
        },
        {
          "indexed": true,
          "internalType": "address",
          "name": "account",
          "type": "address"
        },
        {
          "indexed": true,
          "internalType": "address",
          "name": "sender",
          "type": "address"
        }
      ],
      "name": "RoleGranted",
      "type": "event"
    },
    {
      "anonymous": false,
      "inputs": [
        {
          "indexed": true,
          "internalType": "bytes32",
          "name": "role",
          "type": "bytes32"
        },
        {
          "indexed": true,
          "internalType": "address",
          "name": "account",
          "type": "address"
        },
        {
          "indexed": true,
          "internalType": "address",
          "name": "sender",
          "type": "address"
        }
      ],
      "name": "RoleRevoked",
      "type": "event"
    },
    {
      "inputs": [],
      "name": "DEFAULT_ADMIN_ROLE",
      "outputs": [
        {
          "internalType": "bytes32",
          "name": "",
          "type": "bytes32"
        }
      ],
      "stateMutability": "view",
      "type": "function"
    },
    {
      "inputs": [],
      "name": "FEE_HOLDER",
      "outputs": [
        {
          "internalType": "bytes32",
          "name": "",
          "type": "bytes32"
        }
      ],
      "stateMutability": "view",
      "type": "function"
    },
    {
      "inputs": [],
      "name": "UPDATER",
      "outputs": [
        {
          "internalType": "bytes32",
          "name": "",
          "type": "bytes32"
        }
      ],
      "stateMutability": "view",
      "type": "function"
    },
    {
      "inputs": [
        {
          "internalType": "bytes32",
          "name": "role",
          "type": "bytes32"
        }
      ],
      "name": "getRoleAdmin",
      "outputs": [
        {
          "internalType": "bytes32",
          "name": "",
          "type": "bytes32"
        }
      ],
      "stateMutability": "view",
      "type": "function"
    },
    {
      "inputs": [
        {
          "internalType": "bytes32",
          "name": "role",
          "type": "bytes32"
        },
        {
          "internalType": "uint256",
          "name": "index",
          "type": "uint256"
        }
      ],
      "name": "getRoleMember",
      "outputs": [
        {
          "internalType": "address",
          "name": "",
          "type": "address"
        }
      ],
      "stateMutability": "view",
      "type": "function"
    },
    {
      "inputs": [
        {
          "internalType": "bytes32",
          "name": "role",
          "type": "bytes32"
        }
      ],
      "name": "getRoleMemberCount",
      "outputs": [
        {
          "internalType": "uint256",
          "name": "",
          "type": "uint256"
        }
      ],
      "stateMutability": "view",
      "type": "function"
    },
    {
      "inputs": [
        {
          "internalType": "bytes32",
          "name": "role",
          "type": "bytes32"
        },
        {
          "internalType": "address",
          "name": "account",
          "type": "address"
        }
      ],
      "name": "grantRole",
      "outputs": [],
      "stateMutability": "nonpayable",
      "type": "function"
    },
    {
      "inputs": [
        {
          "internalType": "bytes32",
          "name": "role",
          "type": "bytes32"
        },
        {
          "internalType": "address",
          "name": "account",
          "type": "address"
        }
      ],
      "name": "hasRole",
      "outputs": [
        {
          "internalType": "bool",
          "name": "",
          "type": "bool"
        }
      ],
      "stateMutability": "view",
      "type": "function"
    },
    {
      "inputs": [
        {
          "internalType": "bytes32",
          "name": "role",
          "type": "bytes32"
        },
        {
          "internalType": "address",
          "name": "account",
          "type": "address"
        }
      ],
      "name": "renounceRole",
      "outputs": [],
      "stateMutability": "nonpayable",
      "type": "function"
    },
    {
      "inputs": [
        {
          "internalType": "bytes32",
          "name": "role",
          "type": "bytes32"
        },
        {
          "internalType": "address",
          "name": "account",
          "type": "address"
        }
      ],
      "name": "revokeRole",
      "outputs": [],
      "stateMutability": "nonpayable",
      "type": "function"
    }
  ],
  "bytecode": "0x608060405234801561001057600080fd5b50610bb3806100206000396000f3fe608060405234801561001057600080fd5b506004361061009e5760003560e01c806391d148541161006657806391d148541461015957806394a6863014610189578063a217fddf146101a7578063ca15c873146101c5578063d547741f146101f55761009e565b8063248a9ca3146100a35780632f2ff15d146100d357806336568abe146100ef5780633ef1889b1461010b5780639010d07c14610129575b600080fd5b6100bd60048036038101906100b891906108ed565b610211565b6040516100ca9190610a00565b60405180910390f35b6100ed60048036038101906100e89190610916565b610230565b005b61010960048036038101906101049190610916565b6102b9565b005b610113610352565b6040516101209190610a00565b60405180910390f35b610143600480360381019061013e9190610952565b610376565b60405161015091906109ca565b60405180910390f35b610173600480360381019061016e9190610916565b6103a7565b60405161018091906109e5565b60405180910390f35b6101916103d8565b60405161019e9190610a00565b60405180910390f35b6101af6103fc565b6040516101bc9190610a00565b60405180910390f35b6101df60048036038101906101da91906108ed565b610403565b6040516101ec9190610a1b565b60405180910390f35b61020f600480360381019061020a9190610916565b610429565b005b6000806000838152602001908152602001600020600201549050919050565b610256600080848152602001908152602001600020600201546102516104b2565b6103a7565b6102ab576040517f08c379a000000000000000000000000000000000000000000000000000000000815260040180806020018281038252602f815260200180610af0602f913960400191505060405180910390fd5b6102b582826104ba565b5050565b6102c16104b2565b73ffffffffffffffffffffffffffffffffffffffff168173ffffffffffffffffffffffffffffffffffffffff1614610344576040517f08c379a000000000000000000000000000000000000000000000000000000000815260040180806020018281038252602f815260200180610b4f602f913960400191505060405180910390fd5b61034e828261054d565b5050565b7fd966713f04b5544a6d58a354c8f5113232ee91f25a7851f4218a448e05d406ee81565b600061039f826000808681526020019081526020016000206000016105e090919063ffffffff16565b905092915050565b60006103d0826000808681526020019081526020016000206000016105fa90919063ffffffff16565b905092915050565b7fe7d07e22cc47e0674aa5610dfc0c7c09a0a3b7491679c731a125fba46498854e81565b6000801b81565b600061042260008084815260200190815260200160002060000161062a565b9050919050565b61044f6000808481526020019081526020016000206002015461044a6104b2565b6103a7565b6104a4576040517f08c379a0000000000000000000000000000000000000000000000000000000008152600401808060200182810382526030815260200180610b1f6030913960400191505060405180910390fd5b6104ae828261054d565b5050565b600033905090565b6104e18160008085815260200190815260200160002060000161063f90919063ffffffff16565b15610549576104ee6104b2565b73ffffffffffffffffffffffffffffffffffffffff168173ffffffffffffffffffffffffffffffffffffffff16837f2f8788117e7eff1d82e926ec794901d17c78024a50270940304540a733656f0d60405160405180910390a45b5050565b6105748160008085815260200190815260200160002060000161066f90919063ffffffff16565b156105dc576105816104b2565b73ffffffffffffffffffffffffffffffffffffffff168173ffffffffffffffffffffffffffffffffffffffff16837ff6391f5c32d9c69d2a47ea670b442974b53935d1edc7fd64eb21e047a839171b60405160405180910390a45b5050565b60006105ef836000018361069f565b60001c905092915050565b6000610622836000018373ffffffffffffffffffffffffffffffffffffffff1660001b610722565b905092915050565b600061063882600001610745565b9050919050565b6000610667836000018373ffffffffffffffffffffffffffffffffffffffff1660001b610756565b905092915050565b6000610697836000018373ffffffffffffffffffffffffffffffffffffffff1660001b6107c6565b905092915050565b600081836000018054905011610700576040517f08c379a0000000000000000000000000000000000000000000000000000000008152600401808060200182810382526022815260200180610ace6022913960400191505060405180910390fd5b82600001828154811061070f57fe5b9060005260206000200154905092915050565b600080836001016000848152602001908152602001600020541415905092915050565b600081600001805490509050919050565b60006107628383610722565b6107bb5782600001829080600181540180825580915050600190039060005260206000200160009091909190915055826000018054905083600101600084815260200190815260200160002081905550600190506107c0565b600090505b92915050565b600080836001016000848152602001908152602001600020549050600081146108a2576000600182039050600060018660000180549050039050600086600001828154811061081157fe5b906000526020600020015490508087600001848154811061082e57fe5b906000526020600020018190555060018301876001016000838152602001908152602001600020819055508660000180548061086657fe5b600190038181906000526020600020016000905590558660010160008781526020019081526020016000206000905560019450505050506108a8565b60009150505b92915050565b6000813590506108bd81610a88565b92915050565b6000813590506108d281610a9f565b92915050565b6000813590506108e781610ab6565b92915050565b6000602082840312156108ff57600080fd5b600061090d848285016108c3565b91505092915050565b6000806040838503121561092957600080fd5b6000610937858286016108c3565b9250506020610948858286016108ae565b9150509250929050565b6000806040838503121561096557600080fd5b6000610973858286016108c3565b9250506020610984858286016108d8565b9150509250929050565b61099781610a36565b82525050565b6109a681610a48565b82525050565b6109b581610a54565b82525050565b6109c481610a7e565b82525050565b60006020820190506109df600083018461098e565b92915050565b60006020820190506109fa600083018461099d565b92915050565b6000602082019050610a1560008301846109ac565b92915050565b6000602082019050610a3060008301846109bb565b92915050565b6000610a4182610a5e565b9050919050565b60008115159050919050565b6000819050919050565b600073ffffffffffffffffffffffffffffffffffffffff82169050919050565b6000819050919050565b610a9181610a36565b8114610a9c57600080fd5b50565b610aa881610a54565b8114610ab357600080fd5b50565b610abf81610a7e565b8114610aca57600080fd5b5056fe456e756d657261626c655365743a20696e646578206f7574206f6620626f756e6473416363657373436f6e74726f6c3a2073656e646572206d75737420626520616e2061646d696e20746f206772616e74416363657373436f6e74726f6c3a2073656e646572206d75737420626520616e2061646d696e20746f207265766f6b65416363657373436f6e74726f6c3a2063616e206f6e6c792072656e6f756e636520726f6c657320666f722073656c66a2646970667358221220f584712b99ecd997d915d6348175147b77237700e096f3c7f2cda6ef515c262264736f6c63430007060033",
  "linkReferences": {},
  "deployedLinkReferences": {}
}