{
  "_format": "hh-sol-artifact-1",
  "contractName": "LeveragedPool",
  "sourceName": "contracts/implementation/LeveragedPool.sol",
  "abi": [
    {
      "anonymous": false,
      "inputs": [
        {
          "indexed": true,
          "internalType": "address",
          "name": "oldAddress",
          "type": "address"
        },
        {
          "indexed": true,
          "internalType": "address",
          "name": "newAddress",
          "type": "address"
        }
      ],
      "name": "FeeAddressUpdated",
      "type": "event"
    },
    {
      "anonymous": false,
      "inputs": [
        {
          "indexed": true,
          "internalType": "address",
          "name": "oldAddress",
          "type": "address"
        },
        {
          "indexed": true,
          "internalType": "address",
          "name": "newAddress",
          "type": "address"
        }
      ],
      "name": "GovernanceAddressChanged",
      "type": "event"
    },
    {
      "anonymous": false,
      "inputs": [
        {
          "indexed": true,
          "internalType": "address",
          "name": "oldAddress",
          "type": "address"
        },
        {
          "indexed": true,
          "internalType": "address",
          "name": "newAddress",
          "type": "address"
        }
      ],
      "name": "KeeperAddressChanged",
      "type": "event"
    },
    {
      "anonymous": false,
      "inputs": [],
      "name": "Paused",
      "type": "event"
    },
    {
      "anonymous": false,
      "inputs": [
        {
          "indexed": true,
          "internalType": "address",
          "name": "longToken",
          "type": "address"
        },
        {
          "indexed": true,
          "internalType": "address",
          "name": "shortToken",
          "type": "address"
        },
        {
          "indexed": false,
          "internalType": "address",
          "name": "quoteToken",
          "type": "address"
        },
        {
          "indexed": false,
          "internalType": "string",
          "name": "poolName",
          "type": "string"
        }
      ],
      "name": "PoolInitialized",
      "type": "event"
    },
    {
      "anonymous": false,
      "inputs": [
        {
          "indexed": false,
          "internalType": "int256",
          "name": "shortBalanceChange",
          "type": "int256"
        },
        {
          "indexed": false,
          "internalType": "int256",
          "name": "longBalanceChange",
          "type": "int256"
        }
      ],
      "name": "PoolRebalance",
      "type": "event"
    },
    {
      "anonymous": false,
      "inputs": [
        {
          "indexed": true,
          "internalType": "int256",
          "name": "startPrice",
          "type": "int256"
        },
        {
          "indexed": true,
          "internalType": "int256",
          "name": "endPrice",
          "type": "int256"
        }
      ],
      "name": "PriceChangeError",
      "type": "event"
    },
    {
      "anonymous": false,
      "inputs": [
        {
          "indexed": true,
          "internalType": "address",
          "name": "newAddress",
          "type": "address"
        }
      ],
      "name": "ProvisionalGovernanceChanged",
      "type": "event"
    },
    {
      "anonymous": false,
      "inputs": [],
      "name": "Unpaused",
      "type": "event"
    },
    {
      "inputs": [],
      "name": "balances",
      "outputs": [
        {
          "internalType": "uint256",
          "name": "_shortBalance",
          "type": "uint256"
        },
        {
          "internalType": "uint256",
          "name": "_longBalance",
          "type": "uint256"
        }
      ],
      "stateMutability": "view",
      "type": "function"
    },
    {
      "inputs": [
        {
          "internalType": "uint256",
          "name": "token",
          "type": "uint256"
        },
        {
          "internalType": "uint256",
          "name": "amount",
          "type": "uint256"
        },
        {
          "internalType": "address",
          "name": "burner",
          "type": "address"
        }
      ],
      "name": "burnTokens",
      "outputs": [],
      "stateMutability": "nonpayable",
      "type": "function"
    },
    {
      "inputs": [],
      "name": "claimGovernance",
      "outputs": [],
      "stateMutability": "nonpayable",
      "type": "function"
    },
    {
      "inputs": [],
      "name": "fee",
      "outputs": [
        {
          "internalType": "bytes16",
          "name": "",
          "type": "bytes16"
        }
      ],
      "stateMutability": "view",
      "type": "function"
    },
    {
      "inputs": [],
      "name": "feeAddress",
      "outputs": [
        {
          "internalType": "address",
          "name": "",
          "type": "address"
        }
      ],
      "stateMutability": "view",
      "type": "function"
    },
    {
      "inputs": [],
      "name": "frontRunningInterval",
      "outputs": [
        {
          "internalType": "uint32",
          "name": "",
          "type": "uint32"
        }
      ],
      "stateMutability": "view",
      "type": "function"
    },
    {
      "inputs": [],
      "name": "getOraclePrice",
      "outputs": [
        {
          "internalType": "int256",
          "name": "",
          "type": "int256"
        }
      ],
      "stateMutability": "view",
      "type": "function"
    },
    {
      "inputs": [],
      "name": "getUpkeepInformation",
      "outputs": [
        {
          "internalType": "int256",
          "name": "_latestPrice",
          "type": "int256"
        },
        {
          "internalType": "bytes",
          "name": "_data",
          "type": "bytes"
        },
        {
          "internalType": "uint256",
          "name": "_lastPriceTimestamp",
          "type": "uint256"
        },
        {
          "internalType": "uint256",
          "name": "_updateInterval",
          "type": "uint256"
        }
      ],
      "stateMutability": "view",
      "type": "function"
    },
    {
      "inputs": [],
      "name": "governance",
      "outputs": [
        {
          "internalType": "address",
          "name": "",
          "type": "address"
        }
      ],
      "stateMutability": "view",
      "type": "function"
    },
    {
      "inputs": [],
      "name": "governanceTransferInProgress",
      "outputs": [
        {
          "internalType": "bool",
          "name": "",
          "type": "bool"
        }
      ],
      "stateMutability": "view",
      "type": "function"
    },
    {
      "inputs": [
        {
          "components": [
            {
              "internalType": "address",
              "name": "_owner",
              "type": "address"
            },
            {
              "internalType": "address",
              "name": "_keeper",
              "type": "address"
            },
            {
              "internalType": "address",
              "name": "_oracleWrapper",
              "type": "address"
            },
            {
              "internalType": "address",
              "name": "_settlementEthOracle",
              "type": "address"
            },
            {
              "internalType": "address",
              "name": "_longToken",
              "type": "address"
            },
            {
              "internalType": "address",
              "name": "_shortToken",
              "type": "address"
            },
            {
              "internalType": "address",
              "name": "_poolCommitter",
              "type": "address"
            },
            {
              "internalType": "string",
              "name": "_poolName",
              "type": "string"
            },
            {
              "internalType": "uint32",
              "name": "_frontRunningInterval",
              "type": "uint32"
            },
            {
              "internalType": "uint32",
              "name": "_updateInterval",
              "type": "uint32"
            },
            {
              "internalType": "uint256",
              "name": "_fee",
              "type": "uint256"
            },
            {
              "internalType": "uint16",
              "name": "_leverageAmount",
              "type": "uint16"
            },
            {
              "internalType": "address",
              "name": "_feeAddress",
              "type": "address"
            },
            {
              "internalType": "address",
              "name": "_quoteToken",
              "type": "address"
            }
          ],
          "internalType": "struct ILeveragedPool.Initialization",
          "name": "initialization",
          "type": "tuple"
        }
      ],
      "name": "initialize",
      "outputs": [],
      "stateMutability": "nonpayable",
      "type": "function"
    },
    {
      "inputs": [],
      "name": "intervalPassed",
      "outputs": [
        {
          "internalType": "bool",
          "name": "",
          "type": "bool"
        }
      ],
      "stateMutability": "view",
      "type": "function"
    },
    {
      "inputs": [],
      "name": "keeper",
      "outputs": [
        {
          "internalType": "address",
          "name": "",
          "type": "address"
        }
      ],
      "stateMutability": "view",
      "type": "function"
    },
    {
      "inputs": [],
      "name": "lastPriceTimestamp",
      "outputs": [
        {
          "internalType": "uint256",
          "name": "",
          "type": "uint256"
        }
      ],
      "stateMutability": "view",
      "type": "function"
    },
    {
      "inputs": [],
      "name": "leverageAmount",
      "outputs": [
        {
          "internalType": "bytes16",
          "name": "",
          "type": "bytes16"
        }
      ],
      "stateMutability": "view",
      "type": "function"
    },
    {
      "inputs": [],
      "name": "longBalance",
      "outputs": [
        {
          "internalType": "uint256",
          "name": "",
          "type": "uint256"
        }
      ],
      "stateMutability": "view",
      "type": "function"
    },
    {
      "inputs": [
        {
          "internalType": "uint256",
          "name": "token",
          "type": "uint256"
        },
        {
          "internalType": "uint256",
          "name": "amount",
          "type": "uint256"
        },
        {
          "internalType": "address",
          "name": "minter",
          "type": "address"
        }
      ],
      "name": "mintTokens",
      "outputs": [],
      "stateMutability": "nonpayable",
      "type": "function"
    },
    {
      "inputs": [],
      "name": "oracleWrapper",
      "outputs": [
        {
          "internalType": "address",
          "name": "",
          "type": "address"
        }
      ],
      "stateMutability": "view",
      "type": "function"
    },
    {
      "inputs": [],
      "name": "pause",
      "outputs": [],
      "stateMutability": "nonpayable",
      "type": "function"
    },
    {
      "inputs": [],
      "name": "paused",
      "outputs": [
        {
          "internalType": "bool",
          "name": "",
          "type": "bool"
        }
      ],
      "stateMutability": "view",
      "type": "function"
    },
    {
      "inputs": [
        {
          "internalType": "address",
          "name": "to",
          "type": "address"
        },
        {
          "internalType": "uint256",
          "name": "amount",
          "type": "uint256"
        }
      ],
      "name": "payKeeperFromBalances",
      "outputs": [
        {
          "internalType": "bool",
          "name": "",
          "type": "bool"
        }
      ],
      "stateMutability": "nonpayable",
      "type": "function"
    },
    {
      "inputs": [],
      "name": "poolCommitter",
      "outputs": [
        {
          "internalType": "address",
          "name": "",
          "type": "address"
        }
      ],
      "stateMutability": "view",
      "type": "function"
    },
    {
      "inputs": [],
      "name": "poolName",
      "outputs": [
        {
          "internalType": "string",
          "name": "",
          "type": "string"
        }
      ],
      "stateMutability": "view",
      "type": "function"
    },
    {
      "inputs": [],
      "name": "poolTokens",
      "outputs": [
        {
          "internalType": "address[2]",
          "name": "",
          "type": "address[2]"
        }
      ],
      "stateMutability": "view",
      "type": "function"
    },
    {
      "inputs": [
        {
          "internalType": "int256",
          "name": "_oldPrice",
          "type": "int256"
        },
        {
          "internalType": "int256",
          "name": "_newPrice",
          "type": "int256"
        }
      ],
      "name": "poolUpkeep",
      "outputs": [],
      "stateMutability": "nonpayable",
      "type": "function"
    },
    {
      "inputs": [],
      "name": "provisionalGovernance",
      "outputs": [
        {
          "internalType": "address",
          "name": "",
          "type": "address"
        }
      ],
      "stateMutability": "view",
      "type": "function"
    },
    {
      "inputs": [],
      "name": "quoteToken",
      "outputs": [
        {
          "internalType": "address",
          "name": "",
          "type": "address"
        }
      ],
      "stateMutability": "view",
      "type": "function"
    },
    {
      "inputs": [
        {
          "internalType": "address",
          "name": "to",
          "type": "address"
        },
        {
          "internalType": "uint256",
          "name": "amount",
          "type": "uint256"
        }
      ],
      "name": "quoteTokenTransfer",
      "outputs": [],
      "stateMutability": "nonpayable",
      "type": "function"
    },
    {
      "inputs": [
        {
          "internalType": "address",
          "name": "from",
          "type": "address"
        },
        {
          "internalType": "address",
          "name": "to",
          "type": "address"
        },
        {
          "internalType": "uint256",
          "name": "amount",
          "type": "uint256"
        }
      ],
      "name": "quoteTokenTransferFrom",
      "outputs": [],
      "stateMutability": "nonpayable",
      "type": "function"
    },
    {
      "inputs": [
        {
          "internalType": "address",
          "name": "_keeper",
          "type": "address"
        }
      ],
      "name": "setKeeper",
      "outputs": [],
      "stateMutability": "nonpayable",
      "type": "function"
    },
    {
      "inputs": [
        {
          "internalType": "uint256",
          "name": "_longBalance",
          "type": "uint256"
        },
        {
          "internalType": "uint256",
          "name": "_shortBalance",
          "type": "uint256"
        }
      ],
      "name": "setNewPoolBalances",
      "outputs": [],
      "stateMutability": "nonpayable",
      "type": "function"
    },
    {
      "inputs": [],
      "name": "settlementEthOracle",
      "outputs": [
        {
          "internalType": "address",
          "name": "",
          "type": "address"
        }
      ],
      "stateMutability": "view",
      "type": "function"
    },
    {
      "inputs": [],
      "name": "shortBalance",
      "outputs": [
        {
          "internalType": "uint256",
          "name": "",
          "type": "uint256"
        }
      ],
      "stateMutability": "view",
      "type": "function"
    },
    {
      "inputs": [
        {
          "internalType": "uint256",
          "name": "",
          "type": "uint256"
        }
      ],
      "name": "tokens",
      "outputs": [
        {
          "internalType": "address",
          "name": "",
          "type": "address"
        }
      ],
      "stateMutability": "view",
      "type": "function"
    },
    {
      "inputs": [
        {
          "internalType": "address",
          "name": "_governance",
          "type": "address"
        }
      ],
      "name": "transferGovernance",
      "outputs": [],
      "stateMutability": "nonpayable",
      "type": "function"
    },
    {
      "inputs": [],
      "name": "unpause",
      "outputs": [],
      "stateMutability": "nonpayable",
      "type": "function"
    },
    {
      "inputs": [
        {
          "internalType": "address",
          "name": "account",
          "type": "address"
        }
      ],
      "name": "updateFeeAddress",
      "outputs": [],
      "stateMutability": "nonpayable",
      "type": "function"
    },
    {
      "inputs": [],
      "name": "updateInterval",
      "outputs": [
        {
          "internalType": "uint32",
          "name": "",
          "type": "uint32"
        }
      ],
      "stateMutability": "view",
      "type": "function"
    },
    {
      "inputs": [],
      "name": "withdrawQuote",
      "outputs": [],
      "stateMutability": "nonpayable",
      "type": "function"
    }
  ],
  "bytecode": "0x608060405234801561001057600080fd5b50612c3b806100206000396000f3fe608060405234801561001057600080fd5b506004361061023d5760003560e01c80637bbf10331161013b578063b9ed8abf116100b8578063ddca3f431161007c578063ddca3f43146104de578063f164e2a7146104f2578063f3466dfa14610506578063f633a7401461051b578063fd2c80ae1461052e57600080fd5b8063b9ed8abf14610489578063ba8d54681461049c578063bbcaac38146104a5578063cd39f30f146104b8578063d38bfff4146104cb57600080fd5b80638456cb59116100ff5780638456cb591461042257806387f9ca5d1461042a5780639fd552451461043d578063ab47c2b314610450578063aced16611461047657600080fd5b80637bbf1033146103d05780637bfe789a146103d85780637de93f93146103fd5780637e71fc7d146104065780638226f3961461040f57600080fd5b80635aa6e675116101c9578063748747e61161018d578063748747e61461036657806375c66e2f14610379578063796da7af1461038c5780637b0a0c90146103a25780637bb98a68146103b557600080fd5b80635aa6e675146102ff5780635c975abb146103125780635d36b190146103365780636d3e313e1461033e5780636dc2b2711461035357600080fd5b80633f4ba83a116102105780633f4ba83a146102ab57806341275358146102b35780634f64b2be146102c6578063554bb621146102d95780635817f0c6146102ec57600080fd5b806304883c2714610242578063217a4b70146102635780633c3f82521461028e5780633d4c485d146102a3575b600080fd5b61024a610546565b60405161025a94939291906129c3565b60405180910390f35b600a54610276906001600160a01b031681565b6040516001600160a01b03909116815260200161025a565b6102a161029c3660046127b9565b6105f9565b005b6102a1610661565b6102a1610771565b600954610276906001600160a01b031681565b6102766102d436600461283b565b6107d3565b6102a16102e73660046127db565b6107f3565b6102a16102fa366004612671565b61117d565b600754610276906001600160a01b031681565b60105461032690600160a81b900460ff1681565b604051901515815260200161025a565b6102a161123e565b61034661137c565b60405161025a9190612989565b610326610361366004612671565b6113c0565b6102a161037436600461261a565b61158a565b6102a1610387366004612878565b611691565b610394611871565b60405190815260200161025a565b6102a16103b0366004612635565b6118f3565b6001546002546040805192835260208301919091520161025a565b610326611a0b565b6003546103e89063ffffffff1681565b60405163ffffffff909116815260200161025a565b610394600c5481565b61039460025481565b600f54610276906001600160a01b031681565b6102a1611a35565b6102a1610438366004612878565b611a9d565b601054610276906001600160a01b031681565b60045461045d9060801b81565b6040516001600160801b0319909116815260200161025a565b600854610276906001600160a01b031681565b600e54610276906001600160a01b031681565b61039460015481565b6102a16104b336600461261a565b611c78565b600b54610276906001600160a01b031681565b6102a16104d936600461261a565b611d74565b60035461045d90600160401b900460801b81565b60105461032690600160a01b900460ff1681565b61050e611e83565b60405161025a91906129ef565b6102a16105293660046127b9565b611f11565b6003546103e890640100000000900463ffffffff1681565b60006060600080600e60009054906101000a90046001600160a01b03166001600160a01b031663db6d8fcf6040518163ffffffff1660e01b815260040160006040518083038186803b15801561059b57600080fd5b505afa1580156105af573d6000803e3d6000fd5b505050506040513d6000823e601f3d908101601f191682016040526105d79190810190612700565b600c546003549297919650945064010000000090910463ffffffff1692509050565b600b546001600160a01b0316331461062c5760405162461bcd60e51b815260040161062390612a2a565b60405180910390fd5b601054600160a81b900460ff16156106565760405162461bcd60e51b815260040161062390612a02565b600291909155600155565b6007546001600160a01b0316331461068b5760405162461bcd60e51b815260040161062390612a61565b601054600160a81b900460ff166106d35760405162461bcd60e51b815260206004820152600c60248201526b506f6f6c206973206c69766560a01b6044820152606401610623565b600a546040516370a0823160e01b81523060048201526001600160a01b039091169060009082906370a082319060240160206040518083038186803b15801561071b57600080fd5b505afa15801561072f573d6000803e3d6000fd5b505050506040513d601f19601f8201168201806040525081019061075391906126e7565b600a5490915061076d906001600160a01b0316338361205b565b5050565b6007546001600160a01b0316331461079b5760405162461bcd60e51b815260040161062390612a61565b6010805460ff60a81b191690556040517fa45f47fdea8a1efdd9029a5691c7f759c32b7c698632b563573e155625d1693390600090a1565b600581600281106107e357600080fd5b01546001600160a01b0316905081565b600054610100900460ff168061080c575060005460ff16155b61086f5760405162461bcd60e51b815260206004820152602e60248201527f496e697469616c697a61626c653a20636f6e747261637420697320616c72656160448201526d191e481a5b9a5d1a585b1a5e995960921b6064820152608401610623565b600054610100900460ff16158015610891576000805461ffff19166101011790555b60006108a56101a08401610180850161261a565b6001600160a01b031614156108fc5760405162461bcd60e51b815260206004820152601f60248201527f46656520616464726573732063616e6e6f7420626520302061646472657373006044820152606401610623565b60006109106101c084016101a0850161261a565b6001600160a01b031614156109675760405162461bcd60e51b815260206004820152601f60248201527f51756f746520746f6b656e2063616e6e6f7420626520302061646472657373006044820152606401610623565b6000610979606084016040850161261a565b6001600160a01b031614156109db5760405162461bcd60e51b815260206004820152602260248201527f4f7261636c6520777261707065722063616e6e6f742062652030206164647265604482015261737360f01b6064820152608401610623565b60006109ed608084016060850161261a565b6001600160a01b03161415610a4e5760405162461bcd60e51b815260206004820152602160248201527f4b6565706572206f7261636c652063616e6e6f742062652030206164647265736044820152607360f81b6064820152608401610623565b6000610a5d602084018461261a565b6001600160a01b03161415610ab45760405162461bcd60e51b815260206004820152601960248201527f4f776e65722063616e6e6f7420626520302061646472657373000000000000006044820152606401610623565b6000610ac6604084016020850161261a565b6001600160a01b03161415610b1d5760405162461bcd60e51b815260206004820152601a60248201527f4b65657065722063616e6e6f74206265203020616464726573730000000000006044820152606401610623565b6000610b2f60a084016080850161261a565b6001600160a01b03161415610b865760405162461bcd60e51b815260206004820152601e60248201527f4c6f6e6720746f6b656e2063616e6e6f742062652030206164647265737300006044820152606401610623565b6000610b9860c0840160a0850161261a565b6001600160a01b03161415610bef5760405162461bcd60e51b815260206004820152601f60248201527f53686f727420746f6b656e2063616e6e6f7420626520302061646472657373006044820152606401610623565b6000610c0160e0840160c0850161261a565b6001600160a01b03161415610c625760405162461bcd60e51b815260206004820152602160248201527f506f6f6c436f6d6d69747465722063616e6e6f742062652030206164647265736044820152607360f81b6064820152608401610623565b610c74610140830161012084016128db565b63ffffffff16610c8c610120840161010085016128db565b63ffffffff1610610cdf5760405162461bcd60e51b815260206004820152601d60248201527f66726f6e7452756e6e696e67203e20757064617465496e74657276616c0000006044820152606401610623565b610cf2670de0b6b3a76400006001612afe565b82610140013510610d335760405162461bcd60e51b815260206004820152600b60248201526a466565203e3d203130302560a81b6044820152606401610623565b610d40602083018361261a565b600780546001600160a01b0319166001600160a01b0392909216919091179055610d70604083016020840161261a565b600880546001600160a01b0319166001600160a01b0392909216919091179055610da0606083016040840161261a565b600e80546001600160a01b0319166001600160a01b0392909216919091179055610dd0608083016060840161261a565b600f80546001600160a01b0319166001600160a01b0392909216919091179055610e026101c083016101a0840161261a565b600a80546001600160a01b0319166001600160a01b0392909216919091179055610e34610120830161010084016128db565b6003805463ffffffff191663ffffffff92909216919091179055610e60610140830161012084016128db565b6003805463ffffffff929092166401000000000267ffffffff0000000019909216919091179055604051636fedf26d60e11b8152610140830135600482015273__$dc3b4b0a367edd91a2d74c73e2da54c142$__9063dfdbe4da9060240160206040518083038186803b158015610ed657600080fd5b505af4158015610eea573d6000803e3d6000fd5b505050506040513d601f19601f82011682018060405250810190610f0e91906126bd565b6003805460809290921c600160401b0277ffffffffffffffffffffffffffffffff00000000000000001990921691909117905573__$dc3b4b0a367edd91a2d74c73e2da54c142$__63dfdbe4da610f6d61018085016101608601612817565b6040516001600160e01b031960e084901b16815261ffff909116600482015260240160206040518083038186803b158015610fa757600080fd5b505af4158015610fbb573d6000803e3d6000fd5b505050506040513d601f19601f82011682018060405250810190610fdf91906126bd565b600480546001600160801b03191660809290921c91909117905561100b6101a08301610180840161261a565b600980546001600160a01b0319166001600160a01b039290921691909117905542600c5561103c60e0830183612a98565b61104891600d91612547565b5061105960a083016080840161261a565b600560000180546001600160a01b0319166001600160a01b039290921691909117905561108c60c0830160a0840161261a565b600560010180546001600160a01b0319166001600160a01b03929092169190911790556110bf60e0830160c0840161261a565b600b80546001600160a01b0319166001600160a01b03929092169190911790556110ef60c0830160a0840161261a565b6001600160a01b031661110860a084016080850161261a565b6001600160a01b03167fbc8bd61e5dd69ff5cb8c389529c029503515ba368eaafbdaa406e072fdd360726111446101c086016101a0870161261a565b61115160e0870187612a98565b60405161116093929190612949565b60405180910390a3801561076d576000805461ff00191690555050565b600b546001600160a01b031633146111a75760405162461bcd60e51b815260040161062390612a2a565b601054600160a81b900460ff16156111d15760405162461bcd60e51b815260040161062390612a02565b6001600160a01b0382166112275760405162461bcd60e51b815260206004820152601e60248201527f546f20616464726573732063616e6e6f742062652030206164647265737300006044820152606401610623565b600a5461076d906001600160a01b0316838361205b565b601054600160a81b900460ff16156112685760405162461bcd60e51b815260040161062390612a02565b601054600160a01b900460ff166112c15760405162461bcd60e51b815260206004820152601b60248201527f4e6f20676f7665726e616e6365206368616e67652061637469766500000000006044820152606401610623565b6010546001600160a01b0316331461131b5760405162461bcd60e51b815260206004820152601860248201527f4e6f742070726f766973696f6e616c20676f7665726e6f7200000000000000006044820152606401610623565b60078054601080546001600160a01b038082166001600160a01b03198516811790955560ff60a01b199091169091556040519116919082907f023588d3d1dcaad34e471c9e01b616b794156174bc693539c8fe15c0bfd5d82690600090a350565b6113846125cb565b60408051808201918290529060059060029082845b81546001600160a01b03168152600190910190602001808311611399575050505050905090565b6008546000906001600160a01b031633146114155760405162461bcd60e51b815260206004820152601560248201527436b9b39739b2b73232b9103737ba1035b2b2b832b960591b6044820152606401610623565b601054600160a81b900460ff161561143f5760405162461bcd60e51b815260040161062390612a02565b6001600160a01b03831661149f5760405162461bcd60e51b815260206004820152602160248201527f52656365697069656e7420616464726573732063616e6e6f74206265206e756c6044820152601b60fa1b6064820152608401610623565b6001546002546114af8183612ae6565b84106114c057600092505050611584565b60405163dc35bc1360e01b8152600481018590526024810183905260448101829052600090819073__$dc3b4b0a367edd91a2d74c73e2da54c142$__9063dc35bc1390606401604080518083038186803b15801561151d57600080fd5b505af4158015611531573d6000803e3d6000fd5b505050506040513d601f19601f820116820180604052508101906115559190612854565b60018290556002819055600a54919350915061157b906001600160a01b0316888861205b565b60019450505050505b92915050565b6007546001600160a01b031633146115b45760405162461bcd60e51b815260040161062390612a61565b601054600160a81b900460ff16156115de5760405162461bcd60e51b815260040161062390612a02565b6001600160a01b03811661163f5760405162461bcd60e51b815260206004820152602260248201527f4b656570657220616464726573732063616e6e6f742062652030206164647265604482015261737360f01b6064820152608401610623565b600880546001600160a01b038381166001600160a01b0319831681179093556040519116919082907f402b3f9a8de3e388e7653c7a5892204fe18b579c8c23db19d6e00f1043ceb92190600090a35050565b600b546001600160a01b031633146116bb5760405162461bcd60e51b815260040161062390612a2a565b601054600160a81b900460ff16156116e55760405162461bcd60e51b815260040161062390612a02565b6001600160a01b0381166117465760405162461bcd60e51b815260206004820152602260248201527f4d696e74657220616464726573732063616e6e6f742062652030206164647265604482015261737360f01b6064820152608401610623565b8215806117535750826001145b61179a5760405162461bcd60e51b8152602060048201526018602482015277506f6f6c3a20746f6b656e206f7574206f662072616e676560401b6044820152606401610623565b600583600281106117ad576117ad612bd9565b01546040516394bf804d60e01b8152600481018490526001600160a01b038381166024830152909116906394bf804d90604401602060405180830381600087803b1580156117fa57600080fd5b505af115801561180e573d6000803e3d6000fd5b505050506040513d601f19601f82011682018060405250810190611832919061269b565b61186c5760405162461bcd60e51b815260206004820152600b60248201526a135a5b9d0819985a5b195960aa1b6044820152606401610623565b505050565b600e5460408051634c6afee560e11b815290516000926001600160a01b0316916398d5fdca916004808301926020929190829003018186803b1580156118b657600080fd5b505afa1580156118ca573d6000803e3d6000fd5b505050506040513d601f19601f820116820180604052508101906118ee91906126e7565b905090565b600b546001600160a01b0316331461191d5760405162461bcd60e51b815260040161062390612a2a565b601054600160a81b900460ff16156119475760405162461bcd60e51b815260040161062390612a02565b6001600160a01b03831661199d5760405162461bcd60e51b815260206004820181905260248201527f46726f6d20616464726573732063616e6e6f74206265203020616464726573736044820152606401610623565b6001600160a01b0382166119f35760405162461bcd60e51b815260206004820152601e60248201527f546f20616464726573732063616e6e6f742062652030206164647265737300006044820152606401610623565b600a5461186c906001600160a01b03168484846120be565b600354600c54600091611a2d9164010000000090910463ffffffff1690612ae6565b421015905090565b6007546001600160a01b03163314611a5f5760405162461bcd60e51b815260040161062390612a61565b6010805460ff60a81b1916600160a81b1790556040517f9e87fac88ff661f02d44f95383c817fece4bce600a3dab7a54406878b965e75290600090a1565b600b546001600160a01b03163314611ac75760405162461bcd60e51b815260040161062390612a2a565b601054600160a81b900460ff1615611af15760405162461bcd60e51b815260040161062390612a02565b6001600160a01b038116611b525760405162461bcd60e51b815260206004820152602260248201527f4275726e657220616464726573732063616e6e6f742062652030206164647265604482015261737360f01b6064820152608401610623565b821580611b5f5750826001145b611ba65760405162461bcd60e51b8152602060048201526018602482015277506f6f6c3a20746f6b656e206f7574206f662072616e676560401b6044820152606401610623565b60058360028110611bb957611bb9612bd9565b0154604051633f34d4cf60e21b8152600481018490526001600160a01b0383811660248301529091169063fcd3533c90604401602060405180830381600087803b158015611c0657600080fd5b505af1158015611c1a573d6000803e3d6000fd5b505050506040513d601f19601f82011682018060405250810190611c3e919061269b565b61186c5760405162461bcd60e51b815260206004820152600b60248201526a109d5c9b8819985a5b195960aa1b6044820152606401610623565b6007546001600160a01b03163314611ca25760405162461bcd60e51b815260040161062390612a61565b601054600160a81b900460ff1615611ccc5760405162461bcd60e51b815260040161062390612a02565b6001600160a01b038116611d225760405162461bcd60e51b815260206004820152601b60248201527f4163636f756e742063616e6e6f742062652030206164647265737300000000006044820152606401610623565b600980546001600160a01b038381166001600160a01b0319831681179093556040519116919082907f11f35a22548bcd4c3788ab4a7e4fba427a2014f02e5d5e2da9af62212c03183f90600090a35050565b6007546001600160a01b03163314611d9e5760405162461bcd60e51b815260040161062390612a61565b601054600160a81b900460ff1615611dc85760405162461bcd60e51b815260040161062390612a02565b6001600160a01b038116611e2d5760405162461bcd60e51b815260206004820152602660248201527f476f7665726e616e636520616464726573732063616e6e6f742062652030206160448201526564647265737360d01b6064820152608401610623565b601080546001600160a81b0319166001600160a01b0380841691909117600160a01b17918290556040519116907f35681f4f23137fb58510a9854f1b6e95f90a2cf0b66d2fce4df74cc0becc82d590600090a250565b600d8054611e9090612b88565b80601f0160208091040260200160405190810160405280929190818152602001828054611ebc90612b88565b8015611f095780601f10611ede57610100808354040283529160200191611f09565b820191906000526020600020905b815481529060010190602001808311611eec57829003601f168201915b505050505081565b6008546001600160a01b03163314611f635760405162461bcd60e51b815260206004820152601560248201527436b9b39739b2b73232b9103737ba1035b2b2b832b960591b6044820152606401610623565b601054600160a81b900460ff1615611f8d5760405162461bcd60e51b815260040161062390612a02565b611f95611a0b565b611fe15760405162461bcd60e51b815260206004820152601d60248201527f55706461746520696e74657276616c206861736e2774207061737365640000006044820152606401610623565b611feb82826120fc565b600b60009054906101000a90046001600160a01b03166001600160a01b0316631c536da46040518163ffffffff1660e01b8152600401600060405180830381600087803b15801561203b57600080fd5b505af115801561204f573d6000803e3d6000fd5b505042600c5550505050565b6040516001600160a01b03831660248201526044810182905261186c90849063a9059cbb60e01b906064015b60408051601f198184030181529190526020810180516001600160e01b03166001600160e01b0319909316929092179091526122fb565b6040516001600160a01b03808516602483015283166044820152606481018290526120f69085906323b872dd60e01b90608401612087565b50505050565b601054600160a81b900460ff16156121265760405162461bcd60e51b815260040161062390612a02565b600082131580612137575060008113155b1561216d57604051819083907f27f70c863f1bd3e335bb4d6bf2a31075c861752f0b21a03b816a356035b1dec690600090a35050565b6001546002546040805160c0810182528581526020810185815281830184815260608301868152600480546001600160801b0319608091821b8116828801908152600354600160401b900490921b811660a088019081529751632920706d60e21b815287519381019390935294516024830152925160448201529051606482015290518216608482015292511660a4830152906000908190819073__$dc3b4b0a367edd91a2d74c73e2da54c142$__9063a481c1b49060c40160606040518083038186803b15801561223e57600080fd5b505af4158015612252573d6000803e3d6000fd5b505050506040513d601f19601f8201168201806040525081019061227691906128ad565b919450925090507f3a4a53e86baa9b577f931e849a3472fd6be844c0916377bc806be891847a5c2b6122a88784612b1d565b6122b28786612b1d565b6040805192835260208301919091520160405180910390a160028390556001829055600954600a546122f1916001600160a01b0391821691168361205b565b5050505050505050565b6000612350826040518060400160405280602081526020017f5361666545524332303a206c6f772d6c6576656c2063616c6c206661696c6564815250856001600160a01b03166123cd9092919063ffffffff16565b80519091501561186c578080602001905181019061236e919061269b565b61186c5760405162461bcd60e51b815260206004820152602a60248201527f5361666545524332303a204552433230206f7065726174696f6e20646964206e6044820152691bdd081cdd58d8d9595960b21b6064820152608401610623565b60606123dc84846000856123e6565b90505b9392505050565b6060824710156124475760405162461bcd60e51b815260206004820152602660248201527f416464726573733a20696e73756666696369656e742062616c616e636520666f6044820152651c8818d85b1b60d21b6064820152608401610623565b843b6124955760405162461bcd60e51b815260206004820152601d60248201527f416464726573733a2063616c6c20746f206e6f6e2d636f6e74726163740000006044820152606401610623565b600080866001600160a01b031685876040516124b1919061292d565b60006040518083038185875af1925050503d80600081146124ee576040519150601f19603f3d011682016040523d82523d6000602084013e6124f3565b606091505b509150915061250382828661250e565b979650505050505050565b6060831561251d5750816123df565b82511561252d5782518084602001fd5b8160405162461bcd60e51b815260040161062391906129ef565b82805461255390612b88565b90600052602060002090601f01602090048101928261257557600085556125bb565b82601f1061258e5782800160ff198235161785556125bb565b828001600101855582156125bb579182015b828111156125bb5782358255916020019190600101906125a0565b506125c79291506125e9565b5090565b60405180604001604052806002906020820280368337509192915050565b5b808211156125c757600081556001016125ea565b80356001600160a01b038116811461261557600080fd5b919050565b60006020828403121561262c57600080fd5b6123df826125fe565b60008060006060848603121561264a57600080fd5b612653846125fe565b9250612661602085016125fe565b9150604084013590509250925092565b6000806040838503121561268457600080fd5b61268d836125fe565b946020939093013593505050565b6000602082840312156126ad57600080fd5b815180151581146123df57600080fd5b6000602082840312156126cf57600080fd5b81516001600160801b0319811681146123df57600080fd5b6000602082840312156126f957600080fd5b5051919050565b6000806040838503121561271357600080fd5b82519150602083015167ffffffffffffffff8082111561273257600080fd5b818501915085601f83011261274657600080fd5b81518181111561275857612758612bef565b604051601f8201601f19908116603f0116810190838211818310171561278057612780612bef565b8160405282815288602084870101111561279957600080fd5b6127aa836020830160208801612b5c565b80955050505050509250929050565b600080604083850312156127cc57600080fd5b50508035926020909101359150565b6000602082840312156127ed57600080fd5b813567ffffffffffffffff81111561280457600080fd5b82016101c081850312156123df57600080fd5b60006020828403121561282957600080fd5b813561ffff811681146123df57600080fd5b60006020828403121561284d57600080fd5b5035919050565b6000806040838503121561286757600080fd5b505080516020909101519092909150565b60008060006060848603121561288d57600080fd5b83359250602084013591506128a4604085016125fe565b90509250925092565b6000806000606084860312156128c257600080fd5b8351925060208401519150604084015190509250925092565b6000602082840312156128ed57600080fd5b813563ffffffff811681146123df57600080fd5b60008151808452612919816020860160208601612b5c565b601f01601f19169290920160200192915050565b6000825161293f818460208701612b5c565b9190910192915050565b6001600160a01b03841681526040602082018190528101829052818360608301376000818301606090810191909152601f909201601f1916010192915050565b60408101818360005b60028110156129ba5781516001600160a01b0316835260209283019290910190600101612992565b50505092915050565b8481526080602082015260006129dc6080830186612901565b6040830194909452506060015292915050565b6020815260006123df6020830184612901565b6020808252600e908201526d141bdbdb081a5cc81c185d5cd95960921b604082015260600190565b6020808252601c908201527f6d73672e73656e646572206e6f7420706f6f6c436f6d6d697474657200000000604082015260600190565b60208082526019908201527f6d73672e73656e646572206e6f7420676f7665726e616e636500000000000000604082015260600190565b6000808335601e19843603018112612aaf57600080fd5b83018035915067ffffffffffffffff821115612aca57600080fd5b602001915036819003821315612adf57600080fd5b9250929050565b60008219821115612af957612af9612bc3565b500190565b6000816000190483118215151615612b1857612b18612bc3565b500290565b60008083128015600160ff1b850184121615612b3b57612b3b612bc3565b6001600160ff1b0384018313811615612b5657612b56612bc3565b50500390565b60005b83811015612b77578181015183820152602001612b5f565b838111156120f65750506000910152565b600181811c90821680612b9c57607f821691505b60208210811415612bbd57634e487b7160e01b600052602260045260246000fd5b50919050565b634e487b7160e01b600052601160045260246000fd5b634e487b7160e01b600052603260045260246000fd5b634e487b7160e01b600052604160045260246000fdfea26469706673582212206ca4d81db1ecc41390057f6e549ccb6245d40b949e556f91555ccabbb1538d6c64736f6c63430008070033",
  "linkReferences": {
    "contracts/implementation/PoolSwapLibrary.sol": {
      "PoolSwapLibrary": [
        {
          "length": 20,
          "start": 3777
        },
        {
          "length": 20,
          "start": 3939
        },
        {
          "length": 20,
          "start": 5385
        },
        {
          "length": 20,
          "start": 8745
        }
      ]
    }
  },
  "deployedLinkReferences": {
    "contracts/implementation/PoolSwapLibrary.sol": {
      "PoolSwapLibrary": [
        {
          "length": 20,
          "start": 3745
        },
        {
          "length": 20,
          "start": 3907
        },
        {
          "length": 20,
          "start": 5353
        },
        {
          "length": 20,
          "start": 8713
        }
      ]
    }
  }
}