{
    "address": "0x19bc6254692E39eF5B4B1Faf4D762b93a60d6668",
    "abi": [
        {
            "inputs": [
                {
                    "internalType": "address",
                    "name": "_poolFactoryAddress",
                    "type": "address"
                }
            ],
            "stateMutability": "nonpayable",
            "type": "constructor"
        },
        {
            "anonymous": false,
            "inputs": [
                {
                    "indexed": true,
                    "internalType": "address",
                    "name": "user",
                    "type": "address"
                },
                {
                    "indexed": true,
                    "internalType": "address",
                    "name": "poolCommitter",
                    "type": "address"
                },
                {
                    "indexed": true,
                    "internalType": "uint256",
                    "name": "updateIntervalId",
                    "type": "uint256"
                },
                {
                    "indexed": false,
                    "internalType": "uint256",
                    "name": "reward",
                    "type": "uint256"
                }
            ],
            "name": "PaidClaimRequest",
            "type": "event"
        },
        {
            "anonymous": false,
            "inputs": [
                {
                    "indexed": true,
                    "internalType": "address",
                    "name": "user",
                    "type": "address"
                },
                {
                    "indexed": true,
                    "internalType": "address",
                    "name": "poolCommitter",
                    "type": "address"
                },
                {
                    "indexed": true,
                    "internalType": "uint256",
                    "name": "newReward",
                    "type": "uint256"
                }
            ],
            "name": "PaidClaimRequestUpdate",
            "type": "event"
        },
        {
            "anonymous": false,
            "inputs": [
                {
                    "indexed": false,
                    "internalType": "address",
                    "name": "user",
                    "type": "address"
                },
                {
                    "indexed": false,
                    "internalType": "address",
                    "name": "poolCommitter",
                    "type": "address"
                },
                {
                    "indexed": false,
                    "internalType": "uint256",
                    "name": "reward",
                    "type": "uint256"
                }
            ],
            "name": "PaidRequestExecution",
            "type": "event"
        },
        {
            "anonymous": false,
            "inputs": [
                {
                    "indexed": false,
                    "internalType": "address",
                    "name": "user",
                    "type": "address"
                },
                {
                    "indexed": false,
                    "internalType": "address",
                    "name": "poolCommitter",
                    "type": "address"
                }
            ],
            "name": "RequestWithdrawn",
            "type": "event"
        },
        {
            "inputs": [
                {
                    "components": [
                        {
                            "internalType": "uint128",
                            "name": "updateIntervalId",
                            "type": "uint128"
                        },
                        {
                            "internalType": "uint256",
                            "name": "reward",
                            "type": "uint256"
                        }
                    ],
                    "internalType": "struct IAutoClaim.ClaimRequest",
                    "name": "request",
                    "type": "tuple"
                },
                {
                    "internalType": "uint256",
                    "name": "currentUpdateIntervalId",
                    "type": "uint256"
                }
            ],
            "name": "checkClaim",
            "outputs": [
                {
                    "internalType": "bool",
                    "name": "",
                    "type": "bool"
                }
            ],
            "stateMutability": "pure",
            "type": "function"
        },
        {
            "inputs": [
                {
                    "internalType": "address",
                    "name": "user",
                    "type": "address"
                },
                {
                    "internalType": "address",
                    "name": "poolCommitter",
                    "type": "address"
                }
            ],
            "name": "checkUserClaim",
            "outputs": [
                {
                    "internalType": "bool",
                    "name": "",
                    "type": "bool"
                }
            ],
            "stateMutability": "view",
            "type": "function"
        },
        {
            "inputs": [
                {
                    "internalType": "address",
                    "name": "",
                    "type": "address"
                },
                {
                    "internalType": "address",
                    "name": "",
                    "type": "address"
                }
            ],
            "name": "claimRequests",
            "outputs": [
                {
                    "internalType": "uint128",
                    "name": "updateIntervalId",
                    "type": "uint128"
                },
                {
                    "internalType": "uint256",
                    "name": "reward",
                    "type": "uint256"
                }
            ],
            "stateMutability": "view",
            "type": "function"
        },
        {
            "inputs": [
                {
                    "internalType": "address",
                    "name": "_poolFactoryAddress",
                    "type": "address"
                }
            ],
            "name": "initialize",
            "outputs": [],
            "stateMutability": "nonpayable",
            "type": "function"
        },
        {
            "inputs": [
                {
                    "internalType": "address",
                    "name": "user",
                    "type": "address"
                }
            ],
            "name": "makePaidClaimRequest",
            "outputs": [],
            "stateMutability": "payable",
            "type": "function"
        },
        {
            "inputs": [
                {
                    "internalType": "address[]",
                    "name": "users",
                    "type": "address[]"
                },
                {
                    "internalType": "address[]",
                    "name": "poolCommitterAddresses",
                    "type": "address[]"
                }
            ],
            "name": "multiPaidClaimMultiplePoolCommitters",
            "outputs": [],
            "stateMutability": "nonpayable",
            "type": "function"
        },
        {
            "inputs": [
                {
                    "internalType": "address[]",
                    "name": "users",
                    "type": "address[]"
                },
                {
                    "internalType": "address",
                    "name": "poolCommitterAddress",
                    "type": "address"
                }
            ],
            "name": "multiPaidClaimSinglePoolCommitter",
            "outputs": [],
            "stateMutability": "nonpayable",
            "type": "function"
        },
        {
            "inputs": [
                {
                    "internalType": "address",
                    "name": "user",
                    "type": "address"
                },
                {
                    "internalType": "address",
                    "name": "poolCommitterAddress",
                    "type": "address"
                }
            ],
            "name": "paidClaim",
            "outputs": [],
            "stateMutability": "nonpayable",
            "type": "function"
        },
        {
            "inputs": [
                {
                    "internalType": "address",
                    "name": "poolCommitter",
                    "type": "address"
                }
            ],
            "name": "withdrawClaimRequest",
            "outputs": [],
            "stateMutability": "nonpayable",
            "type": "function"
        },
        {
            "inputs": [
                {
                    "internalType": "address",
                    "name": "user",
                    "type": "address"
                }
            ],
            "name": "withdrawUserClaimRequest",
            "outputs": [],
            "stateMutability": "nonpayable",
            "type": "function"
        }
    ],
    "transactionHash": "0x83308f36aed71e3c8d98dcc96530b16fff678fa18e0b86e89649994ddd0f46c0",
    "args": [
        "0x3c08BE365e91272db6CaD4F204B1C7ccBd7640DA"
    ],
    "solcInputHash": "2618b71259c48e264b944568d24817df",
    "bytecode": "0x608060405234801561001057600080fd5b506040516110ca3803806110ca83398101604081905261002f916100ae565b6001600160a01b0381166100895760405162461bcd60e51b815260206004820152601860248201527f506f6f6c466163746f72792061646472657373203d3d20300000000000000000604482015260640160405180910390fd5b600280546001600160a01b0319166001600160a01b03929092169190911790556100de565b6000602082840312156100c057600080fd5b81516001600160a01b03811681146100d757600080fd5b9392505050565b610fdd806100ed6000396000f3fe6080604052600436106100915760003560e01c80638d68dd61116100595780638d68dd611461014d5780639b42f47e146101b4578063c4d66de8146101c7578063c76ac728146101e7578063f009fc081461020757600080fd5b806307119aeb14610096578063351ea38a146100b85780634c830642146100ed57806384de06e41461010d578063883e9e481461012d575b600080fd5b3480156100a257600080fd5b506100b66100b1366004610d29565b610227565b005b3480156100c457600080fd5b506100d86100d3366004610e59565b61034a565b60405190151581526020015b60405180910390f35b3480156100f957600080fd5b506100b6610108366004610d29565b610376565b34801561011957600080fd5b506100b6610128366004610d77565b610468565b34801561013957600080fd5b506100d8610148366004610d44565b6104bb565b34801561015957600080fd5b50610195610168366004610d44565b6001602081815260009384526040808520909152918352912080549101546001600160801b039091169082565b604080516001600160801b0390931683526020830191909152016100e4565b6100b66101c2366004610d29565b61057b565b3480156101d357600080fd5b506100b66101e2366004610d29565b6108f1565b3480156101f357600080fd5b506100b6610202366004610d44565b610a16565b34801561021357600080fd5b506100b6610222366004610dcb565b610bf8565b6002546040516359e86a9960e01b81523360048201526001600160a01b03909116906359e86a999060240160206040518083038186803b15801561026a57600080fd5b505afa15801561027e573d6000803e3d6000fd5b505050506040513d601f19601f820116820180604052508101906102a29190610e37565b6102c75760405162461bcd60e51b81526004016102be90610ef1565b60405180910390fd5b6001600160a01b038116600081815260016020818152604080842033855290915280832090910154905181156108fc0292818181858888f19350505050158015610315573d6000803e3d6000fd5b506001600160a01b03166000908152600160208181526040808420338552909152822080546001600160801b03191681550155565b81516000906001600160801b03161580159061036f575082516001600160801b031682115b9392505050565b3360009081526001602090815260408083206001600160a01b03851684529091529020546001600160801b031615610465573360008181526001602081815260408084206001600160a01b038716855290915280832090910154905181156108fc0292818181858888f193505050501580156103f6573d6000803e3d6000fd5b503360008181526001602081815260408084206001600160a01b03871680865290835281852080546001600160801b03191681559093019390935582519384528301527fbeb52c9358dfd474b9e79cc7bb7c88a2079664f938ff899c7a54bbaa5e54b08a910160405180910390a15b50565b60005b828110156104b5576104a384848381811061048857610488610f7c565b905060200201602081019061049d9190610d29565b83610a16565b806104ad81610f4b565b91505061046b565b50505050565b6001600160a01b0380831660009081526001602081815260408084209486168085529482528084208151808301835281546001600160801b03168152930154838301528051634e81899760e11b81529051939461036f949092639d03132e9260048082019391829003018186803b15801561053557600080fd5b505afa158015610549573d6000803e3d6000fd5b505050506040513d601f19601f8201168201806040525081019061056d9190610ed4565b6001600160801b031661034a565b6002546040516359e86a9960e01b81523360048201526001600160a01b03909116906359e86a999060240160206040518083038186803b1580156105be57600080fd5b505afa1580156105d2573d6000803e3d6000fd5b505050506040513d601f19601f820116820180604052508101906105f69190610e37565b6106125760405162461bcd60e51b81526004016102be90610ef1565b6001600160a01b038116600090815260016020908152604080832033808552925290912080549091906001600160801b0316801561080b57816001600160a01b0316639d03132e6040518163ffffffff1660e01b815260040160206040518083038186803b15801561068357600080fd5b505afa158015610697573d6000803e3d6000fd5b505050506040513d601f19601f820116820180604052508101906106bb9190610ed4565b6001600160801b0316816001600160801b031610156107b4576001600160a01b038416600081815260016020818152604080842033855290915280832090910154905181156108fc0292818181858888f19350505050158015610722573d6000803e3d6000fd5b506001600160a01b03848116600081815260016020818152604080842033855290915280832080546001600160801b03191681559091019190915551630f41a04d60e11b8152600481019190915290831690631e83409a90602401600060405180830381600087803b15801561079757600080fd5b505af11580156107ab573d6000803e3d6000fd5b5050505061080b565b348360010160008282546107c89190610f33565b9091555050604051349033906001600160a01b038716907f1b0cd6fbb8d6f8911969df04996d8d67f926c059c09a2df27305bb1b36b5917c90600090a450505050565b816001600160a01b031663d4c4e2836040518163ffffffff1660e01b815260040160206040518083038186803b15801561084457600080fd5b505afa158015610858573d6000803e3d6000fd5b505050506040513d601f19601f8201168201806040525081019061087c9190610ed4565b6001600160a01b038516600081815260016020818152604080842033808652925280842080546001600160801b0319166001600160801b0388161781553493018390555194955090939092917f1b0cd6fbb8d6f8911969df04996d8d67f926c059c09a2df27305bb1b36b5917c91a450505050565b600054610100900460ff168061090a575060005460ff16155b61096d5760405162461bcd60e51b815260206004820152602e60248201527f496e697469616c697a61626c653a20636f6e747261637420697320616c72656160448201526d191e481a5b9a5d1a585b1a5e995960921b60648201526084016102be565b600054610100900460ff1615801561098f576000805461ffff19166101011790555b6001600160a01b0382166109e55760405162461bcd60e51b815260206004820152601860248201527f506f6f6c466163746f72792061646472657373203d3d2030000000000000000060448201526064016102be565b600280546001600160a01b0319166001600160a01b0384161790558015610a12576000805461ff00191690555b5050565b6001600160a01b0380831660009081526001602081815260408084209486168085529482528084208151808301835281546001600160801b03168152930154838301528051634e81899760e11b8152905192948694939092639d03132e9260048082019391829003018186803b158015610a8f57600080fd5b505afa158015610aa3573d6000803e3d6000fd5b505050506040513d601f19601f82011682018060405250810190610ac79190610ed4565b6001600160801b03169050610adc838261034a565b15610bf1576020830151604051339180156108fc02916000818181858888f19350505050158015610b11573d6000803e3d6000fd5b506001600160a01b0385811660008181526001602081815260408084208a8716855290915280832080546001600160801b03191681559091019190915551630f41a04d60e11b8152600481019190915290831690631e83409a90602401600060405180830381600087803b158015610b8857600080fd5b505af1158015610b9c573d6000803e3d6000fd5b505050602080850151604080516001600160a01b03808b1682528916938101939093528201527ffc1ef6f920271c53bdf1b6aa6a98b1cd7baa573c736975d7eb1f85b2f0c3d7f3915060600160405180910390a15b5050505050565b828114610c535760405162461bcd60e51b815260206004820152602360248201527f537570706c69656420617272617973206d7573742062652073616d65206c656e6044820152620cee8d60eb1b60648201526084016102be565b60005b83811015610bf157610caf858583818110610c7357610c73610f7c565b9050602002016020810190610c889190610d29565b848484818110610c9a57610c9a610f7c565b90506020020160208101906102029190610d29565b80610cb981610f4b565b915050610c56565b80356001600160a01b0381168114610cd857600080fd5b919050565b60008083601f840112610cef57600080fd5b50813567ffffffffffffffff811115610d0757600080fd5b6020830191508360208260051b8501011115610d2257600080fd5b9250929050565b600060208284031215610d3b57600080fd5b61036f82610cc1565b60008060408385031215610d5757600080fd5b610d6083610cc1565b9150610d6e60208401610cc1565b90509250929050565b600080600060408486031215610d8c57600080fd5b833567ffffffffffffffff811115610da357600080fd5b610daf86828701610cdd565b9094509250610dc2905060208501610cc1565b90509250925092565b60008060008060408587031215610de157600080fd5b843567ffffffffffffffff80821115610df957600080fd5b610e0588838901610cdd565b90965094506020870135915080821115610e1e57600080fd5b50610e2b87828801610cdd565b95989497509550505050565b600060208284031215610e4957600080fd5b8151801515811461036f57600080fd5b6000808284036060811215610e6d57600080fd5b6040811215610e7b57600080fd5b506040516040810181811067ffffffffffffffff82111715610ead57634e487b7160e01b600052604160045260246000fd5b6040528335610ebb81610f92565b8152602084810135908201529460409093013593505050565b600060208284031215610ee657600080fd5b815161036f81610f92565b60208082526022908201527f6d73672e73656e646572206e6f742076616c696420506f6f6c436f6d6d69747460408201526132b960f11b606082015260800190565b60008219821115610f4657610f46610f66565b500190565b6000600019821415610f5f57610f5f610f66565b5060010190565b634e487b7160e01b600052601160045260246000fd5b634e487b7160e01b600052603260045260246000fd5b6001600160801b038116811461046557600080fdfea2646970667358221220aa71f38d53418489248369635edc1866a09fe38f95714733c9069c1938f835fe64736f6c63430008070033",
    "devdoc": {
        "details": "A question I had to ask was \"What happens if one requests a second claim before one's pending request from a previous update interval one gets executed on?\".      My solution to this was to have the committer instantly claim for themself. They have signified their desire to claim their tokens, after all.",
        "kind": "dev",
        "methods": {
            "checkClaim((uint128,uint256),uint256)": {
                "details": "A claim request can be executed only if one exists and is from an update interval that has passed.",
                "params": {
                    "currentUpdateIntervalId": "The current update interval. Used to compare to the update interval of the ClaimRequest.",
                    "request": "The ClaimRequest object to be checked."
                },
                "returns": {
                    "_0": "true if the given claim request can be executed."
                }
            },
            "checkUserClaim(address,address)": {
                "params": {
                    "poolCommitter": "The pool committer in which to look for a user's claim request.",
                    "user": "The user whose claim request will be checked."
                },
                "returns": {
                    "_0": "true if the claim request can be executed."
                }
            },
            "makePaidClaimRequest(address)": {
                "details": "Only callable by this contract's associated PoolCommitter instance. This prevents griefing. Consider a permissionless function, where a user can claim that somebody else wants to auto claim when they do not.",
                "params": {
                    "user": "The user who wants to autoclaim."
                }
            },
            "multiPaidClaimMultiplePoolCommitters(address[],address[])": {
                "details": "The nth index in poolCommitterAddresses should be the PoolCommitter where the nth address in user requested an auto claim.",
                "params": {
                    "poolCommitterAddresses": "The PoolCommitter addresses within which you would like to claim for the respective user.",
                    "users": "All users to execute claims for."
                }
            },
            "multiPaidClaimSinglePoolCommitter(address[],address)": {
                "details": "The nth index in poolCommitterAddresses should be the PoolCommitter where the nth address in user requested an auto claim",
                "params": {
                    "poolCommitterAddress": "The PoolCommitter address within which you would like to claim for the respective user",
                    "users": "All users to execute claims for."
                }
            },
            "paidClaim(address,address)": {
                "params": {
                    "poolCommitterAddress": "The PoolCommitter address within which the user's claim will be executed",
                    "user": "The user who requested an autoclaim."
                }
            },
            "withdrawClaimRequest(address)": {
                "details": "Emits a `RequestWithdrawn` event on success",
                "params": {
                    "poolCommitter": "The PoolCommitter for which the user's commit claim is to be withdrawn."
                }
            },
            "withdrawUserClaimRequest(address)": {
                "details": "Only callable by the associated `PoolCommitter` contract",
                "params": {
                    "user": "The user who will have their claim request withdrawn."
                }
            }
        },
        "title": "The contract to be used for paying to have a keeper claim your commit automatically",
        "version": 1
    },
    "userdoc": {
        "events": {
            "PaidClaimRequest(address,address,uint256,uint256)": {
                "notice": "Creates a notification when an auto-claim is requested"
            },
            "PaidClaimRequestUpdate(address,address,uint256)": {
                "notice": "Creates a notification when an auto-claim request is updated. i.e. When another commit is added and reward is incremented."
            },
            "PaidRequestExecution(address,address,uint256)": {
                "notice": "Creates a notification when an auto-claim request is executed"
            },
            "RequestWithdrawn(address,address)": {
                "notice": "Creates a notification when an auto-claim request is withdrawn"
            }
        },
        "kind": "user",
        "methods": {
            "checkUserClaim(address,address)": {
                "notice": "Check the validity of a user's claim request for a given pool committer."
            },
            "makePaidClaimRequest(address)": {
                "notice": "Pay for your commit to be claimed. This means that a willing participant can claim on `user`'s behalf when the current update interval ends."
            },
            "multiPaidClaimMultiplePoolCommitters(address[],address[])": {
                "notice": "Call `paidClaim` for multiple users, across multiple PoolCommitters."
            },
            "multiPaidClaimSinglePoolCommitter(address[],address)": {
                "notice": "Call `paidClaim` for multiple users, in a single PoolCommitter."
            },
            "paidClaim(address,address)": {
                "notice": "Claim on the behalf of a user who has requests to have their commit automatically claimed by a keeper."
            },
            "withdrawClaimRequest(address)": {
                "notice": "If a user's claim request never gets executed (due to not high enough of a reward), or they change their minds, enable them to withdraw their request."
            },
            "withdrawUserClaimRequest(address)": {
                "notice": "When the user claims themself through poolCommitter, you want the"
            }
        },
        "notice": "The way this works is when a user commits with `PoolCommitter::commit`, they have the option to set the `bool payForClaim` parameter to `true`.         During this function execution, `AutoClaim::payForClaim` is called, and `msg.value` is taken as the reward to whoever claims for requester (by using `AutoClaim::paidClaim`).",
        "version": 1
    },
    "storageLayout": {
        "storage": [
            {
                "astId": 292,
                "contract": "contracts/implementation/AutoClaim.sol:AutoClaim",
                "label": "_initialized",
                "offset": 0,
                "slot": "0",
                "type": "t_bool"
            },
            {
                "astId": 295,
                "contract": "contracts/implementation/AutoClaim.sol:AutoClaim",
                "label": "_initializing",
                "offset": 1,
                "slot": "0",
                "type": "t_bool"
            },
            {
                "astId": 6936,
                "contract": "contracts/implementation/AutoClaim.sol:AutoClaim",
                "label": "claimRequests",
                "offset": 0,
                "slot": "1",
                "type": "t_mapping(t_address,t_mapping(t_address,t_struct(ClaimRequest)14192_storage))"
            },
            {
                "astId": 6939,
                "contract": "contracts/implementation/AutoClaim.sol:AutoClaim",
                "label": "poolFactory",
                "offset": 0,
                "slot": "2",
                "type": "t_contract(IPoolFactory)14937"
            }
        ],
        "types": {
            "t_address": {
                "encoding": "inplace",
                "label": "address",
                "numberOfBytes": "20"
            },
            "t_bool": {
                "encoding": "inplace",
                "label": "bool",
                "numberOfBytes": "1"
            },
            "t_contract(IPoolFactory)14937": {
                "encoding": "inplace",
                "label": "contract IPoolFactory",
                "numberOfBytes": "20"
            },
            "t_mapping(t_address,t_mapping(t_address,t_struct(ClaimRequest)14192_storage))": {
                "encoding": "mapping",
                "key": "t_address",
                "label": "mapping(address => mapping(address => struct IAutoClaim.ClaimRequest))",
                "numberOfBytes": "32",
                "value": "t_mapping(t_address,t_struct(ClaimRequest)14192_storage)"
            },
            "t_mapping(t_address,t_struct(ClaimRequest)14192_storage)": {
                "encoding": "mapping",
                "key": "t_address",
                "label": "mapping(address => struct IAutoClaim.ClaimRequest)",
                "numberOfBytes": "32",
                "value": "t_struct(ClaimRequest)14192_storage"
            },
            "t_struct(ClaimRequest)14192_storage": {
                "encoding": "inplace",
                "label": "struct IAutoClaim.ClaimRequest",
                "members": [
                    {
                        "astId": 14189,
                        "contract": "contracts/implementation/AutoClaim.sol:AutoClaim",
                        "label": "updateIntervalId",
                        "offset": 0,
                        "slot": "0",
                        "type": "t_uint128"
                    },
                    {
                        "astId": 14191,
                        "contract": "contracts/implementation/AutoClaim.sol:AutoClaim",
                        "label": "reward",
                        "offset": 0,
                        "slot": "1",
                        "type": "t_uint256"
                    }
                ],
                "numberOfBytes": "64"
            },
            "t_uint128": {
                "encoding": "inplace",
                "label": "uint128",
                "numberOfBytes": "16"
            },
            "t_uint256": {
                "encoding": "inplace",
                "label": "uint256",
                "numberOfBytes": "32"
            }
        }
    }
}