{
    "address": "0xAA60658C1E075327908e591C518e38264769c01F",
    "abi": [
        {
            "inputs": [
                {
                    "internalType": "address",
                    "name": "_oracle",
                    "type": "address"
                },
                {
                    "internalType": "address",
                    "name": "_deployer",
                    "type": "address"
                }
            ],
            "stateMutability": "nonpayable",
            "type": "constructor"
        },
        {
            "inputs": [],
            "name": "deployer",
            "outputs": [
                {
                    "internalType": "address",
                    "name": "",
                    "type": "address"
                }
            ],
            "stateMutability": "view",
            "type": "function"
        },
        {
            "inputs": [
                {
                    "internalType": "int256",
                    "name": "wad",
                    "type": "int256"
                }
            ],
            "name": "fromWad",
            "outputs": [
                {
                    "internalType": "int256",
                    "name": "",
                    "type": "int256"
                }
            ],
            "stateMutability": "view",
            "type": "function"
        },
        {
            "inputs": [],
            "name": "getPrice",
            "outputs": [
                {
                    "internalType": "int256",
                    "name": "_price",
                    "type": "int256"
                }
            ],
            "stateMutability": "view",
            "type": "function"
        },
        {
            "inputs": [],
            "name": "getPriceAndMetadata",
            "outputs": [
                {
                    "internalType": "int256",
                    "name": "_price",
                    "type": "int256"
                },
                {
                    "internalType": "bytes",
                    "name": "_data",
                    "type": "bytes"
                }
            ],
            "stateMutability": "view",
            "type": "function"
        },
        {
            "inputs": [],
            "name": "oracle",
            "outputs": [
                {
                    "internalType": "address",
                    "name": "",
                    "type": "address"
                }
            ],
            "stateMutability": "view",
            "type": "function"
        },
        {
            "inputs": [],
            "name": "poll",
            "outputs": [
                {
                    "internalType": "int256",
                    "name": "",
                    "type": "int256"
                }
            ],
            "stateMutability": "view",
            "type": "function"
        },
        {
            "inputs": [],
            "name": "scaler",
            "outputs": [
                {
                    "internalType": "int256",
                    "name": "",
                    "type": "int256"
                }
            ],
            "stateMutability": "view",
            "type": "function"
        }
    ],
    "transactionHash": "0x398c4c708fa6d65bce19e30da4c9339d0be6b7ba3cfcd690735f076a01fe780f",
    "args": [
        "0x0c9973e7a27d00e656B9f153348dA46CaD70d03d",
        "0xfb59B91646cd0890F3E5343384FEb746989B66C7"
    ],
    "solcInputHash": "2618b71259c48e264b944568d24817df",
    "bytecode": "0x60a060405234801561001057600080fd5b5060405161071f38038061071f83398101604081905261002f916101ad565b6001600160a01b03821661008a5760405162461bcd60e51b815260206004820152601a60248201527f4f7261636c652063616e6e6f742062652030206164647265737300000000000060448201526064015b60405180910390fd5b600080546001600160a01b0319166001600160a01b0384169081178255606083901b6001600160601b0319166080526040805163313ce56760e01b8152905163313ce56791600480820192602092909190829003018186803b1580156100ef57600080fd5b505afa158015610103573d6000803e3d6000fd5b505050506040513d601f19601f8201168201806040525081019061012791906101e0565b905060128160ff16111561017d5760405162461bcd60e51b815260206004820152601660248201527f434f413a20746f6f206d616e7920646563696d616c73000000000000000000006044820152606401610081565b60ff16601203600a0a6001555061020a9050565b80516001600160a01b03811681146101a857600080fd5b919050565b600080604083850312156101c057600080fd5b6101c983610191565b91506101d760208401610191565b90509250929050565b6000602082840312156101f257600080fd5b815160ff8116811461020357600080fd5b9392505050565b60805160601c6104f8610227600039600060f101526104f86000f3fe608060405234801561001057600080fd5b506004361061007d5760003560e01c806398d5fdca1161005b57806398d5fdca146100dc578063a1175279146100e4578063d5f39488146100ec578063db6d8fcf1461011357600080fd5b80633c1e6ff514610082578063412ad1cc1461009e5780637dc0d1d0146100b1575b600080fd5b61008b60015481565b6040519081526020015b60405180910390f35b61008b6100ac366004610325565b610129565b6000546100c4906001600160a01b031681565b6040516001600160a01b039091168152602001610095565b61008b61013f565b61008b61014f565b6100c47f000000000000000000000000000000000000000000000000000000000000000081565b61011b610161565b60405161009592919061038e565b60006001548261013991906103eb565b92915050565b60006101496101a5565b50919050565b60008061015a6101a5565b5092915050565b600060606000806101706101a5565b6040805160b09290921b6001600160b01b03191660208301528051600a818403018152602a9092019052909590945092505050565b60008060008060008060008054906101000a90046001600160a01b03166001600160a01b031663feaf968c6040518163ffffffff1660e01b815260040160a06040518083038186803b1580156101fa57600080fd5b505afa15801561020e573d6000803e3d6000fd5b505050506040513d601f19601f82011682018060405250810190610232919061033e565b9450945050935093508369ffffffffffffffffffff168169ffffffffffffffffffff16101561029c5760405162461bcd60e51b815260206004820152601160248201527021a7a09d1029ba30b6329030b739bbb2b960791b60448201526064015b60405180910390fd5b816102e15760405162461bcd60e51b8152602060048201526015602482015274434f413a20526f756e6420696e636f6d706c65746560581b6044820152606401610293565b6102ea836102f6565b96939550929350505050565b6000600154826101399190610427565b805169ffffffffffffffffffff8116811461032057600080fd5b919050565b60006020828403121561033757600080fd5b5035919050565b600080600080600060a0868803121561035657600080fd5b61035f86610306565b945060208601519350604086015192506060860151915061038260808701610306565b90509295509295909350565b82815260006020604081840152835180604085015260005b818110156103c2578581018301518582016060015282016103a6565b818111156103d4576000606083870101525b50601f01601f191692909201606001949350505050565b60008261040857634e487b7160e01b600052601260045260246000fd5b600160ff1b821460001984141615610422576104226104ac565b500590565b60006001600160ff1b038184138284138082168684048611161561044d5761044d6104ac565b600160ff1b600087128281168783058912161561046c5761046c6104ac565b60008712925087820587128484161615610488576104886104ac565b8785058712818416161561049e5761049e6104ac565b505050929093029392505050565b634e487b7160e01b600052601160045260246000fdfea2646970667358221220c4e5737185b3af47d6ed7514d2e3b87e66abc91b1d03bd3c849c02aca6aecdfe64736f6c63430008070033",
    "devdoc": {
        "kind": "dev",
        "methods": {
            "getPriceAndMetadata()": {
                "returns": {
                    "_data": "The metadata. Implementations can choose what data to return here. This implementation returns the roundID",
                    "_price": "The latest round data price"
                }
            },
            "poll()": {
                "details": "Spot oracles must implement but it will be a no-op"
            }
        },
        "title": "The oracle management contract for chainlink V3 oracles",
        "version": 1
    },
    "userdoc": {
        "kind": "user",
        "methods": {
            "fromWad(int256)": {
                "notice": "Converts from a WAD value to a raw value based on the decimals in the feed"
            },
            "getPrice()": {
                "notice": "Returns the oracle price in WAD format"
            },
            "oracle()": {
                "notice": "The address of the feed oracle"
            },
            "poll()": {
                "notice": "Updates the underlying oracle state and returns the new price"
            }
        },
        "version": 1
    },
    "storageLayout": {
        "storage": [
            {
                "astId": 7406,
                "contract": "contracts/implementation/ChainlinkOracleWrapper.sol:ChainlinkOracleWrapper",
                "label": "oracle",
                "offset": 0,
                "slot": "0",
                "type": "t_address"
            },
            {
                "astId": 7414,
                "contract": "contracts/implementation/ChainlinkOracleWrapper.sol:ChainlinkOracleWrapper",
                "label": "scaler",
                "offset": 0,
                "slot": "1",
                "type": "t_int256"
            }
        ],
        "types": {
            "t_address": {
                "encoding": "inplace",
                "label": "address",
                "numberOfBytes": "20"
            },
            "t_int256": {
                "encoding": "inplace",
                "label": "int256",
                "numberOfBytes": "32"
            }
        }
    }
}