{
  "address": "0x1a2f815A9ab337270305B941Fa8eCc0B1E58081B",
  "abi": [
    {
      "inputs": [
        {
          "internalType": "address",
          "name": "_feeReceiver",
          "type": "address"
        },
        {
          "internalType": "address",
          "name": "_governance",
          "type": "address"
        }
      ],
      "stateMutability": "nonpayable",
      "type": "constructor"
    },
    {
      "anonymous": false,
      "inputs": [
        {
          "indexed": true,
          "internalType": "address",
          "name": "autoClaim",
          "type": "address"
        }
      ],
      "name": "AutoClaimChanged",
      "type": "event"
    },
    {
      "anonymous": false,
      "inputs": [
        {
          "indexed": false,
          "internalType": "address",
          "name": "poolCommitterAddress",
          "type": "address"
        },
        {
          "indexed": false,
          "internalType": "address",
          "name": "settlementToken",
          "type": "address"
        },
        {
          "indexed": false,
          "internalType": "address",
          "name": "pool",
          "type": "address"
        },
        {
          "indexed": false,
          "internalType": "uint256",
          "name": "changeInterval",
          "type": "uint256"
        },
        {
          "indexed": false,
          "internalType": "address",
          "name": "feeController",
          "type": "address"
        }
      ],
      "name": "DeployCommitter",
      "type": "event"
    },
    {
      "anonymous": false,
      "inputs": [
        {
          "indexed": true,
          "internalType": "address",
          "name": "pool",
          "type": "address"
        },
        {
          "indexed": false,
          "internalType": "address",
          "name": "poolCommitter",
          "type": "address"
        },
        {
          "indexed": false,
          "internalType": "string",
          "name": "ticker",
          "type": "string"
        }
      ],
      "name": "DeployPool",
      "type": "event"
    },
    {
      "anonymous": false,
      "inputs": [
        {
          "indexed": true,
          "internalType": "uint256",
          "name": "fee",
          "type": "uint256"
        }
      ],
      "name": "FeeChanged",
      "type": "event"
    },
    {
      "anonymous": false,
      "inputs": [
        {
          "indexed": true,
          "internalType": "address",
          "name": "receiver",
          "type": "address"
        }
      ],
      "name": "FeeReceiverChanged",
      "type": "event"
    },
    {
      "anonymous": false,
      "inputs": [
        {
          "indexed": true,
          "internalType": "address",
          "name": "oldAddress",
          "type": "address"
        },
        {
          "indexed": true,
          "internalType": "address",
          "name": "newAddress",
          "type": "address"
        }
      ],
      "name": "GovernanceAddressChanged",
      "type": "event"
    },
    {
      "anonymous": false,
      "inputs": [
        {
          "indexed": true,
          "internalType": "address",
          "name": "invariantCheck",
          "type": "address"
        }
      ],
      "name": "InvariantCheckChanged",
      "type": "event"
    },
    {
      "anonymous": false,
      "inputs": [
        {
          "indexed": true,
          "internalType": "uint256",
          "name": "leverage",
          "type": "uint256"
        }
      ],
      "name": "MaxLeverageChanged",
      "type": "event"
    },
    {
      "anonymous": false,
      "inputs": [
        {
          "indexed": true,
          "internalType": "uint256",
          "name": "mint",
          "type": "uint256"
        },
        {
          "indexed": true,
          "internalType": "uint256",
          "name": "burn",
          "type": "uint256"
        }
      ],
      "name": "MintAndBurnFeesChanged",
      "type": "event"
    },
    {
      "anonymous": false,
      "inputs": [
        {
          "indexed": false,
          "internalType": "address",
          "name": "_poolKeeper",
          "type": "address"
        }
      ],
      "name": "PoolKeeperChanged",
      "type": "event"
    },
    {
      "anonymous": false,
      "inputs": [
        {
          "indexed": true,
          "internalType": "address",
          "name": "newAddress",
          "type": "address"
        }
      ],
      "name": "ProvisionalGovernanceChanged",
      "type": "event"
    },
    {
      "anonymous": false,
      "inputs": [
        {
          "indexed": true,
          "internalType": "uint256",
          "name": "fee",
          "type": "uint256"
        }
      ],
      "name": "SecondaryFeeSplitChanged",
      "type": "event"
    },
    {
      "inputs": [],
      "name": "autoClaim",
      "outputs": [
        {
          "internalType": "address",
          "name": "",
          "type": "address"
        }
      ],
      "stateMutability": "view",
      "type": "function"
    },
    {
      "inputs": [],
      "name": "claimGovernance",
      "outputs": [],
      "stateMutability": "nonpayable",
      "type": "function"
    },
    {
      "inputs": [
        {
          "components": [
            {
              "internalType": "string",
              "name": "poolName",
              "type": "string"
            },
            {
              "internalType": "uint32",
              "name": "frontRunningInterval",
              "type": "uint32"
            },
            {
              "internalType": "uint32",
              "name": "updateInterval",
              "type": "uint32"
            },
            {
              "internalType": "uint16",
              "name": "leverageAmount",
              "type": "uint16"
            },
            {
              "internalType": "address",
              "name": "settlementToken",
              "type": "address"
            },
            {
              "internalType": "address",
              "name": "oracleWrapper",
              "type": "address"
            },
            {
              "internalType": "address",
              "name": "settlementEthOracle",
              "type": "address"
            },
            {
              "internalType": "address",
              "name": "feeController",
              "type": "address"
            },
            {
              "internalType": "uint256",
              "name": "mintingFee",
              "type": "uint256"
            },
            {
              "internalType": "uint256",
              "name": "changeInterval",
              "type": "uint256"
            },
            {
              "internalType": "uint256",
              "name": "burningFee",
              "type": "uint256"
            }
          ],
          "internalType": "struct IPoolFactory.PoolDeployment",
          "name": "deploymentParameters",
          "type": "tuple"
        }
      ],
      "name": "deployPool",
      "outputs": [
        {
          "internalType": "address",
          "name": "",
          "type": "address"
        }
      ],
      "stateMutability": "nonpayable",
      "type": "function"
    },
    {
      "inputs": [],
      "name": "fee",
      "outputs": [
        {
          "internalType": "uint256",
          "name": "",
          "type": "uint256"
        }
      ],
      "stateMutability": "view",
      "type": "function"
    },
    {
      "inputs": [],
      "name": "feeReceiver",
      "outputs": [
        {
          "internalType": "address",
          "name": "",
          "type": "address"
        }
      ],
      "stateMutability": "view",
      "type": "function"
    },
    {
      "inputs": [],
      "name": "governance",
      "outputs": [
        {
          "internalType": "address",
          "name": "",
          "type": "address"
        }
      ],
      "stateMutability": "view",
      "type": "function"
    },
    {
      "inputs": [],
      "name": "governanceTransferInProgress",
      "outputs": [
        {
          "internalType": "bool",
          "name": "",
          "type": "bool"
        }
      ],
      "stateMutability": "view",
      "type": "function"
    },
    {
      "inputs": [],
      "name": "invariantCheck",
      "outputs": [
        {
          "internalType": "address",
          "name": "",
          "type": "address"
        }
      ],
      "stateMutability": "view",
      "type": "function"
    },
    {
      "inputs": [
        {
          "internalType": "address",
          "name": "",
          "type": "address"
        }
      ],
      "name": "isValidPool",
      "outputs": [
        {
          "internalType": "bool",
          "name": "",
          "type": "bool"
        }
      ],
      "stateMutability": "view",
      "type": "function"
    },
    {
      "inputs": [
        {
          "internalType": "address",
          "name": "",
          "type": "address"
        }
      ],
      "name": "isValidPoolCommitter",
      "outputs": [
        {
          "internalType": "bool",
          "name": "",
          "type": "bool"
        }
      ],
      "stateMutability": "view",
      "type": "function"
    },
    {
      "inputs": [],
      "name": "numPools",
      "outputs": [
        {
          "internalType": "uint256",
          "name": "",
          "type": "uint256"
        }
      ],
      "stateMutability": "view",
      "type": "function"
    },
    {
      "inputs": [],
      "name": "pairTokenBaseAddress",
      "outputs": [
        {
          "internalType": "address",
          "name": "",
          "type": "address"
        }
      ],
      "stateMutability": "view",
      "type": "function"
    },
    {
      "inputs": [],
      "name": "poolBaseAddress",
      "outputs": [
        {
          "internalType": "address",
          "name": "",
          "type": "address"
        }
      ],
      "stateMutability": "view",
      "type": "function"
    },
    {
      "inputs": [],
      "name": "poolCommitterBaseAddress",
      "outputs": [
        {
          "internalType": "address",
          "name": "",
          "type": "address"
        }
      ],
      "stateMutability": "view",
      "type": "function"
    },
    {
      "inputs": [],
      "name": "poolKeeper",
      "outputs": [
        {
          "internalType": "contract IPoolKeeper",
          "name": "",
          "type": "address"
        }
      ],
      "stateMutability": "view",
      "type": "function"
    },
    {
      "inputs": [
        {
          "internalType": "uint256",
          "name": "",
          "type": "uint256"
        }
      ],
      "name": "pools",
      "outputs": [
        {
          "internalType": "address",
          "name": "",
          "type": "address"
        }
      ],
      "stateMutability": "view",
      "type": "function"
    },
    {
      "inputs": [],
      "name": "provisionalGovernance",
      "outputs": [
        {
          "internalType": "address",
          "name": "",
          "type": "address"
        }
      ],
      "stateMutability": "view",
      "type": "function"
    },
    {
      "inputs": [],
      "name": "secondaryFeeSplitPercent",
      "outputs": [
        {
          "internalType": "uint256",
          "name": "",
          "type": "uint256"
        }
      ],
      "stateMutability": "view",
      "type": "function"
    },
    {
      "inputs": [
        {
          "internalType": "address",
          "name": "_autoClaim",
          "type": "address"
        }
      ],
      "name": "setAutoClaim",
      "outputs": [],
      "stateMutability": "nonpayable",
      "type": "function"
    },
    {
      "inputs": [
        {
          "internalType": "uint256",
          "name": "_fee",
          "type": "uint256"
        }
      ],
      "name": "setFee",
      "outputs": [],
      "stateMutability": "nonpayable",
      "type": "function"
    },
    {
      "inputs": [
        {
          "internalType": "address",
          "name": "_feeReceiver",
          "type": "address"
        }
      ],
      "name": "setFeeReceiver",
      "outputs": [],
      "stateMutability": "nonpayable",
      "type": "function"
    },
    {
      "inputs": [
        {
          "internalType": "address",
          "name": "_invariantCheck",
          "type": "address"
        }
      ],
      "name": "setInvariantCheck",
      "outputs": [],
      "stateMutability": "nonpayable",
      "type": "function"
    },
    {
      "inputs": [
        {
          "internalType": "address",
          "name": "_poolKeeper",
          "type": "address"
        }
      ],
      "name": "setPoolKeeper",
      "outputs": [],
      "stateMutability": "nonpayable",
      "type": "function"
    },
    {
      "inputs": [
        {
          "internalType": "uint256",
          "name": "newFeePercent",
          "type": "uint256"
        }
      ],
      "name": "setSecondaryFeeSplitPercent",
      "outputs": [],
      "stateMutability": "nonpayable",
      "type": "function"
    },
    {
      "inputs": [
        {
          "internalType": "address",
          "name": "_governance",
          "type": "address"
        }
      ],
      "name": "transferGovernance",
      "outputs": [],
      "stateMutability": "nonpayable",
      "type": "function"
    }
  ],
  "transactionHash": "0x21a50b9e0a6655fcc20c309dc837230c24a79ce4ac9c0946314ab65800f589ab",
  "args": [
    "0x110af92Ba116fD7868216AA794a7E4dA3b9D7D11",
    "0x110af92Ba116fD7868216AA794a7E4dA3b9D7D11"
  ],
  "solcInputHash": "f23797a75a460924964c385a02c83432",
  "bytecode": "0x60e0604052600a6006553480156200001657600080fd5b506040516200b36a3803806200b36a83398101604081905262000039916200048a565b6001600160a01b038216620000955760405162461bcd60e51b815260206004820152601660248201527f416464726573732063616e6e6f74206265206e756c6c0000000000000000000060448201526064015b60405180910390fd5b6001600160a01b038116620000ed5760405162461bcd60e51b815260206004820152601660248201527f416464726573732063616e6e6f74206265206e756c6c0000000000000000000060448201526064016200008c565b600380546001600160a01b0319166001600160a01b0383161790556040516000906012906200011c9062000443565b60ff9091168152602001604051809103906000f08015801562000143573d6000803e3d6000fd5b506001600160601b0319606082901b166080526040519091506000906200016a9062000451565b604051809103906000f08015801562000187573d6000803e3d6000fd5b506001600160601b0319606082901b1660a052604051909150600090620001ae906200045f565b604051809103906000f080158015620001cb573d6000803e3d6000fd5b50606081901b6001600160601b03191660c0908152600780546001600160a01b0319166001600160a01b0389811691909117909155604051637b69774360e11b81528582166004808301919091526080602483015260848201819052636261736560e01b60a4830152604482019390935260c4810192909252634241534560e01b60e4830152600860648301529192509084169063f6d2ee869061010401600060405180830381600087803b1580156200028457600080fd5b505af115801562000299573d6000803e3d6000fd5b50506040805161022081018252308082526020808301829052828401829052606083018290526001600160a01b038981166080850181905260a085015287811660c085015260e08401839052845180860186526004808252636261736560e01b93820193909352610100850152600061012085018190526001610140860181905261016086015261018085018190526101a085018490526101c085018490526101e08501939093526102008401929092529251630129011d60e41b81529194508616925063129011d091620003719185910162000512565b600060405180830381600087803b1580156200038c57600080fd5b505af1158015620003a1573d6000803e3d6000fd5b5050600354604051637403c6cd60e01b815230600482018190526024820181905260448201526001600160a01b03918216606482018190526084820152600060a4820181905260c4820181905260e48201529085169250637403c6cd915061010401600060405180830381600087803b1580156200041e57600080fd5b505af115801562000433573d6000803e3d6000fd5b50505050505050505050620006b6565b6111eb806200258e83390190565b612f64806200377983390190565b614c8d80620066dd83390190565b80516001600160a01b03811681146200048557600080fd5b919050565b600080604083850312156200049e57600080fd5b620004a9836200046d565b9150620004b9602084016200046d565b90509250929050565b6000815180845260005b81811015620004ea57602081850181015186830182015201620004cc565b81811115620004fd576000602083870101525b50601f01601f19169290920160200192915050565b602081526200052d6020820183516001600160a01b03169052565b600060208301516200054a60408401826001600160a01b03169052565b5060408301516001600160a01b03811660608401525060608301516001600160a01b03811660808401525060808301516001600160a01b03811660a08401525060a08301516001600160a01b03811660c08401525060c08301516001600160a01b03811660e08401525060e0830151610100620005d1818501836001600160a01b03169052565b808501519150506102206101208181860152620005f3610240860184620004c2565b908601519092506101406200060f8682018363ffffffff169052565b8601519050610160620006298682018363ffffffff169052565b8601519050610180620006418682018361ffff169052565b8601516101a08681019190915286015190506101c06200066b818701836001600160a01b03169052565b86015190506101e062000688868201836001600160a01b03169052565b8601519050610200620006a5868201836001600160a01b03169052565b959095015193019290925250919050565b60805160601c60a05160601c60c05160601c611e8a620007046000396000818161034e0152610bde0152600081816103910152610cdd015260008181610208015261160f0152611e8a6000f3fe608060405234801561001057600080fd5b50600436106101735760003560e01c806369fe0e2d116100de578063c70db32311610097578063ddca3f4311610071578063ddca3f4314610383578063ed3f7e261461038c578063efdcd974146103b3578063f164e2a7146103c657600080fd5b8063c70db32314610336578063d339471414610349578063d38bfff41461037057600080fd5b806369fe0e2d146102ae57806379bc6182146102c15780639fd55245146102d4578063ac4afa38146102e7578063b3f0067414610310578063b7f4bb1c1461032357600080fd5b80634690092c116101305780634690092c1461020357806359e86a991461022a5780635aa6e6751461025d5780635ab78ee1146102705780635d36b19014610293578063616e57901461029b57600080fd5b806303850dbb14610178578063178f9e3514610194578063225454c5146101bf57806335c62bc2146101d4578063430ed6eb146101dd5780634509017e146101f0575b600080fd5b61018160065481565b6040519081526020015b60405180910390f35b6000546101a7906001600160a01b031681565b6040516001600160a01b03909116815260200161018b565b6101d26101cd36600461176b565b6103da565b005b61018160095481565b6101d26101eb36600461176b565b61047d565b6002546101a7906001600160a01b031681565b6101a77f000000000000000000000000000000000000000000000000000000000000000081565b61024d61023836600461176b565b600b6020526000908152604090205460ff1681565b604051901515815260200161018b565b6003546101a7906001600160a01b031681565b61024d61027e36600461176b565b600a6020526000908152604090205460ff1681565b6101d2610521565b6101d26102a9366004611803565b610627565b6101d26102bc366004611803565b6106e4565b6101d26102cf36600461176b565b61078f565b6004546101a7906001600160a01b031681565b6101a76102f5366004611803565b6008602052600090815260409020546001600160a01b031681565b6007546101a7906001600160a01b031681565b6101a76103313660046117ac565b610829565b6001546101a7906001600160a01b031681565b6101a77f000000000000000000000000000000000000000000000000000000000000000081565b6101d261037e36600461176b565b61116e565b61018160055481565b6101a77f000000000000000000000000000000000000000000000000000000000000000081565b6101d26103c136600461176b565b6112df565b60035461024d90600160a01b900460ff1681565b6003546001600160a01b0316331461040d5760405162461bcd60e51b8152600401610404906119bb565b60405180910390fd5b6001600160a01b0381166104335760405162461bcd60e51b81526004016104049061198b565b600280546001600160a01b0319166001600160a01b0383169081179091556040517f24c15dcddddd5cf1c1ca428f04560f295744a59a459f278163e3ffcbd12f108690600090a250565b6003546001600160a01b031633146104a75760405162461bcd60e51b8152600401610404906119bb565b6001600160a01b0381166104cd5760405162461bcd60e51b81526004016104049061198b565b600080546001600160a01b0319166001600160a01b0383169081179091556040519081527ff33ed59034aadf61086c54204694b493ee22a3d903bddbe94c276f7bb442f4e39060200160405180910390a150565b600354600160a01b900460ff1661057a5760405162461bcd60e51b815260206004820152601b60248201527f4e6f20676f7665726e616e6365206368616e67652061637469766500000000006044820152606401610404565b6004546001600160a01b03163381146105d55760405162461bcd60e51b815260206004820152601860248201527f4e6f742070726f766973696f6e616c20676f7665726e6f7200000000000000006044820152606401610404565b600380546001600160a01b038381166001600160a81b0319831681179093556040519116919082907f023588d3d1dcaad34e471c9e01b616b794156174bc693539c8fe15c0bfd5d82690600090a35050565b6003546001600160a01b031633146106515760405162461bcd60e51b8152600401610404906119bb565b60648111156106b15760405162461bcd60e51b815260206004820152602660248201527f5365636f6e64617279206665652073706c69742063616e6e6f7420657863656560448201526564203130302560d01b6064820152608401610404565b600681905560405181907ffd9d1596de9068fc7e910a6e5ba7d9c07e9f6018518a993f41ab74afb0f9617790600090a250565b6003546001600160a01b0316331461070e5760405162461bcd60e51b8152600401610404906119bb565b67016345785d8a000081111561075c5760405162461bcd60e51b81526020600482015260136024820152724665652063616e6e6f74206265203e2031302560681b6044820152606401610404565b600581905560405181907f6bbc57480a46553fa4d156ce702beef5f3ad66303b0ed1a5d4cb44966c6584c390600090a250565b6003546001600160a01b031633146107b95760405162461bcd60e51b8152600401610404906119bb565b6001600160a01b0381166107df5760405162461bcd60e51b81526004016104049061198b565b600180546001600160a01b0319166001600160a01b0383169081179091556040517fa88db2b867bf534c147cbfc947cf3f3158ed92959503ef51c8729e6f35dc109e90600090a250565b600080546001600160a01b0316806108785760405162461bcd60e51b8152602060048201526012602482015271141bdbdb12d9595c195c881b9bdd081cd95d60721b6044820152606401610404565b6001546001600160a01b03166108c45760405162461bcd60e51b8152602060048201526011602482015270105d5d1bd0db185a5b481b9bdd081cd95d607a1b6044820152606401610404565b6002546001600160a01b03166109155760405162461bcd60e51b8152602060048201526016602482015275125b9d985c9a585b9d10da1958dac81b9bdd081cd95d60521b6044820152606401610404565b3361092660c0850160a0860161176b565b6001600160a01b031663d5f394886040518163ffffffff1660e01b815260040160206040518083038186803b15801561095e57600080fd5b505afa158015610972573d6000803e3d6000fd5b505050506040513d601f19601f82011682018060405250810190610996919061178f565b6001600160a01b0316146109fa5760405162461bcd60e51b815260206004820152602560248201527f4465706c6f796572206d757374206265206f7261636c6520777261707065722060448201526437bbb732b960d91b6064820152608401610404565b610a0a60808401606085016117e8565b61ffff16610a5a5760405162461bcd60e51b815260206004820152601f60248201527f4c657665726167656420616d6f756e742063616e6e6f7420657175616c2030006044820152606401610404565b6012610a6c60a085016080860161176b565b6001600160a01b031663313ce5676040518163ffffffff1660e01b815260040160206040518083038186803b158015610aa457600080fd5b505afa158015610ab8573d6000803e3d6000fd5b505050506040513d601f19601f82011682018060405250810190610adc9190611837565b60ff161115610b2d5760405162461bcd60e51b815260206004820152601a60248201527f446563696d616c20707265636973696f6e20746f6f20686967680000000000006044820152606401610404565b6000610b3f604085016020860161181c565b610b4f606086016040870161181c565b610b5f60808701606088016117e8565b610b6f60a088016080890161176b565b610b7f60c0890160a08a0161176b565b6040805163ffffffff9687166020820152959094169385019390935261ffff90911660608401526001600160a01b0390811660808401521660a082015260c0016040516020818303038152906040528051906020012090506000610c037f000000000000000000000000000000000000000000000000000000000000000083611379565b60015460035491925082916001600160a01b0380841692637403c6cd9230929182169116610c386101008c0160e08d0161176b565b6002546040516001600160e01b031960e088901b1681526001600160a01b039586166004820152938516602485015291841660448401528316606483015291909116608482015261010089013560a482015261014089013560c482015261012089013560e482015261010401600060405180830381600087803b158015610cbe57600080fd5b505af1158015610cd2573d6000803e3d6000fd5b505050506000610d027f000000000000000000000000000000000000000000000000000000000000000085611379565b9050806001600160a01b0381167f82f5ba2b59209e8b2008e0addf2c8502bf23175cfee67125b2562302ce9823b985610d3b8b80611bcb565b604051610d4a93929190611900565b60405180910390a26000610d70610d6760808b0160608c016117e8565b61ffff1661141f565b60408051610220810182526003546001600160a01b0390811682528a166020820152919250600091908101610dab60c08d0160a08e0161176b565b6001600160a01b03168152602001610dc960e08d0160c08e0161176b565b6001600160a01b03168152602001610e058585610de58f611ca5565b604051806040016040528060028152602001614c2d60f01b815250611525565b6001600160a01b03168152602001610e418585610e218f611ca5565b60405180604001604052806002815260200161532d60f01b815250611525565b6001600160a01b039081168252878116602083015260025416604082015260600183610e6d8d80611bcb565b604051602001610e7f939291906118c9565b60405160208183030381529060405281526020018b6020016020810190610ea6919061181c565b63ffffffff168152602001610ec160608d0160408e0161181c565b63ffffffff168152602001610edc60808d0160608e016117e8565b61ffff1681526020016301e18558610efa60608e0160408f0161181c565b63ffffffff16600554610f0d9190611c6f565b610f179190611c5b565b81526007546001600160a01b03166020820152336040820152606001610f4360a08d0160808e0161176b565b6001600160a01b031681526020016006548152509050836001600160a01b031663129011d0826040518263ffffffff1660e01b8152600401610f8591906119f2565b600060405180830381600087803b158015610f9f57600080fd5b505af1158015610fb3573d6000803e3d6000fd5b505060405163221b8a9560e11b81526001600160a01b03868116600483015288169250634437152a9150602401600060405180830381600087803b158015610ffa57600080fd5b505af115801561100e573d6000803e3d6000fd5b505050507fe1759462958518b57e02da7f1e24c6a789c6f0ad7f8751169def6657289695f1858b6080016020810190611047919061176b565b858d61012001358e60e0016020810190611061919061176b565b604080516001600160a01b0396871681529486166020860152928516928401929092526060830152909116608082015260a00160405180910390a1600054604051633c5c7fb360e01b81526001600160a01b03858116600483015290911690633c5c7fb390602401600060405180830381600087803b1580156110e357600080fd5b505af11580156110f7573d6000803e3d6000fd5b505060098054600090815260086020908152604080832080546001600160a01b0319166001600160a01b038b8116918217909255855460019081019096558452600a8352818420805460ff1990811687179091559c168352600b909152902080549099161790975550919998505050505050505050565b6003546001600160a01b031633146111985760405162461bcd60e51b8152600401610404906119bb565b6003546001600160a01b038281169116141561121c5760405162461bcd60e51b815260206004820152603f60248201527f4e657720676f7665726e616e636520616464726573732063616e6e6f7420626560448201527f2073616d65206173206f6c6420676f7665726e616e63652061646472657373006064820152608401610404565b6001600160a01b0381166112815760405162461bcd60e51b815260206004820152602660248201527f476f7665726e616e636520616464726573732063616e6e6f742062652030206160448201526564647265737360d01b6064820152608401610404565b600480546001600160a01b0383166001600160a01b031990911681179091556003805460ff60a01b1916600160a01b1790556040517f35681f4f23137fb58510a9854f1b6e95f90a2cf0b66d2fce4df74cc0becc82d590600090a250565b6003546001600160a01b031633146113095760405162461bcd60e51b8152600401610404906119bb565b6001600160a01b03811661132f5760405162461bcd60e51b81526004016104049061198b565b600780546001600160a01b0319166001600160a01b0383169081179091556040517f647672599d3468abcfa241a13c9e3d34383caadb5cc80fb67c3cdfcd5f78605990600090a250565b6000604051733d602d80600a3d3981f3363d3d373d3d3d363d7360601b81528360601b60148201526e5af43d82803e903d91602b57fd5bf360881b6028820152826037826000f59150506001600160a01b0381166114195760405162461bcd60e51b815260206004820152601760248201527f455243313136373a2063726561746532206661696c65640000000000000000006044820152606401610404565b92915050565b6060816114435750506040805180820190915260018152600360fc1b602082015290565b8160005b811561146d578061145781611db5565b91506114669050600a83611c5b565b9150611447565b60008167ffffffffffffffff81111561148857611488611e26565b6040519080825280601f01601f1916602001820160405280156114b2576020820181803683370190505b5090505b841561151d576114c7600183611c8e565b91506114d4600a86611dd0565b6114df906030611c43565b60f81b8183815181106114f4576114f4611e10565b60200101906001600160f81b031916908160001a905350611516600a86611c5b565b94506114b6565b949350505050565b6000808483856000015160405160200161154193929190611886565b6040516020818303038152906040529050600084608001516001600160a01b031663313ce5676040518163ffffffff1660e01b815260040160206040518083038186803b15801561159157600080fd5b505afa1580156115a5573d6000803e3d6000fd5b505050506040513d601f19601f820116820180604052508101906115c99190611837565b90506000856060015186608001518760a00151876040516020016115f09493929190611b8b565b60405160208183030381529060405280519060200120905060006116347f000000000000000000000000000000000000000000000000000000000000000083611379565b604051637b69774360e11b81529091506001600160a01b0382169063f6d2ee8690611669908c90889081908990600401611940565b600060405180830381600087803b15801561168357600080fd5b505af1158015611697573d6000803e3d6000fd5b50929b9a5050505050505050505050565b80356116b381611e3c565b919050565b600082601f8301126116c957600080fd5b813567ffffffffffffffff808211156116e4576116e4611e26565b604051601f8301601f19908116603f0116810190828211818310171561170c5761170c611e26565b8160405283815286602085880101111561172557600080fd5b836020870160208301376000602085830101528094505050505092915050565b803561ffff811681146116b357600080fd5b803563ffffffff811681146116b357600080fd5b60006020828403121561177d57600080fd5b813561178881611e3c565b9392505050565b6000602082840312156117a157600080fd5b815161178881611e3c565b6000602082840312156117be57600080fd5b813567ffffffffffffffff8111156117d557600080fd5b8201610160818503121561178857600080fd5b6000602082840312156117fa57600080fd5b61178882611745565b60006020828403121561181557600080fd5b5035919050565b60006020828403121561182e57600080fd5b61178882611757565b60006020828403121561184957600080fd5b815160ff8116811461178857600080fd5b60008151808452611872816020860160208601611d85565b601f01601f19169290920160200192915050565b60008451611898818460208901611d85565b8451908301906118ac818360208901611d85565b84519101906118bf818360208801611d85565b0195945050505050565b600084516118db818460208901611d85565b602d60f81b908301908152838560018301376000930160010192835250909392505050565b6001600160a01b03841681526040602082018190528101829052818360608301376000818301606090810191909152601f909201601f1916010192915050565b6001600160a01b03851681526080602082018190526000906119649083018661185a565b8281036040840152611976818661185a565b91505060ff8316606083015295945050505050565b6020808252601690820152751859191c995cdcc818d85b9b9bdd081899481b9d5b1b60521b604082015260600190565b60208082526019908201527f6d73672e73656e646572206e6f7420676f7665726e616e636500000000000000604082015260600190565b60208152611a0c6020820183516001600160a01b03169052565b60006020830151611a2860408401826001600160a01b03169052565b5060408301516001600160a01b03811660608401525060608301516001600160a01b03811660808401525060808301516001600160a01b03811660a08401525060a08301516001600160a01b03811660c08401525060c08301516001600160a01b03811660e08401525060e0830151610100611aae818501836001600160a01b03169052565b808501519150506102206101208181860152611ace61024086018461185a565b90860151909250610140611ae98682018363ffffffff169052565b8601519050610160611b028682018363ffffffff169052565b8601519050610180611b198682018361ffff169052565b8601516101a08681019190915286015190506101c0611b42818701836001600160a01b03169052565b86015190506101e0611b5e868201836001600160a01b03169052565b8601519050610200611b7a868201836001600160a01b03169052565b959095015193019290925250919050565b61ffff851681526001600160a01b03848116602083015283166040820152608060608201819052600090611bc19083018461185a565b9695505050505050565b6000808335601e19843603018112611be257600080fd5b83018035915067ffffffffffffffff821115611bfd57600080fd5b602001915036819003821315611c1257600080fd5b9250929050565b604051610160810167ffffffffffffffff81118282101715611c3d57611c3d611e26565b60405290565b60008219821115611c5657611c56611de4565b500190565b600082611c6a57611c6a611dfa565b500490565b6000816000190483118215151615611c8957611c89611de4565b500290565b600082821015611ca057611ca0611de4565b500390565b60006101608236031215611cb857600080fd5b611cc0611c19565b823567ffffffffffffffff811115611cd757600080fd5b611ce3368286016116b8565b825250611cf260208401611757565b6020820152611d0360408401611757565b6040820152611d1460608401611745565b6060820152611d25608084016116a8565b6080820152611d3660a084016116a8565b60a0820152611d4760c084016116a8565b60c0820152611d5860e084016116a8565b60e08201526101008381013590820152610120808401359082015261014092830135928101929092525090565b60005b83811015611da0578181015183820152602001611d88565b83811115611daf576000848401525b50505050565b6000600019821415611dc957611dc9611de4565b5060010190565b600082611ddf57611ddf611dfa565b500690565b634e487b7160e01b600052601160045260246000fd5b634e487b7160e01b600052601260045260246000fd5b634e487b7160e01b600052603260045260246000fd5b634e487b7160e01b600052604160045260246000fd5b6001600160a01b0381168114611e5157600080fd5b5056fea26469706673582212203bdf71ec17b65487d1c8970ce40bcd48bcfe64b7d0c1f7b9dbcfbad2ac47b6b464736f6c6343000807003360806040523480156200001157600080fd5b50604051620011eb380380620011eb833981016040819052620000349162000175565b6040518060400160405280600a8152602001692120a9a2afaa27a5a2a760b11b815250604051806040016040528060048152602001634241534560e01b81525082828281600390805190602001906200008f929190620000cf565b508051620000a5906004906020840190620000cf565b50506005805460ff909316620100000262ff0000199093169290921790915550620001de92505050565b828054620000dd90620001a1565b90600052602060002090601f0160209004810192826200010157600085556200014c565b82601f106200011c57805160ff19168380011785556200014c565b828001600101855582156200014c579182015b828111156200014c5782518255916020019190600101906200012f565b506200015a9291506200015e565b5090565b5b808211156200015a57600081556001016200015f565b6000602082840312156200018857600080fd5b815160ff811681146200019a57600080fd5b9392505050565b600181811c90821680620001b657607f821691505b60208210811415620001d857634e487b7160e01b600052602260045260246000fd5b50919050565b610ffd80620001ee6000396000f3fe608060405234801561001057600080fd5b50600436106101005760003560e01c80638da5cb5b11610097578063a9059cbb11610066578063a9059cbb14610233578063dd62ed3e14610246578063f2fde38b1461027f578063f6d2ee861461029257600080fd5b80638da5cb5b146101da57806395d89b41146102055780639dc29fac1461020d578063a457c2d71461022057600080fd5b8063313ce567116100d3578063313ce5671461016b578063395093511461018957806340c10f191461019c57806370a08231146101b157600080fd5b806306fdde0314610105578063095ea7b31461012357806318160ddd1461014657806323b872dd14610158575b600080fd5b61010d6102a5565b60405161011a9190610eae565b60405180910390f35b610136610131366004610e84565b610337565b604051901515815260200161011a565b6002545b60405190815260200161011a565b610136610166366004610dbb565b61034d565b60055462010000900460ff1660405160ff909116815260200161011a565b610136610197366004610e84565b6103fc565b6101af6101aa366004610e84565b610438565b005b61014a6101bf366004610d66565b6001600160a01b031660009081526020819052604090205490565b6008546101ed906001600160a01b031681565b6040516001600160a01b03909116815260200161011a565b61010d610470565b6101af61021b366004610e84565b61047f565b61013661022e366004610e84565b6104b3565b610136610241366004610e84565b61054c565b61014a610254366004610d88565b6001600160a01b03918216600090815260016020908152604080832093909416825291909152205490565b6101af61028d366004610d66565b610559565b6101af6102a0366004610df7565b6105fb565b6060600680546102b490610f60565b80601f01602080910402602001604051908101604052809291908181526020018280546102e090610f60565b801561032d5780601f106103025761010080835404028352916020019161032d565b820191906000526020600020905b81548152906001019060200180831161031057829003601f168201915b5050505050905090565b600061034433848461070b565b50600192915050565b600061035a848484610830565b6001600160a01b0384166000908152600160209081526040808320338452909152902054828110156103e45760405162461bcd60e51b815260206004820152602860248201527f45524332303a207472616e7366657220616d6f756e74206578636565647320616044820152676c6c6f77616e636560c01b60648201526084015b60405180910390fd5b6103f1853385840361070b565b506001949350505050565b3360008181526001602090815260408083206001600160a01b03871684529091528120549091610344918590610433908690610f31565b61070b565b6008546001600160a01b031633146104625760405162461bcd60e51b81526004016103db90610f03565b61046c82826109ff565b5050565b6060600780546102b490610f60565b6008546001600160a01b031633146104a95760405162461bcd60e51b81526004016103db90610f03565b61046c8282610ade565b3360009081526001602090815260408083206001600160a01b0386168452909152812054828110156105355760405162461bcd60e51b815260206004820152602560248201527f45524332303a2064656372656173656420616c6c6f77616e63652062656c6f77604482015264207a65726f60d81b60648201526084016103db565b610542338585840361070b565b5060019392505050565b6000610344338484610830565b6008546001600160a01b031633146105835760405162461bcd60e51b81526004016103db90610f03565b6001600160a01b0381166105d95760405162461bcd60e51b815260206004820152601b60248201527f4f776e65723a2073657474696e6720746f20302061646472657373000000000060448201526064016103db565b600880546001600160a01b0319166001600160a01b0392909216919091179055565b600554610100900460ff1680610614575060055460ff16155b6106775760405162461bcd60e51b815260206004820152602e60248201527f496e697469616c697a61626c653a20636f6e747261637420697320616c72656160448201526d191e481a5b9a5d1a585b1a5e995960921b60648201526084016103db565b600554610100900460ff16158015610699576005805461ffff19166101011790555b600880546001600160a01b0319166001600160a01b03871617905583516106c7906006906020870190610c24565b5082516106db906007906020860190610c24565b506005805462ff000019166201000060ff8516021790558015610704576005805461ff00191690555b5050505050565b6001600160a01b03831661076d5760405162461bcd60e51b8152602060048201526024808201527f45524332303a20617070726f76652066726f6d20746865207a65726f206164646044820152637265737360e01b60648201526084016103db565b6001600160a01b0382166107ce5760405162461bcd60e51b815260206004820152602260248201527f45524332303a20617070726f766520746f20746865207a65726f206164647265604482015261737360f01b60648201526084016103db565b6001600160a01b0383811660008181526001602090815260408083209487168084529482529182902085905590518481527f8c5be1e5ebec7d5bd14f71427d1e84f3dd0314c0f7b2291e5b200ac8c7c3b92591015b60405180910390a3505050565b6001600160a01b0383166108945760405162461bcd60e51b815260206004820152602560248201527f45524332303a207472616e736665722066726f6d20746865207a65726f206164604482015264647265737360d81b60648201526084016103db565b6001600160a01b0382166108f65760405162461bcd60e51b815260206004820152602360248201527f45524332303a207472616e7366657220746f20746865207a65726f206164647260448201526265737360e81b60648201526084016103db565b6001600160a01b0383166000908152602081905260409020548181101561096e5760405162461bcd60e51b815260206004820152602660248201527f45524332303a207472616e7366657220616d6f756e7420657863656564732062604482015265616c616e636560d01b60648201526084016103db565b6001600160a01b038085166000908152602081905260408082208585039055918516815290812080548492906109a5908490610f31565b92505081905550826001600160a01b0316846001600160a01b03167fddf252ad1be2c89b69c2b068fc378daa952ba7f163c4a11628f55a4df523b3ef846040516109f191815260200190565b60405180910390a350505050565b6001600160a01b038216610a555760405162461bcd60e51b815260206004820152601f60248201527f45524332303a206d696e7420746f20746865207a65726f20616464726573730060448201526064016103db565b8060026000828254610a679190610f31565b90915550506001600160a01b03821660009081526020819052604081208054839290610a94908490610f31565b90915550506040518181526001600160a01b038316906000907fddf252ad1be2c89b69c2b068fc378daa952ba7f163c4a11628f55a4df523b3ef9060200160405180910390a35050565b6001600160a01b038216610b3e5760405162461bcd60e51b815260206004820152602160248201527f45524332303a206275726e2066726f6d20746865207a65726f206164647265736044820152607360f81b60648201526084016103db565b6001600160a01b03821660009081526020819052604090205481811015610bb25760405162461bcd60e51b815260206004820152602260248201527f45524332303a206275726e20616d6f756e7420657863656564732062616c616e604482015261636560f01b60648201526084016103db565b6001600160a01b0383166000908152602081905260408120838303905560028054849290610be1908490610f49565b90915550506040518281526000906001600160a01b038516907fddf252ad1be2c89b69c2b068fc378daa952ba7f163c4a11628f55a4df523b3ef90602001610823565b828054610c3090610f60565b90600052602060002090601f016020900481019282610c525760008555610c98565b82601f10610c6b57805160ff1916838001178555610c98565b82800160010185558215610c98579182015b82811115610c98578251825591602001919060010190610c7d565b50610ca4929150610ca8565b5090565b5b80821115610ca45760008155600101610ca9565b80356001600160a01b0381168114610cd457600080fd5b919050565b600082601f830112610cea57600080fd5b813567ffffffffffffffff80821115610d0557610d05610fb1565b604051601f8301601f19908116603f01168101908282118183101715610d2d57610d2d610fb1565b81604052838152866020858801011115610d4657600080fd5b836020870160208301376000602085830101528094505050505092915050565b600060208284031215610d7857600080fd5b610d8182610cbd565b9392505050565b60008060408385031215610d9b57600080fd5b610da483610cbd565b9150610db260208401610cbd565b90509250929050565b600080600060608486031215610dd057600080fd5b610dd984610cbd565b9250610de760208501610cbd565b9150604084013590509250925092565b60008060008060808587031215610e0d57600080fd5b610e1685610cbd565b9350602085013567ffffffffffffffff80821115610e3357600080fd5b610e3f88838901610cd9565b94506040870135915080821115610e5557600080fd5b50610e6287828801610cd9565b925050606085013560ff81168114610e7957600080fd5b939692955090935050565b60008060408385031215610e9757600080fd5b610ea083610cbd565b946020939093013593505050565b600060208083528351808285015260005b81811015610edb57858101830151858201604001528201610ebf565b81811115610eed576000604083870101525b50601f01601f1916929092016040019392505050565b60208082526014908201527336b9b39739b2b73232b9103737ba1037bbb732b960611b604082015260600190565b60008219821115610f4457610f44610f9b565b500190565b600082821015610f5b57610f5b610f9b565b500390565b600181811c90821680610f7457607f821691505b60208210811415610f9557634e487b7160e01b600052602260045260246000fd5b50919050565b634e487b7160e01b600052601160045260246000fd5b634e487b7160e01b600052604160045260246000fdfea2646970667358221220b320f0be9f47be35b28ed0993064618c5a156b6d8c320679645cf9de9097a62664736f6c63430008070033608060405234801561001057600080fd5b50612f44806100206000396000f3fe608060405234801561001057600080fd5b50600436106102bb5760003560e01c80637bbf103311610182578063ba8d5468116100e9578063d38bfff4116100a2578063f164e2a71161007c578063f164e2a7146105fc578063f3466dfa14610610578063f633a74014610625578063fd2c80ae1461063857600080fd5b8063d38bfff4146105c9578063ddca3f43146105dc578063e3d346cd146105e957600080fd5b8063ba8d546814610577578063bbcaac3814610580578063c40f6aa914610593578063cd39f30f1461059b578063d0b06f09146105ae578063d11262a0146105c157600080fd5b806387f9ca5d1161013b57806387f9ca5d146104f557806389e59154146105085780639fd5524514610511578063ab47c2b314610524578063aced166114610551578063b9ed8abf1461056457600080fd5b80637bbf10331461047f5780637bfe789a1461049c5780637de93f93146104c85780637e71fc7d146104d15780638226f396146104da5780638456cb59146104ed57600080fd5b806346fdc99a116102265780636dc2b271116101df5780636dc2b27114610410578063748747e61461042357806375a024a214610436578063796da7af146104495780637b9e618d146104515780637bb98a681461046457600080fd5b806346fdc99a146103a05780634f64b2be146103a95780635aa6e675146103bc5780635c975abb146103cf5780635d36b190146103f35780636d3e313e146103fb57600080fd5b8063129011d011610278578063129011d01461032c5780632fd7d6431461033f5780633c3f8252146103475780633f4ba83a1461035a57806341275358146103625780634509017e1461038d57600080fd5b806303850dbb146102c057806304883c27146102dc578063062e0d69146102f45780630c96871a146102fc5780630d20a1dc14610306578063110b1bed14610319575b600080fd5b6102c9600a5481565b6040519081526020015b60405180910390f35b6102e461064f565b6040516102d39493929190612d0f565b6102c9600081565b610304610706565b005b610304610314366004612913565b61084c565b61030461032736600461299d565b6108bd565b61030461033a366004612adb565b610941565b610304611404565b610304610355366004612ab9565b611470565b6103046114ff565b600854610375906001600160a01b031681565b6040516001600160a01b0390911681526020016102d3565b600454610375906001600160a01b031681565b6102c9600c5481565b6103756103b7366004612b3b565b611561565b600354610375906001600160a01b031681565b6006546103e390600160a01b900460ff1681565b60405190151581526020016102d3565b610304611581565b610403611694565b6040516102d39190612cd5565b6103e361041e366004612954565b6116d8565b6103046104313660046128d9565b6118cc565b6103046104443660046128d9565b6119a9565b6102c9611a12565b600d54610375906001600160a01b031681565b600154600254604080519283526020830191909152016102d3565b600454601354600160c01b90910463ffffffff16014210156103e3565b6004546104b390600160a01b900463ffffffff1681565b60405163ffffffff90911681526020016102d3565b6102c960135481565b6102c960025481565b601054610375906001600160a01b031681565b610304611a94565b610304610503366004612b78565b611b2c565b6102c9600b5481565b600654610375906001600160a01b031681565b60055461053890600160801b900460801b81565b6040516001600160801b031990911681526020016102d3565b600754610375906001600160a01b031681565b600f54610375906001600160a01b031681565b6102c960015481565b61030461058e3660046128d9565b611bfd565b6102c9600181565b600e54610375906001600160a01b031681565b6103046105bc366004612954565b611cf9565b610304611d64565b6103046105d73660046128d9565b611dc9565b6005546105389060801b81565b600954610375906001600160a01b031681565b6006546103e390600160a81b900460ff1681565b610618611f2d565b6040516102d39190612d3b565b610304610633366004612ab9565b611fbb565b6004546104b390600160c01b900463ffffffff1681565b60006060600080600080600f60009054906101000a90046001600160a01b03166001600160a01b031663db6d8fcf6040518163ffffffff1660e01b815260040160006040518083038186803b1580156106a757600080fd5b505afa1580156106bb573d6000803e3d6000fd5b505050506040513d6000823e601f3d908101601f191682016040526106e39190810190612a00565b60135460045492999198509650600160c01b90910463ffffffff16945092505050565b6003546001600160a01b031633146107395760405162461bcd60e51b815260040161073090612dad565b60405180910390fd5b600654600160a01b900460ff166107815760405162461bcd60e51b815260206004820152600c60248201526b506f6f6c206973206c69766560a01b6044820152606401610730565b600d546040516370a0823160e01b81523060048201526001600160a01b039091169060009082906370a082319060240160206040518083038186803b1580156107c957600080fd5b505afa1580156107dd573d6000803e3d6000fd5b505050506040513d601f19601f8201168201806040525081019061080191906129e7565b600d5490915061081b906001600160a01b03163383612252565b604051819033907f3304a35fcccaae1037a5405395dfc497e010ed92b42060cc21ac54cfb0e3e85090600090a35050565b600e546001600160a01b031633146108765760405162461bcd60e51b815260040161073090612d76565b600654600160a01b900460ff16156108a05760405162461bcd60e51b815260040161073090612d4e565b600d546108b8906001600160a01b03168484846122b5565b505050565b600e546001600160a01b031633146108e75760405162461bcd60e51b815260040161073090612d76565b600654600160a01b900460ff16156109115760405162461bcd60e51b815260040161073090612d4e565b8215610933576108b88282601160005b01546001600160a01b03169190612252565b6108b8828260116001610921565b600054610100900460ff168061095a575060005460ff16155b6109bd5760405162461bcd60e51b815260206004820152602e60248201527f496e697469616c697a61626c653a20636f6e747261637420697320616c72656160448201526d191e481a5b9a5d1a585b1a5e995960921b6064820152608401610730565b600054610100900460ff161580156109df576000805461ffff19166101011790555b60006109f36101c084016101a085016128d9565b6001600160a01b03161415610a4a5760405162461bcd60e51b815260206004820152601f60248201527f46656520616464726573732063616e6e6f7420626520302061646472657373006044820152606401610730565b6000610a5e61020084016101e085016128d9565b6001600160a01b03161415610ac15760405162461bcd60e51b8152602060048201526024808201527f536574746c656d656e7420746f6b656e2063616e6e6f742062652030206164646044820152637265737360e01b6064820152608401610730565b6000610ad360608401604085016128d9565b6001600160a01b03161415610b355760405162461bcd60e51b815260206004820152602260248201527f4f7261636c6520777261707065722063616e6e6f742062652030206164647265604482015261737360f01b6064820152608401610730565b6000610b4760808401606085016128d9565b6001600160a01b03161415610ba85760405162461bcd60e51b815260206004820152602160248201527f4b6565706572206f7261636c652063616e6e6f742062652030206164647265736044820152607360f81b6064820152608401610730565b6000610bb760208401846128d9565b6001600160a01b03161415610c0e5760405162461bcd60e51b815260206004820152601960248201527f4f776e65722063616e6e6f7420626520302061646472657373000000000000006044820152606401610730565b6000610c2060408401602085016128d9565b6001600160a01b03161415610c775760405162461bcd60e51b815260206004820152601a60248201527f4b65657065722063616e6e6f74206265203020616464726573730000000000006044820152606401610730565b6000610c8960a08401608085016128d9565b6001600160a01b03161415610ce05760405162461bcd60e51b815260206004820152601e60248201527f4c6f6e6720746f6b656e2063616e6e6f742062652030206164647265737300006044820152606401610730565b6000610cf260c0840160a085016128d9565b6001600160a01b03161415610d495760405162461bcd60e51b815260206004820152601f60248201527f53686f727420746f6b656e2063616e6e6f7420626520302061646472657373006044820152606401610730565b6000610d5b60e0840160c085016128d9565b6001600160a01b03161415610dbc5760405162461bcd60e51b815260206004820152602160248201527f506f6f6c436f6d6d69747465722063616e6e6f742062652030206164647265736044820152607360f81b6064820152608401610730565b6000610dcf610100840160e085016128d9565b6001600160a01b03161415610e315760405162461bcd60e51b815260206004820152602260248201527f496e76617269616e74436865636b2063616e6e6f742062652030206164647265604482015261737360f01b6064820152608401610730565b670de0b6b3a764000082610180013510610e7b5760405162461bcd60e51b815260206004820152600b60248201526a466565203e3d203130302560a81b6044820152606401610730565b60648261020001351115610ee05760405162461bcd60e51b815260206004820152602660248201527f5365636f6e64617279206665652073706c69742063616e6e6f7420657863656560448201526564203130302560d01b6064820152608401610730565b610ef261016083016101408401612c27565b63ffffffff16610f445760405162461bcd60e51b815260206004820152601b60248201527f55706461746520696e74657276616c2063616e6e6f74206265203000000000006044820152606401610730565b610f5160208301836128d9565b600380546001600160a01b0319166001600160a01b0392909216919091179055610f8160408301602084016128d9565b600780546001600160a01b0319166001600160a01b0392909216919091179055610fb160608301604084016128d9565b600f80546001600160a01b0319166001600160a01b0392909216919091179055610fe160808301606084016128d9565b601080546001600160a01b0319166001600160a01b039290921691909117905561101361020083016101e084016128d9565b600d80546001600160a01b0319166001600160a01b0392909216919091179055611044610100830160e084016128d9565b600480546001600160a01b0319166001600160a01b039290921691909117905561107661014083016101208401612c27565b6004805463ffffffff92909216600160a01b0263ffffffff60a01b199092169190911790556110ad61016083016101408401612c27565b6004805463ffffffff92909216600160c01b0263ffffffff60c01b19909216919091178155604051636fedf26d60e11b8152735470E49593bc68759A3035bF36B0501Ca31818669163dfdbe4da9161111091610180870135910190815260200190565b60206040518083038186803b15801561112857600080fd5b505af415801561113c573d6000803e3d6000fd5b505050506040513d601f19601f8201168201806040525081019061116091906129bd565b600580546001600160801b03191660809290921c919091179055735470E49593bc68759A3035bF36B0501Ca318186663dfdbe4da6111a661018085016101608601612b17565b6040516001600160e01b031960e084901b16815261ffff909116600482015260240160206040518083038186803b1580156111e057600080fd5b505af41580156111f4573d6000803e3d6000fd5b505050506040513d601f19601f8201168201806040525081019061121891906129bd565b6005805460809290921c600160801b026fffffffffffffffffffffffffffffffff9092169190911790556112546101c083016101a084016128d9565b600880546001600160a01b0319166001600160a01b03929092169190911790556112866101e083016101c084016128d9565b600980546001600160a01b0319166001600160a01b0392909216919091179055610200820135600a55426013556112c1610100830183612de4565b6112cd91601491612822565b506112de60a08301608084016128d9565b601160000180546001600160a01b0319166001600160a01b039290921691909117905561131160c0830160a084016128d9565b601160010180546001600160a01b0319166001600160a01b039290921691909117905561134460e0830160c084016128d9565b600e80546001600160a01b0319166001600160a01b039290921691909117905561137460c0830160a084016128d9565b6001600160a01b031661138d60a08401608085016128d9565b6001600160a01b03167fbc8bd61e5dd69ff5cb8c389529c029503515ba368eaafbdaa406e072fdd360726113c961020086016101e087016128d9565b6113d7610100870187612de4565b6040516113e693929190612c95565b60405180910390a38015611400576000805461ff00191690555b5050565b600b80546000909155600854600d5461142a916001600160a01b03918216911683612252565b6008546040518281526001600160a01b03909116907fe756bfac49549fbcb50e6d0f75a98c96a16261fbaf06f41dd35de05f2902fa4e906020015b60405180910390a250565b600e546001600160a01b0316331461149a5760405162461bcd60e51b815260040161073090612d76565b600654600160a01b900460ff16156114c45760405162461bcd60e51b815260040161073090612d4e565b60028290556001819055604051819083907fb31885164844201997ff1f41bcad765029c634f5183880298a4c69ec4540d89f90600090a35050565b6003546001600160a01b031633146115295760405162461bcd60e51b815260040161073090612dad565b6006805460ff60a01b191690556040517fa45f47fdea8a1efdd9029a5691c7f759c32b7c698632b563573e155625d1693390600090a1565b6011816002811061157157600080fd5b01546001600160a01b0316905081565b600654600160a81b900460ff166115da5760405162461bcd60e51b815260206004820152601b60248201527f4e6f20676f7665726e616e6365206368616e67652061637469766500000000006044820152606401610730565b6006546001600160a01b03163381146116355760405162461bcd60e51b815260206004820152601860248201527f4e6f742070726f766973696f6e616c20676f7665726e6f7200000000000000006044820152606401610730565b600380546001600160a01b038381166001600160a01b0319831681179093556006805460ff60a81b191690556040519116919082907f023588d3d1dcaad34e471c9e01b616b794156174bc693539c8fe15c0bfd5d82690600090a35050565b61169c6128a6565b60408051808201918290529060119060029082845b81546001600160a01b031681526001909101906020018083116116b1575050505050905090565b600754604080516342bd698960e11b815290516000926001600160a01b03169163857ad31291600480830192602092919082900301818787803b15801561171e57600080fd5b505af1158015611732573d6000803e3d6000fd5b505050506040513d601f19601f8201168201806040525081019061175691906128f6565b6001600160a01b0316336001600160a01b0316146117b65760405162461bcd60e51b815260206004820152601c60248201527f6d73672e73656e646572206e6f74206b656570657252657761726473000000006044820152606401610730565b600654600160a01b900460ff16156117e05760405162461bcd60e51b815260040161073090612d4e565b6001546002546117f08183612e32565b841115611802576000925050506118c6565b60405163dc35bc1360e01b81526004810185905260248101839052604481018290526000908190735470E49593bc68759A3035bF36B0501Ca31818669063dc35bc1390606401604080518083038186803b15801561185f57600080fd5b505af4158015611873573d6000803e3d6000fd5b505050506040513d601f19601f820116820180604052508101906118979190612b54565b60018290556002819055600d5491935091506118bd906001600160a01b03168888612252565b60019450505050505b92915050565b6003546001600160a01b031633146118f65760405162461bcd60e51b815260040161073090612dad565b6001600160a01b0381166119575760405162461bcd60e51b815260206004820152602260248201527f4b656570657220616464726573732063616e6e6f742062652030206164647265604482015261737360f01b6064820152608401610730565b600780546001600160a01b038381166001600160a01b0319831681179093556040519116919082907f402b3f9a8de3e388e7653c7a5892204fe18b579c8c23db19d6e00f1043ceb92190600090a35050565b6009546001600160a01b03163381146119c157600080fd5b600980546001600160a01b0319166001600160a01b0384811691821790925560405190918316907f4a1fe1b44fae78218ab520acca2aaba5067e706a4084bccf913f291c8d6e074990600090a35050565b600f5460408051634c6afee560e11b815290516000926001600160a01b0316916398d5fdca916004808301926020929190829003018186803b158015611a5757600080fd5b505afa158015611a6b573d6000803e3d6000fd5b505050506040513d601f19601f82011682018060405250810190611a8f91906129e7565b905090565b6004546001600160a01b03163314611aee5760405162461bcd60e51b815260206004820152601d60248201527f6d73672e73656e646572206e6f7420696e76617269616e74436865636b0000006044820152606401610730565b6006805460ff60a01b1916600160a01b1790556040517f9e87fac88ff661f02d44f95383c817fece4bce600a3dab7a54406878b965e75290600090a1565b600e546001600160a01b03163314611b565760405162461bcd60e51b815260040161073090612d76565b600654600160a01b900460ff1615611b805760405162461bcd60e51b815260040161073090612d4e565b60118360028110611b9357611b93612ebf565b0154604051632770a7eb60e21b81526001600160a01b0383811660048301526024820185905290911690639dc29fac90604401600060405180830381600087803b158015611be057600080fd5b505af1158015611bf4573d6000803e3d6000fd5b50505050505050565b6003546001600160a01b03163314611c275760405162461bcd60e51b815260040161073090612dad565b600654600160a01b900460ff1615611c515760405162461bcd60e51b815260040161073090612d4e565b6001600160a01b038116611ca75760405162461bcd60e51b815260206004820152601b60248201527f4163636f756e742063616e6e6f742062652030206164647265737300000000006044820152606401610730565b600880546001600160a01b038381166001600160a01b0319831681179093556040519116919082907f11f35a22548bcd4c3788ab4a7e4fba427a2014f02e5d5e2da9af62212c03183f90600090a35050565b600e546001600160a01b03163314611d235760405162461bcd60e51b815260040161073090612d76565b600654600160a01b900460ff1615611d4d5760405162461bcd60e51b815260040161073090612d4e565b600d54611400906001600160a01b03168383612252565b600c80546000909155600954600d54611d8a916001600160a01b03918216911683612252565b6009546040518281526001600160a01b03909116907f2f76018fcfcd8aaaa8299da890bcca2dfebfc638250a89e5785b34bdc68b636390602001611465565b6003546001600160a01b03163314611df35760405162461bcd60e51b815260040161073090612dad565b6003546001600160a01b0382811691161415611e775760405162461bcd60e51b815260206004820152603f60248201527f4e657720676f7665726e616e636520616464726573732063616e6e6f7420626560448201527f2073616d65206173206f6c6420676f7665726e616e63652061646472657373006064820152608401610730565b6001600160a01b038116611edc5760405162461bcd60e51b815260206004820152602660248201527f476f7665726e616e636520616464726573732063616e6e6f742062652030206160448201526564647265737360d01b6064820152608401610730565b60068054600161ff0160a01b0319166001600160a01b038316908117600160a81b179091556040517f35681f4f23137fb58510a9854f1b6e95f90a2cf0b66d2fce4df74cc0becc82d590600090a250565b60148054611f3a90612e84565b80601f0160208091040260200160405190810160405280929190818152602001828054611f6690612e84565b8015611fb35780601f10611f8857610100808354040283529160200191611fb3565b820191906000526020600020905b815481529060010190602001808311611f9657829003601f168201915b505050505081565b6007546001600160a01b0316331461200d5760405162461bcd60e51b815260206004820152601560248201527436b9b39739b2b73232b9103737ba1035b2b2b832b960591b6044820152606401610730565b600654600160a01b900460ff16156120375760405162461bcd60e51b815260040161073090612d4e565b600454601354600160c01b90910463ffffffff160142101561209b5760405162461bcd60e51b815260206004820152601d60248201527f55706461746520696e74657276616c206861736e2774207061737365640000006044820152606401610730565b6120a582826122f3565b600e5460135460048054600254600154604051638f5b8e8760e01b815293840194909452600160c01b90910463ffffffff1660248301526044820152606481019190915260009182918291829182916001600160a01b031690638f5b8e879060840160a060405180830381600087803b15801561212157600080fd5b505af1158015612135573d6000803e3d6000fd5b505050506040513d601f19601f820116820180604052508101906121599190612be7565b60138190556002839055600182905593985091965094509250905084156121df576011546040516340c10f1960e01b8152306004820152602481018790526001600160a01b03909116906340c10f1990604401600060405180830381600087803b1580156121c657600080fd5b505af11580156121da573d6000803e3d6000fd5b505050505b8315611bf4576012546040516340c10f1960e01b8152306004820152602481018690526001600160a01b03909116906340c10f1990604401600060405180830381600087803b15801561223157600080fd5b505af1158015612245573d6000803e3d6000fd5b5050505050505050505050565b6040516001600160a01b0383166024820152604481018290526108b890849063a9059cbb60e01b906064015b60408051601f198184030181529190526020810180516001600160e01b03166001600160e01b0319909316929092179091526124bc565b6040516001600160a01b03808516602483015283166044820152606481018290526122ed9085906323b872dd60e01b9060840161227e565b50505050565b600082131580612304575060008113155b1561233a57604051819083907f27f70c863f1bd3e335bb4d6bf2a31075c861752f0b21a03b816a356035b1dec690600090a35050565b6001546002546040805160c08101825285815260208101858152818301848152606083018681526005546001600160801b0319600160801b8204608090811b821681880190815292901b811660a087019081529651632920706d60e21b8152865160048201529451602486015292516044850152905160648401525181166084830152925190921660a483015290600090819081908190735470E49593bc68759A3035bF36B0501Ca31818669063a481c1b49060c40160806040518083038186803b15801561240857600080fd5b505af415801561241c573d6000803e3d6000fd5b505050506040513d601f19601f820116820180604052508101906124409190612bb1565b604080518c850381528b8603602082015290810182905260608101839052939750919550935091507ff1e6677cbfc1dcb704bc91fc51ba87e318c4ed18c6a5571907e52a09a2c0f9aa9060800160405180910390a1600284905560018390556124b16124ac8284612e32565b61258e565b505050505050505050565b6000612511826040518060400160405280602081526020017f5361666545524332303a206c6f772d6c6576656c2063616c6c206661696c6564815250856001600160a01b03166126a89092919063ffffffff16565b8051909150156108b8578080602001905181019061252f9190612980565b6108b85760405162461bcd60e51b815260206004820152602a60248201527f5361666545524332303a204552433230206f7065726174696f6e20646964206e6044820152691bdd081cdd58d8d9595960b21b6064820152608401610730565b6009546001600160a01b03166125a957600b80548201905550565b600a5460405163fea3de3360e01b8152600481018390526024810191909152606460448201819052600091735470E49593bc68759A3035bF36B0501Ca31818669163fea3de33910160206040518083038186803b15801561260957600080fd5b505af415801561261d573d6000803e3d6000fd5b505050506040513d601f19601f8201168201806040525081019061264191906129e7565b600d54600c805483019055600b80548386039081019091559192506001600160a01b0316821561268557600954612685906001600160a01b03838116911685612252565b81156122ed576008546122ed906001600160a01b03838116911684612252565b50565b60606126b784846000856126c1565b90505b9392505050565b6060824710156127225760405162461bcd60e51b815260206004820152602660248201527f416464726573733a20696e73756666696369656e742062616c616e636520666f6044820152651c8818d85b1b60d21b6064820152608401610730565b843b6127705760405162461bcd60e51b815260206004820152601d60248201527f416464726573733a2063616c6c20746f206e6f6e2d636f6e74726163740000006044820152606401610730565b600080866001600160a01b0316858760405161278c9190612c79565b60006040518083038185875af1925050503d80600081146127c9576040519150601f19603f3d011682016040523d82523d6000602084013e6127ce565b606091505b50915091506127de8282866127e9565b979650505050505050565b606083156127f85750816126ba565b8251156128085782518084602001fd5b8160405162461bcd60e51b81526004016107309190612d3b565b82805461282e90612e84565b90600052602060002090601f0160209004810192826128505760008555612896565b82601f106128695782800160ff19823516178555612896565b82800160010185558215612896579182015b8281111561289657823582559160200191906001019061287b565b506128a29291506128c4565b5090565b60405180604001604052806002906020820280368337509192915050565b5b808211156128a257600081556001016128c5565b6000602082840312156128eb57600080fd5b81356126ba81612eeb565b60006020828403121561290857600080fd5b81516126ba81612eeb565b60008060006060848603121561292857600080fd5b833561293381612eeb565b9250602084013561294381612eeb565b929592945050506040919091013590565b6000806040838503121561296757600080fd5b823561297281612eeb565b946020939093013593505050565b60006020828403121561299257600080fd5b81516126ba81612f00565b6000806000606084860312156129b257600080fd5b833561293381612f00565b6000602082840312156129cf57600080fd5b81516001600160801b0319811681146126ba57600080fd5b6000602082840312156129f957600080fd5b5051919050565b60008060408385031215612a1357600080fd5b82519150602083015167ffffffffffffffff80821115612a3257600080fd5b818501915085601f830112612a4657600080fd5b815181811115612a5857612a58612ed5565b604051601f8201601f19908116603f01168101908382118183101715612a8057612a80612ed5565b81604052828152886020848701011115612a9957600080fd5b612aaa836020830160208801612e58565b80955050505050509250929050565b60008060408385031215612acc57600080fd5b50508035926020909101359150565b600060208284031215612aed57600080fd5b813567ffffffffffffffff811115612b0457600080fd5b820161022081850312156126ba57600080fd5b600060208284031215612b2957600080fd5b813561ffff811681146126ba57600080fd5b600060208284031215612b4d57600080fd5b5035919050565b60008060408385031215612b6757600080fd5b505080516020909101519092909150565b600080600060608486031215612b8d57600080fd5b83359250602084013591506040840135612ba681612eeb565b809150509250925092565b60008060008060808587031215612bc757600080fd5b505082516020840151604085015160609095015191969095509092509050565b600080600080600060a08688031215612bff57600080fd5b5050835160208501516040860151606087015160809097015192989197509594509092509050565b600060208284031215612c3957600080fd5b813563ffffffff811681146126ba57600080fd5b60008151808452612c65816020860160208601612e58565b601f01601f19169290920160200192915050565b60008251612c8b818460208701612e58565b9190910192915050565b6001600160a01b03841681526040602082018190528101829052818360608301376000818301606090810191909152601f909201601f1916010192915050565b60408101818360005b6002811015612d065781516001600160a01b0316835260209283019290910190600101612cde565b50505092915050565b848152608060208201526000612d286080830186612c4d565b6040830194909452506060015292915050565b6020815260006126ba6020830184612c4d565b6020808252600e908201526d141bdbdb081a5cc81c185d5cd95960921b604082015260600190565b6020808252601c908201527f6d73672e73656e646572206e6f7420706f6f6c436f6d6d697474657200000000604082015260600190565b60208082526019908201527f6d73672e73656e646572206e6f7420676f7665726e616e636500000000000000604082015260600190565b6000808335601e19843603018112612dfb57600080fd5b83018035915067ffffffffffffffff821115612e1657600080fd5b602001915036819003821315612e2b57600080fd5b9250929050565b60008219821115612e5357634e487b7160e01b600052601160045260246000fd5b500190565b60005b83811015612e73578181015183820152602001612e5b565b838111156122ed5750506000910152565b600181811c90821680612e9857607f821691505b60208210811415612eb957634e487b7160e01b600052602260045260246000fd5b50919050565b634e487b7160e01b600052603260045260246000fd5b634e487b7160e01b600052604160045260246000fd5b6001600160a01b03811681146126a557600080fd5b80151581146126a557600080fdfea264697066735822122006232320333c622f2df3b8e6410374863bf96caa6154489844018600d9fd7f1c64736f6c634300080700336080604052600180546001600160801b0319168117905534801561002257600080fd5b50614c5b806100326000396000f3fe6080604052600436106102465760003560e01c806390f712cc11610139578063c45a0155116100b6578063e323aac61161007a578063e323aac6146107fd578063ea348c9a1461081d578063f14fcbc814610874578063f9dc972014610887578063fa871665146108a7578063fe589858146108bc57600080fd5b8063c45a01551461076b578063c70db3231461078b578063ce660916146107b1578063d4c4e283146107c7578063e20acc79146107dc57600080fd5b8063af914976116100fd578063af914976146106c1578063b27a0484146106d7578063b59d88a914610721578063b9fc75b014610736578063c40f6aa91461075657600080fd5b806390f712cc1461057c57806397ac250f146105965780639a546848146105ac5780639d03132e146106815780639fa21dca146106a157600080fd5b80634f64b2be116101c75780635c975abb1161018b5780635c975abb146104ae5780636999b377146104df5780637403c6cd146104ff5780638456cb591461051f5780638f5b8e871461053457600080fd5b80634f64b2be146103d057806354da4992146103f057806355c10624146104325780635a64ad951461046d5780635aa6e6751461048e57600080fd5b8063384564e31161020e578063384564e3146103235780633ed4c678146103435780633f4ba83a146103635780634437152a146103785780634509017e1461039857600080fd5b8063062e0d691461024b5780631aabc7e71461027d5780631d92c26d146102ba5780631e83409a146102e1578063238a470914610303575b600080fd5b34801561025757600080fd5b50610260600081565b6040516001600160801b0390911681526020015b60405180910390f35b34801561028957600080fd5b506102ad610298366004614874565b60066020526000908152604090205460801b81565b6040516102749190614985565b3480156102c657600080fd5b506102cf600f81565b60405160ff9091168152602001610274565b3480156102ed57600080fd5b506103016102fc3660046146be565b610949565b005b34801561030f57600080fd5b5061030161031e366004614874565b610cca565b34801561032f57600080fd5b5061030161033e366004614874565b610e26565b34801561034f57600080fd5b5061030161035e3660046146be565b610f22565b34801561036f57600080fd5b50610301610fdb565b34801561038457600080fd5b506103016103933660046146be565b61106d565b3480156103a457600080fd5b506014546103b8906001600160a01b031681565b6040516001600160a01b039091168152602001610274565b3480156103dc57600080fd5b506103b86103eb366004614874565b6111c4565b3480156103fc57600080fd5b5061041061040b3660046146be565b6111e4565b6040805182518152602080840151908201529181015190820152606001610274565b34801561043e57600080fd5b5061045f61044d3660046146be565b600d6020526000908152604090205481565b604051908152602001610274565b34801561047957600080fd5b506001546102ad90600160801b900460801b81565b34801561049a57600080fd5b506011546103b8906001600160a01b031681565b3480156104ba57600080fd5b506014546104cf90600160a01b900460ff1681565b6040519015158152602001610274565b3480156104eb57600080fd5b506012546103b8906001600160a01b031681565b34801561050b57600080fd5b5061030161051a3660046146e2565b6114a8565b34801561052b57600080fd5b506103016119e4565b34801561054057600080fd5b5061055461054f3660046148ed565b611a7c565b604080519586526020860194909452928401919091526060830152608082015260a001610274565b34801561058857600080fd5b506002546102ad9060801b81565b3480156105a257600080fd5b5061045f60095481565b3480156105b857600080fd5b5061062e6105c736600461476c565b600c6020528160005260406000206020528060005260406000206000915091505080600001549080600101549080600201549080600301549080600401549080600501549080600601549080600701549080600801549080600901549080600a015490508b565b604080519b8c5260208c019a909a52988a01979097526060890195909552608088019390935260a087019190915260c086015260e085015261010084015261012083015261014082015261016001610274565b34801561068d57600080fd5b50600154610260906001600160801b031681565b3480156106ad57600080fd5b506103016106bc3660046146be565b611f7b565b3480156106cd57600080fd5b5061045f600a5481565b3480156106e357600080fd5b506107136106f2366004614874565b600560205260009081526040902054608081811b91600160801b9004901b82565b60405161027492919061499a565b34801561072d57600080fd5b5061045f612598565b34801561074257600080fd5b5061045f61075136600461476c565b612634565b34801561076257600080fd5b50610260600181565b34801561077757600080fd5b506010546103b8906001600160a01b031681565b34801561079757600080fd5b506000546103b8906201000090046001600160a01b031681565b3480156107bd57600080fd5b5061045f60085481565b3480156107d357600080fd5b50610260612665565b3480156107e857600080fd5b506002546102ad90600160801b900460801b81565b34801561080957600080fd5b506013546103b8906001600160a01b031681565b34801561082957600080fd5b506108596108383660046146be565b60076020526000908152604090208054600182015460029092015490919083565b60408051938452602084019290925290820152606001610274565b610301610882366004614874565b612885565b34801561089357600080fd5b506103016108a2366004614874565b612ef1565b3480156108b357600080fd5b5061045f61303a565b3480156108c857600080fd5b506109146108d7366004614874565b600b602052600090815260409020805460018201546002830154600384015460048501546005860154600690960154949593949293919290919087565b604080519788526020880196909652948601939093526060850191909152608084015260a083015260c082015260e001610274565b80336001600160a01b038216148061097157506000546201000090046001600160a01b031633145b6109d05760405162461bcd60e51b815260206004820152602560248201527f6d73672e73656e646572206e6f7420636f6d6d6974746572206f72204175746f604482015264436c61696d60d81b60648201526084015b60405180910390fd5b6109d982611f7b565b6001600160a01b0380831660008181526007602081815260408084208151606081018352815481526001820180548286015260028301805483860152601354898952969095529186905590859055918490555190949190911692917f0c7ef932d3b91976772937f18d5ef9b39a9930bef486b576c374f047c4b512dc91a2336001600160a01b038516148015610af45750600054604051631107d3c960e31b81526001600160a01b038681166004830152306024830152620100009092049091169063883e9e489060440160206040518083038186803b158015610abc57600080fd5b505afa158015610ad0573d6000803e3d6000fd5b505050506040513d601f19601f82011682018060405250810190610af49190614828565b15610b60576000546040516307119aeb60e01b81526001600160a01b03868116600483015262010000909204909116906307119aeb90602401600060405180830381600087803b158015610b4757600080fd5b505af1158015610b5b573d6000803e3d6000fd5b505050505b604082015115610bd457604082810151905163d0b06f0960e01b81526001600160a01b03868116600483015260248201929092529082169063d0b06f0990604401600060405180830381600087803b158015610bbb57600080fd5b505af1158015610bcf573d6000803e3d6000fd5b505050505b815115610c4957815160405163110b1bed60e01b8152600160048201526001600160a01b03868116602483015260448201929092529082169063110b1bed90606401600060405180830381600087803b158015610c3057600080fd5b505af1158015610c44573d6000803e3d6000fd5b505050505b602082015115610cc457602082015160405163110b1bed60e01b8152600060048201526001600160a01b03868116602483015260448201929092529082169063110b1bed90606401600060405180830381600087803b158015610cab57600080fd5b505af1158015610cbf573d6000803e3d6000fd5b505050505b50505050565b6012546001600160a01b03163314610cf45760405162461bcd60e51b81526004016109c7906149ec565b604051636fedf26d60e11b815260048101829052735470E49593bc68759A3035bF36B0501Ca31818669063dfdbe4da9060240160206040518083038186803b158015610d3f57600080fd5b505af4158015610d53573d6000803e3d6000fd5b505050506040513d601f19601f82011682018060405250810190610d77919061484a565b60018054608092831c600160801b9081026001600160801b039092169190911791829055668075782dace9d960c71b910490911b6001600160801b03191610610df85760405162461bcd60e51b81526020600482015260136024820152724d696e74696e6720666565203e3d203130302560681b60448201526064016109c7565b60405181907f07aefbcc0d8cdf34e241279c78d93d1df9540b5a60d320437958df12ef59e46390600090a250565b6012546001600160a01b03163314610e505760405162461bcd60e51b81526004016109c7906149ec565b604051636fedf26d60e11b815260048101829052735470E49593bc68759A3035bF36B0501Ca31818669063dfdbe4da9060240160206040518083038186803b158015610e9b57600080fd5b505af4158015610eaf573d6000803e3d6000fd5b505050506040513d601f19601f82011682018060405250810190610ed3919061484a565b6002805460809290921c600160801b026001600160801b0390921691909117905560405181907f1f609e633399cb8530717d1970d31255fae2af322c2c3b90793cc1c1a7fe88be90600090a250565b6011546001600160a01b0316331480610f4557506012546001600160a01b031633145b610f915760405162461bcd60e51b815260206004820152601860248201527f43616e6e6f742073657420666565436f6e74726f6c6c6572000000000000000060448201526064016109c7565b601280546001600160a01b0319166001600160a01b0383169081179091556040517f4645d48e2e83635dc48865c27880f748bc610aab2e41ca3358057b565ff56a5790600090a250565b6011546001600160a01b031633146110355760405162461bcd60e51b815260206004820152601960248201527f6d73672e73656e646572206e6f7420676f7665726e616e63650000000000000060448201526064016109c7565b6014805460ff60a01b191690556040517fa45f47fdea8a1efdd9029a5691c7f759c32b7c698632b563573e155625d1693390600090a1565b6010546001600160a01b031633146110c05760405162461bcd60e51b8152602060048201526016602482015275436f6d6d69747465723a206e6f7420666163746f727960501b60448201526064016109c7565b6001600160a01b0381166111295760405162461bcd60e51b815260206004820152602a60248201527f4c657665726167656420706f6f6c20616464726573732063616e6e6f742062656044820152692030206164647265737360b01b60648201526084016109c7565b601380546001600160a01b0319166001600160a01b0383169081179091556040805163369f189f60e11b81528151636d3e313e92600480840193919291829003018186803b15801561117a57600080fd5b505afa15801561118e573d6000803e3d6000fd5b505050506040513d601f19601f820116820180604052508101906111b29190614798565b6111c09060039060026145e0565b5050565b600381600281106111d457600080fd5b01546001600160a01b0316905081565b61120860405180606001604052806000815260200160008152602001600081525090565b6001600160a01b0382166000818152600760209081526040808320815160608082018452825482526001808401548387015260029093015482850152835160e08101855292546001600160801b0316835282850186905282840186905282018590526080820185905260a0820185905260c08201859052948452600e835281842080548351818602810186019094528084529194939091908301828280156112cf57602002820191906000526020600020905b8154815260200190600101908083116112bb575b5050835193945050600f831091506112ea905057600f6112ec565b805b60ff1660c084015260005b8360c0015160ff1681101561145457600083828151811061131a5761131a614be4565b6020026020010151905080600014156113335750611442565b6001600160a01b0388166000908152600c6020908152604080832084845282529182902082516101608101845281548152600180830154938201939093526002820154938101939093526003810154606084015260048101546080840152600581015460a0840152600681015460c0840152600781015460e084015260088101546101008401526009810154610120840152600a0154610140830181905290546001600160801b0316111561143f5760008060006113f08461307c565b9450505092509250828960200181815161140a9190614af4565b905250604089018051839190611421908390614af4565b905250606089018051829190611438908390614af4565b9052505050505b50505b8061144c81614b87565b9150506112f7565b50602083015184518590611469908390614af4565b9052506040830151602085018051611482908390614af4565b905250606083015160408501805161149b908390614af4565b9052509295945050505050565b600054610100900460ff16806114c1575060005460ff16155b6115245760405162461bcd60e51b815260206004820152602e60248201527f496e697469616c697a61626c653a20636f6e747261637420697320616c72656160448201526d191e481a5b9a5d1a585b1a5e995960921b60648201526084016109c7565b600054610100900460ff16158015611546576000805461ffff19166101011790555b6001600160a01b0389166115955760405162461bcd60e51b8152602060048201526016602482015275119858dd1bdc9e4818d85b9b9bdd081899481b9d5b1b60521b60448201526064016109c7565b6001600160a01b0388166115eb5760405162461bcd60e51b815260206004820181905260248201527f4175746f436c61696d20616464726573732063616e6e6f74206265206e756c6c60448201526064016109c7565b6001600160a01b0386166116415760405162461bcd60e51b815260206004820152601d60248201527f66656520636f6e74726f6c6c65722063616e6e6f74206265206e756c6c00000060448201526064016109c7565b6001600160a01b0385166116975760405162461bcd60e51b815260206004820152601d60248201527f696e76617269616e74436865636b2063616e6e6f74206265206e756c6c00000060448201526064016109c7565b600180546001600160801b03191681179055601080546001600160a01b038b81166001600160a01b0319928316179092556014805492881692909116919091179055604051636fedf26d60e11b815260048101859052735470E49593bc68759A3035bF36B0501Ca31818669063dfdbe4da9060240160206040518083038186803b15801561172457600080fd5b505af4158015611738573d6000803e3d6000fd5b505050506040513d601f19601f8201168201806040525081019061175c919061484a565b6001805460809290921c600160801b026001600160801b03909216919091179055604051636fedf26d60e11b815260048101849052735470E49593bc68759A3035bF36B0501Ca31818669063dfdbe4da9060240160206040518083038186803b1580156117c857600080fd5b505af41580156117dc573d6000803e3d6000fd5b505050506040513d601f19601f82011682018060405250810190611800919061484a565b60028054608092831c6001600160801b031991821617909155600154668075782dace9d960c71b600160801b90910490921b16106118765760405162461bcd60e51b81526020600482015260136024820152724d696e74696e6720666565203e3d203130302560681b60448201526064016109c7565b60025466201bb1a2bc2ec560c91b60809190911b6001600160801b031916106118d65760405162461bcd60e51b81526020600482015260126024820152714275726e696e6720666565203e3d2031302560701b60448201526064016109c7565b604051636fedf26d60e11b815260048101839052735470E49593bc68759A3035bF36B0501Ca31818669063dfdbe4da9060240160206040518083038186803b15801561192157600080fd5b505af4158015611935573d6000803e3d6000fd5b505050506040513d601f19601f82011682018060405250810190611959919061484a565b6002805460809290921c600160801b026001600160801b03909216919091179055601280546001600160a01b038089166001600160a01b031992831617909255600080548b8416620100000262010000600160b01b031990911617905560118054928a169290911691909117905580156119d9576000805461ff00191690555b505050505050505050565b6014546001600160a01b03163314611a3e5760405162461bcd60e51b815260206004820152601d60248201527f6d73672e73656e646572206e6f7420696e76617269616e74436865636b00000060448201526064016109c7565b6014805460ff60a01b1916600160a01b1790556040517f9e87fac88ff661f02d44f95383c817fece4bce600a3dab7a54406878b965e75290600090a1565b60135460009081908190819081906001600160a01b03163314611ae15760405162461bcd60e51b815260206004820152601c60248201527f6d73672e73656e646572206e6f74206c6576657261676564506f6f6c0000000060448201526064016109c7565b6040805160a081018083526003546318160ddd60e01b90915291516001926000929182916001600160a01b0316906318160ddd9060a480850191602091818703018186803b158015611b3257600080fd5b505afa158015611b46573d6000803e3d6000fd5b505050506040513d601f19601f82011682018060405250810190611b6a91906148b0565b8152602001600360010160009054906101000a90046001600160a01b03166001600160a01b03166318160ddd6040518163ffffffff1660e01b815260040160206040518083038186803b158015611bc057600080fd5b505afa158015611bd4573d6000803e3d6000fd5b505050506040513d601f19601f82011682018060405250810190611bf891906148b0565b81526000602080830182905260408084018390526060938401929092528351918401919091528201519082015290505b600f60ff831611611dc257611c4060ff83168b614b2e565b611c4a908c614af4565b4210611db257600180546001600160801b03908116608084810182815260028054600094855260066020818152604080882080546001600160801b031916949099169390931790975592518552600b865293849020845160e081018652815481529681015487870152908101549386019390935260038301546060860152600483015491850191909152600582015460a0850152015460c0830152825190830151611cf89291908c8c6131d8565b6020850192909252918352608080840151600254604051949d50929b50927f260463f9bbb6d40c58e9fc4e09a71c3f80fc18d818d6d9d5df86b2443722a59f92611d43921b90614985565b60405180910390a260808101516000908152600b6020526040812081815560018082018390556002820183905560038201839055600482018390556005820183905560069091019190915580546001600160801b038082168301166001600160801b0319909116179055611db7565b611dc2565b600182019150611c28565b8051604051635cf4ee9160e01b8152600481018b90526024810191909152611eed90735470E49593bc68759A3035bF36B0501Ca318186690635cf4ee919060440160206040518083038186803b158015611e1b57600080fd5b505af4158015611e2f573d6000803e3d6000fd5b505050506040513d601f19601f82011682018060405250810190611e53919061484a565b6020830151604051635cf4ee9160e01b8152735470E49593bc68759A3035bF36B0501Ca318186691635cf4ee9191611e98918e91600401918252602082015260400190565b60206040518083038186803b158015611eb057600080fd5b505af4158015611ec4573d6000803e3d6000fd5b505050506040513d601f19601f82011682018060405250810190611ee8919061484a565b613904565b611ef8600183614b64565b611f059060ff168b614b2e565b611f0f908c614af4565b4210611f3e57611f20600183614b64565b611f2d9060ff168b614b2e565b611f37908c614af4565b9a50611f42565b429a505b60408101518151611f539190614b4d565b81606001518260200151611f679190614b4d565b909c909b999a509798979650505050505050565b6001600160a01b0381166000818152600760209081526040808320815160e0810183526001546001600160801b03168152808401859052808301859052606081018590526080810185905260a0810185905260c08101859052948452600e835281842080548351818602810186019094528084529195949390919083018282801561202557602002820191906000526020600020905b815481526020019060010190808311612011575b5050835193945050600f83109150612040905057600f612042565b805b60ff1660c084015260005b8360c0015160ff1681101561239a57600083828151811061207057612070614be4565b6020026020010151905080600014156120895750612388565b6001600160a01b0387166000908152600c6020908152604080832084845282529182902082516101608101845281548152600180830154938201939093526002820154938101939093526003810154606084015260048101546080840152600581015460a0840152600681015460c0840152600781015460e084015260088101546101008401526009810154610120840152600a0154610140830181905290546001600160801b0316111561230d5760008060008060006121498661307c565b94509450945094509450848b6020018181516121659190614af4565b90525060408b01805185919061217c908390614af4565b90525060608b018051829190612193908390614af4565b90525060808b0180518491906121aa908390614af4565b90525060a08b0180518391906121c1908390614af4565b9052506001600160a01b038d166000818152600c602090815260408083208b84528252808320838155600181018490556002810184905560038101849055600481018490556005810184905560068101849055600781018490556008810184905560098101849055600a01839055928252600e905220600f8a1180156122535750805461225090600190614b4d565b89105b8015612260575080546001105b156122db578054819061227590600190614b4d565b8154811061228557612285614be4565b9060005260206000200154818a815481106122a2576122a2614be4565b9060005260206000200181905550808054806122c0576122c0614bce565b60019003818190600052602060002001600090559055612302565b808054806122eb576122eb614bce565b600190038181906000526020600020016000905590555b505050505050612385565b6001600160a01b0388166000908152600c60209081526040808320858452909152812060028101829055600581018290556009810182905560070155600f841161238557600f85848151811061236557612365614be4565b602090810291909101810151825460018101845560009384529190922001555b50505b8061239281614b87565b91505061204d565b50600f81116123f8576001600160a01b0385166000908152600e602052604081206123c491614638565b6001600160a01b0385166000908152600e60205260409020600f80546123eb929190614659565b506123f8600f6000614638565b82602001518460000160008282546124109190614af4565b9091555050604083015160018501805460009061242e908490614af4565b9091555050606083015160028501805460009061244c908490614af4565b909155505060135460408051630f77314d60e31b815281516001600160a01b039093169260009283928592637bb98a6892600480840193919291829003018186803b15801561249a57600080fd5b505afa1580156124ae573d6000803e3d6000fd5b505050506040513d601f19601f820116820180604052508101906124d291906148c9565b91509150826001600160a01b0316633c3f82528760800151836124f59190614af4565b60a08901516125049086614af4565b6040516001600160e01b031960e085901b16815260048101929092526024820152604401600060405180830381600087803b15801561254257600080fd5b505af1158015612556573d6000803e3d6000fd5b50506040516001600160a01b038b1692507fdefa4140341b4fd283af41700779361dc94f34ae245a186b3b9c187033c065549150600090a25050505050505050565b60015460405163aeb64d7d60e01b8152600091735470E49593bc68759A3035bF36B0501Ca31818669163aeb64d7d916125df91600160801b90910460801b90600401614985565b60206040518083038186803b1580156125f757600080fd5b505af415801561260b573d6000803e3d6000fd5b505050506040513d601f19601f8201168201806040525081019061262f91906148b0565b905090565b600e602052816000526040600020818154811061265057600080fd5b90600052602060002001600091509150505481565b60135460408051637de93f9360e01b815290516000926001600160a01b031691735470E49593bc68759A3035bF36B0501Ca31818669163ff9afe879142918591637de93f93916004808301926020929190829003018186803b1580156126ca57600080fd5b505afa1580156126de573d6000803e3d6000fd5b505050506040513d601f19601f8201168201806040525081019061270291906148b0565b846001600160a01b0316637bfe789a6040518163ffffffff1660e01b815260040160206040518083038186803b15801561273b57600080fd5b505afa15801561274f573d6000803e3d6000fd5b505050506040513d601f19601f82011682018060405250810190612773919061495f565b856001600160a01b031663fd2c80ae6040518163ffffffff1660e01b815260040160206040518083038186803b1580156127ac57600080fd5b505afa1580156127c0573d6000803e3d6000fd5b505050506040513d601f19601f820116820180604052508101906127e4919061495f565b60015460405160e087901b6001600160e01b03191681526004810195909552602485019390935263ffffffff91821660448501521660648301526001600160801b0316608482015260a40160206040518083038186803b15801561284757600080fd5b505af415801561285b573d6000803e3d6000fd5b505050506040513d601f19601f8201168201806040525081019061287f91906148b0565b91505090565b6001600160801b03811660ff608083901c811690608884901c811690609085901c16836128f45760405162461bcd60e51b815260206004820152601760248201527f416d6f756e74206d757374206e6f74206265207a65726f00000000000000000060448201526064016109c7565b6128fd33611f7b565b60135460408051637e96405760e11b815290516001600160a01b0390921691600091839163fd2c80ae91600480820192602092909190829003018186803b15801561294757600080fd5b505afa15801561295b573d6000803e3d6000fd5b505050506040513d601f19601f8201168201806040525081019061297f919061495f565b63ffffffff1690506000826001600160a01b0316637de93f936040518163ffffffff1660e01b815260040160206040518083038186803b1580156129c257600080fd5b505afa1580156129d6573d6000803e3d6000fd5b505050506040513d601f19601f820116820180604052508101906129fa91906148b0565b90506000836001600160a01b0316637bfe789a6040518163ffffffff1660e01b815260040160206040518083038186803b158015612a3757600080fd5b505afa158015612a4b573d6000803e3d6000fd5b505050506040513d601f19601f82011682018060405250810190612a6f919061495f565b60015460405160016265017960e01b031981524260048201526024810185905263ffffffff9290921660448301819052606483018690526001600160801b0390911660848301529150600090735470E49593bc68759A3035bF36B0501Ca31818669063ff9afe879060a40160206040518083038186803b158015612af257600080fd5b505af4158015612b06573d6000803e3d6000fd5b505050506040513d601f19601f82011682018060405250810190612b2a91906148b0565b6000818152600b60209081526040808320338452600c8352818420858552909252909120600a8101549293509091612b6457600a81018390555b6006820154612b7557600682018390555b336000908152600e6020526040902054801580612bc65750336000908152600e602052604090208490612ba9600184614b4d565b81548110612bb957612bb9614be4565b9060005260206000200154105b15612bee57336000908152600e60209081526040822080546001810182559083529120018490555b60028b6005811115612c0257612c02614bb8565b1480612c1f575060008b6005811115612c1d57612c1d614bb8565b145b8015612c285750895b15612cb757336000908152600760205260409020600201548c1115612c8f5760405162461bcd60e51b815260206004820152601e60248201527f496e73756666696369656e7420736574746c656d656e7420746f6b656e73000060448201526064016109c7565b33600090815260076020526040812060020180548e9290612cb1908490614b4d565b90915550505b612cc5888c8e8d8688613d38565b60028b6005811115612cd957612cd9614bb8565b1480612cff575060008b6005811115612cf457612cf4614bb8565b148015612cff575089155b15612d7157601354604051630348287760e21b81523360048201526001600160a01b039182166024820152604481018e905290891690630d20a1dc90606401600060405180830381600087803b158015612d5857600080fd5b505af1158015612d6c573d6000803e3d6000fd5b505050505b8815612e225734612db95760405162461bcd60e51b81526020600482015260126024820152714d7573742070617920666f7220636c61696d60701b60448201526064016109c7565b600054604051634da17a3f60e11b8152336004820152620100009091046001600160a01b031690639b42f47e9034906024016000604051808303818588803b158015612e0457600080fd5b505af1158015612e18573d6000803e3d6000fd5b5050505050612e69565b3415612e695760405162461bcd60e51b81526020600482015260166024820152756d73672e76616c7565206d757374206265207a65726f60501b60448201526064016109c7565b8a6005811115612e7b57612e7b614bb8565b600154604080518781528d151560208201528c151591810191909152600160801b909104608090811b6001600160801b03191660608301528e9133917f04f9dae5361dfaa5b3f324fc0af5e71bcb4d76e8324ad9ce78d70496c548d503910160405180910390a450505050505050505050505050565b6012546001600160a01b03163314612f1b5760405162461bcd60e51b81526004016109c7906149ec565b604051636fedf26d60e11b815260048101829052735470E49593bc68759A3035bF36B0501Ca31818669063dfdbe4da9060240160206040518083038186803b158015612f6657600080fd5b505af4158015612f7a573d6000803e3d6000fd5b505050506040513d601f19601f82011682018060405250810190612f9e919061484a565b60028054608092831c6001600160801b0319918216179182905566201bb1a2bc2ec560c91b9190921b9091161061300c5760405162461bcd60e51b81526020600482015260126024820152714275726e696e6720666565203e3d2031302560701b60448201526064016109c7565b60405181907f9bd544d4dd4e5359b6126812d7f52828638adf3d7beab61310fab58b27d811cc90600090a250565b60025460405163aeb64d7d60e01b8152600091735470E49593bc68759A3035bF36B0501Ca31818669163aeb64d7d916125df9160809190911b90600401614985565b60408051610160810182526101408084018051600090815260056020818152868320546001600160801b0319608091821b811688528551855292825287842054600160801b9004811b8316828801526001546001600160801b0316878901528451606080890191909152895182890152828a015160a089015289015160c080890191909152818a015160e0890152610100808b01519089015289015161012088015293518352600690528582205490921b909116918301919091529151639eb17fa360e01b81528291829182918291735470E49593bc68759A3035bF36B0501Ca318186690639eb17fa390613175908490600401614a23565b60a06040518083038186803b15801561318d57600080fd5b505af41580156131a1573d6000803e3d6000fd5b505050506040513d601f19601f820116820180604052508101906131c5919061491f565b939b929a50909850965090945092505050565b60c0850180516000908152600b6020526040808220600201549251825281205460085491928392839283929161320e9190614b4d565b6132189190614b4d565b6008819055506000604051806101000160405280878c6040015161323c9190614af4565b8152602001888c600001516132519190614af4565b8152602001600081526020016000815260200160008152602001600081526020018b60a001518c602001516132869190614af4565b81526020018b608001518c6060015161329f9190614af4565b81525090506040518060400160405280735470E49593bc68759A3035bF36B0501Ca3181866635cf4ee918a600a548e6132d89190614af4565b6040516001600160e01b031960e085901b1681526004810192909252602482015260440160206040518083038186803b15801561331457600080fd5b505af4158015613328573d6000803e3d6000fd5b505050506040513d601f19601f8201168201806040525081019061334c919061484a565b6001600160801b0319168152602001735470E49593bc68759A3035bF36B0501Ca3181866635cf4ee91896009548d6133849190614af4565b6040516001600160e01b031960e085901b1681526004810192909252602482015260440160206040518083038186803b1580156133c057600080fd5b505af41580156133d4573d6000803e3d6000fd5b505050506040513d601f19601f820116820180604052508101906133f8919061484a565b6001600160801b031916905260c08b015160009081526005602090815260409182902083519390910151608090811c600160801b0293901c9290921790915560a08b0151600a54915163debb52df60e01b8152735470E49593bc68759A3035bF36B0501Ca31818669263debb52df9261348d928e928d9160040193845260208401929092526040830152606082015260800190565b60206040518083038186803b1580156134a557600080fd5b505af41580156134b9573d6000803e3d6000fd5b505050506040513d601f19601f820116820180604052508101906134dd91906148b0565b60808201819052815182906134f3908390614af4565b90525060808a015160095460405163debb52df60e01b8152600481018b90526024810192909252604482018890526064820152735470E49593bc68759A3035bF36B0501Ca31818669063debb52df9060840160206040518083038186803b15801561355d57600080fd5b505af4158015613571573d6000803e3d6000fd5b505050506040513d601f19601f8201168201806040525081019061359591906148b0565b60a082018190526020820180516135ad908390614af4565b90525060a08101518a51735470E49593bc68759A3035bF36B0501Ca31818669163ab41556f918c916135de91614af4565b600a546040516001600160e01b031960e086901b16815260048101939093526024830191909152604482018b9052606482015260840160206040518083038186803b15801561362c57600080fd5b505af4158015613640573d6000803e3d6000fd5b505050506040513d601f19601f8201168201806040525081019061366491906148b0565b60408083019190915260c0820151600a54915163debb52df60e01b8152735470E49593bc68759A3035bF36B0501Ca31818669263debb52df926136c3928e928d9160040193845260208401929092526040830152606082015260800190565b60206040518083038186803b1580156136db57600080fd5b505af41580156136ef573d6000803e3d6000fd5b505050506040513d601f19601f8201168201806040525081019061371391906148b0565b816020018181516137249190614b4d565b905250608081015160408b0151735470E49593bc68759A3035bF36B0501Ca31818669163ab41556f918b9161375891614af4565b6009546040516001600160e01b031960e086901b16815260048101939093526024830191909152604482018a9052606482015260840160206040518083038186803b1580156137a657600080fd5b505af41580156137ba573d6000803e3d6000fd5b505050506040513d601f19601f820116820180604052508101906137de91906148b0565b606082015260e081015160095460405163debb52df60e01b8152600481018b90526024810192909252604482018890526064820152735470E49593bc68759A3035bF36B0501Ca31818669063debb52df9060840160206040518083038186803b15801561384a57600080fd5b505af415801561385e573d6000803e3d6000fd5b505050506040513d601f19601f8201168201806040525081019061388291906148b0565b81518290613891908390614b4d565b90525060c0810151600a80546000906138ab908490614b4d565b909155505060e0810151600980546000906138c7908490614b4d565b909155505060408101516138db908a614af4565b60608201516138ea908a614af4565b60208301519251919c909b50919950975095505050505050565b6040516345e7ef9b60e01b8152600090735470E49593bc68759A3035bF36B0501Ca3181866906345e7ef9b90613940908690869060040161499a565b60206040518083038186803b15801561395857600080fd5b505af415801561396c573d6000803e3d6000fd5b505050506040513d601f19601f82011682018060405250810190613990919061484a565b604051630308593b60e31b8152909150735470E49593bc68759A3035bF36B0501Ca318186690631842c9d8906139d190613fff60f01b90859060040161499a565b60206040518083038186803b1580156139e957600080fd5b505af41580156139fd573d6000803e3d6000fd5b505050506040513d601f19601f82011682018060405250810190613a21919061488d565b60000b6000191415613bb457600154600254604051630308593b60e31b8152735470E49593bc68759A3035bF36B0501Ca318186692631842c9d892613a7e92600160801b92839004608090811b9390920490911b9060040161499a565b60206040518083038186803b158015613a9657600080fd5b505af4158015613aaa573d6000803e3d6000fd5b505050506040513d601f19601f82011682018060405250810190613ace919061488d565b60000b6000191415613aee57600180546001600160801b03169055505050565b600154600254604051630e8418dd60e01b8152735470E49593bc68759A3035bF36B0501Ca318186692630e8418dd92613b3f92600160801b92839004608090811b9390920490911b9060040161499a565b60206040518083038186803b158015613b5757600080fd5b505af4158015613b6b573d6000803e3d6000fd5b505050506040513d601f19601f82011682018060405250810190613b8f919061484a565b600160106101000a8154816001600160801b03021916908360801c0217905550505050565b600154600254604051635b597cfb60e11b8152735470E49593bc68759A3035bF36B0501Ca31818669263b6b2f9f692613c0592600160801b92839004608090811b9390920490911b9060040161499a565b60206040518083038186803b158015613c1d57600080fd5b505af4158015613c31573d6000803e3d6000fd5b505050506040513d601f19601f82011682018060405250810190613c55919061484a565b600180546001600160801b0316600160801b608093841c81029190911791829055604051630308593b60e31b8152735470E49593bc68759A3035bF36B0501Ca318186693631842c9d893613cbc939004901b90668075782dace9d960c71b9060040161499a565b60206040518083038186803b158015613cd457600080fd5b505af4158015613ce8573d6000803e3d6000fd5b505050506040513d601f19601f82011682018060405250810190613d0c919061488d565b60000b60011415613d3357600180546001600160801b0316668075782dace9d960c71b1790555b505050565b33600090815260076020908152604080832081516060810183528154815260018201549381019390935260029081015491830191909152909190876005811115613d8457613d84614bb8565b1480613da157506000876005811115613d9f57613d9f614bb8565b145b15613ef45760015460405163422051e760e01b8152600160801b90910460801b6001600160801b031916600482015260248101879052670de0b6b3a764000090735470E49593bc68759A3035bF36B0501Ca31818669063aeb64d7d90829063422051e79060440160206040518083038186803b158015613e2057600080fd5b505af4158015613e34573d6000803e3d6000fd5b505050506040513d601f19601f82011682018060405250810190613e58919061484a565b6040518263ffffffff1660e01b8152600401613e749190614985565b60206040518083038186803b158015613e8c57600080fd5b505af4158015613ea0573d6000803e3d6000fd5b505050506040513d601f19601f82011682018060405250810190613ec491906148b0565b613ece9190614b0c565b9050613eda8187614b4d565b95508560086000828254613eee9190614af4565b90915550505b6002876005811115613f0857613f08614bb8565b141561403057600080896001600160a01b0316637bb98a686040518163ffffffff1660e01b8152600401604080518083038186803b158015613f4957600080fd5b505afa158015613f5d573d6000803e3d6000fd5b505050506040513d601f19601f82011682018060405250810190613f8191906148c9565b9150915087866000016000828254613f999190614af4565b9091555050845488908690600090613fb2908490614af4565b90915550506001600160a01b038a16633c3f8252613fd08584614af4565b846040518363ffffffff1660e01b8152600401613ff7929190918252602082015260400190565b600060405180830381600087803b15801561401157600080fd5b505af1158015614025573d6000803e3d6000fd5b505050505050610cbf565b600387600581111561404457614044614bb8565b141561419b5785600a600082825461405c9190614af4565b92505081905550858460010160008282546140779190614af4565b92505081905550858360010160008282546140929190614af4565b9091555050841561416a5781518611156140be5760405162461bcd60e51b81526004016109c7906149b5565b33600090815260076020526040812080548892906140dd908490614b4d565b92505081905550858460020160008282546140f89190614af4565b90915550506013546040516387f9ca5d60e01b81526001600160a01b03808b16926387f9ca5d92614133926000928c92911690600401614aca565b600060405180830381600087803b15801561414d57600080fd5b505af1158015614161573d6000803e3d6000fd5b50505050610cbf565b6040516387f9ca5d60e01b81526001600160a01b038916906387f9ca5d90614133906000908a903390600401614aca565b60008760058111156141af576141af614bb8565b14156142a357600080896001600160a01b0316637bb98a686040518163ffffffff1660e01b8152600401604080518083038186803b1580156141f057600080fd5b505afa158015614204573d6000803e3d6000fd5b505050506040513d601f19601f8201168201806040525081019061422891906148c9565b91509150878660030160008282546142409190614af4565b925050819055508785600201600082825461425b9190614af4565b90915550506001600160a01b038a16633c3f82528261427a8686614af4565b6040516001600160e01b031960e085901b16815260048101929092526024820152604401613ff7565b60018760058111156142b7576142b7614bb8565b14156143dd5785600960008282546142cf9190614af4565b92505081905550858460040160008282546142ea9190614af4565b92505081905550858360030160008282546143059190614af4565b909155505084156143ac5781602001518611156143345760405162461bcd60e51b81526004016109c7906149b5565b3360009081526007602052604081206001018054889290614356908490614b4d565b92505081905550858460050160008282546143719190614af4565b90915550506013546040516387f9ca5d60e01b81526001600160a01b03808b16926387f9ca5d92614133926001928c92911690600401614aca565b6040516387f9ca5d60e01b81526001600160a01b038916906387f9ca5d90614133906001908a903390600401614aca565b60048760058111156143f1576143f1614bb8565b14156144a55785600a60008282546144099190614af4565b92505081905550858460080160008282546144249190614af4565b925050819055508583600501600082825461443f9190614af4565b9091555050841561416a57815186111561446b5760405162461bcd60e51b81526004016109c7906149b5565b336000908152600760205260408120805488929061448a908490614b4d565b92505081905550858460090160008282546140f89190614af4565b60058760058111156144b9576144b9614bb8565b1415610cbf5785600960008282546144d19190614af4565b92505081905550858460060160008282546144ec9190614af4565b92505081905550858360040160008282546145079190614af4565b909155505084156145735781602001518611156145365760405162461bcd60e51b81526004016109c7906149b5565b3360009081526007602052604081206001018054889290614558908490614b4d565b92505081905550858460070160008282546143719190614af4565b6040516387f9ca5d60e01b81526001600160a01b038916906387f9ca5d906145a4906001908a903390600401614aca565b600060405180830381600087803b1580156145be57600080fd5b505af11580156145d2573d6000803e3d6000fd5b505050505050505050505050565b8260028101928215614628579160200282015b8281111561462857825182546001600160a01b0319166001600160a01b039091161782556020909201916001909101906145f3565b50614634929150614699565b5090565b50805460008255906000526020600020908101906146569190614699565b50565b8280548282559060005260206000209081019282156146285760005260206000209182015b8281111561462857825482559160010191906001019061467e565b5b80821115614634576000815560010161469a565b80516146b981614c10565b919050565b6000602082840312156146d057600080fd5b81356146db81614c10565b9392505050565b600080600080600080600080610100898b0312156146ff57600080fd5b883561470a81614c10565b9750602089013561471a81614c10565b9650604089013561472a81614c10565b9550606089013561473a81614c10565b9450608089013561474a81614c10565b979a969950949793969560a0850135955060c08501359460e001359350915050565b6000806040838503121561477f57600080fd5b823561478a81614c10565b946020939093013593505050565b6000604082840312156147aa57600080fd5b82601f8301126147b957600080fd5b6040516040810181811067ffffffffffffffff821117156147dc576147dc614bfa565b80604052508083856040860111156147f357600080fd5b60005b600281101561481d57614808826146ae565b835260209283019291909101906001016147f6565b509195945050505050565b60006020828403121561483a57600080fd5b815180151581146146db57600080fd5b60006020828403121561485c57600080fd5b81516001600160801b0319811681146146db57600080fd5b60006020828403121561488657600080fd5b5035919050565b60006020828403121561489f57600080fd5b81518060000b81146146db57600080fd5b6000602082840312156148c257600080fd5b5051919050565b600080604083850312156148dc57600080fd5b505080516020909101519092909150565b6000806000806080858703121561490357600080fd5b5050823594602084013594506040840135936060013592509050565b600080600080600060a0868803121561493757600080fd5b5050835160208501516040860151606087015160809097015192989197509594509092509050565b60006020828403121561497157600080fd5b815163ffffffff811681146146db57600080fd5b6001600160801b031991909116815260200190565b6001600160801b031992831681529116602082015260400190565b60208082526018908201527f496e73756666696369656e7420706f6f6c20746f6b656e730000000000000000604082015260600190565b6020808252601d908201527f6d73672e73656e646572206e6f742066656520636f6e74726f6c6c6572000000604082015260600190565b81516001600160801b031916815261016081016020830151614a5160208401826001600160801b0319169052565b5060408301516040830152606083015160608301526080830151608083015260a083015160a083015260c083015160c083015260e083015160e083015261010080840151818401525061012080840151818401525061014080840151614ac2828501826001600160801b0319169052565b505092915050565b6001600160801b0393909316835260208301919091526001600160a01b0316604082015260600190565b60008219821115614b0757614b07614ba2565b500190565b600082614b2957634e487b7160e01b600052601260045260246000fd5b500490565b6000816000190483118215151615614b4857614b48614ba2565b500290565b600082821015614b5f57614b5f614ba2565b500390565b600060ff821660ff841680821015614b7e57614b7e614ba2565b90039392505050565b6000600019821415614b9b57614b9b614ba2565b5060010190565b634e487b7160e01b600052601160045260246000fd5b634e487b7160e01b600052602160045260246000fd5b634e487b7160e01b600052603160045260246000fd5b634e487b7160e01b600052603260045260246000fd5b634e487b7160e01b600052604160045260246000fd5b6001600160a01b038116811461465657600080fdfea26469706673582212207040cd4b1d8489514ea398b22aa4883b68e9f8b691158c6b0014690eb6e6dcb464736f6c63430008070033",
  "libraries": {
    "PoolSwapLibrary": "0x5470E49593bc68759A3035bF36B0501Ca3181866"
  },
  "devdoc": {
    "kind": "dev",
    "methods": {
      "claimGovernance()": {
        "details": "Second and final step of the two-step governance transfer processSee `transferGovernance`Sets the governance transfer flag to falseAfter a successful call to this function, the actual governance      address and the provisional governance address MUST be equal."
      },
      "deployPool((string,uint32,uint32,uint16,address,address,address,address,uint256,uint256,uint256))": {
        "details": "Throws if pool keeper is nullThrows if deployer does not own the oracle wrapperThrows if leverage amount is invalidThrows if decimal precision is too high (i.e., greater than `MAX_DECIMALS`)The IOracleWrapper declares a `deployer` variable, this is used here to confirm that the pool which uses said oracle wrapper is indeed      the intended address. This is to prevent a griefing attack in which someone uses the same oracle wrapper with the same parameters *before* the genuine deployer.",
        "params": {
          "deploymentParameters": "Deployment parameters of the market. Some may be reconfigurable."
        },
        "returns": {
          "_0": "Address of the created pool"
        }
      },
      "setAutoClaim(address)": {
        "details": "Throws if provided address is nullOnly callable by the owner",
        "params": {
          "_autoClaim": "Address of the `AutoClaim`"
        }
      },
      "setFee(uint256)": {
        "details": "This is a percentage in WAD; multiplied by 10^18 e.g. 5% is 0.05 * 10^18Throws if fee is greater than 10%Emits a `FeeChanged` event on success",
        "params": {
          "_fee": "The fee amount as a percentage"
        }
      },
      "setFeeReceiver(address)": {
        "details": "Only callable by the owner of this contractThis fuction does not change anything for already deployed pools, only pools deployed after the changeEmits a `FeeReceiverChanged` event on success",
        "params": {
          "_feeReceiver": "address of fee receiver"
        }
      },
      "setInvariantCheck(address)": {
        "details": "Throws if provided address is nullOnly callable by the owner",
        "params": {
          "_invariantCheck": "Address of the `InvariantCheck`"
        }
      },
      "setPoolKeeper(address)": {
        "details": "Throws if provided address is nullOnly callable by the ownerEmits a `PoolKeeperChanged` event on success",
        "params": {
          "_poolKeeper": "Address of the `PoolKeeper`"
        }
      },
      "setSecondaryFeeSplitPercent(uint256)": {
        "details": "Only callable by the owner of this contractThrows if `newFeePercent` exceeds 100Emits a `SecondaryFeeSplitChanged` event on success",
        "params": {
          "newFeePercent": "Proportion of fees to split"
        }
      },
      "transferGovernance(address)": {
        "details": "First step of the two-step governance transfer processSets the governance transfer flag to trueSee `claimGovernance`",
        "params": {
          "_governance": "New address of the governance of the pool"
        }
      }
    },
    "title": "The pool factory contract",
    "version": 1
  },
  "userdoc": {
    "events": {
      "AutoClaimChanged(address)": {
        "notice": "Indicates that the AutoClaim contract has changed"
      },
      "DeployCommitter(address,address,address,uint256,address)": {
        "notice": "Creates a notification when a PoolCommitter is deployed"
      },
      "DeployPool(address,address,string)": {
        "notice": "Creates a notification when a pool is deployed"
      },
      "FeeChanged(uint256)": {
        "notice": "Indicates that the trading fee has changed"
      },
      "FeeReceiverChanged(address)": {
        "notice": "Indicates that the receipient of fees has changed"
      },
      "GovernanceAddressChanged(address,address)": {
        "notice": "Represents change in governance address"
      },
      "InvariantCheckChanged(address)": {
        "notice": "Indicates that the InvariantCheck contract has changed"
      },
      "MaxLeverageChanged(uint256)": {
        "notice": "Indicates that the maximum allowed leverage has changed"
      },
      "MintAndBurnFeesChanged(uint256,uint256)": {
        "notice": "Indicates that the minting and burning fees have changed"
      },
      "PoolKeeperChanged(address)": {
        "notice": "Creates a notification when the pool keeper changes"
      },
      "ProvisionalGovernanceChanged(address)": {
        "notice": "Represents proposed change in governance address"
      },
      "SecondaryFeeSplitChanged(uint256)": {
        "notice": "Indicates that the receipient of fees has changed"
      }
    },
    "kind": "user",
    "methods": {
      "claimGovernance()": {
        "notice": "Completes transfer of governance by actually changing permissions          over the pool."
      },
      "deployPool((string,uint32,uint32,uint16,address,address,address,address,uint256,uint256,uint256))": {
        "notice": "Deploy a leveraged pool and its committer/pool tokens with given parametersRebasing tokens are not supported and will break functionality"
      },
      "isValidPool(address)": {
        "notice": "Format: Pool address => validity"
      },
      "isValidPoolCommitter(address)": {
        "notice": "Format: PoolCommitter address => validity"
      },
      "pools(uint256)": {
        "notice": "Format: Pool counter => pool address"
      },
      "setAutoClaim(address)": {
        "notice": "Sets the address of the associated `AutoClaim` contract"
      },
      "setFee(uint256)": {
        "notice": "Set the yearly fee amount. The max yearly fee is 10%"
      },
      "setFeeReceiver(address)": {
        "notice": "Sets the primary fee receiver of deployed Leveraged pools."
      },
      "setInvariantCheck(address)": {
        "notice": "Sets the address of the associated `InvariantCheck` contract"
      },
      "setPoolKeeper(address)": {
        "notice": "Sets the address of the associated `PoolKeeper` contract"
      },
      "setSecondaryFeeSplitPercent(uint256)": {
        "notice": "Sets the proportion of fees to be split to the nominated secondary fees recipient"
      },
      "transferGovernance(address)": {
        "notice": "Starts to transfer governance of the pool. The new governance          address must call `claimGovernance` in order for this to take          effect. Until this occurs, the existing governance address          remains in control of the pool."
      }
    },
    "version": 1
  },
  "storageLayout": {
    "storage": [
      {
        "astId": 12441,
        "contract": "contracts/implementation/PoolFactory.sol:PoolFactory",
        "label": "poolKeeper",
        "offset": 0,
        "slot": "0",
        "type": "t_contract(IPoolKeeper)15204"
      },
      {
        "astId": 12445,
        "contract": "contracts/implementation/PoolFactory.sol:PoolFactory",
        "label": "autoClaim",
        "offset": 0,
        "slot": "1",
        "type": "t_address"
      },
      {
        "astId": 12447,
        "contract": "contracts/implementation/PoolFactory.sol:PoolFactory",
        "label": "invariantCheck",
        "offset": 0,
        "slot": "2",
        "type": "t_address"
      },
      {
        "astId": 12450,
        "contract": "contracts/implementation/PoolFactory.sol:PoolFactory",
        "label": "governance",
        "offset": 0,
        "slot": "3",
        "type": "t_address"
      },
      {
        "astId": 12453,
        "contract": "contracts/implementation/PoolFactory.sol:PoolFactory",
        "label": "governanceTransferInProgress",
        "offset": 20,
        "slot": "3",
        "type": "t_bool"
      },
      {
        "astId": 12456,
        "contract": "contracts/implementation/PoolFactory.sol:PoolFactory",
        "label": "provisionalGovernance",
        "offset": 0,
        "slot": "4",
        "type": "t_address"
      },
      {
        "astId": 12458,
        "contract": "contracts/implementation/PoolFactory.sol:PoolFactory",
        "label": "fee",
        "offset": 0,
        "slot": "5",
        "type": "t_uint256"
      },
      {
        "astId": 12461,
        "contract": "contracts/implementation/PoolFactory.sol:PoolFactory",
        "label": "secondaryFeeSplitPercent",
        "offset": 0,
        "slot": "6",
        "type": "t_uint256"
      },
      {
        "astId": 12472,
        "contract": "contracts/implementation/PoolFactory.sol:PoolFactory",
        "label": "feeReceiver",
        "offset": 0,
        "slot": "7",
        "type": "t_address"
      },
      {
        "astId": 12478,
        "contract": "contracts/implementation/PoolFactory.sol:PoolFactory",
        "label": "pools",
        "offset": 0,
        "slot": "8",
        "type": "t_mapping(t_uint256,t_address)"
      },
      {
        "astId": 12481,
        "contract": "contracts/implementation/PoolFactory.sol:PoolFactory",
        "label": "numPools",
        "offset": 0,
        "slot": "9",
        "type": "t_uint256"
      },
      {
        "astId": 12487,
        "contract": "contracts/implementation/PoolFactory.sol:PoolFactory",
        "label": "isValidPool",
        "offset": 0,
        "slot": "10",
        "type": "t_mapping(t_address,t_bool)"
      },
      {
        "astId": 12493,
        "contract": "contracts/implementation/PoolFactory.sol:PoolFactory",
        "label": "isValidPoolCommitter",
        "offset": 0,
        "slot": "11",
        "type": "t_mapping(t_address,t_bool)"
      }
    ],
    "types": {
      "t_address": {
        "encoding": "inplace",
        "label": "address",
        "numberOfBytes": "20"
      },
      "t_bool": {
        "encoding": "inplace",
        "label": "bool",
        "numberOfBytes": "1"
      },
      "t_contract(IPoolKeeper)15204": {
        "encoding": "inplace",
        "label": "contract IPoolKeeper",
        "numberOfBytes": "20"
      },
      "t_mapping(t_address,t_bool)": {
        "encoding": "mapping",
        "key": "t_address",
        "label": "mapping(address => bool)",
        "numberOfBytes": "32",
        "value": "t_bool"
      },
      "t_mapping(t_uint256,t_address)": {
        "encoding": "mapping",
        "key": "t_uint256",
        "label": "mapping(uint256 => address)",
        "numberOfBytes": "32",
        "value": "t_address"
      },
      "t_uint256": {
        "encoding": "inplace",
        "label": "uint256",
        "numberOfBytes": "32"
      }
    }
  }
}