{
    "address": "0x0896Fd59b574f536751c82B8Dd9fd9466af009aC",
    "abi": [
        {
            "inputs": [
                {
                    "internalType": "address",
                    "name": "_feeReceiver",
                    "type": "address"
                },
                {
                    "internalType": "address",
                    "name": "_governance",
                    "type": "address"
                }
            ],
            "stateMutability": "nonpayable",
            "type": "constructor"
        },
        {
            "anonymous": false,
            "inputs": [
                {
                    "indexed": true,
                    "internalType": "address",
                    "name": "autoClaim",
                    "type": "address"
                }
            ],
            "name": "AutoClaimChanged",
            "type": "event"
        },
        {
            "anonymous": false,
            "inputs": [
                {
                    "indexed": false,
                    "internalType": "address",
                    "name": "poolCommitterAddress",
                    "type": "address"
                },
                {
                    "indexed": false,
                    "internalType": "address",
                    "name": "settlementToken",
                    "type": "address"
                },
                {
                    "indexed": false,
                    "internalType": "address",
                    "name": "pool",
                    "type": "address"
                },
                {
                    "indexed": false,
                    "internalType": "uint256",
                    "name": "changeInterval",
                    "type": "uint256"
                },
                {
                    "indexed": false,
                    "internalType": "address",
                    "name": "feeController",
                    "type": "address"
                }
            ],
            "name": "DeployCommitter",
            "type": "event"
        },
        {
            "anonymous": false,
            "inputs": [
                {
                    "indexed": true,
                    "internalType": "address",
                    "name": "pool",
                    "type": "address"
                },
                {
                    "indexed": false,
                    "internalType": "address",
                    "name": "poolCommitter",
                    "type": "address"
                },
                {
                    "indexed": false,
                    "internalType": "string",
                    "name": "ticker",
                    "type": "string"
                }
            ],
            "name": "DeployPool",
            "type": "event"
        },
        {
            "anonymous": false,
            "inputs": [
                {
                    "indexed": false,
                    "internalType": "address",
                    "name": "_token",
                    "type": "address"
                },
                {
                    "indexed": false,
                    "internalType": "uint256",
                    "name": "fee",
                    "type": "uint256"
                },
                {
                    "indexed": false,
                    "internalType": "address",
                    "name": "_receiver",
                    "type": "address"
                }
            ],
            "name": "DeploymentFeeChanged",
            "type": "event"
        },
        {
            "anonymous": false,
            "inputs": [
                {
                    "indexed": true,
                    "internalType": "uint256",
                    "name": "fee",
                    "type": "uint256"
                }
            ],
            "name": "FeeChanged",
            "type": "event"
        },
        {
            "anonymous": false,
            "inputs": [
                {
                    "indexed": true,
                    "internalType": "address",
                    "name": "receiver",
                    "type": "address"
                }
            ],
            "name": "FeeReceiverChanged",
            "type": "event"
        },
        {
            "anonymous": false,
            "inputs": [
                {
                    "indexed": true,
                    "internalType": "address",
                    "name": "oldAddress",
                    "type": "address"
                },
                {
                    "indexed": true,
                    "internalType": "address",
                    "name": "newAddress",
                    "type": "address"
                }
            ],
            "name": "GovernanceAddressChanged",
            "type": "event"
        },
        {
            "anonymous": false,
            "inputs": [
                {
                    "indexed": true,
                    "internalType": "address",
                    "name": "invariantCheck",
                    "type": "address"
                }
            ],
            "name": "InvariantCheckChanged",
            "type": "event"
        },
        {
            "anonymous": false,
            "inputs": [
                {
                    "indexed": true,
                    "internalType": "uint256",
                    "name": "leverage",
                    "type": "uint256"
                }
            ],
            "name": "MaxLeverageChanged",
            "type": "event"
        },
        {
            "anonymous": false,
            "inputs": [
                {
                    "indexed": true,
                    "internalType": "uint256",
                    "name": "mint",
                    "type": "uint256"
                },
                {
                    "indexed": true,
                    "internalType": "uint256",
                    "name": "burn",
                    "type": "uint256"
                }
            ],
            "name": "MintAndBurnFeesChanged",
            "type": "event"
        },
        {
            "anonymous": false,
            "inputs": [
                {
                    "indexed": false,
                    "internalType": "address",
                    "name": "_poolKeeper",
                    "type": "address"
                }
            ],
            "name": "PoolKeeperChanged",
            "type": "event"
        },
        {
            "anonymous": false,
            "inputs": [
                {
                    "indexed": true,
                    "internalType": "address",
                    "name": "newAddress",
                    "type": "address"
                }
            ],
            "name": "ProvisionalGovernanceChanged",
            "type": "event"
        },
        {
            "anonymous": false,
            "inputs": [
                {
                    "indexed": true,
                    "internalType": "uint256",
                    "name": "fee",
                    "type": "uint256"
                }
            ],
            "name": "SecondaryFeeSplitChanged",
            "type": "event"
        },
        {
            "inputs": [],
            "name": "autoClaim",
            "outputs": [
                {
                    "internalType": "address",
                    "name": "",
                    "type": "address"
                }
            ],
            "stateMutability": "view",
            "type": "function"
        },
        {
            "inputs": [],
            "name": "claimGovernance",
            "outputs": [],
            "stateMutability": "nonpayable",
            "type": "function"
        },
        {
            "inputs": [
                {
                    "components": [
                        {
                            "internalType": "string",
                            "name": "poolName",
                            "type": "string"
                        },
                        {
                            "internalType": "uint32",
                            "name": "frontRunningInterval",
                            "type": "uint32"
                        },
                        {
                            "internalType": "uint32",
                            "name": "updateInterval",
                            "type": "uint32"
                        },
                        {
                            "internalType": "uint16",
                            "name": "leverageAmount",
                            "type": "uint16"
                        },
                        {
                            "internalType": "address",
                            "name": "settlementToken",
                            "type": "address"
                        },
                        {
                            "internalType": "address",
                            "name": "oracleWrapper",
                            "type": "address"
                        },
                        {
                            "internalType": "address",
                            "name": "settlementEthOracle",
                            "type": "address"
                        },
                        {
                            "internalType": "address",
                            "name": "feeController",
                            "type": "address"
                        },
                        {
                            "internalType": "uint256",
                            "name": "mintingFee",
                            "type": "uint256"
                        },
                        {
                            "internalType": "uint256",
                            "name": "changeInterval",
                            "type": "uint256"
                        },
                        {
                            "internalType": "uint256",
                            "name": "burningFee",
                            "type": "uint256"
                        }
                    ],
                    "internalType": "struct IPoolFactory.PoolDeployment",
                    "name": "deploymentParameters",
                    "type": "tuple"
                }
            ],
            "name": "deployPool",
            "outputs": [
                {
                    "internalType": "address",
                    "name": "",
                    "type": "address"
                }
            ],
            "stateMutability": "nonpayable",
            "type": "function"
        },
        {
            "inputs": [],
            "name": "deploymentFee",
            "outputs": [
                {
                    "internalType": "uint256",
                    "name": "",
                    "type": "uint256"
                }
            ],
            "stateMutability": "view",
            "type": "function"
        },
        {
            "inputs": [],
            "name": "deploymentFeeReceiver",
            "outputs": [
                {
                    "internalType": "address",
                    "name": "",
                    "type": "address"
                }
            ],
            "stateMutability": "view",
            "type": "function"
        },
        {
            "inputs": [],
            "name": "deploymentFeeToken",
            "outputs": [
                {
                    "internalType": "address",
                    "name": "",
                    "type": "address"
                }
            ],
            "stateMutability": "view",
            "type": "function"
        },
        {
            "inputs": [],
            "name": "fee",
            "outputs": [
                {
                    "internalType": "uint256",
                    "name": "",
                    "type": "uint256"
                }
            ],
            "stateMutability": "view",
            "type": "function"
        },
        {
            "inputs": [],
            "name": "feeReceiver",
            "outputs": [
                {
                    "internalType": "address",
                    "name": "",
                    "type": "address"
                }
            ],
            "stateMutability": "view",
            "type": "function"
        },
        {
            "inputs": [],
            "name": "getPoolKeeper",
            "outputs": [
                {
                    "internalType": "address",
                    "name": "",
                    "type": "address"
                }
            ],
            "stateMutability": "view",
            "type": "function"
        },
        {
            "inputs": [],
            "name": "governance",
            "outputs": [
                {
                    "internalType": "address",
                    "name": "",
                    "type": "address"
                }
            ],
            "stateMutability": "view",
            "type": "function"
        },
        {
            "inputs": [],
            "name": "governanceTransferInProgress",
            "outputs": [
                {
                    "internalType": "bool",
                    "name": "",
                    "type": "bool"
                }
            ],
            "stateMutability": "view",
            "type": "function"
        },
        {
            "inputs": [],
            "name": "invariantCheck",
            "outputs": [
                {
                    "internalType": "address",
                    "name": "",
                    "type": "address"
                }
            ],
            "stateMutability": "view",
            "type": "function"
        },
        {
            "inputs": [
                {
                    "internalType": "address",
                    "name": "",
                    "type": "address"
                }
            ],
            "name": "isValidPool",
            "outputs": [
                {
                    "internalType": "bool",
                    "name": "",
                    "type": "bool"
                }
            ],
            "stateMutability": "view",
            "type": "function"
        },
        {
            "inputs": [
                {
                    "internalType": "address",
                    "name": "",
                    "type": "address"
                }
            ],
            "name": "isValidPoolCommitter",
            "outputs": [
                {
                    "internalType": "bool",
                    "name": "",
                    "type": "bool"
                }
            ],
            "stateMutability": "view",
            "type": "function"
        },
        {
            "inputs": [],
            "name": "numPools",
            "outputs": [
                {
                    "internalType": "uint256",
                    "name": "",
                    "type": "uint256"
                }
            ],
            "stateMutability": "view",
            "type": "function"
        },
        {
            "inputs": [],
            "name": "pairTokenBaseAddress",
            "outputs": [
                {
                    "internalType": "address",
                    "name": "",
                    "type": "address"
                }
            ],
            "stateMutability": "view",
            "type": "function"
        },
        {
            "inputs": [],
            "name": "poolBaseAddress",
            "outputs": [
                {
                    "internalType": "address",
                    "name": "",
                    "type": "address"
                }
            ],
            "stateMutability": "view",
            "type": "function"
        },
        {
            "inputs": [],
            "name": "poolCommitterBaseAddress",
            "outputs": [
                {
                    "internalType": "address",
                    "name": "",
                    "type": "address"
                }
            ],
            "stateMutability": "view",
            "type": "function"
        },
        {
            "inputs": [],
            "name": "poolKeeper",
            "outputs": [
                {
                    "internalType": "contract IPoolKeeper",
                    "name": "",
                    "type": "address"
                }
            ],
            "stateMutability": "view",
            "type": "function"
        },
        {
            "inputs": [
                {
                    "internalType": "uint256",
                    "name": "",
                    "type": "uint256"
                }
            ],
            "name": "pools",
            "outputs": [
                {
                    "internalType": "address",
                    "name": "",
                    "type": "address"
                }
            ],
            "stateMutability": "view",
            "type": "function"
        },
        {
            "inputs": [],
            "name": "provisionalGovernance",
            "outputs": [
                {
                    "internalType": "address",
                    "name": "",
                    "type": "address"
                }
            ],
            "stateMutability": "view",
            "type": "function"
        },
        {
            "inputs": [],
            "name": "secondaryFeeSplitPercent",
            "outputs": [
                {
                    "internalType": "uint256",
                    "name": "",
                    "type": "uint256"
                }
            ],
            "stateMutability": "view",
            "type": "function"
        },
        {
            "inputs": [
                {
                    "internalType": "address",
                    "name": "_autoClaim",
                    "type": "address"
                }
            ],
            "name": "setAutoClaim",
            "outputs": [],
            "stateMutability": "nonpayable",
            "type": "function"
        },
        {
            "inputs": [
                {
                    "internalType": "address",
                    "name": "_token",
                    "type": "address"
                },
                {
                    "internalType": "uint256",
                    "name": "_fee",
                    "type": "uint256"
                },
                {
                    "internalType": "address",
                    "name": "_receiver",
                    "type": "address"
                }
            ],
            "name": "setDeploymentFee",
            "outputs": [],
            "stateMutability": "nonpayable",
            "type": "function"
        },
        {
            "inputs": [
                {
                    "internalType": "uint256",
                    "name": "_fee",
                    "type": "uint256"
                }
            ],
            "name": "setFee",
            "outputs": [],
            "stateMutability": "nonpayable",
            "type": "function"
        },
        {
            "inputs": [
                {
                    "internalType": "address",
                    "name": "_feeReceiver",
                    "type": "address"
                }
            ],
            "name": "setFeeReceiver",
            "outputs": [],
            "stateMutability": "nonpayable",
            "type": "function"
        },
        {
            "inputs": [
                {
                    "internalType": "address",
                    "name": "_invariantCheck",
                    "type": "address"
                }
            ],
            "name": "setInvariantCheck",
            "outputs": [],
            "stateMutability": "nonpayable",
            "type": "function"
        },
        {
            "inputs": [
                {
                    "internalType": "address",
                    "name": "_poolKeeper",
                    "type": "address"
                }
            ],
            "name": "setPoolKeeper",
            "outputs": [],
            "stateMutability": "nonpayable",
            "type": "function"
        },
        {
            "inputs": [
                {
                    "internalType": "uint256",
                    "name": "newFeePercent",
                    "type": "uint256"
                }
            ],
            "name": "setSecondaryFeeSplitPercent",
            "outputs": [],
            "stateMutability": "nonpayable",
            "type": "function"
        },
        {
            "inputs": [
                {
                    "internalType": "address",
                    "name": "_governance",
                    "type": "address"
                }
            ],
            "name": "transferGovernance",
            "outputs": [],
            "stateMutability": "nonpayable",
            "type": "function"
        }
    ],
    "transactionHash": "0x9b955d5c623f1024bfce44f296a2f859e2a6bf765dd12b2bfe30c4df66c9c62e",
    "args": [
        "0xCC97EB5651e05D5a0Ae8bcD2813B9DFDaD6F92a5",
        "0xCC97EB5651e05D5a0Ae8bcD2813B9DFDaD6F92a5"
    ],
    "solcInputHash": "4b024dc169a046e6527f075e446ec886",
    "bytecode": "0x60e0604052600a6006553480156200001657600080fd5b506040516200b8b23803806200b8b283398101604081905262000039916200048a565b6001600160a01b038216620000955760405162461bcd60e51b815260206004820152601b60248201527f4665652072656365697665722063616e6e6f74206265206e756c6c000000000060448201526064015b60405180910390fd5b6001600160a01b038116620000ed5760405162461bcd60e51b815260206004820152601960248201527f476f7665726e616e63652063616e6e6f74206265206e756c6c0000000000000060448201526064016200008c565b600380546001600160a01b0319166001600160a01b0383161790556040516000906012906200011c9062000443565b60ff9091168152602001604051809103906000f08015801562000143573d6000803e3d6000fd5b506001600160601b0319606082901b166080526040519091506000906200016a9062000451565b604051809103906000f08015801562000187573d6000803e3d6000fd5b506001600160601b0319606082901b1660a052604051909150600090620001ae906200045f565b604051809103906000f080158015620001cb573d6000803e3d6000fd5b50606081901b6001600160601b03191660c0908152600a80546001600160a01b0319166001600160a01b0389811691909117909155604051637b69774360e11b81528582166004808301919091526080602483015260848201819052636261736560e01b60a4830152604482019390935260c4810192909252634241534560e01b60e4830152600860648301529192509084169063f6d2ee869061010401600060405180830381600087803b1580156200028457600080fd5b505af115801562000299573d6000803e3d6000fd5b50506040805161022081018252308082526020808301829052828401829052606083018290526001600160a01b038981166080850181905260a085015287811660c085015260e08401839052845180860186526004808252636261736560e01b93820193909352610100850152600061012085018190526001610140860181905261016086015261018085018190526101a085018490526101c085018490526101e08501939093526102008401929092529251630129011d60e41b81529194508616925063129011d091620003719185910162000512565b600060405180830381600087803b1580156200038c57600080fd5b505af1158015620003a1573d6000803e3d6000fd5b5050600354604051637403c6cd60e01b815230600482018190526024820181905260448201526001600160a01b03918216606482018190526084820152600060a4820181905260c4820181905260e48201529085169250637403c6cd915061010401600060405180830381600087803b1580156200041e57600080fd5b505af115801562000433573d6000803e3d6000fd5b50505050505050505050620006b6565b6111eb806200286983390190565b612f858062003a5483390190565b614ed980620069d983390190565b80516001600160a01b03811681146200048557600080fd5b919050565b600080604083850312156200049e57600080fd5b620004a9836200046d565b9150620004b9602084016200046d565b90509250929050565b6000815180845260005b81811015620004ea57602081850181015186830182015201620004cc565b81811115620004fd576000602083870101525b50601f01601f19169290920160200192915050565b602081526200052d6020820183516001600160a01b03169052565b600060208301516200054a60408401826001600160a01b03169052565b5060408301516001600160a01b03811660608401525060608301516001600160a01b03811660808401525060808301516001600160a01b03811660a08401525060a08301516001600160a01b03811660c08401525060c08301516001600160a01b03811660e08401525060e0830151610100620005d1818501836001600160a01b03169052565b808501519150506102206101208181860152620005f3610240860184620004c2565b908601519092506101406200060f8682018363ffffffff169052565b8601519050610160620006298682018363ffffffff169052565b8601519050610180620006418682018361ffff169052565b8601516101a08681019190915286015190506101c06200066b818701836001600160a01b03169052565b86015190506101e062000688868201836001600160a01b03169052565b8601519050610200620006a5868201836001600160a01b03169052565b959095015193019290925250919050565b60805160601c60a05160601c60c05160601c61216562000704600039600081816103ff0152610e3c0152600081816104420152610f3b015260008181610295015261188e01526121656000f3fe608060405234801561001057600080fd5b50600436106101da5760003560e01c806379bc618211610104578063d166b8e3116100a2578063ed3f7e2611610071578063ed3f7e261461043d578063efdcd97414610464578063f164e2a714610477578063f2cff57f1461048b57600080fd5b8063d166b8e3146103e7578063d3394714146103fa578063d38bfff414610421578063ddca3f431461043457600080fd5b8063ac4afa38116100de578063ac4afa3814610385578063b3f00674146103ae578063b7f4bb1c146103c1578063c70db323146103d457600080fd5b806379bc61821461034e5780637dbb36c4146103615780639fd552451461037257600080fd5b80634509017e1161017c5780635ab78ee11161014b5780635ab78ee1146102fd5780635d36b19014610320578063616e57901461032857806369fe0e2d1461033b57600080fd5b80634509017e1461027d5780634690092c1461029057806359e86a99146102b75780635aa6e675146102ea57600080fd5b8063225454c5116101b8578063225454c51461023b57806335c62bc21461024e5780633e942ad714610257578063430ed6eb1461026a57600080fd5b806303850dbb146101df5780630fa56b10146101fb578063178f9e3514610210575b600080fd5b6101e860065481565b6040519081526020015b60405180910390f35b61020e610209366004611a2b565b610494565b005b600054610223906001600160a01b031681565b6040516001600160a01b0390911681526020016101f2565b61020e6102493660046119ea565b61058c565b6101e8600c5481565b600954610223906001600160a01b031681565b61020e6102783660046119ea565b610626565b600254610223906001600160a01b031681565b6102237f000000000000000000000000000000000000000000000000000000000000000081565b6102da6102c53660046119ea565b600e6020526000908152604090205460ff1681565b60405190151581526020016101f2565b600354610223906001600160a01b031681565b6102da61030b3660046119ea565b600d6020526000908152604090205460ff1681565b61020e6106ca565b61020e610336366004611ae6565b6107e9565b61020e610349366004611ae6565b6108a6565b61020e61035c3660046119ea565b610951565b6000546001600160a01b0316610223565b600454610223906001600160a01b031681565b610223610393366004611ae6565b600b602052600090815260409020546001600160a01b031681565b600a54610223906001600160a01b031681565b6102236103cf366004611a8f565b6109eb565b600154610223906001600160a01b031681565b600754610223906001600160a01b031681565b6102237f000000000000000000000000000000000000000000000000000000000000000081565b61020e61042f3660046119ea565b6113cc565b6101e860055481565b6102237f000000000000000000000000000000000000000000000000000000000000000081565b61020e6104723660046119ea565b61152e565b6003546102da90600160a01b900460ff1681565b6101e860085481565b6003546001600160a01b031633146104c75760405162461bcd60e51b81526004016104be90611c96565b60405180910390fd5b6001600160a01b0383166105145760405162461bcd60e51b8152602060048201526014602482015273151bdad95b8818d85b9b9bdd081899481b9d5b1b60621b60448201526064016104be565b600780546001600160a01b038581166001600160a01b0319928316811790935560088590556009805491851691909216811790915560408051928352602083018590528201527f3615dcb57be737e6ec209de3ce5b503307ff77885da0ed0e1d98b48d154f9f819060600160405180910390a1505050565b6003546001600160a01b031633146105b65760405162461bcd60e51b81526004016104be90611c96565b6001600160a01b0381166105dc5760405162461bcd60e51b81526004016104be90611c6e565b600280546001600160a01b0319166001600160a01b0383169081179091556040517f24c15dcddddd5cf1c1ca428f04560f295744a59a459f278163e3ffcbd12f108690600090a250565b6003546001600160a01b031633146106505760405162461bcd60e51b81526004016104be90611c96565b6001600160a01b0381166106765760405162461bcd60e51b81526004016104be90611c6e565b600080546001600160a01b0319166001600160a01b0383169081179091556040519081527ff33ed59034aadf61086c54204694b493ee22a3d903bddbe94c276f7bb442f4e39060200160405180910390a150565b600354600160a01b900460ff166107235760405162461bcd60e51b815260206004820152601b60248201527f4e6f20676f7665726e616e6365206368616e676520616374697665000000000060448201526064016104be565b6004546001600160a01b031633811461077e5760405162461bcd60e51b815260206004820152601860248201527f4e6f742070726f766973696f6e616c20676f7665726e6f72000000000000000060448201526064016104be565b6003546040516001600160a01b038084169216907f023588d3d1dcaad34e471c9e01b616b794156174bc693539c8fe15c0bfd5d82690600090a360038054600480546001600160a01b03191690556001600160a81b0319166001600160a01b03909216919091179055565b6003546001600160a01b031633146108135760405162461bcd60e51b81526004016104be90611c96565b60648111156108735760405162461bcd60e51b815260206004820152602660248201527f5365636f6e64617279206665652073706c69742063616e6e6f7420657863656560448201526564203130302560d01b60648201526084016104be565b600681905560405181907ffd9d1596de9068fc7e910a6e5ba7d9c07e9f6018518a993f41ab74afb0f9617790600090a250565b6003546001600160a01b031633146108d05760405162461bcd60e51b81526004016104be90611c96565b67016345785d8a000081111561091e5760405162461bcd60e51b81526020600482015260136024820152724665652063616e6e6f74206265203e2031302560681b60448201526064016104be565b600581905560405181907f6bbc57480a46553fa4d156ce702beef5f3ad66303b0ed1a5d4cb44966c6584c390600090a250565b6003546001600160a01b0316331461097b5760405162461bcd60e51b81526004016104be90611c96565b6001600160a01b0381166109a15760405162461bcd60e51b81526004016104be90611c6e565b600180546001600160a01b0319166001600160a01b0383169081179091556040517fa88db2b867bf534c147cbfc947cf3f3158ed92959503ef51c8729e6f35dc109e90600090a250565b600080546001600160a01b031680610a3a5760405162461bcd60e51b8152602060048201526012602482015271141bdbdb12d9595c195c881b9bdd081cd95d60721b60448201526064016104be565b6001546001600160a01b0316610a865760405162461bcd60e51b8152602060048201526011602482015270105d5d1bd0db185a5b481b9bdd081cd95d607a1b60448201526064016104be565b6002546001600160a01b0316610ad75760405162461bcd60e51b8152602060048201526016602482015275125b9d985c9a585b9d10da1958dac81b9bdd081cd95d60521b60448201526064016104be565b33610ae860c0850160a086016119ea565b6001600160a01b031663d5f394886040518163ffffffff1660e01b815260040160206040518083038186803b158015610b2057600080fd5b505afa158015610b34573d6000803e3d6000fd5b505050506040513d601f19601f82011682018060405250810190610b589190611a0e565b6001600160a01b031614610bbc5760405162461bcd60e51b815260206004820152602560248201527f4465706c6f796572206d757374206265206f7261636c6520777261707065722060448201526437bbb732b960d91b60648201526084016104be565b610bcc6080840160608501611acb565b61ffff16610c1c5760405162461bcd60e51b815260206004820152601f60248201527f4c657665726167656420616d6f756e742063616e6e6f7420657175616c20300060448201526064016104be565b6012610c2e60a08501608086016119ea565b6001600160a01b031663313ce5676040518163ffffffff1660e01b815260040160206040518083038186803b158015610c6657600080fd5b505afa158015610c7a573d6000803e3d6000fd5b505050506040513d601f19601f82011682018060405250810190610c9e9190611b1a565b60ff161115610cef5760405162461bcd60e51b815260206004820152601a60248201527f446563696d616c20707265636973696f6e20746f6f206869676800000000000060448201526064016104be565b60085415610d8b576007546009546008546040516323b872dd60e01b81523360048201526001600160a01b03928316602482015260448101919091529116906323b872dd90606401602060405180830381600087803b158015610d5157600080fd5b505af1158015610d65573d6000803e3d6000fd5b505050506040513d601f19601f82011682018060405250810190610d899190611a6d565b505b6000610d9d6040850160208601611aff565b610dad6060860160408701611aff565b610dbd6080870160608801611acb565b610dcd60a08801608089016119ea565b610ddd60c0890160a08a016119ea565b6040805163ffffffff9687166020820152959094169385019390935261ffff90911660608401526001600160a01b0390811660808401521660a082015260c0016040516020818303038152906040528051906020012090506000610e617f0000000000000000000000000000000000000000000000000000000000000000836115f8565b60015460035491925082916001600160a01b0380841692637403c6cd9230929182169116610e966101008c0160e08d016119ea565b6002546040516001600160e01b031960e088901b1681526001600160a01b039586166004820152938516602485015291841660448401528316606483015291909116608482015261010089013560a482015261014089013560c482015261012089013560e482015261010401600060405180830381600087803b158015610f1c57600080fd5b505af1158015610f30573d6000803e3d6000fd5b505050506000610f607f0000000000000000000000000000000000000000000000000000000000000000856115f8565b9050806001600160a01b0381167f82f5ba2b59209e8b2008e0addf2c8502bf23175cfee67125b2562302ce9823b985610f998b80611ea6565b604051610fa893929190611be3565b60405180910390a26000610fce610fc560808b0160608c01611acb565b61ffff1661169e565b60408051610220810182526003546001600160a01b0390811682528a16602082015291925060009190810161100960c08d0160a08e016119ea565b6001600160a01b0316815260200161102760e08d0160c08e016119ea565b6001600160a01b0316815260200161106385856110438f611f80565b604051806040016040528060028152602001614c2d60f01b8152506117a4565b6001600160a01b0316815260200161109f858561107f8f611f80565b60405180604001604052806002815260200161532d60f01b8152506117a4565b6001600160a01b0390811682528781166020830152600254166040820152606001836110cb8d80611ea6565b6040516020016110dd93929190611bac565b60405160208183030381529060405281526020018b60200160208101906111049190611aff565b63ffffffff16815260200161111f60608d0160408e01611aff565b63ffffffff16815260200161113a60808d0160608e01611acb565b61ffff1681526020016301e1855861115860608e0160408f01611aff565b63ffffffff1660055461116b9190611f4a565b6111759190611f36565b8152600a546001600160a01b031660208201523360408201526060016111a160a08d0160808e016119ea565b6001600160a01b031681526020016006548152509050836001600160a01b031663129011d0826040518263ffffffff1660e01b81526004016111e39190611ccd565b600060405180830381600087803b1580156111fd57600080fd5b505af1158015611211573d6000803e3d6000fd5b505060405163221b8a9560e11b81526001600160a01b03868116600483015288169250634437152a9150602401600060405180830381600087803b15801561125857600080fd5b505af115801561126c573d6000803e3d6000fd5b505050507fe1759462958518b57e02da7f1e24c6a789c6f0ad7f8751169def6657289695f1858b60800160208101906112a591906119ea565b858d61012001358e60e00160208101906112bf91906119ea565b604080516001600160a01b0396871681529486166020860152928516928401929092526060830152909116608082015260a00160405180910390a1600054604051633c5c7fb360e01b81526001600160a01b03858116600483015290911690633c5c7fb390602401600060405180830381600087803b15801561134157600080fd5b505af1158015611355573d6000803e3d6000fd5b5050600c80546000908152600b6020908152604080832080546001600160a01b0319166001600160a01b038b8116918217909255855460019081019096558452600d8352818420805460ff1990811687179091559c168352600e909152902080549099161790975550919998505050505050505050565b6003546001600160a01b031633146113f65760405162461bcd60e51b81526004016104be90611c96565b6003546001600160a01b038281169116141561147a5760405162461bcd60e51b815260206004820152603f60248201527f4e657720676f7665726e616e636520616464726573732063616e6e6f7420626560448201527f2073616d65206173206f6c6420676f7665726e616e636520616464726573730060648201526084016104be565b6001600160a01b0381166114d05760405162461bcd60e51b815260206004820152601960248201527f476f7665726e616e63652063616e6e6f74206265206e756c6c0000000000000060448201526064016104be565b600480546001600160a01b0383166001600160a01b031990911681179091556003805460ff60a01b1916600160a01b1790556040517f35681f4f23137fb58510a9854f1b6e95f90a2cf0b66d2fce4df74cc0becc82d590600090a250565b6003546001600160a01b031633146115585760405162461bcd60e51b81526004016104be90611c96565b6001600160a01b0381166115ae5760405162461bcd60e51b815260206004820152601b60248201527f4665652072656365697665722063616e6e6f74206265206e756c6c000000000060448201526064016104be565b600a80546001600160a01b0319166001600160a01b0383169081179091556040517f647672599d3468abcfa241a13c9e3d34383caadb5cc80fb67c3cdfcd5f78605990600090a250565b6000604051733d602d80600a3d3981f3363d3d373d3d3d363d7360601b81528360601b60148201526e5af43d82803e903d91602b57fd5bf360881b6028820152826037826000f59150506001600160a01b0381166116985760405162461bcd60e51b815260206004820152601760248201527f455243313136373a2063726561746532206661696c656400000000000000000060448201526064016104be565b92915050565b6060816116c25750506040805180820190915260018152600360fc1b602082015290565b8160005b81156116ec57806116d681612090565b91506116e59050600a83611f36565b91506116c6565b60008167ffffffffffffffff81111561170757611707612101565b6040519080825280601f01601f191660200182016040528015611731576020820181803683370190505b5090505b841561179c57611746600183611f69565b9150611753600a866120ab565b61175e906030611f1e565b60f81b818381518110611773576117736120eb565b60200101906001600160f81b031916908160001a905350611795600a86611f36565b9450611735565b949350505050565b600080848385600001516040516020016117c093929190611b69565b6040516020818303038152906040529050600084608001516001600160a01b031663313ce5676040518163ffffffff1660e01b815260040160206040518083038186803b15801561181057600080fd5b505afa158015611824573d6000803e3d6000fd5b505050506040513d601f19601f820116820180604052508101906118489190611b1a565b90506000856060015186608001518760a001518760405160200161186f9493929190611e66565b60405160208183030381529060405280519060200120905060006118b37f0000000000000000000000000000000000000000000000000000000000000000836115f8565b604051637b69774360e11b81529091506001600160a01b0382169063f6d2ee86906118e8908c90889081908990600401611c23565b600060405180830381600087803b15801561190257600080fd5b505af1158015611916573d6000803e3d6000fd5b50929b9a5050505050505050505050565b803561193281612117565b919050565b600082601f83011261194857600080fd5b813567ffffffffffffffff8082111561196357611963612101565b604051601f8301601f19908116603f0116810190828211818310171561198b5761198b612101565b816040528381528660208588010111156119a457600080fd5b836020870160208301376000602085830101528094505050505092915050565b803561ffff8116811461193257600080fd5b803563ffffffff8116811461193257600080fd5b6000602082840312156119fc57600080fd5b8135611a0781612117565b9392505050565b600060208284031215611a2057600080fd5b8151611a0781612117565b600080600060608486031215611a4057600080fd5b8335611a4b81612117565b9250602084013591506040840135611a6281612117565b809150509250925092565b600060208284031215611a7f57600080fd5b81518015158114611a0757600080fd5b600060208284031215611aa157600080fd5b813567ffffffffffffffff811115611ab857600080fd5b82016101608185031215611a0757600080fd5b600060208284031215611add57600080fd5b611a07826119c4565b600060208284031215611af857600080fd5b5035919050565b600060208284031215611b1157600080fd5b611a07826119d6565b600060208284031215611b2c57600080fd5b815160ff81168114611a0757600080fd5b60008151808452611b55816020860160208601612060565b601f01601f19169290920160200192915050565b60008451611b7b818460208901612060565b845190830190611b8f818360208901612060565b8451910190611ba2818360208801612060565b0195945050505050565b60008451611bbe818460208901612060565b602d60f81b908301908152838560018301376000930160010192835250909392505050565b6001600160a01b03841681526040602082018190528101829052818360608301376000818301606090810191909152601f909201601f1916010192915050565b6001600160a01b0385168152608060208201819052600090611c4790830186611b3d565b8281036040840152611c598186611b3d565b91505060ff8316606083015295945050505050565b6020808252600e908201526d18d85b9b9bdd081899481b9d5b1b60921b604082015260600190565b60208082526019908201527f6d73672e73656e646572206e6f7420676f7665726e616e636500000000000000604082015260600190565b60208152611ce76020820183516001600160a01b03169052565b60006020830151611d0360408401826001600160a01b03169052565b5060408301516001600160a01b03811660608401525060608301516001600160a01b03811660808401525060808301516001600160a01b03811660a08401525060a08301516001600160a01b03811660c08401525060c08301516001600160a01b03811660e08401525060e0830151610100611d89818501836001600160a01b03169052565b808501519150506102206101208181860152611da9610240860184611b3d565b90860151909250610140611dc48682018363ffffffff169052565b8601519050610160611ddd8682018363ffffffff169052565b8601519050610180611df48682018361ffff169052565b8601516101a08681019190915286015190506101c0611e1d818701836001600160a01b03169052565b86015190506101e0611e39868201836001600160a01b03169052565b8601519050610200611e55868201836001600160a01b03169052565b959095015193019290925250919050565b61ffff851681526001600160a01b03848116602083015283166040820152608060608201819052600090611e9c90830184611b3d565b9695505050505050565b6000808335601e19843603018112611ebd57600080fd5b83018035915067ffffffffffffffff821115611ed857600080fd5b602001915036819003821315611eed57600080fd5b9250929050565b604051610160810167ffffffffffffffff81118282101715611f1857611f18612101565b60405290565b60008219821115611f3157611f316120bf565b500190565b600082611f4557611f456120d5565b500490565b6000816000190483118215151615611f6457611f646120bf565b500290565b600082821015611f7b57611f7b6120bf565b500390565b60006101608236031215611f9357600080fd5b611f9b611ef4565b823567ffffffffffffffff811115611fb257600080fd5b611fbe36828601611937565b825250611fcd602084016119d6565b6020820152611fde604084016119d6565b6040820152611fef606084016119c4565b606082015261200060808401611927565b608082015261201160a08401611927565b60a082015261202260c08401611927565b60c082015261203360e08401611927565b60e08201526101008381013590820152610120808401359082015261014092830135928101929092525090565b60005b8381101561207b578181015183820152602001612063565b8381111561208a576000848401525b50505050565b60006000198214156120a4576120a46120bf565b5060010190565b6000826120ba576120ba6120d5565b500690565b634e487b7160e01b600052601160045260246000fd5b634e487b7160e01b600052601260045260246000fd5b634e487b7160e01b600052603260045260246000fd5b634e487b7160e01b600052604160045260246000fd5b6001600160a01b038116811461212c57600080fd5b5056fea2646970667358221220f949e46e4d1e19b80ce079fbbe7756598fe1a792ea59f2cf443bd03beb4a986a64736f6c6343000807003360806040523480156200001157600080fd5b50604051620011eb380380620011eb833981016040819052620000349162000175565b6040518060400160405280600a8152602001692120a9a2afaa27a5a2a760b11b815250604051806040016040528060048152602001634241534560e01b81525082828281600390805190602001906200008f929190620000cf565b508051620000a5906004906020840190620000cf565b50506005805460ff909316620100000262ff0000199093169290921790915550620001de92505050565b828054620000dd90620001a1565b90600052602060002090601f0160209004810192826200010157600085556200014c565b82601f106200011c57805160ff19168380011785556200014c565b828001600101855582156200014c579182015b828111156200014c5782518255916020019190600101906200012f565b506200015a9291506200015e565b5090565b5b808211156200015a57600081556001016200015f565b6000602082840312156200018857600080fd5b815160ff811681146200019a57600080fd5b9392505050565b600181811c90821680620001b657607f821691505b60208210811415620001d857634e487b7160e01b600052602260045260246000fd5b50919050565b610ffd80620001ee6000396000f3fe608060405234801561001057600080fd5b50600436106101005760003560e01c80638da5cb5b11610097578063a9059cbb11610066578063a9059cbb14610233578063dd62ed3e14610246578063f2fde38b1461027f578063f6d2ee861461029257600080fd5b80638da5cb5b146101da57806395d89b41146102055780639dc29fac1461020d578063a457c2d71461022057600080fd5b8063313ce567116100d3578063313ce5671461016b578063395093511461018957806340c10f191461019c57806370a08231146101b157600080fd5b806306fdde0314610105578063095ea7b31461012357806318160ddd1461014657806323b872dd14610158575b600080fd5b61010d6102a5565b60405161011a9190610eae565b60405180910390f35b610136610131366004610e84565b610337565b604051901515815260200161011a565b6002545b60405190815260200161011a565b610136610166366004610dbb565b61034d565b60055462010000900460ff1660405160ff909116815260200161011a565b610136610197366004610e84565b6103fc565b6101af6101aa366004610e84565b610438565b005b61014a6101bf366004610d66565b6001600160a01b031660009081526020819052604090205490565b6008546101ed906001600160a01b031681565b6040516001600160a01b03909116815260200161011a565b61010d610470565b6101af61021b366004610e84565b61047f565b61013661022e366004610e84565b6104b3565b610136610241366004610e84565b61054c565b61014a610254366004610d88565b6001600160a01b03918216600090815260016020908152604080832093909416825291909152205490565b6101af61028d366004610d66565b610559565b6101af6102a0366004610df7565b6105fb565b6060600680546102b490610f60565b80601f01602080910402602001604051908101604052809291908181526020018280546102e090610f60565b801561032d5780601f106103025761010080835404028352916020019161032d565b820191906000526020600020905b81548152906001019060200180831161031057829003601f168201915b5050505050905090565b600061034433848461070b565b50600192915050565b600061035a848484610830565b6001600160a01b0384166000908152600160209081526040808320338452909152902054828110156103e45760405162461bcd60e51b815260206004820152602860248201527f45524332303a207472616e7366657220616d6f756e74206578636565647320616044820152676c6c6f77616e636560c01b60648201526084015b60405180910390fd5b6103f1853385840361070b565b506001949350505050565b3360008181526001602090815260408083206001600160a01b03871684529091528120549091610344918590610433908690610f31565b61070b565b6008546001600160a01b031633146104625760405162461bcd60e51b81526004016103db90610f03565b61046c82826109ff565b5050565b6060600780546102b490610f60565b6008546001600160a01b031633146104a95760405162461bcd60e51b81526004016103db90610f03565b61046c8282610ade565b3360009081526001602090815260408083206001600160a01b0386168452909152812054828110156105355760405162461bcd60e51b815260206004820152602560248201527f45524332303a2064656372656173656420616c6c6f77616e63652062656c6f77604482015264207a65726f60d81b60648201526084016103db565b610542338585840361070b565b5060019392505050565b6000610344338484610830565b6008546001600160a01b031633146105835760405162461bcd60e51b81526004016103db90610f03565b6001600160a01b0381166105d95760405162461bcd60e51b815260206004820152601b60248201527f4f776e65723a2073657474696e6720746f20302061646472657373000000000060448201526064016103db565b600880546001600160a01b0319166001600160a01b0392909216919091179055565b600554610100900460ff1680610614575060055460ff16155b6106775760405162461bcd60e51b815260206004820152602e60248201527f496e697469616c697a61626c653a20636f6e747261637420697320616c72656160448201526d191e481a5b9a5d1a585b1a5e995960921b60648201526084016103db565b600554610100900460ff16158015610699576005805461ffff19166101011790555b600880546001600160a01b0319166001600160a01b03871617905583516106c7906006906020870190610c24565b5082516106db906007906020860190610c24565b506005805462ff000019166201000060ff8516021790558015610704576005805461ff00191690555b5050505050565b6001600160a01b03831661076d5760405162461bcd60e51b8152602060048201526024808201527f45524332303a20617070726f76652066726f6d20746865207a65726f206164646044820152637265737360e01b60648201526084016103db565b6001600160a01b0382166107ce5760405162461bcd60e51b815260206004820152602260248201527f45524332303a20617070726f766520746f20746865207a65726f206164647265604482015261737360f01b60648201526084016103db565b6001600160a01b0383811660008181526001602090815260408083209487168084529482529182902085905590518481527f8c5be1e5ebec7d5bd14f71427d1e84f3dd0314c0f7b2291e5b200ac8c7c3b92591015b60405180910390a3505050565b6001600160a01b0383166108945760405162461bcd60e51b815260206004820152602560248201527f45524332303a207472616e736665722066726f6d20746865207a65726f206164604482015264647265737360d81b60648201526084016103db565b6001600160a01b0382166108f65760405162461bcd60e51b815260206004820152602360248201527f45524332303a207472616e7366657220746f20746865207a65726f206164647260448201526265737360e81b60648201526084016103db565b6001600160a01b0383166000908152602081905260409020548181101561096e5760405162461bcd60e51b815260206004820152602660248201527f45524332303a207472616e7366657220616d6f756e7420657863656564732062604482015265616c616e636560d01b60648201526084016103db565b6001600160a01b038085166000908152602081905260408082208585039055918516815290812080548492906109a5908490610f31565b92505081905550826001600160a01b0316846001600160a01b03167fddf252ad1be2c89b69c2b068fc378daa952ba7f163c4a11628f55a4df523b3ef846040516109f191815260200190565b60405180910390a350505050565b6001600160a01b038216610a555760405162461bcd60e51b815260206004820152601f60248201527f45524332303a206d696e7420746f20746865207a65726f20616464726573730060448201526064016103db565b8060026000828254610a679190610f31565b90915550506001600160a01b03821660009081526020819052604081208054839290610a94908490610f31565b90915550506040518181526001600160a01b038316906000907fddf252ad1be2c89b69c2b068fc378daa952ba7f163c4a11628f55a4df523b3ef9060200160405180910390a35050565b6001600160a01b038216610b3e5760405162461bcd60e51b815260206004820152602160248201527f45524332303a206275726e2066726f6d20746865207a65726f206164647265736044820152607360f81b60648201526084016103db565b6001600160a01b03821660009081526020819052604090205481811015610bb25760405162461bcd60e51b815260206004820152602260248201527f45524332303a206275726e20616d6f756e7420657863656564732062616c616e604482015261636560f01b60648201526084016103db565b6001600160a01b0383166000908152602081905260408120838303905560028054849290610be1908490610f49565b90915550506040518281526000906001600160a01b038516907fddf252ad1be2c89b69c2b068fc378daa952ba7f163c4a11628f55a4df523b3ef90602001610823565b828054610c3090610f60565b90600052602060002090601f016020900481019282610c525760008555610c98565b82601f10610c6b57805160ff1916838001178555610c98565b82800160010185558215610c98579182015b82811115610c98578251825591602001919060010190610c7d565b50610ca4929150610ca8565b5090565b5b80821115610ca45760008155600101610ca9565b80356001600160a01b0381168114610cd457600080fd5b919050565b600082601f830112610cea57600080fd5b813567ffffffffffffffff80821115610d0557610d05610fb1565b604051601f8301601f19908116603f01168101908282118183101715610d2d57610d2d610fb1565b81604052838152866020858801011115610d4657600080fd5b836020870160208301376000602085830101528094505050505092915050565b600060208284031215610d7857600080fd5b610d8182610cbd565b9392505050565b60008060408385031215610d9b57600080fd5b610da483610cbd565b9150610db260208401610cbd565b90509250929050565b600080600060608486031215610dd057600080fd5b610dd984610cbd565b9250610de760208501610cbd565b9150604084013590509250925092565b60008060008060808587031215610e0d57600080fd5b610e1685610cbd565b9350602085013567ffffffffffffffff80821115610e3357600080fd5b610e3f88838901610cd9565b94506040870135915080821115610e5557600080fd5b50610e6287828801610cd9565b925050606085013560ff81168114610e7957600080fd5b939692955090935050565b60008060408385031215610e9757600080fd5b610ea083610cbd565b946020939093013593505050565b600060208083528351808285015260005b81811015610edb57858101830151858201604001528201610ebf565b81811115610eed576000604083870101525b50601f01601f1916929092016040019392505050565b60208082526014908201527336b9b39739b2b73232b9103737ba1037bbb732b960611b604082015260600190565b60008219821115610f4457610f44610f9b565b500190565b600082821015610f5b57610f5b610f9b565b500390565b600181811c90821680610f7457607f821691505b60208210811415610f9557634e487b7160e01b600052602260045260246000fd5b50919050565b634e487b7160e01b600052601160045260246000fd5b634e487b7160e01b600052604160045260246000fdfea2646970667358221220b320f0be9f47be35b28ed0993064618c5a156b6d8c320679645cf9de9097a62664736f6c63430008070033608060405234801561001057600080fd5b50612f65806100206000396000f3fe608060405234801561001057600080fd5b50600436106102f15760003560e01c80637bfe789a1161019d578063bbcaac38116100e9578063d38bfff4116100a2578063f164e2a71161007c578063f164e2a714610642578063f3466dfa14610656578063f633a7401461066b578063fd2c80ae1461067e57600080fd5b8063d38bfff41461060f578063ddca3f4314610622578063e3d346cd1461062f57600080fd5b8063bbcaac38146105be578063c40f6aa9146105d1578063cd39f30f146105d9578063ced72f87146105ec578063d0b06f09146105f4578063d11262a01461060757600080fd5b806389e5915411610156578063aced166111610130578063aced166114610587578063b9ed8abf1461059a578063ba8d5468146105ad578063baba68de146105b657600080fd5b806389e591541461053e5780639fd5524514610547578063ab47c2b31461055a57600080fd5b80637bfe789a146104d25780637de93f93146104fe5780637e71fc7d146105075780638226f396146105105780638456cb591461052357806387f9ca5d1461052b57600080fd5b806346fdc99a1161025c5780636dc2b27111610215578063796da7af116101ef578063796da7af1461047f5780637b9e618d146104875780637bb98a681461049a5780637bbf1033146104b557600080fd5b80636dc2b27114610446578063748747e61461045957806375a024a21461046c57600080fd5b806346fdc99a146103d65780634f64b2be146103df5780635aa6e675146103f25780635c975abb146104055780635d36b190146104295780636d3e313e1461043157600080fd5b8063129011d0116102ae578063129011d0146103625780632fd7d643146103755780633c3f82521461037d5780633f4ba83a1461039057806341275358146103985780634509017e146103c357600080fd5b806303850dbb146102f657806304883c2714610312578063062e0d691461032a5780630c96871a146103325780630d20a1dc1461033c578063110b1bed1461034f575b600080fd5b6102ff600a5481565b6040519081526020015b60405180910390f35b61031a610695565b6040516103099493929190612d30565b6102ff600081565b61033a61074c565b005b61033a61034a366004612934565b610892565b61033a61035d3660046129be565b610903565b61033a610370366004612afc565b610987565b61033a6113f8565b61033a61038b366004612ada565b611464565b61033a6114f3565b6008546103ab906001600160a01b031681565b6040516001600160a01b039091168152602001610309565b6004546103ab906001600160a01b031681565b6102ff600c5481565b6103ab6103ed366004612b5c565b611555565b6003546103ab906001600160a01b031681565b60065461041990600160a01b900460ff1681565b6040519015158152602001610309565b61033a611575565b610439611696565b6040516103099190612cf6565b610419610454366004612975565b6116da565b61033a6104673660046128fa565b6118bd565b61033a61047a3660046128fa565b611991565b6102ff611a04565b600d546103ab906001600160a01b031681565b60015460025460408051928352602083019190915201610309565b600454601354600160c01b90910463ffffffff1601421015610419565b6004546104e990600160a01b900463ffffffff1681565b60405163ffffffff9091168152602001610309565b6102ff60135481565b6102ff60025481565b6010546103ab906001600160a01b031681565b61033a611a86565b61033a610539366004612b99565b611b1e565b6102ff600b5481565b6006546103ab906001600160a01b031681565b60055461056e90600160801b900460801b81565b6040516001600160801b03199091168152602001610309565b6007546103ab906001600160a01b031681565b600f546103ab906001600160a01b031681565b6102ff60015481565b6102ff611bef565b61033a6105cc3660046128fa565b611c68565b6102ff600181565b600e546103ab906001600160a01b031681565b6102ff611d67565b61033a610602366004612975565b611db3565b61033a611e1e565b61033a61061d3660046128fa565b611e83565b60055461056e9060801b81565b6009546103ab906001600160a01b031681565b60065461041990600160a81b900460ff1681565b61065e611fd8565b6040516103099190612d5c565b61033a610679366004612ada565b612066565b6004546104e990600160c01b900463ffffffff1681565b60006060600080600080600f60009054906101000a90046001600160a01b03166001600160a01b031663db6d8fcf6040518163ffffffff1660e01b815260040160006040518083038186803b1580156106ed57600080fd5b505afa158015610701573d6000803e3d6000fd5b505050506040513d6000823e601f3d908101601f191682016040526107299190810190612a21565b60135460045492999198509650600160c01b90910463ffffffff16945092505050565b6003546001600160a01b0316331461077f5760405162461bcd60e51b815260040161077690612dce565b60405180910390fd5b600654600160a01b900460ff166107c75760405162461bcd60e51b815260206004820152600c60248201526b506f6f6c206973206c69766560a01b6044820152606401610776565b600d546040516370a0823160e01b81523060048201526001600160a01b039091169060009082906370a082319060240160206040518083038186803b15801561080f57600080fd5b505afa158015610823573d6000803e3d6000fd5b505050506040513d601f19601f820116820180604052508101906108479190612a08565b600d54909150610861906001600160a01b03163383612300565b604051819033907f3304a35fcccaae1037a5405395dfc497e010ed92b42060cc21ac54cfb0e3e85090600090a35050565b600e546001600160a01b031633146108bc5760405162461bcd60e51b815260040161077690612d97565b600654600160a01b900460ff16156108e65760405162461bcd60e51b815260040161077690612d6f565b600d546108fe906001600160a01b0316848484612363565b505050565b600e546001600160a01b0316331461092d5760405162461bcd60e51b815260040161077690612d97565b600654600160a01b900460ff16156109575760405162461bcd60e51b815260040161077690612d6f565b8215610979576108fe8282601160005b01546001600160a01b03169190612300565b6108fe828260116001610967565b600054610100900460ff16806109a0575060005460ff16155b610a035760405162461bcd60e51b815260206004820152602e60248201527f496e697469616c697a61626c653a20636f6e747261637420697320616c72656160448201526d191e481a5b9a5d1a585b1a5e995960921b6064820152608401610776565b600054610100900460ff16158015610a25576000805461ffff19166101011790555b6000610a396101c084016101a085016128fa565b6001600160a01b03161415610a855760405162461bcd60e51b81526020600482015260126024820152711199594818d85b9b9bdd081899481b9d5b1b60721b6044820152606401610776565b6000610a9961020084016101e085016128fa565b6001600160a01b03161415610af05760405162461bcd60e51b815260206004820152601f60248201527f536574746c656d656e7420746f6b656e2063616e6e6f74206265206e756c6c006044820152606401610776565b6000610b0260608401604085016128fa565b6001600160a01b03161415610b595760405162461bcd60e51b815260206004820152601d60248201527f4f7261636c6520777261707065722063616e6e6f74206265206e756c6c0000006044820152606401610776565b6000610b6b60808401606085016128fa565b6001600160a01b03161415610bc25760405162461bcd60e51b815260206004820152601c60248201527f4b6565706572206f7261636c652063616e6e6f74206265206e756c6c000000006044820152606401610776565b6000610bd160208401846128fa565b6001600160a01b03161415610c1f5760405162461bcd60e51b815260206004820152601460248201527313dddb995c8818d85b9b9bdd081899481b9d5b1b60621b6044820152606401610776565b6000610c3160408401602085016128fa565b6001600160a01b03161415610c805760405162461bcd60e51b815260206004820152601560248201527412d9595c195c8818d85b9b9bdd081899481b9d5b1b605a1b6044820152606401610776565b6000610c9260a08401608085016128fa565b6001600160a01b03161415610ce95760405162461bcd60e51b815260206004820152601960248201527f4c6f6e6720746f6b656e2063616e6e6f74206265206e756c6c000000000000006044820152606401610776565b6000610cfb60c0840160a085016128fa565b6001600160a01b03161415610d525760405162461bcd60e51b815260206004820152601a60248201527f53686f727420746f6b656e2063616e6e6f74206265206e756c6c0000000000006044820152606401610776565b6000610d6460e0840160c085016128fa565b6001600160a01b03161415610dbb5760405162461bcd60e51b815260206004820152601c60248201527f506f6f6c436f6d6d69747465722063616e6e6f74206265206e756c6c000000006044820152606401610776565b6000610dce610100840160e085016128fa565b6001600160a01b03161415610e255760405162461bcd60e51b815260206004820152601d60248201527f496e76617269616e74436865636b2063616e6e6f74206265206e756c6c0000006044820152606401610776565b670de0b6b3a764000082610180013510610e6f5760405162461bcd60e51b815260206004820152600b60248201526a466565203e3d203130302560a81b6044820152606401610776565b60648261020001351115610ed45760405162461bcd60e51b815260206004820152602660248201527f5365636f6e64617279206665652073706c69742063616e6e6f7420657863656560448201526564203130302560d01b6064820152608401610776565b610ee661016083016101408401612c48565b63ffffffff16610f385760405162461bcd60e51b815260206004820152601b60248201527f55706461746520696e74657276616c2063616e6e6f74206265203000000000006044820152606401610776565b610f4560208301836128fa565b600380546001600160a01b0319166001600160a01b0392909216919091179055610f7560408301602084016128fa565b600780546001600160a01b0319166001600160a01b0392909216919091179055610fa560608301604084016128fa565b600f80546001600160a01b0319166001600160a01b0392909216919091179055610fd560808301606084016128fa565b601080546001600160a01b0319166001600160a01b039290921691909117905561100761020083016101e084016128fa565b600d80546001600160a01b0319166001600160a01b0392909216919091179055611038610100830160e084016128fa565b600480546001600160a01b0319166001600160a01b039290921691909117905561106a61014083016101208401612c48565b6004805463ffffffff92909216600160a01b0263ffffffff60a01b199092169190911790556110a161016083016101408401612c48565b6004805463ffffffff92909216600160c01b0263ffffffff60c01b19909216919091178155604051636fedf26d60e11b815273c644E1ba225E2ab0BE407926A177dDc89101A77d9163dfdbe4da9161110491610180870135910190815260200190565b60206040518083038186803b15801561111c57600080fd5b505af4158015611130573d6000803e3d6000fd5b505050506040513d601f19601f8201168201806040525081019061115491906129de565b600580546001600160801b03191660809290921c91909117905573c644E1ba225E2ab0BE407926A177dDc89101A77d63dfdbe4da61119a61018085016101608601612b38565b6040516001600160e01b031960e084901b16815261ffff909116600482015260240160206040518083038186803b1580156111d457600080fd5b505af41580156111e8573d6000803e3d6000fd5b505050506040513d601f19601f8201168201806040525081019061120c91906129de565b6005805460809290921c600160801b026fffffffffffffffffffffffffffffffff9092169190911790556112486101c083016101a084016128fa565b600880546001600160a01b0319166001600160a01b039290921691909117905561127a6101e083016101c084016128fa565b600980546001600160a01b0319166001600160a01b0392909216919091179055610200820135600a55426013556112b5610100830183612e05565b6112c191601491612843565b506112d260a08301608084016128fa565b601160000180546001600160a01b0319166001600160a01b039290921691909117905561130560c0830160a084016128fa565b601160010180546001600160a01b0319166001600160a01b039290921691909117905561133860e0830160c084016128fa565b600e80546001600160a01b0319166001600160a01b039290921691909117905561136860c0830160a084016128fa565b6001600160a01b031661138160a08401608085016128fa565b6001600160a01b03167fbc8bd61e5dd69ff5cb8c389529c029503515ba368eaafbdaa406e072fdd360726113bd61020086016101e087016128fa565b6113cb610100870187612e05565b6040516113da93929190612cb6565b60405180910390a380156113f4576000805461ff00191690555b5050565b600b80546000909155600854600d5461141e916001600160a01b03918216911683612300565b6008546040518281526001600160a01b03909116907fe756bfac49549fbcb50e6d0f75a98c96a16261fbaf06f41dd35de05f2902fa4e906020015b60405180910390a250565b600e546001600160a01b0316331461148e5760405162461bcd60e51b815260040161077690612d97565b600654600160a01b900460ff16156114b85760405162461bcd60e51b815260040161077690612d6f565b60028290556001819055604051819083907fb31885164844201997ff1f41bcad765029c634f5183880298a4c69ec4540d89f90600090a35050565b6003546001600160a01b0316331461151d5760405162461bcd60e51b815260040161077690612dce565b6006805460ff60a01b191690556040517fa45f47fdea8a1efdd9029a5691c7f759c32b7c698632b563573e155625d1693390600090a1565b6011816002811061156557600080fd5b01546001600160a01b0316905081565b600654600160a81b900460ff166115ce5760405162461bcd60e51b815260206004820152601b60248201527f4e6f20676f7665726e616e6365206368616e67652061637469766500000000006044820152606401610776565b6006546001600160a01b03163381146116295760405162461bcd60e51b815260206004820152601860248201527f4e6f742070726f766973696f6e616c20676f7665726e6f7200000000000000006044820152606401610776565b6003546040516001600160a01b038084169216907f023588d3d1dcaad34e471c9e01b616b794156174bc693539c8fe15c0bfd5d82690600090a3600380546001600160a01b0319166001600160a01b039290921691909117905560068054600161ff0160a01b0319169055565b61169e6128c7565b60408051808201918290529060119060029082845b81546001600160a01b031681526001909101906020018083116116b3575050505050905090565b600754604080516342bd698960e11b815290516000926001600160a01b03169163857ad31291600480830192602092919082900301818787803b15801561172057600080fd5b505af1158015611734573d6000803e3d6000fd5b505050506040513d601f19601f820116820180604052508101906117589190612917565b6001600160a01b0316336001600160a01b0316146117b85760405162461bcd60e51b815260206004820152601c60248201527f6d73672e73656e646572206e6f74206b656570657252657761726473000000006044820152606401610776565b600654600160a01b900460ff16156117e25760405162461bcd60e51b815260040161077690612d6f565b6001546002546117f28183612e53565b8410611803576000925050506118b7565b60405163dc35bc1360e01b815260048101859052602481018390526044810182905273c644E1ba225E2ab0BE407926A177dDc89101A77d9063dc35bc1390606401604080518083038186803b15801561185b57600080fd5b505af415801561186f573d6000803e3d6000fd5b505050506040513d601f19601f820116820180604052508101906118939190612b75565b600255600155600d546118b0906001600160a01b03168686612300565b6001925050505b92915050565b6003546001600160a01b031633146118e75760405162461bcd60e51b815260040161077690612dce565b6001600160a01b0381166119355760405162461bcd60e51b815260206004820152601560248201527412d9595c195c8818d85b9b9bdd081899481b9d5b1b605a1b6044820152606401610776565b6007546040516001600160a01b038084169216907f402b3f9a8de3e388e7653c7a5892204fe18b579c8c23db19d6e00f1043ceb92190600090a3600780546001600160a01b0319166001600160a01b0392909216919091179055565b6009546001600160a01b031633146119a857600080fd5b6009546040516001600160a01b038084169216907f4a1fe1b44fae78218ab520acca2aaba5067e706a4084bccf913f291c8d6e074990600090a3600980546001600160a01b0319166001600160a01b0392909216919091179055565b600f5460408051634c6afee560e11b815290516000926001600160a01b0316916398d5fdca916004808301926020929190829003018186803b158015611a4957600080fd5b505afa158015611a5d573d6000803e3d6000fd5b505050506040513d601f19601f82011682018060405250810190611a819190612a08565b905090565b6004546001600160a01b03163314611ae05760405162461bcd60e51b815260206004820152601d60248201527f6d73672e73656e646572206e6f7420696e76617269616e74436865636b0000006044820152606401610776565b6006805460ff60a01b1916600160a01b1790556040517f9e87fac88ff661f02d44f95383c817fece4bce600a3dab7a54406878b965e75290600090a1565b600e546001600160a01b03163314611b485760405162461bcd60e51b815260040161077690612d97565b600654600160a01b900460ff1615611b725760405162461bcd60e51b815260040161077690612d6f565b60118360028110611b8557611b85612ee0565b0154604051632770a7eb60e21b81526001600160a01b0383811660048301526024820185905290911690639dc29fac90604401600060405180830381600087803b158015611bd257600080fd5b505af1158015611be6573d6000803e3d6000fd5b50505050505050565b60055460405163aeb64d7d60e01b8152600160801b90910460801b6001600160801b031916600482015260009073c644E1ba225E2ab0BE407926A177dDc89101A77d9063aeb64d7d906024015b60206040518083038186803b158015611c5457600080fd5b505af4158015611a5d573d6000803e3d6000fd5b6003546001600160a01b03163314611c925760405162461bcd60e51b815260040161077690612dce565b600654600160a01b900460ff1615611cbc5760405162461bcd60e51b815260040161077690612d6f565b6001600160a01b038116611d0b5760405162461bcd60e51b81526020600482015260166024820152751058d8dbdd5b9d0818d85b9b9bdd081899481b9d5b1b60521b6044820152606401610776565b6008546040516001600160a01b038084169216907f11f35a22548bcd4c3788ab4a7e4fba427a2014f02e5d5e2da9af62212c03183f90600090a3600880546001600160a01b0319166001600160a01b0392909216919091179055565b60055460405163aeb64d7d60e01b815260809190911b6001600160801b031916600482015260009073c644E1ba225E2ab0BE407926A177dDc89101A77d9063aeb64d7d90602401611c3c565b600e546001600160a01b03163314611ddd5760405162461bcd60e51b815260040161077690612d97565b600654600160a01b900460ff1615611e075760405162461bcd60e51b815260040161077690612d6f565b600d546113f4906001600160a01b03168383612300565b600c80546000909155600954600d54611e44916001600160a01b03918216911683612300565b6009546040518281526001600160a01b03909116907f2f76018fcfcd8aaaa8299da890bcca2dfebfc638250a89e5785b34bdc68b636390602001611459565b6003546001600160a01b03163314611ead5760405162461bcd60e51b815260040161077690612dce565b6003546001600160a01b0382811691161415611f315760405162461bcd60e51b815260206004820152603f60248201527f4e657720676f7665726e616e636520616464726573732063616e6e6f7420626560448201527f2073616d65206173206f6c6420676f7665726e616e63652061646472657373006064820152608401610776565b6001600160a01b038116611f875760405162461bcd60e51b815260206004820152601960248201527f476f7665726e616e63652063616e6e6f74206265206e756c6c000000000000006044820152606401610776565b60068054600161ff0160a01b0319166001600160a01b038316908117600160a81b179091556040517f35681f4f23137fb58510a9854f1b6e95f90a2cf0b66d2fce4df74cc0becc82d590600090a250565b60148054611fe590612ea5565b80601f016020809104026020016040519081016040528092919081815260200182805461201190612ea5565b801561205e5780601f106120335761010080835404028352916020019161205e565b820191906000526020600020905b81548152906001019060200180831161204157829003601f168201915b505050505081565b6007546001600160a01b031633146120b85760405162461bcd60e51b815260206004820152601560248201527436b9b39739b2b73232b9103737ba1035b2b2b832b960591b6044820152606401610776565b600654600160a01b900460ff16156120e25760405162461bcd60e51b815260040161077690612d6f565b600454601354600160c01b90910463ffffffff16014210156121465760405162461bcd60e51b815260206004820152601d60248201527f55706461746520696e74657276616c206861736e2774207061737365640000006044820152606401610776565b601380544290915561215883836123a1565b600e5460048054600254600154604051638f5b8e8760e01b8152938401869052600160c01b90920463ffffffff1660248401526044830152606482015260009182918291829182916001600160a01b031690638f5b8e879060840160a060405180830381600087803b1580156121cd57600080fd5b505af11580156121e1573d6000803e3d6000fd5b505050506040513d601f19601f820116820180604052508101906122059190612c08565b601381905560028390556001829055939850919650945092509050841561228b576011546040516340c10f1960e01b8152306004820152602481018790526001600160a01b03909116906340c10f1990604401600060405180830381600087803b15801561227257600080fd5b505af1158015612286573d6000803e3d6000fd5b505050505b83156122f6576012546040516340c10f1960e01b8152306004820152602481018690526001600160a01b03909116906340c10f1990604401600060405180830381600087803b1580156122dd57600080fd5b505af11580156122f1573d6000803e3d6000fd5b505050505b5050505050505050565b6040516001600160a01b0383166024820152604481018290526108fe90849063a9059cbb60e01b906064015b60408051601f198184030181529190526020810180516001600160e01b03166001600160e01b03199093169290921790915261252b565b6040516001600160a01b038085166024830152831660448201526064810182905261239b9085906323b872dd60e01b9060840161232c565b50505050565b6000821315806123b2575060008113155b156123e857604051819083907f27f70c863f1bd3e335bb4d6bf2a31075c861752f0b21a03b816a356035b1dec690600090a35050565b60015460025460055460405163b89bf2ef60e01b81526004810183905260248101849052600160801b8204608090811b6001600160801b03199081166044840152606483018890526084830187905292901b90911660a482015260009081908190819073c644E1ba225E2ab0BE407926A177dDc89101A77d9063b89bf2ef9060c40160806040518083038186803b15801561248257600080fd5b505af4158015612496573d6000803e3d6000fd5b505050506040513d601f19601f820116820180604052508101906124ba9190612bd2565b604080518b850381528a8603602082015290810182905260608101839052939750919550935091507ff1e6677cbfc1dcb704bc91fc51ba87e318c4ed18c6a5571907e52a09a2c0f9aa9060800160405180910390a1600284905560018390556122f66125268284612e53565b6125fd565b6000612580826040518060400160405280602081526020017f5361666545524332303a206c6f772d6c6576656c2063616c6c206661696c6564815250856001600160a01b03166126c99092919063ffffffff16565b8051909150156108fe578080602001905181019061259e91906129a1565b6108fe5760405162461bcd60e51b815260206004820152602a60248201527f5361666545524332303a204552433230206f7065726174696f6e20646964206e6044820152691bdd081cdd58d8d9595960b21b6064820152608401610776565b6009546001600160a01b031661261857600b80548201905550565b600a5460405163fea3de3360e01b815260048101839052602481019190915260646044820181905260009173c644E1ba225E2ab0BE407926A177dDc89101A77d9163fea3de33910160206040518083038186803b15801561267857600080fd5b505af415801561268c573d6000803e3d6000fd5b505050506040513d601f19601f820116820180604052508101906126b09190612a08565b600c805482019055600b80549184039091019055505b50565b60606126d884846000856126e2565b90505b9392505050565b6060824710156127435760405162461bcd60e51b815260206004820152602660248201527f416464726573733a20696e73756666696369656e742062616c616e636520666f6044820152651c8818d85b1b60d21b6064820152608401610776565b843b6127915760405162461bcd60e51b815260206004820152601d60248201527f416464726573733a2063616c6c20746f206e6f6e2d636f6e74726163740000006044820152606401610776565b600080866001600160a01b031685876040516127ad9190612c9a565b60006040518083038185875af1925050503d80600081146127ea576040519150601f19603f3d011682016040523d82523d6000602084013e6127ef565b606091505b50915091506127ff82828661280a565b979650505050505050565b606083156128195750816126db565b8251156128295782518084602001fd5b8160405162461bcd60e51b81526004016107769190612d5c565b82805461284f90612ea5565b90600052602060002090601f01602090048101928261287157600085556128b7565b82601f1061288a5782800160ff198235161785556128b7565b828001600101855582156128b7579182015b828111156128b757823582559160200191906001019061289c565b506128c39291506128e5565b5090565b60405180604001604052806002906020820280368337509192915050565b5b808211156128c357600081556001016128e6565b60006020828403121561290c57600080fd5b81356126db81612f0c565b60006020828403121561292957600080fd5b81516126db81612f0c565b60008060006060848603121561294957600080fd5b833561295481612f0c565b9250602084013561296481612f0c565b929592945050506040919091013590565b6000806040838503121561298857600080fd5b823561299381612f0c565b946020939093013593505050565b6000602082840312156129b357600080fd5b81516126db81612f21565b6000806000606084860312156129d357600080fd5b833561295481612f21565b6000602082840312156129f057600080fd5b81516001600160801b0319811681146126db57600080fd5b600060208284031215612a1a57600080fd5b5051919050565b60008060408385031215612a3457600080fd5b82519150602083015167ffffffffffffffff80821115612a5357600080fd5b818501915085601f830112612a6757600080fd5b815181811115612a7957612a79612ef6565b604051601f8201601f19908116603f01168101908382118183101715612aa157612aa1612ef6565b81604052828152886020848701011115612aba57600080fd5b612acb836020830160208801612e79565b80955050505050509250929050565b60008060408385031215612aed57600080fd5b50508035926020909101359150565b600060208284031215612b0e57600080fd5b813567ffffffffffffffff811115612b2557600080fd5b820161022081850312156126db57600080fd5b600060208284031215612b4a57600080fd5b813561ffff811681146126db57600080fd5b600060208284031215612b6e57600080fd5b5035919050565b60008060408385031215612b8857600080fd5b505080516020909101519092909150565b600080600060608486031215612bae57600080fd5b83359250602084013591506040840135612bc781612f0c565b809150509250925092565b60008060008060808587031215612be857600080fd5b505082516020840151604085015160609095015191969095509092509050565b600080600080600060a08688031215612c2057600080fd5b5050835160208501516040860151606087015160809097015192989197509594509092509050565b600060208284031215612c5a57600080fd5b813563ffffffff811681146126db57600080fd5b60008151808452612c86816020860160208601612e79565b601f01601f19169290920160200192915050565b60008251612cac818460208701612e79565b9190910192915050565b6001600160a01b03841681526040602082018190528101829052818360608301376000818301606090810191909152601f909201601f1916010192915050565b60408101818360005b6002811015612d275781516001600160a01b0316835260209283019290910190600101612cff565b50505092915050565b848152608060208201526000612d496080830186612c6e565b6040830194909452506060015292915050565b6020815260006126db6020830184612c6e565b6020808252600e908201526d141bdbdb081a5cc81c185d5cd95960921b604082015260600190565b6020808252601c908201527f6d73672e73656e646572206e6f7420706f6f6c436f6d6d697474657200000000604082015260600190565b60208082526019908201527f6d73672e73656e646572206e6f7420676f7665726e616e636500000000000000604082015260600190565b6000808335601e19843603018112612e1c57600080fd5b83018035915067ffffffffffffffff821115612e3757600080fd5b602001915036819003821315612e4c57600080fd5b9250929050565b60008219821115612e7457634e487b7160e01b600052601160045260246000fd5b500190565b60005b83811015612e94578181015183820152602001612e7c565b8381111561239b5750506000910152565b600181811c90821680612eb957607f821691505b60208210811415612eda57634e487b7160e01b600052602260045260246000fd5b50919050565b634e487b7160e01b600052603260045260246000fd5b634e487b7160e01b600052604160045260246000fd5b6001600160a01b03811681146126c657600080fd5b80151581146126c657600080fdfea26469706673582212200a4b8ff1742d412bdaabed3356502edd536bc0b2ad9447ad68ac9ad86860753e64736f6c634300080700336080604052600180546001600160801b0319168117905534801561002257600080fd5b50614ea7806100326000396000f3fe6080604052600436106102935760003560e01c80638f5b8e871161015a578063c45a0155116100c1578063ea348c9a1161007a578063ea348c9a146108fc578063f14fcbc814610953578063f3fa35a0146105eb578063f9dc972014610966578063fa87166514610986578063fe5898581461099b57600080fd5b8063c45a01551461084a578063c70db3231461086a578063ce66091614610890578063d4c4e283146108a6578063e20acc79146108bb578063e323aac6146108dc57600080fd5b8063af91497611610113578063af91497614610780578063b27a048414610796578063b59d88a9146107e0578063b9fc75b0146107f5578063c3bed53f14610815578063c40f6aa91461083557600080fd5b80638f5b8e871461062957806390f712cc1461067157806397ac250f1461068b5780639a546848146106a15780639d03132e146107405780639fa21dca1461076057600080fd5b806355c10624116101fe5780636fa1268e116101b75780636fa1268e146105785780637403c6cd146105965780638456cb59146105b6578063882d882b146105cb57806388b78aaa146105eb5780638d7269fa1461060957600080fd5b806355c106241461048b5780635a64ad95146104c65780635aa6e675146104e75780635c975abb146105075780636333091a146105385780636999b3771461055857600080fd5b80633ed4c678116102505780633ed4c6781461039c5780633f4ba83a146103bc5780634437152a146103d15780634509017e146103f15780634f64b2be1461042957806354da49921461044957600080fd5b8063062e0d69146102985780631aabc7e7146102ca5780631d92c26d146103135780631e83409a1461033a578063238a47091461035c578063384564e31461037c575b600080fd5b3480156102a457600080fd5b506102ad600081565b6040516001600160801b0390911681526020015b60405180910390f35b3480156102d657600080fd5b506102fa6102e5366004614a4d565b60066020526000908152604090205460801b81565b6040516001600160801b031990911681526020016102c1565b34801561031f57600080fd5b50610328600f81565b60405160ff90911681526020016102c1565b34801561034657600080fd5b5061035a61035536600461489c565b610a18565b005b34801561036857600080fd5b5061035a610377366004614a4d565b610de4565b34801561038857600080fd5b5061035a610397366004614a4d565b610f40565b3480156103a857600080fd5b5061035a6103b736600461489c565b6110a7565b3480156103c857600080fd5b5061035a611160565b3480156103dd57600080fd5b5061035a6103ec36600461489c565b6111f2565b3480156103fd57600080fd5b50601454610411906001600160a01b031681565b6040516001600160a01b0390911681526020016102c1565b34801561043557600080fd5b50610411610444366004614a4d565b61136a565b34801561045557600080fd5b5061046961046436600461489c565b61138a565b60408051825181526020808401519082015291810151908201526060016102c1565b34801561049757600080fd5b506104b86104a636600461489c565b600d6020526000908152604090205481565b6040519081526020016102c1565b3480156104d257600080fd5b506001546102fa90600160801b900460801b81565b3480156104f357600080fd5b50601154610411906001600160a01b031681565b34801561051357600080fd5b5060145461052890600160a01b900460ff1681565b60405190151581526020016102c1565b34801561054457600080fd5b50610528610553366004614a66565b611615565b34801561056457600080fd5b50601254610411906001600160a01b031681565b34801561058457600080fd5b506102fa66201bb1a2bc2ec560c91b81565b3480156105a257600080fd5b5061035a6105b13660046148b9565b61164f565b3480156105c257600080fd5b5061035a611c18565b3480156105d757600080fd5b506105286105e6366004614a66565b611cb0565b3480156105f757600080fd5b506102fa668075782dace9d960c71b81565b34801561061557600080fd5b50610528610624366004614a66565b611cd4565b34801561063557600080fd5b50610649610644366004614b85565b611cf9565b604080519586526020860194909452928401919091526060830152608082015260a0016102c1565b34801561067d57600080fd5b506002546102fa9060801b81565b34801561069757600080fd5b506104b860095481565b3480156106ad57600080fd5b5061070b6106bc366004614943565b600c602052816000526040600020602052806000526040600020600091509150508060000154908060010154908060020154908060030154908060040154908060050154908060060154905087565b604080519788526020880196909652948601939093526060850191909152608084015260a083015260c082015260e0016102c1565b34801561074c57600080fd5b506001546102ad906001600160801b031681565b34801561076c57600080fd5b5061035a61077b36600461489c565b612202565b34801561078c57600080fd5b506104b8600a5481565b3480156107a257600080fd5b506107d26107b1366004614a4d565b600560205260009081526040902054608081811b91600160801b9004901b82565b6040516102c1929190614bdd565b3480156107ec57600080fd5b506104b861273d565b34801561080157600080fd5b506104b8610810366004614943565b6127df565b34801561082157600080fd5b50610528610830366004614a66565b612810565b34801561084157600080fd5b506102ad600181565b34801561085657600080fd5b50601054610411906001600160a01b031681565b34801561087657600080fd5b50600054610411906201000090046001600160a01b031681565b34801561089c57600080fd5b506104b860085481565b3480156108b257600080fd5b506102ad612818565b3480156108c757600080fd5b506002546102fa90600160801b900460801b81565b3480156108e857600080fd5b50601354610411906001600160a01b031681565b34801561090857600080fd5b5061093861091736600461489c565b60076020526000908152604090208054600182015460029092015490919083565b604080519384526020840192909252908201526060016102c1565b61035a610961366004614a4d565b612a38565b34801561097257600080fd5b5061035a610981366004614a4d565b613118565b34801561099257600080fd5b506104b8613261565b3480156109a757600080fd5b506109eb6109b6366004614a4d565b600b60205260009081526040902080546001820154600283015460038401546004850154600590950154939492939192909186565b604080519687526020870195909552938501929092526060840152608083015260a082015260c0016102c1565b80336001600160a01b0382161480610a4057506000546201000090046001600160a01b031633145b610a9f5760405162461bcd60e51b815260206004820152602560248201527f6d73672e73656e646572206e6f7420636f6d6d6974746572206f72204175746f604482015264436c61696d60d81b60648201526084015b60405180910390fd5b601454600160a01b900460ff1615610aea5760405162461bcd60e51b815260206004820152600e60248201526d141bdbdb081a5cc81c185d5cd95960921b6044820152606401610a96565b610af382612202565b6001600160a01b0380831660008181526007602081815260408084208151606081018352815481526001820180548286015260028301805483860152601354898952969095529186905590859055918490555190949190911692917f0c7ef932d3b91976772937f18d5ef9b39a9930bef486b576c374f047c4b512dc91a2336001600160a01b038516148015610c0e5750600054604051631107d3c960e31b81526001600160a01b038681166004830152306024830152620100009092049091169063883e9e489060440160206040518083038186803b158015610bd657600080fd5b505afa158015610bea573d6000803e3d6000fd5b505050506040513d601f19601f82011682018060405250810190610c0e9190614a01565b15610c7a576000546040516307119aeb60e01b81526001600160a01b03868116600483015262010000909204909116906307119aeb90602401600060405180830381600087803b158015610c6157600080fd5b505af1158015610c75573d6000803e3d6000fd5b505050505b604082015115610cee57604082810151905163d0b06f0960e01b81526001600160a01b03868116600483015260248201929092529082169063d0b06f0990604401600060405180830381600087803b158015610cd557600080fd5b505af1158015610ce9573d6000803e3d6000fd5b505050505b815115610d6357815160405163110b1bed60e01b8152600160048201526001600160a01b03868116602483015260448201929092529082169063110b1bed90606401600060405180830381600087803b158015610d4a57600080fd5b505af1158015610d5e573d6000803e3d6000fd5b505050505b602082015115610dde57602082015160405163110b1bed60e01b8152600060048201526001600160a01b03868116602483015260448201929092529082169063110b1bed90606401600060405180830381600087803b158015610dc557600080fd5b505af1158015610dd9573d6000803e3d6000fd5b505050505b50505050565b6012546001600160a01b03163314610e0e5760405162461bcd60e51b8152600401610a9690614c57565b604051636fedf26d60e11b81526004810182905273c644E1ba225E2ab0BE407926A177dDc89101A77d9063dfdbe4da9060240160206040518083038186803b158015610e5957600080fd5b505af4158015610e6d573d6000803e3d6000fd5b505050506040513d601f19601f82011682018060405250810190610e919190614a23565b60018054608092831c600160801b9081026001600160801b039092169190911791829055668075782dace9d960c71b910490911b6001600160801b0319161115610f125760405162461bcd60e51b81526020600482015260126024820152714d696e74696e6720666565203e203130302560701b6044820152606401610a96565b60405181907f07aefbcc0d8cdf34e241279c78d93d1df9540b5a60d320437958df12ef59e46390600090a250565b6012546001600160a01b03163314610f6a5760405162461bcd60e51b8152600401610a9690614c57565b604051636fedf26d60e11b81526004810182905273c644E1ba225E2ab0BE407926A177dDc89101A77d9063dfdbe4da9060240160206040518083038186803b158015610fb557600080fd5b505af4158015610fc9573d6000803e3d6000fd5b505050506040513d601f19601f82011682018060405250810190610fed9190614a23565b60028054608092831c600160801b9081026001600160801b039092169190911791829055668075782dace9d960c71b910490911b6001600160801b03191611156110795760405162461bcd60e51b815260206004820152601d60248201527f4368616e676520496e74657276616c2065786365656473206c696d69740000006044820152606401610a96565b60405181907f1f609e633399cb8530717d1970d31255fae2af322c2c3b90793cc1c1a7fe88be90600090a250565b6011546001600160a01b03163314806110ca57506012546001600160a01b031633145b6111165760405162461bcd60e51b815260206004820152601860248201527f43616e6e6f742073657420666565436f6e74726f6c6c657200000000000000006044820152606401610a96565b601280546001600160a01b0319166001600160a01b0383169081179091556040517f4645d48e2e83635dc48865c27880f748bc610aab2e41ca3358057b565ff56a5790600090a250565b6011546001600160a01b031633146111ba5760405162461bcd60e51b815260206004820152601960248201527f6d73672e73656e646572206e6f7420676f7665726e616e6365000000000000006044820152606401610a96565b6014805460ff60a01b191690556040517fa45f47fdea8a1efdd9029a5691c7f759c32b7c698632b563573e155625d1693390600090a1565b6010546001600160a01b031633146112455760405162461bcd60e51b8152602060048201526016602482015275436f6d6d69747465723a206e6f7420666163746f727960501b6044820152606401610a96565b6001600160a01b03811661129b5760405162461bcd60e51b815260206004820152601d60248201527f4c657665726167656420706f6f6c2063616e6e6f74206265206e756c6c0000006044820152606401610a96565b601380546001600160a01b0319166001600160a01b0383169081179091556040805163369f189f60e11b81528151636d3e313e92600480840193919291829003018186803b1580156112ec57600080fd5b505afa158015611300573d6000803e3d6000fd5b505050506040513d601f19601f82011682018060405250810190611324919061496f565b6113329060039060026147ce565b506040516001600160a01b038216907fa84ed99a050d1610bc3dddf2c220cd77842a3ab1a46664af49062a70417debdf90600090a250565b6003816002811061137a57600080fd5b01546001600160a01b0316905081565b6113ae60405180606001604052806000815260200160008152602001600081525090565b6001600160a01b0382166000818152600760209081526040808320815160608082018452825482526001808401548387015260029093015482850152835160e08101855292546001600160801b0316835282850186905282840186905282018590526080820185905260a0820185905260c08201859052948452600e8352818420805483518186028101860190945280845291949390919083018282801561147557602002820191906000526020600020905b815481526020019060010190808311611461575b5050835193945050600f83109150611490905057600f611492565b805b60ff1660c084015260005b8360c0015160ff168110156115c15760008382815181106114c0576114c0614e30565b6020026020010151905080600014156114d957506115b9565b6001600160a01b0388166000908152600c60209081526040808320848452825291829020825160e08101845281548152600180830154938201939093526002820154938101939093526003810154606084015260048101546080840152600581015460a08401526006015460c0830181905290546001600160801b031611156115b6576000611567826132ad565b905080600001518760200181815161157f9190614d7d565b9052506020810151604088018051611598908390614d7d565b90525060808101516060880180516115b1908390614d7d565b905250505b50505b60010161149d565b506020830151845185906115d6908390614d7d565b90525060408301516020850180516115ef908390614d7d565b9052506060830151604085018051611608908390614d7d565b9052509295945050505050565b6000600282600581111561162b5761162b614e04565b1480611649575060005b82600581111561164757611647614e04565b145b92915050565b600054610100900460ff1680611668575060005460ff16155b6116cb5760405162461bcd60e51b815260206004820152602e60248201527f496e697469616c697a61626c653a20636f6e747261637420697320616c72656160448201526d191e481a5b9a5d1a585b1a5e995960921b6064820152608401610a96565b600054610100900460ff161580156116ed576000805461ffff19166101011790555b6001600160a01b03891661173c5760405162461bcd60e51b8152602060048201526016602482015275119858dd1bdc9e4818d85b9b9bdd081899481b9d5b1b60521b6044820152606401610a96565b6001600160a01b0388166117925760405162461bcd60e51b815260206004820152601860248201527f4175746f436c61696d2063616e6e6f74206265206e756c6c00000000000000006044820152606401610a96565b6001600160a01b0386166117e85760405162461bcd60e51b815260206004820152601d60248201527f66656520636f6e74726f6c6c65722063616e6e6f74206265206e756c6c0000006044820152606401610a96565b6001600160a01b03851661183e5760405162461bcd60e51b815260206004820152601d60248201527f696e76617269616e74436865636b2063616e6e6f74206265206e756c6c0000006044820152606401610a96565b600180546001600160801b03191681179055601080546001600160a01b038b81166001600160a01b0319928316179092556014805492881692909116919091179055604051636fedf26d60e11b81526004810185905273c644E1ba225E2ab0BE407926A177dDc89101A77d9063dfdbe4da9060240160206040518083038186803b1580156118cb57600080fd5b505af41580156118df573d6000803e3d6000fd5b505050506040513d601f19601f820116820180604052508101906119039190614a23565b6001805460809290921c600160801b026001600160801b03909216919091179055604051636fedf26d60e11b81526004810184905273c644E1ba225E2ab0BE407926A177dDc89101A77d9063dfdbe4da9060240160206040518083038186803b15801561196f57600080fd5b505af4158015611983573d6000803e3d6000fd5b505050506040513d601f19601f820116820180604052508101906119a79190614a23565b600280546001600160801b03191660809290921c919091179055604051636fedf26d60e11b81526004810183905273c644E1ba225E2ab0BE407926A177dDc89101A77d9063dfdbe4da9060240160206040518083038186803b158015611a0c57600080fd5b505af4158015611a20573d6000803e3d6000fd5b505050506040513d601f19601f82011682018060405250810190611a449190614a23565b600280546001600160801b0316600160801b608093841c810291909117909155600154668075782dace9d960c71b6001600160801b03199290910490921b161115611ad15760405162461bcd60e51b815260206004820152601960248201527f4d696e74696e67206665652065786365656473206c696d6974000000000000006044820152606401610a96565b60025466201bb1a2bc2ec560c91b60809190911b6001600160801b0319161115611b3d5760405162461bcd60e51b815260206004820152601960248201527f4275726e696e67206665652065786365656473206c696d6974000000000000006044820152606401610a96565b600254668075782dace9d960c71b600160801b90910460801b6001600160801b0319161115611bae5760405162461bcd60e51b815260206004820152601d60248201527f4368616e676520496e74657276616c2065786365656473206c696d69740000006044820152606401610a96565b601280546001600160a01b038089166001600160a01b031992831617909255600080548b8416620100000262010000600160b01b031990911617905560118054928a16929091169190911790558015611c0d576000805461ff00191690555b505050505050505050565b6014546001600160a01b03163314611c725760405162461bcd60e51b815260206004820152601d60248201527f6d73672e73656e646572206e6f7420696e76617269616e74436865636b0000006044820152606401610a96565b6014805460ff60a01b1916600160a01b1790556040517f9e87fac88ff661f02d44f95383c817fece4bce600a3dab7a54406878b965e75290600090a1565b60006002826005811115611cc657611cc6614e04565b148061164957506003611635565b600060035b826005811115611ceb57611ceb614e04565b148061164957506001611635565b60135460009081908190819081906001600160a01b03163314611d5e5760405162461bcd60e51b815260206004820152601c60248201527f6d73672e73656e646572206e6f74206c6576657261676564506f6f6c000000006044820152606401610a96565b6040805160a081018083526003546318160ddd60e01b90915291516001926000929182916001600160a01b0316906318160ddd9060a480850191602091818703018186803b158015611daf57600080fd5b505afa158015611dc3573d6000803e3d6000fd5b505050506040513d601f19601f82011682018060405250810190611de79190614b1a565b8152602001600360010160009054906101000a90046001600160a01b03166001600160a01b03166318160ddd6040518163ffffffff1660e01b815260040160206040518083038186803b158015611e3d57600080fd5b505afa158015611e51573d6000803e3d6000fd5b505050506040513d601f19601f82011682018060405250810190611e759190614b1a565b81526000602080830182905260408084018390526060938401929092528351918401919091528201519082015290505b600f60ff83161161202e57611ebd60ff83168b614d95565b611ec7908c614d7d565b421061201e57600180546001600160801b03908116608084810182815260028054600094855260066020908152604080872080546001600160801b031916939098169290921790965591518452600b855292819020815160c0810183528154815295810154948601949094529183015491840191909152600382015460608401526004820154908301526005015460a0820152611f6690828b8b613435565b602085810193909352928452608080850151600254604051921b6001600160801b0319168252919c50929a50917f260463f9bbb6d40c58e9fc4e09a71c3f80fc18d818d6d9d5df86b2443722a59f910160405180910390a260808101516000908152600b60205260408120818155600180820183905560028201839055600382018390556004820183905560059091019190915580546001600160801b038082168301166001600160801b0319909116179055612023565b61202e565b600182019150611ea5565b8051604051635cf4ee9160e01b8152600481018b905260248101919091526121599073c644E1ba225E2ab0BE407926A177dDc89101A77d90635cf4ee919060440160206040518083038186803b15801561208757600080fd5b505af415801561209b573d6000803e3d6000fd5b505050506040513d601f19601f820116820180604052508101906120bf9190614a23565b6020830151604051635cf4ee9160e01b815273c644E1ba225E2ab0BE407926A177dDc89101A77d91635cf4ee9191612104918e91600401918252602082015260400190565b60206040518083038186803b15801561211c57600080fd5b505af4158015612130573d6000803e3d6000fd5b505050506040513d601f19601f820116820180604052508101906121549190614a23565b613c16565b600f60ff8316118015612197575089612173600184614dcb565b6121809060ff168c614d95565b61218a908d614d7d565b6121949042614db4565b10155b156121c5576121a7600183614dcb565b6121b49060ff168b614d95565b6121be908c614d7d565b9a506121c9565b429a505b604081015181516121da9190614db4565b816060015182602001516121ee9190614db4565b909c909b999a509798979650505050505050565b6001600160a01b0381166000818152600760209081526040808320815160e0810183526001546001600160801b03168152808401859052808301859052606081018590526080810185905260a0810185905260c08101859052948452600e83528184208054835181860281018601909452808452919594939091908301828280156122ac57602002820191906000526020600020905b815481526020019060010190808311612298575b5050835193945050600f831091506122c7905057600f6122c9565b805b60ff1660c084015260005b8360c0015160ff168110156125605760008382815181106122f7576122f7614e30565b6020026020010151905080600014156123105750612558565b6001600160a01b0387166000908152600c60209081526040808320848452825291829020825160e08101845281548152600180830154938201939093526002820154938101939093526003810154606084015260048101546080840152600581015460a08401526006015460c0830181905290546001600160801b0316111561251957600061239e826132ad565b90508060000151876020018181516123b69190614d7d565b90525060208101516040880180516123cf908390614d7d565b90525060808101516060880180516123e8908390614d7d565b9052506040810151608088018051612401908390614d7d565b905250606081015160a08801805161241a908390614d7d565b9052506001600160a01b0389166000818152600c6020908152604080832087845282528083208381556001810184905560028101849055600381018490556004810184905560058101849055600601839055928252600e905220600f86118015612485575080546001105b801561249d5750805461249a90600190614db4565b85105b156124ec57805481906124b290600190614db4565b815481106124c2576124c2614e30565b90600052602060002001548186815481106124df576124df614e30565b6000918252602090912001555b808054806124fc576124fc614e1a565b600190038181906000526020600020016000905590555050612555565b600f841161255557600f85848151811061253557612535614e30565b602090810291909101810151825460018101845560009384529190922001555b50505b6001016122d4565b50600f811161259d576001600160a01b0385166000908152600e60205260409020600f8054612590929190614826565b5061259d600f6000614866565b82602001518460000160008282546125b59190614d7d565b909155505060408301516001850180546000906125d3908490614d7d565b909155505060608301516002850180546000906125f1908490614d7d565b909155505060135460408051630f77314d60e31b815281516001600160a01b039093169260009283928592637bb98a6892600480840193919291829003018186803b15801561263f57600080fd5b505afa158015612653573d6000803e3d6000fd5b505050506040513d601f19601f820116820180604052508101906126779190614b33565b91509150826001600160a01b0316633c3f825287608001518361269a9190614d7d565b60a08901516126a99086614d7d565b6040516001600160e01b031960e085901b16815260048101929092526024820152604401600060405180830381600087803b1580156126e757600080fd5b505af11580156126fb573d6000803e3d6000fd5b50506040516001600160a01b038b1692507fdefa4140341b4fd283af41700779361dc94f34ae245a186b3b9c187033c065549150600090a25050505050505050565b60015460405163aeb64d7d60e01b8152600160801b90910460801b6001600160801b031916600482015260009073c644E1ba225E2ab0BE407926A177dDc89101A77d9063aeb64d7d906024015b60206040518083038186803b1580156127a257600080fd5b505af41580156127b6573d6000803e3d6000fd5b505050506040513d601f19601f820116820180604052508101906127da9190614b1a565b905090565b600e60205281600052604060002081815481106127fb57600080fd5b90600052602060002001600091509150505481565b600080611cd9565b60135460408051637de93f9360e01b815290516000926001600160a01b03169173c644E1ba225E2ab0BE407926A177dDc89101A77d9163ff9afe879142918591637de93f93916004808301926020929190829003018186803b15801561287d57600080fd5b505afa158015612891573d6000803e3d6000fd5b505050506040513d601f19601f820116820180604052508101906128b59190614b1a565b846001600160a01b0316637bfe789a6040518163ffffffff1660e01b815260040160206040518083038186803b1580156128ee57600080fd5b505afa158015612902573d6000803e3d6000fd5b505050506040513d601f19601f820116820180604052508101906129269190614bb7565b856001600160a01b031663fd2c80ae6040518163ffffffff1660e01b815260040160206040518083038186803b15801561295f57600080fd5b505afa158015612973573d6000803e3d6000fd5b505050506040513d601f19601f820116820180604052508101906129979190614bb7565b60015460405160e087901b6001600160e01b03191681526004810195909552602485019390935263ffffffff91821660448501521660648301526001600160801b0316608482015260a40160206040518083038186803b1580156129fa57600080fd5b505af4158015612a0e573d6000803e3d6000fd5b505050506040513d601f19601f82011682018060405250810190612a329190614b1a565b91505090565b6001600160801b03811660ff608083901c811690608884901c811690609085901c1683612aa75760405162461bcd60e51b815260206004820152601760248201527f416d6f756e74206d757374206e6f74206265207a65726f0000000000000000006044820152606401610a96565b612ab033612202565b60135460408051637e96405760e11b815290516001600160a01b0390921691600091839163fd2c80ae91600480820192602092909190829003018186803b158015612afa57600080fd5b505afa158015612b0e573d6000803e3d6000fd5b505050506040513d601f19601f82011682018060405250810190612b329190614bb7565b63ffffffff1690506000826001600160a01b0316637de93f936040518163ffffffff1660e01b815260040160206040518083038186803b158015612b7557600080fd5b505afa158015612b89573d6000803e3d6000fd5b505050506040513d601f19601f82011682018060405250810190612bad9190614b1a565b90506000836001600160a01b0316637bfe789a6040518163ffffffff1660e01b815260040160206040518083038186803b158015612bea57600080fd5b505afa158015612bfe573d6000803e3d6000fd5b505050506040513d601f19601f82011682018060405250810190612c229190614bb7565b60015460405160016265017960e01b031981524260048201526024810185905263ffffffff9290921660448301819052606483018690526001600160801b039091166084830152915060009073c644E1ba225E2ab0BE407926A177dDc89101A77d9063ff9afe879060a40160206040518083038186803b158015612ca557600080fd5b505af4158015612cb9573d6000803e3d6000fd5b505050506040513d601f19601f82011682018060405250810190612cdd9190614b1a565b6000818152600b60209081526040808320338452600c835281842085855290925290912060068101549293509091612d1757600681018390555b336000908152600e6020526040902054801580612d685750336000908152600e602052604090208490612d4b600184614db4565b81548110612d5b57612d5b614e30565b9060005260206000200154105b15612d9057336000908152600e60209081526040822080546001810182559083529120018490555b604051633199848d60e11b81523090636333091a90612db3908e90600401614bf8565b60206040518083038186803b158015612dcb57600080fd5b505afa158015612ddf573d6000803e3d6000fd5b505050506040513d601f19601f82011682018060405250810190612e039190614a01565b8015612e0c5750895b15612e9b57336000908152600760205260409020600201548c1115612e735760405162461bcd60e51b815260206004820152601e60248201527f496e73756666696369656e7420736574746c656d656e7420746f6b656e7300006044820152606401610a96565b33600090815260076020526040812060020180548e9290612e95908490614db4565b90915550505b612ea9888c8e8d868861404a565b604051633199848d60e11b81523090636333091a90612ecc908e90600401614bf8565b60206040518083038186803b158015612ee457600080fd5b505afa158015612ef8573d6000803e3d6000fd5b505050506040513d601f19601f82011682018060405250810190612f1c9190614a01565b8015612f26575089155b15612f9857601354604051630348287760e21b81523360048201526001600160a01b039182166024820152604481018e905290891690630d20a1dc90606401600060405180830381600087803b158015612f7f57600080fd5b505af1158015612f93573d6000803e3d6000fd5b505050505b88156130495734612fe05760405162461bcd60e51b81526020600482015260126024820152714d7573742070617920666f7220636c61696d60701b6044820152606401610a96565b600054604051634da17a3f60e11b8152336004820152620100009091046001600160a01b031690639b42f47e9034906024016000604051808303818588803b15801561302b57600080fd5b505af115801561303f573d6000803e3d6000fd5b5050505050613090565b34156130905760405162461bcd60e51b81526020600482015260166024820152756d73672e76616c7565206d757374206265207a65726f60501b6044820152606401610a96565b8a60058111156130a2576130a2614e04565b600154604080518781528d151560208201528c151591810191909152600160801b909104608090811b6001600160801b03191660608301528e9133917f04f9dae5361dfaa5b3f324fc0af5e71bcb4d76e8324ad9ce78d70496c548d503910160405180910390a450505050505050505050505050565b6012546001600160a01b031633146131425760405162461bcd60e51b8152600401610a9690614c57565b604051636fedf26d60e11b81526004810182905273c644E1ba225E2ab0BE407926A177dDc89101A77d9063dfdbe4da9060240160206040518083038186803b15801561318d57600080fd5b505af41580156131a1573d6000803e3d6000fd5b505050506040513d601f19601f820116820180604052508101906131c59190614a23565b60028054608092831c6001600160801b0319918216179182905566201bb1a2bc2ec560c91b9190921b909116106132335760405162461bcd60e51b81526020600482015260126024820152714275726e696e6720666565203e3d2031302560701b6044820152606401610a96565b60405181907f9bd544d4dd4e5359b6126812d7f52828638adf3d7beab61310fab58b27d811cc90600090a250565b60025460405163aeb64d7d60e01b815260809190911b6001600160801b031916600482015260009073c644E1ba225E2ab0BE407926A177dDc89101A77d9063aeb64d7d9060240161278a565b6132df6040518060a0016040528060008152602001600081526020016000815260200160008152602001600081525090565b604080516101808101825260c08085018051600090815260056020818152868320546001600160801b0319608091821b811688528551855292825287842054600160801b90819004821b841683890152600154908104821b8416888a01526001600160801b03166060808901919091528551828901528a5160a0808a0191909152838c0151978901979097528a89015160e08901528a015161010088015294890151610120870152848901516101408701529251825260069092528490205490911b166101608201529051639eb17fa360e01b815273c644E1ba225E2ab0BE407926A177dDc89101A77d90639eb17fa3906133de908490600401614c8e565b60a06040518083038186803b1580156133f657600080fd5b505af415801561340a573d6000803e3d6000fd5b505050506040513d601f19601f8201168201806040525081019061342e9190614aaa565b9392505050565b6080830180516000908152600b6020526040808220600201549251825281205460085491928392839283929161346b9190614db4565b6134759190614db4565b6008819055506000604051806101000160405280878b604001516134999190614d7d565b8152602001888b600001516134ae9190614d7d565b8152602001600081526020016000815260200160008152602001600081526020018a60a001518b602001516134e39190614d7d565b81526020018a608001518b606001516134fc9190614d7d565b8152509050600073c644E1ba225E2ab0BE407926A177dDc89101A77d635cf4ee9189600a548c600001516135309190614d7d565b6040516001600160e01b031960e085901b1681526004810192909252602482015260440160206040518083038186803b15801561356c57600080fd5b505af4158015613580573d6000803e3d6000fd5b505050506040513d601f19601f820116820180604052508101906135a49190614a23565b9050600073c644E1ba225E2ab0BE407926A177dDc89101A77d635cf4ee91896009548d602001516135d59190614d7d565b6040516001600160e01b031960e085901b1681526004810192909252602482015260440160206040518083038186803b15801561361157600080fd5b505af4158015613625573d6000803e3d6000fd5b505050506040513d601f19601f820116820180604052508101906136499190614a23565b90506040518060400160405280836001600160801b0319168152602001826001600160801b031916815250600560008c60800151815260200190815260200160002060008201518160000160006101000a8154816001600160801b03021916908360801c021790555060208201518160000160106101000a8154816001600160801b03021916908360801c0217905550905050600073c644E1ba225E2ab0BE407926A177dDc89101A77d63839dff3d8d60a0015185600260009054906101000a900460801b600160109054906101000a900460801b6040518563ffffffff1660e01b815260040161376094939291909384526001600160801b03199283166020850152908216604084015216606082015260800190565b60606040518083038186803b15801561377857600080fd5b505af415801561378c573d6000803e3d6000fd5b505050506040513d601f19601f820116820180604052508101906137b09190614b57565b505060808501819052845190915084906137cb908390614d7d565b90525060808b81015160025460015460405163839dff3d60e01b815260048101939093526001600160801b0319858116602485015291841b82166044840152600160801b900490921b909116606482015260009073c644E1ba225E2ab0BE407926A177dDc89101A77d9063839dff3d9060840160606040518083038186803b15801561385657600080fd5b505af415801561386a573d6000803e3d6000fd5b505050506040513d601f19601f8201168201806040525081019061388e9190614b57565b505060a08501819052602085018051919250906138ac908390614d7d565b905250895160a08401518c5173c644E1ba225E2ab0BE407926A177dDc89101A77d9263ab41556f9290916138e09190614d7d565b600a546040516001600160e01b031960e086901b16815260048101939093526024830191909152604482018d9052606482015260840160206040518083038186803b15801561392e57600080fd5b505af4158015613942573d6000803e3d6000fd5b505050506040513d601f19601f820116820180604052508101906139669190614b1a565b6040848101919091528a5160c0850151600a54925163debb52df60e01b815260048101929092526024820152604481018b9052606481019190915273c644E1ba225E2ab0BE407926A177dDc89101A77d9063debb52df9060840160206040518083038186803b1580156139d857600080fd5b505af41580156139ec573d6000803e3d6000fd5b505050506040513d601f19601f82011682018060405250810190613a109190614b1a565b83602001818151613a219190614db4565b9150818152505073c644E1ba225E2ab0BE407926A177dDc89101A77d63ab41556f8b6020015185608001518e60400151613a5b9190614d7d565b6009546040516001600160e01b031960e086901b16815260048101939093526024830191909152604482018c9052606482015260840160206040518083038186803b158015613aa957600080fd5b505af4158015613abd573d6000803e3d6000fd5b505050506040513d601f19601f82011682018060405250810190613ae19190614b1a565b606084015260208a015160e084015160095460405163debb52df60e01b815260048101939093526024830191909152604482018a9052606482015273c644E1ba225E2ab0BE407926A177dDc89101A77d9063debb52df9060840160206040518083038186803b158015613b5357600080fd5b505af4158015613b67573d6000803e3d6000fd5b505050506040513d601f19601f82011682018060405250810190613b8b9190614b1a565b83518490613b9a908390614db4565b90525060c0830151600a8054600090613bb4908490614db4565b909155505060e083015160098054600090613bd0908490614db4565b909155505060408301518a51613be69190614d7d565b83606001518b60200151613bfa9190614d7d565b60208501519451919d909c50939a509850919650505050505050565b6040516345e7ef9b60e01b815260009073c644E1ba225E2ab0BE407926A177dDc89101A77d906345e7ef9b90613c529086908690600401614bdd565b60206040518083038186803b158015613c6a57600080fd5b505af4158015613c7e573d6000803e3d6000fd5b505050506040513d601f19601f82011682018060405250810190613ca29190614a23565b604051630308593b60e31b815290915073c644E1ba225E2ab0BE407926A177dDc89101A77d90631842c9d890613ce390613fff60f01b908590600401614bdd565b60206040518083038186803b158015613cfb57600080fd5b505af4158015613d0f573d6000803e3d6000fd5b505050506040513d601f19601f82011682018060405250810190613d339190614a87565b60000b6000191415613ec657600154600254604051630308593b60e31b815273c644E1ba225E2ab0BE407926A177dDc89101A77d92631842c9d892613d9092600160801b92839004608090811b9390920490911b90600401614bdd565b60206040518083038186803b158015613da857600080fd5b505af4158015613dbc573d6000803e3d6000fd5b505050506040513d601f19601f82011682018060405250810190613de09190614a87565b60000b6000191415613e0057600180546001600160801b03169055505050565b600154600254604051630e8418dd60e01b815273c644E1ba225E2ab0BE407926A177dDc89101A77d92630e8418dd92613e5192600160801b92839004608090811b9390920490911b90600401614bdd565b60206040518083038186803b158015613e6957600080fd5b505af4158015613e7d573d6000803e3d6000fd5b505050506040513d601f19601f82011682018060405250810190613ea19190614a23565b600160106101000a8154816001600160801b03021916908360801c0217905550505050565b600154600254604051635b597cfb60e11b815273c644E1ba225E2ab0BE407926A177dDc89101A77d9263b6b2f9f692613f1792600160801b92839004608090811b9390920490911b90600401614bdd565b60206040518083038186803b158015613f2f57600080fd5b505af4158015613f43573d6000803e3d6000fd5b505050506040513d601f19601f82011682018060405250810190613f679190614a23565b600180546001600160801b0316600160801b608093841c81029190911791829055604051630308593b60e31b815273c644E1ba225E2ab0BE407926A177dDc89101A77d93631842c9d893613fce939004901b90668075782dace9d960c71b90600401614bdd565b60206040518083038186803b158015613fe657600080fd5b505af4158015613ffa573d6000803e3d6000fd5b505050506040513d601f19601f8201168201806040525081019061401e9190614a87565b60000b6001141561404557600180546001600160801b0316668075782dace9d960c71b1790555b505050565b336000908152600760209081526040808320815160608101835281548152600182015493810193909352600201548282015251633199848d60e11b81529091903090636333091a906140a0908a90600401614bf8565b60206040518083038186803b1580156140b857600080fd5b505afa1580156140cc573d6000803e3d6000fd5b505050506040513d601f19601f820116820180604052508101906140f09190614a01565b156141bb5760015460405163aacf0ecb60e01b8152600160801b90910460801b6001600160801b03191660048201526024810187905273c644E1ba225E2ab0BE407926A177dDc89101A77d9063aacf0ecb9060440160206040518083038186803b15801561415d57600080fd5b505af4158015614171573d6000803e3d6000fd5b505050506040513d601f19601f820116820180604052508101906141959190614b1a565b90506141a18187614db4565b955085600860008282546141b59190614d7d565b90915550505b60028760058111156141cf576141cf614e04565b14156142f757600080896001600160a01b0316637bb98a686040518163ffffffff1660e01b8152600401604080518083038186803b15801561421057600080fd5b505afa158015614224573d6000803e3d6000fd5b505050506040513d601f19601f820116820180604052508101906142489190614b33565b91509150878660000160008282546142609190614d7d565b9091555050845488908690600090614279908490614d7d565b90915550506001600160a01b038a16633c3f82526142978584614d7d565b846040518363ffffffff1660e01b81526004016142be929190918252602082015260400190565b600060405180830381600087803b1580156142d857600080fd5b505af11580156142ec573d6000803e3d6000fd5b505050505050610dd9565b600387600581111561430b5761430b614e04565b14156144475785600a60008282546143239190614d7d565b925050819055508584600101600082825461433e9190614d7d565b92505081905550858360010160008282546143599190614d7d565b909155505084156144165781518611156143855760405162461bcd60e51b8152600401610a9690614c20565b33600090815260076020526040812080548892906143a4908490614db4565b90915550506013546040516387f9ca5d60e01b81526001600160a01b03808b16926387f9ca5d926143df926000928c92911690600401614d53565b600060405180830381600087803b1580156143f957600080fd5b505af115801561440d573d6000803e3d6000fd5b50505050610dd9565b6040516387f9ca5d60e01b81526001600160a01b038916906387f9ca5d906143df906000908a903390600401614d53565b600087600581111561445b5761445b614e04565b141561454f57600080896001600160a01b0316637bb98a686040518163ffffffff1660e01b8152600401604080518083038186803b15801561449c57600080fd5b505afa1580156144b0573d6000803e3d6000fd5b505050506040513d601f19601f820116820180604052508101906144d49190614b33565b91509150878660020160008282546144ec9190614d7d565b92505081905550878560020160008282546145079190614d7d565b90915550506001600160a01b038a16633c3f8252826145268686614d7d565b6040516001600160e01b031960e085901b168152600481019290925260248201526044016142be565b600187600581111561456357614563614e04565b141561466e57856009600082825461457b9190614d7d565b92505081905550858460030160008282546145969190614d7d565b92505081905550858360030160008282546145b19190614d7d565b9091555050841561463d5781602001518611156145e05760405162461bcd60e51b8152600401610a9690614c20565b3360009081526007602052604081206001018054889290614602908490614db4565b90915550506013546040516387f9ca5d60e01b81526001600160a01b03808b16926387f9ca5d926143df926001928c92911690600401614d53565b6040516387f9ca5d60e01b81526001600160a01b038916906387f9ca5d906143df906001908a903390600401614d53565b600487600581111561468257614682614e04565b14156146d05785600a600082825461469a9190614d7d565b92505081905550858460050160008282546146b59190614d7d565b92505081905550858360050160008282546143599190614d7d565b60058760058111156146e4576146e4614e04565b1415610dd95785600960008282546146fc9190614d7d565b92505081905550858460040160008282546147179190614d7d565b92505081905550858360040160008282546147329190614d7d565b909155505084156147615781602001518611156145e05760405162461bcd60e51b8152600401610a9690614c20565b6040516387f9ca5d60e01b81526001600160a01b038916906387f9ca5d90614792906001908a903390600401614d53565b600060405180830381600087803b1580156147ac57600080fd5b505af11580156147c0573d6000803e3d6000fd5b505050505050505050505050565b8260028101928215614816579160200282015b8281111561481657825182546001600160a01b0319166001600160a01b039091161782556020909201916001909101906147e1565b50614822929150614887565b5090565b8280548282559060005260206000209081019282156148165760005260206000209182015b8281111561481657825482559160010191906001019061484b565b50805460008255906000526020600020908101906148849190614887565b50565b5b808211156148225760008155600101614888565b6000602082840312156148ae57600080fd5b813561342e81614e5c565b600080600080600080600080610100898b0312156148d657600080fd5b88356148e181614e5c565b975060208901356148f181614e5c565b9650604089013561490181614e5c565b9550606089013561491181614e5c565b9450608089013561492181614e5c565b979a969950949793969560a0850135955060c08501359460e001359350915050565b6000806040838503121561495657600080fd5b823561496181614e5c565b946020939093013593505050565b60006040828403121561498157600080fd5b82601f83011261499057600080fd5b6040516040810181811067ffffffffffffffff821117156149b3576149b3614e46565b80604052508083856040860111156149ca57600080fd5b60005b60028110156149f65781516149e181614e5c565b835260209283019291909101906001016149cd565b509195945050505050565b600060208284031215614a1357600080fd5b8151801515811461342e57600080fd5b600060208284031215614a3557600080fd5b81516001600160801b03198116811461342e57600080fd5b600060208284031215614a5f57600080fd5b5035919050565b600060208284031215614a7857600080fd5b81356006811061342e57600080fd5b600060208284031215614a9957600080fd5b81518060000b811461342e57600080fd5b600060a08284031215614abc57600080fd5b60405160a0810181811067ffffffffffffffff82111715614adf57614adf614e46565b806040525082518152602083015160208201526040830151604082015260608301516060820152608083015160808201528091505092915050565b600060208284031215614b2c57600080fd5b5051919050565b60008060408385031215614b4657600080fd5b505080516020909101519092909150565b600080600060608486031215614b6c57600080fd5b8351925060208401519150604084015190509250925092565b60008060008060808587031215614b9b57600080fd5b5050823594602084013594506040840135936060013592509050565b600060208284031215614bc957600080fd5b815163ffffffff8116811461342e57600080fd5b6001600160801b031992831681529116602082015260400190565b6020810160068310614c1a57634e487b7160e01b600052602160045260246000fd5b91905290565b60208082526018908201527f496e73756666696369656e7420706f6f6c20746f6b656e730000000000000000604082015260600190565b6020808252601d908201527f6d73672e73656e646572206e6f742066656520636f6e74726f6c6c6572000000604082015260600190565b81516001600160801b031916815261018081016020830151614cbc60208401826001600160801b0319169052565b506040830151614cd860408401826001600160801b0319169052565b50606083015160608301526080830151608083015260a083015160a083015260c083015160c083015260e083015160e083015261010080840151818401525061012080840151818401525061014080840151818401525061016080840151614d4b828501826001600160801b0319169052565b505092915050565b6001600160801b0393909316835260208301919091526001600160a01b0316604082015260600190565b60008219821115614d9057614d90614dee565b500190565b6000816000190483118215151615614daf57614daf614dee565b500290565b600082821015614dc657614dc6614dee565b500390565b600060ff821660ff841680821015614de557614de5614dee565b90039392505050565b634e487b7160e01b600052601160045260246000fd5b634e487b7160e01b600052602160045260246000fd5b634e487b7160e01b600052603160045260246000fd5b634e487b7160e01b600052603260045260246000fd5b634e487b7160e01b600052604160045260246000fd5b6001600160a01b038116811461488457600080fdfea2646970667358221220de70843153c66cf73755c030a6488177c99036fdaeb260b1b90ab9c3998fbb9164736f6c63430008070033",
    "libraries": {
        "PoolSwapLibrary": "0xc644E1ba225E2ab0BE407926A177dDc89101A77d"
    },
    "devdoc": {
        "kind": "dev",
        "methods": {
            "claimGovernance()": {
                "details": "Second and final step of the two-step governance transfer processSee `transferGovernance`Sets the governance transfer flag to falseAfter a successful call to this function, the actual governance      address and the provisional governance address MUST be equal."
            },
            "deployPool((string,uint32,uint32,uint16,address,address,address,address,uint256,uint256,uint256))": {
                "details": "Throws if pool keeper is nullThrows if deployer does not own the oracle wrapperThrows if leverage amount is invalidThrows if decimal precision is too high (i.e., greater than `MAX_DECIMALS`)The IOracleWrapper declares a `deployer` variable, this is used here to confirm that the pool which uses said oracle wrapper is indeed      the intended address. This is to prevent a griefing attack in which someone uses the same oracle wrapper with the same parameters *before* the genuine deployer.",
                "params": {
                    "deploymentParameters": "Deployment parameters of the market. Some may be reconfigurable."
                },
                "returns": {
                    "_0": "Address of the created pool"
                }
            },
            "getPoolKeeper()": {
                "returns": {
                    "_0": "Address of the associated `PoolKeeper` contract"
                }
            },
            "setAutoClaim(address)": {
                "details": "Throws if provided address is nullOnly callable by the owner",
                "params": {
                    "_autoClaim": "Address of the `AutoClaim`"
                }
            },
            "setDeploymentFee(address,uint256,address)": {
                "details": "Only callable by the owner of this contractEmits a `DeploymentFeeChanged` event on success"
            },
            "setFee(uint256)": {
                "details": "This is a percentage in WAD; multiplied by 10^18 e.g. 5% is 0.05 * 10^18Throws if fee is greater than 10%Emits a `FeeChanged` event on success",
                "params": {
                    "_fee": "The fee amount as a percentage"
                }
            },
            "setFeeReceiver(address)": {
                "details": "Only callable by the owner of this contractThis fuction does not change anything for already deployed pools, only pools deployed after the changeEmits a `FeeReceiverChanged` event on success",
                "params": {
                    "_feeReceiver": "address of fee receiver"
                }
            },
            "setInvariantCheck(address)": {
                "details": "Throws if provided address is nullOnly callable by the owner",
                "params": {
                    "_invariantCheck": "Address of the `InvariantCheck`"
                }
            },
            "setPoolKeeper(address)": {
                "details": "Throws if provided address is nullOnly callable by the ownerEmits a `PoolKeeperChanged` event on success",
                "params": {
                    "_poolKeeper": "Address of the `PoolKeeper`"
                }
            },
            "setSecondaryFeeSplitPercent(uint256)": {
                "details": "Only callable by the owner of this contractThrows if `newFeePercent` exceeds 100Emits a `SecondaryFeeSplitChanged` event on success",
                "params": {
                    "newFeePercent": "Proportion of fees to split"
                }
            },
            "transferGovernance(address)": {
                "details": "First step of the two-step governance transfer processSets the governance transfer flag to trueSee `claimGovernance`",
                "params": {
                    "_governance": "New address of the governance of the pool"
                }
            }
        },
        "title": "The pool factory contract",
        "version": 1
    },
    "userdoc": {
        "events": {
            "AutoClaimChanged(address)": {
                "notice": "Indicates that the AutoClaim contract has changed"
            },
            "DeployCommitter(address,address,address,uint256,address)": {
                "notice": "Creates a notification when a PoolCommitter is deployed"
            },
            "DeployPool(address,address,string)": {
                "notice": "Creates a notification when a pool is deployed"
            },
            "DeploymentFeeChanged(address,uint256,address)": {
                "notice": "Indicates that the deployment fee has changed"
            },
            "FeeChanged(uint256)": {
                "notice": "Indicates that the trading fee has changed"
            },
            "FeeReceiverChanged(address)": {
                "notice": "Indicates that the receipient of fees has changed"
            },
            "GovernanceAddressChanged(address,address)": {
                "notice": "Represents change in governance address"
            },
            "InvariantCheckChanged(address)": {
                "notice": "Indicates that the InvariantCheck contract has changed"
            },
            "MaxLeverageChanged(uint256)": {
                "notice": "Indicates that the maximum allowed leverage has changed"
            },
            "MintAndBurnFeesChanged(uint256,uint256)": {
                "notice": "Indicates that the minting and burning fees have changed"
            },
            "PoolKeeperChanged(address)": {
                "notice": "Creates a notification when the pool keeper changes"
            },
            "ProvisionalGovernanceChanged(address)": {
                "notice": "Represents proposed change in governance address"
            },
            "SecondaryFeeSplitChanged(uint256)": {
                "notice": "Indicates that the receipient of fees has changed"
            }
        },
        "kind": "user",
        "methods": {
            "claimGovernance()": {
                "notice": "Completes transfer of governance by actually changing permissions          over the pool."
            },
            "deployPool((string,uint32,uint32,uint16,address,address,address,address,uint256,uint256,uint256))": {
                "notice": "Deploy a leveraged pool and its committer/pool tokens with given parametersRebasing tokens are not supported and will break functionality"
            },
            "getPoolKeeper()": {
                "notice": "Gets the address of the associated `PoolKeeper` contract"
            },
            "isValidPool(address)": {
                "notice": "Format: Pool address => validity"
            },
            "isValidPoolCommitter(address)": {
                "notice": "Format: PoolCommitter address => validity"
            },
            "pools(uint256)": {
                "notice": "Format: Pool counter => pool address"
            },
            "setAutoClaim(address)": {
                "notice": "Sets the address of the associated `AutoClaim` contract"
            },
            "setDeploymentFee(address,uint256,address)": {
                "notice": "Set the deployment fee"
            },
            "setFee(uint256)": {
                "notice": "Set the yearly fee amount. The max yearly fee is 10%"
            },
            "setFeeReceiver(address)": {
                "notice": "Sets the primary fee receiver of deployed Leveraged pools."
            },
            "setInvariantCheck(address)": {
                "notice": "Sets the address of the associated `InvariantCheck` contract"
            },
            "setPoolKeeper(address)": {
                "notice": "Sets the address of the associated `PoolKeeper` contract"
            },
            "setSecondaryFeeSplitPercent(uint256)": {
                "notice": "Sets the proportion of fees to be split to the nominated secondary fees recipient"
            },
            "transferGovernance(address)": {
                "notice": "Starts to transfer governance of the pool. The new governance          address must call `claimGovernance` in order for this to take          effect. Until this occurs, the existing governance address          remains in control of the pool."
            }
        },
        "version": 1
    },
    "storageLayout": {
        "storage": [
            {
                "astId": 12492,
                "contract": "contracts/implementation/PoolFactory.sol:PoolFactory",
                "label": "poolKeeper",
                "offset": 0,
                "slot": "0",
                "type": "t_contract(IPoolKeeper)15593"
            },
            {
                "astId": 12496,
                "contract": "contracts/implementation/PoolFactory.sol:PoolFactory",
                "label": "autoClaim",
                "offset": 0,
                "slot": "1",
                "type": "t_address"
            },
            {
                "astId": 12498,
                "contract": "contracts/implementation/PoolFactory.sol:PoolFactory",
                "label": "invariantCheck",
                "offset": 0,
                "slot": "2",
                "type": "t_address"
            },
            {
                "astId": 12501,
                "contract": "contracts/implementation/PoolFactory.sol:PoolFactory",
                "label": "governance",
                "offset": 0,
                "slot": "3",
                "type": "t_address"
            },
            {
                "astId": 12504,
                "contract": "contracts/implementation/PoolFactory.sol:PoolFactory",
                "label": "governanceTransferInProgress",
                "offset": 20,
                "slot": "3",
                "type": "t_bool"
            },
            {
                "astId": 12507,
                "contract": "contracts/implementation/PoolFactory.sol:PoolFactory",
                "label": "provisionalGovernance",
                "offset": 0,
                "slot": "4",
                "type": "t_address"
            },
            {
                "astId": 12509,
                "contract": "contracts/implementation/PoolFactory.sol:PoolFactory",
                "label": "fee",
                "offset": 0,
                "slot": "5",
                "type": "t_uint256"
            },
            {
                "astId": 12512,
                "contract": "contracts/implementation/PoolFactory.sol:PoolFactory",
                "label": "secondaryFeeSplitPercent",
                "offset": 0,
                "slot": "6",
                "type": "t_uint256"
            },
            {
                "astId": 12514,
                "contract": "contracts/implementation/PoolFactory.sol:PoolFactory",
                "label": "deploymentFeeToken",
                "offset": 0,
                "slot": "7",
                "type": "t_address"
            },
            {
                "astId": 12516,
                "contract": "contracts/implementation/PoolFactory.sol:PoolFactory",
                "label": "deploymentFee",
                "offset": 0,
                "slot": "8",
                "type": "t_uint256"
            },
            {
                "astId": 12518,
                "contract": "contracts/implementation/PoolFactory.sol:PoolFactory",
                "label": "deploymentFeeReceiver",
                "offset": 0,
                "slot": "9",
                "type": "t_address"
            },
            {
                "astId": 12529,
                "contract": "contracts/implementation/PoolFactory.sol:PoolFactory",
                "label": "feeReceiver",
                "offset": 0,
                "slot": "10",
                "type": "t_address"
            },
            {
                "astId": 12535,
                "contract": "contracts/implementation/PoolFactory.sol:PoolFactory",
                "label": "pools",
                "offset": 0,
                "slot": "11",
                "type": "t_mapping(t_uint256,t_address)"
            },
            {
                "astId": 12538,
                "contract": "contracts/implementation/PoolFactory.sol:PoolFactory",
                "label": "numPools",
                "offset": 0,
                "slot": "12",
                "type": "t_uint256"
            },
            {
                "astId": 12544,
                "contract": "contracts/implementation/PoolFactory.sol:PoolFactory",
                "label": "isValidPool",
                "offset": 0,
                "slot": "13",
                "type": "t_mapping(t_address,t_bool)"
            },
            {
                "astId": 12550,
                "contract": "contracts/implementation/PoolFactory.sol:PoolFactory",
                "label": "isValidPoolCommitter",
                "offset": 0,
                "slot": "14",
                "type": "t_mapping(t_address,t_bool)"
            }
        ],
        "types": {
            "t_address": {
                "encoding": "inplace",
                "label": "address",
                "numberOfBytes": "20"
            },
            "t_bool": {
                "encoding": "inplace",
                "label": "bool",
                "numberOfBytes": "1"
            },
            "t_contract(IPoolKeeper)15593": {
                "encoding": "inplace",
                "label": "contract IPoolKeeper",
                "numberOfBytes": "20"
            },
            "t_mapping(t_address,t_bool)": {
                "encoding": "mapping",
                "key": "t_address",
                "label": "mapping(address => bool)",
                "numberOfBytes": "32",
                "value": "t_bool"
            },
            "t_mapping(t_uint256,t_address)": {
                "encoding": "mapping",
                "key": "t_uint256",
                "label": "mapping(uint256 => address)",
                "numberOfBytes": "32",
                "value": "t_address"
            },
            "t_uint256": {
                "encoding": "inplace",
                "label": "uint256",
                "numberOfBytes": "32"
            }
        }
    }
}