{
  "address": "0xcbD0bA56d7b533eb96f13dB7f7D779432d485391",
  "abi": [
    {
      "inputs": [
        {
          "internalType": "address",
          "name": "_feeReceiver",
          "type": "address"
        }
      ],
      "stateMutability": "nonpayable",
      "type": "constructor"
    },
    {
      "anonymous": false,
      "inputs": [
        {
          "indexed": true,
          "internalType": "address",
          "name": "pool",
          "type": "address"
        },
        {
          "indexed": false,
          "internalType": "address",
          "name": "poolCommitter",
          "type": "address"
        },
        {
          "indexed": false,
          "internalType": "string",
          "name": "ticker",
          "type": "string"
        }
      ],
      "name": "DeployPool",
      "type": "event"
    },
    {
      "anonymous": false,
      "inputs": [
        {
          "indexed": true,
          "internalType": "address",
          "name": "previousOwner",
          "type": "address"
        },
        {
          "indexed": true,
          "internalType": "address",
          "name": "newOwner",
          "type": "address"
        }
      ],
      "name": "OwnershipTransferred",
      "type": "event"
    },
    {
      "anonymous": false,
      "inputs": [
        {
          "indexed": false,
          "internalType": "address",
          "name": "_poolKeeper",
          "type": "address"
        }
      ],
      "name": "PoolKeeperChanged",
      "type": "event"
    },
    {
      "inputs": [],
      "name": "autoClaim",
      "outputs": [
        {
          "internalType": "address",
          "name": "",
          "type": "address"
        }
      ],
      "stateMutability": "view",
      "type": "function"
    },
    {
      "inputs": [],
      "name": "burningFee",
      "outputs": [
        {
          "internalType": "uint256",
          "name": "",
          "type": "uint256"
        }
      ],
      "stateMutability": "view",
      "type": "function"
    },
    {
      "inputs": [],
      "name": "changeInterval",
      "outputs": [
        {
          "internalType": "uint256",
          "name": "",
          "type": "uint256"
        }
      ],
      "stateMutability": "view",
      "type": "function"
    },
    {
      "inputs": [
        {
          "components": [
            {
              "internalType": "string",
              "name": "poolName",
              "type": "string"
            },
            {
              "internalType": "uint32",
              "name": "frontRunningInterval",
              "type": "uint32"
            },
            {
              "internalType": "uint32",
              "name": "updateInterval",
              "type": "uint32"
            },
            {
              "internalType": "uint16",
              "name": "leverageAmount",
              "type": "uint16"
            },
            {
              "internalType": "address",
              "name": "quoteToken",
              "type": "address"
            },
            {
              "internalType": "address",
              "name": "oracleWrapper",
              "type": "address"
            },
            {
              "internalType": "address",
              "name": "settlementEthOracle",
              "type": "address"
            },
            {
              "internalType": "address",
              "name": "invariantCheckContract",
              "type": "address"
            }
          ],
          "internalType": "struct IPoolFactory.PoolDeployment",
          "name": "deploymentParameters",
          "type": "tuple"
        }
      ],
      "name": "deployPool",
      "outputs": [
        {
          "internalType": "address",
          "name": "",
          "type": "address"
        }
      ],
      "stateMutability": "nonpayable",
      "type": "function"
    },
    {
      "inputs": [],
      "name": "fee",
      "outputs": [
        {
          "internalType": "uint256",
          "name": "",
          "type": "uint256"
        }
      ],
      "stateMutability": "view",
      "type": "function"
    },
    {
      "inputs": [],
      "name": "feeReceiver",
      "outputs": [
        {
          "internalType": "address",
          "name": "",
          "type": "address"
        }
      ],
      "stateMutability": "view",
      "type": "function"
    },
    {
      "inputs": [],
      "name": "getOwner",
      "outputs": [
        {
          "internalType": "address",
          "name": "",
          "type": "address"
        }
      ],
      "stateMutability": "view",
      "type": "function"
    },
    {
      "inputs": [
        {
          "internalType": "address",
          "name": "",
          "type": "address"
        }
      ],
      "name": "isValidPool",
      "outputs": [
        {
          "internalType": "bool",
          "name": "",
          "type": "bool"
        }
      ],
      "stateMutability": "view",
      "type": "function"
    },
    {
      "inputs": [
        {
          "internalType": "address",
          "name": "",
          "type": "address"
        }
      ],
      "name": "isValidPoolCommitter",
      "outputs": [
        {
          "internalType": "bool",
          "name": "",
          "type": "bool"
        }
      ],
      "stateMutability": "view",
      "type": "function"
    },
    {
      "inputs": [],
      "name": "maxLeverage",
      "outputs": [
        {
          "internalType": "uint16",
          "name": "",
          "type": "uint16"
        }
      ],
      "stateMutability": "view",
      "type": "function"
    },
    {
      "inputs": [],
      "name": "mintingFee",
      "outputs": [
        {
          "internalType": "uint256",
          "name": "",
          "type": "uint256"
        }
      ],
      "stateMutability": "view",
      "type": "function"
    },
    {
      "inputs": [],
      "name": "numPools",
      "outputs": [
        {
          "internalType": "uint256",
          "name": "",
          "type": "uint256"
        }
      ],
      "stateMutability": "view",
      "type": "function"
    },
    {
      "inputs": [],
      "name": "owner",
      "outputs": [
        {
          "internalType": "address",
          "name": "",
          "type": "address"
        }
      ],
      "stateMutability": "view",
      "type": "function"
    },
    {
      "inputs": [],
      "name": "pairTokenBase",
      "outputs": [
        {
          "internalType": "contract PoolToken",
          "name": "",
          "type": "address"
        }
      ],
      "stateMutability": "view",
      "type": "function"
    },
    {
      "inputs": [],
      "name": "pairTokenBaseAddress",
      "outputs": [
        {
          "internalType": "address",
          "name": "",
          "type": "address"
        }
      ],
      "stateMutability": "view",
      "type": "function"
    },
    {
      "inputs": [],
      "name": "poolBase",
      "outputs": [
        {
          "internalType": "contract LeveragedPool",
          "name": "",
          "type": "address"
        }
      ],
      "stateMutability": "view",
      "type": "function"
    },
    {
      "inputs": [],
      "name": "poolBaseAddress",
      "outputs": [
        {
          "internalType": "address",
          "name": "",
          "type": "address"
        }
      ],
      "stateMutability": "view",
      "type": "function"
    },
    {
      "inputs": [],
      "name": "poolCommitterBase",
      "outputs": [
        {
          "internalType": "contract PoolCommitter",
          "name": "",
          "type": "address"
        }
      ],
      "stateMutability": "view",
      "type": "function"
    },
    {
      "inputs": [],
      "name": "poolCommitterBaseAddress",
      "outputs": [
        {
          "internalType": "address",
          "name": "",
          "type": "address"
        }
      ],
      "stateMutability": "view",
      "type": "function"
    },
    {
      "inputs": [],
      "name": "poolKeeper",
      "outputs": [
        {
          "internalType": "contract IPoolKeeper",
          "name": "",
          "type": "address"
        }
      ],
      "stateMutability": "view",
      "type": "function"
    },
    {
      "inputs": [
        {
          "internalType": "uint256",
          "name": "",
          "type": "uint256"
        }
      ],
      "name": "pools",
      "outputs": [
        {
          "internalType": "address",
          "name": "",
          "type": "address"
        }
      ],
      "stateMutability": "view",
      "type": "function"
    },
    {
      "inputs": [],
      "name": "renounceOwnership",
      "outputs": [],
      "stateMutability": "nonpayable",
      "type": "function"
    },
    {
      "inputs": [],
      "name": "secondaryFeeSplitPercent",
      "outputs": [
        {
          "internalType": "uint256",
          "name": "",
          "type": "uint256"
        }
      ],
      "stateMutability": "view",
      "type": "function"
    },
    {
      "inputs": [
        {
          "internalType": "address",
          "name": "_autoClaim",
          "type": "address"
        }
      ],
      "name": "setAutoClaim",
      "outputs": [],
      "stateMutability": "nonpayable",
      "type": "function"
    },
    {
      "inputs": [
        {
          "internalType": "uint256",
          "name": "_fee",
          "type": "uint256"
        }
      ],
      "name": "setFee",
      "outputs": [],
      "stateMutability": "nonpayable",
      "type": "function"
    },
    {
      "inputs": [
        {
          "internalType": "address",
          "name": "_feeReceiver",
          "type": "address"
        }
      ],
      "name": "setFeeReceiver",
      "outputs": [],
      "stateMutability": "nonpayable",
      "type": "function"
    },
    {
      "inputs": [
        {
          "internalType": "uint16",
          "name": "newMaxLeverage",
          "type": "uint16"
        }
      ],
      "name": "setMaxLeverage",
      "outputs": [],
      "stateMutability": "nonpayable",
      "type": "function"
    },
    {
      "inputs": [
        {
          "internalType": "uint256",
          "name": "_mintingFee",
          "type": "uint256"
        },
        {
          "internalType": "uint256",
          "name": "_burningFee",
          "type": "uint256"
        },
        {
          "internalType": "uint256",
          "name": "_changeInterval",
          "type": "uint256"
        }
      ],
      "name": "setMintAndBurnFeeAndChangeInterval",
      "outputs": [],
      "stateMutability": "nonpayable",
      "type": "function"
    },
    {
      "inputs": [
        {
          "internalType": "address",
          "name": "_poolKeeper",
          "type": "address"
        }
      ],
      "name": "setPoolKeeper",
      "outputs": [],
      "stateMutability": "nonpayable",
      "type": "function"
    },
    {
      "inputs": [
        {
          "internalType": "uint256",
          "name": "newFeePercent",
          "type": "uint256"
        }
      ],
      "name": "setSecondaryFeeSplitPercent",
      "outputs": [],
      "stateMutability": "nonpayable",
      "type": "function"
    },
    {
      "inputs": [
        {
          "internalType": "address",
          "name": "newOwner",
          "type": "address"
        }
      ],
      "name": "transferOwnership",
      "outputs": [],
      "stateMutability": "nonpayable",
      "type": "function"
    }
  ],
  "transactionHash": "0x9e6c946db44ac4173f6463c374efb5a6ae124466b775f0196611ad21b5a10f71",
  "args": [
    "0xc18fcFFD8c9173faB1684Ec1EEE32976f780B13E"
  ],
  "solcInputHash": "4e236762a3d0441b39001e87e67104bc",
  "bytecode": "0x60e0604052600a6008819055600c805461ffff191690911790553480156200002657600080fd5b506040516200c00e3803806200c00e83398101604081905262000049916200044b565b6200005433620003d1565b6001600160a01b038116620000af5760405162461bcd60e51b815260206004820152601660248201527f416464726573732063616e6e6f74206265206e756c6c00000000000000000000604482015260640160405180910390fd5b6012604051620000bf9062000421565b60ff9091168152602001604051809103906000f080158015620000e6573d6000803e3d6000fd5b50600180546001600160a01b0319166001600160a01b03831617905560601b6001600160601b03191660805260405162000120906200042f565b604051809103906000f0801580156200013d573d6000803e3d6000fd5b50600280546001600160a01b0319166001600160a01b03831617905560601b6001600160601b03191660a052604051309081908190600090819062000182906200043d565b6001600160a01b03958616815293851660208501529390911660408301526060820152608081019190915260a001604051809103906000f080158015620001cd573d6000803e3d6000fd5b50600480546001600160a01b0319166001600160a01b03838116919091178255606092831b6001600160601b03191660c090815260408051610220810182523080825260208083018290528284018290529682018190526080820181905260a0820181905292810183905260e08101839052815180830183526009815268109054d157d413d3d360ba1b96810196909652610100810195909552600f610120860152601e6101408601526000610160860181905260016101808701526101a086018390526101c08601526101e08501919091526008546102008501526002549051630129011d60e41b815291169163129011d091620002cf91859101620004cd565b600060405180830381600087803b158015620002ea57600080fd5b505af1158015620002ff573d6000803e3d6000fd5b5050600154604051637b69774360e11b81523060048083019190915260806024830152600a6084830152692120a9a2afaa27a5a2a760b11b60a483015260c0604483015260c4820152634241534560e01b60e4820152601260648201526001600160a01b03909116925063f6d2ee86915061010401600060405180830381600087803b1580156200038f57600080fd5b505af1158015620003a4573d6000803e3d6000fd5b5050600680546001600160a01b0319166001600160a01b0395909516949094179093555062000671915050565b600080546001600160a01b038381166001600160a01b0319831681178455604051919092169283917f8be0079c531659141344cd1fd0a4f28419497f9722a3daafe3b4186f6b6457e09190a35050565b611210806200242583390190565b6133c8806200363583390190565b61561180620069fd83390190565b6000602082840312156200045e57600080fd5b81516001600160a01b03811681146200047657600080fd5b9392505050565b6000815180845260005b81811015620004a55760208185018101518683018201520162000487565b81811115620004b8576000602083870101525b50601f01601f19169290920160200192915050565b60208152620004e86020820183516001600160a01b03169052565b600060208301516200050560408401826001600160a01b03169052565b5060408301516001600160a01b03811660608401525060608301516001600160a01b03811660808401525060808301516001600160a01b03811660a08401525060a08301516001600160a01b03811660c08401525060c08301516001600160a01b03811660e08401525060e08301516101006200058c818501836001600160a01b03169052565b808501519150506102206101208181860152620005ae6102408601846200047d565b90860151909250610140620005ca8682018363ffffffff169052565b8601519050610160620005e48682018363ffffffff169052565b8601519050610180620005fc8682018361ffff169052565b8601516101a08681019190915286015190506101c062000626818701836001600160a01b03169052565b86015190506101e062000643868201836001600160a01b03169052565b860151905061020062000660868201836001600160a01b03169052565b959095015193019290925250919050565b60805160601c60a05160601c60c05160601c611d66620006bf600039600081816104040152610a430152600081816104500152610c8601526000818161027a01526114e60152611d666000f3fe608060405234801561001057600080fd5b50600436106101e55760003560e01c8063893d20e81161010f578063d1df8a68116100a2578063e20acc7911610071578063e20acc7914610442578063ed3f7e261461044b578063efdcd97414610472578063f2fde38b1461048557600080fd5b8063d1df8a68146103ec578063d3394714146103ff578063d723c68b14610426578063ddca3f431461043957600080fd5b8063ae3302c2116100de578063ae3302c214610392578063b3f00674146103b3578063be51ce47146103c6578063c70db323146103d957600080fd5b8063893d20e81461034f5780638da5cb5b1461034f57806390f712cc14610360578063ac4afa381461036957600080fd5b806359e86a9911610187578063616e579011610156578063616e57901461030e57806369fe0e2d14610321578063715018a61461033457806379bc61821461033c57600080fd5b806359e86a991461029c5780635a64ad95146102cf5780635ab78ee1146102d85780635bae377a146102fb57600080fd5b806335c62bc2116101c357806335c62bc2146102465780633c6b07401461024f578063430ed6eb146102625780634690092c1461027557600080fd5b806303850dbb146101ea5780630679d36214610206578063178f9e351461021b575b600080fd5b6101f360085481565b6040519081526020015b60405180910390f35b6102196102143660046116bf565b610498565b005b60035461022e906001600160a01b031681565b6040516001600160a01b0390911681526020016101fd565b6101f3600e5481565b61021961025d3660046116f3565b610541565b610219610270366004611642565b61066f565b61022e7f000000000000000000000000000000000000000000000000000000000000000081565b6102bf6102aa366004611642565b60106020526000908152604090205460ff1681565b60405190151581526020016101fd565b6101f360095481565b6102bf6102e6366004611642565b600f6020526000908152604090205460ff1681565b60025461022e906001600160a01b031681565b61021961031c3660046116da565b6106e1565b61021961032f3660046116da565b610770565b6102196107ed565b61021961034a366004611642565b610823565b6000546001600160a01b031661022e565b6101f3600a5481565b61022e6103773660046116da565b600d602052600090815260409020546001600160a01b031681565b600c546103a09061ffff1681565b60405161ffff90911681526020016101fd565b60065461022e906001600160a01b031681565b61022e6103d4366004611683565b610895565b60055461022e906001600160a01b031681565b60045461022e906001600160a01b031681565b61022e7f000000000000000000000000000000000000000000000000000000000000000081565b60015461022e906001600160a01b031681565b6101f360075481565b6101f3600b5481565b61022e7f000000000000000000000000000000000000000000000000000000000000000081565b610219610480366004611642565b6110f3565b610219610493366004611642565b611165565b6000546001600160a01b031633146104cb5760405162461bcd60e51b81526004016104c29061188e565b60405180910390fd5b60008161ffff16116105295760405162461bcd60e51b815260206004820152602160248201527f4d6178696d756d206c65766572616765206d757374206265206e6f6e2d7a65726044820152606f60f81b60648201526084016104c2565b600c805461ffff191661ffff92909216919091179055565b6000546001600160a01b0316331461056b5760405162461bcd60e51b81526004016104c29061188e565b670de0b6b3a76400008311156105ba5760405162461bcd60e51b81526020600482015260146024820152734665652063616e6e6f74206265203e203130302560601b60448201526064016104c2565b670de0b6b3a76400008211156106095760405162461bcd60e51b81526020600482015260146024820152734665652063616e6e6f74206265203e203130302560601b60448201526064016104c2565b670de0b6b3a76400008111156106615760405162461bcd60e51b815260206004820181905260248201527f4368616e676520696e74657276616c2063616e6e6f74206265203e203130302560448201526064016104c2565b600992909255600a55600b55565b6000546001600160a01b031633146106995760405162461bcd60e51b81526004016104c29061188e565b6001600160a01b0381166106bf5760405162461bcd60e51b81526004016104c2906118c3565b600380546001600160a01b0319166001600160a01b0392909216919091179055565b6000546001600160a01b0316331461070b5760405162461bcd60e51b81526004016104c29061188e565b606481111561076b5760405162461bcd60e51b815260206004820152602660248201527f5365636f6e64617279206665652073706c69742063616e6e6f7420657863656560448201526564203130302560d01b60648201526084016104c2565b600855565b6000546001600160a01b0316331461079a5760405162461bcd60e51b81526004016104c29061188e565b67016345785d8a00008111156107e85760405162461bcd60e51b81526020600482015260136024820152724665652063616e6e6f74206265203e2031302560681b60448201526064016104c2565b600755565b6000546001600160a01b031633146108175760405162461bcd60e51b81526004016104c29061188e565b6108216000611200565b565b6000546001600160a01b0316331461084d5760405162461bcd60e51b81526004016104c29061188e565b6001600160a01b0381166108735760405162461bcd60e51b81526004016104c2906118c3565b600580546001600160a01b0319166001600160a01b0392909216919091179055565b6003546000906001600160a01b0316806108e65760405162461bcd60e51b8152602060048201526012602482015271141bdbdb12d9595c195c881b9bdd081cd95d60721b60448201526064016104c2565b336108f760c0850160a08601611642565b6001600160a01b031663d5f394886040518163ffffffff1660e01b815260040160206040518083038186803b15801561092f57600080fd5b505afa158015610943573d6000803e3d6000fd5b505050506040513d601f19601f820116820180604052508101906109679190611666565b6001600160a01b0316146109cb5760405162461bcd60e51b815260206004820152602560248201527f4465706c6f796572206d757374206265206f7261636c6520777261707065722060448201526437bbb732b960d91b60648201526084016104c2565b60006109dd60808501606086016116bf565b6109ed60a0860160808701611642565b6109fd60c0870160a08801611642565b6040805161ffff90941660208501526001600160a01b03928316908401521660608201526080016040516020818303038152906040528051906020012090506000610a687f000000000000000000000000000000000000000000000000000000000000000083611250565b90506001600160a01b03811663728cdbca30610a8b610100890160e08a01611642565b600554600954600a54600b5460405160e088901b6001600160e01b03191681526001600160a01b03968716600482015294861660248601529490921660448401526064830152608482015260a481019190915260c401600060405180830381600087803b158015610afb57600080fd5b505af1158015610b0f573d6000803e3d6000fd5b5083925060019150610b29905060808801606089016116bf565b61ffff1610158015610b545750600c5461ffff16610b4d60808801606089016116bf565b61ffff1611155b610bac5760405162461bcd60e51b8152602060048201526024808201527f506f6f6c4b65657065723a206c657665726167656420616d6f756e7420696e76604482015263185b1a5960e21b60648201526084016104c2565b6012610bbe60a0880160808901611642565b6001600160a01b031663313ce5676040518163ffffffff1660e01b815260040160206040518083038186803b158015610bf657600080fd5b505afa158015610c0a573d6000803e3d6000fd5b505050506040513d601f19601f82011682018060405250810190610c2e919061173a565b60ff161115610c7f5760405162461bcd60e51b815260206004820152601a60248201527f446563696d616c20707265636973696f6e20746f6f206869676800000000000060448201526064016104c2565b6000610cab7f000000000000000000000000000000000000000000000000000000000000000085611250565b9050806001600160a01b0381167f82f5ba2b59209e8b2008e0addf2c8502bf23175cfee67125b2562302ce9823b984610ce48b80611acc565b604051610cf393929190611803565b60405180910390a26000610d19610d1060808b0160608c016116bf565b61ffff166112f6565b90506000604051806102200160405280610d3b6000546001600160a01b031690565b6001600160a01b0390811682528a166020820152604001610d6260c08d0160a08e01611642565b6001600160a01b03168152602001610d8060e08d0160c08e01611642565b6001600160a01b03168152602001610dbc8585610d9c8f611ba6565b604051806040016040528060028152602001614c2d60f01b8152506113fc565b6001600160a01b03168152602001610df88585610dd88f611ba6565b60405180604001604052806002815260200161532d60f01b8152506113fc565b6001600160a01b03908116825287166020820152604001610e206101008d0160e08e01611642565b6001600160a01b0316815260200183610e398d80611acc565b604051602001610e4b939291906117cc565b60405160208183030381529060405281526020018b6020016020810190610e72919061171f565b63ffffffff168152602001610e8d60608d0160408e0161171f565b63ffffffff168152602001610ea860808d0160608e016116bf565b61ffff1681526020016301e13380610ec660608e0160408f0161171f565b63ffffffff16600754610ed99190611b70565b610ee39190611b5c565b81526006546001600160a01b03166020820152336040820152606001610f0f60a08d0160808e01611642565b6001600160a01b031681526020016008548152509050836001600160a01b031663129011d0826040518263ffffffff1660e01b8152600401610f5191906118f3565b600060405180830381600087803b158015610f6b57600080fd5b505af1158015610f7f573d6000803e3d6000fd5b5050506001600160a01b038616905063fd555fb9610fa360a08d0160808e01611642565b6040516001600160e01b031960e084901b1681526001600160a01b0391821660048201529086166024820152604401600060405180830381600087803b158015610fec57600080fd5b505af1158015611000573d6000803e3d6000fd5b5050600354604051633c5c7fb360e01b81526001600160a01b0387811660048301529091169250633c5c7fb39150602401600060405180830381600087803b15801561104b57600080fd5b505af115801561105f573d6000803e3d6000fd5b5050600e80546000908152600d6020526040812080546001600160a01b0319166001600160a01b038916179055815460019450919250906110a1908490611b44565b909155505050506001600160a01b038181166000908152600f602090815260408083208054600160ff199182168117909255979094168352601090915290208054909416179092555095945050505050565b6000546001600160a01b0316331461111d5760405162461bcd60e51b81526004016104c29061188e565b6001600160a01b0381166111435760405162461bcd60e51b81526004016104c2906118c3565b600680546001600160a01b0319166001600160a01b0392909216919091179055565b6000546001600160a01b0316331461118f5760405162461bcd60e51b81526004016104c29061188e565b6001600160a01b0381166111f45760405162461bcd60e51b815260206004820152602660248201527f4f776e61626c653a206e6577206f776e657220697320746865207a65726f206160448201526564647265737360d01b60648201526084016104c2565b6111fd81611200565b50565b600080546001600160a01b038381166001600160a01b0319831681178455604051919092169283917f8be0079c531659141344cd1fd0a4f28419497f9722a3daafe3b4186f6b6457e09190a35050565b6000604051733d602d80600a3d3981f3363d3d373d3d3d363d7360601b81528360601b60148201526e5af43d82803e903d91602b57fd5bf360881b6028820152826037826000f59150506001600160a01b0381166112f05760405162461bcd60e51b815260206004820152601760248201527f455243313136373a2063726561746532206661696c656400000000000000000060448201526064016104c2565b92915050565b60608161131a5750506040805180820190915260018152600360fc1b602082015290565b8160005b8115611344578061132e81611c94565b915061133d9050600a83611b5c565b915061131e565b60008167ffffffffffffffff81111561135f5761135f611d05565b6040519080825280601f01601f191660200182016040528015611389576020820181803683370190505b5090505b84156113f45761139e600183611b8f565b91506113ab600a86611caf565b6113b6906030611b44565b60f81b8183815181106113cb576113cb611cef565b60200101906001600160f81b031916908160001a9053506113ed600a86611b5c565b945061138d565b949350505050565b6000808483856000015160405160200161141893929190611789565b6040516020818303038152906040529050600084608001516001600160a01b031663313ce5676040518163ffffffff1660e01b815260040160206040518083038186803b15801561146857600080fd5b505afa15801561147c573d6000803e3d6000fd5b505050506040513d601f19601f820116820180604052508101906114a0919061173a565b90506000856060015186608001518760a00151876040516020016114c79493929190611a8c565b604051602081830303815290604052805190602001209050600061150b7f000000000000000000000000000000000000000000000000000000000000000083611250565b604051637b69774360e11b81529091506001600160a01b0382169063f6d2ee8690611540908c90889081908990600401611843565b600060405180830381600087803b15801561155a57600080fd5b505af115801561156e573d6000803e3d6000fd5b50929b9a5050505050505050505050565b803561158a81611d1b565b919050565b600082601f8301126115a057600080fd5b813567ffffffffffffffff808211156115bb576115bb611d05565b604051601f8301601f19908116603f011681019082821181831017156115e3576115e3611d05565b816040528381528660208588010111156115fc57600080fd5b836020870160208301376000602085830101528094505050505092915050565b803561ffff8116811461158a57600080fd5b803563ffffffff8116811461158a57600080fd5b60006020828403121561165457600080fd5b813561165f81611d1b565b9392505050565b60006020828403121561167857600080fd5b815161165f81611d1b565b60006020828403121561169557600080fd5b813567ffffffffffffffff8111156116ac57600080fd5b8201610100818503121561165f57600080fd5b6000602082840312156116d157600080fd5b61165f8261161c565b6000602082840312156116ec57600080fd5b5035919050565b60008060006060848603121561170857600080fd5b505081359360208301359350604090920135919050565b60006020828403121561173157600080fd5b61165f8261162e565b60006020828403121561174c57600080fd5b815160ff8116811461165f57600080fd5b60008151808452611775816020860160208601611c64565b601f01601f19169290920160200192915050565b6000845161179b818460208901611c64565b8451908301906117af818360208901611c64565b84519101906117c2818360208801611c64565b0195945050505050565b600084516117de818460208901611c64565b602d60f81b908301908152838560018301376000930160010192835250909392505050565b6001600160a01b03841681526040602082018190528101829052818360608301376000818301606090810191909152601f909201601f1916010192915050565b6001600160a01b03851681526080602082018190526000906118679083018661175d565b8281036040840152611879818661175d565b91505060ff8316606083015295945050505050565b6020808252818101527f4f776e61626c653a2063616c6c6572206973206e6f7420746865206f776e6572604082015260600190565b6020808252601690820152751859191c995cdcc818d85b9b9bdd081899481b9d5b1b60521b604082015260600190565b6020815261190d6020820183516001600160a01b03169052565b6000602083015161192960408401826001600160a01b03169052565b5060408301516001600160a01b03811660608401525060608301516001600160a01b03811660808401525060808301516001600160a01b03811660a08401525060a08301516001600160a01b03811660c08401525060c08301516001600160a01b03811660e08401525060e08301516101006119af818501836001600160a01b03169052565b8085015191505061022061012081818601526119cf61024086018461175d565b908601519092506101406119ea8682018363ffffffff169052565b8601519050610160611a038682018363ffffffff169052565b8601519050610180611a1a8682018361ffff169052565b8601516101a08681019190915286015190506101c0611a43818701836001600160a01b03169052565b86015190506101e0611a5f868201836001600160a01b03169052565b8601519050610200611a7b868201836001600160a01b03169052565b959095015193019290925250919050565b61ffff851681526001600160a01b03848116602083015283166040820152608060608201819052600090611ac29083018461175d565b9695505050505050565b6000808335601e19843603018112611ae357600080fd5b83018035915067ffffffffffffffff821115611afe57600080fd5b602001915036819003821315611b1357600080fd5b9250929050565b604051610100810167ffffffffffffffff81118282101715611b3e57611b3e611d05565b60405290565b60008219821115611b5757611b57611cc3565b500190565b600082611b6b57611b6b611cd9565b500490565b6000816000190483118215151615611b8a57611b8a611cc3565b500290565b600082821015611ba157611ba1611cc3565b500390565b60006101008236031215611bb957600080fd5b611bc1611b1a565b823567ffffffffffffffff811115611bd857600080fd5b611be43682860161158f565b825250611bf36020840161162e565b6020820152611c046040840161162e565b6040820152611c156060840161161c565b6060820152611c266080840161157f565b6080820152611c3760a0840161157f565b60a0820152611c4860c0840161157f565b60c0820152611c5960e0840161157f565b60e082015292915050565b60005b83811015611c7f578181015183820152602001611c67565b83811115611c8e576000848401525b50505050565b6000600019821415611ca857611ca8611cc3565b5060010190565b600082611cbe57611cbe611cd9565b500690565b634e487b7160e01b600052601160045260246000fd5b634e487b7160e01b600052601260045260246000fd5b634e487b7160e01b600052603260045260246000fd5b634e487b7160e01b600052604160045260246000fd5b6001600160a01b03811681146111fd57600080fdfea264697066735822122090bc9c54fd7779e0e555ba7196298b001244f4f6678e02f74a89599791ce5a7d64736f6c6343000807003360806040523480156200001157600080fd5b506040516200121038038062001210833981016040819052620000349162000175565b6040518060400160405280600a8152602001692120a9a2afaa27a5a2a760b11b815250604051806040016040528060048152602001634241534560e01b81525082828281600390805190602001906200008f929190620000cf565b508051620000a5906004906020840190620000cf565b50506005805460ff909316620100000262ff0000199093169290921790915550620001de92505050565b828054620000dd90620001a1565b90600052602060002090601f0160209004810192826200010157600085556200014c565b82601f106200011c57805160ff19168380011785556200014c565b828001600101855582156200014c579182015b828111156200014c5782518255916020019190600101906200012f565b506200015a9291506200015e565b5090565b5b808211156200015a57600081556001016200015f565b6000602082840312156200018857600080fd5b815160ff811681146200019a57600080fd5b9392505050565b600181811c90821680620001b657607f821691505b60208210811415620001d857634e487b7160e01b600052602260045260246000fd5b50919050565b61102280620001ee6000396000f3fe608060405234801561001057600080fd5b50600436106101005760003560e01c806394bf804d11610097578063dd62ed3e11610066578063dd62ed3e14610231578063f2fde38b1461026a578063f6d2ee861461027f578063fcd3533c1461029257600080fd5b806394bf804d146101f057806395d89b4114610203578063a457c2d71461020b578063a9059cbb1461021e57600080fd5b8063313ce567116100d3578063313ce5671461016b578063395093511461018957806370a082311461019c5780638da5cb5b146101c557600080fd5b806306fdde0314610105578063095ea7b31461012357806318160ddd1461014657806323b872dd14610158575b600080fd5b61010d6102a5565b60405161011a9190610ed3565b60405180910390f35b610136610131366004610e86565b610337565b604051901515815260200161011a565b6002545b60405190815260200161011a565b610136610166366004610dbd565b61034d565b60055462010000900460ff1660405160ff909116815260200161011a565b610136610197366004610e86565b6103fc565b61014a6101aa366004610d68565b6001600160a01b031660009081526020819052604090205490565b6008546101d8906001600160a01b031681565b6040516001600160a01b03909116815260200161011a565b6101366101fe366004610eb0565b610438565b61010d61046f565b610136610219366004610e86565b61047e565b61013661022c366004610e86565b610517565b61014a61023f366004610d8a565b6001600160a01b03918216600090815260016020908152604080832093909416825291909152205490565b61027d610278366004610d68565b610524565b005b61027d61028d366004610df9565b6105c6565b6101366102a0366004610eb0565b6106d6565b6060600680546102b490610f85565b80601f01602080910402602001604051908101604052809291908181526020018280546102e090610f85565b801561032d5780601f106103025761010080835404028352916020019161032d565b820191906000526020600020905b81548152906001019060200180831161031057829003601f168201915b5050505050905090565b600061034433848461070d565b50600192915050565b600061035a848484610832565b6001600160a01b0384166000908152600160209081526040808320338452909152902054828110156103e45760405162461bcd60e51b815260206004820152602860248201527f45524332303a207472616e7366657220616d6f756e74206578636565647320616044820152676c6c6f77616e636560c01b60648201526084015b60405180910390fd5b6103f1853385840361070d565b506001949350505050565b3360008181526001602090815260408083206001600160a01b03871684529091528120549091610344918590610433908690610f56565b61070d565b6008546000906001600160a01b031633146104655760405162461bcd60e51b81526004016103db90610f28565b6103448284610a01565b6060600780546102b490610f85565b3360009081526001602090815260408083206001600160a01b0386168452909152812054828110156105005760405162461bcd60e51b815260206004820152602560248201527f45524332303a2064656372656173656420616c6c6f77616e63652062656c6f77604482015264207a65726f60d81b60648201526084016103db565b61050d338585840361070d565b5060019392505050565b6000610344338484610832565b6008546001600160a01b0316331461054e5760405162461bcd60e51b81526004016103db90610f28565b6001600160a01b0381166105a45760405162461bcd60e51b815260206004820152601b60248201527f4f776e65723a2073657474696e6720746f20302061646472657373000000000060448201526064016103db565b600880546001600160a01b0319166001600160a01b0392909216919091179055565b600554610100900460ff16806105df575060055460ff16155b6106425760405162461bcd60e51b815260206004820152602e60248201527f496e697469616c697a61626c653a20636f6e747261637420697320616c72656160448201526d191e481a5b9a5d1a585b1a5e995960921b60648201526084016103db565b600554610100900460ff16158015610664576005805461ffff19166101011790555b600880546001600160a01b0319166001600160a01b0387161790558351610692906006906020870190610c26565b5082516106a6906007906020860190610c26565b506005805462ff000019166201000060ff85160217905580156106cf576005805461ff00191690555b5050505050565b6008546000906001600160a01b031633146107035760405162461bcd60e51b81526004016103db90610f28565b6103448284610ae0565b6001600160a01b03831661076f5760405162461bcd60e51b8152602060048201526024808201527f45524332303a20617070726f76652066726f6d20746865207a65726f206164646044820152637265737360e01b60648201526084016103db565b6001600160a01b0382166107d05760405162461bcd60e51b815260206004820152602260248201527f45524332303a20617070726f766520746f20746865207a65726f206164647265604482015261737360f01b60648201526084016103db565b6001600160a01b0383811660008181526001602090815260408083209487168084529482529182902085905590518481527f8c5be1e5ebec7d5bd14f71427d1e84f3dd0314c0f7b2291e5b200ac8c7c3b92591015b60405180910390a3505050565b6001600160a01b0383166108965760405162461bcd60e51b815260206004820152602560248201527f45524332303a207472616e736665722066726f6d20746865207a65726f206164604482015264647265737360d81b60648201526084016103db565b6001600160a01b0382166108f85760405162461bcd60e51b815260206004820152602360248201527f45524332303a207472616e7366657220746f20746865207a65726f206164647260448201526265737360e81b60648201526084016103db565b6001600160a01b038316600090815260208190526040902054818110156109705760405162461bcd60e51b815260206004820152602660248201527f45524332303a207472616e7366657220616d6f756e7420657863656564732062604482015265616c616e636560d01b60648201526084016103db565b6001600160a01b038085166000908152602081905260408082208585039055918516815290812080548492906109a7908490610f56565b92505081905550826001600160a01b0316846001600160a01b03167fddf252ad1be2c89b69c2b068fc378daa952ba7f163c4a11628f55a4df523b3ef846040516109f391815260200190565b60405180910390a350505050565b6001600160a01b038216610a575760405162461bcd60e51b815260206004820152601f60248201527f45524332303a206d696e7420746f20746865207a65726f20616464726573730060448201526064016103db565b8060026000828254610a699190610f56565b90915550506001600160a01b03821660009081526020819052604081208054839290610a96908490610f56565b90915550506040518181526001600160a01b038316906000907fddf252ad1be2c89b69c2b068fc378daa952ba7f163c4a11628f55a4df523b3ef9060200160405180910390a35050565b6001600160a01b038216610b405760405162461bcd60e51b815260206004820152602160248201527f45524332303a206275726e2066726f6d20746865207a65726f206164647265736044820152607360f81b60648201526084016103db565b6001600160a01b03821660009081526020819052604090205481811015610bb45760405162461bcd60e51b815260206004820152602260248201527f45524332303a206275726e20616d6f756e7420657863656564732062616c616e604482015261636560f01b60648201526084016103db565b6001600160a01b0383166000908152602081905260408120838303905560028054849290610be3908490610f6e565b90915550506040518281526000906001600160a01b038516907fddf252ad1be2c89b69c2b068fc378daa952ba7f163c4a11628f55a4df523b3ef90602001610825565b828054610c3290610f85565b90600052602060002090601f016020900481019282610c545760008555610c9a565b82601f10610c6d57805160ff1916838001178555610c9a565b82800160010185558215610c9a579182015b82811115610c9a578251825591602001919060010190610c7f565b50610ca6929150610caa565b5090565b5b80821115610ca65760008155600101610cab565b80356001600160a01b0381168114610cd657600080fd5b919050565b600082601f830112610cec57600080fd5b813567ffffffffffffffff80821115610d0757610d07610fd6565b604051601f8301601f19908116603f01168101908282118183101715610d2f57610d2f610fd6565b81604052838152866020858801011115610d4857600080fd5b836020870160208301376000602085830101528094505050505092915050565b600060208284031215610d7a57600080fd5b610d8382610cbf565b9392505050565b60008060408385031215610d9d57600080fd5b610da683610cbf565b9150610db460208401610cbf565b90509250929050565b600080600060608486031215610dd257600080fd5b610ddb84610cbf565b9250610de960208501610cbf565b9150604084013590509250925092565b60008060008060808587031215610e0f57600080fd5b610e1885610cbf565b9350602085013567ffffffffffffffff80821115610e3557600080fd5b610e4188838901610cdb565b94506040870135915080821115610e5757600080fd5b50610e6487828801610cdb565b925050606085013560ff81168114610e7b57600080fd5b939692955090935050565b60008060408385031215610e9957600080fd5b610ea283610cbf565b946020939093013593505050565b60008060408385031215610ec357600080fd5b82359150610db460208401610cbf565b600060208083528351808285015260005b81811015610f0057858101830151858201604001528201610ee4565b81811115610f12576000604083870101525b50601f01601f1916929092016040019392505050565b60208082526014908201527336b9b39739b2b73232b9103737ba1037bbb732b960611b604082015260600190565b60008219821115610f6957610f69610fc0565b500190565b600082821015610f8057610f80610fc0565b500390565b600181811c90821680610f9957607f821691505b60208210811415610fba57634e487b7160e01b600052602260045260246000fd5b50919050565b634e487b7160e01b600052601160045260246000fd5b634e487b7160e01b600052604160045260246000fdfea264697066735822122065cb578bfd0772101c3a2afac067b3a5f722e8248a988487f3cb47253e2f115064736f6c63430008070033608060405234801561001057600080fd5b506133a8806100206000396000f3fe608060405234801561001057600080fd5b50600436106102955760003560e01c80637bbf103311610167578063bbcaac38116100ce578063ddca3f4311610087578063ddca3f43146105ad578063e3d346cd146105c1578063f164e2a7146105d4578063f3466dfa146105e8578063f633a740146105fd578063fd2c80ae1461061057600080fd5b8063bbcaac3814610546578063c40f6aa914610559578063cd39f30f14610561578063cfe49eba14610574578063d38bfff414610587578063d4ab77ae1461059a57600080fd5b80639fd55245116101205780639fd55245146104cb578063a9b96d4c146104de578063ab47c2b3146104f1578063aced166114610517578063b9ed8abf1461052a578063ba8d54681461053d57600080fd5b80637bbf10331461045b5780637bfe789a146104795780637de93f931461049e5780637e71fc7d146104a75780638226f396146104b05780638456cb59146104c357600080fd5b80634f64b2be1161020b5780636dc2b271116101c45780636dc2b271146103ec578063748747e6146103ff57806375a024a214610412578063796da7af146104255780637b0a0c901461042d5780637bb98a681461044057600080fd5b80634f64b2be146103725780635817f0c6146103855780635aa6e675146103985780635c975abb146103ab5780635d36b190146103cf5780636d3e313e146103d757600080fd5b8063217a4b701161025d578063217a4b70146102fe5780633c3f8252146103295780633d4c485d1461033c5780633f4ba83a14610344578063412753581461034c5780634509017e1461035f57600080fd5b806303850dbb1461029a57806304883c27146102b6578063062e0d69146102ce578063110b1bed146102d6578063129011d0146102eb575b600080fd5b6102a360095481565b6040519081526020015b60405180910390f35b6102be610628565b6040516102ad9493929190613139565b6102a3600081565b6102e96102e4366004612e02565b6106e0565b005b6102e96102f9366004612f7e565b6107d1565b600a54610311906001600160a01b031681565b6040516001600160a01b0390911681526020016102ad565b6102e9610337366004612f5c565b61120f565b6102e96112cd565b6102e96113d9565b600754610311906001600160a01b031681565b601054610311906001600160a01b031681565b610311610380366004612fde565b61143b565b6102e9610393366004612dbb565b61145b565b600554610311906001600160a01b031681565b6005546103bf90600160a01b900460ff1681565b60405190151581526020016102ad565b6102e9611525565b6103df6116ec565b6040516102ad91906130ff565b6103bf6103fa366004612dbb565b611730565b6102e961040d366004612d64565b611923565b6102e9610420366004612d64565b611ab4565b6102a3611b1d565b6102e961043b366004612d7f565b611b9f565b600154600254604080519283526020830191909152016102ad565b60035460135464010000000090910463ffffffff16014210156103bf565b6003546104899063ffffffff1681565b60405163ffffffff90911681526020016102ad565b6102a360135481565b6102a360025481565b600d54610311906001600160a01b031681565b6102e9611c6a565b600e54610311906001600160a01b031681565b600f54610311906001600160a01b031681565b6004546104fe9060801b81565b6040516001600160801b031990911681526020016102ad565b600654610311906001600160a01b031681565b600c54610311906001600160a01b031681565b6102a360015481565b6102e9610554366004612d64565b611d10565b6102a3600181565b600b54610311906001600160a01b031681565b6102e9610582366004612e22565b611e39565b6102e9610595366004612d64565b6120a1565b6102e96105a8366004612e22565b6121e5565b6003546104fe90600160401b900460801b81565b600854610311906001600160a01b031681565b6006546103bf90600160a01b900460ff1681565b6105f06123ac565b6040516102ad9190613165565b6102e961060b366004612f5c565b61243a565b60035461048990640100000000900463ffffffff1681565b60006060600080600080600c60009054906101000a90046001600160a01b03166001600160a01b031663db6d8fcf6040518163ffffffff1660e01b815260040160006040518083038186803b15801561068057600080fd5b505afa158015610694573d6000803e3d6000fd5b505050506040513d6000823e601f3d908101601f191682016040526106bc9190810190612ea3565b6013546003549299919850965064010000000090910463ffffffff16945092505050565b600b546001600160a01b031633146107135760405162461bcd60e51b815260040161070a906131e6565b60405180910390fd5b601054604051632781e7f160e21b81523060048201526001600160a01b0390911690639e079fc490602401600060405180830381600087803b15801561075857600080fd5b505af115801561076c573d6000803e3d6000fd5b5050600554600160a01b900460ff1615915061079c90505760405162461bcd60e51b815260040161070a906131be565b82156107c3576107be8282601160005b01546001600160a01b0316919061261a565b505050565b6107be8282601160016107ac565b600054610100900460ff16806107ea575060005460ff16155b61084d5760405162461bcd60e51b815260206004820152602e60248201527f496e697469616c697a61626c653a20636f6e747261637420697320616c72656160448201526d191e481a5b9a5d1a585b1a5e995960921b606482015260840161070a565b600054610100900460ff1615801561086f576000805461ffff19166101011790555b60006108836101c084016101a08501612d64565b6001600160a01b031614156108da5760405162461bcd60e51b815260206004820152601f60248201527f46656520616464726573732063616e6e6f742062652030206164647265737300604482015260640161070a565b60006108ee61020084016101e08501612d64565b6001600160a01b031614156109455760405162461bcd60e51b815260206004820152601f60248201527f51756f746520746f6b656e2063616e6e6f742062652030206164647265737300604482015260640161070a565b60006109576060840160408501612d64565b6001600160a01b031614156109b95760405162461bcd60e51b815260206004820152602260248201527f4f7261636c6520777261707065722063616e6e6f742062652030206164647265604482015261737360f01b606482015260840161070a565b60006109cb6080840160608501612d64565b6001600160a01b03161415610a2c5760405162461bcd60e51b815260206004820152602160248201527f4b6565706572206f7261636c652063616e6e6f742062652030206164647265736044820152607360f81b606482015260840161070a565b6000610a3b6020840184612d64565b6001600160a01b03161415610a925760405162461bcd60e51b815260206004820152601960248201527f4f776e65722063616e6e6f742062652030206164647265737300000000000000604482015260640161070a565b6000610aa46040840160208501612d64565b6001600160a01b03161415610afb5760405162461bcd60e51b815260206004820152601a60248201527f4b65657065722063616e6e6f7420626520302061646472657373000000000000604482015260640161070a565b6000610b0d60a0840160808501612d64565b6001600160a01b03161415610b645760405162461bcd60e51b815260206004820152601e60248201527f4c6f6e6720746f6b656e2063616e6e6f74206265203020616464726573730000604482015260640161070a565b6000610b7660c0840160a08501612d64565b6001600160a01b03161415610bcd5760405162461bcd60e51b815260206004820152601f60248201527f53686f727420746f6b656e2063616e6e6f742062652030206164647265737300604482015260640161070a565b6000610bdf60e0840160c08501612d64565b6001600160a01b03161415610c405760405162461bcd60e51b815260206004820152602160248201527f506f6f6c436f6d6d69747465722063616e6e6f742062652030206164647265736044820152607360f81b606482015260840161070a565b6000610c53610100840160e08501612d64565b6001600160a01b03161415610cb55760405162461bcd60e51b815260206004820152602260248201527f496e76617269616e74436865636b2063616e6e6f742062652030206164647265604482015261737360f01b606482015260840161070a565b670de0b6b3a764000082610180013510610cff5760405162461bcd60e51b815260206004820152600b60248201526a466565203e3d203130302560a81b604482015260640161070a565b60648261020001351115610d255760405162461bcd60e51b815260040161070a90613178565b610d326020830183612d64565b600580546001600160a01b0319166001600160a01b0392909216919091179055610d626040830160208401612d64565b600680546001600160a01b0319166001600160a01b0392909216919091179055610d926060830160408401612d64565b600c80546001600160a01b0319166001600160a01b0392909216919091179055610dc26080830160608401612d64565b600d80546001600160a01b0319166001600160a01b0392909216919091179055610df461020083016101e08401612d64565b600a80546001600160a01b0319166001600160a01b0392909216919091179055610e2661014083016101208401613051565b6003805463ffffffff191663ffffffff92909216919091179055610e5261016083016101408401613051565b6003805463ffffffff929092166401000000000267ffffffff0000000019909216919091179055604051636fedf26d60e11b81526101808301356004820152732fB38A21cC1cE33a4a49c034893eaA5Fb3D0Dc769063dfdbe4da9060240160206040518083038186803b158015610ec857600080fd5b505af4158015610edc573d6000803e3d6000fd5b505050506040513d601f19601f82011682018060405250810190610f009190612e60565b6003805460809290921c600160401b0277ffffffffffffffffffffffffffffffff000000000000000019909216919091179055732fB38A21cC1cE33a4a49c034893eaA5Fb3D0Dc7663dfdbe4da610f5f61018085016101608601612fba565b6040516001600160e01b031960e084901b16815261ffff909116600482015260240160206040518083038186803b158015610f9957600080fd5b505af4158015610fad573d6000803e3d6000fd5b505050506040513d601f19601f82011682018060405250810190610fd19190612e60565b600480546001600160801b03191660809290921c919091179055610ffd6101c083016101a08401612d64565b600780546001600160a01b0319166001600160a01b039290921691909117905561102f6101e083016101c08401612d64565b600880546001600160a01b0319166001600160a01b03929092169190911790556102008201356009554260135561106a610100830183613254565b61107691601491612c91565b5061108760a0830160808401612d64565b601160000180546001600160a01b0319166001600160a01b03929092169190911790556110ba60c0830160a08401612d64565b601160010180546001600160a01b0319166001600160a01b03929092169190911790556110ed60e0830160c08401612d64565b600b80546001600160a01b0319166001600160a01b039290921691909117905561111e610100830160e08401612d64565b600f80546001600160a01b0319166001600160a01b039290921691909117905561114f610100830160e08401612d64565b601080546001600160a01b0319166001600160a01b039290921691909117905561117f60c0830160a08401612d64565b6001600160a01b031661119860a0840160808501612d64565b6001600160a01b03167fbc8bd61e5dd69ff5cb8c389529c029503515ba368eaafbdaa406e072fdd360726111d461020086016101e08701612d64565b6111e2610100870187613254565b6040516111f1939291906130bf565b60405180910390a3801561120b576000805461ff00191690555b5050565b600b546001600160a01b031633146112395760405162461bcd60e51b815260040161070a906131e6565b601054604051632781e7f160e21b81523060048201526001600160a01b0390911690639e079fc490602401600060405180830381600087803b15801561127e57600080fd5b505af1158015611292573d6000803e3d6000fd5b5050600554600160a01b900460ff161591506112c290505760405162461bcd60e51b815260040161070a906131be565b600291909155600155565b6005546001600160a01b031633146112f75760405162461bcd60e51b815260040161070a9061321d565b600554600160a01b900460ff1661133f5760405162461bcd60e51b815260206004820152600c60248201526b506f6f6c206973206c69766560a01b604482015260640161070a565b600a546040516370a0823160e01b81523060048201526001600160a01b039091169060009082906370a082319060240160206040518083038186803b15801561138757600080fd5b505afa15801561139b573d6000803e3d6000fd5b505050506040513d601f19601f820116820180604052508101906113bf9190612e8a565b600a5490915061120b906001600160a01b0316338361261a565b6005546001600160a01b031633146114035760405162461bcd60e51b815260040161070a9061321d565b6005805460ff60a01b191690556040517fa45f47fdea8a1efdd9029a5691c7f759c32b7c698632b563573e155625d1693390600090a1565b6011816002811061144b57600080fd5b01546001600160a01b0316905081565b600b546001600160a01b031633146114855760405162461bcd60e51b815260040161070a906131e6565b601054604051632781e7f160e21b81523060048201526001600160a01b0390911690639e079fc490602401600060405180830381600087803b1580156114ca57600080fd5b505af11580156114de573d6000803e3d6000fd5b5050600554600160a01b900460ff1615915061150e90505760405162461bcd60e51b815260040161070a906131be565b600a5461120b906001600160a01b0316838361261a565b600554600160a01b900460ff161561154f5760405162461bcd60e51b815260040161070a906131be565b600654600160a01b900460ff166115a85760405162461bcd60e51b815260206004820152601b60248201527f4e6f20676f7665726e616e6365206368616e6765206163746976650000000000604482015260640161070a565b600e546001600160a01b031633146116025760405162461bcd60e51b815260206004820152601860248201527f4e6f742070726f766973696f6e616c20676f7665726e6f720000000000000000604482015260640161070a565b60058054600e546001600160a01b039081166001600160a01b0319831681179093556006805460ff60a01b191690556040519116919082907f023588d3d1dcaad34e471c9e01b616b794156174bc693539c8fe15c0bfd5d82690600090a350601054604051632781e7f160e21b81523060048201526001600160a01b0390911690639e079fc490602401600060405180830381600087803b1580156116a657600080fd5b505af11580156116ba573d6000803e3d6000fd5b5050600554600160a01b900460ff161591506116ea90505760405162461bcd60e51b815260040161070a906131be565b565b6116f4612d15565b60408051808201918290529060119060029082845b81546001600160a01b03168152600190910190602001808311611709575050505050905090565b6006546000906001600160a01b031633146117855760405162461bcd60e51b815260206004820152601560248201527436b9b39739b2b73232b9103737ba1035b2b2b832b960591b604482015260640161070a565b600554600160a01b900460ff16156117af5760405162461bcd60e51b815260040161070a906131be565b6001546002546117bf81836132a2565b84106117d057600092505050611894565b60405163dc35bc1360e01b81526004810185905260248101839052604481018290526000908190732fB38A21cC1cE33a4a49c034893eaA5Fb3D0Dc769063dc35bc1390606401604080518083038186803b15801561182d57600080fd5b505af4158015611841573d6000803e3d6000fd5b505050506040513d601f19601f820116820180604052508101906118659190612ff7565b60018290556002819055600a54919350915061188b906001600160a01b0316888861261a565b60019450505050505b601054604051632781e7f160e21b81523060048201526001600160a01b0390911690639e079fc490602401600060405180830381600087803b1580156118d957600080fd5b505af11580156118ed573d6000803e3d6000fd5b5050600554600160a01b900460ff1615915061191d90505760405162461bcd60e51b815260040161070a906131be565b92915050565b6005546001600160a01b0316331461194d5760405162461bcd60e51b815260040161070a9061321d565b600554600160a01b900460ff16156119775760405162461bcd60e51b815260040161070a906131be565b6001600160a01b0381166119d85760405162461bcd60e51b815260206004820152602260248201527f4b656570657220616464726573732063616e6e6f742062652030206164647265604482015261737360f01b606482015260840161070a565b600680546001600160a01b038381166001600160a01b0319831681179093556040519116919082907f402b3f9a8de3e388e7653c7a5892204fe18b579c8c23db19d6e00f1043ceb92190600090a350601054604051632781e7f160e21b81523060048201526001600160a01b0390911690639e079fc4906024015b600060405180830381600087803b158015611a6d57600080fd5b505af1158015611a81573d6000803e3d6000fd5b5050600554600160a01b900460ff16159150611ab190505760405162461bcd60e51b815260040161070a906131be565b50565b6008546001600160a01b0316338114611acc57600080fd5b600880546001600160a01b0319166001600160a01b0384811691821790925560405190918316907f4a1fe1b44fae78218ab520acca2aaba5067e706a4084bccf913f291c8d6e074990600090a35050565b600c5460408051634c6afee560e11b815290516000926001600160a01b0316916398d5fdca916004808301926020929190829003018186803b158015611b6257600080fd5b505afa158015611b76573d6000803e3d6000fd5b505050506040513d601f19601f82011682018060405250810190611b9a9190612e8a565b905090565b600b546001600160a01b03163314611bc95760405162461bcd60e51b815260040161070a906131e6565b601054604051632781e7f160e21b81523060048201526001600160a01b0390911690639e079fc490602401600060405180830381600087803b158015611c0e57600080fd5b505af1158015611c22573d6000803e3d6000fd5b5050600554600160a01b900460ff16159150611c5290505760405162461bcd60e51b815260040161070a906131be565b600a546107be906001600160a01b031684848461267d565b600f546001600160a01b03163314611cd25760405162461bcd60e51b815260206004820152602560248201527f6d73672e73656e646572206e6f7420696e76617269616e74436865636b436f6e6044820152641d1c9858dd60da1b606482015260840161070a565b6005805460ff60a01b1916600160a01b1790556040517f9e87fac88ff661f02d44f95383c817fece4bce600a3dab7a54406878b965e75290600090a1565b6005546001600160a01b03163314611d3a5760405162461bcd60e51b815260040161070a9061321d565b600554600160a01b900460ff1615611d645760405162461bcd60e51b815260040161070a906131be565b6001600160a01b038116611dba5760405162461bcd60e51b815260206004820152601b60248201527f4163636f756e742063616e6e6f74206265203020616464726573730000000000604482015260640161070a565b600780546001600160a01b038381166001600160a01b0319831681179093556040519116919082907f11f35a22548bcd4c3788ab4a7e4fba427a2014f02e5d5e2da9af62212c03183f90600090a350601054604051632781e7f160e21b81523060048201526001600160a01b0390911690639e079fc490602401611a53565b600b546001600160a01b03163314611e635760405162461bcd60e51b815260040161070a906131e6565b600554600160a01b900460ff1615611e8d5760405162461bcd60e51b815260040161070a906131be565b8215611f5857601154604051633f34d4cf60e21b8152600481018490526001600160a01b0383811660248301529091169063fcd3533c90604401602060405180830381600087803b158015611ee157600080fd5b505af1158015611ef5573d6000803e3d6000fd5b505050506040513d601f19601f82011682018060405250810190611f199190612de5565b611f535760405162461bcd60e51b815260206004820152600b60248201526a109d5c9b8819985a5b195960aa1b604482015260640161070a565b612018565b601254604051633f34d4cf60e21b8152600481018490526001600160a01b0383811660248301529091169063fcd3533c90604401602060405180830381600087803b158015611fa657600080fd5b505af1158015611fba573d6000803e3d6000fd5b505050506040513d601f19601f82011682018060405250810190611fde9190612de5565b6120185760405162461bcd60e51b815260206004820152600b60248201526a109d5c9b8819985a5b195960aa1b604482015260640161070a565b601054604051632781e7f160e21b81523060048201526001600160a01b0390911690639e079fc490602401600060405180830381600087803b15801561205d57600080fd5b505af1158015612071573d6000803e3d6000fd5b5050600554600160a01b900460ff161591506107be90505760405162461bcd60e51b815260040161070a906131be565b6005546001600160a01b031633146120cb5760405162461bcd60e51b815260040161070a9061321d565b600554600160a01b900460ff16156120f55760405162461bcd60e51b815260040161070a906131be565b6001600160a01b03811661215a5760405162461bcd60e51b815260206004820152602660248201527f476f7665726e616e636520616464726573732063616e6e6f742062652030206160448201526564647265737360d01b606482015260840161070a565b600e80546001600160a01b0383166001600160a01b031990911681179091556006805460ff60a01b1916600160a01b1790556040517f35681f4f23137fb58510a9854f1b6e95f90a2cf0b66d2fce4df74cc0becc82d590600090a2601054604051632781e7f160e21b81523060048201526001600160a01b0390911690639e079fc490602401611a53565b600b546001600160a01b0316331461220f5760405162461bcd60e51b815260040161070a906131e6565b601054604051632781e7f160e21b81523060048201526001600160a01b0390911690639e079fc490602401600060405180830381600087803b15801561225457600080fd5b505af1158015612268573d6000803e3d6000fd5b5050600554600160a01b900460ff1615915061229890505760405162461bcd60e51b815260040161070a906131be565b821561235e576011546040516394bf804d60e01b8152600481018490526001600160a01b038381166024830152909116906394bf804d90604401602060405180830381600087803b1580156122ec57600080fd5b505af1158015612300573d6000803e3d6000fd5b505050506040513d601f19601f820116820180604052508101906123249190612de5565b6107be5760405162461bcd60e51b815260206004820152600b60248201526a135a5b9d0819985a5b195960aa1b604482015260640161070a565b6012546040516394bf804d60e01b8152600481018490526001600160a01b038381166024830152909116906394bf804d90604401602060405180830381600087803b1580156122ec57600080fd5b601480546123b9906132fd565b80601f01602080910402602001604051908101604052809291908181526020018280546123e5906132fd565b80156124325780601f1061240757610100808354040283529160200191612432565b820191906000526020600020905b81548152906001019060200180831161241557829003601f168201915b505050505081565b6006546001600160a01b0316331461248c5760405162461bcd60e51b815260206004820152601560248201527436b9b39739b2b73232b9103737ba1035b2b2b832b960591b604482015260640161070a565b600554600160a01b900460ff16156124b65760405162461bcd60e51b815260040161070a906131be565b60035460135464010000000090910463ffffffff160142101561251b5760405162461bcd60e51b815260206004820152601d60248201527f55706461746520696e74657276616c206861736e277420706173736564000000604482015260640161070a565b61252582826126bb565b600b60009054906101000a90046001600160a01b03166001600160a01b0316631b9d69576040518163ffffffff1660e01b8152600401600060405180830381600087803b15801561257557600080fd5b505af1158015612589573d6000803e3d6000fd5b5050426013555050601054604051632781e7f160e21b81523060048201526001600160a01b0390911690639e079fc490602401600060405180830381600087803b1580156125d657600080fd5b505af11580156125ea573d6000803e3d6000fd5b5050600554600160a01b900460ff1615915061120b90505760405162461bcd60e51b815260040161070a906131be565b6040516001600160a01b0383166024820152604481018290526107be90849063a9059cbb60e01b906064015b60408051601f198184030181529190526020810180516001600160e01b03166001600160e01b031990931692909217909152612912565b6040516001600160a01b03808516602483015283166044820152606481018290526126b59085906323b872dd60e01b90608401612646565b50505050565b601054604051632781e7f160e21b81523060048201526001600160a01b0390911690639e079fc490602401600060405180830381600087803b15801561270057600080fd5b505af1158015612714573d6000803e3d6000fd5b5050600554600160a01b900460ff1615915061274490505760405162461bcd60e51b815260040161070a906131be565b600082131580612755575060008113155b1561278b57604051819083907f27f70c863f1bd3e335bb4d6bf2a31075c861752f0b21a03b816a356035b1dec690600090a35050565b6001546002546040805160c0810182528581526020810185815281830184815260608301868152600480546001600160801b0319608091821b8116828801908152600354600160401b900490921b811660a088019081529751632920706d60e21b815287519381019390935294516024830152925160448201529051606482015290518216608482015292511660a483015290600090819081908190732fB38A21cC1cE33a4a49c034893eaA5Fb3D0Dc769063a481c1b49060c40160806040518083038186803b15801561285e57600080fd5b505af4158015612872573d6000803e3d6000fd5b505050506040513d601f19601f82011682018060405250810190612896919061301b565b604080518c850381528b8603602082015290810182905260608101839052939750919550935091507ff1e6677cbfc1dcb704bc91fc51ba87e318c4ed18c6a5571907e52a09a2c0f9aa9060800160405180910390a16002849055600183905561290761290282846132a2565b6129e4565b505050505050505050565b6000612967826040518060400160405280602081526020017f5361666545524332303a206c6f772d6c6576656c2063616c6c206661696c6564815250856001600160a01b0316612b179092919063ffffffff16565b8051909150156107be57808060200190518101906129859190612de5565b6107be5760405162461bcd60e51b815260206004820152602a60248201527f5361666545524332303a204552433230206f7065726174696f6e20646964206e6044820152691bdd081cdd58d8d9595960b21b606482015260840161070a565b6008546001600160a01b0316612a1157600754600a54611ab1916001600160a01b0391821691168361261a565b60646009541115612a345760405162461bcd60e51b815260040161070a90613178565b60095460405163fea3de3360e01b8152600481018390526024810191909152606460448201819052600091732fB38A21cC1cE33a4a49c034893eaA5Fb3D0Dc769163fea3de33910160206040518083038186803b158015612a9457600080fd5b505af4158015612aa8573d6000803e3d6000fd5b505050506040513d601f19601f82011682018060405250810190612acc9190612e8a565b90506000612ada82846132ba565b600854600a54919250612afa916001600160a01b0390811691168461261a565b600754600a546107be916001600160a01b0391821691168361261a565b6060612b268484600085612b30565b90505b9392505050565b606082471015612b915760405162461bcd60e51b815260206004820152602660248201527f416464726573733a20696e73756666696369656e742062616c616e636520666f6044820152651c8818d85b1b60d21b606482015260840161070a565b843b612bdf5760405162461bcd60e51b815260206004820152601d60248201527f416464726573733a2063616c6c20746f206e6f6e2d636f6e7472616374000000604482015260640161070a565b600080866001600160a01b03168587604051612bfb91906130a3565b60006040518083038185875af1925050503d8060008114612c38576040519150601f19603f3d011682016040523d82523d6000602084013e612c3d565b606091505b5091509150612c4d828286612c58565b979650505050505050565b60608315612c67575081612b29565b825115612c775782518084602001fd5b8160405162461bcd60e51b815260040161070a9190613165565b828054612c9d906132fd565b90600052602060002090601f016020900481019282612cbf5760008555612d05565b82601f10612cd85782800160ff19823516178555612d05565b82800160010185558215612d05579182015b82811115612d05578235825591602001919060010190612cea565b50612d11929150612d33565b5090565b60405180604001604052806002906020820280368337509192915050565b5b80821115612d115760008155600101612d34565b80356001600160a01b0381168114612d5f57600080fd5b919050565b600060208284031215612d7657600080fd5b612b2982612d48565b600080600060608486031215612d9457600080fd5b612d9d84612d48565b9250612dab60208501612d48565b9150604084013590509250925092565b60008060408385031215612dce57600080fd5b612dd783612d48565b946020939093013593505050565b600060208284031215612df757600080fd5b8151612b2981613364565b600080600060608486031215612e1757600080fd5b8335612d9d81613364565b600080600060608486031215612e3757600080fd5b8335612e4281613364565b925060208401359150612e5760408501612d48565b90509250925092565b600060208284031215612e7257600080fd5b81516001600160801b031981168114612b2957600080fd5b600060208284031215612e9c57600080fd5b5051919050565b60008060408385031215612eb657600080fd5b82519150602083015167ffffffffffffffff80821115612ed557600080fd5b818501915085601f830112612ee957600080fd5b815181811115612efb57612efb61334e565b604051601f8201601f19908116603f01168101908382118183101715612f2357612f2361334e565b81604052828152886020848701011115612f3c57600080fd5b612f4d8360208301602088016132d1565b80955050505050509250929050565b60008060408385031215612f6f57600080fd5b50508035926020909101359150565b600060208284031215612f9057600080fd5b813567ffffffffffffffff811115612fa757600080fd5b82016102208185031215612b2957600080fd5b600060208284031215612fcc57600080fd5b813561ffff81168114612b2957600080fd5b600060208284031215612ff057600080fd5b5035919050565b6000806040838503121561300a57600080fd5b505080516020909101519092909150565b6000806000806080858703121561303157600080fd5b505082516020840151604085015160609095015191969095509092509050565b60006020828403121561306357600080fd5b813563ffffffff81168114612b2957600080fd5b6000815180845261308f8160208601602086016132d1565b601f01601f19169290920160200192915050565b600082516130b58184602087016132d1565b9190910192915050565b6001600160a01b03841681526040602082018190528101829052818360608301376000818301606090810191909152601f909201601f1916010192915050565b60408101818360005b60028110156131305781516001600160a01b0316835260209283019290910190600101613108565b50505092915050565b8481526080602082015260006131526080830186613077565b6040830194909452506060015292915050565b602081526000612b296020830184613077565b60208082526026908201527f5365636f6e64617279206665652073706c69742063616e6e6f7420657863656560408201526564203130302560d01b606082015260800190565b6020808252600e908201526d141bdbdb081a5cc81c185d5cd95960921b604082015260600190565b6020808252601c908201527f6d73672e73656e646572206e6f7420706f6f6c436f6d6d697474657200000000604082015260600190565b60208082526019908201527f6d73672e73656e646572206e6f7420676f7665726e616e636500000000000000604082015260600190565b6000808335601e1984360301811261326b57600080fd5b83018035915067ffffffffffffffff82111561328657600080fd5b60200191503681900382131561329b57600080fd5b9250929050565b600082198211156132b5576132b5613338565b500190565b6000828210156132cc576132cc613338565b500390565b60005b838110156132ec5781810151838201526020016132d4565b838111156126b55750506000910152565b600181811c9082168061331157607f821691505b6020821081141561333257634e487b7160e01b600052602260045260246000fd5b50919050565b634e487b7160e01b600052601160045260246000fd5b634e487b7160e01b600052604160045260246000fd5b8015158114611ab157600080fdfea2646970667358221220170f44340fbbda6970c68c045eeb6ffe687e3937b00cb8da7b18cc0b21299fd964736f6c634300080700336080604052600180546001600160801b031916811790553480156200002357600080fd5b5060405162005611380380620056118339810160408190526200004691620003f1565b6001600160a01b038516620000a25760405162461bcd60e51b815260206004820152601e60248201527f466163746f727920616464726573732063616e6e6f74206265206e756c6c000060448201526064015b60405180910390fd5b6001600160a01b038316620000fa5760405162461bcd60e51b815260206004820181905260248201527f4175746f436c61696d20616464726573732063616e6e6f74206265206e756c6c604482015260640162000099565b6001600160a01b038416620001605760405162461bcd60e51b815260206004820152602560248201527f496e76617269616e74436865636b20616464726573732063616e6e6f74206265604482015264081b9d5b1b60da1b606482015260840162000099565b670de0b6b3a76400008210620001b95760405162461bcd60e51b815260206004820152601360248201527f4d696e74696e6720666565203e3d203130302500000000000000000000000000604482015260640162000099565b670de0b6b3a76400008110620002125760405162461bcd60e51b815260206004820152601360248201527f4275726e696e6720666565203e3d203130302500000000000000000000000000604482015260640162000099565b600d80546001600160a01b0319166001600160a01b03878116919091179091556000805462010000600160b01b0319166201000092861692909202919091179055604051636fedf26d60e11b815260048101839052732fB38A21cC1cE33a4a49c034893eaA5Fb3D0Dc769063dfdbe4da9060240160206040518083038186803b1580156200029f57600080fd5b505af4158015620002b4573d6000803e3d6000fd5b505050506040513d601f19601f82011682018060405250810190620002da91906200044e565b6001805460809290921c600160801b026001600160801b03909216919091179055604051636fedf26d60e11b815260048101829052732fB38A21cC1cE33a4a49c034893eaA5Fb3D0Dc769063dfdbe4da9060240160206040518083038186803b1580156200034757600080fd5b505af41580156200035c573d6000803e3d6000fd5b505050506040513d601f19601f820116820180604052508101906200038291906200044e565b6002805460809290921c6001600160801b03199092169190911790555050601080546001600160a01b039093166001600160a01b03199384168117909155601180549093161790915550620004819050565b80516001600160a01b0381168114620003ec57600080fd5b919050565b600080600080600060a086880312156200040a57600080fd5b6200041586620003d4565b94506200042560208701620003d4565b93506200043560408701620003d4565b6060870151608090970151959894975095949392505050565b6000602082840312156200046157600080fd5b81516001600160801b0319811681146200047a57600080fd5b9392505050565b61518080620004916000396000f3fe60806040526004361061021a5760003560e01c806388b78aaa11610123578063c40f6aa9116100ab578063e323aac61161006f578063e323aac614610759578063ea348c9a14610779578063f9dc9720146107d0578063fd555fb9146107f0578063fe5898581461081057600080fd5b8063c40f6aa9146106c8578063c45a0155146106dd578063c70db323146106fd578063d4c4e28314610723578063e20acc791461073857600080fd5b80639d03132e116100f25780639d03132e146105fe5780639fa21dca1461061e578063a9b96d4c1461063e578063b27a04841461065e578063b9fc75b0146106a857600080fd5b806388b78aaa146104d8578063901717d1146104f657806390f712cc1461050f5780639a5468481461052957600080fd5b806354da4992116101a65780635c975abb116101755780635c975abb1461043c57806364747c751461046d5780636a9dfc6414610480578063728cdbca146104a35780638456cb59146104c357600080fd5b806354da49921461037e57806355c10624146103c05780635a64ad95146103fb5780635aa6e6751461041c57600080fd5b8063238a4709116101ed578063238a4709146102d1578063384564e3146102f15780633f4ba83a146103115780634509017e146103265780634f64b2be1461035e57600080fd5b8063062e0d691461021f5780631aabc7e7146102515780631b9d69571461029a5780631e83409a146102b1575b600080fd5b34801561022b57600080fd5b50610234600081565b6040516001600160801b0390911681526020015b60405180910390f35b34801561025d57600080fd5b5061028161026c366004614d51565b60066020526000908152604090205460801b81565b6040516001600160801b03199091168152602001610248565b3480156102a657600080fd5b506102af61089d565b005b3480156102bd57600080fd5b506102af6102cc366004614af5565b610ed3565b3480156102dd57600080fd5b506102af6102ec366004614d51565b611318565b3480156102fd57600080fd5b506102af61030c366004614d51565b611414565b34801561031d57600080fd5b506102af611510565b34801561033257600080fd5b50601154610346906001600160a01b031681565b6040516001600160a01b039091168152602001610248565b34801561036a57600080fd5b50610346610379366004614d51565b611549565b34801561038a57600080fd5b5061039e610399366004614af5565b611569565b6040805182518152602080840151908201529181015190820152606001610248565b3480156103cc57600080fd5b506103ed6103db366004614af5565b600a6020526000908152604090205481565b604051908152602001610248565b34801561040757600080fd5b5060015461028190600160801b900460801b81565b34801561042857600080fd5b50600e54610346906001600160a01b031681565b34801561044857600080fd5b5060105461045d90600160a01b900460ff1681565b6040519015158152602001610248565b6102af61047b366004614cd7565b6118ac565b34801561048c57600080fd5b50610495611e51565b604051610248929190614f37565b3480156104af57600080fd5b506102af6104be366004614b6f565b611fc1565b3480156104cf57600080fd5b506102af6125db565b3480156104e457600080fd5b50610281668075782dace9d960c71b81565b34801561050257600080fd5b50610281613fff60f01b81565b34801561051b57600080fd5b506002546102819060801b81565b34801561053557600080fd5b506105ab610544366004614bd4565b60096020528160005260406000206020528060005260406000206000915091505080600001549080600101549080600201549080600301549080600401549080600501549080600601549080600701549080600801549080600901549080600a015490508b565b604080519b8c5260208c019a909a52988a01979097526060890195909552608088019390935260a087019190915260c086015260e085015261010084015261012083015261014082015261016001610248565b34801561060a57600080fd5b50600154610234906001600160801b031681565b34801561062a57600080fd5b506102af610639366004614af5565b612658565b34801561064a57600080fd5b50601054610346906001600160a01b031681565b34801561066a57600080fd5b5061069a610679366004614d51565b600560205260009081526040902054608081811b91600160801b9004901b82565b604051610248929190614e86565b3480156106b457600080fd5b506103ed6106c3366004614bd4565b612ca3565b3480156106d457600080fd5b50610234600181565b3480156106e957600080fd5b50600d54610346906001600160a01b031681565b34801561070957600080fd5b50600054610346906201000090046001600160a01b031681565b34801561072f57600080fd5b50610234612cd4565b34801561074457600080fd5b5060025461028190600160801b900460801b81565b34801561076557600080fd5b50600f54610346906001600160a01b031681565b34801561078557600080fd5b506107b5610794366004614af5565b60076020526000908152604090208054600182015460029092015490919083565b60408051938452602084019290925290820152606001610248565b3480156107dc57600080fd5b506102af6107eb366004614d51565b612ef4565b3480156107fc57600080fd5b506102af61080b366004614b36565b612fe9565b34801561081c57600080fd5b5061086861082b366004614d51565b6008602052600090815260409020805460018201546002830154600384015460048501546005860154600690960154949593949293919290919087565b604080519788526020880196909652948601939093526060850191909152608084015260a083015260c082015260e001610248565b600f546001600160a01b031633146108fc5760405162461bcd60e51b815260206004820152601c60248201527f6d73672e73656e646572206e6f74206c6576657261676564506f6f6c0000000060448201526064015b60405180910390fd5b601154600f54604051632781e7f160e21b81526001600160a01b039182166004820152911690639e079fc490602401600060405180830381600087803b15801561094557600080fd5b505af1158015610959573d6000803e3d6000fd5b5050601054600160a01b900460ff1615915061098990505760405162461bcd60e51b81526004016108f390614ed8565b600f5460408051637de93f9360e01b815290516001600160a01b03909216916001916000918491637de93f93916004808301926020929190829003018186803b1580156109d557600080fd5b505afa1580156109e9573d6000803e3d6000fd5b505050506040513d601f19601f82011682018060405250810190610a0d9190614d6a565b90506000836001600160a01b031663fd2c80ae6040518163ffffffff1660e01b815260040160206040518083038186803b158015610a4a57600080fd5b505afa158015610a5e573d6000803e3d6000fd5b505050506040513d601f19601f82011682018060405250810190610a829190614de7565b63ffffffff1690505b610a9b63ffffffff84168261507e565b610aa59083615025565b4210610c1a5760028054600180546001600160801b03908116600090815260066020818152604080842080546001600160801b03191697861697909717909655845490931682526008835290849020845160e08101865281548152938101549284019290925293810154928201929092526003820154606082015260048201546080820152600582015460a082015291015460c0820152610b4590613326565b60015460025460405160809190911b6001600160801b03191681526001600160801b03909116907f260463f9bbb6d40c58e9fc4e09a71c3f80fc18d818d6d9d5df86b2443722a59f9060200160405180910390a2600180546001600160801b0390811660009081526008602052604081208181558084018290556002810182905560038101829055600481018290556005810182905560060181905582548392610bf191849116614ffa565b92506101000a8154816001600160801b0302191690836001600160801b03160217905550610c1f565b610c31565b610c2a60018461503d565b9250610a8b565b600080856001600160a01b0316637bb98a686040518163ffffffff1660e01b8152600401604080518083038186803b158015610c6c57600080fd5b505afa158015610c80573d6000803e3d6000fd5b505050506040513d601f19601f82011682018060405250810190610ca49190614d83565b600354604080516318160ddd60e01b815290519395509193506000926001600160a01b03909116916318160ddd916004808301926020929190829003018186803b158015610cf157600080fd5b505afa158015610d05573d6000803e3d6000fd5b505050506040513d601f19601f82011682018060405250810190610d299190614d6a565b60048054604080516318160ddd60e01b815290519394506000936001600160a01b03909216926318160ddd928282019260209290829003018186803b158015610d7157600080fd5b505afa158015610d85573d6000803e3d6000fd5b505050506040513d601f19601f82011682018060405250810190610da99190614d6a565b604051635cf4ee9160e01b81526004810185905260248101849052909150610ec990732fB38A21cC1cE33a4a49c034893eaA5Fb3D0Dc7690635cf4ee919060440160206040518083038186803b158015610e0257600080fd5b505af4158015610e16573d6000803e3d6000fd5b505050506040513d601f19601f82011682018060405250810190610e3a9190614cad565b604051635cf4ee9160e01b81526004810187905260248101849052732fB38A21cC1cE33a4a49c034893eaA5Fb3D0Dc7690635cf4ee919060440160206040518083038186803b158015610e8c57600080fd5b505af4158015610ea0573d6000803e3d6000fd5b505050506040513d601f19601f82011682018060405250810190610ec49190614cad565b613cd5565b5050505050505050565b601054600160a01b900460ff1615610efd5760405162461bcd60e51b81526004016108f390614ed8565b80336001600160a01b0382161480610f2557506000546201000090046001600160a01b031633145b610f7f5760405162461bcd60e51b815260206004820152602560248201527f6d73672e73656e646572206e6f7420636f6d6d6974746572206f72204175746f604482015264436c61696d60d81b60648201526084016108f3565b610f8882612658565b336001600160a01b0383161480156110255750600054604051631107d3c960e31b81526001600160a01b038481166004830152306024830152620100009092049091169063883e9e489060440160206040518083038186803b158015610fed57600080fd5b505afa158015611001573d6000803e3d6000fd5b505050506040513d601f19601f820116820180604052508101906110259190614c90565b15611091576000546040516307119aeb60e01b81526001600160a01b03848116600483015262010000909204909116906307119aeb90602401600060405180830381600087803b15801561107857600080fd5b505af115801561108c573d6000803e3d6000fd5b505050505b6001600160a01b0380831660009081526007602090815260409182902082516060810184528154815260018201549281019290925260020154918101829052600f549092169015611146576040828101519051632c0bf86360e11b81526001600160a01b038681166004830152602482019290925290821690635817f0c690604401600060405180830381600087803b15801561112d57600080fd5b505af1158015611141573d6000803e3d6000fd5b505050505b8151156111bb57815160405163110b1bed60e01b8152600160048201526001600160a01b03868116602483015260448201929092529082169063110b1bed90606401600060405180830381600087803b1580156111a257600080fd5b505af11580156111b6573d6000803e3d6000fd5b505050505b60208201511561123657602082015160405163110b1bed60e01b8152600060048201526001600160a01b03868116602483015260448201929092529082169063110b1bed90606401600060405180830381600087803b15801561121d57600080fd5b505af1158015611231573d6000803e3d6000fd5b505050505b6001600160a01b03841660008181526007602052604080822082815560018101839055600201829055517f0c7ef932d3b91976772937f18d5ef9b39a9930bef486b576c374f047c4b512dc9190a25050601154600f54604051632781e7f160e21b81526001600160a01b03918216600482015291169150639e079fc4906024015b600060405180830381600087803b1580156112d157600080fd5b505af11580156112e5573d6000803e3d6000fd5b5050601054600160a01b900460ff1615915061131590505760405162461bcd60e51b81526004016108f390614ed8565b50565b600e546001600160a01b031633146113425760405162461bcd60e51b81526004016108f390614f00565b604051636fedf26d60e11b815260048101829052732fB38A21cC1cE33a4a49c034893eaA5Fb3D0Dc769063dfdbe4da9060240160206040518083038186803b15801561138d57600080fd5b505af41580156113a1573d6000803e3d6000fd5b505050506040513d601f19601f820116820180604052508101906113c59190614cad565b6001805460809290921c600160801b026001600160801b0390921691909117905560405181907f07aefbcc0d8cdf34e241279c78d93d1df9540b5a60d320437958df12ef59e46390600090a250565b600e546001600160a01b0316331461143e5760405162461bcd60e51b81526004016108f390614f00565b604051636fedf26d60e11b815260048101829052732fB38A21cC1cE33a4a49c034893eaA5Fb3D0Dc769063dfdbe4da9060240160206040518083038186803b15801561148957600080fd5b505af415801561149d573d6000803e3d6000fd5b505050506040513d601f19601f820116820180604052508101906114c19190614cad565b6002805460809290921c600160801b026001600160801b0390921691909117905560405181907f1f609e633399cb8530717d1970d31255fae2af322c2c3b90793cc1c1a7fe88be90600090a250565b600e546001600160a01b0316331461153a5760405162461bcd60e51b81526004016108f390614f00565b6010805460ff60a01b19169055565b6003816002811061155957600080fd5b01546001600160a01b0316905081565b61158d60405180606001604052806000815260200160008152602001600081525090565b6001600160a01b038216600081815260076020908152604080832081516060808201845282548252600180840154838701526002909301548285015283516101008101855292546001600160801b0316835282850186905282840186905282018590526080820185905260a0820185905260c0820185905260e08201859052948452600b8352818420805483518186028101860190945280845291949390919083018282801561165c57602002820191906000526020600020905b815481526020019060010190808311611648575b505083519394506000925050505b81811015611828576000838281518110611686576116866150fb565b602002602001015190508382815181106116a2576116a26150fb565b6020026020010151600014156116b85750611816565b6001600160a01b03881660009081526009602081815260408084208585528252928390208351610160810185528154815260018201549281019290925260028101549382018490526003810154606083015260048101546080830152600581015460a0830152600681015460c0830152600781015460e08301526008810154610100830152918201546101208201819052600a90920154610140820152916117609190615025565b866080018181516117719190615025565b90525060e081015160a08201516117889190615025565b8660a0018181516117999190615025565b9052506001546101408201516001600160801b0390911611156118135760008060006117c484614109565b945050509250925082896020018181516117de9190615025565b9052506040890180518391906117f5908390615025565b90525060608901805182919061180c908390615025565b9052505050505b50505b80611820816150b4565b91505061166a565b5060208301518451859061183d908390615025565b90525060808301518451859061185490839061509d565b905250604083015160208501805161186d908390615025565b90525060a083015160208501805161188690839061509d565b905250606083015160408501805161189f908390615025565b9052509295945050505050565b6118b533612658565b601054600160a01b900460ff16156118df5760405162461bcd60e51b81526004016108f390614ed8565b6000831161192f5760405162461bcd60e51b815260206004820152601760248201527f416d6f756e74206d757374206e6f74206265207a65726f00000000000000000060448201526064016108f3565b600f5460408051637e96405760e11b815290516001600160a01b0390921691600091839163fd2c80ae91600480820192602092909190829003018186803b15801561197957600080fd5b505afa15801561198d573d6000803e3d6000fd5b505050506040513d601f19601f820116820180604052508101906119b19190614de7565b63ffffffff1690506000826001600160a01b0316637de93f936040518163ffffffff1660e01b815260040160206040518083038186803b1580156119f457600080fd5b505afa158015611a08573d6000803e3d6000fd5b505050506040513d601f19601f82011682018060405250810190611a2c9190614d6a565b90506000836001600160a01b0316637bfe789a6040518163ffffffff1660e01b815260040160206040518083038186803b158015611a6957600080fd5b505afa158015611a7d573d6000803e3d6000fd5b505050506040513d601f19601f82011682018060405250810190611aa19190614de7565b63ffffffff1690508415611b1457600054604051634da17a3f60e11b8152336004820152620100009091046001600160a01b031690639b42f47e9034906024016000604051808303818588803b158015611afa57600080fd5b505af1158015611b0e573d6000803e3d6000fd5b50505050505b60015460405160016265017960e01b031981524260048201526024810184905260448101839052606481018590526001600160801b039091166084820152600090732fB38A21cC1cE33a4a49c034893eaA5Fb3D0Dc769063ff9afe879060a40160206040518083038186803b158015611b8c57600080fd5b505af4158015611ba0573d6000803e3d6000fd5b505050506040513d601f19601f82011682018060405250810190611bc49190614d6a565b600081815260086020908152604080832033808552600984528285208686528452828520600a8101879055908552600b9093529220549293509091801580611c405750336000908152600b602052604090208490611c2360018461509d565b81548110611c3357611c336150fb565b9060005260206000200154105b15611c6857336000908152600b60209081526040822080546001810182559083529120018490555b60028c6005811115611c7c57611c7c6150e5565b1480611c99575060008c6005811115611c9757611c976150e5565b145b15611d3c5789611d1457600f546040516307b0a0c960e41b81523360048201526001600160a01b039182166024820152604481018d905290891690637b0a0c9090606401600060405180830381600087803b158015611cf757600080fd5b505af1158015611d0b573d6000803e3d6000fd5b50505050611d3c565b33600090815260076020526040812060020180548d9290611d3690849061509d565b90915550505b611d4a888d8d8d8688614265565b8b6005811115611d5c57611d5c6150e5565b60015460408051878152600160801b90920460801b6001600160801b03191660208301528d9133917fadb6072b15e8f4abb5938eb4eac8c89d1c598744a3e533c9546953eac663e859910160405180910390a45050601154600f54604051632781e7f160e21b81526001600160a01b039283169850639e079fc49750611ded9650911693506004019150614e519050565b600060405180830381600087803b158015611e0757600080fd5b505af1158015611e1b573d6000803e3d6000fd5b5050601054600160a01b900460ff16159150611e4b90505760405162461bcd60e51b81526004016108f390614ed8565b50505050565b611e916040518060e00160405280600081526020016000815260200160008152602001600081526020016000815260200160008152602001600081525090565b611ed16040518060e00160405280600081526020016000815260200160008152602001600081526020016000815260200160008152602001600081525090565b600180546001600160801b031660008181526008602081905260408220939092611efa91614ffa565b6001600160801b03168152602001908152602001600020816040518060e00160405290816000820154815260200160018201548152602001600282015481526020016003820154815260200160048201548152602001600582015481526020016006820154815250509150806040518060e00160405290816000820154815260200160018201548152602001600282015481526020016003820154815260200160048201548152602001600582015481526020016006820154815250509050915091509091565b600054610100900460ff1680611fda575060005460ff16155b61203d5760405162461bcd60e51b815260206004820152602e60248201527f496e697469616c697a61626c653a20636f6e747261637420697320616c72656160448201526d191e481a5b9a5d1a585b1a5e995960921b60648201526084016108f3565b600054610100900460ff1615801561205f576000805461ffff19166101011790555b6001600160a01b0387166120c15760405162461bcd60e51b815260206004820152602360248201527f466163746f727920616464726573732063616e6e6f742062652030206164647260448201526265737360e81b60648201526084016108f3565b6001600160a01b03861661212a5760405162461bcd60e51b815260206004820152602a60248201527f496e76617269616e74436865636b20616464726573732063616e6e6f742062656044820152692030206164647265737360b01b60648201526084016108f3565b6001600160a01b0385166121805760405162461bcd60e51b815260206004820181905260248201527f4175746f436c61696d20616464726573732063616e6e6f74206265206e756c6c60448201526064016108f3565b670de0b6b3a764000084106121cd5760405162461bcd60e51b81526020600482015260136024820152724d696e74696e6720666565203e3d203130302560681b60448201526064016108f3565b670de0b6b3a7640000831061221a5760405162461bcd60e51b81526020600482015260136024820152724275726e696e6720666565203e3d203130302560681b60448201526064016108f3565b600180546001600160801b03191681179055600d80546001600160a01b0319166001600160a01b038916179055604051636fedf26d60e11b815260048101859052732fB38A21cC1cE33a4a49c034893eaA5Fb3D0Dc769063dfdbe4da9060240160206040518083038186803b15801561229257600080fd5b505af41580156122a6573d6000803e3d6000fd5b505050506040513d601f19601f820116820180604052508101906122ca9190614cad565b6001805460809290921c600160801b026001600160801b03909216919091179055604051636fedf26d60e11b815260048101849052732fB38A21cC1cE33a4a49c034893eaA5Fb3D0Dc769063dfdbe4da9060240160206040518083038186803b15801561233657600080fd5b505af415801561234a573d6000803e3d6000fd5b505050506040513d601f19601f8201168201806040525081019061236e9190614cad565b600280546001600160801b03191660809290921c919091179055604051636fedf26d60e11b815260048101839052732fB38A21cC1cE33a4a49c034893eaA5Fb3D0Dc769063dfdbe4da9060240160206040518083038186803b1580156123d357600080fd5b505af41580156123e7573d6000803e3d6000fd5b505050506040513d601f19601f8201168201806040525081019061240b9190614cad565b6002805460809290921c600160801b026001600160801b0390921691909117905560405182907f1f609e633399cb8530717d1970d31255fae2af322c2c3b90793cc1c1a7fe88be90600090a284600060026101000a8154816001600160a01b0302191690836001600160a01b03160217905550866001600160a01b031663893d20e86040518163ffffffff1660e01b8152600401602060405180830381600087803b1580156124b957600080fd5b505af11580156124cd573d6000803e3d6000fd5b505050506040513d601f19601f820116820180604052508101906124f19190614b19565b600e80546001600160a01b039283166001600160a01b03199182161790915560108054898416908316811790915560118054909216179055600d5460408051631127a41d60e31b81529051919092169163893d20e89160048083019260209291908290030181600087803b15801561256857600080fd5b505af115801561257c573d6000803e3d6000fd5b505050506040513d601f19601f820116820180604052508101906125a09190614b19565b600e80546001600160a01b0319166001600160a01b039290921691909117905580156125d2576000805461ff00191690555b50505050505050565b6010546001600160a01b031633146126435760405162461bcd60e51b815260206004820152602560248201527f6d73672e73656e646572206e6f7420696e76617269616e74436865636b436f6e6044820152641d1c9858dd60da1b60648201526084016108f3565b6010805460ff60a01b1916600160a01b179055565b601054600160a01b900460ff16156126825760405162461bcd60e51b81526004016108f390614ed8565b6001600160a01b03811660008181526007602090815260408083208151610100810183526001546001600160801b03168152808401859052808301859052606081018590526080810185905260a0810185905260c0810185905260e08101859052948452600b835281842080548351818602810186019094528084529195949390919083018282801561273457602002820191906000526020600020905b815481526020019060010190808311612720575b505083519394506000925050505b81811015612a4057600083828151811061275e5761275e6150fb565b6020026020010151905083828151811061277a5761277a6150fb565b6020026020010151600014156127905750612a2e565b6001600160a01b03871660009081526009602081815260408084208585528252928390208351610160810185528154815260018201549281019290925260028101549382018490526003810154606083015260048101546080830152600581015460a0830152600681015460c0830152600781015460e08301526008810154610100830152918201546101208201819052600a90920154610140820152916128389190615025565b866080018181516128499190615025565b90525060e081015160a08201516128609190615025565b8660a0018181516128719190615025565b9052506001546101408201516001600160801b0390911611156129b957600080600080600061289f86614109565b94509450945094509450848b6020018181516128bb9190615025565b90525060408b0180518591906128d2908390615025565b90525060608b0180518291906128e9908390615025565b90525060c08b018051849190612900908390615025565b90525060e08b018051839190612917908390615025565b9052506001600160a01b038d1660008181526009602081815260408084208d855282528084208481556001810185905560028101859055600381018590556004810185905560058101859055600681018590556007810185905560088101859055928301849055600a909201839055928252600b909252208054899081106129a1576129a16150fb565b90600052602060002001600090555050505050612a2b565b6001600160a01b038816600090815260096020818152604080842086855290915282206002810183905560058101839055908101829055600701558451600c90869085908110612a0b57612a0b6150fb565b602090810291909101810151825460018101845560009384529190922001555b50505b80612a38816150b4565b915050612742565b506001600160a01b0385166000908152600b60205260408120612a6291614a1a565b6001600160a01b0385166000908152600b60205260409020600c8054612a89929190614a38565b50612a96600c6000614a1a565b8260200151846000016000828254612aae9190615025565b9091555050608083015184548590600090612aca90849061509d565b90915550506040830151600185018054600090612ae8908490615025565b909155505060a0830151600185018054600090612b0690849061509d565b90915550506060830151600285018054600090612b24908490615025565b9091555050600f5460408051630f77314d60e31b815281516001600160a01b039093169260009283928592637bb98a6892600480840193919291829003018186803b158015612b7257600080fd5b505afa158015612b86573d6000803e3d6000fd5b505050506040513d601f19601f82011682018060405250810190612baa9190614d83565b91509150826001600160a01b0316633c3f82528760c0015183612bcd9190615025565b60e0890151612bdc9086615025565b6040516001600160e01b031960e085901b16815260048101929092526024820152604401600060405180830381600087803b158015612c1a57600080fd5b505af1158015612c2e573d6000803e3d6000fd5b50506040516001600160a01b038b1692507fdefa4140341b4fd283af41700779361dc94f34ae245a186b3b9c187033c065549150600090a25050601154600f54604051632781e7f160e21b81526001600160a01b03918216600482015291169550639e079fc4945060240192506112b7915050565b600b6020528160005260406000208181548110612cbf57600080fd5b90600052602060002001600091509150505481565b600f5460408051637de93f9360e01b815290516000926001600160a01b031691732fB38A21cC1cE33a4a49c034893eaA5Fb3D0Dc769163ff9afe879142918591637de93f93916004808301926020929190829003018186803b158015612d3957600080fd5b505afa158015612d4d573d6000803e3d6000fd5b505050506040513d601f19601f82011682018060405250810190612d719190614d6a565b846001600160a01b0316637bfe789a6040518163ffffffff1660e01b815260040160206040518083038186803b158015612daa57600080fd5b505afa158015612dbe573d6000803e3d6000fd5b505050506040513d601f19601f82011682018060405250810190612de29190614de7565b856001600160a01b031663fd2c80ae6040518163ffffffff1660e01b815260040160206040518083038186803b158015612e1b57600080fd5b505afa158015612e2f573d6000803e3d6000fd5b505050506040513d601f19601f82011682018060405250810190612e539190614de7565b60015460405160e087901b6001600160e01b03191681526004810195909552602485019390935263ffffffff91821660448501521660648301526001600160801b0316608482015260a40160206040518083038186803b158015612eb657600080fd5b505af4158015612eca573d6000803e3d6000fd5b505050506040513d601f19601f82011682018060405250810190612eee9190614d6a565b91505090565b600e546001600160a01b03163314612f1e5760405162461bcd60e51b81526004016108f390614f00565b604051636fedf26d60e11b815260048101829052732fB38A21cC1cE33a4a49c034893eaA5Fb3D0Dc769063dfdbe4da9060240160206040518083038186803b158015612f6957600080fd5b505af4158015612f7d573d6000803e3d6000fd5b505050506040513d601f19601f82011682018060405250810190612fa19190614cad565b600280546001600160801b03191660809290921c91909117905560405181907f9bd544d4dd4e5359b6126812d7f52828638adf3d7beab61310fab58b27d811cc90600090a250565b600d546001600160a01b0316331461303c5760405162461bcd60e51b8152602060048201526016602482015275436f6d6d69747465723a206e6f7420666163746f727960501b60448201526064016108f3565b601054600160a01b900460ff16156130665760405162461bcd60e51b81526004016108f390614ed8565b6001600160a01b0382166130cc5760405162461bcd60e51b815260206004820152602760248201527f51756f746520746f6b656e20616464726573732063616e6e6f742062652030206044820152666164647265737360c81b60648201526084016108f3565b6001600160a01b0381166131355760405162461bcd60e51b815260206004820152602a60248201527f4c657665726167656420706f6f6c20616464726573732063616e6e6f742062656044820152692030206164647265737360b01b60648201526084016108f3565b600f80546001600160a01b0319166001600160a01b03838116918217909255604080516318160ddd60e01b8152905185936000939085169263095ea7b39284916318160ddd916004808301926020929190829003018186803b15801561319a57600080fd5b505afa1580156131ae573d6000803e3d6000fd5b505050506040513d601f19601f820116820180604052508101906131d29190614d6a565b6040516001600160e01b031960e085901b1681526001600160a01b0390921660048301526024820152604401602060405180830381600087803b15801561321857600080fd5b505af115801561322c573d6000803e3d6000fd5b505050506040513d601f19601f820116820180604052508101906132509190614c90565b9050806132975760405162461bcd60e51b8152602060048201526015602482015274115490cc8c08185c1c1c9bdd985b0819985a5b1959605a1b60448201526064016108f3565b600f546040805163369f189f60e11b815281516001600160a01b0390931692636d3e313e92600480840193919291829003018186803b1580156132d957600080fd5b505afa1580156132ed573d6000803e3d6000fd5b505050506040513d601f19601f820116820180604052508101906133119190614c00565b61331f906003906002614a88565b5050505050565b600f546040805160808101808352631751aa8d60e31b905290516001600160a01b0390921691600091908190849063ba8d546890608480850191602091818703018186803b15801561337757600080fd5b505afa15801561338b573d6000803e3d6000fd5b505050506040513d601f19601f820116820180604052508101906133af9190614d6a565b8152602001836001600160a01b0316637e71fc7d6040518163ffffffff1660e01b815260040160206040518083038186803b1580156133ed57600080fd5b505afa158015613401573d6000803e3d6000fd5b505050506040513d601f19601f820116820180604052508101906134259190614d6a565b8152600354604080516318160ddd60e01b815290516020938401936001600160a01b03909316926318160ddd9260048082019391829003018186803b15801561346d57600080fd5b505afa158015613481573d6000803e3d6000fd5b505050506040513d601f19601f820116820180604052508101906134a59190614d6a565b8152602001600360010160009054906101000a90046001600160a01b03166001600160a01b03166318160ddd6040518163ffffffff1660e01b815260040160206040518083038186803b1580156134fb57600080fd5b505afa15801561350f573d6000803e3d6000fd5b505050506040513d601f19601f820116820180604052508101906135339190614d6a565b815250905060008360a00151846020015161354e9190615025565b90506000846080015185606001516135669190615025565b90506040518060400160405280732fB38A21cC1cE33a4a49c034893eaA5Fb3D0Dc76635cf4ee9186602001518688604001516135a29190615025565b6040516001600160e01b031960e085901b1681526004810192909252602482015260440160206040518083038186803b1580156135de57600080fd5b505af41580156135f2573d6000803e3d6000fd5b505050506040513d601f19601f820116820180604052508101906136169190614cad565b6001600160801b0319168152602001732fB38A21cC1cE33a4a49c034893eaA5Fb3D0Dc76635cf4ee9186600001518588606001516136549190615025565b6040516001600160e01b031960e085901b1681526004810192909252602482015260440160206040518083038186803b15801561369057600080fd5b505af41580156136a4573d6000803e3d6000fd5b505050506040513d601f19601f820116820180604052508101906136c89190614cad565b6001600160801b03191690526001546001600160801b03166000908152600560209081526040808320845194830151608090811c600160801b0295901c949094179093558583015160a089015191870151935163debb52df60e01b81529293732fB38A21cC1cE33a4a49c034893eaA5Fb3D0Dc769363debb52df9361376a93929091899060040193845260208401929092526040830152606082015260800190565b60206040518083038186803b15801561378257600080fd5b505af4158015613796573d6000803e3d6000fd5b505050506040513d601f19601f820116820180604052508101906137ba9190614d6a565b60608501516080880151865160405163debb52df60e01b815260048101939093526024830191909152604482015260648101849052909150600090732fB38A21cC1cE33a4a49c034893eaA5Fb3D0Dc769063debb52df9060840160206040518083038186803b15801561382c57600080fd5b505af4158015613840573d6000803e3d6000fd5b505050506040513d601f19601f820116820180604052508101906138649190614d6a565b90506000732fB38A21cC1cE33a4a49c034893eaA5Fb3D0Dc7663ab41556f8760400151848b600001516138979190615025565b60208a01516040516001600160e01b031960e086901b1681526004810193909352602483019190915260448201526064810188905260840160206040518083038186803b1580156138e757600080fd5b505af41580156138fb573d6000803e3d6000fd5b505050506040513d601f19601f8201168201806040525081019061391f9190614d6a565b9050801561399057600f54604051636a55bbd760e11b81526001600160a01b03808a169263d4ab77ae9261395d926001928792911690600401614e65565b600060405180830381600087803b15801561397757600080fd5b505af115801561398b573d6000803e3d6000fd5b505050505b6040808701516020880151915163debb52df60e01b8152600092732fB38A21cC1cE33a4a49c034893eaA5Fb3D0Dc769263debb52df926139ec928b91829060040193845260208401929092526040830152606082015260800190565b60206040518083038186803b158015613a0457600080fd5b505af4158015613a18573d6000803e3d6000fd5b505050506040513d601f19601f82011682018060405250810190613a3c9190614d6a565b90506000732fB38A21cC1cE33a4a49c034893eaA5Fb3D0Dc7663ab41556f8960600151878d60400151613a6f9190615025565b8b5160405160e085901b6001600160e01b03191681526004810193909352602483019190915260448201526064810189905260840160206040518083038186803b158015613abc57600080fd5b505af4158015613ad0573d6000803e3d6000fd5b505050506040513d601f19601f82011682018060405250810190613af49190614d6a565b90508015613b6557600f54604051636a55bbd760e11b81526001600160a01b03808c169263d4ab77ae92613b32926000928792911690600401614e65565b600060405180830381600087803b158015613b4c57600080fd5b505af1158015613b60573d6000803e3d6000fd5b505050505b6060880151885160405163debb52df60e01b8152600481019290925260248201889052604482015260648101879052600090732fB38A21cC1cE33a4a49c034893eaA5Fb3D0Dc769063debb52df9060840160206040518083038186803b158015613bce57600080fd5b505af4158015613be2573d6000803e3d6000fd5b505050506040513d601f19601f82011682018060405250810190613c069190614d6a565b9050600085848d600001518c60200151613c209190615025565b613c2a919061509d565b613c349190615025565b9050600087838e604001518d60000151613c4e9190615025565b613c58919061509d565b613c629190615025565b604051631e1fc12960e11b815260048101849052602481018290529091506001600160a01b038d1690633c3f825290604401600060405180830381600087803b158015613cae57600080fd5b505af1158015613cc2573d6000803e3d6000fd5b5050505050505050505050505050505050565b6040516345e7ef9b60e01b8152600090732fB38A21cC1cE33a4a49c034893eaA5Fb3D0Dc76906345e7ef9b90613d119086908690600401614e86565b60206040518083038186803b158015613d2957600080fd5b505af4158015613d3d573d6000803e3d6000fd5b505050506040513d601f19601f82011682018060405250810190613d619190614cad565b604051630308593b60e31b8152909150732fB38A21cC1cE33a4a49c034893eaA5Fb3D0Dc7690631842c9d890613da290613fff60f01b908590600401614e86565b60206040518083038186803b158015613dba57600080fd5b505af4158015613dce573d6000803e3d6000fd5b505050506040513d601f19601f82011682018060405250810190613df29190614d2e565b60000b6000191415613f8557600154600254604051630308593b60e31b8152732fB38A21cC1cE33a4a49c034893eaA5Fb3D0Dc7692631842c9d892613e4f92600160801b92839004608090811b9390920490911b90600401614e86565b60206040518083038186803b158015613e6757600080fd5b505af4158015613e7b573d6000803e3d6000fd5b505050506040513d601f19601f82011682018060405250810190613e9f9190614d2e565b60000b6000191415613ebf57600180546001600160801b03169055505050565b600154600254604051630e8418dd60e01b8152732fB38A21cC1cE33a4a49c034893eaA5Fb3D0Dc7692630e8418dd92613f1092600160801b92839004608090811b9390920490911b90600401614e86565b60206040518083038186803b158015613f2857600080fd5b505af4158015613f3c573d6000803e3d6000fd5b505050506040513d601f19601f82011682018060405250810190613f609190614cad565b600160106101000a8154816001600160801b03021916908360801c0217905550505050565b600154600254604051635b597cfb60e11b8152732fB38A21cC1cE33a4a49c034893eaA5Fb3D0Dc769263b6b2f9f692613fd692600160801b92839004608090811b9390920490911b90600401614e86565b60206040518083038186803b158015613fee57600080fd5b505af4158015614002573d6000803e3d6000fd5b505050506040513d601f19601f820116820180604052508101906140269190614cad565b600180546001600160801b0316600160801b608093841c81029190911791829055604051630308593b60e31b8152732fB38A21cC1cE33a4a49c034893eaA5Fb3D0Dc7693631842c9d89361408d939004901b90668075782dace9d960c71b90600401614e86565b60206040518083038186803b1580156140a557600080fd5b505af41580156140b9573d6000803e3d6000fd5b505050506040513d601f19601f820116820180604052508101906140dd9190614d2e565b60000b6001141561410457600180546001600160801b0316668075782dace9d960c71b1790555b505050565b60408051610160810182526101408084018051600090815260056020818152868320546001600160801b0319608091821b811688528551855292825287842054600160801b9004811b8316828801526001546001600160801b0316878901528451606080890191909152895182890152828a015160a089015289015160c080890191909152818a015160e0890152610100808b01519089015289015161012088015293518352600690528582205490921b909116918301919091529151639eb17fa360e01b81528291829182918291732fB38A21cC1cE33a4a49c034893eaA5Fb3D0Dc7690639eb17fa390614202908490600401614f53565b60a06040518083038186803b15801561421a57600080fd5b505af415801561422e573d6000803e3d6000fd5b505050506040513d601f19601f820116820180604052508101906142529190614da7565b939b929a50909850965090945092505050565b336000908152600760209081526040808320815160608101835281548152600182015493810193909352600290810154918301919091529091908760058111156142b1576142b16150e5565b14806142ce575060008760058111156142cc576142cc6150e5565b145b156144165760015460405163422051e760e01b8152600160801b90910460801b6001600160801b031916600482015260248101879052670de0b6b3a764000090732fB38A21cC1cE33a4a49c034893eaA5Fb3D0Dc769063aeb64d7d90829063422051e79060440160206040518083038186803b15801561434d57600080fd5b505af4158015614361573d6000803e3d6000fd5b505050506040513d601f19601f820116820180604052508101906143859190614cad565b6040516001600160e01b031960e084901b1681526001600160801b0319909116600482015260240160206040518083038186803b1580156143c557600080fd5b505af41580156143d9573d6000803e3d6000fd5b505050506040513d601f19601f820116820180604052508101906143fd9190614d6a565b614407919061505c565b9050614413818761509d565b95505b600287600581111561442a5761442a6150e5565b141561455257600080896001600160a01b0316637bb98a686040518163ffffffff1660e01b8152600401604080518083038186803b15801561446b57600080fd5b505afa15801561447f573d6000803e3d6000fd5b505050506040513d601f19601f820116820180604052508101906144a39190614d83565b91509150878660000160008282546144bb9190615025565b90915550508454889086906000906144d4908490615025565b90915550506001600160a01b038a16633c3f82526144f28584615025565b846040518363ffffffff1660e01b8152600401614519929190918252602082015260400190565b600060405180830381600087803b15801561453357600080fd5b505af1158015614547573d6000803e3d6000fd5b505050505050610ec9565b6003876005811115614566576145666150e5565b141561468257858460010160008282546145809190615025565b925050819055508583600101600082825461459b9190615025565b9091555050841561465157858460020160008282546145ba9190615025565b90915550508151600285015411156145e45760405162461bcd60e51b81526004016108f390614ea1565b600f546040516367f24f5d60e11b81526001600160a01b03808b169263cfe49eba9261461a926001928c92911690600401614e65565b600060405180830381600087803b15801561463457600080fd5b505af1158015614648573d6000803e3d6000fd5b50505050610ec9565b6040516367f24f5d60e11b81526001600160a01b0389169063cfe49eba9061461a906001908a903390600401614e65565b6000876005811115614696576146966150e5565b141561478a57600080896001600160a01b0316637bb98a686040518163ffffffff1660e01b8152600401604080518083038186803b1580156146d757600080fd5b505afa1580156146eb573d6000803e3d6000fd5b505050506040513d601f19601f8201168201806040525081019061470f9190614d83565b91509150878660030160008282546147279190615025565b92505081905550878560020160008282546147429190615025565b90915550506001600160a01b038a16633c3f8252826147618686615025565b6040516001600160e01b031960e085901b16815260048101929092526024820152604401614519565b600187600581111561479e5761479e6150e5565b141561488657858460040160008282546147b89190615025565b92505081905550858360030160008282546147d39190615025565b9091555050841561485557858460050160008282546147f29190615025565b909155505060208201516005850154111561481f5760405162461bcd60e51b81526004016108f390614ea1565b600f546040516367f24f5d60e11b81526001600160a01b03808b169263cfe49eba9261461a926000928c92911690600401614e65565b6040516367f24f5d60e11b81526001600160a01b0389169063cfe49eba9061461a906000908a903390600401614e65565b600487600581111561489a5761489a6150e5565b141561491857858460080160008282546148b49190615025565b92505081905550858360050160008282546148cf9190615025565b9091555050841561465157858460090160008282546148ee9190615025565b90915550508151600985015411156145e45760405162461bcd60e51b81526004016108f390614ea1565b600587600581111561492c5761492c6150e5565b1415610ec957858460060160008282546149469190615025565b92505081905550858360040160008282546149619190615025565b909155505084156149ad57858460070160008282546149809190615025565b909155505060208201516007850154111561481f5760405162461bcd60e51b81526004016108f390614ea1565b6040516367f24f5d60e11b81526001600160a01b0389169063cfe49eba906149de906000908a903390600401614e65565b600060405180830381600087803b1580156149f857600080fd5b505af1158015614a0c573d6000803e3d6000fd5b505050505050505050505050565b50805460008255906000526020600020908101906113159190614ad0565b828054828255906000526020600020908101928215614a785760005260206000209182015b82811115614a78578254825591600101919060010190614a5d565b50614a84929150614ad0565b5090565b8260028101928215614a78579160200282015b82811115614a7857825182546001600160a01b0319166001600160a01b03909116178255602090920191600190910190614a9b565b5b80821115614a845760008155600101614ad1565b8051614af081615127565b919050565b600060208284031215614b0757600080fd5b8135614b1281615127565b9392505050565b600060208284031215614b2b57600080fd5b8151614b1281615127565b60008060408385031215614b4957600080fd5b8235614b5481615127565b91506020830135614b6481615127565b809150509250929050565b60008060008060008060c08789031215614b8857600080fd5b8635614b9381615127565b95506020870135614ba381615127565b94506040870135614bb381615127565b959894975094956060810135955060808101359460a0909101359350915050565b60008060408385031215614be757600080fd5b8235614bf281615127565b946020939093013593505050565b600060408284031215614c1257600080fd5b82601f830112614c2157600080fd5b6040516040810181811067ffffffffffffffff82111715614c4457614c44615111565b8060405250808385604086011115614c5b57600080fd5b60005b6002811015614c8557614c7082614ae5565b83526020928301929190910190600101614c5e565b509195945050505050565b600060208284031215614ca257600080fd5b8151614b128161513c565b600060208284031215614cbf57600080fd5b81516001600160801b031981168114614b1257600080fd5b60008060008060808587031215614ced57600080fd5b843560068110614cfc57600080fd5b9350602085013592506040850135614d138161513c565b91506060850135614d238161513c565b939692955090935050565b600060208284031215614d4057600080fd5b81518060000b8114614b1257600080fd5b600060208284031215614d6357600080fd5b5035919050565b600060208284031215614d7c57600080fd5b5051919050565b60008060408385031215614d9657600080fd5b505080516020909101519092909150565b600080600080600060a08688031215614dbf57600080fd5b5050835160208501516040860151606087015160809097015192989197509594509092509050565b600060208284031215614df957600080fd5b815163ffffffff81168114614b1257600080fd5b805182526020810151602083015260408101516040830152606081015160608301526080810151608083015260a081015160a083015260c081015160c08301525050565b6001600160a01b0391909116815260200190565b921515835260208301919091526001600160a01b0316604082015260600190565b6001600160801b031992831681529116602082015260400190565b60208082526018908201527f496e73756666696369656e7420706f6f6c20746f6b656e730000000000000000604082015260600190565b6020808252600e908201526d141bdbdb081a5cc81c185d5cd95960921b604082015260600190565b60208082526019908201527f6d73672e73656e646572206e6f7420676f7665726e616e636500000000000000604082015260600190565b6101c08101614f468285614e0d565b614b1260e0830184614e0d565b81516001600160801b031916815261016081016020830151614f8160208401826001600160801b0319169052565b5060408301516040830152606083015160608301526080830151608083015260a083015160a083015260c083015160c083015260e083015160e083015261010080840151818401525061012080840151818401525061014080840151614ff2828501826001600160801b0319169052565b505092915050565b60006001600160801b0380831681851680830382111561501c5761501c6150cf565b01949350505050565b60008219821115615038576150386150cf565b500190565b600063ffffffff80831681851680830382111561501c5761501c6150cf565b60008261507957634e487b7160e01b600052601260045260246000fd5b500490565b6000816000190483118215151615615098576150986150cf565b500290565b6000828210156150af576150af6150cf565b500390565b60006000198214156150c8576150c86150cf565b5060010190565b634e487b7160e01b600052601160045260246000fd5b634e487b7160e01b600052602160045260246000fd5b634e487b7160e01b600052603260045260246000fd5b634e487b7160e01b600052604160045260246000fd5b6001600160a01b038116811461131557600080fd5b801515811461131557600080fdfea26469706673582212205646ebb41c6c0aaa8d83237bb4493daa3dd26a27aadf193005332f69a6a5603264736f6c63430008070033",
  "libraries": {
    "PoolSwapLibrary": "0x2fB38A21cC1cE33a4a49c034893eaA5Fb3D0Dc76"
  },
  "devdoc": {
    "kind": "dev",
    "methods": {
      "deployPool((string,uint32,uint32,uint16,address,address,address,address))": {
        "details": "Throws if pool keeper is nullThrows if deployer does not own the oracle wrapperThrows if leverage amount is invalidThrows if decimal precision is too high (i.e., greater than `MAX_DECIMALS`)",
        "params": {
          "deploymentParameters": "Deployment parameters of the market. Some may be reconfigurable."
        },
        "returns": {
          "_0": "Address of the created pool"
        }
      },
      "owner()": {
        "details": "Returns the address of the current owner."
      },
      "renounceOwnership()": {
        "details": "Leaves the contract without owner. It will not be possible to call `onlyOwner` functions anymore. Can only be called by the current owner. NOTE: Renouncing ownership will leave the contract without an owner, thereby removing any functionality that is only available to the owner."
      },
      "setAutoClaim(address)": {
        "details": "Throws if provided address is nullOnly callable by the owner",
        "params": {
          "_autoClaim": "Address of the `AutoClaim`"
        }
      },
      "setFee(uint256)": {
        "details": "This is a percentage in WAD; multiplied by 10^18 e.g. 5% is 0.05 * 10^18Throws if fee is greater than 10%",
        "params": {
          "_fee": "The fee amount as a percentage"
        }
      },
      "setFeeReceiver(address)": {
        "details": "Only callable by the owner of this contractThis fuction does not change anything for already deployed pools, only pools deployed after the change",
        "params": {
          "_feeReceiver": "address of fee receiver"
        }
      },
      "setMaxLeverage(uint16)": {
        "details": "Throws if provided maximum leverage is non-positiveOnly callable by the owner",
        "params": {
          "newMaxLeverage": "Maximum leverage permitted for all pools"
        }
      },
      "setMintAndBurnFeeAndChangeInterval(uint256,uint256,uint256)": {
        "details": "This is a percentage in WAD; multiplied by 10^18 e.g. 5% is 0.05 * 10^18Only callable by the owner of this contractThrows if minting fee is greater than 10%Throws if burning fee is greater than 10%",
        "params": {
          "_burningFee": "The fee amount for burns",
          "_changeInterval": "The interval at which the mintingFee in a market either increases or decreases, as per the logic in `PoolCommitter::updateMintingFee`",
          "_mintingFee": "The fee amount for mints"
        }
      },
      "setPoolKeeper(address)": {
        "details": "Throws if provided address is nullOnly callable by the owner",
        "params": {
          "_poolKeeper": "Address of the `PoolKeeper`"
        }
      },
      "setSecondaryFeeSplitPercent(uint256)": {
        "details": "Only callable by the owner of this contractThrows if `newFeePercent` exceeds 100",
        "params": {
          "newFeePercent": "Proportion of fees to split"
        }
      },
      "transferOwnership(address)": {
        "details": "Transfers ownership of the contract to a new account (`newOwner`). Can only be called by the current owner."
      }
    },
    "title": "The pool factory contract",
    "version": 1
  },
  "userdoc": {
    "events": {
      "DeployPool(address,address,string)": {
        "notice": "Creates a notification when a pool is deployed"
      },
      "PoolKeeperChanged(address)": {
        "notice": "Creates a notification when the pool keeper changes"
      }
    },
    "kind": "user",
    "methods": {
      "deployPool((string,uint32,uint32,uint16,address,address,address,address))": {
        "notice": "Deploy a leveraged pool and its committer/pool tokens with given parameters"
      },
      "isValidPool(address)": {
        "notice": "Format: Pool address => validity"
      },
      "isValidPoolCommitter(address)": {
        "notice": "Format: PoolCommitter address => validity"
      },
      "pools(uint256)": {
        "notice": "Format: Pool counter => pool address"
      },
      "setAutoClaim(address)": {
        "notice": "Sets the address of the associated `AutoClaim` contract"
      },
      "setFee(uint256)": {
        "notice": "Set the yearly fee amount. The max yearly fee is 10%"
      },
      "setFeeReceiver(address)": {
        "notice": "Sets the primary fee receiver of deployed Leveraged pools."
      },
      "setMaxLeverage(uint16)": {
        "notice": "Sets the maximum leverage"
      },
      "setMintAndBurnFeeAndChangeInterval(uint256,uint256,uint256)": {
        "notice": "Set the minting and burning fee amount. The max yearly fee is 10%"
      },
      "setPoolKeeper(address)": {
        "notice": "Sets the address of the associated `PoolKeeper` contract"
      },
      "setSecondaryFeeSplitPercent(uint256)": {
        "notice": "Sets the proportion of fees to be split to the nominated secondary fees recipient"
      }
    },
    "version": 1
  },
  "storageLayout": {
    "storage": [
      {
        "astId": 110,
        "contract": "contracts/implementation/PoolFactory.sol:PoolFactory",
        "label": "_owner",
        "offset": 0,
        "slot": "0",
        "type": "t_address"
      },
      {
        "astId": 11827,
        "contract": "contracts/implementation/PoolFactory.sol:PoolFactory",
        "label": "pairTokenBase",
        "offset": 0,
        "slot": "1",
        "type": "t_contract(PoolToken)14384"
      },
      {
        "astId": 11832,
        "contract": "contracts/implementation/PoolFactory.sol:PoolFactory",
        "label": "poolBase",
        "offset": 0,
        "slot": "2",
        "type": "t_contract(LeveragedPool)9566"
      },
      {
        "astId": 11837,
        "contract": "contracts/implementation/PoolFactory.sol:PoolFactory",
        "label": "poolKeeper",
        "offset": 0,
        "slot": "3",
        "type": "t_contract(IPoolKeeper)15862"
      },
      {
        "astId": 11840,
        "contract": "contracts/implementation/PoolFactory.sol:PoolFactory",
        "label": "poolCommitterBase",
        "offset": 0,
        "slot": "4",
        "type": "t_contract(PoolCommitter)11805"
      },
      {
        "astId": 11844,
        "contract": "contracts/implementation/PoolFactory.sol:PoolFactory",
        "label": "autoClaim",
        "offset": 0,
        "slot": "5",
        "type": "t_address"
      },
      {
        "astId": 11846,
        "contract": "contracts/implementation/PoolFactory.sol:PoolFactory",
        "label": "feeReceiver",
        "offset": 0,
        "slot": "6",
        "type": "t_address"
      },
      {
        "astId": 11848,
        "contract": "contracts/implementation/PoolFactory.sol:PoolFactory",
        "label": "fee",
        "offset": 0,
        "slot": "7",
        "type": "t_uint256"
      },
      {
        "astId": 11851,
        "contract": "contracts/implementation/PoolFactory.sol:PoolFactory",
        "label": "secondaryFeeSplitPercent",
        "offset": 0,
        "slot": "8",
        "type": "t_uint256"
      },
      {
        "astId": 11853,
        "contract": "contracts/implementation/PoolFactory.sol:PoolFactory",
        "label": "mintingFee",
        "offset": 0,
        "slot": "9",
        "type": "t_uint256"
      },
      {
        "astId": 11855,
        "contract": "contracts/implementation/PoolFactory.sol:PoolFactory",
        "label": "burningFee",
        "offset": 0,
        "slot": "10",
        "type": "t_uint256"
      },
      {
        "astId": 11857,
        "contract": "contracts/implementation/PoolFactory.sol:PoolFactory",
        "label": "changeInterval",
        "offset": 0,
        "slot": "11",
        "type": "t_uint256"
      },
      {
        "astId": 11866,
        "contract": "contracts/implementation/PoolFactory.sol:PoolFactory",
        "label": "maxLeverage",
        "offset": 0,
        "slot": "12",
        "type": "t_uint16"
      },
      {
        "astId": 11872,
        "contract": "contracts/implementation/PoolFactory.sol:PoolFactory",
        "label": "pools",
        "offset": 0,
        "slot": "13",
        "type": "t_mapping(t_uint256,t_address)"
      },
      {
        "astId": 11875,
        "contract": "contracts/implementation/PoolFactory.sol:PoolFactory",
        "label": "numPools",
        "offset": 0,
        "slot": "14",
        "type": "t_uint256"
      },
      {
        "astId": 11881,
        "contract": "contracts/implementation/PoolFactory.sol:PoolFactory",
        "label": "isValidPool",
        "offset": 0,
        "slot": "15",
        "type": "t_mapping(t_address,t_bool)"
      },
      {
        "astId": 11887,
        "contract": "contracts/implementation/PoolFactory.sol:PoolFactory",
        "label": "isValidPoolCommitter",
        "offset": 0,
        "slot": "16",
        "type": "t_mapping(t_address,t_bool)"
      }
    ],
    "types": {
      "t_address": {
        "encoding": "inplace",
        "label": "address",
        "numberOfBytes": "20"
      },
      "t_bool": {
        "encoding": "inplace",
        "label": "bool",
        "numberOfBytes": "1"
      },
      "t_contract(IPoolKeeper)15862": {
        "encoding": "inplace",
        "label": "contract IPoolKeeper",
        "numberOfBytes": "20"
      },
      "t_contract(LeveragedPool)9566": {
        "encoding": "inplace",
        "label": "contract LeveragedPool",
        "numberOfBytes": "20"
      },
      "t_contract(PoolCommitter)11805": {
        "encoding": "inplace",
        "label": "contract PoolCommitter",
        "numberOfBytes": "20"
      },
      "t_contract(PoolToken)14384": {
        "encoding": "inplace",
        "label": "contract PoolToken",
        "numberOfBytes": "20"
      },
      "t_mapping(t_address,t_bool)": {
        "encoding": "mapping",
        "key": "t_address",
        "label": "mapping(address => bool)",
        "numberOfBytes": "32",
        "value": "t_bool"
      },
      "t_mapping(t_uint256,t_address)": {
        "encoding": "mapping",
        "key": "t_uint256",
        "label": "mapping(uint256 => address)",
        "numberOfBytes": "32",
        "value": "t_address"
      },
      "t_uint16": {
        "encoding": "inplace",
        "label": "uint16",
        "numberOfBytes": "2"
      },
      "t_uint256": {
        "encoding": "inplace",
        "label": "uint256",
        "numberOfBytes": "32"
      }
    }
  }
}