{
    "address": "0x86aE3A70301705C6495Fd617787895C9A6238FfE",
    "abi": [
        {
            "inputs": [],
            "name": "MAX_DECIMALS",
            "outputs": [
                {
                    "internalType": "uint256",
                    "name": "",
                    "type": "uint256"
                }
            ],
            "stateMutability": "view",
            "type": "function"
        },
        {
            "inputs": [],
            "name": "WAD_PRECISION",
            "outputs": [
                {
                    "internalType": "uint256",
                    "name": "",
                    "type": "uint256"
                }
            ],
            "stateMutability": "view",
            "type": "function"
        },
        {
            "inputs": [
                {
                    "internalType": "uint256",
                    "name": "timestamp",
                    "type": "uint256"
                },
                {
                    "internalType": "uint256",
                    "name": "lastPriceTimestamp",
                    "type": "uint256"
                },
                {
                    "internalType": "uint256",
                    "name": "frontRunningInterval",
                    "type": "uint256"
                },
                {
                    "internalType": "uint256",
                    "name": "updateInterval",
                    "type": "uint256"
                },
                {
                    "internalType": "uint256",
                    "name": "currentUpdateIntervalId",
                    "type": "uint256"
                }
            ],
            "name": "appropriateUpdateIntervalId",
            "outputs": [
                {
                    "internalType": "uint256",
                    "name": "",
                    "type": "uint256"
                }
            ],
            "stateMutability": "pure",
            "type": "function"
        },
        {
            "inputs": [
                {
                    "components": [
                        {
                            "internalType": "int256",
                            "name": "oldPrice",
                            "type": "int256"
                        },
                        {
                            "internalType": "int256",
                            "name": "newPrice",
                            "type": "int256"
                        },
                        {
                            "internalType": "uint256",
                            "name": "longBalance",
                            "type": "uint256"
                        },
                        {
                            "internalType": "uint256",
                            "name": "shortBalance",
                            "type": "uint256"
                        },
                        {
                            "internalType": "bytes16",
                            "name": "leverageAmount",
                            "type": "bytes16"
                        },
                        {
                            "internalType": "bytes16",
                            "name": "fee",
                            "type": "bytes16"
                        }
                    ],
                    "internalType": "struct PoolSwapLibrary.PriceChangeData",
                    "name": "priceChange",
                    "type": "tuple"
                }
            ],
            "name": "calculatePriceChange",
            "outputs": [
                {
                    "internalType": "uint256",
                    "name": "",
                    "type": "uint256"
                },
                {
                    "internalType": "uint256",
                    "name": "",
                    "type": "uint256"
                },
                {
                    "internalType": "uint256",
                    "name": "",
                    "type": "uint256"
                }
            ],
            "stateMutability": "pure",
            "type": "function"
        },
        {
            "inputs": [
                {
                    "internalType": "bytes16",
                    "name": "x",
                    "type": "bytes16"
                },
                {
                    "internalType": "bytes16",
                    "name": "y",
                    "type": "bytes16"
                }
            ],
            "name": "compareDecimals",
            "outputs": [
                {
                    "internalType": "int8",
                    "name": "",
                    "type": "int8"
                }
            ],
            "stateMutability": "pure",
            "type": "function"
        },
        {
            "inputs": [
                {
                    "internalType": "bytes16",
                    "name": "ratio",
                    "type": "bytes16"
                }
            ],
            "name": "convertDecimalToUInt",
            "outputs": [
                {
                    "internalType": "uint256",
                    "name": "",
                    "type": "uint256"
                }
            ],
            "stateMutability": "pure",
            "type": "function"
        },
        {
            "inputs": [
                {
                    "internalType": "uint256",
                    "name": "amount",
                    "type": "uint256"
                }
            ],
            "name": "convertUIntToDecimal",
            "outputs": [
                {
                    "internalType": "bytes16",
                    "name": "",
                    "type": "bytes16"
                }
            ],
            "stateMutability": "pure",
            "type": "function"
        },
        {
            "inputs": [
                {
                    "internalType": "int256",
                    "name": "a",
                    "type": "int256"
                },
                {
                    "internalType": "int256",
                    "name": "b",
                    "type": "int256"
                }
            ],
            "name": "divInt",
            "outputs": [
                {
                    "internalType": "bytes16",
                    "name": "",
                    "type": "bytes16"
                }
            ],
            "stateMutability": "pure",
            "type": "function"
        },
        {
            "inputs": [
                {
                    "internalType": "uint256",
                    "name": "_wadValue",
                    "type": "uint256"
                },
                {
                    "internalType": "uint256",
                    "name": "_decimals",
                    "type": "uint256"
                }
            ],
            "name": "fromWad",
            "outputs": [
                {
                    "internalType": "uint256",
                    "name": "",
                    "type": "uint256"
                }
            ],
            "stateMutability": "pure",
            "type": "function"
        },
        {
            "inputs": [
                {
                    "internalType": "uint256",
                    "name": "reward",
                    "type": "uint256"
                },
                {
                    "internalType": "uint256",
                    "name": "shortBalance",
                    "type": "uint256"
                },
                {
                    "internalType": "uint256",
                    "name": "longBalance",
                    "type": "uint256"
                }
            ],
            "name": "getBalancesAfterFees",
            "outputs": [
                {
                    "internalType": "uint256",
                    "name": "",
                    "type": "uint256"
                },
                {
                    "internalType": "uint256",
                    "name": "",
                    "type": "uint256"
                }
            ],
            "stateMutability": "pure",
            "type": "function"
        },
        {
            "inputs": [
                {
                    "internalType": "bytes16",
                    "name": "price",
                    "type": "bytes16"
                },
                {
                    "internalType": "uint256",
                    "name": "amount",
                    "type": "uint256"
                }
            ],
            "name": "getBurn",
            "outputs": [
                {
                    "internalType": "uint256",
                    "name": "",
                    "type": "uint256"
                }
            ],
            "stateMutability": "pure",
            "type": "function"
        },
        {
            "inputs": [
                {
                    "internalType": "bytes16",
                    "name": "lossMultiplier",
                    "type": "bytes16"
                },
                {
                    "internalType": "uint256",
                    "name": "balance",
                    "type": "uint256"
                }
            ],
            "name": "getLossAmount",
            "outputs": [
                {
                    "internalType": "uint256",
                    "name": "",
                    "type": "uint256"
                }
            ],
            "stateMutability": "pure",
            "type": "function"
        },
        {
            "inputs": [
                {
                    "internalType": "bytes16",
                    "name": "ratio",
                    "type": "bytes16"
                },
                {
                    "internalType": "int8",
                    "name": "direction",
                    "type": "int8"
                },
                {
                    "internalType": "bytes16",
                    "name": "leverage",
                    "type": "bytes16"
                }
            ],
            "name": "getLossMultiplier",
            "outputs": [
                {
                    "internalType": "bytes16",
                    "name": "",
                    "type": "bytes16"
                }
            ],
            "stateMutability": "pure",
            "type": "function"
        },
        {
            "inputs": [
                {
                    "internalType": "bytes16",
                    "name": "price",
                    "type": "bytes16"
                },
                {
                    "internalType": "uint256",
                    "name": "amount",
                    "type": "uint256"
                }
            ],
            "name": "getMint",
            "outputs": [
                {
                    "internalType": "uint256",
                    "name": "",
                    "type": "uint256"
                }
            ],
            "stateMutability": "pure",
            "type": "function"
        },
        {
            "inputs": [
                {
                    "internalType": "uint256",
                    "name": "tokenSupply",
                    "type": "uint256"
                },
                {
                    "internalType": "uint256",
                    "name": "amountIn",
                    "type": "uint256"
                },
                {
                    "internalType": "uint256",
                    "name": "balance",
                    "type": "uint256"
                },
                {
                    "internalType": "uint256",
                    "name": "shadowBalance",
                    "type": "uint256"
                }
            ],
            "name": "getMintAmount",
            "outputs": [
                {
                    "internalType": "uint256",
                    "name": "",
                    "type": "uint256"
                }
            ],
            "stateMutability": "pure",
            "type": "function"
        },
        {
            "inputs": [
                {
                    "internalType": "bytes16",
                    "name": "price",
                    "type": "bytes16"
                },
                {
                    "internalType": "bytes16",
                    "name": "oppositePrice",
                    "type": "bytes16"
                },
                {
                    "internalType": "uint256",
                    "name": "amount",
                    "type": "uint256"
                },
                {
                    "internalType": "uint256",
                    "name": "amountBurnedInstantMint",
                    "type": "uint256"
                }
            ],
            "name": "getMintWithBurns",
            "outputs": [
                {
                    "internalType": "uint256",
                    "name": "",
                    "type": "uint256"
                }
            ],
            "stateMutability": "pure",
            "type": "function"
        },
        {
            "inputs": [
                {
                    "internalType": "uint256",
                    "name": "sideBalance",
                    "type": "uint256"
                },
                {
                    "internalType": "uint256",
                    "name": "tokenSupply",
                    "type": "uint256"
                }
            ],
            "name": "getPrice",
            "outputs": [
                {
                    "internalType": "bytes16",
                    "name": "",
                    "type": "bytes16"
                }
            ],
            "stateMutability": "pure",
            "type": "function"
        },
        {
            "inputs": [
                {
                    "internalType": "uint256",
                    "name": "_numerator",
                    "type": "uint256"
                },
                {
                    "internalType": "uint256",
                    "name": "_denominator",
                    "type": "uint256"
                }
            ],
            "name": "getRatio",
            "outputs": [
                {
                    "internalType": "bytes16",
                    "name": "",
                    "type": "bytes16"
                }
            ],
            "stateMutability": "pure",
            "type": "function"
        },
        {
            "inputs": [
                {
                    "components": [
                        {
                            "internalType": "bytes16",
                            "name": "longPrice",
                            "type": "bytes16"
                        },
                        {
                            "internalType": "bytes16",
                            "name": "shortPrice",
                            "type": "bytes16"
                        },
                        {
                            "internalType": "uint256",
                            "name": "currentUpdateIntervalId",
                            "type": "uint256"
                        },
                        {
                            "internalType": "uint256",
                            "name": "updateIntervalId",
                            "type": "uint256"
                        },
                        {
                            "internalType": "uint256",
                            "name": "longMintAmount",
                            "type": "uint256"
                        },
                        {
                            "internalType": "uint256",
                            "name": "longBurnAmount",
                            "type": "uint256"
                        },
                        {
                            "internalType": "uint256",
                            "name": "shortMintAmount",
                            "type": "uint256"
                        },
                        {
                            "internalType": "uint256",
                            "name": "shortBurnAmount",
                            "type": "uint256"
                        },
                        {
                            "internalType": "uint256",
                            "name": "longBurnShortMintAmount",
                            "type": "uint256"
                        },
                        {
                            "internalType": "uint256",
                            "name": "shortBurnLongMintAmount",
                            "type": "uint256"
                        },
                        {
                            "internalType": "bytes16",
                            "name": "burnFee",
                            "type": "bytes16"
                        }
                    ],
                    "internalType": "struct PoolSwapLibrary.UpdateData",
                    "name": "data",
                    "type": "tuple"
                }
            ],
            "name": "getUpdatedAggregateBalance",
            "outputs": [
                {
                    "internalType": "uint256",
                    "name": "_newLongTokens",
                    "type": "uint256"
                },
                {
                    "internalType": "uint256",
                    "name": "_newShortTokens",
                    "type": "uint256"
                },
                {
                    "internalType": "uint256",
                    "name": "_longBurnFee",
                    "type": "uint256"
                },
                {
                    "internalType": "uint256",
                    "name": "_shortBurnFee",
                    "type": "uint256"
                },
                {
                    "internalType": "uint256",
                    "name": "_newSettlementTokens",
                    "type": "uint256"
                }
            ],
            "stateMutability": "pure",
            "type": "function"
        },
        {
            "inputs": [
                {
                    "internalType": "uint256",
                    "name": "tokenSupply",
                    "type": "uint256"
                },
                {
                    "internalType": "uint256",
                    "name": "amountIn",
                    "type": "uint256"
                },
                {
                    "internalType": "uint256",
                    "name": "balance",
                    "type": "uint256"
                },
                {
                    "internalType": "uint256",
                    "name": "shadowBalance",
                    "type": "uint256"
                }
            ],
            "name": "getWithdrawAmountOnBurn",
            "outputs": [
                {
                    "internalType": "uint256",
                    "name": "",
                    "type": "uint256"
                }
            ],
            "stateMutability": "pure",
            "type": "function"
        },
        {
            "inputs": [
                {
                    "internalType": "uint256",
                    "name": "subjectTime",
                    "type": "uint256"
                },
                {
                    "internalType": "uint256",
                    "name": "lastPriceTimestamp",
                    "type": "uint256"
                },
                {
                    "internalType": "uint256",
                    "name": "updateInterval",
                    "type": "uint256"
                },
                {
                    "internalType": "uint256",
                    "name": "frontRunningInterval",
                    "type": "uint256"
                }
            ],
            "name": "isBeforeFrontRunningInterval",
            "outputs": [
                {
                    "internalType": "bool",
                    "name": "",
                    "type": "bool"
                }
            ],
            "stateMutability": "pure",
            "type": "function"
        },
        {
            "inputs": [
                {
                    "internalType": "uint256",
                    "name": "number",
                    "type": "uint256"
                },
                {
                    "internalType": "uint256",
                    "name": "numerator",
                    "type": "uint256"
                },
                {
                    "internalType": "uint256",
                    "name": "denominator",
                    "type": "uint256"
                }
            ],
            "name": "mulFraction",
            "outputs": [
                {
                    "internalType": "uint256",
                    "name": "",
                    "type": "uint256"
                }
            ],
            "stateMutability": "pure",
            "type": "function"
        },
        {
            "inputs": [
                {
                    "internalType": "bytes16",
                    "name": "a",
                    "type": "bytes16"
                },
                {
                    "internalType": "uint256",
                    "name": "b",
                    "type": "uint256"
                }
            ],
            "name": "multiplyDecimalByUInt",
            "outputs": [
                {
                    "internalType": "bytes16",
                    "name": "",
                    "type": "bytes16"
                }
            ],
            "stateMutability": "pure",
            "type": "function"
        },
        {
            "inputs": [],
            "name": "one",
            "outputs": [
                {
                    "internalType": "bytes16",
                    "name": "",
                    "type": "bytes16"
                }
            ],
            "stateMutability": "view",
            "type": "function"
        }
    ],
    "transactionHash": "0x3a6f0b07e72b68ad868e150796b53cc417470103cb317944cbf755e2b2b3266a",
    "args": [],
    "solcInputHash": "2618b71259c48e264b944568d24817df",
    "bytecode": "0x61308c61003a600b82828239805160001a60731461002d57634e487b7160e01b600052600060045260246000fd5b30600052607381538281f3fe73000000000000000000000000000000000000000030146080604052600436106101625760003560e01c8063aeb64d7d116100cd578063debb52df11610086578063debb52df1461034e578063dfdbe4da14610361578063e456394514610374578063fc31158114610387578063fea3de331461039a578063ff9afe87146103ad57600080fd5b8063aeb64d7d146102c7578063bf36f0e9146102da578063c15172d2146102ed578063c3ff809114610300578063cff7000114610313578063dc35bc131461032657600080fd5b806381a799db1161011f57806381a799db14610209578063901717d11461022c5780639eb17fa314610238578063a481c1b414610273578063a818c0d2146102a1578063ab41556f146102b457600080fd5b80630417cf8e146101675780631842c9d814610182578063202f1257146101a8578063422051e7146101d45780635cf4ee91146101e7578063664808a8146101fa575b600080fd5b61016f601281565b6040519081526020015b60405180910390f35b610195610190366004612cac565b6103c0565b60405160009190910b8152602001610179565b6101bb6101b6366004612d96565b6103d5565b6040516001600160801b03199091168152602001610179565b6101bb6101e2366004612d6c565b6103f1565b6101bb6101f5366004612d96565b610405565b61016f670de0b6b3a764000081565b61021c610217366004612e28565b61042d565b6040519015158152602001610179565b6101bb613fff60f01b81565b61024b610246366004612dd0565b610451565b604080519586526020860194909452928401919091526060830152608082015260a001610179565b610286610281366004612db8565b610607565b60408051938452602084019290925290820152606001610179565b61016f6102af366004612d6c565b61077d565b61016f6102c2366004612e28565b6107a2565b61016f6102d5366004612c91565b610809565b61016f6102e8366004612d96565b610814565b61016f6102fb366004612cdf565b610839565b6101bb61030e366004612d21565b61089b565b6101bb610321366004612d96565b6108db565b610339610334366004612dfc565b6108ea565b60408051928352602083019190915201610179565b61016f61035c366004612e28565b610943565b6101bb61036f366004612de3565b610992565b61016f610382366004612d6c565b61099d565b61016f610395366004612d6c565b6109db565b61016f6103a8366004612dfc565b610a19565b61016f6103bb366004612e5a565b610a5b565b60006103cc8383610b46565b90505b92915050565b60006103cc6103e384610c6d565b6103ec84610c6d565b610d00565b60006103cc8361040084610fb7565b61101b565b6000816104185750613fff60f01b6103cf565b6103cc61042484610fb7565b6103ec84610fb7565b6000848261043b8587612eb9565b6104459190612ffd565b1190505b949350505050565b600080600080600085604001358660600135141561047d575060009350839250829150819050806105fe565b60008060008860800135118061049857506000886101200135115b156104d0576104cd6104ad60208a018a612c91565b6104bd60408b0160208c01612c91565b8a608001358b6101200135610839565b96505b60a088013515610536576104f46104ea60208a018a612c91565b8960a001356109db565b9150670de0b6b3a764000061051d6102d56105176101608c016101408d01612c91565b856103f1565b6105279190612ed1565b94506105338583612ffd565b91505b60008860c00135118061054e57506000886101000135115b156105865761058361056660408a0160208b01612c91565b61057360208b018b612c91565b8a60c001358b6101000135610839565b95505b60e0880135156105ef576105ad6105a360408a0160208b01612c91565b8960e001356109db565b9050670de0b6b3a76400006105d66102d56105d06101608c016101408d01612c91565b846103f1565b6105e09190612ed1565b93506105ec8482612ffd565b90505b6105f98282612eb9565b925050505b91939590929450565b60008080606084013560408501358261062660a0880160808901612c91565b905086356020880135600061064160c08b0160a08c01612c91565b90506000670de0b6b3a764000061065b6102d584896103f1565b6106659190612ed1565b90506000670de0b6b3a764000061067f6102d5858b6103f1565b6106899190612ed1565b90506106958189612ffd565b97506106a18288612ffd565b965060006106af8383612eb9565b905060006106bd86886103d5565b905060006106d082613fff60f01b6103c0565b905060006106df83838c61089b565b905060008260000b121580156106f5575060008c115b15610726576000610706828e61077d565b9050610712818e612ffd565b9c5061071e818d612eb9565b9b5050610766565b60008260000b128015610739575060008b115b1561076657600061074a828d61077d565b9050610756818e612eb9565b9c50610762818d612ffd565b9b50505b50989e999d50909b50979950505050505050505050565b60006103cc61079d610794613fff60f01b86611276565b61040085610fb7565b611288565b60008215806107b857506107b68286612eb9565b155b806107c1575083155b156107cd575082610449565b60006107ed6107e46107df8589612eb9565b610fb7565b61040087610fb7565b90506107ff61079d826103ec87610fb7565b9695505050505050565b60006103cf82611288565b600080610822836012612ffd565b61082d90600a612f36565b90506104498185612ed1565b60006001600160801b0319851661086b5760405162461bcd60e51b815260040161086290612e95565b60405180910390fd5b81156108885761087b84836109db565b6108859084612eb9565b92505b610892858461099d565b95945050505050565b60006108d16108cc8361040060008760000b126108c6576108c1613fff60f01b89610d00565b61130b565b8761130b565b6114bb565b90505b9392505050565b600081610418575060006103cf565b600080806108fc856103218682612eb9565b9050600061090d6102d583896103f1565b9050600061091b8288612ffd565b90506000610929838a612ffd565b6109339088612ffd565b9199919850909650505050505050565b600082158061095957506109578286612eb9565b155b80610962575083155b1561096e575082610449565b600061097c6107e485610fb7565b90506107ff61079d826103ec6107df878b612eb9565b60006103cf82610fb7565b60006001600160801b031983166109c65760405162461bcd60e51b815260040161086290612e95565b6103cc61079d6109d584610fb7565b85610d00565b60006001600160801b03198316610a045760405162461bcd60e51b815260040161086290612e95565b6103cc61079d610a1384610fb7565b8561101b565b600081610a28575060006108d4565b6000610a3f610a3686610fb7565b61040086610fb7565b90506000610a50826103ec86610fb7565b90506107ff81610809565b600084861015610aa55760405162461bcd60e51b81526020600482015260156024820152741d1a5b595cdd185b5c081a5b881d1a19481c185cdd605a1b6044820152606401610862565b828411610ad657610ab88686858761042d565b15610ac4575080610892565b610acf826001612eb9565b9050610892565b6000610ae561079d868661280d565b90506000610af4826001612eb9565b610afe9086612fde565b610b089088612eb9565b90506000610b168386612eb9565b905081610b23888b612eb9565b11610b2e5780610b39565b610b39816001612eb9565b9998505050505050505050565b600060016001607f1b03608084901c16617fff60701b811115610b6857600080fd5b60016001607f1b03608084901c16617fff60701b811115610b8857600080fd5b6001600160801b0319858116908516141580610bb15750617fff60701b826001600160801b0316105b610bba57600080fd5b6001600160801b03198581169085161415610bda576000925050506103cf565b6001607f1b608086811c82118015929187901c919091101590610c2c578015610c1d57826001600160801b0316846001600160801b031611610c1d576001610c21565b6000195b9450505050506103cf565b8015610c3f5760019450505050506103cf565b826001600160801b0316846001600160801b031611610c6057600019610c21565b60019450505050506103cf565b600081610c7c57506000919050565b6000808313610c8e5782600003610c90565b825b90506000610c9d8261281b565b90506070811015610cb6578060700382901b9150610cc9565b6070811115610cc9576070810382901c91505b6001600160701b03909116613fff820160701b17906000841215610cf1576001607f1b821791505b5060801b92915050565b919050565b6000617fff60f084811c8216919084901c811690821415610d465780617fff1415610d35575061ffff60ef1b91506103cf9050565b505050600160ff1b811682186103cf565b80617fff1415610d8a576dffffffffffffffffffffffffffff60801b841615610d79575061ffff60ef1b91506103cf9050565b505050808218600160ff1b166103cf565b600160801b600160ff1b038416610dd457600160801b600160ff1b038516610dbc575061ffff60ef1b91506103cf9050565b505050808218600160ff1b16617fff60f01b176103cf565b6001600160701b03608085901c1681610df05760019150610df7565b600160701b175b6001600160701b03608087901c1683610e36578015610e31576000610e1b8261281b565b6001955060e20393840160711901939190911b90505b610e40565b600160701b1760721b5b818181610e4f57610e4f613040565b04905080610e7b57600160ff1b87871816610e6b576000610c21565b600160ff1b9450505050506103cf565b6001606c1b811015610e8f57610e8f613014565b6000600160731b821015610ece57600160721b821015610ec357600160711b821015610ebc576070610ec6565b6071610ec6565b60725b60ff16610ed7565b610ed78261281b565b905083614071018186011115610ef557617fff945060009150610f88565b83818601613ffc011015610f10576000945060009150610f88565b83818601613f8c011015610f5d578385613ffc011115610f3b578385613ffc010382901b9150610f54565b8385613ffc011015610f5457613ffc8585030382901c91505b60009450610f88565b6070811115610f70576070810382901c91505b6001600160701b038216915083818601613f8d010394505b81607086901b888a186001607f1b60801b1660801c6001600160801b0316171760801b955050505050506103cf565b600081610fc657506000919050565b816000610fd28261281b565b90506070811015610feb578060700382901b9150610ffe565b6070811115610ffe576070810382901c91505b613fff0160701b6001600160701b03919091161760801b92915050565b6000617fff60f084811c8216919084901c8116908214156110ba5780617fff1415611099576001600160801b0319858116908516141561106657505050600160ff1b811682186103cf565b600160ff1b6001600160801b0319868618161415611089575050508181176103cf565b5061ffff60ef1b91506103cf9050565b600160801b600160ff1b038416610d35575061ffff60ef1b91506103cf9050565b80617fff14156110f657600160801b600160ff1b0385166110e5575061ffff60ef1b91506103cf9050565b505050600160ff1b821681186103cf565b6001600160701b03608086901c16826111125760019250611119565b600160701b175b6001600160701b03608086901c1682611135576001925061113c565b600160701b175b908102908161115957600160ff1b87871816610e6b576000610c21565b928201926000600160e11b83101561118c57600160e01b831015611185576111808361281b565b61118f565b60e061118f565b60e15b905061407081860110156111aa576000945060009250611247565b6140e081860110156111ed576140708510156111cf57846140700383901c92506111e4565b6140708511156111e457614070850383901b92505b60009450611247565b61c0dd818601111561120757617fff945060009250611247565b607081111561121e576070810383901c9250611231565b6070811015611231578060700383901b92505b6001600160701b03831692506140df8186010394505b82607086901b888a186001607f1b60801b1660801c6001600160801b0316171760801b955050505050506103cf565b60006103cc83600160ff1b84186128b9565b6000617fff60f083901c16613fff8110156112a65750600092915050565b6001607f1b608084901c106112ba57600080fd5b6140fe8111156112c957600080fd5b600160701b6001600160701b03608085901c161761406f8210156112f35761406f8290031c6108d4565b61406f8211156108d45761406e1982011b9392505050565b60006001607f1b608083901c1115611329575061ffff60ef1b919050565b613fff60f01b6001600160801b03198316141561134857506000919050565b617fff60f083901c811690811415611361575090919050565b6001600160701b03608084901c168161137d5760019150611384565b600160701b175b8061139a57506001600160f01b03199392505050565b600061406f81613fff85106113c05750600f9290921b9160009150613ffe1984016113ff565b60019250600160701b84106113e25784613ffe039050600f84901b93506113ff565b60006113ed8561281b565b607f8190039590951b9461406d039150505b836001607f1b1415611433578215611415576001015b60006114208261281b565b60700392839003929190911b9050611481565b600083611441576000611444565b60015b60ff1690505b600160701b82101561147f5793800260ff81901c607f81019190911c94600019939093019260019290921b908218019061144a565b505b806001600160701b0316607083901b8461149c5760006114a2565b6001607f1b5b6001600160801b0316171760801b979650505050505050565b60006001607f1b608083901c90811190617fff60f085901c8116916001600160701b031690821480156114ed57508015155b15611501575061ffff60ef1b949350505050565b61400d821115611526578261151b57617fff60f01b610892565b600095945050505050565b613f7f82101561153f5750613fff60f01b949350505050565b8161154d5760019150611554565b600160701b175b613fef82111561156a57613fee1982011b61157c565b613fef82101561157c57613fef8290031c5b82801561158d575061203760811b81115b1561159d57506000949350505050565b821580156115bc5750713fffffffffffffffffffffffffffffffffff81115b156115d05750617fff60f01b949350505050565b6001600160801b0381169060801c8380156115ea57508115155b156115f6579019906001015b6001607f1b8281161561161a5770016a09e667f3bcc908b2fb1366ea957d3e0260801c5b6001607e1b83161561163d577001306fe0a31b7152de8d5a46305c85edec0260801c5b6001607d1b831615611660577001172b83c7d517adcdf7c8c50eb14a791f0260801c5b6001607c1b8316156116835770010b5586cf9890f6298b92b71842a983630260801c5b6001607b1b8316156116a6577001059b0d31585743ae7c548eb68ca417fd0260801c5b6001607a1b8316156116c957700102c9a3e778060ee6f7caca4f7a29bde80260801c5b600160791b8316156116ec5770010163da9fb33356d84a66ae336dcdfa3f0260801c5b600160781b83161561170f57700100b1afa5abcbed6129ab13ec11dc95430260801c5b600160771b8316156117325770010058c86da1c09ea1ff19d294cf2f679b0260801c5b600160761b831615611755577001002c605e2e8cec506d21bfc89a23a00f0260801c5b600160751b83161561177857700100162f3904051fa128bca9c55c31e5df0260801c5b600160741b83161561179b577001000b175effdc76ba38e31671ca9397250260801c5b600160731b8316156117be57700100058ba01fb9f96d6cacd4b180917c3d0260801c5b600160721b8316156117e15770010002c5cc37da9491d0985c348c68e7b30260801c5b600160711b831615611804577001000162e525ee054754457d59952920260260801c5b600160701b8316156118275770010000b17255775c040618bf4a4ade83fc0260801c5b6001606f1b83161561184a577001000058b91b5bc9ae2eed81e9b7d4cfab0260801c5b6001606e1b83161561186d57700100002c5c89d5ec6ca4d7c8acc017b7c90260801c5b6001606d1b8316156118905770010000162e43f4f831060e02d839a9d16d0260801c5b6001606c1b8316156118b357700100000b1721bcfc99d9f890ea069117630260801c5b6001606b1b8316156118d65770010000058b90cf1e6d97f9ca14dbcc16280260801c5b6001606a1b8316156118f9577001000002c5c863b73f016468f6bac5ca2b0260801c5b600160691b83161561191c57700100000162e430e5a18f6119e3c02282a50260801c5b600160681b83161561193f577001000000b1721835514b86e6d96efd1bfe0260801c5b600160671b83161561196257700100000058b90c0b48c6be5df846c5b2ef0260801c5b600160661b8316156119855770010000002c5c8601cc6b9e94213c72737a0260801c5b600160651b8316156119a8577001000000162e42fff037df38aa2b219f060260801c5b600160641b8316156119cb5770010000000b17217fba9c739aa5819f44f90260801c5b600160631b8316156119ee577001000000058b90bfcdee5acd3c1cedc8230260801c5b600160621b831615611a1157700100000002c5c85fe31f35a6a30da1be500260801c5b600160611b831615611a345770010000000162e42ff0999ce3541b9fffcf0260801c5b600160601b831615611a5757700100000000b17217f80f4ef5aadda455540260801c5b6001605f1b831615611a7a5770010000000058b90bfbf8479bd5a81b51ad0260801c5b6001605e1b831615611a9d577001000000002c5c85fdf84bd62ae30a74cc0260801c5b6001605d1b831615611ac057700100000000162e42fefb2fed257559bdaa0260801c5b6001605c1b831615611ae3577001000000000b17217f7d5a7716bba4a9ae0260801c5b6001605b1b831615611b0657700100000000058b90bfbe9ddbac5e109cce0260801c5b6001605a1b831615611b295770010000000002c5c85fdf4b15de6f17eb0d0260801c5b600160591b831615611b4c577001000000000162e42fefa494f1478fde050260801c5b600160581b831615611b6f5770010000000000b17217f7d20cf927c8e94c0260801c5b600160571b831615611b92577001000000000058b90bfbe8f71cb4e4b33d0260801c5b600160561b831615611bb557700100000000002c5c85fdf477b662b269450260801c5b600160551b831615611bd85770010000000000162e42fefa3ae53369388c0260801c5b600160541b831615611bfb57700100000000000b17217f7d1d351a389d400260801c5b600160531b831615611c1e5770010000000000058b90bfbe8e8b2d3d4ede0260801c5b600160521b831615611c41577001000000000002c5c85fdf4741bea6e77e0260801c5b600160511b831615611c6457700100000000000162e42fefa39fe95583c20260801c5b600160501b831615611c87577001000000000000b17217f7d1cfb72b45e10260801c5b6980000000000000000000831615611cb057700100000000000058b90bfbe8e7cc35c3f00260801c5b6940000000000000000000831615611cd95770010000000000002c5c85fdf473e242ea380260801c5b6920000000000000000000831615611d02577001000000000000162e42fefa39f02b772c0260801c5b6910000000000000000000831615611d2b5770010000000000000b17217f7d1cf7d83c1a0260801c5b6908000000000000000000831615611d54577001000000000000058b90bfbe8e7bdcbe2e0260801c5b6904000000000000000000831615611d7d57700100000000000002c5c85fdf473dea871f0260801c5b6902000000000000000000831615611da65770010000000000000162e42fefa39ef44d910260801c5b6901000000000000000000831615611dcf57700100000000000000b17217f7d1cf79e9490260801c5b68800000000000000000831615611df75770010000000000000058b90bfbe8e7bce5440260801c5b68400000000000000000831615611e1f577001000000000000002c5c85fdf473de6eca0260801c5b68200000000000000000831615611e4757700100000000000000162e42fefa39ef366f0260801c5b68100000000000000000831615611e6f577001000000000000000b17217f7d1cf79afa0260801c5b68080000000000000000831615611e9757700100000000000000058b90bfbe8e7bcd6d0260801c5b68040000000000000000831615611ebf5770010000000000000002c5c85fdf473de6b20260801c5b68020000000000000000831615611ee7577001000000000000000162e42fefa39ef3580260801c5b600160401b831615611f0a5770010000000000000000b17217f7d1cf79ab0260801c5b678000000000000000831615611f31577001000000000000000058b90bfbe8e7bcd50260801c5b674000000000000000831615611f5857700100000000000000002c5c85fdf473de6a0260801c5b672000000000000000831615611f7f5770010000000000000000162e42fefa39ef340260801c5b671000000000000000831615611fa657700100000000000000000b17217f7d1cf7990260801c5b670800000000000000831615611fcd5770010000000000000000058b90bfbe8e7bcc0260801c5b670400000000000000831615611ff4577001000000000000000002c5c85fdf473de50260801c5b67020000000000000083161561201b57700100000000000000000162e42fefa39ef20260801c5b670100000000000000831615612042577001000000000000000000b17217f7d1cf780260801c5b668000000000000083161561206857700100000000000000000058b90bfbe8e7bb0260801c5b664000000000000083161561208e5770010000000000000000002c5c85fdf473dd0260801c5b66200000000000008316156120b4577001000000000000000000162e42fefa39ee0260801c5b66100000000000008316156120da5770010000000000000000000b17217f7d1cf60260801c5b6608000000000000831615612100577001000000000000000000058b90bfbe8e7a0260801c5b660400000000000083161561212657700100000000000000000002c5c85fdf473c0260801c5b660200000000000083161561214c5770010000000000000000000162e42fefa39d0260801c5b660100000000000083161561217257700100000000000000000000b17217f7d1ce0260801c5b658000000000008316156121975770010000000000000000000058b90bfbe8e60260801c5b654000000000008316156121bc577001000000000000000000002c5c85fdf4720260801c5b652000000000008316156121e157700100000000000000000000162e42fefa380260801c5b65100000000000831615612206577001000000000000000000000b17217f7d1b0260801c5b6508000000000083161561222b57700100000000000000000000058b90bfbe8d0260801c5b650400000000008316156122505770010000000000000000000002c5c85fdf460260801c5b65020000000000831615612275577001000000000000000000000162e42fefa20260801c5b6501000000000083161561229a5770010000000000000000000000b17217f7d00260801c5b6480000000008316156122be577001000000000000000000000058b90bfbe70260801c5b6440000000008316156122e257700100000000000000000000002c5c85fdf30260801c5b6420000000008316156123065770010000000000000000000000162e42fef90260801c5b64100000000083161561232a57700100000000000000000000000b17217f7c0260801c5b64080000000083161561234e5770010000000000000000000000058b90bfbd0260801c5b640400000000831615612372577001000000000000000000000002c5c85fde0260801c5b64020000000083161561239657700100000000000000000000000162e42fee0260801c5b6401000000008316156123ba577001000000000000000000000000b17217f60260801c5b63800000008316156123dd57700100000000000000000000000058b90bfa0260801c5b63400000008316156124005770010000000000000000000000002c5c85fc0260801c5b6320000000831615612423577001000000000000000000000000162e42fd0260801c5b63100000008316156124465770010000000000000000000000000b17217e0260801c5b6308000000831615612469577001000000000000000000000000058b90be0260801c5b630400000083161561248c57700100000000000000000000000002c5c85e0260801c5b63020000008316156124af5770010000000000000000000000000162e42e0260801c5b63010000008316156124d257700100000000000000000000000000b172160260801c5b628000008316156124f45770010000000000000000000000000058b90a0260801c5b62400000831615612516577001000000000000000000000000002c5c840260801c5b6220000083161561253857700100000000000000000000000000162e410260801c5b6210000083161561255a577001000000000000000000000000000b17200260801c5b6208000083161561257c57700100000000000000000000000000058b8f0260801c5b6204000083161561259e5770010000000000000000000000000002c5c70260801c5b620200008316156125c0577001000000000000000000000000000162e30260801c5b620100008316156125e25770010000000000000000000000000000b1710260801c5b618000831615612603577001000000000000000000000000000058b80260801c5b61400083161561262457700100000000000000000000000000002c5b0260801c5b6120008316156126455770010000000000000000000000000000162d0260801c5b61100083161561266657700100000000000000000000000000000b160260801c5b6108008316156126875770010000000000000000000000000000058a0260801c5b6104008316156126a8577001000000000000000000000000000002c40260801c5b6102008316156126c9577001000000000000000000000000000001610260801c5b6101008316156126ea577001000000000000000000000000000000b00260801c5b608083161561270a577001000000000000000000000000000000570260801c5b604083161561272a5770010000000000000000000000000000002b0260801c5b602083161561274a577001000000000000000000000000000000150260801c5b601083161561276a5770010000000000000000000000000000000a0260801c5b600883161561278a577001000000000000000000000000000000040260801c5b60048316156127aa577001000000000000000000000000000000010260801c5b846127cb57600f81901c6001600160701b03169050613fff820191506127fa565b613ffe82116127f057600f81901c6001600160701b0316905081613fff0391506127fa565b600091613fee19011c5b60709190911b1760801b95945050505050565b60006103cc61042484610fb7565b600080821161282957600080fd5b6000600160801b831061283e57608092831c92015b600160401b831061285157604092831c92015b640100000000831061286557602092831c92015b62010000831061287757601092831c92015b610100831061288857600892831c92015b6010831061289857600492831c92015b600483106128a857600292831c92015b600283106103cf5760010192915050565b6000617fff60f084811c8216919084901c8116908214156129075780617fff14156128fd576001600160801b031985811690851614156110895784925050506103cf565b84925050506103cf565b80617fff141561291b5783925050506103cf565b6001607f1b608086901c90811015906001600160701b0316836129415760019350612948565b600160701b175b6001607f1b608087901c90811015906001600160701b03168461296e5760019450612975565b600160701b175b826129a5576001600160801b03198816600160ff1b146129955787612998565b60005b96505050505050506103cf565b806129c5576001600160801b03198916600160ff1b146129955788612998565b8486038415158315151415612ad05760708113156129ec57899750505050505050506103cf565b60008113156129fe5790811c90612a2d565b606f19811215612a1757889750505050505050506103cf565b6000811215612a2d578060000384901c93508596505b92810192600160711b8410612a48576001968701969390931c925b86617fff1415612a7a5784612a6257617fff60f01b612a6c565b6001600160f01b03195b9750505050505050506103cf565b600160701b841015612a8f5760009650612a9c565b6001600160701b03841693505b83607088901b86612aae576000612ab4565b6001607f1b5b6001600160801b0316171760801b9750505050505050506103cf565b6000811315612aeb57600184901b9350600187039650612b02565b6000811215612b0257600182901b91506001860396505b6070811315612b145760019150612b61565b6001811315612b31576001810360018303901c6001019150612b61565b606f19811215612b445760019350612b61565b600019811215612b61576001816000030360018503901c60010193505b818410612b72578184039350612b7b565b83820393508294505b83612b915750600096506103cf95505050505050565b6000612b9c8561281b565b90508060711415612bc257600185901c6001600160701b03169450600188019750612c11565b6070811015612c0457607081900380891115612bf1578086901b6001600160701b031695508089039850612bfe565b600098600019019590951b945b50612c11565b6001600160701b03851694505b87617fff1415612c445785612c2b57617fff60f01b612c35565b6001600160f01b03195b985050505050505050506103cf565b84607089901b87612c56576000612c5c565b6001607f1b5b6001600160801b0316171760801b985050505050505050506103cf565b80356001600160801b031981168114610cfb57600080fd5b600060208284031215612ca357600080fd5b6103cc82612c79565b60008060408385031215612cbf57600080fd5b612cc883612c79565b9150612cd660208401612c79565b90509250929050565b60008060008060808587031215612cf557600080fd5b612cfe85612c79565b9350612d0c60208601612c79565b93969395505050506040820135916060013590565b600080600060608486031215612d3657600080fd5b612d3f84612c79565b925060208401358060000b8114612d5557600080fd5b9150612d6360408501612c79565b90509250925092565b60008060408385031215612d7f57600080fd5b612d8883612c79565b946020939093013593505050565b60008060408385031215612da957600080fd5b50508035926020909101359150565b600060c08284031215612dca57600080fd5b50919050565b60006101608284031215612dca57600080fd5b600060208284031215612df557600080fd5b5035919050565b600080600060608486031215612e1157600080fd5b505081359360208301359350604090920135919050565b60008060008060808587031215612e3e57600080fd5b5050823594602084013594506040840135936060013592509050565b600080600080600060a08688031215612e7257600080fd5b505083359560208501359550604085013594606081013594506080013592509050565b6020808252600a908201526907072696365203d3d20360b41b604082015260600190565b60008219821115612ecc57612ecc61302a565b500190565b600082612eee57634e487b7160e01b600052601260045260246000fd5b500490565b600181815b80851115612f2e578160001904821115612f1457612f1461302a565b80851615612f2157918102915b93841c9390800290612ef8565b509250929050565b60006103cc8383600082612f4c575060016103cf565b81612f59575060006103cf565b8160018114612f6f5760028114612f7957612f95565b60019150506103cf565b60ff841115612f8a57612f8a61302a565b50506001821b6103cf565b5060208310610133831016604e8410600b8410161715612fb8575081810a6103cf565b612fc28383612ef3565b8060001904821115612fd657612fd661302a565b029392505050565b6000816000190483118215151615612ff857612ff861302a565b500290565b60008282101561300f5761300f61302a565b500390565b634e487b7160e01b600052600160045260246000fd5b634e487b7160e01b600052601160045260246000fd5b634e487b7160e01b600052601260045260246000fdfea26469706673582212205cf0973277e128216a65fbe96c261b85d0a8da3862c9ef25e3c6175a139cc2b064736f6c63430008070033",
    "devdoc": {
        "kind": "dev",
        "methods": {
            "appropriateUpdateIntervalId(uint256,uint256,uint256,uint256,uint256)": {
                "details": "Note that the timestamp parameter is required to be >= lastPriceTimestamp",
                "params": {
                    "currentUpdateIntervalId": "The current update interval's ID",
                    "frontRunningInterval": "The frontrunning interval of a pool - The amount of time before an update interval that you must commit to get included in that update",
                    "lastPriceTimestamp": "The timestamp of the last price update",
                    "timestamp": "Current block.timestamp",
                    "updateInterval": "The frequency of a pool's updates"
                },
                "returns": {
                    "_0": "The update interval ID in which a commit being made at time timestamp should be included"
                }
            },
            "calculatePriceChange(PoolSwapLibrary.PriceChangeData)": {
                "details": "This function should be called by the LeveragedPool.",
                "params": {
                    "priceChange": "The struct containing necessary data to calculate price change"
                },
                "returns": {
                    "_0": "Resulting long balance",
                    "_1": "Resulting short balance",
                    "_2": "Total fees (across both long and short sides) resulting from this price change"
                }
            },
            "compareDecimals(bytes16,bytes16)": {
                "params": {
                    "x": "The first number to compare",
                    "y": "The second number to compare"
                },
                "returns": {
                    "_0": "-1 if x < y, 0 if x = y, or 1 if x > y"
                }
            },
            "convertDecimalToUInt(bytes16)": {
                "params": {
                    "ratio": "The value to convert"
                },
                "returns": {
                    "_0": "The converted value"
                }
            },
            "convertUIntToDecimal(uint256)": {
                "params": {
                    "amount": "The amount to convert"
                },
                "returns": {
                    "_0": "The amount as a IEEE754 quadruple precision number"
                }
            },
            "divInt(int256,int256)": {
                "params": {
                    "a": "The dividend",
                    "b": "The divisor"
                },
                "returns": {
                    "_0": "The quotient"
                }
            },
            "fromWad(uint256,uint256)": {
                "params": {
                    "_decimals": "Quantity of decimal places to support",
                    "_wadValue": "wad number"
                },
                "returns": {
                    "_0": "Converted (non-WAD) value"
                }
            },
            "getBalancesAfterFees(uint256,uint256,uint256)": {
                "details": "Assumes shortBalance + longBalance >= reward",
                "params": {
                    "longBalance": "Long balance of the pool",
                    "reward": "Amount of keeper reward",
                    "shortBalance": "Short balance of the pool"
                },
                "returns": {
                    "_0": "shortBalanceAfterFees Short balance of the pool after the keeper reward has been paid",
                    "_1": "longBalanceAfterFees Long balance of the pool after the keeper reward has been paid"
                }
            },
            "getBurn(bytes16,uint256)": {
                "details": "amount * price, where amount is in PoolToken and price is in USD/PoolTokenThrows if price is zero`getMint()`",
                "params": {
                    "amount": "Amount of settlement tokens being used to burn",
                    "price": "Price of a pool token"
                },
                "returns": {
                    "_0": "Quantity of pool tokens to burn"
                }
            },
            "getLossAmount(bytes16,uint256)": {
                "params": {
                    "balance": "The balance of the losing pool",
                    "lossMultiplier": "The multiplier to use"
                }
            },
            "getLossMultiplier(bytes16,int8,bytes16)": {
                "params": {
                    "direction": "The direction of the change. -1 if it's decreased, 0 if it hasn't changed, and 1 if it's increased",
                    "leverage": "The amount of leverage to apply",
                    "ratio": "The ratio of new price to old price"
                },
                "returns": {
                    "_0": "The multiplier"
                }
            },
            "getMint(bytes16,uint256)": {
                "details": "Throws if price is zero`getBurn()`",
                "params": {
                    "amount": "Amount of settlement tokens being used to mint",
                    "price": "Price of a pool token"
                },
                "returns": {
                    "_0": "Quantity of pool tokens to mint"
                }
            },
            "getMintAmount(uint256,uint256,uint256,uint256)": {
                "details": "Calculated as (tokenSupply + shadowBalance) * amountIn / balance",
                "params": {
                    "amountIn": "Commitment amount of collateral tokens going into the pool",
                    "balance": "Balance of the pool (no. of underlying collateral tokens in pool)",
                    "shadowBalance": "Balance the shadow pool at time of mint",
                    "tokenSupply": "Total supply of pool tokens"
                },
                "returns": {
                    "_0": "Number of pool tokens to be minted"
                }
            },
            "getMintWithBurns(bytes16,bytes16,uint256,uint256)": {
                "details": "Throws if price is zero",
                "params": {
                    "amount": "The amount of settlement tokens being used to mint",
                    "amountBurnedInstantMint": "The amount of pool tokens that were burnt from the opposite side for an instant mint in this side",
                    "oppositePrice": "The price of the opposite side's pool token",
                    "price": "The price of a pool token"
                },
                "returns": {
                    "_0": "Quantity of pool tokens to mint"
                }
            },
            "getPrice(uint256,uint256)": {
                "details": "Divide the side balance by the pool token's total supply",
                "params": {
                    "sideBalance": "no. of underlying collateral tokens on that side of the pool",
                    "tokenSupply": "Total supply of pool tokens"
                }
            },
            "getRatio(uint256,uint256)": {
                "details": "Rounds any overflow towards 0. If either parameter is zero, the ratio is 0",
                "params": {
                    "_denominator": "The \"per part\" side of the equation. If this is zero, the ratio is zero",
                    "_numerator": "The \"parts per\" side of the equation. If this is zero, the ratio is zero"
                },
                "returns": {
                    "_0": "the ratio, as an ABDKMathQuad number (IEEE 754 quadruple precision floating point)"
                }
            },
            "getUpdatedAggregateBalance(PoolSwapLibrary.UpdateData)": {
                "params": {
                    "data": "Information needed for updating the balance including prices and recent commit amounts"
                },
                "returns": {
                    "_longBurnFee": "Quantity of settlement tokens taken as a fee from long burns",
                    "_newLongTokens": "Quantity of additional long tokens the user would receive",
                    "_newSettlementTokens": "Quantity of additional settlement tokens the user would receive",
                    "_newShortTokens": "Quantity of additional short tokens the user would receive",
                    "_shortBurnFee": "Quantity of settlement tokens taken as a fee from short burns"
                }
            },
            "getWithdrawAmountOnBurn(uint256,uint256,uint256,uint256)": {
                "details": "Calculates as `balance * amountIn / (tokenSupply + shadowBalance)",
                "params": {
                    "amountIn": "Commitment amount of pool tokens going into the pool",
                    "balance": "Balance of the pool (no. of underlying collateral tokens in pool)",
                    "shadowBalance": "Balance the shadow pool at time of mint",
                    "tokenSupply": "Total supply of pool tokens"
                },
                "returns": {
                    "_0": "Number of settlement tokens to be withdrawn on a burn"
                }
            },
            "isBeforeFrontRunningInterval(uint256,uint256,uint256,uint256)": {
                "details": "If you try to uncommit AFTER the frontRunningInterval, it should revert.",
                "params": {
                    "frontRunningInterval": "The window of time before a price udpate users can not uncommit or have their commit executed from",
                    "lastPriceTimestamp": "The timestamp of the last price update",
                    "subjectTime": "The timestamp for which you want to calculate if it was beforeFrontRunningInterval",
                    "updateInterval": "The interval between price updates"
                }
            },
            "mulFraction(uint256,uint256,uint256)": {
                "returns": {
                    "_0": "The result as an integer"
                }
            },
            "multiplyDecimalByUInt(bytes16,uint256)": {
                "params": {
                    "a": "The first term",
                    "b": "The second term"
                },
                "returns": {
                    "_0": "The product of a*b as a decimal"
                }
            }
        },
        "title": "Library for various useful (mostly) mathematical functions",
        "version": 1
    },
    "userdoc": {
        "kind": "user",
        "methods": {
            "MAX_DECIMALS()": {
                "notice": "Maximum number of decimal places supported by this contract (ABDKMathQuad defines this but it's private)"
            },
            "WAD_PRECISION()": {
                "notice": "Maximum precision supportable via wad arithmetic (for this contract)"
            },
            "appropriateUpdateIntervalId(uint256,uint256,uint256,uint256,uint256)": {
                "notice": "Calculates the update interval ID that a commitment should be placed in."
            },
            "calculatePriceChange(PoolSwapLibrary.PriceChangeData)": {
                "notice": "Calculates the effect of a price change. This involves calculating how many funds to transfer from the losing pool to the other."
            },
            "compareDecimals(bytes16,bytes16)": {
                "notice": "Compares two decimal numbers"
            },
            "convertDecimalToUInt(bytes16)": {
                "notice": "Converts a raw decimal value to a more readable uint256 value"
            },
            "convertUIntToDecimal(uint256)": {
                "notice": "Converts an integer value to a compatible decimal value"
            },
            "divInt(int256,int256)": {
                "notice": "Divides two integers"
            },
            "fromWad(uint256,uint256)": {
                "notice": "Converts from a WAD to normal value"
            },
            "getBalancesAfterFees(uint256,uint256,uint256)": {
                "notice": "Gets the short and long balances after the keeper rewards have been paid out         Keeper rewards are paid proportionally to the short and long pool"
            },
            "getBurn(bytes16,uint256)": {
                "notice": "Calculate the number of settlement tokens to burn, based on a price and an amount of pool tokens"
            },
            "getLossAmount(bytes16,uint256)": {
                "notice": "Calculates the amount to take from the losing pool"
            },
            "getLossMultiplier(bytes16,int8,bytes16)": {
                "notice": "Calculates the loss multiplier to apply to the losing pool. Includes the power leverage"
            },
            "getMint(bytes16,uint256)": {
                "notice": "Calculates the number of pool tokens to mint, given some settlement token amount and a price"
            },
            "getMintAmount(uint256,uint256,uint256,uint256)": {
                "notice": "Gets the number of pool tokens to be minted based on existing tokens"
            },
            "getMintWithBurns(bytes16,bytes16,uint256,uint256)": {
                "notice": "Calculate the number of pool tokens to mint, given some settlement token amount, a price, and a burn amount from other side for instant mint"
            },
            "getPrice(uint256,uint256)": {
                "notice": "Get the Settlement/PoolToken price, in ABDK IEE754 precision"
            },
            "getRatio(uint256,uint256)": {
                "notice": "Calculates the ratio between two numbers"
            },
            "getUpdatedAggregateBalance(PoolSwapLibrary.UpdateData)": {
                "notice": "Calculate the change in a user's balance based on recent commit(s)"
            },
            "getWithdrawAmountOnBurn(uint256,uint256,uint256,uint256)": {
                "notice": "Gets the number of settlement tokens to be withdrawn based on a pool token burn amount"
            },
            "isBeforeFrontRunningInterval(uint256,uint256,uint256,uint256)": {
                "notice": "Returns true if the given timestamp is BEFORE the frontRunningInterval starts,         which is allowed for uncommitment."
            },
            "mulFraction(uint256,uint256,uint256)": {
                "notice": "Multiply an integer by a fraction"
            },
            "multiplyDecimalByUInt(bytes16,uint256)": {
                "notice": "Multiplies a decimal and an unsigned integer"
            },
            "one()": {
                "notice": "ABDKMathQuad-formatted representation of the number one"
            }
        },
        "version": 1
    },
    "storageLayout": {
        "storage": [],
        "types": null
    }
}