{
    "address": "0x3c08BE365e91272db6CaD4F204B1C7ccBd7640DA",
    "abi": [
        {
            "inputs": [
                {
                    "internalType": "address",
                    "name": "_feeReceiver",
                    "type": "address"
                }
            ],
            "stateMutability": "nonpayable",
            "type": "constructor"
        },
        {
            "anonymous": false,
            "inputs": [
                {
                    "indexed": true,
                    "internalType": "address",
                    "name": "pool",
                    "type": "address"
                },
                {
                    "indexed": false,
                    "internalType": "address",
                    "name": "poolCommitter",
                    "type": "address"
                },
                {
                    "indexed": false,
                    "internalType": "string",
                    "name": "ticker",
                    "type": "string"
                }
            ],
            "name": "DeployPool",
            "type": "event"
        },
        {
            "anonymous": false,
            "inputs": [
                {
                    "indexed": true,
                    "internalType": "address",
                    "name": "previousOwner",
                    "type": "address"
                },
                {
                    "indexed": true,
                    "internalType": "address",
                    "name": "newOwner",
                    "type": "address"
                }
            ],
            "name": "OwnershipTransferred",
            "type": "event"
        },
        {
            "anonymous": false,
            "inputs": [
                {
                    "indexed": false,
                    "internalType": "address",
                    "name": "_poolKeeper",
                    "type": "address"
                }
            ],
            "name": "PoolKeeperChanged",
            "type": "event"
        },
        {
            "inputs": [],
            "name": "autoClaim",
            "outputs": [
                {
                    "internalType": "address",
                    "name": "",
                    "type": "address"
                }
            ],
            "stateMutability": "view",
            "type": "function"
        },
        {
            "inputs": [],
            "name": "burningFee",
            "outputs": [
                {
                    "internalType": "uint256",
                    "name": "",
                    "type": "uint256"
                }
            ],
            "stateMutability": "view",
            "type": "function"
        },
        {
            "inputs": [
                {
                    "components": [
                        {
                            "internalType": "string",
                            "name": "poolName",
                            "type": "string"
                        },
                        {
                            "internalType": "uint32",
                            "name": "frontRunningInterval",
                            "type": "uint32"
                        },
                        {
                            "internalType": "uint32",
                            "name": "updateInterval",
                            "type": "uint32"
                        },
                        {
                            "internalType": "uint16",
                            "name": "leverageAmount",
                            "type": "uint16"
                        },
                        {
                            "internalType": "address",
                            "name": "quoteToken",
                            "type": "address"
                        },
                        {
                            "internalType": "address",
                            "name": "oracleWrapper",
                            "type": "address"
                        },
                        {
                            "internalType": "address",
                            "name": "settlementEthOracle",
                            "type": "address"
                        },
                        {
                            "internalType": "address",
                            "name": "invariantCheckContract",
                            "type": "address"
                        }
                    ],
                    "internalType": "struct IPoolFactory.PoolDeployment",
                    "name": "deploymentParameters",
                    "type": "tuple"
                }
            ],
            "name": "deployPool",
            "outputs": [
                {
                    "internalType": "address",
                    "name": "",
                    "type": "address"
                }
            ],
            "stateMutability": "nonpayable",
            "type": "function"
        },
        {
            "inputs": [],
            "name": "fee",
            "outputs": [
                {
                    "internalType": "uint256",
                    "name": "",
                    "type": "uint256"
                }
            ],
            "stateMutability": "view",
            "type": "function"
        },
        {
            "inputs": [],
            "name": "feeReceiver",
            "outputs": [
                {
                    "internalType": "address",
                    "name": "",
                    "type": "address"
                }
            ],
            "stateMutability": "view",
            "type": "function"
        },
        {
            "inputs": [],
            "name": "getOwner",
            "outputs": [
                {
                    "internalType": "address",
                    "name": "",
                    "type": "address"
                }
            ],
            "stateMutability": "view",
            "type": "function"
        },
        {
            "inputs": [
                {
                    "internalType": "address",
                    "name": "",
                    "type": "address"
                }
            ],
            "name": "isValidPool",
            "outputs": [
                {
                    "internalType": "bool",
                    "name": "",
                    "type": "bool"
                }
            ],
            "stateMutability": "view",
            "type": "function"
        },
        {
            "inputs": [
                {
                    "internalType": "address",
                    "name": "",
                    "type": "address"
                }
            ],
            "name": "isValidPoolCommitter",
            "outputs": [
                {
                    "internalType": "bool",
                    "name": "",
                    "type": "bool"
                }
            ],
            "stateMutability": "view",
            "type": "function"
        },
        {
            "inputs": [],
            "name": "maxLeverage",
            "outputs": [
                {
                    "internalType": "uint16",
                    "name": "",
                    "type": "uint16"
                }
            ],
            "stateMutability": "view",
            "type": "function"
        },
        {
            "inputs": [],
            "name": "mintingFee",
            "outputs": [
                {
                    "internalType": "uint256",
                    "name": "",
                    "type": "uint256"
                }
            ],
            "stateMutability": "view",
            "type": "function"
        },
        {
            "inputs": [],
            "name": "numPools",
            "outputs": [
                {
                    "internalType": "uint256",
                    "name": "",
                    "type": "uint256"
                }
            ],
            "stateMutability": "view",
            "type": "function"
        },
        {
            "inputs": [],
            "name": "owner",
            "outputs": [
                {
                    "internalType": "address",
                    "name": "",
                    "type": "address"
                }
            ],
            "stateMutability": "view",
            "type": "function"
        },
        {
            "inputs": [],
            "name": "pairTokenBase",
            "outputs": [
                {
                    "internalType": "contract PoolToken",
                    "name": "",
                    "type": "address"
                }
            ],
            "stateMutability": "view",
            "type": "function"
        },
        {
            "inputs": [],
            "name": "pairTokenBaseAddress",
            "outputs": [
                {
                    "internalType": "address",
                    "name": "",
                    "type": "address"
                }
            ],
            "stateMutability": "view",
            "type": "function"
        },
        {
            "inputs": [],
            "name": "poolBase",
            "outputs": [
                {
                    "internalType": "contract LeveragedPool",
                    "name": "",
                    "type": "address"
                }
            ],
            "stateMutability": "view",
            "type": "function"
        },
        {
            "inputs": [],
            "name": "poolBaseAddress",
            "outputs": [
                {
                    "internalType": "address",
                    "name": "",
                    "type": "address"
                }
            ],
            "stateMutability": "view",
            "type": "function"
        },
        {
            "inputs": [],
            "name": "poolCommitterBase",
            "outputs": [
                {
                    "internalType": "contract PoolCommitter",
                    "name": "",
                    "type": "address"
                }
            ],
            "stateMutability": "view",
            "type": "function"
        },
        {
            "inputs": [],
            "name": "poolCommitterBaseAddress",
            "outputs": [
                {
                    "internalType": "address",
                    "name": "",
                    "type": "address"
                }
            ],
            "stateMutability": "view",
            "type": "function"
        },
        {
            "inputs": [],
            "name": "poolKeeper",
            "outputs": [
                {
                    "internalType": "contract IPoolKeeper",
                    "name": "",
                    "type": "address"
                }
            ],
            "stateMutability": "view",
            "type": "function"
        },
        {
            "inputs": [
                {
                    "internalType": "uint256",
                    "name": "",
                    "type": "uint256"
                }
            ],
            "name": "pools",
            "outputs": [
                {
                    "internalType": "address",
                    "name": "",
                    "type": "address"
                }
            ],
            "stateMutability": "view",
            "type": "function"
        },
        {
            "inputs": [],
            "name": "renounceOwnership",
            "outputs": [],
            "stateMutability": "nonpayable",
            "type": "function"
        },
        {
            "inputs": [],
            "name": "secondaryFeeSplitPercent",
            "outputs": [
                {
                    "internalType": "uint256",
                    "name": "",
                    "type": "uint256"
                }
            ],
            "stateMutability": "view",
            "type": "function"
        },
        {
            "inputs": [
                {
                    "internalType": "address",
                    "name": "_autoClaim",
                    "type": "address"
                }
            ],
            "name": "setAutoClaim",
            "outputs": [],
            "stateMutability": "nonpayable",
            "type": "function"
        },
        {
            "inputs": [
                {
                    "internalType": "uint256",
                    "name": "_fee",
                    "type": "uint256"
                }
            ],
            "name": "setFee",
            "outputs": [],
            "stateMutability": "nonpayable",
            "type": "function"
        },
        {
            "inputs": [
                {
                    "internalType": "address",
                    "name": "_feeReceiver",
                    "type": "address"
                }
            ],
            "name": "setFeeReceiver",
            "outputs": [],
            "stateMutability": "nonpayable",
            "type": "function"
        },
        {
            "inputs": [
                {
                    "internalType": "uint16",
                    "name": "newMaxLeverage",
                    "type": "uint16"
                }
            ],
            "name": "setMaxLeverage",
            "outputs": [],
            "stateMutability": "nonpayable",
            "type": "function"
        },
        {
            "inputs": [
                {
                    "internalType": "uint256",
                    "name": "_mintingFee",
                    "type": "uint256"
                },
                {
                    "internalType": "uint256",
                    "name": "_burningFee",
                    "type": "uint256"
                }
            ],
            "name": "setMintAndBurnFee",
            "outputs": [],
            "stateMutability": "nonpayable",
            "type": "function"
        },
        {
            "inputs": [
                {
                    "internalType": "address",
                    "name": "_poolKeeper",
                    "type": "address"
                }
            ],
            "name": "setPoolKeeper",
            "outputs": [],
            "stateMutability": "nonpayable",
            "type": "function"
        },
        {
            "inputs": [
                {
                    "internalType": "uint256",
                    "name": "newFeePercent",
                    "type": "uint256"
                }
            ],
            "name": "setSecondaryFeeSplitPercent",
            "outputs": [],
            "stateMutability": "nonpayable",
            "type": "function"
        },
        {
            "inputs": [
                {
                    "internalType": "address",
                    "name": "newOwner",
                    "type": "address"
                }
            ],
            "name": "transferOwnership",
            "outputs": [],
            "stateMutability": "nonpayable",
            "type": "function"
        }
    ],
    "transactionHash": "0xaf78eb0b629f15cfc28b4f2abd4e5f52b0ba7b92d2f42ddfb303f7333de42cdd",
    "args": [
        "0x0f79e82aE88E1318B8cfC8b4A205fE2F982B928A"
    ],
    "solcInputHash": "2618b71259c48e264b944568d24817df",
    "bytecode": "0x60e0604052600a6008819055600b805461ffff191690911790553480156200002657600080fd5b506040516200b2943803806200b29483398101604081905262000049916200044b565b6200005433620003d1565b6001600160a01b038116620000af5760405162461bcd60e51b815260206004820152601660248201527f416464726573732063616e6e6f74206265206e756c6c00000000000000000000604482015260640160405180910390fd5b6012604051620000bf9062000421565b60ff9091168152602001604051809103906000f080158015620000e6573d6000803e3d6000fd5b50600180546001600160a01b0319166001600160a01b03831617905560601b6001600160601b03191660805260405162000120906200042f565b604051809103906000f0801580156200013d573d6000803e3d6000fd5b50600280546001600160a01b0319166001600160a01b03831617905560601b6001600160601b03191660a052604051309081908190600090819062000182906200043d565b6001600160a01b03958616815293851660208501529390911660408301526060820152608081019190915260a001604051809103906000f080158015620001cd573d6000803e3d6000fd5b50600480546001600160a01b0319166001600160a01b03838116919091178255606092831b6001600160601b03191660c090815260408051610220810182523080825260208083018290528284018290529682018190526080820181905260a0820181905292810183905260e08101839052815180830183526009815268109054d157d413d3d360ba1b96810196909652610100810195909552600f610120860152601e6101408601526000610160860181905260016101808701526101a086018390526101c08601526101e08501919091526008546102008501526002549051630129011d60e41b815291169163129011d091620002cf91859101620004cd565b600060405180830381600087803b158015620002ea57600080fd5b505af1158015620002ff573d6000803e3d6000fd5b5050600154604051637b69774360e11b81523060048083019190915260806024830152600a6084830152692120a9a2afaa27a5a2a760b11b60a483015260c0604483015260c4820152634241534560e01b60e4820152601260648201526001600160a01b03909116925063f6d2ee86915061010401600060405180830381600087803b1580156200038f57600080fd5b505af1158015620003a4573d6000803e3d6000fd5b5050600680546001600160a01b0319166001600160a01b0395909516949094179093555062000671915050565b600080546001600160a01b038381166001600160a01b0319831681178455604051919092169283917f8be0079c531659141344cd1fd0a4f28419497f9722a3daafe3b4186f6b6457e09190a35050565b611210806200235d83390190565b6133a3806200356d83390190565b614984806200691083390190565b6000602082840312156200045e57600080fd5b81516001600160a01b03811681146200047657600080fd5b9392505050565b6000815180845260005b81811015620004a55760208185018101518683018201520162000487565b81811115620004b8576000602083870101525b50601f01601f19169290920160200192915050565b60208152620004e86020820183516001600160a01b03169052565b600060208301516200050560408401826001600160a01b03169052565b5060408301516001600160a01b03811660608401525060608301516001600160a01b03811660808401525060808301516001600160a01b03811660a08401525060a08301516001600160a01b03811660c08401525060c08301516001600160a01b03811660e08401525060e08301516101006200058c818501836001600160a01b03169052565b808501519150506102206101208181860152620005ae6102408601846200047d565b90860151909250610140620005ca8682018363ffffffff169052565b8601519050610160620005e48682018363ffffffff169052565b8601519050610180620005fc8682018361ffff169052565b8601516101a08681019190915286015190506101c062000626818701836001600160a01b03169052565b86015190506101e062000643868201836001600160a01b03169052565b860151905061020062000660868201836001600160a01b03169052565b959095015193019290925250919050565b60805160601c60a05160601c60c05160601c611c9e620006bf600039600081816103f9015261096001526000818161043c0152610b9b01526000818161025c01526113fb0152611c9e6000f3fe608060405234801561001057600080fd5b50600436106101da5760003560e01c80638da5cb5b11610104578063c70db323116100a2578063ddca3f4311610071578063ddca3f431461042e578063ed3f7e2614610437578063efdcd9741461045e578063f2fde38b1461047157600080fd5b8063c70db323146103ce578063d1df8a68146103e1578063d3394714146103f4578063d723c68b1461041b57600080fd5b8063ac4afa38116100de578063ac4afa381461035e578063ae3302c214610387578063b3f00674146103a8578063be51ce47146103bb57600080fd5b80638da5cb5b1461033157806390f712cc146103425780639238d14b1461034b57600080fd5b80635a64ad951161017c57806369fe0e2d1161014b57806369fe0e2d14610303578063715018a61461031657806379bc61821461031e578063893d20e81461033157600080fd5b80635a64ad95146102b15780635ab78ee1146102ba5780635bae377a146102dd578063616e5790146102f057600080fd5b806335c62bc2116101b857806335c62bc21461023b578063430ed6eb146102445780634690092c1461025757806359e86a991461027e57600080fd5b806303850dbb146101df5780630679d362146101fb578063178f9e3514610210575b600080fd5b6101e860085481565b6040519081526020015b60405180910390f35b61020e6102093660046115d4565b610484565b005b600354610223906001600160a01b031681565b6040516001600160a01b0390911681526020016101f2565b6101e8600d5481565b61020e610252366004611557565b61052d565b6102237f000000000000000000000000000000000000000000000000000000000000000081565b6102a161028c366004611557565b600f6020526000908152604090205460ff1681565b60405190151581526020016101f2565b6101e860095481565b6102a16102c8366004611557565b600e6020526000908152604090205460ff1681565b600254610223906001600160a01b031681565b61020e6102fe3660046115ef565b61059f565b61020e6103113660046115ef565b61062e565b61020e610685565b61020e61032c366004611557565b6106bb565b6000546001600160a01b0316610223565b6101e8600a5481565b61020e610359366004611608565b61072d565b61022361036c3660046115ef565b600c602052600090815260409020546001600160a01b031681565b600b546103959061ffff1681565b60405161ffff90911681526020016101f2565b600654610223906001600160a01b031681565b6102236103c9366004611598565b6107b2565b600554610223906001600160a01b031681565b600454610223906001600160a01b031681565b6102237f000000000000000000000000000000000000000000000000000000000000000081565b600154610223906001600160a01b031681565b6101e860075481565b6102237f000000000000000000000000000000000000000000000000000000000000000081565b61020e61046c366004611557565b611008565b61020e61047f366004611557565b61107a565b6000546001600160a01b031633146104b75760405162461bcd60e51b81526004016104ae90611799565b60405180910390fd5b60008161ffff16116105155760405162461bcd60e51b815260206004820152602160248201527f4d6178696d756d206c65766572616765206d757374206265206e6f6e2d7a65726044820152606f60f81b60648201526084016104ae565b600b805461ffff191661ffff92909216919091179055565b6000546001600160a01b031633146105575760405162461bcd60e51b81526004016104ae90611799565b6001600160a01b03811661057d5760405162461bcd60e51b81526004016104ae906117fb565b600380546001600160a01b0319166001600160a01b0392909216919091179055565b6000546001600160a01b031633146105c95760405162461bcd60e51b81526004016104ae90611799565b60648111156106295760405162461bcd60e51b815260206004820152602660248201527f5365636f6e64617279206665652073706c69742063616e6e6f7420657863656560448201526564203130302560d01b60648201526084016104ae565b600855565b6000546001600160a01b031633146106585760405162461bcd60e51b81526004016104ae90611799565b67016345785d8a00008111156106805760405162461bcd60e51b81526004016104ae906117ce565b600755565b6000546001600160a01b031633146106af5760405162461bcd60e51b81526004016104ae90611799565b6106b96000611115565b565b6000546001600160a01b031633146106e55760405162461bcd60e51b81526004016104ae90611799565b6001600160a01b03811661070b5760405162461bcd60e51b81526004016104ae906117fb565b600580546001600160a01b0319166001600160a01b0392909216919091179055565b6000546001600160a01b031633146107575760405162461bcd60e51b81526004016104ae90611799565b67016345785d8a000082111561077f5760405162461bcd60e51b81526004016104ae906117ce565b67016345785d8a00008111156107a75760405162461bcd60e51b81526004016104ae906117ce565b600991909155600a55565b6003546000906001600160a01b0316806108035760405162461bcd60e51b8152602060048201526012602482015271141bdbdb12d9595c195c881b9bdd081cd95d60721b60448201526064016104ae565b3361081460c0850160a08601611557565b6001600160a01b031663d5f394886040518163ffffffff1660e01b815260040160206040518083038186803b15801561084c57600080fd5b505afa158015610860573d6000803e3d6000fd5b505050506040513d601f19601f82011682018060405250810190610884919061157b565b6001600160a01b0316146108e85760405162461bcd60e51b815260206004820152602560248201527f4465706c6f796572206d757374206265206f7261636c6520777261707065722060448201526437bbb732b960d91b60648201526084016104ae565b60006108fa60808501606086016115d4565b61090a60a0860160808701611557565b61091a60c0870160a08801611557565b6040805161ffff90941660208501526001600160a01b039283169084015216606082015260800160405160208183030381529060405280519060200120905060006109857f000000000000000000000000000000000000000000000000000000000000000083611165565b90506001600160a01b03811663a6b63eb8306109a8610100890160e08a01611557565b600554600954600a5460405160e087901b6001600160e01b03191681526001600160a01b03958616600482015293851660248501529390911660448301526064820152608481019190915260a401600060405180830381600087803b158015610a1057600080fd5b505af1158015610a24573d6000803e3d6000fd5b5083925060019150610a3e905060808801606089016115d4565b61ffff1610158015610a695750600b5461ffff16610a6260808801606089016115d4565b61ffff1611155b610ac15760405162461bcd60e51b8152602060048201526024808201527f506f6f6c4b65657065723a206c657665726167656420616d6f756e7420696e76604482015263185b1a5960e21b60648201526084016104ae565b6012610ad360a0880160808901611557565b6001600160a01b031663313ce5676040518163ffffffff1660e01b815260040160206040518083038186803b158015610b0b57600080fd5b505afa158015610b1f573d6000803e3d6000fd5b505050506040513d601f19601f82011682018060405250810190610b439190611645565b60ff161115610b945760405162461bcd60e51b815260206004820152601a60248201527f446563696d616c20707265636973696f6e20746f6f206869676800000000000060448201526064016104ae565b6000610bc07f000000000000000000000000000000000000000000000000000000000000000085611165565b9050806001600160a01b0381167f82f5ba2b59209e8b2008e0addf2c8502bf23175cfee67125b2562302ce9823b984610bf98b80611a04565b604051610c089392919061170e565b60405180910390a26000610c2e610c2560808b0160608c016115d4565b61ffff1661120b565b90506000604051806102200160405280610c506000546001600160a01b031690565b6001600160a01b0390811682528a166020820152604001610c7760c08d0160a08e01611557565b6001600160a01b03168152602001610c9560e08d0160c08e01611557565b6001600160a01b03168152602001610cd18585610cb18f611ade565b604051806040016040528060028152602001614c2d60f01b815250611311565b6001600160a01b03168152602001610d0d8585610ced8f611ade565b60405180604001604052806002815260200161532d60f01b815250611311565b6001600160a01b03908116825287166020820152604001610d356101008d0160e08e01611557565b6001600160a01b0316815260200183610d4e8d80611a04565b604051602001610d60939291906116d7565b60405160208183030381529060405281526020018b6020016020810190610d87919061162a565b63ffffffff168152602001610da260608d0160408e0161162a565b63ffffffff168152602001610dbd60808d0160608e016115d4565b61ffff1681526020016301e13380610ddb60608e0160408f0161162a565b63ffffffff16600754610dee9190611aa8565b610df89190611a94565b81526006546001600160a01b03166020820152336040820152606001610e2460a08d0160808e01611557565b6001600160a01b031681526020016008548152509050836001600160a01b031663129011d0826040518263ffffffff1660e01b8152600401610e66919061182b565b600060405180830381600087803b158015610e8057600080fd5b505af1158015610e94573d6000803e3d6000fd5b5050506001600160a01b038616905063fd555fb9610eb860a08d0160808e01611557565b6040516001600160e01b031960e084901b1681526001600160a01b0391821660048201529086166024820152604401600060405180830381600087803b158015610f0157600080fd5b505af1158015610f15573d6000803e3d6000fd5b5050600354604051633c5c7fb360e01b81526001600160a01b0387811660048301529091169250633c5c7fb39150602401600060405180830381600087803b158015610f6057600080fd5b505af1158015610f74573d6000803e3d6000fd5b5050600d80546000908152600c6020526040812080546001600160a01b0319166001600160a01b03891617905581546001945091925090610fb6908490611a7c565b909155505050506001600160a01b038181166000908152600e602090815260408083208054600160ff199182168117909255979094168352600f90915290208054909416179092555095945050505050565b6000546001600160a01b031633146110325760405162461bcd60e51b81526004016104ae90611799565b6001600160a01b0381166110585760405162461bcd60e51b81526004016104ae906117fb565b600680546001600160a01b0319166001600160a01b0392909216919091179055565b6000546001600160a01b031633146110a45760405162461bcd60e51b81526004016104ae90611799565b6001600160a01b0381166111095760405162461bcd60e51b815260206004820152602660248201527f4f776e61626c653a206e6577206f776e657220697320746865207a65726f206160448201526564647265737360d01b60648201526084016104ae565b61111281611115565b50565b600080546001600160a01b038381166001600160a01b0319831681178455604051919092169283917f8be0079c531659141344cd1fd0a4f28419497f9722a3daafe3b4186f6b6457e09190a35050565b6000604051733d602d80600a3d3981f3363d3d373d3d3d363d7360601b81528360601b60148201526e5af43d82803e903d91602b57fd5bf360881b6028820152826037826000f59150506001600160a01b0381166112055760405162461bcd60e51b815260206004820152601760248201527f455243313136373a2063726561746532206661696c656400000000000000000060448201526064016104ae565b92915050565b60608161122f5750506040805180820190915260018152600360fc1b602082015290565b8160005b8115611259578061124381611bcc565b91506112529050600a83611a94565b9150611233565b60008167ffffffffffffffff81111561127457611274611c3d565b6040519080825280601f01601f19166020018201604052801561129e576020820181803683370190505b5090505b8415611309576112b3600183611ac7565b91506112c0600a86611be7565b6112cb906030611a7c565b60f81b8183815181106112e0576112e0611c27565b60200101906001600160f81b031916908160001a905350611302600a86611a94565b94506112a2565b949350505050565b6000808483856000015160405160200161132d93929190611694565b6040516020818303038152906040529050600084608001516001600160a01b031663313ce5676040518163ffffffff1660e01b815260040160206040518083038186803b15801561137d57600080fd5b505afa158015611391573d6000803e3d6000fd5b505050506040513d601f19601f820116820180604052508101906113b59190611645565b90506000856060015186608001518760a00151876040516020016113dc94939291906119c4565b60405160208183030381529060405280519060200120905060006114207f000000000000000000000000000000000000000000000000000000000000000083611165565b604051637b69774360e11b81529091506001600160a01b0382169063f6d2ee8690611455908c9088908190899060040161174e565b600060405180830381600087803b15801561146f57600080fd5b505af1158015611483573d6000803e3d6000fd5b50929b9a5050505050505050505050565b803561149f81611c53565b919050565b600082601f8301126114b557600080fd5b813567ffffffffffffffff808211156114d0576114d0611c3d565b604051601f8301601f19908116603f011681019082821181831017156114f8576114f8611c3d565b8160405283815286602085880101111561151157600080fd5b836020870160208301376000602085830101528094505050505092915050565b803561ffff8116811461149f57600080fd5b803563ffffffff8116811461149f57600080fd5b60006020828403121561156957600080fd5b813561157481611c53565b9392505050565b60006020828403121561158d57600080fd5b815161157481611c53565b6000602082840312156115aa57600080fd5b813567ffffffffffffffff8111156115c157600080fd5b8201610100818503121561157457600080fd5b6000602082840312156115e657600080fd5b61157482611531565b60006020828403121561160157600080fd5b5035919050565b6000806040838503121561161b57600080fd5b50508035926020909101359150565b60006020828403121561163c57600080fd5b61157482611543565b60006020828403121561165757600080fd5b815160ff8116811461157457600080fd5b60008151808452611680816020860160208601611b9c565b601f01601f19169290920160200192915050565b600084516116a6818460208901611b9c565b8451908301906116ba818360208901611b9c565b84519101906116cd818360208801611b9c565b0195945050505050565b600084516116e9818460208901611b9c565b602d60f81b908301908152838560018301376000930160010192835250909392505050565b6001600160a01b03841681526040602082018190528101829052818360608301376000818301606090810191909152601f909201601f1916010192915050565b6001600160a01b038516815260806020820181905260009061177290830186611668565b82810360408401526117848186611668565b91505060ff8316606083015295945050505050565b6020808252818101527f4f776e61626c653a2063616c6c6572206973206e6f7420746865206f776e6572604082015260600190565b6020808252601390820152724665652063616e6e6f74206265203e2031302560681b604082015260600190565b6020808252601690820152751859191c995cdcc818d85b9b9bdd081899481b9d5b1b60521b604082015260600190565b602081526118456020820183516001600160a01b03169052565b6000602083015161186160408401826001600160a01b03169052565b5060408301516001600160a01b03811660608401525060608301516001600160a01b03811660808401525060808301516001600160a01b03811660a08401525060a08301516001600160a01b03811660c08401525060c08301516001600160a01b03811660e08401525060e08301516101006118e7818501836001600160a01b03169052565b808501519150506102206101208181860152611907610240860184611668565b908601519092506101406119228682018363ffffffff169052565b860151905061016061193b8682018363ffffffff169052565b86015190506101806119528682018361ffff169052565b8601516101a08681019190915286015190506101c061197b818701836001600160a01b03169052565b86015190506101e0611997868201836001600160a01b03169052565b86015190506102006119b3868201836001600160a01b03169052565b959095015193019290925250919050565b61ffff851681526001600160a01b038481166020830152831660408201526080606082018190526000906119fa90830184611668565b9695505050505050565b6000808335601e19843603018112611a1b57600080fd5b83018035915067ffffffffffffffff821115611a3657600080fd5b602001915036819003821315611a4b57600080fd5b9250929050565b604051610100810167ffffffffffffffff81118282101715611a7657611a76611c3d565b60405290565b60008219821115611a8f57611a8f611bfb565b500190565b600082611aa357611aa3611c11565b500490565b6000816000190483118215151615611ac257611ac2611bfb565b500290565b600082821015611ad957611ad9611bfb565b500390565b60006101008236031215611af157600080fd5b611af9611a52565b823567ffffffffffffffff811115611b1057600080fd5b611b1c368286016114a4565b825250611b2b60208401611543565b6020820152611b3c60408401611543565b6040820152611b4d60608401611531565b6060820152611b5e60808401611494565b6080820152611b6f60a08401611494565b60a0820152611b8060c08401611494565b60c0820152611b9160e08401611494565b60e082015292915050565b60005b83811015611bb7578181015183820152602001611b9f565b83811115611bc6576000848401525b50505050565b6000600019821415611be057611be0611bfb565b5060010190565b600082611bf657611bf6611c11565b500690565b634e487b7160e01b600052601160045260246000fd5b634e487b7160e01b600052601260045260246000fd5b634e487b7160e01b600052603260045260246000fd5b634e487b7160e01b600052604160045260246000fd5b6001600160a01b038116811461111257600080fdfea264697066735822122029a7918cac32f186deb67a4c6237d399fd84a7d5588598c3863decedad4c103664736f6c6343000807003360806040523480156200001157600080fd5b506040516200121038038062001210833981016040819052620000349162000175565b6040518060400160405280600a8152602001692120a9a2afaa27a5a2a760b11b815250604051806040016040528060048152602001634241534560e01b81525082828281600390805190602001906200008f929190620000cf565b508051620000a5906004906020840190620000cf565b50506005805460ff909316620100000262ff0000199093169290921790915550620001de92505050565b828054620000dd90620001a1565b90600052602060002090601f0160209004810192826200010157600085556200014c565b82601f106200011c57805160ff19168380011785556200014c565b828001600101855582156200014c579182015b828111156200014c5782518255916020019190600101906200012f565b506200015a9291506200015e565b5090565b5b808211156200015a57600081556001016200015f565b6000602082840312156200018857600080fd5b815160ff811681146200019a57600080fd5b9392505050565b600181811c90821680620001b657607f821691505b60208210811415620001d857634e487b7160e01b600052602260045260246000fd5b50919050565b61102280620001ee6000396000f3fe608060405234801561001057600080fd5b50600436106101005760003560e01c806394bf804d11610097578063dd62ed3e11610066578063dd62ed3e14610231578063f2fde38b1461026a578063f6d2ee861461027f578063fcd3533c1461029257600080fd5b806394bf804d146101f057806395d89b4114610203578063a457c2d71461020b578063a9059cbb1461021e57600080fd5b8063313ce567116100d3578063313ce5671461016b578063395093511461018957806370a082311461019c5780638da5cb5b146101c557600080fd5b806306fdde0314610105578063095ea7b31461012357806318160ddd1461014657806323b872dd14610158575b600080fd5b61010d6102a5565b60405161011a9190610ed3565b60405180910390f35b610136610131366004610e86565b610337565b604051901515815260200161011a565b6002545b60405190815260200161011a565b610136610166366004610dbd565b61034d565b60055462010000900460ff1660405160ff909116815260200161011a565b610136610197366004610e86565b6103fc565b61014a6101aa366004610d68565b6001600160a01b031660009081526020819052604090205490565b6008546101d8906001600160a01b031681565b6040516001600160a01b03909116815260200161011a565b6101366101fe366004610eb0565b610438565b61010d61046f565b610136610219366004610e86565b61047e565b61013661022c366004610e86565b610517565b61014a61023f366004610d8a565b6001600160a01b03918216600090815260016020908152604080832093909416825291909152205490565b61027d610278366004610d68565b610524565b005b61027d61028d366004610df9565b6105c6565b6101366102a0366004610eb0565b6106d6565b6060600680546102b490610f85565b80601f01602080910402602001604051908101604052809291908181526020018280546102e090610f85565b801561032d5780601f106103025761010080835404028352916020019161032d565b820191906000526020600020905b81548152906001019060200180831161031057829003601f168201915b5050505050905090565b600061034433848461070d565b50600192915050565b600061035a848484610832565b6001600160a01b0384166000908152600160209081526040808320338452909152902054828110156103e45760405162461bcd60e51b815260206004820152602860248201527f45524332303a207472616e7366657220616d6f756e74206578636565647320616044820152676c6c6f77616e636560c01b60648201526084015b60405180910390fd5b6103f1853385840361070d565b506001949350505050565b3360008181526001602090815260408083206001600160a01b03871684529091528120549091610344918590610433908690610f56565b61070d565b6008546000906001600160a01b031633146104655760405162461bcd60e51b81526004016103db90610f28565b6103448284610a01565b6060600780546102b490610f85565b3360009081526001602090815260408083206001600160a01b0386168452909152812054828110156105005760405162461bcd60e51b815260206004820152602560248201527f45524332303a2064656372656173656420616c6c6f77616e63652062656c6f77604482015264207a65726f60d81b60648201526084016103db565b61050d338585840361070d565b5060019392505050565b6000610344338484610832565b6008546001600160a01b0316331461054e5760405162461bcd60e51b81526004016103db90610f28565b6001600160a01b0381166105a45760405162461bcd60e51b815260206004820152601b60248201527f4f776e65723a2073657474696e6720746f20302061646472657373000000000060448201526064016103db565b600880546001600160a01b0319166001600160a01b0392909216919091179055565b600554610100900460ff16806105df575060055460ff16155b6106425760405162461bcd60e51b815260206004820152602e60248201527f496e697469616c697a61626c653a20636f6e747261637420697320616c72656160448201526d191e481a5b9a5d1a585b1a5e995960921b60648201526084016103db565b600554610100900460ff16158015610664576005805461ffff19166101011790555b600880546001600160a01b0319166001600160a01b0387161790558351610692906006906020870190610c26565b5082516106a6906007906020860190610c26565b506005805462ff000019166201000060ff85160217905580156106cf576005805461ff00191690555b5050505050565b6008546000906001600160a01b031633146107035760405162461bcd60e51b81526004016103db90610f28565b6103448284610ae0565b6001600160a01b03831661076f5760405162461bcd60e51b8152602060048201526024808201527f45524332303a20617070726f76652066726f6d20746865207a65726f206164646044820152637265737360e01b60648201526084016103db565b6001600160a01b0382166107d05760405162461bcd60e51b815260206004820152602260248201527f45524332303a20617070726f766520746f20746865207a65726f206164647265604482015261737360f01b60648201526084016103db565b6001600160a01b0383811660008181526001602090815260408083209487168084529482529182902085905590518481527f8c5be1e5ebec7d5bd14f71427d1e84f3dd0314c0f7b2291e5b200ac8c7c3b92591015b60405180910390a3505050565b6001600160a01b0383166108965760405162461bcd60e51b815260206004820152602560248201527f45524332303a207472616e736665722066726f6d20746865207a65726f206164604482015264647265737360d81b60648201526084016103db565b6001600160a01b0382166108f85760405162461bcd60e51b815260206004820152602360248201527f45524332303a207472616e7366657220746f20746865207a65726f206164647260448201526265737360e81b60648201526084016103db565b6001600160a01b038316600090815260208190526040902054818110156109705760405162461bcd60e51b815260206004820152602660248201527f45524332303a207472616e7366657220616d6f756e7420657863656564732062604482015265616c616e636560d01b60648201526084016103db565b6001600160a01b038085166000908152602081905260408082208585039055918516815290812080548492906109a7908490610f56565b92505081905550826001600160a01b0316846001600160a01b03167fddf252ad1be2c89b69c2b068fc378daa952ba7f163c4a11628f55a4df523b3ef846040516109f391815260200190565b60405180910390a350505050565b6001600160a01b038216610a575760405162461bcd60e51b815260206004820152601f60248201527f45524332303a206d696e7420746f20746865207a65726f20616464726573730060448201526064016103db565b8060026000828254610a699190610f56565b90915550506001600160a01b03821660009081526020819052604081208054839290610a96908490610f56565b90915550506040518181526001600160a01b038316906000907fddf252ad1be2c89b69c2b068fc378daa952ba7f163c4a11628f55a4df523b3ef9060200160405180910390a35050565b6001600160a01b038216610b405760405162461bcd60e51b815260206004820152602160248201527f45524332303a206275726e2066726f6d20746865207a65726f206164647265736044820152607360f81b60648201526084016103db565b6001600160a01b03821660009081526020819052604090205481811015610bb45760405162461bcd60e51b815260206004820152602260248201527f45524332303a206275726e20616d6f756e7420657863656564732062616c616e604482015261636560f01b60648201526084016103db565b6001600160a01b0383166000908152602081905260408120838303905560028054849290610be3908490610f6e565b90915550506040518281526000906001600160a01b038516907fddf252ad1be2c89b69c2b068fc378daa952ba7f163c4a11628f55a4df523b3ef90602001610825565b828054610c3290610f85565b90600052602060002090601f016020900481019282610c545760008555610c9a565b82601f10610c6d57805160ff1916838001178555610c9a565b82800160010185558215610c9a579182015b82811115610c9a578251825591602001919060010190610c7f565b50610ca6929150610caa565b5090565b5b80821115610ca65760008155600101610cab565b80356001600160a01b0381168114610cd657600080fd5b919050565b600082601f830112610cec57600080fd5b813567ffffffffffffffff80821115610d0757610d07610fd6565b604051601f8301601f19908116603f01168101908282118183101715610d2f57610d2f610fd6565b81604052838152866020858801011115610d4857600080fd5b836020870160208301376000602085830101528094505050505092915050565b600060208284031215610d7a57600080fd5b610d8382610cbf565b9392505050565b60008060408385031215610d9d57600080fd5b610da683610cbf565b9150610db460208401610cbf565b90509250929050565b600080600060608486031215610dd257600080fd5b610ddb84610cbf565b9250610de960208501610cbf565b9150604084013590509250925092565b60008060008060808587031215610e0f57600080fd5b610e1885610cbf565b9350602085013567ffffffffffffffff80821115610e3557600080fd5b610e4188838901610cdb565b94506040870135915080821115610e5757600080fd5b50610e6487828801610cdb565b925050606085013560ff81168114610e7b57600080fd5b939692955090935050565b60008060408385031215610e9957600080fd5b610ea283610cbf565b946020939093013593505050565b60008060408385031215610ec357600080fd5b82359150610db460208401610cbf565b600060208083528351808285015260005b81811015610f0057858101830151858201604001528201610ee4565b81811115610f12576000604083870101525b50601f01601f1916929092016040019392505050565b60208082526014908201527336b9b39739b2b73232b9103737ba1037bbb732b960611b604082015260600190565b60008219821115610f6957610f69610fc0565b500190565b600082821015610f8057610f80610fc0565b500390565b600181811c90821680610f9957607f821691505b60208210811415610fba57634e487b7160e01b600052602260045260246000fd5b50919050565b634e487b7160e01b600052601160045260246000fd5b634e487b7160e01b600052604160045260246000fdfea26469706673582212207c87cda234a81f67da55383e6777723cd02e3646c72a9ac54ed0abd1942c4c2864736f6c63430008070033608060405234801561001057600080fd5b50613383806100206000396000f3fe608060405234801561001057600080fd5b50600436106102955760003560e01c80637bbf103311610167578063bbcaac38116100ce578063ddca3f4311610087578063ddca3f43146105ad578063e3d346cd146105c1578063f164e2a7146105d4578063f3466dfa146105e8578063f633a740146105fd578063fd2c80ae1461061057600080fd5b8063bbcaac3814610546578063c40f6aa914610559578063cd39f30f14610561578063cfe49eba14610574578063d38bfff414610587578063d4ab77ae1461059a57600080fd5b80639fd55245116101205780639fd55245146104cb578063a9b96d4c146104de578063ab47c2b3146104f1578063aced166114610517578063b9ed8abf1461052a578063ba8d54681461053d57600080fd5b80637bbf10331461045b5780637bfe789a146104795780637de93f931461049e5780637e71fc7d146104a75780638226f396146104b05780638456cb59146104c357600080fd5b80634f64b2be1161020b5780636dc2b271116101c45780636dc2b271146103ec578063748747e6146103ff57806375a024a214610412578063796da7af146104255780637b0a0c901461042d5780637bb98a681461044057600080fd5b80634f64b2be146103725780635817f0c6146103855780635aa6e675146103985780635c975abb146103ab5780635d36b190146103cf5780636d3e313e146103d757600080fd5b8063217a4b701161025d578063217a4b70146102fe5780633c3f8252146103295780633d4c485d1461033c5780633f4ba83a14610344578063412753581461034c5780634509017e1461035f57600080fd5b806303850dbb1461029a57806304883c27146102b6578063062e0d69146102ce578063110b1bed146102d6578063129011d0146102eb575b600080fd5b6102a360095481565b6040519081526020015b60405180910390f35b6102be610628565b6040516102ad9493929190613114565b6102a3600081565b6102e96102e4366004612de5565b6106e0565b005b6102e96102f9366004612f61565b6107d1565b600a54610311906001600160a01b031681565b6040516001600160a01b0390911681526020016102ad565b6102e9610337366004612f3f565b61120f565b6102e96112cd565b6102e96113d9565b600754610311906001600160a01b031681565b601054610311906001600160a01b031681565b610311610380366004612fc1565b61143b565b6102e9610393366004612d9e565b61145b565b600554610311906001600160a01b031681565b6005546103bf90600160a01b900460ff1681565b60405190151581526020016102ad565b6102e9611525565b6103df6116ec565b6040516102ad91906130da565b6103bf6103fa366004612d9e565b611730565b6102e961040d366004612d47565b611923565b6102e9610420366004612d47565b611ab4565b6102a3611b1d565b6102e961043b366004612d62565b611b9f565b600154600254604080519283526020830191909152016102ad565b60035460135464010000000090910463ffffffff16014210156103bf565b6003546104899063ffffffff1681565b60405163ffffffff90911681526020016102ad565b6102a360135481565b6102a360025481565b600d54610311906001600160a01b031681565b6102e9611c6a565b600e54610311906001600160a01b031681565b600f54610311906001600160a01b031681565b6004546104fe9060801b81565b6040516001600160801b031990911681526020016102ad565b600654610311906001600160a01b031681565b600c54610311906001600160a01b031681565b6102a360015481565b6102e9610554366004612d47565b611d10565b6102a3600181565b600b54610311906001600160a01b031681565b6102e9610582366004612e05565b611e39565b6102e9610595366004612d47565b6120a1565b6102e96105a8366004612e05565b6121e5565b6003546104fe90600160401b900460801b81565b600854610311906001600160a01b031681565b6006546103bf90600160a01b900460ff1681565b6105f06123ac565b6040516102ad9190613140565b6102e961060b366004612f3f565b61243a565b60035461048990640100000000900463ffffffff1681565b60006060600080600080600c60009054906101000a90046001600160a01b03166001600160a01b031663db6d8fcf6040518163ffffffff1660e01b815260040160006040518083038186803b15801561068057600080fd5b505afa158015610694573d6000803e3d6000fd5b505050506040513d6000823e601f3d908101601f191682016040526106bc9190810190612e86565b6013546003549299919850965064010000000090910463ffffffff16945092505050565b600b546001600160a01b031633146107135760405162461bcd60e51b815260040161070a906131c1565b60405180910390fd5b601054604051632781e7f160e21b81523060048201526001600160a01b0390911690639e079fc490602401600060405180830381600087803b15801561075857600080fd5b505af115801561076c573d6000803e3d6000fd5b5050600554600160a01b900460ff1615915061079c90505760405162461bcd60e51b815260040161070a90613199565b82156107c3576107be8282601160005b01546001600160a01b0316919061261a565b505050565b6107be8282601160016107ac565b600054610100900460ff16806107ea575060005460ff16155b61084d5760405162461bcd60e51b815260206004820152602e60248201527f496e697469616c697a61626c653a20636f6e747261637420697320616c72656160448201526d191e481a5b9a5d1a585b1a5e995960921b606482015260840161070a565b600054610100900460ff1615801561086f576000805461ffff19166101011790555b60006108836101c084016101a08501612d47565b6001600160a01b031614156108da5760405162461bcd60e51b815260206004820152601f60248201527f46656520616464726573732063616e6e6f742062652030206164647265737300604482015260640161070a565b60006108ee61020084016101e08501612d47565b6001600160a01b031614156109455760405162461bcd60e51b815260206004820152601f60248201527f51756f746520746f6b656e2063616e6e6f742062652030206164647265737300604482015260640161070a565b60006109576060840160408501612d47565b6001600160a01b031614156109b95760405162461bcd60e51b815260206004820152602260248201527f4f7261636c6520777261707065722063616e6e6f742062652030206164647265604482015261737360f01b606482015260840161070a565b60006109cb6080840160608501612d47565b6001600160a01b03161415610a2c5760405162461bcd60e51b815260206004820152602160248201527f4b6565706572206f7261636c652063616e6e6f742062652030206164647265736044820152607360f81b606482015260840161070a565b6000610a3b6020840184612d47565b6001600160a01b03161415610a925760405162461bcd60e51b815260206004820152601960248201527f4f776e65722063616e6e6f742062652030206164647265737300000000000000604482015260640161070a565b6000610aa46040840160208501612d47565b6001600160a01b03161415610afb5760405162461bcd60e51b815260206004820152601a60248201527f4b65657065722063616e6e6f7420626520302061646472657373000000000000604482015260640161070a565b6000610b0d60a0840160808501612d47565b6001600160a01b03161415610b645760405162461bcd60e51b815260206004820152601e60248201527f4c6f6e6720746f6b656e2063616e6e6f74206265203020616464726573730000604482015260640161070a565b6000610b7660c0840160a08501612d47565b6001600160a01b03161415610bcd5760405162461bcd60e51b815260206004820152601f60248201527f53686f727420746f6b656e2063616e6e6f742062652030206164647265737300604482015260640161070a565b6000610bdf60e0840160c08501612d47565b6001600160a01b03161415610c405760405162461bcd60e51b815260206004820152602160248201527f506f6f6c436f6d6d69747465722063616e6e6f742062652030206164647265736044820152607360f81b606482015260840161070a565b6000610c53610100840160e08501612d47565b6001600160a01b03161415610cb55760405162461bcd60e51b815260206004820152602260248201527f496e76617269616e74436865636b2063616e6e6f742062652030206164647265604482015261737360f01b606482015260840161070a565b670de0b6b3a764000082610180013510610cff5760405162461bcd60e51b815260206004820152600b60248201526a466565203e3d203130302560a81b604482015260640161070a565b60648261020001351115610d255760405162461bcd60e51b815260040161070a90613153565b610d326020830183612d47565b600580546001600160a01b0319166001600160a01b0392909216919091179055610d626040830160208401612d47565b600680546001600160a01b0319166001600160a01b0392909216919091179055610d926060830160408401612d47565b600c80546001600160a01b0319166001600160a01b0392909216919091179055610dc26080830160608401612d47565b600d80546001600160a01b0319166001600160a01b0392909216919091179055610df461020083016101e08401612d47565b600a80546001600160a01b0319166001600160a01b0392909216919091179055610e266101408301610120840161302c565b6003805463ffffffff191663ffffffff92909216919091179055610e526101608301610140840161302c565b6003805463ffffffff929092166401000000000267ffffffff0000000019909216919091179055604051636fedf26d60e11b815261018083013560048201527386aE3A70301705C6495Fd617787895C9A6238FfE9063dfdbe4da9060240160206040518083038186803b158015610ec857600080fd5b505af4158015610edc573d6000803e3d6000fd5b505050506040513d601f19601f82011682018060405250810190610f009190612e43565b6003805460809290921c600160401b0277ffffffffffffffffffffffffffffffff0000000000000000199092169190911790557386aE3A70301705C6495Fd617787895C9A6238FfE63dfdbe4da610f5f61018085016101608601612f9d565b6040516001600160e01b031960e084901b16815261ffff909116600482015260240160206040518083038186803b158015610f9957600080fd5b505af4158015610fad573d6000803e3d6000fd5b505050506040513d601f19601f82011682018060405250810190610fd19190612e43565b600480546001600160801b03191660809290921c919091179055610ffd6101c083016101a08401612d47565b600780546001600160a01b0319166001600160a01b039290921691909117905561102f6101e083016101c08401612d47565b600880546001600160a01b0319166001600160a01b03929092169190911790556102008201356009554260135561106a61010083018361322f565b61107691601491612c74565b5061108760a0830160808401612d47565b601160000180546001600160a01b0319166001600160a01b03929092169190911790556110ba60c0830160a08401612d47565b601160010180546001600160a01b0319166001600160a01b03929092169190911790556110ed60e0830160c08401612d47565b600b80546001600160a01b0319166001600160a01b039290921691909117905561111e610100830160e08401612d47565b600f80546001600160a01b0319166001600160a01b039290921691909117905561114f610100830160e08401612d47565b601080546001600160a01b0319166001600160a01b039290921691909117905561117f60c0830160a08401612d47565b6001600160a01b031661119860a0840160808501612d47565b6001600160a01b03167fbc8bd61e5dd69ff5cb8c389529c029503515ba368eaafbdaa406e072fdd360726111d461020086016101e08701612d47565b6111e261010087018761322f565b6040516111f19392919061309a565b60405180910390a3801561120b576000805461ff00191690555b5050565b600b546001600160a01b031633146112395760405162461bcd60e51b815260040161070a906131c1565b601054604051632781e7f160e21b81523060048201526001600160a01b0390911690639e079fc490602401600060405180830381600087803b15801561127e57600080fd5b505af1158015611292573d6000803e3d6000fd5b5050600554600160a01b900460ff161591506112c290505760405162461bcd60e51b815260040161070a90613199565b600291909155600155565b6005546001600160a01b031633146112f75760405162461bcd60e51b815260040161070a906131f8565b600554600160a01b900460ff1661133f5760405162461bcd60e51b815260206004820152600c60248201526b506f6f6c206973206c69766560a01b604482015260640161070a565b600a546040516370a0823160e01b81523060048201526001600160a01b039091169060009082906370a082319060240160206040518083038186803b15801561138757600080fd5b505afa15801561139b573d6000803e3d6000fd5b505050506040513d601f19601f820116820180604052508101906113bf9190612e6d565b600a5490915061120b906001600160a01b0316338361261a565b6005546001600160a01b031633146114035760405162461bcd60e51b815260040161070a906131f8565b6005805460ff60a01b191690556040517fa45f47fdea8a1efdd9029a5691c7f759c32b7c698632b563573e155625d1693390600090a1565b6011816002811061144b57600080fd5b01546001600160a01b0316905081565b600b546001600160a01b031633146114855760405162461bcd60e51b815260040161070a906131c1565b601054604051632781e7f160e21b81523060048201526001600160a01b0390911690639e079fc490602401600060405180830381600087803b1580156114ca57600080fd5b505af11580156114de573d6000803e3d6000fd5b5050600554600160a01b900460ff1615915061150e90505760405162461bcd60e51b815260040161070a90613199565b600a5461120b906001600160a01b0316838361261a565b600554600160a01b900460ff161561154f5760405162461bcd60e51b815260040161070a90613199565b600654600160a01b900460ff166115a85760405162461bcd60e51b815260206004820152601b60248201527f4e6f20676f7665726e616e6365206368616e6765206163746976650000000000604482015260640161070a565b600e546001600160a01b031633146116025760405162461bcd60e51b815260206004820152601860248201527f4e6f742070726f766973696f6e616c20676f7665726e6f720000000000000000604482015260640161070a565b60058054600e546001600160a01b039081166001600160a01b0319831681179093556006805460ff60a01b191690556040519116919082907f023588d3d1dcaad34e471c9e01b616b794156174bc693539c8fe15c0bfd5d82690600090a350601054604051632781e7f160e21b81523060048201526001600160a01b0390911690639e079fc490602401600060405180830381600087803b1580156116a657600080fd5b505af11580156116ba573d6000803e3d6000fd5b5050600554600160a01b900460ff161591506116ea90505760405162461bcd60e51b815260040161070a90613199565b565b6116f4612cf8565b60408051808201918290529060119060029082845b81546001600160a01b03168152600190910190602001808311611709575050505050905090565b6006546000906001600160a01b031633146117855760405162461bcd60e51b815260206004820152601560248201527436b9b39739b2b73232b9103737ba1035b2b2b832b960591b604482015260640161070a565b600554600160a01b900460ff16156117af5760405162461bcd60e51b815260040161070a90613199565b6001546002546117bf818361327d565b84106117d057600092505050611894565b60405163dc35bc1360e01b815260048101859052602481018390526044810182905260009081907386aE3A70301705C6495Fd617787895C9A6238FfE9063dc35bc1390606401604080518083038186803b15801561182d57600080fd5b505af4158015611841573d6000803e3d6000fd5b505050506040513d601f19601f820116820180604052508101906118659190612fda565b60018290556002819055600a54919350915061188b906001600160a01b0316888861261a565b60019450505050505b601054604051632781e7f160e21b81523060048201526001600160a01b0390911690639e079fc490602401600060405180830381600087803b1580156118d957600080fd5b505af11580156118ed573d6000803e3d6000fd5b5050600554600160a01b900460ff1615915061191d90505760405162461bcd60e51b815260040161070a90613199565b92915050565b6005546001600160a01b0316331461194d5760405162461bcd60e51b815260040161070a906131f8565b600554600160a01b900460ff16156119775760405162461bcd60e51b815260040161070a90613199565b6001600160a01b0381166119d85760405162461bcd60e51b815260206004820152602260248201527f4b656570657220616464726573732063616e6e6f742062652030206164647265604482015261737360f01b606482015260840161070a565b600680546001600160a01b038381166001600160a01b0319831681179093556040519116919082907f402b3f9a8de3e388e7653c7a5892204fe18b579c8c23db19d6e00f1043ceb92190600090a350601054604051632781e7f160e21b81523060048201526001600160a01b0390911690639e079fc4906024015b600060405180830381600087803b158015611a6d57600080fd5b505af1158015611a81573d6000803e3d6000fd5b5050600554600160a01b900460ff16159150611ab190505760405162461bcd60e51b815260040161070a90613199565b50565b6008546001600160a01b0316338114611acc57600080fd5b600880546001600160a01b0319166001600160a01b0384811691821790925560405190918316907f4a1fe1b44fae78218ab520acca2aaba5067e706a4084bccf913f291c8d6e074990600090a35050565b600c5460408051634c6afee560e11b815290516000926001600160a01b0316916398d5fdca916004808301926020929190829003018186803b158015611b6257600080fd5b505afa158015611b76573d6000803e3d6000fd5b505050506040513d601f19601f82011682018060405250810190611b9a9190612e6d565b905090565b600b546001600160a01b03163314611bc95760405162461bcd60e51b815260040161070a906131c1565b601054604051632781e7f160e21b81523060048201526001600160a01b0390911690639e079fc490602401600060405180830381600087803b158015611c0e57600080fd5b505af1158015611c22573d6000803e3d6000fd5b5050600554600160a01b900460ff16159150611c5290505760405162461bcd60e51b815260040161070a90613199565b600a546107be906001600160a01b031684848461267d565b600f546001600160a01b03163314611cd25760405162461bcd60e51b815260206004820152602560248201527f6d73672e73656e646572206e6f7420696e76617269616e74436865636b436f6e6044820152641d1c9858dd60da1b606482015260840161070a565b6005805460ff60a01b1916600160a01b1790556040517f9e87fac88ff661f02d44f95383c817fece4bce600a3dab7a54406878b965e75290600090a1565b6005546001600160a01b03163314611d3a5760405162461bcd60e51b815260040161070a906131f8565b600554600160a01b900460ff1615611d645760405162461bcd60e51b815260040161070a90613199565b6001600160a01b038116611dba5760405162461bcd60e51b815260206004820152601b60248201527f4163636f756e742063616e6e6f74206265203020616464726573730000000000604482015260640161070a565b600780546001600160a01b038381166001600160a01b0319831681179093556040519116919082907f11f35a22548bcd4c3788ab4a7e4fba427a2014f02e5d5e2da9af62212c03183f90600090a350601054604051632781e7f160e21b81523060048201526001600160a01b0390911690639e079fc490602401611a53565b600b546001600160a01b03163314611e635760405162461bcd60e51b815260040161070a906131c1565b600554600160a01b900460ff1615611e8d5760405162461bcd60e51b815260040161070a90613199565b8215611f5857601154604051633f34d4cf60e21b8152600481018490526001600160a01b0383811660248301529091169063fcd3533c90604401602060405180830381600087803b158015611ee157600080fd5b505af1158015611ef5573d6000803e3d6000fd5b505050506040513d601f19601f82011682018060405250810190611f199190612dc8565b611f535760405162461bcd60e51b815260206004820152600b60248201526a109d5c9b8819985a5b195960aa1b604482015260640161070a565b612018565b601254604051633f34d4cf60e21b8152600481018490526001600160a01b0383811660248301529091169063fcd3533c90604401602060405180830381600087803b158015611fa657600080fd5b505af1158015611fba573d6000803e3d6000fd5b505050506040513d601f19601f82011682018060405250810190611fde9190612dc8565b6120185760405162461bcd60e51b815260206004820152600b60248201526a109d5c9b8819985a5b195960aa1b604482015260640161070a565b601054604051632781e7f160e21b81523060048201526001600160a01b0390911690639e079fc490602401600060405180830381600087803b15801561205d57600080fd5b505af1158015612071573d6000803e3d6000fd5b5050600554600160a01b900460ff161591506107be90505760405162461bcd60e51b815260040161070a90613199565b6005546001600160a01b031633146120cb5760405162461bcd60e51b815260040161070a906131f8565b600554600160a01b900460ff16156120f55760405162461bcd60e51b815260040161070a90613199565b6001600160a01b03811661215a5760405162461bcd60e51b815260206004820152602660248201527f476f7665726e616e636520616464726573732063616e6e6f742062652030206160448201526564647265737360d01b606482015260840161070a565b600e80546001600160a01b0383166001600160a01b031990911681179091556006805460ff60a01b1916600160a01b1790556040517f35681f4f23137fb58510a9854f1b6e95f90a2cf0b66d2fce4df74cc0becc82d590600090a2601054604051632781e7f160e21b81523060048201526001600160a01b0390911690639e079fc490602401611a53565b600b546001600160a01b0316331461220f5760405162461bcd60e51b815260040161070a906131c1565b601054604051632781e7f160e21b81523060048201526001600160a01b0390911690639e079fc490602401600060405180830381600087803b15801561225457600080fd5b505af1158015612268573d6000803e3d6000fd5b5050600554600160a01b900460ff1615915061229890505760405162461bcd60e51b815260040161070a90613199565b821561235e576011546040516394bf804d60e01b8152600481018490526001600160a01b038381166024830152909116906394bf804d90604401602060405180830381600087803b1580156122ec57600080fd5b505af1158015612300573d6000803e3d6000fd5b505050506040513d601f19601f820116820180604052508101906123249190612dc8565b6107be5760405162461bcd60e51b815260206004820152600b60248201526a135a5b9d0819985a5b195960aa1b604482015260640161070a565b6012546040516394bf804d60e01b8152600481018490526001600160a01b038381166024830152909116906394bf804d90604401602060405180830381600087803b1580156122ec57600080fd5b601480546123b9906132d8565b80601f01602080910402602001604051908101604052809291908181526020018280546123e5906132d8565b80156124325780601f1061240757610100808354040283529160200191612432565b820191906000526020600020905b81548152906001019060200180831161241557829003601f168201915b505050505081565b6006546001600160a01b0316331461248c5760405162461bcd60e51b815260206004820152601560248201527436b9b39739b2b73232b9103737ba1035b2b2b832b960591b604482015260640161070a565b600554600160a01b900460ff16156124b65760405162461bcd60e51b815260040161070a90613199565b60035460135464010000000090910463ffffffff160142101561251b5760405162461bcd60e51b815260206004820152601d60248201527f55706461746520696e74657276616c206861736e277420706173736564000000604482015260640161070a565b61252582826126bb565b600b60009054906101000a90046001600160a01b03166001600160a01b0316631b9d69576040518163ffffffff1660e01b8152600401600060405180830381600087803b15801561257557600080fd5b505af1158015612589573d6000803e3d6000fd5b5050426013555050601054604051632781e7f160e21b81523060048201526001600160a01b0390911690639e079fc490602401600060405180830381600087803b1580156125d657600080fd5b505af11580156125ea573d6000803e3d6000fd5b5050600554600160a01b900460ff1615915061120b90505760405162461bcd60e51b815260040161070a90613199565b6040516001600160a01b0383166024820152604481018290526107be90849063a9059cbb60e01b906064015b60408051601f198184030181529190526020810180516001600160e01b03166001600160e01b0319909316929092179091526128f5565b6040516001600160a01b03808516602483015283166044820152606481018290526126b59085906323b872dd60e01b90608401612646565b50505050565b601054604051632781e7f160e21b81523060048201526001600160a01b0390911690639e079fc490602401600060405180830381600087803b15801561270057600080fd5b505af1158015612714573d6000803e3d6000fd5b5050600554600160a01b900460ff1615915061274490505760405162461bcd60e51b815260040161070a90613199565b600082131580612755575060008113155b1561278b57604051819083907f27f70c863f1bd3e335bb4d6bf2a31075c861752f0b21a03b816a356035b1dec690600090a35050565b6001546002546040805160c0810182528581526020810185815281830184815260608301868152600480546001600160801b0319608091821b8116828801908152600354600160401b900490921b811660a088019081529751632920706d60e21b815287519381019390935294516024830152925160448201529051606482015290518216608482015292511660a483015290600090819081907386aE3A70301705C6495Fd617787895C9A6238FfE9063a481c1b49060c40160606040518083038186803b15801561285c57600080fd5b505af4158015612870573d6000803e3d6000fd5b505050506040513d601f19601f820116820180604052508101906128949190612ffe565b604080518a84038152898503602082015293965091945092507f3a4a53e86baa9b577f931e849a3472fd6be844c0916377bc806be891847a5c2b910160405180910390a1600283905560018290556128eb816129c7565b5050505050505050565b600061294a826040518060400160405280602081526020017f5361666545524332303a206c6f772d6c6576656c2063616c6c206661696c6564815250856001600160a01b0316612afa9092919063ffffffff16565b8051909150156107be57808060200190518101906129689190612dc8565b6107be5760405162461bcd60e51b815260206004820152602a60248201527f5361666545524332303a204552433230206f7065726174696f6e20646964206e6044820152691bdd081cdd58d8d9595960b21b606482015260840161070a565b6008546001600160a01b03166129f457600754600a54611ab1916001600160a01b0391821691168361261a565b60646009541115612a175760405162461bcd60e51b815260040161070a90613153565b60095460405163fea3de3360e01b81526004810183905260248101919091526064604482018190526000917386aE3A70301705C6495Fd617787895C9A6238FfE9163fea3de33910160206040518083038186803b158015612a7757600080fd5b505af4158015612a8b573d6000803e3d6000fd5b505050506040513d601f19601f82011682018060405250810190612aaf9190612e6d565b90506000612abd8284613295565b600854600a54919250612add916001600160a01b0390811691168461261a565b600754600a546107be916001600160a01b0391821691168361261a565b6060612b098484600085612b13565b90505b9392505050565b606082471015612b745760405162461bcd60e51b815260206004820152602660248201527f416464726573733a20696e73756666696369656e742062616c616e636520666f6044820152651c8818d85b1b60d21b606482015260840161070a565b843b612bc25760405162461bcd60e51b815260206004820152601d60248201527f416464726573733a2063616c6c20746f206e6f6e2d636f6e7472616374000000604482015260640161070a565b600080866001600160a01b03168587604051612bde919061307e565b60006040518083038185875af1925050503d8060008114612c1b576040519150601f19603f3d011682016040523d82523d6000602084013e612c20565b606091505b5091509150612c30828286612c3b565b979650505050505050565b60608315612c4a575081612b0c565b825115612c5a5782518084602001fd5b8160405162461bcd60e51b815260040161070a9190613140565b828054612c80906132d8565b90600052602060002090601f016020900481019282612ca25760008555612ce8565b82601f10612cbb5782800160ff19823516178555612ce8565b82800160010185558215612ce8579182015b82811115612ce8578235825591602001919060010190612ccd565b50612cf4929150612d16565b5090565b60405180604001604052806002906020820280368337509192915050565b5b80821115612cf45760008155600101612d17565b80356001600160a01b0381168114612d4257600080fd5b919050565b600060208284031215612d5957600080fd5b612b0c82612d2b565b600080600060608486031215612d7757600080fd5b612d8084612d2b565b9250612d8e60208501612d2b565b9150604084013590509250925092565b60008060408385031215612db157600080fd5b612dba83612d2b565b946020939093013593505050565b600060208284031215612dda57600080fd5b8151612b0c8161333f565b600080600060608486031215612dfa57600080fd5b8335612d808161333f565b600080600060608486031215612e1a57600080fd5b8335612e258161333f565b925060208401359150612e3a60408501612d2b565b90509250925092565b600060208284031215612e5557600080fd5b81516001600160801b031981168114612b0c57600080fd5b600060208284031215612e7f57600080fd5b5051919050565b60008060408385031215612e9957600080fd5b82519150602083015167ffffffffffffffff80821115612eb857600080fd5b818501915085601f830112612ecc57600080fd5b815181811115612ede57612ede613329565b604051601f8201601f19908116603f01168101908382118183101715612f0657612f06613329565b81604052828152886020848701011115612f1f57600080fd5b612f308360208301602088016132ac565b80955050505050509250929050565b60008060408385031215612f5257600080fd5b50508035926020909101359150565b600060208284031215612f7357600080fd5b813567ffffffffffffffff811115612f8a57600080fd5b82016102208185031215612b0c57600080fd5b600060208284031215612faf57600080fd5b813561ffff81168114612b0c57600080fd5b600060208284031215612fd357600080fd5b5035919050565b60008060408385031215612fed57600080fd5b505080516020909101519092909150565b60008060006060848603121561301357600080fd5b8351925060208401519150604084015190509250925092565b60006020828403121561303e57600080fd5b813563ffffffff81168114612b0c57600080fd5b6000815180845261306a8160208601602086016132ac565b601f01601f19169290920160200192915050565b600082516130908184602087016132ac565b9190910192915050565b6001600160a01b03841681526040602082018190528101829052818360608301376000818301606090810191909152601f909201601f1916010192915050565b60408101818360005b600281101561310b5781516001600160a01b03168352602092830192909101906001016130e3565b50505092915050565b84815260806020820152600061312d6080830186613052565b6040830194909452506060015292915050565b602081526000612b0c6020830184613052565b60208082526026908201527f5365636f6e64617279206665652073706c69742063616e6e6f7420657863656560408201526564203130302560d01b606082015260800190565b6020808252600e908201526d141bdbdb081a5cc81c185d5cd95960921b604082015260600190565b6020808252601c908201527f6d73672e73656e646572206e6f7420706f6f6c436f6d6d697474657200000000604082015260600190565b60208082526019908201527f6d73672e73656e646572206e6f7420676f7665726e616e636500000000000000604082015260600190565b6000808335601e1984360301811261324657600080fd5b83018035915067ffffffffffffffff82111561326157600080fd5b60200191503681900382131561327657600080fd5b9250929050565b6000821982111561329057613290613313565b500190565b6000828210156132a7576132a7613313565b500390565b60005b838110156132c75781810151838201526020016132af565b838111156126b55750506000910152565b600181811c908216806132ec57607f821691505b6020821081141561330d57634e487b7160e01b600052602260045260246000fd5b50919050565b634e487b7160e01b600052601160045260246000fd5b634e487b7160e01b600052604160045260246000fd5b8015158114611ab157600080fdfea2646970667358221220409cf3a8f7c41e752f155ef7b15827f2369bd05c851b63234e16e65220ca0c5b64736f6c634300080700336080604052600180546001600160801b031916811790553480156200002357600080fd5b5060405162004984380380620049848339810160408190526200004691620003f1565b6001600160a01b038516620000a25760405162461bcd60e51b815260206004820152601e60248201527f466163746f727920616464726573732063616e6e6f74206265206e756c6c000060448201526064015b60405180910390fd5b6001600160a01b038316620000fa5760405162461bcd60e51b815260206004820181905260248201527f4175746f436c61696d20616464726573732063616e6e6f74206265206e756c6c604482015260640162000099565b6001600160a01b038416620001605760405162461bcd60e51b815260206004820152602560248201527f496e76617269616e74436865636b20616464726573732063616e6e6f74206265604482015264081b9d5b1b60da1b606482015260840162000099565b670de0b6b3a76400008210620001b95760405162461bcd60e51b815260206004820152601360248201527f4d696e74696e6720666565203e3d203130302500000000000000000000000000604482015260640162000099565b670de0b6b3a76400008110620002125760405162461bcd60e51b815260206004820152601360248201527f4275726e696e6720666565203e3d203130302500000000000000000000000000604482015260640162000099565b600d80546001600160a01b0319166001600160a01b03878116919091179091556000805462010000600160b01b0319166201000092861692909202919091179055604051636fedf26d60e11b8152600481018390527386aE3A70301705C6495Fd617787895C9A6238FfE9063dfdbe4da9060240160206040518083038186803b1580156200029f57600080fd5b505af4158015620002b4573d6000803e3d6000fd5b505050506040513d601f19601f82011682018060405250810190620002da91906200044e565b6001805460809290921c600160801b026001600160801b03909216919091179055604051636fedf26d60e11b8152600481018290527386aE3A70301705C6495Fd617787895C9A6238FfE9063dfdbe4da9060240160206040518083038186803b1580156200034757600080fd5b505af41580156200035c573d6000803e3d6000fd5b505050506040513d601f19601f820116820180604052508101906200038291906200044e565b6002805460809290921c6001600160801b03199092169190911790555050601080546001600160a01b039093166001600160a01b03199384168117909155601180549093161790915550620004819050565b80516001600160a01b0381168114620003ec57600080fd5b919050565b600080600080600060a086880312156200040a57600080fd5b6200041586620003d4565b94506200042560208701620003d4565b93506200043560408701620003d4565b6060870151608090970151959894975095949392505050565b6000602082840312156200046157600080fd5b81516001600160801b0319811681146200047a57600080fd5b9392505050565b6144f380620004916000396000f3fe6080604052600436106101c25760003560e01c80639a546848116100f7578063c40f6aa911610095578063e323aac611610064578063e323aac614610641578063ea348c9a14610661578063fd555fb9146106b8578063fe589858146106d857600080fd5b8063c40f6aa9146105d1578063c45a0155146105e6578063c70db32314610606578063d4c4e2831461062c57600080fd5b8063a6b63eb8116100d1578063a6b63eb814610514578063a9b96d4c14610534578063b27a048414610554578063b9fc75b0146105b157600080fd5b80639a546848146103ff5780639d03132e146104d45780639fa21dca146104f457600080fd5b806354da4992116101645780635c975abb1161013e5780635c975abb1461038357806364747c75146103b45780636a9dfc64146103c75780638456cb59146103ea57600080fd5b806354da4992146102e657806355c10624146103285780635aa6e6751461036357600080fd5b80631e83409a116101a05780631e83409a146102595780633f4ba83a146102795780634509017e1461028e5780634f64b2be146102c657600080fd5b8063062e0d69146101c75780631aabc7e7146101f95780631b9d695714610242575b600080fd5b3480156101d357600080fd5b506101dc600081565b6040516001600160801b0390911681526020015b60405180910390f35b34801561020557600080fd5b50610229610214366004614116565b60066020526000908152604090205460801b81565b6040516001600160801b031990911681526020016101f0565b34801561024e57600080fd5b50610257610765565b005b34801561026557600080fd5b50610257610274366004613ee7565b610aab565b34801561028557600080fd5b50610257610ef0565b34801561029a57600080fd5b506011546102ae906001600160a01b031681565b6040516001600160a01b0390911681526020016101f0565b3480156102d257600080fd5b506102ae6102e1366004614116565b610f59565b3480156102f257600080fd5b50610306610301366004613ee7565b610f79565b60408051825181526020808401519082015291810151908201526060016101f0565b34801561033457600080fd5b50610355610343366004613ee7565b600a6020526000908152604090205481565b6040519081526020016101f0565b34801561036f57600080fd5b50600e546102ae906001600160a01b031681565b34801561038f57600080fd5b506010546103a490600160a01b900460ff1681565b60405190151581526020016101f0565b6102576103c23660046140bf565b6112bc565b3480156103d357600080fd5b506103dc611835565b6040516101f09291906142aa565b3480156103f657600080fd5b506102576119a5565b34801561040b57600080fd5b5061048161041a366004613fbc565b60096020528160005260406000206020528060005260406000206000915091505080600001549080600101549080600201549080600301549080600401549080600501549080600601549080600701549080600801549080600901549080600a015490508b565b604080519b8c5260208c019a909a52988a01979097526060890195909552608088019390935260a087019190915260c086015260e0850152610100840152610120830152610140820152610160016101f0565b3480156104e057600080fd5b506001546101dc906001600160801b031681565b34801561050057600080fd5b5061025761050f366004613ee7565b611a22565b34801561052057600080fd5b5061025761052f366004613f61565b61206d565b34801561054057600080fd5b506010546102ae906001600160a01b031681565b34801561056057600080fd5b5061059061056f366004614116565b600560205260009081526040902054608081811b91600160801b9004901b82565b604080516001600160801b03199384168152929091166020830152016101f0565b3480156105bd57600080fd5b506103556105cc366004613fbc565b6125bd565b3480156105dd57600080fd5b506101dc600181565b3480156105f257600080fd5b50600d546102ae906001600160a01b031681565b34801561061257600080fd5b506000546102ae906201000090046001600160a01b031681565b34801561063857600080fd5b506101dc6125ee565b34801561064d57600080fd5b50600f546102ae906001600160a01b031681565b34801561066d57600080fd5b5061069d61067c366004613ee7565b60076020526000908152604090208054600182015460029092015490919083565b604080519384526020840192909252908201526060016101f0565b3480156106c457600080fd5b506102576106d3366004613f28565b61280e565b3480156106e457600080fd5b506107306106f3366004614116565b6008602052600090815260409020805460018201546002830154600384015460048501546005860154600690960154949593949293919290919087565b604080519788526020880196909652948601939093526060850191909152608084015260a083015260c082015260e0016101f0565b600f546001600160a01b031633146107c45760405162461bcd60e51b815260206004820152601c60248201527f6d73672e73656e646572206e6f74206c6576657261676564506f6f6c0000000060448201526064015b60405180910390fd5b601154600f54604051632781e7f160e21b81526001600160a01b039182166004820152911690639e079fc490602401600060405180830381600087803b15801561080d57600080fd5b505af1158015610821573d6000803e3d6000fd5b5050601054600160a01b900460ff1615915061085190505760405162461bcd60e51b81526004016107bb90614282565b600f5460408051637de93f9360e01b815290516001600160a01b03909216916001916000918491637de93f93916004808301926020929190829003018186803b15801561089d57600080fd5b505afa1580156108b1573d6000803e3d6000fd5b505050506040513d601f19601f820116820180604052508101906108d5919061412f565b90506000836001600160a01b031663fd2c80ae6040518163ffffffff1660e01b815260040160206040518083038186803b15801561091257600080fd5b505afa158015610926573d6000803e3d6000fd5b505050506040513d601f19601f8201168201806040525081019061094a91906141ac565b63ffffffff1690505b61096363ffffffff8416826143f1565b61096d9083614398565b4210610a8e5760028054600180546001600160801b03908116600090815260066020818152604080842080546001600160801b03191697861697909717909655845490931682526008835290849020845160e08101865281548152938101549284019290925293810154928201929092526003820154606082015260048201546080820152600582015460a082015291015460c0820152610a0d90612b4b565b600180546001600160801b0390811660009081526008602052604081208181558084018290556002810182905560038101829055600481018290556005810182905560060181905582548392610a659184911661436d565b92506101000a8154816001600160801b0302191690836001600160801b03160217905550610a93565b610aa5565b610a9e6001846143b0565b9250610953565b50505050565b601054600160a01b900460ff1615610ad55760405162461bcd60e51b81526004016107bb90614282565b80336001600160a01b0382161480610afd57506000546201000090046001600160a01b031633145b610b575760405162461bcd60e51b815260206004820152602560248201527f6d73672e73656e646572206e6f7420636f6d6d6974746572206f72204175746f604482015264436c61696d60d81b60648201526084016107bb565b610b6082611a22565b336001600160a01b038316148015610bfd5750600054604051631107d3c960e31b81526001600160a01b038481166004830152306024830152620100009092049091169063883e9e489060440160206040518083038186803b158015610bc557600080fd5b505afa158015610bd9573d6000803e3d6000fd5b505050506040513d601f19601f82011682018060405250810190610bfd9190614078565b15610c69576000546040516307119aeb60e01b81526001600160a01b03848116600483015262010000909204909116906307119aeb90602401600060405180830381600087803b158015610c5057600080fd5b505af1158015610c64573d6000803e3d6000fd5b505050505b6001600160a01b0380831660009081526007602090815260409182902082516060810184528154815260018201549281019290925260020154918101829052600f549092169015610d1e576040828101519051632c0bf86360e11b81526001600160a01b038681166004830152602482019290925290821690635817f0c690604401600060405180830381600087803b158015610d0557600080fd5b505af1158015610d19573d6000803e3d6000fd5b505050505b815115610d9357815160405163110b1bed60e01b8152600160048201526001600160a01b03868116602483015260448201929092529082169063110b1bed90606401600060405180830381600087803b158015610d7a57600080fd5b505af1158015610d8e573d6000803e3d6000fd5b505050505b602082015115610e0e57602082015160405163110b1bed60e01b8152600060048201526001600160a01b03868116602483015260448201929092529082169063110b1bed90606401600060405180830381600087803b158015610df557600080fd5b505af1158015610e09573d6000803e3d6000fd5b505050505b6001600160a01b03841660008181526007602052604080822082815560018101839055600201829055517f0c7ef932d3b91976772937f18d5ef9b39a9930bef486b576c374f047c4b512dc9190a25050601154600f54604051632781e7f160e21b81526001600160a01b03918216600482015291169150639e079fc4906024015b600060405180830381600087803b158015610ea957600080fd5b505af1158015610ebd573d6000803e3d6000fd5b5050601054600160a01b900460ff16159150610eed90505760405162461bcd60e51b81526004016107bb90614282565b50565b600e546001600160a01b03163314610f4a5760405162461bcd60e51b815260206004820152601960248201527f6d73672e73656e646572206e6f7420676f7665726e616e63650000000000000060448201526064016107bb565b6010805460ff60a01b19169055565b60038160028110610f6957600080fd5b01546001600160a01b0316905081565b610f9d60405180606001604052806000815260200160008152602001600081525090565b6001600160a01b038216600081815260076020908152604080832081516060808201845282548252600180840154838701526002909301548285015283516101008101855292546001600160801b0316835282850186905282840186905282018590526080820185905260a0820185905260c0820185905260e08201859052948452600b8352818420805483518186028101860190945280845291949390919083018282801561106c57602002820191906000526020600020905b815481526020019060010190808311611058575b505083519394506000925050505b818110156112385760008382815181106110965761109661446e565b602002602001015190508382815181106110b2576110b261446e565b6020026020010151600014156110c85750611226565b6001600160a01b03881660009081526009602081815260408084208585528252928390208351610160810185528154815260018201549281019290925260028101549382018490526003810154606083015260048101546080830152600581015460a0830152600681015460c0830152600781015460e08301526008810154610100830152918201546101208201819052600a90920154610140820152916111709190614398565b866080018181516111819190614398565b90525060e081015160a08201516111989190614398565b8660a0018181516111a99190614398565b9052506001546101408201516001600160801b0390911611156112235760008060006111d4846134fa565b945050509250925082896020018181516111ee9190614398565b905250604089018051839190611205908390614398565b90525060608901805182919061121c908390614398565b9052505050505b50505b8061123081614427565b91505061107a565b5060208301518451859061124d908390614398565b905250608083015184518590611264908390614410565b905250604083015160208501805161127d908390614398565b90525060a0830151602085018051611296908390614410565b90525060608301516040850180516112af908390614398565b9052509295945050505050565b6112c533611a22565b601054600160a01b900460ff16156112ef5760405162461bcd60e51b81526004016107bb90614282565b6000831161133f5760405162461bcd60e51b815260206004820152601760248201527f416d6f756e74206d757374206e6f74206265207a65726f00000000000000000060448201526064016107bb565b600f5460408051637e96405760e11b815290516001600160a01b0390921691600091839163fd2c80ae91600480820192602092909190829003018186803b15801561138957600080fd5b505afa15801561139d573d6000803e3d6000fd5b505050506040513d601f19601f820116820180604052508101906113c191906141ac565b63ffffffff1690506000826001600160a01b0316637de93f936040518163ffffffff1660e01b815260040160206040518083038186803b15801561140457600080fd5b505afa158015611418573d6000803e3d6000fd5b505050506040513d601f19601f8201168201806040525081019061143c919061412f565b90506000836001600160a01b0316637bfe789a6040518163ffffffff1660e01b815260040160206040518083038186803b15801561147957600080fd5b505afa15801561148d573d6000803e3d6000fd5b505050506040513d601f19601f820116820180604052508101906114b191906141ac565b63ffffffff169050841561152457600054604051634da17a3f60e11b8152336004820152620100009091046001600160a01b031690639b42f47e9034906024016000604051808303818588803b15801561150a57600080fd5b505af115801561151e573d6000803e3d6000fd5b50505050505b60015460405160016265017960e01b031981524260048201526024810184905260448101839052606481018590526001600160801b0390911660848201526000907386aE3A70301705C6495Fd617787895C9A6238FfE9063ff9afe879060a40160206040518083038186803b15801561159c57600080fd5b505af41580156115b0573d6000803e3d6000fd5b505050506040513d601f19601f820116820180604052508101906115d4919061412f565b600081815260086020908152604080832033808552600984528285208686528452828520600a8101879055908552600b90935292205492935090918015806116505750336000908152600b602052604090208490611633600184614410565b815481106116435761164361446e565b9060005260206000200154105b1561167857336000908152600b60209081526040822080546001810182559083529120018490555b60028c600581111561168c5761168c614458565b14806116a9575060008c60058111156116a7576116a7614458565b145b1561174c578961172457600f546040516307b0a0c960e41b81523360048201526001600160a01b039182166024820152604481018d905290891690637b0a0c9090606401600060405180830381600087803b15801561170757600080fd5b505af115801561171b573d6000803e3d6000fd5b5050505061174c565b33600090815260076020526040812060020180548d9290611746908490614410565b90915550505b61175a888d8d8d8688613656565b8b600581111561176c5761176c614458565b6040518c9033907f1812fae3acb48e153e53de9f618899f3770714f3b610a708a40f042da0b04ec790600090a45050601154600f54604051632781e7f160e21b81526001600160a01b039283169850639e079fc497506117d796509116935060040191506142169050565b600060405180830381600087803b1580156117f157600080fd5b505af1158015611805573d6000803e3d6000fd5b5050601054600160a01b900460ff16159150610aa590505760405162461bcd60e51b81526004016107bb90614282565b6118756040518060e00160405280600081526020016000815260200160008152602001600081526020016000815260200160008152602001600081525090565b6118b56040518060e00160405280600081526020016000815260200160008152602001600081526020016000815260200160008152602001600081525090565b600180546001600160801b0316600081815260086020819052604082209390926118de9161436d565b6001600160801b03168152602001908152602001600020816040518060e00160405290816000820154815260200160018201548152602001600282015481526020016003820154815260200160048201548152602001600582015481526020016006820154815250509150806040518060e00160405290816000820154815260200160018201548152602001600282015481526020016003820154815260200160048201548152602001600582015481526020016006820154815250509050915091509091565b6010546001600160a01b03163314611a0d5760405162461bcd60e51b815260206004820152602560248201527f6d73672e73656e646572206e6f7420696e76617269616e74436865636b436f6e6044820152641d1c9858dd60da1b60648201526084016107bb565b6010805460ff60a01b1916600160a01b179055565b601054600160a01b900460ff1615611a4c5760405162461bcd60e51b81526004016107bb90614282565b6001600160a01b03811660008181526007602090815260408083208151610100810183526001546001600160801b03168152808401859052808301859052606081018590526080810185905260a0810185905260c0810185905260e08101859052948452600b8352818420805483518186028101860190945280845291959493909190830182828015611afe57602002820191906000526020600020905b815481526020019060010190808311611aea575b505083519394506000925050505b81811015611e0a576000838281518110611b2857611b2861446e565b60200260200101519050838281518110611b4457611b4461446e565b602002602001015160001415611b5a5750611df8565b6001600160a01b03871660009081526009602081815260408084208585528252928390208351610160810185528154815260018201549281019290925260028101549382018490526003810154606083015260048101546080830152600581015460a0830152600681015460c0830152600781015460e08301526008810154610100830152918201546101208201819052600a9092015461014082015291611c029190614398565b86608001818151611c139190614398565b90525060e081015160a0820151611c2a9190614398565b8660a001818151611c3b9190614398565b9052506001546101408201516001600160801b039091161115611d83576000806000806000611c69866134fa565b94509450945094509450848b602001818151611c859190614398565b90525060408b018051859190611c9c908390614398565b90525060608b018051829190611cb3908390614398565b90525060c08b018051849190611cca908390614398565b90525060e08b018051839190611ce1908390614398565b9052506001600160a01b038d1660008181526009602081815260408084208d855282528084208481556001810185905560028101859055600381018590556004810185905560058101859055600681018590556007810185905560088101859055928301849055600a909201839055928252600b90925220805489908110611d6b57611d6b61446e565b90600052602060002001600090555050505050611df5565b6001600160a01b038816600090815260096020818152604080842086855290915282206002810183905560058101839055908101829055600701558451600c90869085908110611dd557611dd561446e565b602090810291909101810151825460018101845560009384529190922001555b50505b80611e0281614427565b915050611b0c565b506001600160a01b0385166000908152600b60205260408120611e2c91613e0c565b6001600160a01b0385166000908152600b60205260409020600c8054611e53929190613e2a565b50611e60600c6000613e0c565b8260200151846000016000828254611e789190614398565b9091555050608083015184548590600090611e94908490614410565b90915550506040830151600185018054600090611eb2908490614398565b909155505060a0830151600185018054600090611ed0908490614410565b90915550506060830151600285018054600090611eee908490614398565b9091555050600f5460408051630f77314d60e31b815281516001600160a01b039093169260009283928592637bb98a6892600480840193919291829003018186803b158015611f3c57600080fd5b505afa158015611f50573d6000803e3d6000fd5b505050506040513d601f19601f82011682018060405250810190611f749190614148565b91509150826001600160a01b0316633c3f82528760c0015183611f979190614398565b60e0890151611fa69086614398565b6040516001600160e01b031960e085901b16815260048101929092526024820152604401600060405180830381600087803b158015611fe457600080fd5b505af1158015611ff8573d6000803e3d6000fd5b50506040516001600160a01b038b1692507fdefa4140341b4fd283af41700779361dc94f34ae245a186b3b9c187033c065549150600090a25050601154600f54604051632781e7f160e21b81526001600160a01b03918216600482015291169550639e079fc494506024019250610e8f915050565b600054610100900460ff1680612086575060005460ff16155b6120e95760405162461bcd60e51b815260206004820152602e60248201527f496e697469616c697a61626c653a20636f6e747261637420697320616c72656160448201526d191e481a5b9a5d1a585b1a5e995960921b60648201526084016107bb565b600054610100900460ff1615801561210b576000805461ffff19166101011790555b6001600160a01b03861661216d5760405162461bcd60e51b815260206004820152602360248201527f466163746f727920616464726573732063616e6e6f742062652030206164647260448201526265737360e81b60648201526084016107bb565b6001600160a01b0385166121d65760405162461bcd60e51b815260206004820152602a60248201527f496e76617269616e74436865636b20616464726573732063616e6e6f742062656044820152692030206164647265737360b01b60648201526084016107bb565b6001600160a01b03841661222c5760405162461bcd60e51b815260206004820181905260248201527f4175746f436c61696d20616464726573732063616e6e6f74206265206e756c6c60448201526064016107bb565b670de0b6b3a764000083106122795760405162461bcd60e51b81526020600482015260136024820152724d696e74696e6720666565203e3d203130302560681b60448201526064016107bb565b670de0b6b3a764000082106122c65760405162461bcd60e51b81526020600482015260136024820152724275726e696e6720666565203e3d203130302560681b60448201526064016107bb565b600180546001600160801b03191681179055600d80546001600160a01b0319166001600160a01b038816179055604051636fedf26d60e11b8152600481018490527386aE3A70301705C6495Fd617787895C9A6238FfE9063dfdbe4da9060240160206040518083038186803b15801561233e57600080fd5b505af4158015612352573d6000803e3d6000fd5b505050506040513d601f19601f820116820180604052508101906123769190614095565b6001805460809290921c600160801b026001600160801b03909216919091179055604051636fedf26d60e11b8152600481018390527386aE3A70301705C6495Fd617787895C9A6238FfE9063dfdbe4da9060240160206040518083038186803b1580156123e257600080fd5b505af41580156123f6573d6000803e3d6000fd5b505050506040513d601f19601f8201168201806040525081019061241a9190614095565b600260006101000a8154816001600160801b03021916908360801c021790555083600060026101000a8154816001600160a01b0302191690836001600160a01b03160217905550856001600160a01b031663893d20e86040518163ffffffff1660e01b8152600401602060405180830381600087803b15801561249c57600080fd5b505af11580156124b0573d6000803e3d6000fd5b505050506040513d601f19601f820116820180604052508101906124d49190613f0b565b600e80546001600160a01b039283166001600160a01b03199182161790915560108054888416908316811790915560118054909216179055600d5460408051631127a41d60e31b81529051919092169163893d20e89160048083019260209291908290030181600087803b15801561254b57600080fd5b505af115801561255f573d6000803e3d6000fd5b505050506040513d601f19601f820116820180604052508101906125839190613f0b565b600e80546001600160a01b0319166001600160a01b039290921691909117905580156125b5576000805461ff00191690555b505050505050565b600b60205281600052604060002081815481106125d957600080fd5b90600052602060002001600091509150505481565b600f5460408051637de93f9360e01b815290516000926001600160a01b0316917386aE3A70301705C6495Fd617787895C9A6238FfE9163ff9afe879142918591637de93f93916004808301926020929190829003018186803b15801561265357600080fd5b505afa158015612667573d6000803e3d6000fd5b505050506040513d601f19601f8201168201806040525081019061268b919061412f565b846001600160a01b0316637bfe789a6040518163ffffffff1660e01b815260040160206040518083038186803b1580156126c457600080fd5b505afa1580156126d8573d6000803e3d6000fd5b505050506040513d601f19601f820116820180604052508101906126fc91906141ac565b856001600160a01b031663fd2c80ae6040518163ffffffff1660e01b815260040160206040518083038186803b15801561273557600080fd5b505afa158015612749573d6000803e3d6000fd5b505050506040513d601f19601f8201168201806040525081019061276d91906141ac565b60015460405160e087901b6001600160e01b03191681526004810195909552602485019390935263ffffffff91821660448501521660648301526001600160801b0316608482015260a40160206040518083038186803b1580156127d057600080fd5b505af41580156127e4573d6000803e3d6000fd5b505050506040513d601f19601f82011682018060405250810190612808919061412f565b91505090565b600d546001600160a01b031633146128615760405162461bcd60e51b8152602060048201526016602482015275436f6d6d69747465723a206e6f7420666163746f727960501b60448201526064016107bb565b601054600160a01b900460ff161561288b5760405162461bcd60e51b81526004016107bb90614282565b6001600160a01b0382166128f15760405162461bcd60e51b815260206004820152602760248201527f51756f746520746f6b656e20616464726573732063616e6e6f742062652030206044820152666164647265737360c81b60648201526084016107bb565b6001600160a01b03811661295a5760405162461bcd60e51b815260206004820152602a60248201527f4c657665726167656420706f6f6c20616464726573732063616e6e6f742062656044820152692030206164647265737360b01b60648201526084016107bb565b600f80546001600160a01b0319166001600160a01b03838116918217909255604080516318160ddd60e01b8152905185936000939085169263095ea7b39284916318160ddd916004808301926020929190829003018186803b1580156129bf57600080fd5b505afa1580156129d3573d6000803e3d6000fd5b505050506040513d601f19601f820116820180604052508101906129f7919061412f565b6040516001600160e01b031960e085901b1681526001600160a01b0390921660048301526024820152604401602060405180830381600087803b158015612a3d57600080fd5b505af1158015612a51573d6000803e3d6000fd5b505050506040513d601f19601f82011682018060405250810190612a759190614078565b905080612abc5760405162461bcd60e51b8152602060048201526015602482015274115490cc8c08185c1c1c9bdd985b0819985a5b1959605a1b60448201526064016107bb565b600f546040805163369f189f60e11b815281516001600160a01b0390931692636d3e313e92600480840193919291829003018186803b158015612afe57600080fd5b505afa158015612b12573d6000803e3d6000fd5b505050506040513d601f19601f82011682018060405250810190612b369190613fe8565b612b44906003906002613e7a565b5050505050565b600f546040805160808101808352631751aa8d60e31b905290516001600160a01b0390921691600091908190849063ba8d546890608480850191602091818703018186803b158015612b9c57600080fd5b505afa158015612bb0573d6000803e3d6000fd5b505050506040513d601f19601f82011682018060405250810190612bd4919061412f565b8152602001836001600160a01b0316637e71fc7d6040518163ffffffff1660e01b815260040160206040518083038186803b158015612c1257600080fd5b505afa158015612c26573d6000803e3d6000fd5b505050506040513d601f19601f82011682018060405250810190612c4a919061412f565b8152600354604080516318160ddd60e01b815290516020938401936001600160a01b03909316926318160ddd9260048082019391829003018186803b158015612c9257600080fd5b505afa158015612ca6573d6000803e3d6000fd5b505050506040513d601f19601f82011682018060405250810190612cca919061412f565b8152602001600360010160009054906101000a90046001600160a01b03166001600160a01b03166318160ddd6040518163ffffffff1660e01b815260040160206040518083038186803b158015612d2057600080fd5b505afa158015612d34573d6000803e3d6000fd5b505050506040513d601f19601f82011682018060405250810190612d58919061412f565b815250905060008360a001518460200151612d739190614398565b9050600084608001518560600151612d8b9190614398565b905060405180604001604052807386aE3A70301705C6495Fd617787895C9A6238FfE635cf4ee918660200151868860400151612dc79190614398565b6040516001600160e01b031960e085901b1681526004810192909252602482015260440160206040518083038186803b158015612e0357600080fd5b505af4158015612e17573d6000803e3d6000fd5b505050506040513d601f19601f82011682018060405250810190612e3b9190614095565b6001600160801b03191681526020017386aE3A70301705C6495Fd617787895C9A6238FfE635cf4ee918660000151858860600151612e799190614398565b6040516001600160e01b031960e085901b1681526004810192909252602482015260440160206040518083038186803b158015612eb557600080fd5b505af4158015612ec9573d6000803e3d6000fd5b505050506040513d601f19601f82011682018060405250810190612eed9190614095565b6001600160801b03191690526001546001600160801b03166000908152600560209081526040808320845194830151608090811c600160801b0295901c949094179093558583015160a089015191870151935163debb52df60e01b815292937386aE3A70301705C6495Fd617787895C9A6238FfE9363debb52df93612f8f93929091899060040193845260208401929092526040830152606082015260800190565b60206040518083038186803b158015612fa757600080fd5b505af4158015612fbb573d6000803e3d6000fd5b505050506040513d601f19601f82011682018060405250810190612fdf919061412f565b60608501516080880151865160405163debb52df60e01b8152600481019390935260248301919091526044820152606481018490529091506000907386aE3A70301705C6495Fd617787895C9A6238FfE9063debb52df9060840160206040518083038186803b15801561305157600080fd5b505af4158015613065573d6000803e3d6000fd5b505050506040513d601f19601f82011682018060405250810190613089919061412f565b905060007386aE3A70301705C6495Fd617787895C9A6238FfE63ab41556f8760400151848b600001516130bc9190614398565b60208a01516040516001600160e01b031960e086901b1681526004810193909352602483019190915260448201526064810188905260840160206040518083038186803b15801561310c57600080fd5b505af4158015613120573d6000803e3d6000fd5b505050506040513d601f19601f82011682018060405250810190613144919061412f565b905080156131b557600f54604051636a55bbd760e11b81526001600160a01b03808a169263d4ab77ae9261318292600192879291169060040161422a565b600060405180830381600087803b15801561319c57600080fd5b505af11580156131b0573d6000803e3d6000fd5b505050505b6040808701516020880151915163debb52df60e01b81526000927386aE3A70301705C6495Fd617787895C9A6238FfE9263debb52df92613211928b91829060040193845260208401929092526040830152606082015260800190565b60206040518083038186803b15801561322957600080fd5b505af415801561323d573d6000803e3d6000fd5b505050506040513d601f19601f82011682018060405250810190613261919061412f565b905060007386aE3A70301705C6495Fd617787895C9A6238FfE63ab41556f8960600151878d604001516132949190614398565b8b5160405160e085901b6001600160e01b03191681526004810193909352602483019190915260448201526064810189905260840160206040518083038186803b1580156132e157600080fd5b505af41580156132f5573d6000803e3d6000fd5b505050506040513d601f19601f82011682018060405250810190613319919061412f565b9050801561338a57600f54604051636a55bbd760e11b81526001600160a01b03808c169263d4ab77ae9261335792600092879291169060040161422a565b600060405180830381600087803b15801561337157600080fd5b505af1158015613385573d6000803e3d6000fd5b505050505b6060880151885160405163debb52df60e01b81526004810192909252602482018890526044820152606481018790526000907386aE3A70301705C6495Fd617787895C9A6238FfE9063debb52df9060840160206040518083038186803b1580156133f357600080fd5b505af4158015613407573d6000803e3d6000fd5b505050506040513d601f19601f8201168201806040525081019061342b919061412f565b9050600085848d600001518c602001516134459190614398565b61344f9190614410565b6134599190614398565b9050600087838e604001518d600001516134739190614398565b61347d9190614410565b6134879190614398565b604051631e1fc12960e11b815260048101849052602481018290529091506001600160a01b038d1690633c3f825290604401600060405180830381600087803b1580156134d357600080fd5b505af11580156134e7573d6000803e3d6000fd5b5050505050505050505050505050505050565b60408051610160810182526101408084018051600090815260056020818152868320546001600160801b0319608091821b811688528551855292825287842054600160801b9004811b8316828801526001546001600160801b0316878901528451606080890191909152895182890152828a015160a089015289015160c080890191909152818a015160e0890152610100808b01519089015289015161012088015293518352600690528582205490921b909116918301919091529151639eb17fa360e01b815282918291829182917386aE3A70301705C6495Fd617787895C9A6238FfE90639eb17fa3906135f39084906004016142c6565b60a06040518083038186803b15801561360b57600080fd5b505af415801561361f573d6000803e3d6000fd5b505050506040513d601f19601f82011682018060405250810190613643919061416c565b939b929a50909850965090945092505050565b336000908152600760209081526040808320815160608101835281548152600182015493810193909352600290810154918301919091529091908760058111156136a2576136a2614458565b14806136bf575060008760058111156136bd576136bd614458565b145b156138075760015460405163422051e760e01b8152600160801b90910460801b6001600160801b031916600482015260248101879052670de0b6b3a7640000907386aE3A70301705C6495Fd617787895C9A6238FfE9063aeb64d7d90829063422051e79060440160206040518083038186803b15801561373e57600080fd5b505af4158015613752573d6000803e3d6000fd5b505050506040513d601f19601f820116820180604052508101906137769190614095565b6040516001600160e01b031960e084901b1681526001600160801b0319909116600482015260240160206040518083038186803b1580156137b657600080fd5b505af41580156137ca573d6000803e3d6000fd5b505050506040513d601f19601f820116820180604052508101906137ee919061412f565b6137f891906143cf565b90506138048187614410565b95505b600287600581111561381b5761381b614458565b141561394357600080896001600160a01b0316637bb98a686040518163ffffffff1660e01b8152600401604080518083038186803b15801561385c57600080fd5b505afa158015613870573d6000803e3d6000fd5b505050506040513d601f19601f820116820180604052508101906138949190614148565b91509150878660000160008282546138ac9190614398565b90915550508454889086906000906138c5908490614398565b90915550506001600160a01b038a16633c3f82526138e38584614398565b846040518363ffffffff1660e01b815260040161390a929190918252602082015260400190565b600060405180830381600087803b15801561392457600080fd5b505af1158015613938573d6000803e3d6000fd5b505050505050613e02565b600387600581111561395757613957614458565b1415613a7357858460010160008282546139719190614398565b925050819055508583600101600082825461398c9190614398565b90915550508415613a4257858460020160008282546139ab9190614398565b90915550508151600285015411156139d55760405162461bcd60e51b81526004016107bb9061424b565b600f546040516367f24f5d60e11b81526001600160a01b03808b169263cfe49eba92613a0b926001928c9291169060040161422a565b600060405180830381600087803b158015613a2557600080fd5b505af1158015613a39573d6000803e3d6000fd5b50505050613e02565b6040516367f24f5d60e11b81526001600160a01b0389169063cfe49eba90613a0b906001908a90339060040161422a565b6000876005811115613a8757613a87614458565b1415613b7b57600080896001600160a01b0316637bb98a686040518163ffffffff1660e01b8152600401604080518083038186803b158015613ac857600080fd5b505afa158015613adc573d6000803e3d6000fd5b505050506040513d601f19601f82011682018060405250810190613b009190614148565b9150915087866003016000828254613b189190614398565b9250508190555087856002016000828254613b339190614398565b90915550506001600160a01b038a16633c3f825282613b528686614398565b6040516001600160e01b031960e085901b1681526004810192909252602482015260440161390a565b6001876005811115613b8f57613b8f614458565b1415613c775785846004016000828254613ba99190614398565b9250508190555085836003016000828254613bc49190614398565b90915550508415613c465785846005016000828254613be39190614398565b9091555050602082015160058501541115613c105760405162461bcd60e51b81526004016107bb9061424b565b600f546040516367f24f5d60e11b81526001600160a01b03808b169263cfe49eba92613a0b926000928c9291169060040161422a565b6040516367f24f5d60e11b81526001600160a01b0389169063cfe49eba90613a0b906000908a90339060040161422a565b6004876005811115613c8b57613c8b614458565b1415613d095785846008016000828254613ca59190614398565b9250508190555085836005016000828254613cc09190614398565b90915550508415613a425785846009016000828254613cdf9190614398565b90915550508151600985015411156139d55760405162461bcd60e51b81526004016107bb9061424b565b6005876005811115613d1d57613d1d614458565b1415613e025785846006016000828254613d379190614398565b9250508190555085836004016000828254613d529190614398565b90915550508415613d9e5785846007016000828254613d719190614398565b9091555050602082015160078501541115613c105760405162461bcd60e51b81526004016107bb9061424b565b6040516367f24f5d60e11b81526001600160a01b0389169063cfe49eba90613dcf906000908a90339060040161422a565b600060405180830381600087803b158015613de957600080fd5b505af1158015613dfd573d6000803e3d6000fd5b505050505b5050505050505050565b5080546000825590600052602060002090810190610eed9190613ec2565b828054828255906000526020600020908101928215613e6a5760005260206000209182015b82811115613e6a578254825591600101919060010190613e4f565b50613e76929150613ec2565b5090565b8260028101928215613e6a579160200282015b82811115613e6a57825182546001600160a01b0319166001600160a01b03909116178255602090920191600190910190613e8d565b5b80821115613e765760008155600101613ec3565b8051613ee28161449a565b919050565b600060208284031215613ef957600080fd5b8135613f048161449a565b9392505050565b600060208284031215613f1d57600080fd5b8151613f048161449a565b60008060408385031215613f3b57600080fd5b8235613f468161449a565b91506020830135613f568161449a565b809150509250929050565b600080600080600060a08688031215613f7957600080fd5b8535613f848161449a565b94506020860135613f948161449a565b93506040860135613fa48161449a565b94979396509394606081013594506080013592915050565b60008060408385031215613fcf57600080fd5b8235613fda8161449a565b946020939093013593505050565b600060408284031215613ffa57600080fd5b82601f83011261400957600080fd5b6040516040810181811067ffffffffffffffff8211171561402c5761402c614484565b806040525080838560408601111561404357600080fd5b60005b600281101561406d5761405882613ed7565b83526020928301929190910190600101614046565b509195945050505050565b60006020828403121561408a57600080fd5b8151613f04816144af565b6000602082840312156140a757600080fd5b81516001600160801b031981168114613f0457600080fd5b600080600080608085870312156140d557600080fd5b8435600681106140e457600080fd5b93506020850135925060408501356140fb816144af565b9150606085013561410b816144af565b939692955090935050565b60006020828403121561412857600080fd5b5035919050565b60006020828403121561414157600080fd5b5051919050565b6000806040838503121561415b57600080fd5b505080516020909101519092909150565b600080600080600060a0868803121561418457600080fd5b5050835160208501516040860151606087015160809097015192989197509594509092509050565b6000602082840312156141be57600080fd5b815163ffffffff81168114613f0457600080fd5b805182526020810151602083015260408101516040830152606081015160608301526080810151608083015260a081015160a083015260c081015160c08301525050565b6001600160a01b0391909116815260200190565b921515835260208301919091526001600160a01b0316604082015260600190565b60208082526018908201527f496e73756666696369656e7420706f6f6c20746f6b656e730000000000000000604082015260600190565b6020808252600e908201526d141bdbdb081a5cc81c185d5cd95960921b604082015260600190565b6101c081016142b982856141d2565b613f0460e08301846141d2565b81516001600160801b0319168152610160810160208301516142f460208401826001600160801b0319169052565b5060408301516040830152606083015160608301526080830151608083015260a083015160a083015260c083015160c083015260e083015160e083015261010080840151818401525061012080840151818401525061014080840151614365828501826001600160801b0319169052565b505092915050565b60006001600160801b0380831681851680830382111561438f5761438f614442565b01949350505050565b600082198211156143ab576143ab614442565b500190565b600063ffffffff80831681851680830382111561438f5761438f614442565b6000826143ec57634e487b7160e01b600052601260045260246000fd5b500490565b600081600019048311821515161561440b5761440b614442565b500290565b60008282101561442257614422614442565b500390565b600060001982141561443b5761443b614442565b5060010190565b634e487b7160e01b600052601160045260246000fd5b634e487b7160e01b600052602160045260246000fd5b634e487b7160e01b600052603260045260246000fd5b634e487b7160e01b600052604160045260246000fd5b6001600160a01b0381168114610eed57600080fd5b8015158114610eed57600080fdfea2646970667358221220d69b1f8bcf00a97dfe09128728ad3f8f68578a7f8c6c1cfb489d8d4555cc4ad564736f6c63430008070033",
    "libraries": {
        "PoolSwapLibrary": "0x86aE3A70301705C6495Fd617787895C9A6238FfE"
    },
    "devdoc": {
        "kind": "dev",
        "methods": {
            "deployPool((string,uint32,uint32,uint16,address,address,address,address))": {
                "details": "Throws if pool keeper is nullThrows if deployer does not own the oracle wrapperThrows if leverage amount is invalidThrows if decimal precision is too high (i.e., greater than `MAX_DECIMALS`)",
                "params": {
                    "deploymentParameters": "Deployment parameters of the market. Some may be reconfigurable."
                },
                "returns": {
                    "_0": "Address of the created pool"
                }
            },
            "owner()": {
                "details": "Returns the address of the current owner."
            },
            "renounceOwnership()": {
                "details": "Leaves the contract without owner. It will not be possible to call `onlyOwner` functions anymore. Can only be called by the current owner. NOTE: Renouncing ownership will leave the contract without an owner, thereby removing any functionality that is only available to the owner."
            },
            "setAutoClaim(address)": {
                "details": "Throws if provided address is nullOnly callable by the owner",
                "params": {
                    "_autoClaim": "Address of the `AutoClaim`"
                }
            },
            "setFee(uint256)": {
                "details": "This is a percentage in WAD; multiplied by 10^18 e.g. 5% is 0.05 * 10^18Throws if fee is greater than 10%",
                "params": {
                    "_fee": "The fee amount as a percentage"
                }
            },
            "setFeeReceiver(address)": {
                "details": "Only callable by the owner of this contractThis fuction does not change anything for already deployed pools, only pools deployed after the change",
                "params": {
                    "_feeReceiver": "address of fee receiver"
                }
            },
            "setMaxLeverage(uint16)": {
                "details": "Throws if provided maximum leverage is non-positiveOnly callable by the owner",
                "params": {
                    "newMaxLeverage": "Maximum leverage permitted for all pools"
                }
            },
            "setMintAndBurnFee(uint256,uint256)": {
                "details": "This is a percentage in WAD; multiplied by 10^18 e.g. 5% is 0.05 * 10^18Only callable by the owner of this contractThrows if minting fee is greater than 10%Throws if burning fee is greater than 10%",
                "params": {
                    "_burningFee": "The fee amount for burns",
                    "_mintingFee": "The fee amount for mints"
                }
            },
            "setPoolKeeper(address)": {
                "details": "Throws if provided address is nullOnly callable by the owner",
                "params": {
                    "_poolKeeper": "Address of the `PoolKeeper`"
                }
            },
            "setSecondaryFeeSplitPercent(uint256)": {
                "details": "Only callable by the owner of this contractThrows if `newFeePercent` exceeds 100",
                "params": {
                    "newFeePercent": "Proportion of fees to split"
                }
            },
            "transferOwnership(address)": {
                "details": "Transfers ownership of the contract to a new account (`newOwner`). Can only be called by the current owner."
            }
        },
        "title": "The pool factory contract",
        "version": 1
    },
    "userdoc": {
        "events": {
            "DeployPool(address,address,string)": {
                "notice": "Creates a notification when a pool is deployed"
            },
            "PoolKeeperChanged(address)": {
                "notice": "Creates a notification when the pool keeper changes"
            }
        },
        "kind": "user",
        "methods": {
            "deployPool((string,uint32,uint32,uint16,address,address,address,address))": {
                "notice": "Deploy a leveraged pool and its committer/pool tokens with given parameters"
            },
            "isValidPool(address)": {
                "notice": "Format: Pool address => validity"
            },
            "isValidPoolCommitter(address)": {
                "notice": "Format: PoolCommitter address => validity"
            },
            "pools(uint256)": {
                "notice": "Format: Pool counter => pool address"
            },
            "setAutoClaim(address)": {
                "notice": "Sets the address of the associated `AutoClaim` contract"
            },
            "setFee(uint256)": {
                "notice": "Set the yearly fee amount. The max yearly fee is 10%"
            },
            "setFeeReceiver(address)": {
                "notice": "Sets the primary fee receiver of deployed Leveraged pools."
            },
            "setMaxLeverage(uint16)": {
                "notice": "Sets the maximum leverage"
            },
            "setMintAndBurnFee(uint256,uint256)": {
                "notice": "Set the minting and burning fee amount. The max yearly fee is 10%"
            },
            "setPoolKeeper(address)": {
                "notice": "Sets the address of the associated `PoolKeeper` contract"
            },
            "setSecondaryFeeSplitPercent(uint256)": {
                "notice": "Sets the proportion of fees to be split to the nominated secondary fees recipient"
            }
        },
        "version": 1
    },
    "storageLayout": {
        "storage": [
            {
                "astId": 110,
                "contract": "contracts/implementation/PoolFactory.sol:PoolFactory",
                "label": "_owner",
                "offset": 0,
                "slot": "0",
                "type": "t_address"
            },
            {
                "astId": 11057,
                "contract": "contracts/implementation/PoolFactory.sol:PoolFactory",
                "label": "pairTokenBase",
                "offset": 0,
                "slot": "1",
                "type": "t_contract(PoolToken)13586"
            },
            {
                "astId": 11062,
                "contract": "contracts/implementation/PoolFactory.sol:PoolFactory",
                "label": "poolBase",
                "offset": 0,
                "slot": "2",
                "type": "t_contract(LeveragedPool)9000"
            },
            {
                "astId": 11067,
                "contract": "contracts/implementation/PoolFactory.sol:PoolFactory",
                "label": "poolKeeper",
                "offset": 0,
                "slot": "3",
                "type": "t_contract(IPoolKeeper)15020"
            },
            {
                "astId": 11070,
                "contract": "contracts/implementation/PoolFactory.sol:PoolFactory",
                "label": "poolCommitterBase",
                "offset": 0,
                "slot": "4",
                "type": "t_contract(PoolCommitter)11035"
            },
            {
                "astId": 11074,
                "contract": "contracts/implementation/PoolFactory.sol:PoolFactory",
                "label": "autoClaim",
                "offset": 0,
                "slot": "5",
                "type": "t_address"
            },
            {
                "astId": 11076,
                "contract": "contracts/implementation/PoolFactory.sol:PoolFactory",
                "label": "feeReceiver",
                "offset": 0,
                "slot": "6",
                "type": "t_address"
            },
            {
                "astId": 11078,
                "contract": "contracts/implementation/PoolFactory.sol:PoolFactory",
                "label": "fee",
                "offset": 0,
                "slot": "7",
                "type": "t_uint256"
            },
            {
                "astId": 11081,
                "contract": "contracts/implementation/PoolFactory.sol:PoolFactory",
                "label": "secondaryFeeSplitPercent",
                "offset": 0,
                "slot": "8",
                "type": "t_uint256"
            },
            {
                "astId": 11083,
                "contract": "contracts/implementation/PoolFactory.sol:PoolFactory",
                "label": "mintingFee",
                "offset": 0,
                "slot": "9",
                "type": "t_uint256"
            },
            {
                "astId": 11085,
                "contract": "contracts/implementation/PoolFactory.sol:PoolFactory",
                "label": "burningFee",
                "offset": 0,
                "slot": "10",
                "type": "t_uint256"
            },
            {
                "astId": 11094,
                "contract": "contracts/implementation/PoolFactory.sol:PoolFactory",
                "label": "maxLeverage",
                "offset": 0,
                "slot": "11",
                "type": "t_uint16"
            },
            {
                "astId": 11100,
                "contract": "contracts/implementation/PoolFactory.sol:PoolFactory",
                "label": "pools",
                "offset": 0,
                "slot": "12",
                "type": "t_mapping(t_uint256,t_address)"
            },
            {
                "astId": 11103,
                "contract": "contracts/implementation/PoolFactory.sol:PoolFactory",
                "label": "numPools",
                "offset": 0,
                "slot": "13",
                "type": "t_uint256"
            },
            {
                "astId": 11109,
                "contract": "contracts/implementation/PoolFactory.sol:PoolFactory",
                "label": "isValidPool",
                "offset": 0,
                "slot": "14",
                "type": "t_mapping(t_address,t_bool)"
            },
            {
                "astId": 11115,
                "contract": "contracts/implementation/PoolFactory.sol:PoolFactory",
                "label": "isValidPoolCommitter",
                "offset": 0,
                "slot": "15",
                "type": "t_mapping(t_address,t_bool)"
            }
        ],
        "types": {
            "t_address": {
                "encoding": "inplace",
                "label": "address",
                "numberOfBytes": "20"
            },
            "t_bool": {
                "encoding": "inplace",
                "label": "bool",
                "numberOfBytes": "1"
            },
            "t_contract(IPoolKeeper)15020": {
                "encoding": "inplace",
                "label": "contract IPoolKeeper",
                "numberOfBytes": "20"
            },
            "t_contract(LeveragedPool)9000": {
                "encoding": "inplace",
                "label": "contract LeveragedPool",
                "numberOfBytes": "20"
            },
            "t_contract(PoolCommitter)11035": {
                "encoding": "inplace",
                "label": "contract PoolCommitter",
                "numberOfBytes": "20"
            },
            "t_contract(PoolToken)13586": {
                "encoding": "inplace",
                "label": "contract PoolToken",
                "numberOfBytes": "20"
            },
            "t_mapping(t_address,t_bool)": {
                "encoding": "mapping",
                "key": "t_address",
                "label": "mapping(address => bool)",
                "numberOfBytes": "32",
                "value": "t_bool"
            },
            "t_mapping(t_uint256,t_address)": {
                "encoding": "mapping",
                "key": "t_uint256",
                "label": "mapping(uint256 => address)",
                "numberOfBytes": "32",
                "value": "t_address"
            },
            "t_uint16": {
                "encoding": "inplace",
                "label": "uint16",
                "numberOfBytes": "2"
            },
            "t_uint256": {
                "encoding": "inplace",
                "label": "uint256",
                "numberOfBytes": "32"
            }
        }
    }
}