{
    "address": "0xc05BD952dEc77c22082a3D79f67598f58EC3d18F",
    "abi": [
        {
            "inputs": [
                {
                    "internalType": "address",
                    "name": "_factory",
                    "type": "address"
                }
            ],
            "stateMutability": "nonpayable",
            "type": "constructor"
        },
        {
            "anonymous": false,
            "inputs": [
                {
                    "indexed": true,
                    "internalType": "address",
                    "name": "_pool",
                    "type": "address"
                },
                {
                    "indexed": true,
                    "internalType": "address",
                    "name": "keeper",
                    "type": "address"
                },
                {
                    "indexed": false,
                    "internalType": "uint256",
                    "name": "reward",
                    "type": "uint256"
                }
            ],
            "name": "KeeperPaid",
            "type": "event"
        },
        {
            "anonymous": false,
            "inputs": [
                {
                    "indexed": true,
                    "internalType": "address",
                    "name": "_pool",
                    "type": "address"
                },
                {
                    "indexed": true,
                    "internalType": "address",
                    "name": "keeper",
                    "type": "address"
                },
                {
                    "indexed": false,
                    "internalType": "uint256",
                    "name": "expectedReward",
                    "type": "uint256"
                }
            ],
            "name": "KeeperPaymentError",
            "type": "event"
        },
        {
            "anonymous": false,
            "inputs": [
                {
                    "indexed": true,
                    "internalType": "address",
                    "name": "previousOwner",
                    "type": "address"
                },
                {
                    "indexed": true,
                    "internalType": "address",
                    "name": "newOwner",
                    "type": "address"
                }
            ],
            "name": "OwnershipTransferred",
            "type": "event"
        },
        {
            "anonymous": false,
            "inputs": [
                {
                    "indexed": true,
                    "internalType": "address",
                    "name": "poolAddress",
                    "type": "address"
                },
                {
                    "indexed": true,
                    "internalType": "int256",
                    "name": "firstPrice",
                    "type": "int256"
                }
            ],
            "name": "PoolAdded",
            "type": "event"
        },
        {
            "anonymous": false,
            "inputs": [
                {
                    "indexed": true,
                    "internalType": "address",
                    "name": "pool",
                    "type": "address"
                },
                {
                    "indexed": false,
                    "internalType": "string",
                    "name": "reason",
                    "type": "string"
                }
            ],
            "name": "PoolUpkeepError",
            "type": "event"
        },
        {
            "anonymous": false,
            "inputs": [
                {
                    "indexed": true,
                    "internalType": "address",
                    "name": "pool",
                    "type": "address"
                },
                {
                    "indexed": false,
                    "internalType": "bytes",
                    "name": "data",
                    "type": "bytes"
                },
                {
                    "indexed": true,
                    "internalType": "int256",
                    "name": "startPrice",
                    "type": "int256"
                },
                {
                    "indexed": true,
                    "internalType": "int256",
                    "name": "endPrice",
                    "type": "int256"
                }
            ],
            "name": "UpkeepSuccessful",
            "type": "event"
        },
        {
            "inputs": [],
            "name": "BASE_TIP",
            "outputs": [
                {
                    "internalType": "uint256",
                    "name": "",
                    "type": "uint256"
                }
            ],
            "stateMutability": "view",
            "type": "function"
        },
        {
            "inputs": [],
            "name": "BLOCK_TIME",
            "outputs": [
                {
                    "internalType": "uint256",
                    "name": "",
                    "type": "uint256"
                }
            ],
            "stateMutability": "view",
            "type": "function"
        },
        {
            "inputs": [],
            "name": "MAX_DECIMALS",
            "outputs": [
                {
                    "internalType": "uint256",
                    "name": "",
                    "type": "uint256"
                }
            ],
            "stateMutability": "view",
            "type": "function"
        },
        {
            "inputs": [],
            "name": "TIP_DELTA_PER_BLOCK",
            "outputs": [
                {
                    "internalType": "uint256",
                    "name": "",
                    "type": "uint256"
                }
            ],
            "stateMutability": "view",
            "type": "function"
        },
        {
            "inputs": [
                {
                    "internalType": "address[]",
                    "name": "_pools",
                    "type": "address[]"
                }
            ],
            "name": "checkUpkeepMultiplePools",
            "outputs": [
                {
                    "internalType": "bool",
                    "name": "",
                    "type": "bool"
                }
            ],
            "stateMutability": "view",
            "type": "function"
        },
        {
            "inputs": [
                {
                    "internalType": "address",
                    "name": "_pool",
                    "type": "address"
                }
            ],
            "name": "checkUpkeepSinglePool",
            "outputs": [
                {
                    "internalType": "bool",
                    "name": "",
                    "type": "bool"
                }
            ],
            "stateMutability": "view",
            "type": "function"
        },
        {
            "inputs": [
                {
                    "internalType": "address",
                    "name": "",
                    "type": "address"
                }
            ],
            "name": "executionPrice",
            "outputs": [
                {
                    "internalType": "int256",
                    "name": "",
                    "type": "int256"
                }
            ],
            "stateMutability": "view",
            "type": "function"
        },
        {
            "inputs": [],
            "name": "factory",
            "outputs": [
                {
                    "internalType": "contract IPoolFactory",
                    "name": "",
                    "type": "address"
                }
            ],
            "stateMutability": "view",
            "type": "function"
        },
        {
            "inputs": [],
            "name": "gasPrice",
            "outputs": [
                {
                    "internalType": "uint256",
                    "name": "",
                    "type": "uint256"
                }
            ],
            "stateMutability": "view",
            "type": "function"
        },
        {
            "inputs": [
                {
                    "internalType": "address",
                    "name": "_pool",
                    "type": "address"
                },
                {
                    "internalType": "uint256",
                    "name": "_gasPrice",
                    "type": "uint256"
                },
                {
                    "internalType": "uint256",
                    "name": "_gasSpent",
                    "type": "uint256"
                }
            ],
            "name": "keeperGas",
            "outputs": [
                {
                    "internalType": "uint256",
                    "name": "",
                    "type": "uint256"
                }
            ],
            "stateMutability": "view",
            "type": "function"
        },
        {
            "inputs": [
                {
                    "internalType": "address",
                    "name": "_pool",
                    "type": "address"
                },
                {
                    "internalType": "uint256",
                    "name": "_gasPrice",
                    "type": "uint256"
                },
                {
                    "internalType": "uint256",
                    "name": "_gasSpent",
                    "type": "uint256"
                },
                {
                    "internalType": "uint256",
                    "name": "_savedPreviousUpdatedTimestamp",
                    "type": "uint256"
                },
                {
                    "internalType": "uint256",
                    "name": "_poolInterval",
                    "type": "uint256"
                }
            ],
            "name": "keeperReward",
            "outputs": [
                {
                    "internalType": "uint256",
                    "name": "",
                    "type": "uint256"
                }
            ],
            "stateMutability": "view",
            "type": "function"
        },
        {
            "inputs": [
                {
                    "internalType": "uint256",
                    "name": "_savedPreviousUpdatedTimestamp",
                    "type": "uint256"
                },
                {
                    "internalType": "uint256",
                    "name": "_poolInterval",
                    "type": "uint256"
                }
            ],
            "name": "keeperTip",
            "outputs": [
                {
                    "internalType": "uint256",
                    "name": "",
                    "type": "uint256"
                }
            ],
            "stateMutability": "view",
            "type": "function"
        },
        {
            "inputs": [
                {
                    "internalType": "address",
                    "name": "_poolAddress",
                    "type": "address"
                }
            ],
            "name": "newPool",
            "outputs": [],
            "stateMutability": "nonpayable",
            "type": "function"
        },
        {
            "inputs": [],
            "name": "owner",
            "outputs": [
                {
                    "internalType": "address",
                    "name": "",
                    "type": "address"
                }
            ],
            "stateMutability": "view",
            "type": "function"
        },
        {
            "inputs": [
                {
                    "internalType": "address[]",
                    "name": "pools",
                    "type": "address[]"
                }
            ],
            "name": "performUpkeepMultiplePools",
            "outputs": [],
            "stateMutability": "nonpayable",
            "type": "function"
        },
        {
            "inputs": [
                {
                    "internalType": "address",
                    "name": "_pool",
                    "type": "address"
                }
            ],
            "name": "performUpkeepSinglePool",
            "outputs": [],
            "stateMutability": "nonpayable",
            "type": "function"
        },
        {
            "inputs": [],
            "name": "renounceOwnership",
            "outputs": [],
            "stateMutability": "nonpayable",
            "type": "function"
        },
        {
            "inputs": [
                {
                    "internalType": "address",
                    "name": "_factory",
                    "type": "address"
                }
            ],
            "name": "setFactory",
            "outputs": [],
            "stateMutability": "nonpayable",
            "type": "function"
        },
        {
            "inputs": [
                {
                    "internalType": "uint256",
                    "name": "_price",
                    "type": "uint256"
                }
            ],
            "name": "setGasPrice",
            "outputs": [],
            "stateMutability": "nonpayable",
            "type": "function"
        },
        {
            "inputs": [
                {
                    "internalType": "address",
                    "name": "newOwner",
                    "type": "address"
                }
            ],
            "name": "transferOwnership",
            "outputs": [],
            "stateMutability": "nonpayable",
            "type": "function"
        }
    ],
    "transactionHash": "0xc8472613ca0dc277c9fd5c0b0cfd7ff8532847e42731e1454e5a3b9e4abdcecb",
    "args": [
        "0x5B1B8eEB1401aAC76bA3e02885FCb725109E3F9b"
    ],
    "solcInputHash": "9fa5c19a38f0b8dd3ef7cd9e4cdd4bc0",
    "bytecode": "0x60806040526402540be4006003553480156200001a57600080fd5b50604051620020d5380380620020d58339810160408190526200003d9162000119565b6200004833620000c9565b6001600160a01b038116620000a35760405162461bcd60e51b815260206004820152601b60248201527f466163746f72792063616e6e6f74206265203020616464726573730000000000604482015260640160405180910390fd5b600280546001600160a01b0319166001600160a01b03929092169190911790556200014b565b600080546001600160a01b038381166001600160a01b0319831681178455604051919092169283917f8be0079c531659141344cd1fd0a4f28419497f9722a3daafe3b4186f6b6457e09190a35050565b6000602082840312156200012c57600080fd5b81516001600160a01b03811681146200014457600080fd5b9392505050565b611f7a806200015b6000396000f3fe608060405234801561001057600080fd5b506004361061012c5760003560e01c8063b3fbb7c4116100ad578063ce1dcdfc11610071578063ce1dcdfc1461025e578063f2fde38b14610271578063f930191014610284578063fcab9e981461028c578063fe173b971461029f57600080fd5b8063b3fbb7c4146101f2578063b9c6536514610205578063bf1fe42014610218578063c45a01551461022b578063cdd9e1371461023e57600080fd5b80638da5cb5b116100f45780638da5cb5b1461019f57806391a60782146101c45780639f9a3d95146101d7578063a40d6b80146101df578063aea8acb1146101d757600080fd5b80630417cf8e14610131578063225739b11461014c5780633c5c7fb31461016f5780635bb4780814610184578063715018a614610197575b600080fd5b610139601281565b6040519081526020015b60405180910390f35b61015f61015a366004611a4c565b6102a8565b6040519015158152602001610143565b61018261017d366004611a4c565b6103a9565b005b610182610192366004611a4c565b6105b7565b610182610603565b6000546001600160a01b03165b6040516001600160a01b039091168152602001610143565b6101826101d2366004611a4c565b610639565b610139600581565b6101396101ed366004611a86565b61083b565b610139610200366004611abb565b610988565b610139610213366004611c7a565b610b72565b610182610226366004611c61565b610bce565b6002546101ac906001600160a01b031681565b61013961024c366004611a4c565b60016020526000908152604090205481565b61015f61026c366004611aff565b610bfd565b61018261027f366004611a4c565b610c5e565b610139600d81565b61018261029a366004611aff565b610cf9565b61013960035481565b600254604051635ab78ee160e01b81526001600160a01b0383811660048301526000921690635ab78ee19060240160206040518083038186803b1580156102ee57600080fd5b505afa158015610302573d6000803e3d6000fd5b505050506040513d601f19601f820116820180604052508101906103269190611b74565b61033257506000919050565b816001600160a01b0316637bbf10336040518163ffffffff1660e01b815260040160206040518083038186803b15801561036b57600080fd5b505afa15801561037f573d6000803e3d6000fd5b505050506040513d601f19601f820116820180604052508101906103a39190611b74565b92915050565b6002546001600160a01b031633146103fd5760405162461bcd60e51b815260206004820152601260248201527143616c6c6572206e6f7420666163746f727960701b60448201526064015b60405180910390fd5b6000816001600160a01b031663b9ed8abf6040518163ffffffff1660e01b815260040160206040518083038186803b15801561043857600080fd5b505afa15801561044c573d6000803e3d6000fd5b505050506040513d601f19601f820116820180604052508101906104709190611a69565b90506000816001600160a01b03166398d5fdca6040518163ffffffff1660e01b815260040160206040518083038186803b1580156104ad57600080fd5b505afa1580156104c1573d6000803e3d6000fd5b505050506040513d601f19601f820116820180604052508101906104e59190611b96565b9050600081136105375760405162461bcd60e51b815260206004820152601b60248201527f4669727374207072696365206973206e6f6e2d706f736974697665000000000060448201526064016103f4565b600061055d61055861054884610d45565b668075782dace9d960c71b610dd3565b611050565b905081846001600160a01b03167fe950cb32f7a787627d713d7365623fef2d762ef8fcf813b865a04350852deb9b60405160405180910390a36001600160a01b039093166000908152600160205260409020929092555050565b6000546001600160a01b031633146105e15760405162461bcd60e51b81526004016103f490611cfe565b600280546001600160a01b0319166001600160a01b0392909216919091179055565b6000546001600160a01b0316331461062d5760405162461bcd60e51b81526004016103f490611cfe565b61063760006110f7565b565b60005a9050610647826102a8565b61064f575050565b6000829050600080600080846001600160a01b03166304883c276040518163ffffffff1660e01b815260040160006040518083038186803b15801561069357600080fd5b505afa1580156106a7573d6000803e3d6000fd5b505050506040513d6000823e601f3d908101601f191682016040526106cf9190810190611baf565b6001600160a01b038b81166000908152600160205260409081902080549087905590516303d8ce9d60e61b81526004810182905260248101879052959950939750919550935090919087169063f633a74090604401600060405180830381600087803b15801561073e57600080fd5b505af192505050801561074f575060015b6107ce5761075b611e89565b806308c379a014156107c25750610770611ea5565b8061077b57506107c4565b886001600160a01b03167f8a47468bf96478429d382ed6385d9c77fba8b89540cd88199b1b51d5723b11fa826040516107b49190611ceb565b60405180910390a250610831565b505b3d6000803e3d6000fd5b60005a6107db9089611d8c565b90506107ec89600354838787611147565b85828a6001600160a01b03167f0aa8d2838ad6d4e2a5d7ca0826dfdbc36d922adf8fe5c6d25aee2724b07de074886040516108279190611ceb565b60405180910390a4505b5050505050505050565b600080846001600160a01b0316638226f3966040518163ffffffff1660e01b815260040160206040518083038186803b15801561087757600080fd5b505afa15801561088b573d6000803e3d6000fd5b505050506040513d601f19601f820116820180604052508101906108af9190611a69565b6001600160a01b03166398d5fdca6040518163ffffffff1660e01b815260040160206040518083038186803b1580156108e757600080fd5b505afa1580156108fb573d6000803e3d6000fd5b505050506040513d601f19601f8201168201806040525081019061091f9190611b96565b905060008113610933576000915050610981565b60006109476109428587611d6d565b61126c565b905060006109548361126c565b905061097b6109766109668484610dd3565b668075782dace9d960c71b6112d0565b611566565b93505050505b9392505050565b60008061099687878761083b565b905060006109a76109428686610b72565b90506109bc816109b7606461126c565b6112d0565b905060006109e96105586109cf8561126c565b6109e46109666109de8861126c565b87610dd3565b6115e9565b90506000896001600160a01b031663217a4b706040518163ffffffff1660e01b815260040160206040518083038186803b158015610a2657600080fd5b505afa158015610a3a573d6000803e3d6000fd5b505050506040513d601f19601f82011682018060405250810190610a5e9190611a69565b6001600160a01b031663313ce5676040518163ffffffff1660e01b815260040160206040518083038186803b158015610a9657600080fd5b505afa158015610aaa573d6000803e3d6000fd5b505050506040513d601f19601f82011682018060405250810190610ace9190611c9c565b60405163bf36f0e960e01b81526004810184905260ff9190911660248201819052915060009073C793b1Bc41A5Ae49571d01e7A99731Ea3cb1Dd039063bf36f0e99060440160206040518083038186803b158015610b2b57600080fd5b505af4158015610b3f573d6000803e3d6000fd5b505050506040513d601f19601f82011682018060405250810190610b639190611b96565b9b9a5050505050505050505050565b600080610b7f8385611d33565b610b899042611d8c565b90506000600d610b9a836005611d6d565b610ba49190611d4b565b610baf906005611d33565b90506064811115610bc5576064925050506103a3565b91506103a39050565b6000546001600160a01b03163314610bf85760405162461bcd60e51b81526004016103f490611cfe565b600355565b6000805b82811015610c5457610c33848483818110610c1e57610c1e611e5d565b905060200201602081019061015a9190611a4c565b15610c425760019150506103a3565b80610c4c81611e00565b915050610c01565b5060009392505050565b6000546001600160a01b03163314610c885760405162461bcd60e51b81526004016103f490611cfe565b6001600160a01b038116610ced5760405162461bcd60e51b815260206004820152602660248201527f4f776e61626c653a206e6577206f776e657220697320746865207a65726f206160448201526564647265737360d01b60648201526084016103f4565b610cf6816110f7565b50565b60005b81811015610d4057610d2e838383818110610d1957610d19611e5d565b90506020020160208101906101d29190611a4c565b80610d3881611e00565b915050610cfc565b505050565b600081610d5457506000919050565b6000808313610d665782600003610d68565b825b90506000610d75826119a9565b90506070811015610d8e578060700382901b9150610da1565b6070811115610da1576070810382901c91505b6001600160701b03909116613fff820160701b17906000841215610dc9576001607f1b821791505b5060801b92915050565b6000617fff60f084811c8216919084901c811690821415610e835780617fff1415610e51576001600160801b03198581169085161415610e1e57505050600160ff1b811682186103a3565b600160ff1b6001600160801b0319868618161415610e41575050508181176103a3565b5061ffff60ef1b91506103a39050565b600160801b600160ff1b038416610e72575061ffff60ef1b91506103a39050565b505050600160ff1b811682186103a3565b80617fff1415610ebf57600160801b600160ff1b038516610eae575061ffff60ef1b91506103a39050565b505050600160ff1b821681186103a3565b6001600160701b03608086901c1682610edb5760019250610ee2565b600160701b175b6001600160701b03608086901c1682610efe5760019250610f05565b600160701b175b9081029081610f3357600160ff1b87871816610f22576000610f28565b600160ff1b5b9450505050506103a3565b928201926000600160e11b831015610f6657600160e01b831015610f5f57610f5a836119a9565b610f69565b60e0610f69565b60e15b90506140708186011015610f84576000945060009250611021565b6140e08186011015610fc757614070851015610fa957846140700383901c9250610fbe565b614070851115610fbe57614070850383901b92505b60009450611021565b61c0dd8186011115610fe157617fff945060009250611021565b6070811115610ff8576070810383901c925061100b565b607081101561100b578060700383901b92505b6001600160701b03831692506140df8186010394505b82607086901b888a186001607f1b60801b1660801c6001600160801b0316171760801b955050505050506103a3565b6000617fff60f083901c166140fe81111561106a57600080fd5b613fff81101561107d5750600092915050565b600160701b6001600160701b03608085901c161761406f8210156110a75761406f8290031c6110b9565b61406f8211156110b95761406e1982011b5b6001607f1b608085901c106110e357600160ff1b8111156110d957600080fd5b6000039392505050565b6001600160ff1b0381111561098157600080fd5b600080546001600160a01b038381166001600160a01b0319831681178455604051919092169283917f8be0079c531659141344cd1fd0a4f28419497f9722a3daafe3b4186f6b6457e09190a35050565b60006111568686868686610988565b604051636dc2b27160e01b8152336004820152602481018290529091506001600160a01b03871690636dc2b27190604401602060405180830381600087803b1580156111a157600080fd5b505af11580156111b5573d6000803e3d6000fd5b505050506040513d601f19601f820116820180604052508101906111d99190611b74565b156112235760405181815233906001600160a01b038816907ff03012dd4aab142682aa01439f94e975e2ec77ef558352323bc05f382f74b0829060200160405180910390a3611264565b60405181815233906001600160a01b038816907f08b35d4c86707ba44cdcc5efaa79b8a307e6c7f789f1eb86ca1ff1e9bde056979060200160405180910390a35b505050505050565b60008161127b57506000919050565b816000611287826119a9565b905060708110156112a0578060700382901b91506112b3565b60708111156112b3576070810382901c91505b613fff0160701b6001600160701b03919091161760801b92915050565b6000617fff60f084811c8216919084901c8116908214156113055780617fff1415610e72575061ffff60ef1b91506103a39050565b80617fff1415611349576dffffffffffffffffffffffffffff60801b841615611338575061ffff60ef1b91506103a39050565b505050808218600160ff1b166103a3565b600160801b600160ff1b03841661139357600160801b600160ff1b03851661137b575061ffff60ef1b91506103a39050565b505050808218600160ff1b16617fff60f01b176103a3565b6001600160701b03608085901c16816113af57600191506113b6565b600160701b175b6001600160701b03608087901c16836113f55780156113f05760006113da826119a9565b6001955060e20393840160711901939190911b90505b6113ff565b600160701b1760721b5b81818161140e5761140e611e47565b0490508061142a57600160ff1b87871816610f22576000610f28565b6001606c1b81101561143e5761143e611e1b565b6000600160731b82101561147d57600160721b82101561147257600160711b82101561146b576070611475565b6071611475565b60725b60ff16611486565b611486826119a9565b9050836140710181860111156114a457617fff945060009150611537565b83818601613ffc0110156114bf576000945060009150611537565b83818601613f8c01101561150c578385613ffc0111156114ea578385613ffc010382901b9150611503565b8385613ffc01101561150357613ffc8585030382901c91505b60009450611537565b607081111561151f576070810382901c91505b6001600160701b038216915083818601613f8d010394505b81607086901b888a186001607f1b60801b1660801c6001600160801b0316171760801b955050505050506103a3565b6000617fff60f083901c16613fff8110156115845750600092915050565b6001607f1b608084901c1061159857600080fd5b6140fe8111156115a757600080fd5b600160701b6001600160701b03608085901c161761406f8210156115d15761406f8290031c610981565b61406f8211156109815761406e1982011b9392505050565b6000617fff60f084811c8216919084901c8116908214156116375780617fff141561162d576001600160801b03198581169085161415610e415784925050506103a3565b84925050506103a3565b80617fff141561164b5783925050506103a3565b6001607f1b608086901c90811015906001600160701b0316836116715760019350611678565b600160701b175b6001607f1b608087901c90811015906001600160701b03168461169e57600194506116a5565b600160701b175b826116d5576001600160801b03198816600160ff1b146116c557876116c8565b60005b96505050505050506103a3565b806116f5576001600160801b03198916600160ff1b146116c557886116c8565b848603841515831515141561180057607081131561171c57899750505050505050506103a3565b600081131561172e5790811c9061175d565b606f1981121561174757889750505050505050506103a3565b600081121561175d578060000384901c93508596505b92810192600160711b8410611778576001968701969390931c925b86617fff14156117aa578461179257617fff60f01b61179c565b6001600160f01b03195b9750505050505050506103a3565b600160701b8410156117bf57600096506117cc565b6001600160701b03841693505b83607088901b866117de5760006117e4565b6001607f1b5b6001600160801b0316171760801b9750505050505050506103a3565b600081131561181b57600184901b9350600187039650611832565b600081121561183257600182901b91506001860396505b60708113156118445760019150611891565b6001811315611861576001810360018303901c6001019150611891565b606f198112156118745760019350611891565b600019811215611891576001816000030360018503901c60010193505b8184106118a25781840393506118ab565b83820393508294505b836118c15750600096506103a395505050505050565b60006118cc856119a9565b905080607114156118f257600185901c6001600160701b03169450600188019750611941565b607081101561193457607081900380891115611921578086901b6001600160701b03169550808903985061192e565b600098600019019590951b945b50611941565b6001600160701b03851694505b87617fff1415611974578561195b57617fff60f01b611965565b6001600160f01b03195b985050505050505050506103a3565b84607089901b8761198657600061198c565b6001607f1b5b6001600160801b0316171760801b985050505050505050506103a3565b60008082116119b757600080fd5b6000600160801b83106119cc57608092831c92015b6801000000000000000083106119e457604092831c92015b64010000000083106119f857602092831c92015b620100008310611a0a57601092831c92015b6101008310611a1b57600892831c92015b60108310611a2b57600492831c92015b60048310611a3b57600292831c92015b600283106103a35760010192915050565b600060208284031215611a5e57600080fd5b813561098181611f2f565b600060208284031215611a7b57600080fd5b815161098181611f2f565b600080600060608486031215611a9b57600080fd5b8335611aa681611f2f565b95602085013595506040909401359392505050565b600080600080600060a08688031215611ad357600080fd5b8535611ade81611f2f565b97602087013597506040870135966060810135965060800135945092505050565b60008060208385031215611b1257600080fd5b823567ffffffffffffffff80821115611b2a57600080fd5b818501915085601f830112611b3e57600080fd5b813581811115611b4d57600080fd5b8660208260051b8501011115611b6257600080fd5b60209290920196919550909350505050565b600060208284031215611b8657600080fd5b8151801515811461098157600080fd5b600060208284031215611ba857600080fd5b5051919050565b60008060008060808587031215611bc557600080fd5b84519350602085015167ffffffffffffffff80821115611be457600080fd5b818701915087601f830112611bf857600080fd5b815181811115611c0a57611c0a611e73565b6040519150611c23601f8201601f191660200183611dd3565b808252886020828501011115611c3857600080fd5b611c49816020840160208601611da3565b50604087015160609097015195989097509350505050565b600060208284031215611c7357600080fd5b5035919050565b60008060408385031215611c8d57600080fd5b50508035926020909101359150565b600060208284031215611cae57600080fd5b815160ff8116811461098157600080fd5b60008151808452611cd7816020860160208601611da3565b601f01601f19169290920160200192915050565b6020815260006109816020830184611cbf565b6020808252818101527f4f776e61626c653a2063616c6c6572206973206e6f7420746865206f776e6572604082015260600190565b60008219821115611d4657611d46611e31565b500190565b600082611d6857634e487b7160e01b600052601260045260246000fd5b500490565b6000816000190483118215151615611d8757611d87611e31565b500290565b600082821015611d9e57611d9e611e31565b500390565b60005b83811015611dbe578181015183820152602001611da6565b83811115611dcd576000848401525b50505050565b601f8201601f1916810167ffffffffffffffff81118282101715611df957611df9611e73565b6040525050565b6000600019821415611e1457611e14611e31565b5060010190565b634e487b7160e01b600052600160045260246000fd5b634e487b7160e01b600052601160045260246000fd5b634e487b7160e01b600052601260045260246000fd5b634e487b7160e01b600052603260045260246000fd5b634e487b7160e01b600052604160045260246000fd5b600060033d1115611ea25760046000803e5060005160e01c5b90565b600060443d1015611eb35790565b6040516003193d81016004833e81513d67ffffffffffffffff8160248401118184111715611ee357505050505090565b8285019150815181811115611efb5750505050505090565b843d8701016020828501011115611f155750505050505090565b611f2460208286010187611dd3565b509095945050505050565b6001600160a01b0381168114610cf657600080fdfea26469706673582212204228dd043a362f2ea3f05e4a3e96ee425dab22e5950e1b776997974010e723e264736f6c63430008070033",
    "deployedBytecode": "0x608060405234801561001057600080fd5b506004361061012c5760003560e01c8063b3fbb7c4116100ad578063ce1dcdfc11610071578063ce1dcdfc1461025e578063f2fde38b14610271578063f930191014610284578063fcab9e981461028c578063fe173b971461029f57600080fd5b8063b3fbb7c4146101f2578063b9c6536514610205578063bf1fe42014610218578063c45a01551461022b578063cdd9e1371461023e57600080fd5b80638da5cb5b116100f45780638da5cb5b1461019f57806391a60782146101c45780639f9a3d95146101d7578063a40d6b80146101df578063aea8acb1146101d757600080fd5b80630417cf8e14610131578063225739b11461014c5780633c5c7fb31461016f5780635bb4780814610184578063715018a614610197575b600080fd5b610139601281565b6040519081526020015b60405180910390f35b61015f61015a366004611a4c565b6102a8565b6040519015158152602001610143565b61018261017d366004611a4c565b6103a9565b005b610182610192366004611a4c565b6105b7565b610182610603565b6000546001600160a01b03165b6040516001600160a01b039091168152602001610143565b6101826101d2366004611a4c565b610639565b610139600581565b6101396101ed366004611a86565b61083b565b610139610200366004611abb565b610988565b610139610213366004611c7a565b610b72565b610182610226366004611c61565b610bce565b6002546101ac906001600160a01b031681565b61013961024c366004611a4c565b60016020526000908152604090205481565b61015f61026c366004611aff565b610bfd565b61018261027f366004611a4c565b610c5e565b610139600d81565b61018261029a366004611aff565b610cf9565b61013960035481565b600254604051635ab78ee160e01b81526001600160a01b0383811660048301526000921690635ab78ee19060240160206040518083038186803b1580156102ee57600080fd5b505afa158015610302573d6000803e3d6000fd5b505050506040513d601f19601f820116820180604052508101906103269190611b74565b61033257506000919050565b816001600160a01b0316637bbf10336040518163ffffffff1660e01b815260040160206040518083038186803b15801561036b57600080fd5b505afa15801561037f573d6000803e3d6000fd5b505050506040513d601f19601f820116820180604052508101906103a39190611b74565b92915050565b6002546001600160a01b031633146103fd5760405162461bcd60e51b815260206004820152601260248201527143616c6c6572206e6f7420666163746f727960701b60448201526064015b60405180910390fd5b6000816001600160a01b031663b9ed8abf6040518163ffffffff1660e01b815260040160206040518083038186803b15801561043857600080fd5b505afa15801561044c573d6000803e3d6000fd5b505050506040513d601f19601f820116820180604052508101906104709190611a69565b90506000816001600160a01b03166398d5fdca6040518163ffffffff1660e01b815260040160206040518083038186803b1580156104ad57600080fd5b505afa1580156104c1573d6000803e3d6000fd5b505050506040513d601f19601f820116820180604052508101906104e59190611b96565b9050600081136105375760405162461bcd60e51b815260206004820152601b60248201527f4669727374207072696365206973206e6f6e2d706f736974697665000000000060448201526064016103f4565b600061055d61055861054884610d45565b668075782dace9d960c71b610dd3565b611050565b905081846001600160a01b03167fe950cb32f7a787627d713d7365623fef2d762ef8fcf813b865a04350852deb9b60405160405180910390a36001600160a01b039093166000908152600160205260409020929092555050565b6000546001600160a01b031633146105e15760405162461bcd60e51b81526004016103f490611cfe565b600280546001600160a01b0319166001600160a01b0392909216919091179055565b6000546001600160a01b0316331461062d5760405162461bcd60e51b81526004016103f490611cfe565b61063760006110f7565b565b60005a9050610647826102a8565b61064f575050565b6000829050600080600080846001600160a01b03166304883c276040518163ffffffff1660e01b815260040160006040518083038186803b15801561069357600080fd5b505afa1580156106a7573d6000803e3d6000fd5b505050506040513d6000823e601f3d908101601f191682016040526106cf9190810190611baf565b6001600160a01b038b81166000908152600160205260409081902080549087905590516303d8ce9d60e61b81526004810182905260248101879052959950939750919550935090919087169063f633a74090604401600060405180830381600087803b15801561073e57600080fd5b505af192505050801561074f575060015b6107ce5761075b611e89565b806308c379a014156107c25750610770611ea5565b8061077b57506107c4565b886001600160a01b03167f8a47468bf96478429d382ed6385d9c77fba8b89540cd88199b1b51d5723b11fa826040516107b49190611ceb565b60405180910390a250610831565b505b3d6000803e3d6000fd5b60005a6107db9089611d8c565b90506107ec89600354838787611147565b85828a6001600160a01b03167f0aa8d2838ad6d4e2a5d7ca0826dfdbc36d922adf8fe5c6d25aee2724b07de074886040516108279190611ceb565b60405180910390a4505b5050505050505050565b600080846001600160a01b0316638226f3966040518163ffffffff1660e01b815260040160206040518083038186803b15801561087757600080fd5b505afa15801561088b573d6000803e3d6000fd5b505050506040513d601f19601f820116820180604052508101906108af9190611a69565b6001600160a01b03166398d5fdca6040518163ffffffff1660e01b815260040160206040518083038186803b1580156108e757600080fd5b505afa1580156108fb573d6000803e3d6000fd5b505050506040513d601f19601f8201168201806040525081019061091f9190611b96565b905060008113610933576000915050610981565b60006109476109428587611d6d565b61126c565b905060006109548361126c565b905061097b6109766109668484610dd3565b668075782dace9d960c71b6112d0565b611566565b93505050505b9392505050565b60008061099687878761083b565b905060006109a76109428686610b72565b90506109bc816109b7606461126c565b6112d0565b905060006109e96105586109cf8561126c565b6109e46109666109de8861126c565b87610dd3565b6115e9565b90506000896001600160a01b031663217a4b706040518163ffffffff1660e01b815260040160206040518083038186803b158015610a2657600080fd5b505afa158015610a3a573d6000803e3d6000fd5b505050506040513d601f19601f82011682018060405250810190610a5e9190611a69565b6001600160a01b031663313ce5676040518163ffffffff1660e01b815260040160206040518083038186803b158015610a9657600080fd5b505afa158015610aaa573d6000803e3d6000fd5b505050506040513d601f19601f82011682018060405250810190610ace9190611c9c565b60405163bf36f0e960e01b81526004810184905260ff9190911660248201819052915060009073__$dc3b4b0a367edd91a2d74c73e2da54c142$__9063bf36f0e99060440160206040518083038186803b158015610b2b57600080fd5b505af4158015610b3f573d6000803e3d6000fd5b505050506040513d601f19601f82011682018060405250810190610b639190611b96565b9b9a5050505050505050505050565b600080610b7f8385611d33565b610b899042611d8c565b90506000600d610b9a836005611d6d565b610ba49190611d4b565b610baf906005611d33565b90506064811115610bc5576064925050506103a3565b91506103a39050565b6000546001600160a01b03163314610bf85760405162461bcd60e51b81526004016103f490611cfe565b600355565b6000805b82811015610c5457610c33848483818110610c1e57610c1e611e5d565b905060200201602081019061015a9190611a4c565b15610c425760019150506103a3565b80610c4c81611e00565b915050610c01565b5060009392505050565b6000546001600160a01b03163314610c885760405162461bcd60e51b81526004016103f490611cfe565b6001600160a01b038116610ced5760405162461bcd60e51b815260206004820152602660248201527f4f776e61626c653a206e6577206f776e657220697320746865207a65726f206160448201526564647265737360d01b60648201526084016103f4565b610cf6816110f7565b50565b60005b81811015610d4057610d2e838383818110610d1957610d19611e5d565b90506020020160208101906101d29190611a4c565b80610d3881611e00565b915050610cfc565b505050565b600081610d5457506000919050565b6000808313610d665782600003610d68565b825b90506000610d75826119a9565b90506070811015610d8e578060700382901b9150610da1565b6070811115610da1576070810382901c91505b6001600160701b03909116613fff820160701b17906000841215610dc9576001607f1b821791505b5060801b92915050565b6000617fff60f084811c8216919084901c811690821415610e835780617fff1415610e51576001600160801b03198581169085161415610e1e57505050600160ff1b811682186103a3565b600160ff1b6001600160801b0319868618161415610e41575050508181176103a3565b5061ffff60ef1b91506103a39050565b600160801b600160ff1b038416610e72575061ffff60ef1b91506103a39050565b505050600160ff1b811682186103a3565b80617fff1415610ebf57600160801b600160ff1b038516610eae575061ffff60ef1b91506103a39050565b505050600160ff1b821681186103a3565b6001600160701b03608086901c1682610edb5760019250610ee2565b600160701b175b6001600160701b03608086901c1682610efe5760019250610f05565b600160701b175b9081029081610f3357600160ff1b87871816610f22576000610f28565b600160ff1b5b9450505050506103a3565b928201926000600160e11b831015610f6657600160e01b831015610f5f57610f5a836119a9565b610f69565b60e0610f69565b60e15b90506140708186011015610f84576000945060009250611021565b6140e08186011015610fc757614070851015610fa957846140700383901c9250610fbe565b614070851115610fbe57614070850383901b92505b60009450611021565b61c0dd8186011115610fe157617fff945060009250611021565b6070811115610ff8576070810383901c925061100b565b607081101561100b578060700383901b92505b6001600160701b03831692506140df8186010394505b82607086901b888a186001607f1b60801b1660801c6001600160801b0316171760801b955050505050506103a3565b6000617fff60f083901c166140fe81111561106a57600080fd5b613fff81101561107d5750600092915050565b600160701b6001600160701b03608085901c161761406f8210156110a75761406f8290031c6110b9565b61406f8211156110b95761406e1982011b5b6001607f1b608085901c106110e357600160ff1b8111156110d957600080fd5b6000039392505050565b6001600160ff1b0381111561098157600080fd5b600080546001600160a01b038381166001600160a01b0319831681178455604051919092169283917f8be0079c531659141344cd1fd0a4f28419497f9722a3daafe3b4186f6b6457e09190a35050565b60006111568686868686610988565b604051636dc2b27160e01b8152336004820152602481018290529091506001600160a01b03871690636dc2b27190604401602060405180830381600087803b1580156111a157600080fd5b505af11580156111b5573d6000803e3d6000fd5b505050506040513d601f19601f820116820180604052508101906111d99190611b74565b156112235760405181815233906001600160a01b038816907ff03012dd4aab142682aa01439f94e975e2ec77ef558352323bc05f382f74b0829060200160405180910390a3611264565b60405181815233906001600160a01b038816907f08b35d4c86707ba44cdcc5efaa79b8a307e6c7f789f1eb86ca1ff1e9bde056979060200160405180910390a35b505050505050565b60008161127b57506000919050565b816000611287826119a9565b905060708110156112a0578060700382901b91506112b3565b60708111156112b3576070810382901c91505b613fff0160701b6001600160701b03919091161760801b92915050565b6000617fff60f084811c8216919084901c8116908214156113055780617fff1415610e72575061ffff60ef1b91506103a39050565b80617fff1415611349576dffffffffffffffffffffffffffff60801b841615611338575061ffff60ef1b91506103a39050565b505050808218600160ff1b166103a3565b600160801b600160ff1b03841661139357600160801b600160ff1b03851661137b575061ffff60ef1b91506103a39050565b505050808218600160ff1b16617fff60f01b176103a3565b6001600160701b03608085901c16816113af57600191506113b6565b600160701b175b6001600160701b03608087901c16836113f55780156113f05760006113da826119a9565b6001955060e20393840160711901939190911b90505b6113ff565b600160701b1760721b5b81818161140e5761140e611e47565b0490508061142a57600160ff1b87871816610f22576000610f28565b6001606c1b81101561143e5761143e611e1b565b6000600160731b82101561147d57600160721b82101561147257600160711b82101561146b576070611475565b6071611475565b60725b60ff16611486565b611486826119a9565b9050836140710181860111156114a457617fff945060009150611537565b83818601613ffc0110156114bf576000945060009150611537565b83818601613f8c01101561150c578385613ffc0111156114ea578385613ffc010382901b9150611503565b8385613ffc01101561150357613ffc8585030382901c91505b60009450611537565b607081111561151f576070810382901c91505b6001600160701b038216915083818601613f8d010394505b81607086901b888a186001607f1b60801b1660801c6001600160801b0316171760801b955050505050506103a3565b6000617fff60f083901c16613fff8110156115845750600092915050565b6001607f1b608084901c1061159857600080fd5b6140fe8111156115a757600080fd5b600160701b6001600160701b03608085901c161761406f8210156115d15761406f8290031c610981565b61406f8211156109815761406e1982011b9392505050565b6000617fff60f084811c8216919084901c8116908214156116375780617fff141561162d576001600160801b03198581169085161415610e415784925050506103a3565b84925050506103a3565b80617fff141561164b5783925050506103a3565b6001607f1b608086901c90811015906001600160701b0316836116715760019350611678565b600160701b175b6001607f1b608087901c90811015906001600160701b03168461169e57600194506116a5565b600160701b175b826116d5576001600160801b03198816600160ff1b146116c557876116c8565b60005b96505050505050506103a3565b806116f5576001600160801b03198916600160ff1b146116c557886116c8565b848603841515831515141561180057607081131561171c57899750505050505050506103a3565b600081131561172e5790811c9061175d565b606f1981121561174757889750505050505050506103a3565b600081121561175d578060000384901c93508596505b92810192600160711b8410611778576001968701969390931c925b86617fff14156117aa578461179257617fff60f01b61179c565b6001600160f01b03195b9750505050505050506103a3565b600160701b8410156117bf57600096506117cc565b6001600160701b03841693505b83607088901b866117de5760006117e4565b6001607f1b5b6001600160801b0316171760801b9750505050505050506103a3565b600081131561181b57600184901b9350600187039650611832565b600081121561183257600182901b91506001860396505b60708113156118445760019150611891565b6001811315611861576001810360018303901c6001019150611891565b606f198112156118745760019350611891565b600019811215611891576001816000030360018503901c60010193505b8184106118a25781840393506118ab565b83820393508294505b836118c15750600096506103a395505050505050565b60006118cc856119a9565b905080607114156118f257600185901c6001600160701b03169450600188019750611941565b607081101561193457607081900380891115611921578086901b6001600160701b03169550808903985061192e565b600098600019019590951b945b50611941565b6001600160701b03851694505b87617fff1415611974578561195b57617fff60f01b611965565b6001600160f01b03195b985050505050505050506103a3565b84607089901b8761198657600061198c565b6001607f1b5b6001600160801b0316171760801b985050505050505050506103a3565b60008082116119b757600080fd5b6000600160801b83106119cc57608092831c92015b6801000000000000000083106119e457604092831c92015b64010000000083106119f857602092831c92015b620100008310611a0a57601092831c92015b6101008310611a1b57600892831c92015b60108310611a2b57600492831c92015b60048310611a3b57600292831c92015b600283106103a35760010192915050565b600060208284031215611a5e57600080fd5b813561098181611f2f565b600060208284031215611a7b57600080fd5b815161098181611f2f565b600080600060608486031215611a9b57600080fd5b8335611aa681611f2f565b95602085013595506040909401359392505050565b600080600080600060a08688031215611ad357600080fd5b8535611ade81611f2f565b97602087013597506040870135966060810135965060800135945092505050565b60008060208385031215611b1257600080fd5b823567ffffffffffffffff80821115611b2a57600080fd5b818501915085601f830112611b3e57600080fd5b813581811115611b4d57600080fd5b8660208260051b8501011115611b6257600080fd5b60209290920196919550909350505050565b600060208284031215611b8657600080fd5b8151801515811461098157600080fd5b600060208284031215611ba857600080fd5b5051919050565b60008060008060808587031215611bc557600080fd5b84519350602085015167ffffffffffffffff80821115611be457600080fd5b818701915087601f830112611bf857600080fd5b815181811115611c0a57611c0a611e73565b6040519150611c23601f8201601f191660200183611dd3565b808252886020828501011115611c3857600080fd5b611c49816020840160208601611da3565b50604087015160609097015195989097509350505050565b600060208284031215611c7357600080fd5b5035919050565b60008060408385031215611c8d57600080fd5b50508035926020909101359150565b600060208284031215611cae57600080fd5b815160ff8116811461098157600080fd5b60008151808452611cd7816020860160208601611da3565b601f01601f19169290920160200192915050565b6020815260006109816020830184611cbf565b6020808252818101527f4f776e61626c653a2063616c6c6572206973206e6f7420746865206f776e6572604082015260600190565b60008219821115611d4657611d46611e31565b500190565b600082611d6857634e487b7160e01b600052601260045260246000fd5b500490565b6000816000190483118215151615611d8757611d87611e31565b500290565b600082821015611d9e57611d9e611e31565b500390565b60005b83811015611dbe578181015183820152602001611da6565b83811115611dcd576000848401525b50505050565b601f8201601f1916810167ffffffffffffffff81118282101715611df957611df9611e73565b6040525050565b6000600019821415611e1457611e14611e31565b5060010190565b634e487b7160e01b600052600160045260246000fd5b634e487b7160e01b600052601160045260246000fd5b634e487b7160e01b600052601260045260246000fd5b634e487b7160e01b600052603260045260246000fd5b634e487b7160e01b600052604160045260246000fd5b600060033d1115611ea25760046000803e5060005160e01c5b90565b600060443d1015611eb35790565b6040516003193d81016004833e81513d67ffffffffffffffff8160248401118184111715611ee357505050505090565b8285019150815181811115611efb5750505050505090565b843d8701016020828501011115611f155750505050505090565b611f2460208286010187611dd3565b509095945050505050565b6001600160a01b0381168114610cf657600080fdfea26469706673582212204228dd043a362f2ea3f05e4a3e96ee425dab22e5950e1b776997974010e723e264736f6c63430008070033",
    "libraries": {
        "PoolSwapLibrary": "0xC793b1Bc41A5Ae49571d01e7A99731Ea3cb1Dd03"
    },
    "devdoc": {
        "kind": "dev",
        "methods": {
            "checkUpkeepMultiplePools(address[])": {
                "params": {
                    "_pools": "The array of pools to check"
                },
                "returns": {
                    "_0": "upkeepNeeded Whether or not at least one pool needs upkeeping"
                }
            },
            "checkUpkeepSinglePool(address)": {
                "params": {
                    "_pool": "The address of the pool to upkeep"
                },
                "returns": {
                    "_0": "upkeepNeeded Whether or not upkeep is needed for this single pool"
                }
            },
            "keeperGas(address,uint256,uint256)": {
                "params": {
                    "_gasPrice": "Price of a single gas unit (in ETH)",
                    "_gasSpent": "Number of gas units spent",
                    "_pool": "Address of the given pool"
                },
                "returns": {
                    "_0": "Keeper's gas compensation"
                }
            },
            "keeperReward(address,uint256,uint256,uint256,uint256)": {
                "params": {
                    "_gasPrice": "Price of a single gas unit (in ETH)",
                    "_gasSpent": "Number of gas units spent",
                    "_pool": "Address of the given pool",
                    "_poolInterval": "Pool interval of the given pool",
                    "_savedPreviousUpdatedTimestamp": "Last timestamp when the pool's price execution happened"
                },
                "returns": {
                    "_0": "Number of settlement tokens to give to the keeper for work performed"
                }
            },
            "keeperTip(uint256,uint256)": {
                "params": {
                    "_poolInterval": "Pool interval of the given pool",
                    "_savedPreviousUpdatedTimestamp": "Last timestamp when the pool's price execution happened"
                },
                "returns": {
                    "_0": "Percent of the `keeperGas` cost to add to payment, as a percent"
                }
            },
            "newPool(address)": {
                "params": {
                    "_poolAddress": "The address of the newly-created pools"
                }
            },
            "owner()": {
                "details": "Returns the address of the current owner."
            },
            "performUpkeepMultiplePools(address[])": {
                "params": {
                    "pools": "pool codes to perform the update for"
                }
            },
            "performUpkeepSinglePool(address)": {
                "params": {
                    "_pool": "The pool code to perform the update for"
                }
            },
            "renounceOwnership()": {
                "details": "Leaves the contract without owner. It will not be possible to call `onlyOwner` functions anymore. Can only be called by the current owner. NOTE: Renouncing ownership will leave the contract without an owner, thereby removing any functionality that is only available to the owner."
            },
            "setGasPrice(uint256)": {
                "details": "Only owner",
                "params": {
                    "_price": "Price (in ETH) per unit gas"
                }
            },
            "transferOwnership(address)": {
                "details": "Transfers ownership of the contract to a new account (`newOwner`). Can only be called by the current owner."
            }
        },
        "title": "The manager contract for multiple markets and the pools in them",
        "version": 1
    },
    "userdoc": {
        "events": {
            "KeeperPaid(address,address,uint256)": {
                "notice": "Creates a notification when a keeper is paid for doing upkeep for a pool"
            },
            "KeeperPaymentError(address,address,uint256)": {
                "notice": "Creates a notification when a keeper's payment for upkeeping a pool failed"
            },
            "PoolAdded(address,int256)": {
                "notice": "Creates a notification when a pool is created"
            },
            "PoolUpkeepError(address,string)": {
                "notice": "Creates a notification of a failed pool update"
            },
            "UpkeepSuccessful(address,bytes,int256,int256)": {
                "notice": "Creates a notification when a call to LeveragedPool:poolUpkeep is successful"
            }
        },
        "kind": "user",
        "methods": {
            "checkUpkeepMultiplePools(address[])": {
                "notice": "Checks multiple pools if any of them need updating"
            },
            "checkUpkeepSinglePool(address)": {
                "notice": "Check if upkeep is required"
            },
            "executionPrice(address)": {
                "notice": "Format: Pool address => last executionPrice"
            },
            "keeperGas(address,uint256,uint256)": {
                "notice": "Compensation a keeper will receive for their gas expenditure"
            },
            "keeperReward(address,uint256,uint256,uint256,uint256)": {
                "notice": "Payment keeper receives for performing upkeep on a given pool"
            },
            "keeperTip(uint256,uint256)": {
                "notice": "Tip a keeper will receive for successfully updating the specified pool"
            },
            "newPool(address)": {
                "notice": "When a pool is created, this function is called by the factory to initiate price trackings"
            },
            "performUpkeepMultiplePools(address[])": {
                "notice": "Called by keepers to perform an update on multiple pools"
            },
            "performUpkeepSinglePool(address)": {
                "notice": "Called by keepers to perform an update on a single pool"
            },
            "setGasPrice(uint256)": {
                "notice": "Sets the gas price to be used in compensating keepers for successful upkeep"
            }
        },
        "version": 1
    },
    "storageLayout": {
        "storage": [
            {
                "astId": 110,
                "contract": "contracts/implementation/PoolKeeper.sol:PoolKeeper",
                "label": "_owner",
                "offset": 0,
                "slot": "0",
                "type": "t_address"
            },
            {
                "astId": 9918,
                "contract": "contracts/implementation/PoolKeeper.sol:PoolKeeper",
                "label": "executionPrice",
                "offset": 0,
                "slot": "1",
                "type": "t_mapping(t_address,t_int256)"
            },
            {
                "astId": 9921,
                "contract": "contracts/implementation/PoolKeeper.sol:PoolKeeper",
                "label": "factory",
                "offset": 0,
                "slot": "2",
                "type": "t_contract(IPoolFactory)11671"
            },
            {
                "astId": 9927,
                "contract": "contracts/implementation/PoolKeeper.sol:PoolKeeper",
                "label": "gasPrice",
                "offset": 0,
                "slot": "3",
                "type": "t_uint256"
            }
        ],
        "types": {
            "t_address": {
                "encoding": "inplace",
                "label": "address",
                "numberOfBytes": "20"
            },
            "t_contract(IPoolFactory)11671": {
                "encoding": "inplace",
                "label": "contract IPoolFactory",
                "numberOfBytes": "20"
            },
            "t_int256": {
                "encoding": "inplace",
                "label": "int256",
                "numberOfBytes": "32"
            },
            "t_mapping(t_address,t_int256)": {
                "encoding": "mapping",
                "key": "t_address",
                "label": "mapping(address => int256)",
                "numberOfBytes": "32",
                "value": "t_int256"
            },
            "t_uint256": {
                "encoding": "inplace",
                "label": "uint256",
                "numberOfBytes": "32"
            }
        }
    }
}