{
    "address": "0xFFdE171b2b1A79dC78774318B6aF23A421BcD194",
    "abi": [
        {
            "inputs": [
                {
                    "internalType": "string",
                    "name": "name",
                    "type": "string"
                },
                {
                    "internalType": "string",
                    "name": "symbol",
                    "type": "string"
                }
            ],
            "stateMutability": "nonpayable",
            "type": "constructor"
        },
        {
            "anonymous": false,
            "inputs": [
                {
                    "indexed": true,
                    "internalType": "address",
                    "name": "owner",
                    "type": "address"
                },
                {
                    "indexed": true,
                    "internalType": "address",
                    "name": "spender",
                    "type": "address"
                },
                {
                    "indexed": false,
                    "internalType": "uint256",
                    "name": "value",
                    "type": "uint256"
                }
            ],
            "name": "Approval",
            "type": "event"
        },
        {
            "anonymous": false,
            "inputs": [
                {
                    "indexed": true,
                    "internalType": "address",
                    "name": "from",
                    "type": "address"
                },
                {
                    "indexed": true,
                    "internalType": "address",
                    "name": "to",
                    "type": "address"
                },
                {
                    "indexed": false,
                    "internalType": "uint256",
                    "name": "value",
                    "type": "uint256"
                }
            ],
            "name": "Transfer",
            "type": "event"
        },
        {
            "inputs": [
                {
                    "internalType": "address",
                    "name": "owner",
                    "type": "address"
                },
                {
                    "internalType": "address",
                    "name": "spender",
                    "type": "address"
                }
            ],
            "name": "allowance",
            "outputs": [
                {
                    "internalType": "uint256",
                    "name": "",
                    "type": "uint256"
                }
            ],
            "stateMutability": "view",
            "type": "function"
        },
        {
            "inputs": [
                {
                    "internalType": "address",
                    "name": "spender",
                    "type": "address"
                },
                {
                    "internalType": "uint256",
                    "name": "amount",
                    "type": "uint256"
                }
            ],
            "name": "approve",
            "outputs": [
                {
                    "internalType": "bool",
                    "name": "",
                    "type": "bool"
                }
            ],
            "stateMutability": "nonpayable",
            "type": "function"
        },
        {
            "inputs": [
                {
                    "internalType": "address",
                    "name": "account",
                    "type": "address"
                }
            ],
            "name": "balanceOf",
            "outputs": [
                {
                    "internalType": "uint256",
                    "name": "",
                    "type": "uint256"
                }
            ],
            "stateMutability": "view",
            "type": "function"
        },
        {
            "inputs": [
                {
                    "internalType": "uint256",
                    "name": "amount",
                    "type": "uint256"
                },
                {
                    "internalType": "address",
                    "name": "account",
                    "type": "address"
                }
            ],
            "name": "burn",
            "outputs": [
                {
                    "internalType": "bool",
                    "name": "",
                    "type": "bool"
                }
            ],
            "stateMutability": "nonpayable",
            "type": "function"
        },
        {
            "inputs": [],
            "name": "decimals",
            "outputs": [
                {
                    "internalType": "uint8",
                    "name": "",
                    "type": "uint8"
                }
            ],
            "stateMutability": "view",
            "type": "function"
        },
        {
            "inputs": [
                {
                    "internalType": "address",
                    "name": "spender",
                    "type": "address"
                },
                {
                    "internalType": "uint256",
                    "name": "subtractedValue",
                    "type": "uint256"
                }
            ],
            "name": "decreaseAllowance",
            "outputs": [
                {
                    "internalType": "bool",
                    "name": "",
                    "type": "bool"
                }
            ],
            "stateMutability": "nonpayable",
            "type": "function"
        },
        {
            "inputs": [
                {
                    "internalType": "address",
                    "name": "spender",
                    "type": "address"
                },
                {
                    "internalType": "uint256",
                    "name": "addedValue",
                    "type": "uint256"
                }
            ],
            "name": "increaseAllowance",
            "outputs": [
                {
                    "internalType": "bool",
                    "name": "",
                    "type": "bool"
                }
            ],
            "stateMutability": "nonpayable",
            "type": "function"
        },
        {
            "inputs": [
                {
                    "internalType": "uint256",
                    "name": "amount",
                    "type": "uint256"
                },
                {
                    "internalType": "address",
                    "name": "account",
                    "type": "address"
                }
            ],
            "name": "mint",
            "outputs": [
                {
                    "internalType": "bool",
                    "name": "",
                    "type": "bool"
                }
            ],
            "stateMutability": "nonpayable",
            "type": "function"
        },
        {
            "inputs": [],
            "name": "name",
            "outputs": [
                {
                    "internalType": "string",
                    "name": "",
                    "type": "string"
                }
            ],
            "stateMutability": "view",
            "type": "function"
        },
        {
            "inputs": [
                {
                    "internalType": "uint8",
                    "name": "newDecimals",
                    "type": "uint8"
                }
            ],
            "name": "setDecimals",
            "outputs": [],
            "stateMutability": "nonpayable",
            "type": "function"
        },
        {
            "inputs": [],
            "name": "symbol",
            "outputs": [
                {
                    "internalType": "string",
                    "name": "",
                    "type": "string"
                }
            ],
            "stateMutability": "view",
            "type": "function"
        },
        {
            "inputs": [],
            "name": "totalSupply",
            "outputs": [
                {
                    "internalType": "uint256",
                    "name": "",
                    "type": "uint256"
                }
            ],
            "stateMutability": "view",
            "type": "function"
        },
        {
            "inputs": [
                {
                    "internalType": "address",
                    "name": "recipient",
                    "type": "address"
                },
                {
                    "internalType": "uint256",
                    "name": "amount",
                    "type": "uint256"
                }
            ],
            "name": "transfer",
            "outputs": [
                {
                    "internalType": "bool",
                    "name": "",
                    "type": "bool"
                }
            ],
            "stateMutability": "nonpayable",
            "type": "function"
        },
        {
            "inputs": [
                {
                    "internalType": "address",
                    "name": "sender",
                    "type": "address"
                },
                {
                    "internalType": "address",
                    "name": "recipient",
                    "type": "address"
                },
                {
                    "internalType": "uint256",
                    "name": "amount",
                    "type": "uint256"
                }
            ],
            "name": "transferFrom",
            "outputs": [
                {
                    "internalType": "bool",
                    "name": "",
                    "type": "bool"
                }
            ],
            "stateMutability": "nonpayable",
            "type": "function"
        }
    ],
    "transactionHash": "0x14741b01e13761b08eb750752423f6754b87c201f936496a82f87e0bb74ec5c1",
    "args": [
        "Test Tracer USDC",
        "TUSDC"
    ],
    "solcInputHash": "9fa5c19a38f0b8dd3ef7cd9e4cdd4bc0",
    "bytecode": "0x60806040526005805460ff191660121790553480156200001e57600080fd5b5060405162000e9f38038062000e9f8339810160408190526200004191620001d8565b8151829082906200005a9060039060208501906200007b565b508051620000709060049060208401906200007b565b505050505062000295565b828054620000899062000242565b90600052602060002090601f016020900481019282620000ad5760008555620000f8565b82601f10620000c857805160ff1916838001178555620000f8565b82800160010185558215620000f8579182015b82811115620000f8578251825591602001919060010190620000db565b50620001069291506200010a565b5090565b5b808211156200010657600081556001016200010b565b600082601f8301126200013357600080fd5b81516001600160401b03808211156200015057620001506200027f565b604051601f8301601f19908116603f011681019082821181831017156200017b576200017b6200027f565b816040528381526020925086838588010111156200019857600080fd5b600091505b83821015620001bc57858201830151818301840152908201906200019d565b83821115620001ce5760008385830101525b9695505050505050565b60008060408385031215620001ec57600080fd5b82516001600160401b03808211156200020457600080fd5b620002128683870162000121565b935060208501519150808211156200022957600080fd5b50620002388582860162000121565b9150509250929050565b600181811c908216806200025757607f821691505b602082108114156200027957634e487b7160e01b600052602260045260246000fd5b50919050565b634e487b7160e01b600052604160045260246000fd5b610bfa80620002a56000396000f3fe608060405234801561001057600080fd5b50600436106100ea5760003560e01c80637a1395aa1161008c578063a457c2d711610066578063a457c2d7146101e7578063a9059cbb146101fa578063dd62ed3e1461020d578063fcd3533c1461024657600080fd5b80637a1395aa146101a657806394bf804d146101cc57806395d89b41146101df57600080fd5b806323b872dd116100c857806323b872dd14610142578063313ce56714610155578063395093511461016a57806370a082311461017d57600080fd5b806306fdde03146100ef578063095ea7b31461010d57806318160ddd14610130575b600080fd5b6100f7610259565b6040516101049190610aef565b60405180910390f35b61012061011b366004610a7f565b6102eb565b6040519015158152602001610104565b6002545b604051908152602001610104565b610120610150366004610a43565b610301565b60055460405160ff9091168152602001610104565b610120610178366004610a7f565b6103b0565b61013461018b3660046109ee565b6001600160a01b031660009081526020819052604090205490565b6101ca6101b4366004610acc565b6005805460ff191660ff92909216919091179055565b005b6101206101da366004610aa9565b6103ec565b6100f76103f8565b6101206101f5366004610a7f565b610407565b610120610208366004610a7f565b6104a0565b61013461021b366004610a10565b6001600160a01b03918216600090815260016020908152604080832093909416825291909152205490565b610120610254366004610aa9565b6104ad565b60606003805461026890610b73565b80601f016020809104026020016040519081016040528092919081815260200182805461029490610b73565b80156102e15780601f106102b6576101008083540402835291602001916102e1565b820191906000526020600020905b8154815290600101906020018083116102c457829003601f168201915b5050505050905090565b60006102f83384846104b9565b50600192915050565b600061030e8484846105de565b6001600160a01b0384166000908152600160209081526040808320338452909152902054828110156103985760405162461bcd60e51b815260206004820152602860248201527f45524332303a207472616e7366657220616d6f756e74206578636565647320616044820152676c6c6f77616e636560c01b60648201526084015b60405180910390fd5b6103a585338584036104b9565b506001949350505050565b3360008181526001602090815260408083206001600160a01b038716845290915281205490916102f89185906103e7908690610b44565b6104b9565b60006102f882846107ad565b60606004805461026890610b73565b3360009081526001602090815260408083206001600160a01b0386168452909152812054828110156104895760405162461bcd60e51b815260206004820152602560248201527f45524332303a2064656372656173656420616c6c6f77616e63652062656c6f77604482015264207a65726f60d81b606482015260840161038f565b61049633858584036104b9565b5060019392505050565b60006102f83384846105de565b60006102f8828461088c565b6001600160a01b03831661051b5760405162461bcd60e51b8152602060048201526024808201527f45524332303a20617070726f76652066726f6d20746865207a65726f206164646044820152637265737360e01b606482015260840161038f565b6001600160a01b03821661057c5760405162461bcd60e51b815260206004820152602260248201527f45524332303a20617070726f766520746f20746865207a65726f206164647265604482015261737360f01b606482015260840161038f565b6001600160a01b0383811660008181526001602090815260408083209487168084529482529182902085905590518481527f8c5be1e5ebec7d5bd14f71427d1e84f3dd0314c0f7b2291e5b200ac8c7c3b92591015b60405180910390a3505050565b6001600160a01b0383166106425760405162461bcd60e51b815260206004820152602560248201527f45524332303a207472616e736665722066726f6d20746865207a65726f206164604482015264647265737360d81b606482015260840161038f565b6001600160a01b0382166106a45760405162461bcd60e51b815260206004820152602360248201527f45524332303a207472616e7366657220746f20746865207a65726f206164647260448201526265737360e81b606482015260840161038f565b6001600160a01b0383166000908152602081905260409020548181101561071c5760405162461bcd60e51b815260206004820152602660248201527f45524332303a207472616e7366657220616d6f756e7420657863656564732062604482015265616c616e636560d01b606482015260840161038f565b6001600160a01b03808516600090815260208190526040808220858503905591851681529081208054849290610753908490610b44565b92505081905550826001600160a01b0316846001600160a01b03167fddf252ad1be2c89b69c2b068fc378daa952ba7f163c4a11628f55a4df523b3ef8460405161079f91815260200190565b60405180910390a350505050565b6001600160a01b0382166108035760405162461bcd60e51b815260206004820152601f60248201527f45524332303a206d696e7420746f20746865207a65726f206164647265737300604482015260640161038f565b80600260008282546108159190610b44565b90915550506001600160a01b03821660009081526020819052604081208054839290610842908490610b44565b90915550506040518181526001600160a01b038316906000907fddf252ad1be2c89b69c2b068fc378daa952ba7f163c4a11628f55a4df523b3ef9060200160405180910390a35050565b6001600160a01b0382166108ec5760405162461bcd60e51b815260206004820152602160248201527f45524332303a206275726e2066726f6d20746865207a65726f206164647265736044820152607360f81b606482015260840161038f565b6001600160a01b038216600090815260208190526040902054818110156109605760405162461bcd60e51b815260206004820152602260248201527f45524332303a206275726e20616d6f756e7420657863656564732062616c616e604482015261636560f01b606482015260840161038f565b6001600160a01b038316600090815260208190526040812083830390556002805484929061098f908490610b5c565b90915550506040518281526000906001600160a01b038516907fddf252ad1be2c89b69c2b068fc378daa952ba7f163c4a11628f55a4df523b3ef906020016105d1565b80356001600160a01b03811681146109e957600080fd5b919050565b600060208284031215610a0057600080fd5b610a09826109d2565b9392505050565b60008060408385031215610a2357600080fd5b610a2c836109d2565b9150610a3a602084016109d2565b90509250929050565b600080600060608486031215610a5857600080fd5b610a61846109d2565b9250610a6f602085016109d2565b9150604084013590509250925092565b60008060408385031215610a9257600080fd5b610a9b836109d2565b946020939093013593505050565b60008060408385031215610abc57600080fd5b82359150610a3a602084016109d2565b600060208284031215610ade57600080fd5b813560ff81168114610a0957600080fd5b600060208083528351808285015260005b81811015610b1c57858101830151858201604001528201610b00565b81811115610b2e576000604083870101525b50601f01601f1916929092016040019392505050565b60008219821115610b5757610b57610bae565b500190565b600082821015610b6e57610b6e610bae565b500390565b600181811c90821680610b8757607f821691505b60208210811415610ba857634e487b7160e01b600052602260045260246000fd5b50919050565b634e487b7160e01b600052601160045260246000fdfea2646970667358221220a21d39763ce106f426469ffe90a6c45ce2f8a631579fd311686fdeb0842d44c564736f6c63430008070033",
    "devdoc": {
        "details": "Don't use this for anything real. There's no access controls on mint and burn.",
        "kind": "dev",
        "methods": {
            "allowance(address,address)": {
                "details": "See {IERC20-allowance}."
            },
            "approve(address,uint256)": {
                "details": "See {IERC20-approve}. Requirements: - `spender` cannot be the zero address."
            },
            "balanceOf(address)": {
                "details": "See {IERC20-balanceOf}."
            },
            "decimals()": {
                "details": "Returns the number of decimals used to get its user representation. For example, if `decimals` equals `2`, a balance of `505` tokens should be displayed to a user as `5,05` (`505 / 10 ** 2`). Tokens usually opt for a value of 18, imitating the relationship between Ether and Wei. This is the value {ERC20} uses, unless this function is overridden; NOTE: This information is only used for _display_ purposes: it in no way affects any of the arithmetic of the contract, including {IERC20-balanceOf} and {IERC20-transfer}."
            },
            "decreaseAllowance(address,uint256)": {
                "details": "Atomically decreases the allowance granted to `spender` by the caller. This is an alternative to {approve} that can be used as a mitigation for problems described in {IERC20-approve}. Emits an {Approval} event indicating the updated allowance. Requirements: - `spender` cannot be the zero address. - `spender` must have allowance for the caller of at least `subtractedValue`."
            },
            "increaseAllowance(address,uint256)": {
                "details": "Atomically increases the allowance granted to `spender` by the caller. This is an alternative to {approve} that can be used as a mitigation for problems described in {IERC20-approve}. Emits an {Approval} event indicating the updated allowance. Requirements: - `spender` cannot be the zero address."
            },
            "name()": {
                "details": "Returns the name of the token."
            },
            "symbol()": {
                "details": "Returns the symbol of the token, usually a shorter version of the name."
            },
            "totalSupply()": {
                "details": "See {IERC20-totalSupply}."
            },
            "transfer(address,uint256)": {
                "details": "See {IERC20-transfer}. Requirements: - `recipient` cannot be the zero address. - the caller must have a balance of at least `amount`."
            },
            "transferFrom(address,address,uint256)": {
                "details": "See {IERC20-transferFrom}. Emits an {Approval} event indicating the updated allowance. This is not required by the EIP. See the note at the beginning of {ERC20}. Requirements: - `sender` and `recipient` cannot be the zero address. - `sender` must have a balance of at least `amount`. - the caller must have allowance for ``sender``'s tokens of at least `amount`."
            }
        },
        "title": "An ERC20 token to be used when testing a pool",
        "version": 1
    },
    "userdoc": {
        "kind": "user",
        "methods": {},
        "version": 1
    },
    "storageLayout": {
        "storage": [
            {
                "astId": 348,
                "contract": "contracts/test-utilities/TestERC20.sol:TestToken",
                "label": "_balances",
                "offset": 0,
                "slot": "0",
                "type": "t_mapping(t_address,t_uint256)"
            },
            {
                "astId": 354,
                "contract": "contracts/test-utilities/TestERC20.sol:TestToken",
                "label": "_allowances",
                "offset": 0,
                "slot": "1",
                "type": "t_mapping(t_address,t_mapping(t_address,t_uint256))"
            },
            {
                "astId": 356,
                "contract": "contracts/test-utilities/TestERC20.sol:TestToken",
                "label": "_totalSupply",
                "offset": 0,
                "slot": "2",
                "type": "t_uint256"
            },
            {
                "astId": 358,
                "contract": "contracts/test-utilities/TestERC20.sol:TestToken",
                "label": "_name",
                "offset": 0,
                "slot": "3",
                "type": "t_string_storage"
            },
            {
                "astId": 360,
                "contract": "contracts/test-utilities/TestERC20.sol:TestToken",
                "label": "_symbol",
                "offset": 0,
                "slot": "4",
                "type": "t_string_storage"
            },
            {
                "astId": 11785,
                "contract": "contracts/test-utilities/TestERC20.sol:TestToken",
                "label": "_decimals",
                "offset": 0,
                "slot": "5",
                "type": "t_uint8"
            }
        ],
        "types": {
            "t_address": {
                "encoding": "inplace",
                "label": "address",
                "numberOfBytes": "20"
            },
            "t_mapping(t_address,t_mapping(t_address,t_uint256))": {
                "encoding": "mapping",
                "key": "t_address",
                "label": "mapping(address => mapping(address => uint256))",
                "numberOfBytes": "32",
                "value": "t_mapping(t_address,t_uint256)"
            },
            "t_mapping(t_address,t_uint256)": {
                "encoding": "mapping",
                "key": "t_address",
                "label": "mapping(address => uint256)",
                "numberOfBytes": "32",
                "value": "t_uint256"
            },
            "t_string_storage": {
                "encoding": "bytes",
                "label": "string",
                "numberOfBytes": "32"
            },
            "t_uint256": {
                "encoding": "inplace",
                "label": "uint256",
                "numberOfBytes": "32"
            },
            "t_uint8": {
                "encoding": "inplace",
                "label": "uint8",
                "numberOfBytes": "1"
            }
        }
    }
}