{
  "_format": "hh-sol-artifact-1",
  "contractName": "ERC20_Cloneable",
  "sourceName": "contracts/vendors/ERC20_Cloneable.sol",
  "abi": [
    {
      "inputs": [
        {
          "internalType": "string",
          "name": "name_",
          "type": "string"
        },
        {
          "internalType": "string",
          "name": "symbol_",
          "type": "string"
        },
        {
          "internalType": "uint8",
          "name": "decimals_",
          "type": "uint8"
        }
      ],
      "stateMutability": "nonpayable",
      "type": "constructor"
    },
    {
      "anonymous": false,
      "inputs": [
        {
          "indexed": true,
          "internalType": "address",
          "name": "owner",
          "type": "address"
        },
        {
          "indexed": true,
          "internalType": "address",
          "name": "spender",
          "type": "address"
        },
        {
          "indexed": false,
          "internalType": "uint256",
          "name": "value",
          "type": "uint256"
        }
      ],
      "name": "Approval",
      "type": "event"
    },
    {
      "anonymous": false,
      "inputs": [
        {
          "indexed": true,
          "internalType": "address",
          "name": "from",
          "type": "address"
        },
        {
          "indexed": true,
          "internalType": "address",
          "name": "to",
          "type": "address"
        },
        {
          "indexed": false,
          "internalType": "uint256",
          "name": "value",
          "type": "uint256"
        }
      ],
      "name": "Transfer",
      "type": "event"
    },
    {
      "inputs": [
        {
          "internalType": "address",
          "name": "owner",
          "type": "address"
        },
        {
          "internalType": "address",
          "name": "spender",
          "type": "address"
        }
      ],
      "name": "allowance",
      "outputs": [
        {
          "internalType": "uint256",
          "name": "",
          "type": "uint256"
        }
      ],
      "stateMutability": "view",
      "type": "function"
    },
    {
      "inputs": [
        {
          "internalType": "address",
          "name": "spender",
          "type": "address"
        },
        {
          "internalType": "uint256",
          "name": "amount",
          "type": "uint256"
        }
      ],
      "name": "approve",
      "outputs": [
        {
          "internalType": "bool",
          "name": "",
          "type": "bool"
        }
      ],
      "stateMutability": "nonpayable",
      "type": "function"
    },
    {
      "inputs": [
        {
          "internalType": "address",
          "name": "account",
          "type": "address"
        }
      ],
      "name": "balanceOf",
      "outputs": [
        {
          "internalType": "uint256",
          "name": "",
          "type": "uint256"
        }
      ],
      "stateMutability": "view",
      "type": "function"
    },
    {
      "inputs": [],
      "name": "decimals",
      "outputs": [
        {
          "internalType": "uint8",
          "name": "",
          "type": "uint8"
        }
      ],
      "stateMutability": "view",
      "type": "function"
    },
    {
      "inputs": [
        {
          "internalType": "address",
          "name": "spender",
          "type": "address"
        },
        {
          "internalType": "uint256",
          "name": "subtractedValue",
          "type": "uint256"
        }
      ],
      "name": "decreaseAllowance",
      "outputs": [
        {
          "internalType": "bool",
          "name": "",
          "type": "bool"
        }
      ],
      "stateMutability": "nonpayable",
      "type": "function"
    },
    {
      "inputs": [
        {
          "internalType": "address",
          "name": "spender",
          "type": "address"
        },
        {
          "internalType": "uint256",
          "name": "addedValue",
          "type": "uint256"
        }
      ],
      "name": "increaseAllowance",
      "outputs": [
        {
          "internalType": "bool",
          "name": "",
          "type": "bool"
        }
      ],
      "stateMutability": "nonpayable",
      "type": "function"
    },
    {
      "inputs": [
        {
          "internalType": "address",
          "name": "_pool",
          "type": "address"
        },
        {
          "internalType": "string",
          "name": "name_",
          "type": "string"
        },
        {
          "internalType": "string",
          "name": "symbol_",
          "type": "string"
        },
        {
          "internalType": "uint8",
          "name": "decimals_",
          "type": "uint8"
        }
      ],
      "name": "initialize",
      "outputs": [],
      "stateMutability": "nonpayable",
      "type": "function"
    },
    {
      "inputs": [],
      "name": "name",
      "outputs": [
        {
          "internalType": "string",
          "name": "",
          "type": "string"
        }
      ],
      "stateMutability": "view",
      "type": "function"
    },
    {
      "inputs": [],
      "name": "owner",
      "outputs": [
        {
          "internalType": "address",
          "name": "",
          "type": "address"
        }
      ],
      "stateMutability": "view",
      "type": "function"
    },
    {
      "inputs": [],
      "name": "symbol",
      "outputs": [
        {
          "internalType": "string",
          "name": "",
          "type": "string"
        }
      ],
      "stateMutability": "view",
      "type": "function"
    },
    {
      "inputs": [],
      "name": "totalSupply",
      "outputs": [
        {
          "internalType": "uint256",
          "name": "",
          "type": "uint256"
        }
      ],
      "stateMutability": "view",
      "type": "function"
    },
    {
      "inputs": [
        {
          "internalType": "address",
          "name": "recipient",
          "type": "address"
        },
        {
          "internalType": "uint256",
          "name": "amount",
          "type": "uint256"
        }
      ],
      "name": "transfer",
      "outputs": [
        {
          "internalType": "bool",
          "name": "",
          "type": "bool"
        }
      ],
      "stateMutability": "nonpayable",
      "type": "function"
    },
    {
      "inputs": [
        {
          "internalType": "address",
          "name": "sender",
          "type": "address"
        },
        {
          "internalType": "address",
          "name": "recipient",
          "type": "address"
        },
        {
          "internalType": "uint256",
          "name": "amount",
          "type": "uint256"
        }
      ],
      "name": "transferFrom",
      "outputs": [
        {
          "internalType": "bool",
          "name": "",
          "type": "bool"
        }
      ],
      "stateMutability": "nonpayable",
      "type": "function"
    },
    {
      "inputs": [
        {
          "internalType": "address",
          "name": "_owner",
          "type": "address"
        }
      ],
      "name": "transferOwnership",
      "outputs": [],
      "stateMutability": "nonpayable",
      "type": "function"
    }
  ],
  "bytecode": "0x60806040523480156200001157600080fd5b5060405162000fda38038062000fda8339810160408190526200003491620001e9565b8251839083906200004d9060039060208501906200008c565b508051620000639060049060208401906200008c565b50506005805460ff909316620100000262ff0000199093169290921790915550620002c1915050565b8280546200009a906200026e565b90600052602060002090601f016020900481019282620000be576000855562000109565b82601f10620000d957805160ff191683800117855562000109565b8280016001018555821562000109579182015b8281111562000109578251825591602001919060010190620000ec565b50620001179291506200011b565b5090565b5b808211156200011757600081556001016200011c565b600082601f8301126200014457600080fd5b81516001600160401b0380821115620001615762000161620002ab565b604051601f8301601f19908116603f011681019082821181831017156200018c576200018c620002ab565b81604052838152602092508683858801011115620001a957600080fd5b600091505b83821015620001cd5785820183015181830184015290820190620001ae565b83821115620001df5760008385830101525b9695505050505050565b600080600060608486031215620001ff57600080fd5b83516001600160401b03808211156200021757600080fd5b620002258783880162000132565b945060208601519150808211156200023c57600080fd5b506200024b8682870162000132565b925050604084015160ff811681146200026357600080fd5b809150509250925092565b600181811c908216806200028357607f821691505b60208210811415620002a557634e487b7160e01b600052602260045260246000fd5b50919050565b634e487b7160e01b600052604160045260246000fd5b610d0980620002d16000396000f3fe608060405234801561001057600080fd5b50600436106100ea5760003560e01c80638da5cb5b1161008c578063a9059cbb11610066578063a9059cbb146101f5578063dd62ed3e14610208578063f2fde38b14610241578063f6d2ee861461025657600080fd5b80638da5cb5b146101af57806395d89b41146101da578063a457c2d7146101e257600080fd5b806323b872dd116100c857806323b872dd14610142578063313ce56714610155578063395093511461017357806370a082311461018657600080fd5b806306fdde03146100ef578063095ea7b31461010d57806318160ddd14610130575b600080fd5b6100f7610269565b6040516101049190610c07565b60405180910390f35b61012061011b366004610bdd565b6102fb565b6040519015158152602001610104565b6002545b604051908152602001610104565b610120610150366004610b14565b610311565b60055462010000900460ff1660405160ff9091168152602001610104565b610120610181366004610bdd565b6103c0565b610134610194366004610abf565b6001600160a01b031660009081526020819052604090205490565b6008546101c2906001600160a01b031681565b6040516001600160a01b039091168152602001610104565b6100f76103fc565b6101206101f0366004610bdd565b61040b565b610120610203366004610bdd565b6104a4565b610134610216366004610ae1565b6001600160a01b03918216600090815260016020908152604080832093909416825291909152205490565b61025461024f366004610abf565b6104b1565b005b610254610264366004610b50565b61057a565b60606006805461027890610c82565b80601f01602080910402602001604051908101604052809291908181526020018280546102a490610c82565b80156102f15780601f106102c6576101008083540402835291602001916102f1565b820191906000526020600020905b8154815290600101906020018083116102d457829003601f168201915b5050505050905090565b600061030833848461068a565b50600192915050565b600061031e8484846107ae565b6001600160a01b0384166000908152600160209081526040808320338452909152902054828110156103a85760405162461bcd60e51b815260206004820152602860248201527f45524332303a207472616e7366657220616d6f756e74206578636565647320616044820152676c6c6f77616e636560c01b60648201526084015b60405180910390fd5b6103b5853385840361068a565b506001949350505050565b3360008181526001602090815260408083206001600160a01b038716845290915281205490916103089185906103f7908690610c5c565b61068a565b60606007805461027890610c82565b3360009081526001602090815260408083206001600160a01b03861684529091528120548281101561048d5760405162461bcd60e51b815260206004820152602560248201527f45524332303a2064656372656173656420616c6c6f77616e63652062656c6f77604482015264207a65726f60d81b606482015260840161039f565b61049a338585840361068a565b5060019392505050565b60006103083384846107ae565b6008546001600160a01b031633146105025760405162461bcd60e51b815260206004820152601460248201527336b9b39739b2b73232b9103737ba1037bbb732b960611b604482015260640161039f565b6001600160a01b0381166105585760405162461bcd60e51b815260206004820152601b60248201527f4f776e65723a2073657474696e6720746f203020616464726573730000000000604482015260640161039f565b600880546001600160a01b0319166001600160a01b0392909216919091179055565b600554610100900460ff1680610593575060055460ff16155b6105f65760405162461bcd60e51b815260206004820152602e60248201527f496e697469616c697a61626c653a20636f6e747261637420697320616c72656160448201526d191e481a5b9a5d1a585b1a5e995960921b606482015260840161039f565b600554610100900460ff16158015610618576005805461ffff19166101011790555b600880546001600160a01b0319166001600160a01b038716179055835161064690600690602087019061097d565b50825161065a90600790602086019061097d565b506005805462ff000019166201000060ff8516021790558015610683576005805461ff00191690555b5050505050565b6001600160a01b0383166106ec5760405162461bcd60e51b8152602060048201526024808201527f45524332303a20617070726f76652066726f6d20746865207a65726f206164646044820152637265737360e01b606482015260840161039f565b6001600160a01b03821661074d5760405162461bcd60e51b815260206004820152602260248201527f45524332303a20617070726f766520746f20746865207a65726f206164647265604482015261737360f01b606482015260840161039f565b6001600160a01b0383811660008181526001602090815260408083209487168084529482529182902085905590518481527f8c5be1e5ebec7d5bd14f71427d1e84f3dd0314c0f7b2291e5b200ac8c7c3b925910160405180910390a3505050565b6001600160a01b0383166108125760405162461bcd60e51b815260206004820152602560248201527f45524332303a207472616e736665722066726f6d20746865207a65726f206164604482015264647265737360d81b606482015260840161039f565b6001600160a01b0382166108745760405162461bcd60e51b815260206004820152602360248201527f45524332303a207472616e7366657220746f20746865207a65726f206164647260448201526265737360e81b606482015260840161039f565b6001600160a01b038316600090815260208190526040902054818110156108ec5760405162461bcd60e51b815260206004820152602660248201527f45524332303a207472616e7366657220616d6f756e7420657863656564732062604482015265616c616e636560d01b606482015260840161039f565b6001600160a01b03808516600090815260208190526040808220858503905591851681529081208054849290610923908490610c5c565b92505081905550826001600160a01b0316846001600160a01b03167fddf252ad1be2c89b69c2b068fc378daa952ba7f163c4a11628f55a4df523b3ef8460405161096f91815260200190565b60405180910390a350505050565b82805461098990610c82565b90600052602060002090601f0160209004810192826109ab57600085556109f1565b82601f106109c457805160ff19168380011785556109f1565b828001600101855582156109f1579182015b828111156109f15782518255916020019190600101906109d6565b506109fd929150610a01565b5090565b5b808211156109fd5760008155600101610a02565b80356001600160a01b0381168114610a2d57600080fd5b919050565b600082601f830112610a4357600080fd5b813567ffffffffffffffff80821115610a5e57610a5e610cbd565b604051601f8301601f19908116603f01168101908282118183101715610a8657610a86610cbd565b81604052838152866020858801011115610a9f57600080fd5b836020870160208301376000602085830101528094505050505092915050565b600060208284031215610ad157600080fd5b610ada82610a16565b9392505050565b60008060408385031215610af457600080fd5b610afd83610a16565b9150610b0b60208401610a16565b90509250929050565b600080600060608486031215610b2957600080fd5b610b3284610a16565b9250610b4060208501610a16565b9150604084013590509250925092565b60008060008060808587031215610b6657600080fd5b610b6f85610a16565b9350602085013567ffffffffffffffff80821115610b8c57600080fd5b610b9888838901610a32565b94506040870135915080821115610bae57600080fd5b50610bbb87828801610a32565b925050606085013560ff81168114610bd257600080fd5b939692955090935050565b60008060408385031215610bf057600080fd5b610bf983610a16565b946020939093013593505050565b600060208083528351808285015260005b81811015610c3457858101830151858201604001528201610c18565b81811115610c46576000604083870101525b50601f01601f1916929092016040019392505050565b60008219821115610c7d57634e487b7160e01b600052601160045260246000fd5b500190565b600181811c90821680610c9657607f821691505b60208210811415610cb757634e487b7160e01b600052602260045260246000fd5b50919050565b634e487b7160e01b600052604160045260246000fdfea264697066735822122019f39c9cc63e96b0c43e3b0ce2b5d6b6271507f189295bfe6b2f41675d9f841164736f6c63430008070033",
  "linkReferences": {},
  "deployedLinkReferences": {}
}