{
  "address": "0xf17b4f778f4314B34fa2E9aE96971A79DC8C963C",
  "abi": [
    {
      "inputs": [
        {
          "internalType": "address",
          "name": "_poolFactoryAddress",
          "type": "address"
        }
      ],
      "stateMutability": "nonpayable",
      "type": "constructor"
    },
    {
      "anonymous": false,
      "inputs": [
        {
          "indexed": true,
          "internalType": "address",
          "name": "user",
          "type": "address"
        },
        {
          "indexed": true,
          "internalType": "address",
          "name": "poolCommitter",
          "type": "address"
        },
        {
          "indexed": true,
          "internalType": "uint256",
          "name": "updateIntervalId",
          "type": "uint256"
        },
        {
          "indexed": false,
          "internalType": "uint256",
          "name": "newReward",
          "type": "uint256"
        }
      ],
      "name": "PaidClaimRequestUpdate",
      "type": "event"
    },
    {
      "anonymous": false,
      "inputs": [
        {
          "indexed": true,
          "internalType": "address",
          "name": "user",
          "type": "address"
        },
        {
          "indexed": true,
          "internalType": "address",
          "name": "poolCommitter",
          "type": "address"
        },
        {
          "indexed": true,
          "internalType": "uint256",
          "name": "reward",
          "type": "uint256"
        }
      ],
      "name": "PaidRequestExecution",
      "type": "event"
    },
    {
      "anonymous": false,
      "inputs": [
        {
          "indexed": true,
          "internalType": "address",
          "name": "user",
          "type": "address"
        },
        {
          "indexed": true,
          "internalType": "address",
          "name": "poolCommitter",
          "type": "address"
        }
      ],
      "name": "RequestWithdrawn",
      "type": "event"
    },
    {
      "stateMutability": "payable",
      "type": "fallback"
    },
    {
      "inputs": [
        {
          "components": [
            {
              "internalType": "uint128",
              "name": "updateIntervalId",
              "type": "uint128"
            },
            {
              "internalType": "uint256",
              "name": "reward",
              "type": "uint256"
            }
          ],
          "internalType": "struct IAutoClaim.ClaimRequest",
          "name": "request",
          "type": "tuple"
        },
        {
          "internalType": "uint256",
          "name": "currentUpdateIntervalId",
          "type": "uint256"
        }
      ],
      "name": "checkClaim",
      "outputs": [
        {
          "internalType": "bool",
          "name": "",
          "type": "bool"
        }
      ],
      "stateMutability": "pure",
      "type": "function"
    },
    {
      "inputs": [
        {
          "internalType": "address",
          "name": "user",
          "type": "address"
        },
        {
          "internalType": "address",
          "name": "poolCommitter",
          "type": "address"
        }
      ],
      "name": "checkUserClaim",
      "outputs": [
        {
          "internalType": "bool",
          "name": "",
          "type": "bool"
        }
      ],
      "stateMutability": "view",
      "type": "function"
    },
    {
      "inputs": [
        {
          "internalType": "address",
          "name": "",
          "type": "address"
        },
        {
          "internalType": "address",
          "name": "",
          "type": "address"
        }
      ],
      "name": "claimRequests",
      "outputs": [
        {
          "internalType": "uint128",
          "name": "updateIntervalId",
          "type": "uint128"
        },
        {
          "internalType": "uint256",
          "name": "reward",
          "type": "uint256"
        }
      ],
      "stateMutability": "view",
      "type": "function"
    },
    {
      "inputs": [
        {
          "internalType": "address",
          "name": "user",
          "type": "address"
        }
      ],
      "name": "makePaidClaimRequest",
      "outputs": [],
      "stateMutability": "payable",
      "type": "function"
    },
    {
      "inputs": [
        {
          "internalType": "bytes",
          "name": "args1",
          "type": "bytes"
        },
        {
          "internalType": "bytes",
          "name": "args2",
          "type": "bytes"
        }
      ],
      "name": "multiPaidClaimMultiplePoolCommitters",
      "outputs": [],
      "stateMutability": "nonpayable",
      "type": "function"
    },
    {
      "inputs": [
        {
          "internalType": "bytes",
          "name": "args",
          "type": "bytes"
        },
        {
          "internalType": "address",
          "name": "poolCommitterAddress",
          "type": "address"
        }
      ],
      "name": "multiPaidClaimSinglePoolCommitter",
      "outputs": [],
      "stateMutability": "nonpayable",
      "type": "function"
    },
    {
      "inputs": [
        {
          "internalType": "address",
          "name": "user",
          "type": "address"
        },
        {
          "internalType": "address",
          "name": "poolCommitterAddress",
          "type": "address"
        }
      ],
      "name": "paidClaim",
      "outputs": [],
      "stateMutability": "nonpayable",
      "type": "function"
    },
    {
      "inputs": [
        {
          "internalType": "address",
          "name": "poolCommitter",
          "type": "address"
        }
      ],
      "name": "withdrawClaimRequest",
      "outputs": [],
      "stateMutability": "nonpayable",
      "type": "function"
    },
    {
      "inputs": [
        {
          "internalType": "address",
          "name": "user",
          "type": "address"
        }
      ],
      "name": "withdrawUserClaimRequest",
      "outputs": [],
      "stateMutability": "nonpayable",
      "type": "function"
    },
    {
      "stateMutability": "payable",
      "type": "receive"
    }
  ],
  "transactionHash": "0x59482a997daae655e076b3cbc5637d604419898818ddcd77ab009585deb13368",
  "args": [
    "0x615ae0452587d6030bC68fb3A9e205e430c0CF8f"
  ],
  "solcInputHash": "ed877995a3a12fdfd020e943737872e5",
  "bytecode": "0x60a060405234801561001057600080fd5b5060405161157a38038061157a83398101604081905261002f9161009e565b6001600160a01b0381166100895760405162461bcd60e51b815260206004820152601a60248201527f506f6f6c466163746f72792063616e6e6f74206265206e756c6c000000000000604482015260640160405180910390fd5b60601b6001600160601b0319166080526100ce565b6000602082840312156100b057600080fd5b81516001600160a01b03811681146100c757600080fd5b9392505050565b60805160601c61146b61010f6000396000818161021f0152818161035f0152818161059f01528181610790015281816109d60152610d7c015261146b6000f3fe60806040526004361061008a5760003560e01c806382b342a41161005957806382b342a414610130578063883e9e48146101505780638d68dd61146101705780639b42f47e146101d7578063c76ac728146101ea57600080fd5b806307119aeb14610099578063351ea38a146100bb5780634c830642146100f057806355bb0a541461011057600080fd5b3661009457600080fd5b600080fd5b3480156100a557600080fd5b506100b96100b436600461117b565b61020a565b005b3480156100c757600080fd5b506100db6100d63660046112ab565b610314565b60405190151581526020015b60405180910390f35b3480156100fc57600080fd5b506100b961010b36600461117b565b610340565b34801561011c57600080fd5b506100b961012b36600461123f565b6104aa565b34801561013c57600080fd5b506100b961014b3660046111eb565b610702565b34801561015c57600080fd5b506100db61016b366004611196565b6108fe565b34801561017c57600080fd5b506101b861018b366004611196565b6000602081815292815260408082209093529081522080546001909101546001600160801b039091169082565b604080516001600160801b0390931683526020830191909152016100e7565b6100b96101e536600461117b565b6109c1565b3480156101f657600080fd5b506100b9610205366004611196565b610d5d565b6040516359e86a9960e01b81523360048201527f00000000000000000000000000000000000000000000000000000000000000006001600160a01b0316906359e86a999060240160206040518083038186803b15801561026957600080fd5b505afa15801561027d573d6000803e3d6000fd5b505050506040513d601f19601f820116820180604052508101906102a191906111c9565b6102c65760405162461bcd60e51b81526004016102bd9061137a565b60405180910390fd5b6001600160a01b038116600090815260208181526040808320338452909152812060018101805482546001600160801b031916909255919091558015610310576103108282610ebc565b5050565b81516000906001600160801b031615801590610339575082516001600160801b031682115b9392505050565b6040516359e86a9960e01b81526001600160a01b0382811660048301527f000000000000000000000000000000000000000000000000000000000000000016906359e86a999060240160206040518083038186803b1580156103a157600080fd5b505afa1580156103b5573d6000803e3d6000fd5b505050506040513d601f19601f820116820180604052508101906103d991906111c9565b6103f55760405162461bcd60e51b81526004016102bd90611343565b336000908152602081815260408083206001600160a01b03851684529091529020546001600160801b0316156104a757336000908152602081815260408083206001600160a01b0385168452909152812060018101805482546001600160801b03191690925591909155801561046f5761046f3382610ebc565b6040516001600160a01b0383169033907fbeb52c9358dfd474b9e79cc7bb7c88a2079664f938ff899c7a54bbaa5e54b08a90600090a3505b50565b6104b56014846113f6565b156105025760405162461bcd60e51b815260206004820181905260248201527f61726773206d757374206f6e6c7920696e636c7564652061646472657373657360448201526064016102bd565b8281146105515760405162461bcd60e51b815260206004820152601860248201527f61726773206d7573742062652073616d65206c656e677468000000000000000060448201526064016102bd565b60008061055f6014866113e2565b9050838660008080805b868110156106e457843560601c9250853560601c6040516359e86a9960e01b81526001600160a01b0380831660048301529193507f0000000000000000000000000000000000000000000000000000000000000000909116906359e86a999060240160206040518083038186803b1580156105e357600080fd5b505afa1580156105f7573d6000803e3d6000fd5b505050506040513d601f19601f8201168201806040525081019061061b91906111c9565b6106375760405162461bcd60e51b81526004016102bd90611343565b6000829050806001600160a01b0316639d03132e6040518163ffffffff1660e01b815260040160206040518083038186803b15801561067557600080fd5b505afa158015610689573d6000803e3d6000fd5b505050506040513d601f19601f820116820180604052508101906106ad9190611326565b6001600160801b031694506106c484848388610fda565b6106ce908a6113bc565b9850506014958601959490940193600101610569565b5086156106f5576106f53388610ebc565b5050505050505050505050565b61070d6014836113f6565b1561075a5760405162461bcd60e51b815260206004820181905260248201527f61726773206d757374206f6e6c7920696e636c7564652061646472657373657360448201526064016102bd565b60006107676014846113e2565b6040516359e86a9960e01b81526001600160a01b038481166004830152919250859160009182917f000000000000000000000000000000000000000000000000000000000000000016906359e86a999060240160206040518083038186803b1580156107d257600080fd5b505afa1580156107e6573d6000803e3d6000fd5b505050506040513d601f19601f8201168201806040525081019061080a91906111c9565b6108265760405162461bcd60e51b81526004016102bd90611343565b60008590506000816001600160a01b0316639d03132e6040518163ffffffff1660e01b815260040160206040518083038186803b15801561086657600080fd5b505afa15801561087a573d6000803e3d6000fd5b505050506040513d601f19601f8201168201806040525081019061089e9190611326565b6001600160801b0316905060005b868110156108e257853560601c94506108c785898585610fda565b6108d190856113bc565b6014969096019593506001016108ac565b5082156108f3576108f33384610ebc565b505050505050505050565b6001600160a01b038083166000908152602081815260408083209385168084529382528083208151808301835281546001600160801b03168152600190910154818401528151634e81899760e11b8152915193946103399491939092639d03132e9260048083019392829003018186803b15801561097b57600080fd5b505afa15801561098f573d6000803e3d6000fd5b505050506040513d601f19601f820116820180604052508101906109b39190611326565b6001600160801b0316610314565b6040516359e86a9960e01b81523360048201527f00000000000000000000000000000000000000000000000000000000000000006001600160a01b0316906359e86a999060240160206040518083038186803b158015610a2057600080fd5b505afa158015610a34573d6000803e3d6000fd5b505050506040513d601f19601f82011682018060405250810190610a5891906111c9565b610a745760405162461bcd60e51b81526004016102bd9061137a565b6001600160a01b03811660009081526020818152604080832033808552925290912080549091906001600160801b03168015610c8857816001600160a01b0316639d03132e6040518163ffffffff1660e01b815260040160206040518083038186803b158015610ae357600080fd5b505afa158015610af7573d6000803e3d6000fd5b505050506040513d601f19601f82011682018060405250810190610b1b9190611326565b6001600160801b0316816001600160801b03161015610c15576001838101546001600160a01b0386811660008181526020818152604080832033845290915280822080546001600160801b0319168155909501559251630f41a04d60e11b81526004810193909352909190841690631e83409a90602401600060405180830381600087803b158015610bac57600080fd5b505af1158015610bc0573d6000803e3d6000fd5b505050506000811115610bd757610bd78582610ebc565b604051819033906001600160a01b038816907ffc1ef6f920271c53bdf1b6aa6a98b1cd7baa573c736975d7eb1f85b2f0c3d7f390600090a450610c88565b34836001016000828254610c2991906113bc565b9091555050825460018401546040519081526001600160801b039091169033906001600160a01b038716907f2bce56202c21201c15ed96641bc5306fdd7bdd656deb133d0677f3b3879b883b906020015b60405180910390a450505050565b816001600160a01b031663d4c4e2836040518163ffffffff1660e01b815260040160206040518083038186803b158015610cc157600080fd5b505afa158015610cd5573d6000803e3d6000fd5b505050506040513d601f19601f82011682018060405250810190610cf99190611326565b83546001600160801b0319166001600160801b038216908117855534600186018190556040519081529192509033906001600160a01b038716907f2bce56202c21201c15ed96641bc5306fdd7bdd656deb133d0677f3b3879b883b90602001610c7a565b6040516359e86a9960e01b81526001600160a01b0382811660048301527f000000000000000000000000000000000000000000000000000000000000000016906359e86a999060240160206040518083038186803b158015610dbe57600080fd5b505afa158015610dd2573d6000803e3d6000fd5b505050506040513d601f19601f82011682018060405250810190610df691906111c9565b610e125760405162461bcd60e51b81526004016102bd90611343565b60008190506000816001600160a01b0316639d03132e6040518163ffffffff1660e01b815260040160206040518083038186803b158015610e5257600080fd5b505afa158015610e66573d6000803e3d6000fd5b505050506040513d601f19601f82011682018060405250810190610e8a9190611326565b6001600160801b031690506000610ea385858585610fda565b90508015610eb557610eb53382610ebc565b5050505050565b80471015610f0c5760405162461bcd60e51b815260206004820152601d60248201527f416464726573733a20696e73756666696369656e742062616c616e636500000060448201526064016102bd565b6000826001600160a01b03168260405160006040518083038185875af1925050503d8060008114610f59576040519150601f19603f3d011682016040523d82523d6000602084013e610f5e565b606091505b5050905080610fd55760405162461bcd60e51b815260206004820152603a60248201527f416464726573733a20756e61626c6520746f2073656e642076616c75652c207260448201527f6563697069656e74206d6179206861766520726576657274656400000000000060648201526084016102bd565b505050565b6001600160a01b038085166000908152602081815260408083209387168352928152828220835180850190945280546001600160801b031684526001015490830152906110278184610314565b15611108576001600160a01b038681166000818152602081815260408083208a8616845290915280822080546001600160801b03191681556001019190915551630f41a04d60e11b8152600481019190915290851690631e83409a90602401600060405180830381600087803b1580156110a057600080fd5b505af11580156110b4573d6000803e3d6000fd5b505050508060200151856001600160a01b0316876001600160a01b03167ffc1ef6f920271c53bdf1b6aa6a98b1cd7baa573c736975d7eb1f85b2f0c3d7f360405160405180910390a460200151905061110e565b60009150505b949350505050565b80356001600160a01b038116811461112d57600080fd5b919050565b60008083601f84011261114457600080fd5b50813567ffffffffffffffff81111561115c57600080fd5b60208301915083602082850101111561117457600080fd5b9250929050565b60006020828403121561118d57600080fd5b61033982611116565b600080604083850312156111a957600080fd5b6111b283611116565b91506111c060208401611116565b90509250929050565b6000602082840312156111db57600080fd5b8151801515811461033957600080fd5b60008060006040848603121561120057600080fd5b833567ffffffffffffffff81111561121757600080fd5b61122386828701611132565b9094509250611236905060208501611116565b90509250925092565b6000806000806040858703121561125557600080fd5b843567ffffffffffffffff8082111561126d57600080fd5b61127988838901611132565b9096509450602087013591508082111561129257600080fd5b5061129f87828801611132565b95989497509550505050565b60008082840360608112156112bf57600080fd5b60408112156112cd57600080fd5b506040516040810181811067ffffffffffffffff821117156112ff57634e487b7160e01b600052604160045260246000fd5b604052833561130d81611420565b8152602084810135908201529460409093013593505050565b60006020828403121561133857600080fd5b815161033981611420565b6020808252601f908201527f496e76616c696420706f6f6c20636f6d6d697474657220636f6e747261637400604082015260600190565b60208082526022908201527f6d73672e73656e646572206e6f742076616c696420506f6f6c436f6d6d69747460408201526132b960f11b606082015260800190565b600082198211156113dd57634e487b7160e01b600052601160045260246000fd5b500190565b6000826113f1576113f161140a565b500490565b6000826114055761140561140a565b500690565b634e487b7160e01b600052601260045260246000fd5b6001600160801b03811681146104a757600080fdfea26469706673582212203f80ae0da597c110d31acbd5275cd3e6754400d500373b614cb8ba3fcd1653a564736f6c63430008070033",
  "devdoc": {
    "details": "A question I had to ask was \"What happens if one requests a second claim before one's pending request from a previous update interval one gets executed on?\".      My solution to this was to have the committer instantly claim for themself. They have signified their desire to claim their tokens, after all.",
    "kind": "dev",
    "methods": {
      "checkClaim((uint128,uint256),uint256)": {
        "details": "A claim request can be executed only if one exists and is from an update interval that has passed.",
        "params": {
          "currentUpdateIntervalId": "The current update interval. Used to compare to the update interval of the ClaimRequest.",
          "request": "The ClaimRequest object to be checked."
        },
        "returns": {
          "_0": "true if the given claim request can be executed."
        }
      },
      "checkUserClaim(address,address)": {
        "params": {
          "poolCommitter": "The pool committer in which to look for a user's claim request.",
          "user": "The user whose claim request will be checked."
        },
        "returns": {
          "_0": "true if the claim request can be executed."
        }
      },
      "makePaidClaimRequest(address)": {
        "details": "Only callable by this contract's associated PoolCommitter instance. This prevents griefing. Consider a permissionless function, where a user can claim that somebody else wants to auto claim when they do not.Emits a `PaidRequestExecution` event on successful claim for pending commit.",
        "params": {
          "user": "The user who wants to autoclaim."
        }
      },
      "multiPaidClaimMultiplePoolCommitters(bytes,bytes)": {
        "details": "The nth address in args2 should be the address of the PoolCommitter where the nth address in args1 requested an auto claim.",
        "params": {
          "args1": "Arguments for the function packed into a bytes array.                        __                       /  |    __ _ _ __ __ _ ___ `| |     _______________________________________________________________________________________________________________________   / _` | '__/ _` / __| | |    |          20 bytes          |          20 bytes         |          20 bytes          |          20 bytes         | ... |  | (_| | | | (_| \\__ \\_| |_   |      0th user address      |     1st user address      |      3rd user address      |      4th user address     | ... |   \\__,_|_|  \\__, |___/\\___/                  __/ |             |___/                       ___                      |__ \\    __ _ _ __ __ _ ___   ) |    _______________________________________________________________________________________________________________________   / _` | '__/ _` / __| / /    |          20 bytes          |          20 bytes         |          20 bytes          |          20 bytes         | ... |  | (_| | | | (_| \\__ \\/ /_    |  0th poolCommitter address | 1st poolCommitter address |  3rd poolCommitter address | 4th poolCommitter address | ... |   \\__,_|_|  \\__, |___/____|                  __/ |             |___/"
        }
      },
      "multiPaidClaimSinglePoolCommitter(bytes,address)": {
        "details": "poolCommitterAddress should be the PoolCommitter where all the supplied user addresses requested an auto claim",
        "params": {
          "args": "Arguments for the function packed into a bytes array. Generated with L2Encoder.encode  _______________________________________________________________________________________________________________________ |          20 bytes          |          20 bytes         |          20 bytes          |          20 bytes         | ... | |      0th user address      |     1st user address      |      3rd user address      |      4th user address     | ... |  ",
          "poolCommitterAddress": "The PoolCommitter address within which you would like to claim for the respective user"
        }
      },
      "paidClaim(address,address)": {
        "params": {
          "poolCommitterAddress": "The PoolCommitter address within which the user's claim will be executed",
          "user": "The user who requested an autoclaim."
        }
      },
      "withdrawClaimRequest(address)": {
        "details": "Emits a `RequestWithdrawn` event on success",
        "params": {
          "poolCommitter": "The PoolCommitter for which the user's commit claim is to be withdrawn."
        }
      },
      "withdrawUserClaimRequest(address)": {
        "details": "Only callable by the associated `PoolCommitter` contract",
        "params": {
          "user": "The user who will have their claim request withdrawn."
        }
      }
    },
    "title": "The contract to be used for paying to have a keeper claim your commit automatically",
    "version": 1
  },
  "userdoc": {
    "events": {
      "PaidClaimRequestUpdate(address,address,uint256,uint256)": {
        "notice": "Creates a notification when an auto-claim request is updated. i.e. When another commit is added and reward is incremented."
      },
      "PaidRequestExecution(address,address,uint256)": {
        "notice": "Creates a notification when an auto-claim request is executed"
      },
      "RequestWithdrawn(address,address)": {
        "notice": "Creates a notification when an auto-claim request is withdrawn"
      }
    },
    "kind": "user",
    "methods": {
      "checkUserClaim(address,address)": {
        "notice": "Check the validity of a user's claim request for a given pool committer."
      },
      "makePaidClaimRequest(address)": {
        "notice": "Pay for your commit to be claimed. This means that a willing participant can claim on `user`'s behalf when the current update interval ends. Claims a previously pending and claimable request before creating the requested claim-request."
      },
      "multiPaidClaimMultiplePoolCommitters(bytes,bytes)": {
        "notice": "Call `paidClaim` for multiple users, across multiple PoolCommitters."
      },
      "multiPaidClaimSinglePoolCommitter(bytes,address)": {
        "notice": "Call `paidClaim` for multiple users, in a single PoolCommitter."
      },
      "paidClaim(address,address)": {
        "notice": "Claim on the behalf of a user who has requested to have their commit automatically claimed by a keeper."
      },
      "withdrawClaimRequest(address)": {
        "notice": "If a user's claim request never gets executed (due to not high enough of a reward), or they change their minds, enable them to withdraw their request."
      },
      "withdrawUserClaimRequest(address)": {
        "notice": "When the user claims themself through poolCommitter, you want the user to be able to withdraw their request through the poolCommitter as msg.sender"
      }
    },
    "notice": "The way this works is when a user commits with `PoolCommitter::commit`, they have the option to set the `bool payForClaim` parameter to `true`.         During this function execution, `AutoClaim::payForClaim` is called, and `msg.value` is taken as the reward to whoever claims for requester (by using `AutoClaim::paidClaim`).",
    "version": 1
  },
  "storageLayout": {
    "storage": [
      {
        "astId": 7328,
        "contract": "contracts/implementation/AutoClaim.sol:AutoClaim",
        "label": "claimRequests",
        "offset": 0,
        "slot": "0",
        "type": "t_mapping(t_address,t_mapping(t_address,t_struct(ClaimRequest)14408_storage))"
      }
    ],
    "types": {
      "t_address": {
        "encoding": "inplace",
        "label": "address",
        "numberOfBytes": "20"
      },
      "t_mapping(t_address,t_mapping(t_address,t_struct(ClaimRequest)14408_storage))": {
        "encoding": "mapping",
        "key": "t_address",
        "label": "mapping(address => mapping(address => struct IAutoClaim.ClaimRequest))",
        "numberOfBytes": "32",
        "value": "t_mapping(t_address,t_struct(ClaimRequest)14408_storage)"
      },
      "t_mapping(t_address,t_struct(ClaimRequest)14408_storage)": {
        "encoding": "mapping",
        "key": "t_address",
        "label": "mapping(address => struct IAutoClaim.ClaimRequest)",
        "numberOfBytes": "32",
        "value": "t_struct(ClaimRequest)14408_storage"
      },
      "t_struct(ClaimRequest)14408_storage": {
        "encoding": "inplace",
        "label": "struct IAutoClaim.ClaimRequest",
        "members": [
          {
            "astId": 14405,
            "contract": "contracts/implementation/AutoClaim.sol:AutoClaim",
            "label": "updateIntervalId",
            "offset": 0,
            "slot": "0",
            "type": "t_uint128"
          },
          {
            "astId": 14407,
            "contract": "contracts/implementation/AutoClaim.sol:AutoClaim",
            "label": "reward",
            "offset": 0,
            "slot": "1",
            "type": "t_uint256"
          }
        ],
        "numberOfBytes": "64"
      },
      "t_uint128": {
        "encoding": "inplace",
        "label": "uint128",
        "numberOfBytes": "16"
      },
      "t_uint256": {
        "encoding": "inplace",
        "label": "uint256",
        "numberOfBytes": "32"
      }
    }
  }
}