{
  "address": "0xfecD33Ee1c46Cf5FFFe6881a27d58F92E077A0F9",
  "abi": [
    {
      "inputs": [
        {
          "internalType": "address",
          "name": "_inputOracle",
          "type": "address"
        },
        {
          "internalType": "int256",
          "name": "_numPeriods",
          "type": "int256"
        },
        {
          "internalType": "uint256",
          "name": "_updateInterval",
          "type": "uint256"
        },
        {
          "internalType": "address",
          "name": "_deployer",
          "type": "address"
        },
        {
          "internalType": "address",
          "name": "_poolKeeper",
          "type": "address"
        },
        {
          "internalType": "address",
          "name": "_gov",
          "type": "address"
        }
      ],
      "stateMutability": "nonpayable",
      "type": "constructor"
    },
    {
      "inputs": [],
      "name": "MAX_PERIODS",
      "outputs": [
        {
          "internalType": "int8",
          "name": "",
          "type": "int8"
        }
      ],
      "stateMutability": "view",
      "type": "function"
    },
    {
      "inputs": [],
      "name": "decimals",
      "outputs": [
        {
          "internalType": "uint8",
          "name": "",
          "type": "uint8"
        }
      ],
      "stateMutability": "view",
      "type": "function"
    },
    {
      "inputs": [],
      "name": "deployer",
      "outputs": [
        {
          "internalType": "address",
          "name": "",
          "type": "address"
        }
      ],
      "stateMutability": "view",
      "type": "function"
    },
    {
      "inputs": [
        {
          "internalType": "int256",
          "name": "wad",
          "type": "int256"
        }
      ],
      "name": "fromWad",
      "outputs": [
        {
          "internalType": "int256",
          "name": "",
          "type": "int256"
        }
      ],
      "stateMutability": "view",
      "type": "function"
    },
    {
      "inputs": [],
      "name": "getPrice",
      "outputs": [
        {
          "internalType": "int256",
          "name": "",
          "type": "int256"
        }
      ],
      "stateMutability": "view",
      "type": "function"
    },
    {
      "inputs": [],
      "name": "getPriceAndMetadata",
      "outputs": [
        {
          "internalType": "int256",
          "name": "_price",
          "type": "int256"
        },
        {
          "internalType": "bytes",
          "name": "_data",
          "type": "bytes"
        }
      ],
      "stateMutability": "view",
      "type": "function"
    },
    {
      "inputs": [],
      "name": "governance",
      "outputs": [
        {
          "internalType": "address",
          "name": "",
          "type": "address"
        }
      ],
      "stateMutability": "view",
      "type": "function"
    },
    {
      "inputs": [],
      "name": "lastUpdate",
      "outputs": [
        {
          "internalType": "uint256",
          "name": "",
          "type": "uint256"
        }
      ],
      "stateMutability": "view",
      "type": "function"
    },
    {
      "inputs": [],
      "name": "numPeriods",
      "outputs": [
        {
          "internalType": "int256",
          "name": "",
          "type": "int256"
        }
      ],
      "stateMutability": "view",
      "type": "function"
    },
    {
      "inputs": [],
      "name": "oracle",
      "outputs": [
        {
          "internalType": "address",
          "name": "",
          "type": "address"
        }
      ],
      "stateMutability": "view",
      "type": "function"
    },
    {
      "inputs": [],
      "name": "periodCount",
      "outputs": [
        {
          "internalType": "int256",
          "name": "",
          "type": "int256"
        }
      ],
      "stateMutability": "view",
      "type": "function"
    },
    {
      "inputs": [],
      "name": "poll",
      "outputs": [
        {
          "internalType": "int256",
          "name": "",
          "type": "int256"
        }
      ],
      "stateMutability": "nonpayable",
      "type": "function"
    },
    {
      "inputs": [],
      "name": "poolKeeper",
      "outputs": [
        {
          "internalType": "address",
          "name": "",
          "type": "address"
        }
      ],
      "stateMutability": "view",
      "type": "function"
    },
    {
      "inputs": [
        {
          "internalType": "int256",
          "name": "",
          "type": "int256"
        }
      ],
      "name": "prices",
      "outputs": [
        {
          "internalType": "int256",
          "name": "",
          "type": "int256"
        }
      ],
      "stateMutability": "view",
      "type": "function"
    },
    {
      "inputs": [],
      "name": "scaler",
      "outputs": [
        {
          "internalType": "int256",
          "name": "",
          "type": "int256"
        }
      ],
      "stateMutability": "view",
      "type": "function"
    },
    {
      "inputs": [
        {
          "internalType": "address",
          "name": "_governance",
          "type": "address"
        }
      ],
      "name": "setGovernance",
      "outputs": [],
      "stateMutability": "nonpayable",
      "type": "function"
    },
    {
      "inputs": [
        {
          "internalType": "address",
          "name": "_poolKeeper",
          "type": "address"
        }
      ],
      "name": "setPoolKeeper",
      "outputs": [],
      "stateMutability": "nonpayable",
      "type": "function"
    },
    {
      "inputs": [],
      "name": "updateInterval",
      "outputs": [
        {
          "internalType": "uint256",
          "name": "",
          "type": "uint256"
        }
      ],
      "stateMutability": "view",
      "type": "function"
    }
  ],
  "transactionHash": "0xea6190d7a144dcc94db1752ce4fd7276ba8abeb6d9381da7f7a43274b824f02e",
  "args": [
    "0xd3162ac5FdE4b2CfC327B7287D7810cB0273D736",
    8,
    3600,
    "0xfb59B91646cd0890F3E5343384FEb746989B66C7",
    "0xfb59B91646cd0890F3E5343384FEb746989B66C7",
    "0xfb59B91646cd0890F3E5343384FEb746989B66C7"
  ],
  "solcInputHash": "ed877995a3a12fdfd020e943737872e5",
  "bytecode": "0x6101206040523480156200001257600080fd5b5060405162000f1738038062000f17833981016040819052620000359162000284565b6001600160a01b038616158015906200005657506001600160a01b03831615155b80156200006b57506001600160a01b03821615155b80156200008057506001600160a01b03811615155b620000d25760405162461bcd60e51b815260206004820152601b60248201527f534d413a204e756c6c206164647265737320666f7262696464656e000000000060448201526064015b60405180910390fd5b600085138015620000e4575060188513155b620001275760405162461bcd60e51b8152602060048201526012602482015271534d413a204f7574206f6620626f756e647360701b6044820152606401620000c9565b83620001765760405162461bcd60e51b815260206004820181905260248201527f534d413a2055706461746520696e74657276616c2063616e6e6f7420626520306044820152606401620000c9565b6000866001600160a01b031663313ce5676040518163ffffffff1660e01b815260040160206040518083038186803b158015620001b257600080fd5b505afa158015620001c7573d6000803e3d6000fd5b505050506040513d601f19601f82011682018060405250810190620001ed9190620002f3565b9050620001fc81601262000429565b6200020990600a62000368565b610100525060c09490945260e0929092526001600160601b0319606094851b8116608052931b90921660a052600480546001600160a01b039384166001600160a01b0319918216179091556002805492909316911617905562000465565b80516001600160a01b03811681146200027f57600080fd5b919050565b60008060008060008060c087890312156200029e57600080fd5b620002a98762000267565b95506020870151945060408701519350620002c76060880162000267565b9250620002d76080880162000267565b9150620002e760a0880162000267565b90509295509295509295565b6000602082840312156200030657600080fd5b815160ff811681146200031857600080fd5b9392505050565b600181815b80851115620003605781600019048211156200034457620003446200044f565b808516156200035257918102915b93841c939080029062000324565b509250929050565b60006200031860ff841683600082620003845750600162000423565b81620003935750600062000423565b8160018114620003ac5760028114620003b757620003d7565b600191505062000423565b60ff841115620003cb57620003cb6200044f565b50506001821b62000423565b5060208310610133831016604e8410600b8410161715620003fc575081810a62000423565b6200040883836200031f565b80600019048211156200041f576200041f6200044f565b0290505b92915050565b600060ff821660ff8416808210156200044657620004466200044f565b90039392505050565b634e487b7160e01b600052601160045260246000fd5b60805160601c60a05160601c60c05160e05161010051610a2f620004e860003960008181610185015281816102fe01526107860152600081816102d5015261046e0152600081816102ae015281816105a9015281816105d2015281816106fb01526107240152600061027101526000818161021501526106480152610a2f6000f3fe608060405234801561001057600080fd5b50600436106101165760003560e01c80637f197519116100a2578063c046371111610071578063c046371114610263578063d5f394881461026c578063db6d8fcf14610293578063dcd65479146102a9578063fd2c80ae146102d057600080fd5b80637f1975191461023757806398d5fdca14610240578063a117527914610248578063ab033ea91461025057600080fd5b8063412ad1cc116100e9578063412ad1cc146101b5578063430ed6eb146101c85780635aa6e675146101dd57806361aaf0b3146101f05780637dc0d1d01461021057600080fd5b80630a2546401461011b578063178f9e351461013b578063313ce567146101665780633c1e6ff514610180575b600080fd5b610123601881565b60405160009190910b81526020015b60405180910390f35b60045461014e906001600160a01b031681565b6040516001600160a01b039091168152602001610132565b61016e601281565b60405160ff9091168152602001610132565b6101a77f000000000000000000000000000000000000000000000000000000000000000081565b604051908152602001610132565b6101a76101c33660046107db565b6102f7565b6101db6101d63660046107ab565b610329565b005b60025461014e906001600160a01b031681565b6101a76101fe3660046107db565b60006020819052908152604090205481565b61014e7f000000000000000000000000000000000000000000000000000000000000000081565b6101a760015481565b6101a7610400565b6101a761040f565b6101db61025e3660046107ab565b6104b0565b6101a760035481565b61014e7f000000000000000000000000000000000000000000000000000000000000000081565b61029b610582565b60405161013292919061080d565b6101a77f000000000000000000000000000000000000000000000000000000000000000081565b6101a77f000000000000000000000000000000000000000000000000000000000000000081565b60006103237f0000000000000000000000000000000000000000000000000000000000000000836108c3565b92915050565b6002546001600160a01b031633146103885760405162461bcd60e51b815260206004820181905260248201527f534d413a204f6e6c792063616c6c61626c6520627920676f7665726e616e636560448201526064015b60405180910390fd5b6001600160a01b0381166103de5760405162461bcd60e51b815260206004820152601b60248201527f534d413a204e756c6c206164647265737320666f7262696464656e0000000000604482015260640161037f565b600480546001600160a01b0319166001600160a01b0392909216919091179055565b600061040a610594565b905090565b6004546000906001600160a01b0316331461046c5760405162461bcd60e51b815260206004820181905260248201527f534d413a204f6e6c792063616c6c61626c6520627920506f6f6c4b6565706572604482015260640161037f565b7f000000000000000000000000000000000000000000000000000000000000000060035461049a91906108ab565b42106104a8576104a8610644565b61040a610594565b6002546001600160a01b0316331461050a5760405162461bcd60e51b815260206004820181905260248201527f534d413a204f6e6c792063616c6c61626c6520627920676f7665726e616e6365604482015260640161037f565b6001600160a01b0381166105605760405162461bcd60e51b815260206004820152601b60248201527f534d413a204e756c6c206164647265737320666f7262696464656e0000000000604482015260640161037f565b600280546001600160a01b0319166001600160a01b0392909216919091179055565b6000606061058e610594565b91509091565b600154600090806105a757600091505090565b7f00000000000000000000000000000000000000000000000000000000000000008113156105f257507f00000000000000000000000000000000000000000000000000000000000000005b600154600090816106038483610984565b90505b8181121561063157600081815260208190526040902054610627908461086a565b9250600101610606565b5061063c83836108c3565b935050505090565b60007f00000000000000000000000000000000000000000000000000000000000000006001600160a01b03166398d5fdca6040518163ffffffff1660e01b815260040160206040518083038186803b15801561069f57600080fd5b505afa1580156106b3573d6000803e3d6000fd5b505050506040513d601f19601f820116820180604052508101906106d791906107f4565b90506106e28161077f565b60018054600090815260208190526040902091909155547f000000000000000000000000000000000000000000000000000000000000000013610763576000807f00000000000000000000000000000000000000000000000000000000000000006001546107509190610984565b8152602001908152602001600020600090555b60018054906000610773836109c3565b90915550504260035550565b60006103237f0000000000000000000000000000000000000000000000000000000000000000836108ff565b6000602082840312156107bd57600080fd5b81356001600160a01b03811681146107d457600080fd5b9392505050565b6000602082840312156107ed57600080fd5b5035919050565b60006020828403121561080657600080fd5b5051919050565b82815260006020604081840152835180604085015260005b8181101561084157858101830151858201606001528201610825565b81811115610853576000606083870101525b50601f01601f191692909201606001949350505050565b600080821280156001600160ff1b038490038513161561088c5761088c6109e3565b600160ff1b83900384128116156108a5576108a56109e3565b50500190565b600082198211156108be576108be6109e3565b500190565b6000826108e057634e487b7160e01b600052601260045260246000fd5b600160ff1b8214600019841416156108fa576108fa6109e3565b500590565b60006001600160ff1b0381841382841380821686840486111615610925576109256109e3565b600160ff1b6000871282811687830589121615610944576109446109e3565b60008712925087820587128484161615610960576109606109e3565b87850587128184161615610976576109766109e3565b505050929093029392505050565b60008083128015600160ff1b8501841216156109a2576109a26109e3565b6001600160ff1b03840183138116156109bd576109bd6109e3565b50500390565b60006001600160ff1b038214156109dc576109dc6109e3565b5060010190565b634e487b7160e01b600052601160045260246000fdfea26469706673582212204402e1e1c262b5ac32677932d0d88f12463af4a714cdf67f9af4f5e19d9883d464736f6c63430008070033",
  "devdoc": {
    "kind": "dev",
    "methods": {
      "fromWad(int256)": {
        "details": "This is a no-op for `SMAOracle`",
        "params": {
          "wad": "wad maths value"
        },
        "returns": {
          "_0": "Raw (signed) integer"
        }
      },
      "getPrice()": {
        "details": "Recomputes SMA across sample size"
      },
      "getPriceAndMetadata()": {
        "details": "Required by the `IOracleWrapper` interface. The interface leaves          the metadata as implementation-defined. For the SMA wrapper, there          is no clear use case for additional data, so it's left blank"
      },
      "poll()": {
        "details": "Throws if called within an update interval since last being calledEssentially wraps `update()`",
        "returns": {
          "_0": "Latest SMA price"
        }
      },
      "setGovernance(address)": {
        "details": "Only callable by (existing) governance",
        "params": {
          "_governance": "Address of the new governance"
        }
      },
      "setPoolKeeper(address)": {
        "details": "Only callable by governance",
        "params": {
          "_poolKeeper": "Address of the new contract"
        }
      }
    },
    "stateVariables": {
      "prices": {
        "details": "Only the most recent `numPeriods` prices are stored. The rest are deleted, which will result in a zero value for prices with index less than `periodCount - numPrices`."
      }
    },
    "version": 1
  },
  "userdoc": {
    "kind": "user",
    "methods": {
      "fromWad(int256)": {
        "notice": "Converts `wad` to a raw integer"
      },
      "getPrice()": {
        "notice": "Retrieves the current SMA price"
      },
      "getPriceAndMetadata()": {
        "notice": "Returns the current SMA price and an empty bytes array"
      },
      "lastUpdate()": {
        "notice": "Time of last successful price update"
      },
      "numPeriods()": {
        "notice": "Number of desired sampling periods to use -- this will differ from the actual number of periods used until the SMAOracle ramps up."
      },
      "oracle()": {
        "notice": "Price feed to use for SMA"
      },
      "periodCount()": {
        "notice": "the total number of periods that have occurred"
      },
      "poll()": {
        "notice": "Updates the SMA wrapper by retrieving a new price from the          associated price observer contract (provided it's not too early)"
      },
      "prices(int256)": {
        "notice": "the stored spot prices by their period number"
      },
      "setGovernance(address)": {
        "notice": "Changes the address of the associated governance"
      },
      "setPoolKeeper(address)": {
        "notice": "Changes the address of the associated `PoolKeeper` contract"
      },
      "updateInterval()": {
        "notice": "Duration between price updates in seconds"
      }
    },
    "notice": "Applies a simple moving average (SMA) smoothing function to the spot          price of an underlying oracle.",
    "version": 1
  },
  "storageLayout": {
    "storage": [
      {
        "astId": 13967,
        "contract": "contracts/implementation/SMAOracle.sol:SMAOracle",
        "label": "prices",
        "offset": 0,
        "slot": "0",
        "type": "t_mapping(t_int256,t_int256)"
      },
      {
        "astId": 13970,
        "contract": "contracts/implementation/SMAOracle.sol:SMAOracle",
        "label": "periodCount",
        "offset": 0,
        "slot": "1",
        "type": "t_int256"
      },
      {
        "astId": 13979,
        "contract": "contracts/implementation/SMAOracle.sol:SMAOracle",
        "label": "governance",
        "offset": 0,
        "slot": "2",
        "type": "t_address"
      },
      {
        "astId": 13988,
        "contract": "contracts/implementation/SMAOracle.sol:SMAOracle",
        "label": "lastUpdate",
        "offset": 0,
        "slot": "3",
        "type": "t_uint256"
      },
      {
        "astId": 13999,
        "contract": "contracts/implementation/SMAOracle.sol:SMAOracle",
        "label": "poolKeeper",
        "offset": 0,
        "slot": "4",
        "type": "t_address"
      }
    ],
    "types": {
      "t_address": {
        "encoding": "inplace",
        "label": "address",
        "numberOfBytes": "20"
      },
      "t_int256": {
        "encoding": "inplace",
        "label": "int256",
        "numberOfBytes": "32"
      },
      "t_mapping(t_int256,t_int256)": {
        "encoding": "mapping",
        "key": "t_int256",
        "label": "mapping(int256 => int256)",
        "numberOfBytes": "32",
        "value": "t_int256"
      },
      "t_uint256": {
        "encoding": "inplace",
        "label": "uint256",
        "numberOfBytes": "32"
      }
    }
  }
}