{
    "address": "0x010641702a9E4cdDe6ad774c09449f05DDeA0fF6",
    "abi": [
        {
            "inputs": [
                {
                    "internalType": "address",
                    "name": "_factory",
                    "type": "address"
                }
            ],
            "stateMutability": "nonpayable",
            "type": "constructor"
        },
        {
            "anonymous": false,
            "inputs": [
                {
                    "indexed": false,
                    "internalType": "string",
                    "name": "message",
                    "type": "string"
                }
            ],
            "name": "InvariantsFail",
            "type": "event"
        },
        {
            "anonymous": false,
            "inputs": [],
            "name": "InvariantsHold",
            "type": "event"
        },
        {
            "inputs": [
                {
                    "internalType": "address",
                    "name": "poolToCheck",
                    "type": "address"
                }
            ],
            "name": "checkInvariants",
            "outputs": [],
            "stateMutability": "nonpayable",
            "type": "function"
        },
        {
            "inputs": [],
            "name": "poolFactory",
            "outputs": [
                {
                    "internalType": "contract IPoolFactory",
                    "name": "",
                    "type": "address"
                }
            ],
            "stateMutability": "view",
            "type": "function"
        }
    ],
    "transactionHash": "0x5a293c1c743f568ed2bfa9ce584fa4468393826703c53a25935cb9a929ecfff6",
    "args": [
        "0x3Feafee6b12C8d2E58c5B118e54C09F9273c6124"
    ],
    "solcInputHash": "4b024dc169a046e6527f075e446ec886",
    "bytecode": "0x60a060405234801561001057600080fd5b5060405161079d38038061079d83398101604081905261002f9161009e565b6001600160a01b0381166100895760405162461bcd60e51b815260206004820152601660248201527f466163746f72792063616e6e6f74206265206e756c6c00000000000000000000604482015260640160405180910390fd5b60601b6001600160601b0319166080526100ce565b6000602082840312156100b057600080fd5b81516001600160a01b03811681146100c757600080fd5b9392505050565b60805160601c6106ac6100f1600039600081816040015260b401526106ac6000f3fe608060405234801561001057600080fd5b50600436106100365760003560e01c80634219dc401461003b5780639e079fc41461007e575b600080fd5b6100627f000000000000000000000000000000000000000000000000000000000000000081565b6040516001600160a01b03909116815260200160405180910390f35b61009161008c3660046105bc565b610093565b005b604051635ab78ee160e01b81526001600160a01b03808316600483015282917f000000000000000000000000000000000000000000000000000000000000000090911690635ab78ee19060240160206040518083038186803b1580156100f857600080fd5b505afa15801561010c573d6000803e3d6000fd5b505050506040513d601f19601f8201168201806040525081019061013091906105fd565b6101725760405162461bcd60e51b815260206004820152600f60248201526e141bdbdb081a5cc81a5b9d985b1a59608a1b604482015260640160405180910390fd5b6000816001600160a01b031663cd39f30f6040518163ffffffff1660e01b815260040160206040518083038186803b1580156101ad57600080fd5b505afa1580156101c1573d6000803e3d6000fd5b505050506040513d601f19601f820116820180604052508101906101e591906105e0565b90506000826001600160a01b0316637b9e618d6040518163ffffffff1660e01b815260040160206040518083038186803b15801561022257600080fd5b505afa158015610236573d6000803e3d6000fd5b505050506040513d601f19601f8201168201806040525081019061025a91906105e0565b6040516370a0823160e01b81526001600160a01b03868116600483015291909116906370a082319060240160206040518083038186803b15801561029d57600080fd5b505afa1580156102b1573d6000803e3d6000fd5b505050506040513d601f19601f820116820180604052508101906102d5919061061f565b90506000826001600160a01b031663ce6609166040518163ffffffff1660e01b815260040160206040518083038186803b15801561031257600080fd5b505afa158015610326573d6000803e3d6000fd5b505050506040513d601f19601f8201168201806040525081019061034a919061061f565b90506000846001600160a01b0316637e71fc7d6040518163ffffffff1660e01b815260040160206040518083038186803b15801561038757600080fd5b505afa15801561039b573d6000803e3d6000fd5b505050506040513d601f19601f820116820180604052508101906103bf919061061f565b90506000856001600160a01b031663ba8d54686040518163ffffffff1660e01b815260040160206040518083038186803b1580156103fc57600080fd5b505afa158015610410573d6000803e3d6000fd5b505050506040513d601f19601f82011682018060405250810190610434919061061f565b9050610442848484846104ef565b6104bc576104508786610512565b7f32917bd2c7c894d384362f4fd6cb06a49869aaa5b63611e87c07f6b8adcd27676040516104af9060208082526017908201527f42616c616e636520696e76617269616e74206661696c73000000000000000000604082015260600190565b60405180910390a16104e6565b6040517f27b8a8fe1796821b48ac809f0032cf0def9eeff87ffe3c46c5bb7b323d50836f90600090a15b50505050505050565b6000816104fc8486610638565b6105069190610638565b90941015949350505050565b816001600160a01b0316638456cb596040518163ffffffff1660e01b8152600401600060405180830381600087803b15801561054d57600080fd5b505af1158015610561573d6000803e3d6000fd5b50505050806001600160a01b0316638456cb596040518163ffffffff1660e01b8152600401600060405180830381600087803b1580156105a057600080fd5b505af11580156105b4573d6000803e3d6000fd5b505050505050565b6000602082840312156105ce57600080fd5b81356105d98161065e565b9392505050565b6000602082840312156105f257600080fd5b81516105d98161065e565b60006020828403121561060f57600080fd5b815180151581146105d957600080fd5b60006020828403121561063157600080fd5b5051919050565b6000821982111561065957634e487b7160e01b600052601160045260246000fd5b500190565b6001600160a01b038116811461067357600080fd5b5056fea26469706673582212203a85289aa27dd743c846085a5e4113852efe2be9d01ca0fc63635367ac54fcb764736f6c63430008070033",
    "devdoc": {
        "kind": "dev",
        "methods": {
            "checkInvariants(address)": {
                "details": "This should be called before onlyUnpaused, in case contracts are paused then pause check must happen after.Emits `InvariantsHold` event if invariants hold.",
                "params": {
                    "poolToCheck": "The LeveragedPool contract to be checked."
                }
            },
            "constructor": {
                "details": "Throws if factory address is null",
                "params": {
                    "_factory": "Address of the associated `PoolFactory` contract"
                }
            }
        },
        "title": "The contract for checking invariants and pausing if necessary",
        "version": 1
    },
    "userdoc": {
        "kind": "user",
        "methods": {
            "checkInvariants(address)": {
                "notice": "Checks all invariants, and pauses all contracts if         any invariant does not hold."
            },
            "constructor": {
                "notice": "Constructor"
            }
        },
        "notice": "Every time certain functions are called, known invariants are checked and if any do not hold, contracts are paused.",
        "version": 1
    },
    "storageLayout": {
        "storage": [],
        "types": null
    }
}