{
  "address": "0x33582761879e0eDAcC25D156585c6Ccc0d20f85A",
  "abi": [
    {
      "inputs": [
        {
          "internalType": "address",
          "name": "_keeper",
          "type": "address"
        }
      ],
      "stateMutability": "nonpayable",
      "type": "constructor"
    },
    {
      "anonymous": false,
      "inputs": [
        {
          "indexed": true,
          "internalType": "address",
          "name": "pool",
          "type": "address"
        },
        {
          "indexed": false,
          "internalType": "string",
          "name": "reason",
          "type": "string"
        }
      ],
      "name": "PoolUpkeepError",
      "type": "event"
    },
    {
      "inputs": [],
      "name": "BASE_TIP",
      "outputs": [
        {
          "internalType": "uint256",
          "name": "",
          "type": "uint256"
        }
      ],
      "stateMutability": "view",
      "type": "function"
    },
    {
      "inputs": [],
      "name": "BLOCK_TIME",
      "outputs": [
        {
          "internalType": "uint256",
          "name": "",
          "type": "uint256"
        }
      ],
      "stateMutability": "view",
      "type": "function"
    },
    {
      "inputs": [],
      "name": "FIXED_GAS_OVERHEAD",
      "outputs": [
        {
          "internalType": "uint256",
          "name": "",
          "type": "uint256"
        }
      ],
      "stateMutability": "view",
      "type": "function"
    },
    {
      "inputs": [],
      "name": "FIXED_POINT",
      "outputs": [
        {
          "internalType": "bytes16",
          "name": "",
          "type": "bytes16"
        }
      ],
      "stateMutability": "view",
      "type": "function"
    },
    {
      "inputs": [],
      "name": "MAX_TIP",
      "outputs": [
        {
          "internalType": "uint256",
          "name": "",
          "type": "uint256"
        }
      ],
      "stateMutability": "view",
      "type": "function"
    },
    {
      "inputs": [],
      "name": "TIP_DELTA_PER_BLOCK",
      "outputs": [
        {
          "internalType": "uint256",
          "name": "",
          "type": "uint256"
        }
      ],
      "stateMutability": "view",
      "type": "function"
    },
    {
      "inputs": [],
      "name": "keeper",
      "outputs": [
        {
          "internalType": "address",
          "name": "",
          "type": "address"
        }
      ],
      "stateMutability": "view",
      "type": "function"
    },
    {
      "inputs": [
        {
          "internalType": "uint256",
          "name": "_gasPrice",
          "type": "uint256"
        },
        {
          "internalType": "uint256",
          "name": "_gasSpent",
          "type": "uint256"
        },
        {
          "internalType": "uint256",
          "name": "_settlementTokenPrice",
          "type": "uint256"
        }
      ],
      "name": "keeperGas",
      "outputs": [
        {
          "internalType": "uint256",
          "name": "",
          "type": "uint256"
        }
      ],
      "stateMutability": "pure",
      "type": "function"
    },
    {
      "inputs": [
        {
          "internalType": "address",
          "name": "_pool",
          "type": "address"
        },
        {
          "internalType": "uint256",
          "name": "_gasPrice",
          "type": "uint256"
        },
        {
          "internalType": "uint256",
          "name": "_gasSpent",
          "type": "uint256"
        },
        {
          "internalType": "uint256",
          "name": "_savedPreviousUpdatedTimestamp",
          "type": "uint256"
        },
        {
          "internalType": "uint256",
          "name": "_poolInterval",
          "type": "uint256"
        },
        {
          "internalType": "uint256",
          "name": "_settlementTokenPrice",
          "type": "uint256"
        }
      ],
      "name": "keeperReward",
      "outputs": [
        {
          "internalType": "uint256",
          "name": "",
          "type": "uint256"
        }
      ],
      "stateMutability": "view",
      "type": "function"
    },
    {
      "inputs": [
        {
          "internalType": "uint256",
          "name": "_savedPreviousUpdatedTimestamp",
          "type": "uint256"
        },
        {
          "internalType": "uint256",
          "name": "_poolInterval",
          "type": "uint256"
        }
      ],
      "name": "keeperTip",
      "outputs": [
        {
          "internalType": "uint256",
          "name": "",
          "type": "uint256"
        }
      ],
      "stateMutability": "view",
      "type": "function"
    },
    {
      "inputs": [
        {
          "internalType": "address",
          "name": "_keeper",
          "type": "address"
        },
        {
          "internalType": "address",
          "name": "_pool",
          "type": "address"
        },
        {
          "internalType": "uint256",
          "name": "_gasPrice",
          "type": "uint256"
        },
        {
          "internalType": "uint256",
          "name": "_gasSpent",
          "type": "uint256"
        },
        {
          "internalType": "uint256",
          "name": "_savedPreviousUpdatedTimestamp",
          "type": "uint256"
        },
        {
          "internalType": "uint256",
          "name": "_updateInterval",
          "type": "uint256"
        }
      ],
      "name": "payKeeper",
      "outputs": [
        {
          "internalType": "uint256",
          "name": "",
          "type": "uint256"
        }
      ],
      "stateMutability": "nonpayable",
      "type": "function"
    }
  ],
  "transactionHash": "0x2d32a38d5a0c61d3626f9a15b4bfdd070bcf4b73e91588b26c8b1f4abc7eedbd",
  "args": [
    "0x051afD0b39ACF4Cc52c76a479aD802d0B82A8249"
  ],
  "solcInputHash": "4b024dc169a046e6527f075e446ec886",
  "bytecode": "0x60a060405234801561001057600080fd5b5060405161132738038061132783398101604081905261002f9161009e565b6001600160a01b0381166100895760405162461bcd60e51b815260206004820152601e60248201527f506f6f6c4b65657065722063616e6e6f74206265203020616464726573730000604482015260640160405180910390fd5b60601b6001600160601b0319166080526100ce565b6000602082840312156100b057600080fd5b81516001600160a01b03811681146100c757600080fd5b9392505050565b60805160601c6112346100f36000396000818161011501526101a501526112346000f3fe608060405234801561001057600080fd5b50600436106100a95760003560e01c8063aea8acb111610071578063aea8acb114610108578063b9c653651461014f578063c9584e6814610162578063cd590b5714610175578063f6bd4a9514610188578063f93019101461019057600080fd5b8063348c2b1f146100ae578063556ede80146100d45780637a458d7a146100de5780639f9a3d9514610108578063aced166114610110575b600080fd5b6100c16100bc366004610ead565b610198565b6040519081526020015b60405180910390f35b6100c16201394381565b6100ef668075782dace9d960c71b81565b6040516001600160801b031990911681526020016100cb565b6100c1600581565b6101377f000000000000000000000000000000000000000000000000000000000000000081565b6040516001600160a01b0390911681526020016100cb565b6100c161015d366004610f8d565b610556565b6100c1610170366004610faf565b6105b8565b6100c1610183366004610f06565b61062d565b6100c1606481565b6100c1600d81565b6000336001600160a01b037f0000000000000000000000000000000000000000000000000000000000000000161461020f5760405162461bcd60e51b815260206004820152601560248201527436b9b39739b2b73232b9103737ba1035b2b2b832b960591b60448201526064015b60405180910390fd5b856001600160a01b0316638226f3966040518163ffffffff1660e01b815260040160206040518083038186803b15801561024857600080fd5b505afa15801561025c573d6000803e3d6000fd5b505050506040513d601f19601f820116820180604052508101906102809190610e90565b6001600160a01b031663a11752796040518163ffffffff1660e01b8152600401602060405180830381600087803b1580156102ba57600080fd5b505af19250505080156102ea575060408051601f3d908101601f191682019092526102e791810190610f74565b60015b610369576102f6611140565b806308c379a0141561035d575061030b61115c565b80610316575061035f565b866001600160a01b03167f8a47468bf96478429d382ed6385d9c77fba8b89540cd88199b1b51d5723b11fa8260405161034f9190610ffe565b60405180910390a25061036b565b505b3d6000803e3d6000fd5b505b6000866001600160a01b0316638226f3966040518163ffffffff1660e01b815260040160206040518083038186803b1580156103a657600080fd5b505afa1580156103ba573d6000803e3d6000fd5b505050506040513d601f19601f820116820180604052508101906103de9190610e90565b6001600160a01b03166398d5fdca6040518163ffffffff1660e01b815260040160206040518083038186803b15801561041657600080fd5b505afa15801561042a573d6000803e3d6000fd5b505050506040513d601f19601f8201168201806040525081019061044e9190610f74565b905060008112156104a15760405162461bcd60e51b815260206004820152601d60248201527f736574746c656d656e74207072696365206d757374206265203e3d20300000006044820152606401610206565b60006104b188888888888761062d565b604051636dc2b27160e01b81526001600160a01b038b811660048301526024820183905291925090891690636dc2b27190604401602060405180830381600087803b1580156104ff57600080fd5b505af1158015610513573d6000803e3d6000fd5b505050506040513d601f19601f820116820180604052508101906105379190610f52565b1561054557915061054c9050565b6000925050505b9695505050505050565b6000806105638385611053565b61056d90426110ac565b90506000600d61057e83600561108d565b610588919061106b565b610593906005611053565b905060648111156105a9576064925050506105b2565b91506105b29050565b92915050565b6000816105c757506000610626565b60006105d66201394385611053565b905060006105ec6105e7838861108d565b6107f3565b905060006105f9856107f3565b905061062061061b61060b8484610857565b668075782dace9d960c71b610ad4565b610d6a565b93505050505b9392505050565b60008061063b8787856105b8565b905060006106498686610556565b905060006064610659838561108d565b610663919061106b565b61066d9084611053565b905060008a6001600160a01b0316637b9e618d6040518163ffffffff1660e01b815260040160206040518083038186803b1580156106aa57600080fd5b505afa1580156106be573d6000803e3d6000fd5b505050506040513d601f19601f820116820180604052508101906106e29190610e90565b6001600160a01b031663313ce5676040518163ffffffff1660e01b815260040160206040518083038186803b15801561071a57600080fd5b505afa15801561072e573d6000803e3d6000fd5b505050506040513d601f19601f820116820180604052508101906107529190610fdb565b60405163bf36f0e960e01b81526004810184905260ff919091166024820181905291507358639957c0E526fF4E4Bb1cBfBDFeFdeb16Af2379063bf36f0e99060440160206040518083038186803b1580156107ac57600080fd5b505af41580156107c0573d6000803e3d6000fd5b505050506040513d601f19601f820116820180604052508101906107e49190610f74565b9b9a5050505050505050505050565b60008161080257506000919050565b81600061080e82610ded565b90506070811015610827578060700382901b915061083a565b607081111561083a576070810382901c91505b613fff0160701b6001600160701b03919091161760801b92915050565b6000617fff60f084811c8216919084901c8116908214156109075780617fff14156108d5576001600160801b031985811690851614156108a257505050600160ff1b811682186105b2565b600160ff1b6001600160801b03198686181614156108c5575050508181176105b2565b5061ffff60ef1b91506105b29050565b600160801b600160ff1b0384166108f6575061ffff60ef1b91506105b29050565b505050600160ff1b811682186105b2565b80617fff141561094357600160801b600160ff1b038516610932575061ffff60ef1b91506105b29050565b505050600160ff1b821681186105b2565b6001600160701b03608086901c168261095f5760019250610966565b600160701b175b6001600160701b03608086901c16826109825760019250610989565b600160701b175b90810290816109b757600160ff1b878718166109a65760006109ac565b600160ff1b5b9450505050506105b2565b928201926000600160e11b8310156109ea57600160e01b8310156109e3576109de83610ded565b6109ed565b60e06109ed565b60e15b90506140708186011015610a08576000945060009250610aa5565b6140e08186011015610a4b57614070851015610a2d57846140700383901c9250610a42565b614070851115610a4257614070850383901b92505b60009450610aa5565b61c0dd8186011115610a6557617fff945060009250610aa5565b6070811115610a7c576070810383901c9250610a8f565b6070811015610a8f578060700383901b92505b6001600160701b03831692506140df8186010394505b82607086901b888a186001607f1b60801b1660801c6001600160801b0316171760801b955050505050506105b2565b6000617fff60f084811c8216919084901c811690821415610b095780617fff14156108f6575061ffff60ef1b91506105b29050565b80617fff1415610b4d576dffffffffffffffffffffffffffff60801b841615610b3c575061ffff60ef1b91506105b29050565b505050808218600160ff1b166105b2565b600160801b600160ff1b038416610b9757600160801b600160ff1b038516610b7f575061ffff60ef1b91506105b29050565b505050808218600160ff1b16617fff60f01b176105b2565b6001600160701b03608085901c1681610bb35760019150610bba565b600160701b175b6001600160701b03608087901c1683610bf9578015610bf4576000610bde82610ded565b6001955060e20393840160711901939190911b90505b610c03565b600160701b1760721b5b818181610c1257610c1261112a565b04905080610c2e57600160ff1b878718166109a65760006109ac565b6001606c1b811015610c4257610c426110fe565b6000600160731b821015610c8157600160721b821015610c7657600160711b821015610c6f576070610c79565b6071610c79565b60725b60ff16610c8a565b610c8a82610ded565b905083614071018186011115610ca857617fff945060009150610d3b565b83818601613ffc011015610cc3576000945060009150610d3b565b83818601613f8c011015610d10578385613ffc011115610cee578385613ffc010382901b9150610d07565b8385613ffc011015610d0757613ffc8585030382901c91505b60009450610d3b565b6070811115610d23576070810382901c91505b6001600160701b038216915083818601613f8d010394505b81607086901b888a186001607f1b60801b1660801c6001600160801b0316171760801b955050505050506105b2565b6000617fff60f083901c16613fff811015610d885750600092915050565b6001607f1b608084901c10610d9c57600080fd5b6140fe811115610dab57600080fd5b600160701b6001600160701b03608085901c161761406f821015610dd55761406f8290031c610626565b61406f8211156106265761406e1982011b9392505050565b6000808211610dfb57600080fd5b6000600160801b8310610e1057608092831c92015b680100000000000000008310610e2857604092831c92015b6401000000008310610e3c57602092831c92015b620100008310610e4e57601092831c92015b6101008310610e5f57600892831c92015b60108310610e6f57600492831c92015b60048310610e7f57600292831c92015b600283106105b25760010192915050565b600060208284031215610ea257600080fd5b8151610626816111e6565b60008060008060008060c08789031215610ec657600080fd5b8635610ed1816111e6565b95506020870135610ee1816111e6565b95989597505050506040840135936060810135936080820135935060a0909101359150565b60008060008060008060c08789031215610f1f57600080fd5b8635610f2a816111e6565b9860208801359850604088013597606081013597506080810135965060a00135945092505050565b600060208284031215610f6457600080fd5b8151801515811461062657600080fd5b600060208284031215610f8657600080fd5b5051919050565b60008060408385031215610fa057600080fd5b50508035926020909101359150565b600080600060608486031215610fc457600080fd5b505081359360208301359350604090920135919050565b600060208284031215610fed57600080fd5b815160ff8116811461062657600080fd5b600060208083528351808285015260005b8181101561102b5785810183015185820160400152820161100f565b8181111561103d576000604083870101525b50601f01601f1916929092016040019392505050565b6000821982111561106657611066611114565b500190565b60008261108857634e487b7160e01b600052601260045260246000fd5b500490565b60008160001904831182151516156110a7576110a7611114565b500290565b6000828210156110be576110be611114565b500390565b601f8201601f1916810167ffffffffffffffff811182821017156110f757634e487b7160e01b600052604160045260246000fd5b6040525050565b634e487b7160e01b600052600160045260246000fd5b634e487b7160e01b600052601160045260246000fd5b634e487b7160e01b600052601260045260246000fd5b600060033d11156111595760046000803e5060005160e01c5b90565b600060443d101561116a5790565b6040516003193d81016004833e81513d67ffffffffffffffff816024840111818411171561119a57505050505090565b82850191508151818111156111b25750505050505090565b843d87010160208285010111156111cc5750505050505090565b6111db602082860101876110c3565b509095945050505050565b6001600160a01b03811681146111fb57600080fd5b5056fea2646970667358221220e3deacb343b3ad07d6fca0f0fc9d58098c03fc13e0044428c760142b7b41eb4f64736f6c63430008070033",
  "deployedBytecode": "0x608060405234801561001057600080fd5b50600436106100a95760003560e01c8063aea8acb111610071578063aea8acb114610108578063b9c653651461014f578063c9584e6814610162578063cd590b5714610175578063f6bd4a9514610188578063f93019101461019057600080fd5b8063348c2b1f146100ae578063556ede80146100d45780637a458d7a146100de5780639f9a3d9514610108578063aced166114610110575b600080fd5b6100c16100bc366004610ead565b610198565b6040519081526020015b60405180910390f35b6100c16201394381565b6100ef668075782dace9d960c71b81565b6040516001600160801b031990911681526020016100cb565b6100c1600581565b6101377f000000000000000000000000000000000000000000000000000000000000000081565b6040516001600160a01b0390911681526020016100cb565b6100c161015d366004610f8d565b610556565b6100c1610170366004610faf565b6105b8565b6100c1610183366004610f06565b61062d565b6100c1606481565b6100c1600d81565b6000336001600160a01b037f0000000000000000000000000000000000000000000000000000000000000000161461020f5760405162461bcd60e51b815260206004820152601560248201527436b9b39739b2b73232b9103737ba1035b2b2b832b960591b60448201526064015b60405180910390fd5b856001600160a01b0316638226f3966040518163ffffffff1660e01b815260040160206040518083038186803b15801561024857600080fd5b505afa15801561025c573d6000803e3d6000fd5b505050506040513d601f19601f820116820180604052508101906102809190610e90565b6001600160a01b031663a11752796040518163ffffffff1660e01b8152600401602060405180830381600087803b1580156102ba57600080fd5b505af19250505080156102ea575060408051601f3d908101601f191682019092526102e791810190610f74565b60015b610369576102f6611140565b806308c379a0141561035d575061030b61115c565b80610316575061035f565b866001600160a01b03167f8a47468bf96478429d382ed6385d9c77fba8b89540cd88199b1b51d5723b11fa8260405161034f9190610ffe565b60405180910390a25061036b565b505b3d6000803e3d6000fd5b505b6000866001600160a01b0316638226f3966040518163ffffffff1660e01b815260040160206040518083038186803b1580156103a657600080fd5b505afa1580156103ba573d6000803e3d6000fd5b505050506040513d601f19601f820116820180604052508101906103de9190610e90565b6001600160a01b03166398d5fdca6040518163ffffffff1660e01b815260040160206040518083038186803b15801561041657600080fd5b505afa15801561042a573d6000803e3d6000fd5b505050506040513d601f19601f8201168201806040525081019061044e9190610f74565b905060008112156104a15760405162461bcd60e51b815260206004820152601d60248201527f736574746c656d656e74207072696365206d757374206265203e3d20300000006044820152606401610206565b60006104b188888888888761062d565b604051636dc2b27160e01b81526001600160a01b038b811660048301526024820183905291925090891690636dc2b27190604401602060405180830381600087803b1580156104ff57600080fd5b505af1158015610513573d6000803e3d6000fd5b505050506040513d601f19601f820116820180604052508101906105379190610f52565b1561054557915061054c9050565b6000925050505b9695505050505050565b6000806105638385611053565b61056d90426110ac565b90506000600d61057e83600561108d565b610588919061106b565b610593906005611053565b905060648111156105a9576064925050506105b2565b91506105b29050565b92915050565b6000816105c757506000610626565b60006105d66201394385611053565b905060006105ec6105e7838861108d565b6107f3565b905060006105f9856107f3565b905061062061061b61060b8484610857565b668075782dace9d960c71b610ad4565b610d6a565b93505050505b9392505050565b60008061063b8787856105b8565b905060006106498686610556565b905060006064610659838561108d565b610663919061106b565b61066d9084611053565b905060008a6001600160a01b0316637b9e618d6040518163ffffffff1660e01b815260040160206040518083038186803b1580156106aa57600080fd5b505afa1580156106be573d6000803e3d6000fd5b505050506040513d601f19601f820116820180604052508101906106e29190610e90565b6001600160a01b031663313ce5676040518163ffffffff1660e01b815260040160206040518083038186803b15801561071a57600080fd5b505afa15801561072e573d6000803e3d6000fd5b505050506040513d601f19601f820116820180604052508101906107529190610fdb565b60405163bf36f0e960e01b81526004810184905260ff9190911660248201819052915073__$1c55304bb94fd620584ae538170217172c$__9063bf36f0e99060440160206040518083038186803b1580156107ac57600080fd5b505af41580156107c0573d6000803e3d6000fd5b505050506040513d601f19601f820116820180604052508101906107e49190610f74565b9b9a5050505050505050505050565b60008161080257506000919050565b81600061080e82610ded565b90506070811015610827578060700382901b915061083a565b607081111561083a576070810382901c91505b613fff0160701b6001600160701b03919091161760801b92915050565b6000617fff60f084811c8216919084901c8116908214156109075780617fff14156108d5576001600160801b031985811690851614156108a257505050600160ff1b811682186105b2565b600160ff1b6001600160801b03198686181614156108c5575050508181176105b2565b5061ffff60ef1b91506105b29050565b600160801b600160ff1b0384166108f6575061ffff60ef1b91506105b29050565b505050600160ff1b811682186105b2565b80617fff141561094357600160801b600160ff1b038516610932575061ffff60ef1b91506105b29050565b505050600160ff1b821681186105b2565b6001600160701b03608086901c168261095f5760019250610966565b600160701b175b6001600160701b03608086901c16826109825760019250610989565b600160701b175b90810290816109b757600160ff1b878718166109a65760006109ac565b600160ff1b5b9450505050506105b2565b928201926000600160e11b8310156109ea57600160e01b8310156109e3576109de83610ded565b6109ed565b60e06109ed565b60e15b90506140708186011015610a08576000945060009250610aa5565b6140e08186011015610a4b57614070851015610a2d57846140700383901c9250610a42565b614070851115610a4257614070850383901b92505b60009450610aa5565b61c0dd8186011115610a6557617fff945060009250610aa5565b6070811115610a7c576070810383901c9250610a8f565b6070811015610a8f578060700383901b92505b6001600160701b03831692506140df8186010394505b82607086901b888a186001607f1b60801b1660801c6001600160801b0316171760801b955050505050506105b2565b6000617fff60f084811c8216919084901c811690821415610b095780617fff14156108f6575061ffff60ef1b91506105b29050565b80617fff1415610b4d576dffffffffffffffffffffffffffff60801b841615610b3c575061ffff60ef1b91506105b29050565b505050808218600160ff1b166105b2565b600160801b600160ff1b038416610b9757600160801b600160ff1b038516610b7f575061ffff60ef1b91506105b29050565b505050808218600160ff1b16617fff60f01b176105b2565b6001600160701b03608085901c1681610bb35760019150610bba565b600160701b175b6001600160701b03608087901c1683610bf9578015610bf4576000610bde82610ded565b6001955060e20393840160711901939190911b90505b610c03565b600160701b1760721b5b818181610c1257610c1261112a565b04905080610c2e57600160ff1b878718166109a65760006109ac565b6001606c1b811015610c4257610c426110fe565b6000600160731b821015610c8157600160721b821015610c7657600160711b821015610c6f576070610c79565b6071610c79565b60725b60ff16610c8a565b610c8a82610ded565b905083614071018186011115610ca857617fff945060009150610d3b565b83818601613ffc011015610cc3576000945060009150610d3b565b83818601613f8c011015610d10578385613ffc011115610cee578385613ffc010382901b9150610d07565b8385613ffc011015610d0757613ffc8585030382901c91505b60009450610d3b565b6070811115610d23576070810382901c91505b6001600160701b038216915083818601613f8d010394505b81607086901b888a186001607f1b60801b1660801c6001600160801b0316171760801b955050505050506105b2565b6000617fff60f083901c16613fff811015610d885750600092915050565b6001607f1b608084901c10610d9c57600080fd5b6140fe811115610dab57600080fd5b600160701b6001600160701b03608085901c161761406f821015610dd55761406f8290031c610626565b61406f8211156106265761406e1982011b9392505050565b6000808211610dfb57600080fd5b6000600160801b8310610e1057608092831c92015b680100000000000000008310610e2857604092831c92015b6401000000008310610e3c57602092831c92015b620100008310610e4e57601092831c92015b6101008310610e5f57600892831c92015b60108310610e6f57600492831c92015b60048310610e7f57600292831c92015b600283106105b25760010192915050565b600060208284031215610ea257600080fd5b8151610626816111e6565b60008060008060008060c08789031215610ec657600080fd5b8635610ed1816111e6565b95506020870135610ee1816111e6565b95989597505050506040840135936060810135936080820135935060a0909101359150565b60008060008060008060c08789031215610f1f57600080fd5b8635610f2a816111e6565b9860208801359850604088013597606081013597506080810135965060a00135945092505050565b600060208284031215610f6457600080fd5b8151801515811461062657600080fd5b600060208284031215610f8657600080fd5b5051919050565b60008060408385031215610fa057600080fd5b50508035926020909101359150565b600080600060608486031215610fc457600080fd5b505081359360208301359350604090920135919050565b600060208284031215610fed57600080fd5b815160ff8116811461062657600080fd5b600060208083528351808285015260005b8181101561102b5785810183015185820160400152820161100f565b8181111561103d576000604083870101525b50601f01601f1916929092016040019392505050565b6000821982111561106657611066611114565b500190565b60008261108857634e487b7160e01b600052601260045260246000fd5b500490565b60008160001904831182151516156110a7576110a7611114565b500290565b6000828210156110be576110be611114565b500390565b601f8201601f1916810167ffffffffffffffff811182821017156110f757634e487b7160e01b600052604160045260246000fd5b6040525050565b634e487b7160e01b600052600160045260246000fd5b634e487b7160e01b600052601160045260246000fd5b634e487b7160e01b600052601260045260246000fd5b600060033d11156111595760046000803e5060005160e01c5b90565b600060443d101561116a5790565b6040516003193d81016004833e81513d67ffffffffffffffff816024840111818411171561119a57505050505090565b82850191508151818111156111b25750505050505090565b843d87010160208285010111156111cc5750505050505090565b6111db602082860101876110c3565b509095945050505050565b6001600160a01b03811681146111fb57600080fd5b5056fea2646970667358221220e3deacb343b3ad07d6fca0f0fc9d58098c03fc13e0044428c760142b7b41eb4f64736f6c63430008070033",
  "libraries": {
    "PoolSwapLibrary": "0x58639957c0E526fF4E4Bb1cBfBDFeFdeb16Af237"
  },
  "devdoc": {
    "kind": "dev",
    "methods": {
      "keeperGas(uint256,uint256,uint256)": {
        "details": "Adds a constant to `_gasSpent` when calculating actual gas usage",
        "params": {
          "_gasPrice": "Price of a single gas unit (in ETH (wei))",
          "_gasSpent": "Number of gas units spent"
        },
        "returns": {
          "_0": "Keeper's gas compensation"
        }
      },
      "keeperReward(address,uint256,uint256,uint256,uint256,uint256)": {
        "params": {
          "_gasPrice": "Price of a single gas unit (in ETH (wei))",
          "_gasSpent": "Number of gas units spent",
          "_poolInterval": "Pool interval of the given pool",
          "_savedPreviousUpdatedTimestamp": "Last timestamp when the pool's price execution happened"
        },
        "returns": {
          "_0": "Number of settlement tokens to give to the keeper for work performed"
        }
      },
      "keeperTip(uint256,uint256)": {
        "params": {
          "_poolInterval": "Pool interval of the given pool",
          "_savedPreviousUpdatedTimestamp": "Last timestamp when the pool's price execution happened"
        },
        "returns": {
          "_0": "Percent of the `keeperGas` cost to add to payment, as a percent"
        }
      },
      "payKeeper(address,address,uint256,uint256,uint256,uint256)": {
        "params": {
          "_gasPrice": "Price of a single gas unit (in ETH (wei))",
          "_gasSpent": "Number of gas units spent",
          "_keeper": "Address of the EOA upkeeping the pool. This is required since the function is called externally",
          "_pool": "Address of the given pool",
          "_savedPreviousUpdatedTimestamp": "Last timestamp when the pool's price execution happened",
          "_updateInterval": "Pool interval of the given pool"
        }
      }
    },
    "title": "The contract for calculating and executing keeper reward payments",
    "version": 1
  },
  "userdoc": {
    "events": {
      "PoolUpkeepError(address,string)": {
        "notice": "Creates a notification of a failed pool update"
      }
    },
    "kind": "user",
    "methods": {
      "FIXED_GAS_OVERHEAD()": {
        "notice": "Captures fixed gas overhead for performing upkeep that's unreachable by `gasleft()` due to our approach to error handling in that code"
      },
      "keeperGas(uint256,uint256,uint256)": {
        "notice": "Compensation a keeper will receive for their gas expenditure"
      },
      "keeperReward(address,uint256,uint256,uint256,uint256,uint256)": {
        "notice": "Payment keeper receives for performing upkeep on a given pool"
      },
      "keeperTip(uint256,uint256)": {
        "notice": "Tip a keeper will receive for successfully updating the specified pool"
      },
      "payKeeper(address,address,uint256,uint256,uint256,uint256)": {
        "notice": "Pay keeper for upkeep"
      }
    },
    "version": 1
  },
  "storageLayout": {
    "storage": [],
    "types": null
  }
}