{
  "address": "0x6B2936bA3eb7258604d607354a55750eD474Ce32",
  "abi": [
    {
      "inputs": [
        {
          "internalType": "address",
          "name": "_feeReceiver",
          "type": "address"
        }
      ],
      "stateMutability": "nonpayable",
      "type": "constructor"
    },
    {
      "anonymous": false,
      "inputs": [
        {
          "indexed": true,
          "internalType": "address",
          "name": "pool",
          "type": "address"
        },
        {
          "indexed": false,
          "internalType": "string",
          "name": "ticker",
          "type": "string"
        }
      ],
      "name": "DeployPool",
      "type": "event"
    },
    {
      "anonymous": false,
      "inputs": [
        {
          "indexed": true,
          "internalType": "address",
          "name": "previousOwner",
          "type": "address"
        },
        {
          "indexed": true,
          "internalType": "address",
          "name": "newOwner",
          "type": "address"
        }
      ],
      "name": "OwnershipTransferred",
      "type": "event"
    },
    {
      "inputs": [
        {
          "components": [
            {
              "internalType": "string",
              "name": "poolName",
              "type": "string"
            },
            {
              "internalType": "uint32",
              "name": "frontRunningInterval",
              "type": "uint32"
            },
            {
              "internalType": "uint32",
              "name": "updateInterval",
              "type": "uint32"
            },
            {
              "internalType": "uint16",
              "name": "leverageAmount",
              "type": "uint16"
            },
            {
              "internalType": "address",
              "name": "quoteToken",
              "type": "address"
            },
            {
              "internalType": "address",
              "name": "oracleWrapper",
              "type": "address"
            },
            {
              "internalType": "address",
              "name": "settlementEthOracle",
              "type": "address"
            },
            {
              "internalType": "uint128",
              "name": "minimumCommitSize",
              "type": "uint128"
            },
            {
              "internalType": "uint128",
              "name": "maximumCommitQueueLength",
              "type": "uint128"
            }
          ],
          "internalType": "struct IPoolFactory.PoolDeployment",
          "name": "deploymentParameters",
          "type": "tuple"
        }
      ],
      "name": "deployPool",
      "outputs": [
        {
          "internalType": "address",
          "name": "",
          "type": "address"
        }
      ],
      "stateMutability": "nonpayable",
      "type": "function"
    },
    {
      "inputs": [],
      "name": "fee",
      "outputs": [
        {
          "internalType": "bytes16",
          "name": "",
          "type": "bytes16"
        }
      ],
      "stateMutability": "view",
      "type": "function"
    },
    {
      "inputs": [],
      "name": "getOwner",
      "outputs": [
        {
          "internalType": "address",
          "name": "",
          "type": "address"
        }
      ],
      "stateMutability": "view",
      "type": "function"
    },
    {
      "inputs": [
        {
          "internalType": "address",
          "name": "",
          "type": "address"
        }
      ],
      "name": "isValidPool",
      "outputs": [
        {
          "internalType": "bool",
          "name": "",
          "type": "bool"
        }
      ],
      "stateMutability": "view",
      "type": "function"
    },
    {
      "inputs": [],
      "name": "maxLeverage",
      "outputs": [
        {
          "internalType": "uint16",
          "name": "",
          "type": "uint16"
        }
      ],
      "stateMutability": "view",
      "type": "function"
    },
    {
      "inputs": [],
      "name": "numPools",
      "outputs": [
        {
          "internalType": "uint256",
          "name": "",
          "type": "uint256"
        }
      ],
      "stateMutability": "view",
      "type": "function"
    },
    {
      "inputs": [],
      "name": "owner",
      "outputs": [
        {
          "internalType": "address",
          "name": "",
          "type": "address"
        }
      ],
      "stateMutability": "view",
      "type": "function"
    },
    {
      "inputs": [],
      "name": "pairTokenBase",
      "outputs": [
        {
          "internalType": "contract PoolToken",
          "name": "",
          "type": "address"
        }
      ],
      "stateMutability": "view",
      "type": "function"
    },
    {
      "inputs": [],
      "name": "poolBase",
      "outputs": [
        {
          "internalType": "contract LeveragedPool",
          "name": "",
          "type": "address"
        }
      ],
      "stateMutability": "view",
      "type": "function"
    },
    {
      "inputs": [],
      "name": "poolCommitterDeployer",
      "outputs": [
        {
          "internalType": "contract IPoolCommitterDeployer",
          "name": "",
          "type": "address"
        }
      ],
      "stateMutability": "view",
      "type": "function"
    },
    {
      "inputs": [],
      "name": "poolKeeper",
      "outputs": [
        {
          "internalType": "contract IPoolKeeper",
          "name": "",
          "type": "address"
        }
      ],
      "stateMutability": "view",
      "type": "function"
    },
    {
      "inputs": [
        {
          "internalType": "uint256",
          "name": "",
          "type": "uint256"
        }
      ],
      "name": "pools",
      "outputs": [
        {
          "internalType": "address",
          "name": "",
          "type": "address"
        }
      ],
      "stateMutability": "view",
      "type": "function"
    },
    {
      "inputs": [],
      "name": "renounceOwnership",
      "outputs": [],
      "stateMutability": "nonpayable",
      "type": "function"
    },
    {
      "inputs": [
        {
          "internalType": "bytes16",
          "name": "_fee",
          "type": "bytes16"
        }
      ],
      "name": "setFee",
      "outputs": [],
      "stateMutability": "nonpayable",
      "type": "function"
    },
    {
      "inputs": [
        {
          "internalType": "address",
          "name": "_feeReceiver",
          "type": "address"
        }
      ],
      "name": "setFeeReceiver",
      "outputs": [],
      "stateMutability": "nonpayable",
      "type": "function"
    },
    {
      "inputs": [
        {
          "internalType": "uint16",
          "name": "newMaxLeverage",
          "type": "uint16"
        }
      ],
      "name": "setMaxLeverage",
      "outputs": [],
      "stateMutability": "nonpayable",
      "type": "function"
    },
    {
      "inputs": [
        {
          "internalType": "address",
          "name": "_poolCommitterDeployer",
          "type": "address"
        }
      ],
      "name": "setPoolCommitterDeployer",
      "outputs": [],
      "stateMutability": "nonpayable",
      "type": "function"
    },
    {
      "inputs": [
        {
          "internalType": "address",
          "name": "_poolKeeper",
          "type": "address"
        }
      ],
      "name": "setPoolKeeper",
      "outputs": [],
      "stateMutability": "nonpayable",
      "type": "function"
    },
    {
      "inputs": [
        {
          "internalType": "address",
          "name": "newOwner",
          "type": "address"
        }
      ],
      "name": "transferOwnership",
      "outputs": [],
      "stateMutability": "nonpayable",
      "type": "function"
    }
  ],
  "transactionHash": "0x5879abe43aecb58407bc96e227ff4615fdc60766f2c72555697ce190bdd6fc31",
  "args": [
    "0xfb59B91646cd0890F3E5343384FEb746989B66C7"
  ],
  "solcInputHash": "3efc6345f10ff4dee709674b30f177e5",
  "bytecode": "0x6080604052600a600460146101000a81548161ffff021916908361ffff1602179055503480156200002f57600080fd5b506040516200a6833803806200a68383398181016040528101906200005591906200053e565b62000075620000696200043f60201b60201c565b6200044760201b60201c565b60405162000083906200050b565b604051809103906000f080158015620000a0573d6000803e3d6000fd5b50600160006101000a81548173ffffffffffffffffffffffffffffffffffffffff021916908373ffffffffffffffffffffffffffffffffffffffff160217905550604051620000ef9062000519565b604051809103906000f0801580156200010c573d6000803e3d6000fd5b50600260006101000a81548173ffffffffffffffffffffffffffffffffffffffff021916908373ffffffffffffffffffffffffffffffffffffffff1602179055506000604051806101c001604052803073ffffffffffffffffffffffffffffffffffffffff1681526020013073ffffffffffffffffffffffffffffffffffffffff1681526020013073ffffffffffffffffffffffffffffffffffffffff1681526020013073ffffffffffffffffffffffffffffffffffffffff1681526020013073ffffffffffffffffffffffffffffffffffffffff1681526020013073ffffffffffffffffffffffffffffffffffffffff1681526020013073ffffffffffffffffffffffffffffffffffffffff1681526020016040518060400160405280600981526020017f424153455f504f4f4c00000000000000000000000000000000000000000000008152508152602001600f63ffffffff168152602001601e63ffffffff168152602001600060801b6fffffffffffffffffffffffffffffffff19168152602001600161ffff1681526020013073ffffffffffffffffffffffffffffffffffffffff1681526020013073ffffffffffffffffffffffffffffffffffffffff168152509050600260009054906101000a900473ffffffffffffffffffffffffffffffffffffffff1673ffffffffffffffffffffffffffffffffffffffff1663fab0dd6a826040518263ffffffff1660e01b8152600401620003319190620007e5565b600060405180830381600087803b1580156200034c57600080fd5b505af115801562000361573d6000803e3d6000fd5b50505050600160009054906101000a900473ffffffffffffffffffffffffffffffffffffffff1673ffffffffffffffffffffffffffffffffffffffff166390657147306040518263ffffffff1660e01b8152600401620003c291906200079e565b600060405180830381600087803b158015620003dd57600080fd5b505af1158015620003f2573d6000803e3d6000fd5b5050505081600560006101000a81548173ffffffffffffffffffffffffffffffffffffffff021916908373ffffffffffffffffffffffffffffffffffffffff16021790555050506200096c565b600033905090565b60008060009054906101000a900473ffffffffffffffffffffffffffffffffffffffff169050816000806101000a81548173ffffffffffffffffffffffffffffffffffffffff021916908373ffffffffffffffffffffffffffffffffffffffff1602179055508173ffffffffffffffffffffffffffffffffffffffff168173ffffffffffffffffffffffffffffffffffffffff167f8be0079c531659141344cd1fd0a4f28419497f9722a3daafe3b4186f6b6457e060405160405180910390a35050565b61211a806200346d83390190565b6150fc806200558783390190565b600081519050620005388162000952565b92915050565b600060208284031215620005575762000556620008ea565b5b6000620005678482850162000527565b91505092915050565b6200057b8162000836565b82525050565b6200058c8162000836565b82525050565b6200059d816200084a565b82525050565b6000620005b08262000809565b620005bc818562000814565b9350620005ce818560208601620008b4565b620005d981620008ef565b840191505092915050565b6000620005f360048362000825565b9150620006008262000900565b602082019050919050565b60006200061a600a8362000825565b9150620006278262000929565b602082019050919050565b60006101c0830160008301516200064d600086018262000570565b50602083015162000662602086018262000570565b50604083015162000677604086018262000570565b5060608301516200068c606086018262000570565b506080830151620006a1608086018262000570565b5060a0830151620006b660a086018262000570565b5060c0830151620006cb60c086018262000570565b5060e083015184820360e0860152620006e58282620005a3565b915050610100830151620006fe6101008601826200078d565b50610120830151620007156101208601826200078d565b506101408301516200072c61014086018262000592565b50610160830151620007436101608601826200077c565b506101808301516200075a61018086018262000570565b506101a0830151620007716101a086018262000570565b508091505092915050565b620007878162000876565b82525050565b6200079881620008a4565b82525050565b6000606082019050620007b5600083018462000581565b8181036020830152620007c8816200060b565b90508181036040830152620007dd81620005e4565b905092915050565b6000602082019050818103600083015262000801818462000632565b905092915050565b600081519050919050565b600082825260208201905092915050565b600082825260208201905092915050565b6000620008438262000884565b9050919050565b60007fffffffffffffffffffffffffffffffff0000000000000000000000000000000082169050919050565b600061ffff82169050919050565b600073ffffffffffffffffffffffffffffffffffffffff82169050919050565b600063ffffffff82169050919050565b60005b83811015620008d4578082015181840152602081019050620008b7565b83811115620008e4576000848401525b50505050565b600080fd5b6000601f19601f8301169050919050565b7f4241534500000000000000000000000000000000000000000000000000000000600082015250565b7f424153455f544f4b454e00000000000000000000000000000000000000000000600082015250565b6200095d8162000836565b81146200096957600080fd5b50565b612af1806200097c6000396000f3fe608060405234801561001057600080fd5b50600436106101215760003560e01c8063715018a6116100ad578063ae3302c211610071578063ae3302c2146102e4578063d723c68b14610302578063ddca3f4314610320578063efdcd9741461033e578063f2fde38b1461035a57610121565b8063715018a61461025257806379b471cf1461025c578063893d20e8146102785780638da5cb5b14610296578063ac4afa38146102b457610121565b8063430ed6eb116100f4578063430ed6eb146101ae578063568212f6146101ca5780635ab78ee1146101e65780635bae377a1461021657806367e047561461023457610121565b80630679d36214610126578063178f9e351461014257806335c62bc21461016057806340339cbf1461017e575b600080fd5b610140600480360381019061013b9190611b0b565b610376565b005b61014a610412565b6040516101579190612171565b60405180910390f35b610168610438565b604051610175919061236c565b60405180910390f35b61019860048036038101906101939190611a95565b61043e565b6040516101a59190612097565b60405180910390f35b6101c860048036038101906101c39190611a0e565b610e95565b005b6101e460048036038101906101df9190611a0e565b610fc5565b005b61020060048036038101906101fb9190611a0e565b6110f5565b60405161020d9190612120565b60405180910390f35b61021e611115565b60405161022b919061218c565b60405180910390f35b61023c61113b565b6040516102499190612156565b60405180910390f35b61025a611161565b005b61027660048036038101906102719190611a68565b6111e9565b005b610280611292565b60405161028d9190612097565b60405180910390f35b61029e6112a1565b6040516102ab9190612097565b60405180910390f35b6102ce60048036038101906102c99190611b38565b6112ca565b6040516102db9190612097565b60405180910390f35b6102ec6112fd565b6040516102f99190612351565b60405180910390f35b61030a611311565b60405161031791906121a7565b60405180910390f35b610328611337565b604051610335919061213b565b60405180910390f35b61035860048036038101906103539190611a0e565b61134a565b005b610374600480360381019061036f9190611a0e565b61147a565b005b61037e611572565b73ffffffffffffffffffffffffffffffffffffffff1661039c6112a1565b73ffffffffffffffffffffffffffffffffffffffff16146103f2576040517f08c379a00000000000000000000000000000000000000000000000000000000081526004016103e990612246565b60405180910390fd5b80600460146101000a81548161ffff021916908361ffff16021790555050565b600360009054906101000a900473ffffffffffffffffffffffffffffffffffffffff1681565b60085481565b60006104486112a1565b73ffffffffffffffffffffffffffffffffffffffff163373ffffffffffffffffffffffffffffffffffffffff16146104b5576040517f08c379a00000000000000000000000000000000000000000000000000000000081526004016104ac906122e6565b60405180910390fd5b6000600360009054906101000a900473ffffffffffffffffffffffffffffffffffffffff169050600073ffffffffffffffffffffffffffffffffffffffff168173ffffffffffffffffffffffffffffffffffffffff16141561054c576040517f08c379a000000000000000000000000000000000000000000000000000000000815260040161054390612286565b60405180910390fd5b600073ffffffffffffffffffffffffffffffffffffffff16600460009054906101000a900473ffffffffffffffffffffffffffffffffffffffff1673ffffffffffffffffffffffffffffffffffffffff1614156105de576040517f08c379a00000000000000000000000000000000000000000000000000000000081526004016105d5906122a6565b60405180910390fd5b6000600460009054906101000a900473ffffffffffffffffffffffffffffffffffffffff1673ffffffffffffffffffffffffffffffffffffffff1663960419838560e00160208101906106319190611ade565b866101000160208101906106459190611ade565b6040518363ffffffff1660e01b8152600401610662929190612328565b602060405180830381600087803b15801561067c57600080fd5b505af1158015610690573d6000803e3d6000fd5b505050506040513d601f19601f820116820180604052508101906106b49190611a3b565b905060018460600160208101906106cb9190611b0b565b61ffff16101580156107075750600460149054906101000a900461ffff1661ffff168460600160208101906107009190611b0b565b61ffff1611155b610746576040517f08c379a000000000000000000000000000000000000000000000000000000000815260040161073d90612206565b60405180910390fd5b601284608001602081019061075b9190611a0e565b73ffffffffffffffffffffffffffffffffffffffff1663313ce5676040518163ffffffff1660e01b815260040160206040518083038186803b1580156107a057600080fd5b505afa1580156107b4573d6000803e3d6000fd5b505050506040513d601f19601f820116820180604052508101906107d89190611b92565b60ff16111561081c576040517f08c379a000000000000000000000000000000000000000000000000000000000815260040161081390612266565b60405180910390fd5b6000610849600260009054906101000a900473ffffffffffffffffffffffffffffffffffffffff1661157a565b905060008190508073ffffffffffffffffffffffffffffffffffffffff167fd76cdb035f3aba359cb02087e4c5bd75f911562b407fc3a52ed2bedfb46585b68780600001906108989190612387565b6040516108a69291906121c2565b60405180910390a26000610959826108d38960600160208101906108ca9190611b0b565b61ffff1661164f565b8980600001906108e39190612387565b6040516020016108f593929190612066565b6040516020818303038152906040526109238a606001602081019061091a9190611b0b565b61ffff1661164f565b8a80600001906109339190612387565b60405160200161094593929190612066565b6040516020818303038152906040526117d8565b90506000610a06836109808a60600160208101906109779190611b0b565b61ffff1661164f565b8a80600001906109909190612387565b6040516020016109a293929190612035565b6040516020818303038152906040526109d08b60600160208101906109c79190611b0b565b61ffff1661164f565b8b80600001906109e09190612387565b6040516020016109f293929190612035565b6040516020818303038152906040526117d8565b90506000604051806101c00160405280610a1e6112a1565b73ffffffffffffffffffffffffffffffffffffffff1681526020018873ffffffffffffffffffffffffffffffffffffffff1681526020018a60a0016020810190610a689190611a0e565b73ffffffffffffffffffffffffffffffffffffffff1681526020018a60c0016020810190610a969190611a0e565b73ffffffffffffffffffffffffffffffffffffffff1681526020018373ffffffffffffffffffffffffffffffffffffffff1681526020018473ffffffffffffffffffffffffffffffffffffffff1681526020018773ffffffffffffffffffffffffffffffffffffffff1681526020018a8060000190610b159190612387565b8080601f016020809104026020016040519081016040528093929190818152602001838380828437600081840152601f19601f8201169050808301925050505050505081526020018a6020016020810190610b709190611b65565b63ffffffff1681526020018a6040016020810190610b8e9190611b65565b63ffffffff168152602001600660009054906101000a900460801b6fffffffffffffffffffffffffffffffff191681526020018a6060016020810190610bd49190611b0b565b61ffff168152602001600560009054906101000a900473ffffffffffffffffffffffffffffffffffffffff1673ffffffffffffffffffffffffffffffffffffffff1681526020018a6080016020810190610c2e9190611a0e565b73ffffffffffffffffffffffffffffffffffffffff1681525090508573ffffffffffffffffffffffffffffffffffffffff1663fd555fb98a6080016020810190610c789190611a0e565b866040518363ffffffff1660e01b8152600401610c969291906120b2565b600060405180830381600087803b158015610cb057600080fd5b505af1158015610cc4573d6000803e3d6000fd5b505050508473ffffffffffffffffffffffffffffffffffffffff1663fab0dd6a826040518263ffffffff1660e01b8152600401610d019190612306565b600060405180830381600087803b158015610d1b57600080fd5b505af1158015610d2f573d6000803e3d6000fd5b50505050600360009054906101000a900473ffffffffffffffffffffffffffffffffffffffff1673ffffffffffffffffffffffffffffffffffffffff16633c5c7fb3856040518263ffffffff1660e01b8152600401610d8e9190612097565b600060405180830381600087803b158015610da857600080fd5b505af1158015610dbc573d6000803e3d6000fd5b505050508360076000600854815260200190815260200160002060006101000a81548173ffffffffffffffffffffffffffffffffffffffff021916908373ffffffffffffffffffffffffffffffffffffffff160217905550600160086000828254610e279190612422565b925050819055506001600960008673ffffffffffffffffffffffffffffffffffffffff1673ffffffffffffffffffffffffffffffffffffffff16815260200190815260200160002060006101000a81548160ff02191690831515021790555083975050505050505050919050565b610e9d611572565b73ffffffffffffffffffffffffffffffffffffffff16610ebb6112a1565b73ffffffffffffffffffffffffffffffffffffffff1614610f11576040517f08c379a0000000000000000000000000000000000000000000000000000000008152600401610f0890612246565b60405180910390fd5b600073ffffffffffffffffffffffffffffffffffffffff168173ffffffffffffffffffffffffffffffffffffffff161415610f81576040517f08c379a0000000000000000000000000000000000000000000000000000000008152600401610f78906122c6565b60405180910390fd5b80600360006101000a81548173ffffffffffffffffffffffffffffffffffffffff021916908373ffffffffffffffffffffffffffffffffffffffff16021790555050565b610fcd611572565b73ffffffffffffffffffffffffffffffffffffffff16610feb6112a1565b73ffffffffffffffffffffffffffffffffffffffff1614611041576040517f08c379a000000000000000000000000000000000000000000000000000000000815260040161103890612246565b60405180910390fd5b600073ffffffffffffffffffffffffffffffffffffffff168173ffffffffffffffffffffffffffffffffffffffff1614156110b1576040517f08c379a00000000000000000000000000000000000000000000000000000000081526004016110a8906122c6565b60405180910390fd5b80600460006101000a81548173ffffffffffffffffffffffffffffffffffffffff021916908373ffffffffffffffffffffffffffffffffffffffff16021790555050565b60096020528060005260406000206000915054906101000a900460ff1681565b600260009054906101000a900473ffffffffffffffffffffffffffffffffffffffff1681565b600460009054906101000a900473ffffffffffffffffffffffffffffffffffffffff1681565b611169611572565b73ffffffffffffffffffffffffffffffffffffffff166111876112a1565b73ffffffffffffffffffffffffffffffffffffffff16146111dd576040517f08c379a00000000000000000000000000000000000000000000000000000000081526004016111d490612246565b60405180910390fd5b6111e76000611882565b565b6111f1611572565b73ffffffffffffffffffffffffffffffffffffffff1661120f6112a1565b73ffffffffffffffffffffffffffffffffffffffff1614611265576040517f08c379a000000000000000000000000000000000000000000000000000000000815260040161125c90612246565b60405180910390fd5b80600660006101000a8154816fffffffffffffffffffffffffffffffff021916908360801c021790555050565b600061129c6112a1565b905090565b60008060009054906101000a900473ffffffffffffffffffffffffffffffffffffffff16905090565b60076020528060005260406000206000915054906101000a900473ffffffffffffffffffffffffffffffffffffffff1681565b600460149054906101000a900461ffff1681565b600160009054906101000a900473ffffffffffffffffffffffffffffffffffffffff1681565b600660009054906101000a900460801b81565b611352611572565b73ffffffffffffffffffffffffffffffffffffffff166113706112a1565b73ffffffffffffffffffffffffffffffffffffffff16146113c6576040517f08c379a00000000000000000000000000000000000000000000000000000000081526004016113bd90612246565b60405180910390fd5b600073ffffffffffffffffffffffffffffffffffffffff168173ffffffffffffffffffffffffffffffffffffffff161415611436576040517f08c379a000000000000000000000000000000000000000000000000000000000815260040161142d906122c6565b60405180910390fd5b80600560006101000a81548173ffffffffffffffffffffffffffffffffffffffff021916908373ffffffffffffffffffffffffffffffffffffffff16021790555050565b611482611572565b73ffffffffffffffffffffffffffffffffffffffff166114a06112a1565b73ffffffffffffffffffffffffffffffffffffffff16146114f6576040517f08c379a00000000000000000000000000000000000000000000000000000000081526004016114ed90612246565b60405180910390fd5b600073ffffffffffffffffffffffffffffffffffffffff168173ffffffffffffffffffffffffffffffffffffffff161415611566576040517f08c379a000000000000000000000000000000000000000000000000000000000815260040161155d906121e6565b60405180910390fd5b61156f81611882565b50565b600033905090565b60006040517f3d602d80600a3d3981f3363d3d373d3d3d363d7300000000000000000000000081528260601b60148201527f5af43d82803e903d91602b57fd5bf3000000000000000000000000000000000060288201526037816000f0915050600073ffffffffffffffffffffffffffffffffffffffff168173ffffffffffffffffffffffffffffffffffffffff16141561164a576040517f08c379a000000000000000000000000000000000000000000000000000000000815260040161164190612226565b60405180910390fd5b919050565b60606000821415611697576040518060400160405280600181526020017f300000000000000000000000000000000000000000000000000000000000000081525090506117d3565b600082905060005b600082146116c95780806116b2906126d7565b915050600a826116c291906124af565b915061169f565b60008167ffffffffffffffff8111156116e5576116e46127ad565b5b6040519080825280601f01601f1916602001820160405280156117175781602001600182028036833780820191505090505b50905060008290505b600086146117cb57600181611735919061253a565b90506000600a808861174791906124af565b61175191906124e0565b8761175c919061253a565b60306117689190612478565b905060008160f81b9050808484815181106117865761178561277e565b5b60200101907effffffffffffffffffffffffffffffffffffffffffffffffffffffffffffff1916908160001a905350600a886117c291906124af565b97505050611720565b819450505050505b919050565b600080611806600160009054906101000a900473ffffffffffffffffffffffffffffffffffffffff1661157a565b90508073ffffffffffffffffffffffffffffffffffffffff1663906571478686866040518463ffffffff1660e01b8152600401611845939291906120db565b600060405180830381600087803b15801561185f57600080fd5b505af1158015611873573d6000803e3d6000fd5b50505050809150509392505050565b60008060009054906101000a900473ffffffffffffffffffffffffffffffffffffffff169050816000806101000a81548173ffffffffffffffffffffffffffffffffffffffff021916908373ffffffffffffffffffffffffffffffffffffffff1602179055508173ffffffffffffffffffffffffffffffffffffffff168173ffffffffffffffffffffffffffffffffffffffff167f8be0079c531659141344cd1fd0a4f28419497f9722a3daafe3b4186f6b6457e060405160405180910390a35050565b60008135905061195581612a1a565b92915050565b60008151905061196a81612a1a565b92915050565b60008135905061197f81612a31565b92915050565b6000610120828403121561199c5761199b6127e1565b5b81905092915050565b6000813590506119b481612a48565b92915050565b6000813590506119c981612a5f565b92915050565b6000813590506119de81612a76565b92915050565b6000813590506119f381612a8d565b92915050565b600081519050611a0881612aa4565b92915050565b600060208284031215611a2457611a236127f5565b5b6000611a3284828501611946565b91505092915050565b600060208284031215611a5157611a506127f5565b5b6000611a5f8482850161195b565b91505092915050565b600060208284031215611a7e57611a7d6127f5565b5b6000611a8c84828501611970565b91505092915050565b600060208284031215611aab57611aaa6127f5565b5b600082013567ffffffffffffffff811115611ac957611ac86127f0565b5b611ad584828501611985565b91505092915050565b600060208284031215611af457611af36127f5565b5b6000611b02848285016119a5565b91505092915050565b600060208284031215611b2157611b206127f5565b5b6000611b2f848285016119ba565b91505092915050565b600060208284031215611b4e57611b4d6127f5565b5b6000611b5c848285016119cf565b91505092915050565b600060208284031215611b7b57611b7a6127f5565b5b6000611b89848285016119e4565b91505092915050565b600060208284031215611ba857611ba76127f5565b5b6000611bb6848285016119f9565b91505092915050565b611bc88161256e565b82525050565b611bd78161256e565b82525050565b611be681612580565b82525050565b611bf58161258c565b82525050565b611c048161258c565b82525050565b611c1381612629565b82525050565b611c228161263b565b82525050565b611c318161264d565b82525050565b611c408161265f565b82525050565b6000611c528385612406565b9350611c5f838584612695565b611c68836127fa565b840190509392505050565b6000611c7f8385612417565b9350611c8c838584612695565b82840190509392505050565b6000611ca3826123ea565b611cad81856123f5565b9350611cbd8185602086016126a4565b611cc6816127fa565b840191505092915050565b6000611cdc826123ea565b611ce68185612406565b9350611cf68185602086016126a4565b611cff816127fa565b840191505092915050565b6000611d15826123ea565b611d1f8185612417565b9350611d2f8185602086016126a4565b80840191505092915050565b6000611d48602683612406565b9150611d538261280b565b604082019050919050565b6000611d6b602483612406565b9150611d768261285a565b604082019050919050565b6000611d8e601683612406565b9150611d99826128a9565b602082019050919050565b6000611db1600283612417565b9150611dbc826128d2565b600282019050919050565b6000611dd4600283612417565b9150611ddf826128fb565b600282019050919050565b6000611df7602083612406565b9150611e0282612924565b602082019050919050565b6000611e1a601383612406565b9150611e258261294d565b602082019050919050565b6000611e3d601283612406565b9150611e4882612976565b602082019050919050565b6000611e60601d83612406565b9150611e6b8261299f565b602082019050919050565b6000611e83601683612406565b9150611e8e826129c8565b602082019050919050565b6000611ea6601983612406565b9150611eb1826129f1565b602082019050919050565b60006101c083016000830151611ed56000860182611bbf565b506020830151611ee86020860182611bbf565b506040830151611efb6040860182611bbf565b506060830151611f0e6060860182611bbf565b506080830151611f216080860182611bbf565b5060a0830151611f3460a0860182611bbf565b5060c0830151611f4760c0860182611bbf565b5060e083015184820360e0860152611f5f8282611c98565b915050610100830151611f76610100860182612026565b50610120830151611f8b610120860182612026565b50610140830151611fa0610140860182611bec565b50610160830151611fb5610160860182611ff9565b50610180830151611fca610180860182611bbf565b506101a0830151611fdf6101a0860182611bbf565b508091505092915050565b611ff3816125b8565b82525050565b612002816125d4565b82525050565b612011816125d4565b82525050565b61202081612602565b82525050565b61202f8161260c565b82525050565b60006120418286611d0a565b915061204c82611da4565b9150612059828486611c73565b9150819050949350505050565b60006120728286611d0a565b915061207d82611dc7565b915061208a828486611c73565b9150819050949350505050565b60006020820190506120ac6000830184611bce565b92915050565b60006040820190506120c76000830185611bce565b6120d46020830184611bce565b9392505050565b60006060820190506120f06000830186611bce565b81810360208301526121028185611cd1565b905081810360408301526121168184611cd1565b9050949350505050565b60006020820190506121356000830184611bdd565b92915050565b60006020820190506121506000830184611bfb565b92915050565b600060208201905061216b6000830184611c0a565b92915050565b60006020820190506121866000830184611c19565b92915050565b60006020820190506121a16000830184611c28565b92915050565b60006020820190506121bc6000830184611c37565b92915050565b600060208201905081810360008301526121dd818486611c46565b90509392505050565b600060208201905081810360008301526121ff81611d3b565b9050919050565b6000602082019050818103600083015261221f81611d5e565b9050919050565b6000602082019050818103600083015261223f81611d81565b9050919050565b6000602082019050818103600083015261225f81611dea565b9050919050565b6000602082019050818103600083015261227f81611e0d565b9050919050565b6000602082019050818103600083015261229f81611e30565b9050919050565b600060208201905081810360008301526122bf81611e53565b9050919050565b600060208201905081810360008301526122df81611e76565b9050919050565b600060208201905081810360008301526122ff81611e99565b9050919050565b600060208201905081810360008301526123208184611ebc565b905092915050565b600060408201905061233d6000830185611fea565b61234a6020830184611fea565b9392505050565b60006020820190506123666000830184612008565b92915050565b60006020820190506123816000830184612017565b92915050565b600080833560016020038436030381126123a4576123a36127e6565b5b80840192508235915067ffffffffffffffff8211156123c6576123c56127dc565b5b6020830192506001820236038313156123e2576123e16127eb565b5b509250929050565b600081519050919050565b600082825260208201905092915050565b600082825260208201905092915050565b600081905092915050565b600061242d82612602565b915061243883612602565b9250827fffffffffffffffffffffffffffffffffffffffffffffffffffffffffffffffff0382111561246d5761246c612720565b5b828201905092915050565b60006124838261261c565b915061248e8361261c565b92508260ff038211156124a4576124a3612720565b5b828201905092915050565b60006124ba82612602565b91506124c583612602565b9250826124d5576124d461274f565b5b828204905092915050565b60006124eb82612602565b91506124f683612602565b9250817fffffffffffffffffffffffffffffffffffffffffffffffffffffffffffffffff048311821515161561252f5761252e612720565b5b828202905092915050565b600061254582612602565b915061255083612602565b92508282101561256357612562612720565b5b828203905092915050565b6000612579826125e2565b9050919050565b60008115159050919050565b60007fffffffffffffffffffffffffffffffff0000000000000000000000000000000082169050919050565b60006fffffffffffffffffffffffffffffffff82169050919050565b600061ffff82169050919050565b600073ffffffffffffffffffffffffffffffffffffffff82169050919050565b6000819050919050565b600063ffffffff82169050919050565b600060ff82169050919050565b600061263482612671565b9050919050565b600061264682612671565b9050919050565b600061265882612671565b9050919050565b600061266a82612671565b9050919050565b600061267c82612683565b9050919050565b600061268e826125e2565b9050919050565b82818337600083830152505050565b60005b838110156126c25780820151818401526020810190506126a7565b838111156126d1576000848401525b50505050565b60006126e282612602565b91507fffffffffffffffffffffffffffffffffffffffffffffffffffffffffffffffff82141561271557612714612720565b5b600182019050919050565b7f4e487b7100000000000000000000000000000000000000000000000000000000600052601160045260246000fd5b7f4e487b7100000000000000000000000000000000000000000000000000000000600052601260045260246000fd5b7f4e487b7100000000000000000000000000000000000000000000000000000000600052603260045260246000fd5b7f4e487b7100000000000000000000000000000000000000000000000000000000600052604160045260246000fd5b600080fd5b600080fd5b600080fd5b600080fd5b600080fd5b600080fd5b6000601f19601f8301169050919050565b7f4f776e61626c653a206e6577206f776e657220697320746865207a65726f206160008201527f6464726573730000000000000000000000000000000000000000000000000000602082015250565b7f506f6f6c4b65657065723a206c657665726167656420616d6f756e7420696e7660008201527f616c696400000000000000000000000000000000000000000000000000000000602082015250565b7f455243313136373a20637265617465206661696c656400000000000000000000600082015250565b7f4c2d000000000000000000000000000000000000000000000000000000000000600082015250565b7f532d000000000000000000000000000000000000000000000000000000000000600082015250565b7f4f776e61626c653a2063616c6c6572206973206e6f7420746865206f776e6572600082015250565b7f546f6b656e20646563696d616c73203e20313800000000000000000000000000600082015250565b7f506f6f6c4b6565706572206e6f74207365740000000000000000000000000000600082015250565b7f506f6f6c436f6d6d69747465724465706c6f796572206e6f7420736574000000600082015250565b7f616464726573732063616e6e6f74206265206e756c6c00000000000000000000600082015250565b7f6d73672e73656e646572206e6f7420676f7665726e616e636500000000000000600082015250565b612a238161256e565b8114612a2e57600080fd5b50565b612a3a8161258c565b8114612a4557600080fd5b50565b612a51816125b8565b8114612a5c57600080fd5b50565b612a68816125d4565b8114612a7357600080fd5b50565b612a7f81612602565b8114612a8a57600080fd5b50565b612a968161260c565b8114612aa157600080fd5b50565b612aad8161261c565b8114612ab857600080fd5b5056fea264697066735822122096f1278286e7c24f9c00062507c5b5025e29fedbf8c6bd815e15f2ff71b23abe64736f6c6343000807003360806040523480156200001157600080fd5b506040518060400160405280600a81526020017f424153455f544f4b454e000000000000000000000000000000000000000000008152506040518060400160405280600481526020017f4241534500000000000000000000000000000000000000000000000000000000815250816004908051906020019062000096929190620000d4565b508060059080519060200190620000af929190620000d4565b506008600660006101000a81548160ff021916908360ff1602179055505050620001e9565b828054620000e29062000184565b90600052602060002090601f01602090048101928262000106576000855562000152565b82601f106200012157805160ff191683800117855562000152565b8280016001018555821562000152579182015b828111156200015157825182559160200191906001019062000134565b5b50905062000161919062000165565b5090565b5b808211156200018057600081600090555060010162000166565b5090565b600060028204905060018216806200019d57607f821691505b60208210811415620001b457620001b3620001ba565b5b50919050565b7f4e487b7100000000000000000000000000000000000000000000000000000000600052602260045260246000fd5b611f2180620001f96000396000f3fe608060405234801561001057600080fd5b50600436106101005760003560e01c80639065714711610097578063a9059cbb11610066578063a9059cbb146102d7578063dd62ed3e14610307578063f2fde38b14610337578063fcd3533c1461035357610100565b8063906571471461023d57806394bf804d1461025957806395d89b4114610289578063a457c2d7146102a757610100565b8063313ce567116100d3578063313ce567146101a157806339509351146101bf57806370a08231146101ef5780638da5cb5b1461021f57610100565b806306fdde0314610105578063095ea7b31461012357806318160ddd1461015357806323b872dd14610171575b600080fd5b61010d610383565b60405161011a9190611848565b60405180910390f35b61013d600480360381019061013891906115e2565b610415565b60405161014a919061182d565b60405180910390f35b61015b610433565b604051610168919061198a565b60405180910390f35b61018b60048036038101906101869190611504565b61043d565b604051610198919061182d565b60405180910390f35b6101a96104f5565b6040516101b691906119a5565b60405180910390f35b6101d960048036038101906101d491906115e2565b61050c565b6040516101e6919061182d565b60405180910390f35b61020960048036038101906102049190611497565b6105b8565b604051610216919061198a565b60405180910390f35b610227610601565b6040516102349190611812565b60405180910390f35b61025760048036038101906102529190611557565b610627565b005b610273600480360381019061026e9190611622565b61078e565b604051610280919061182d565b60405180910390f35b610291610834565b60405161029e9190611848565b60405180910390f35b6102c160048036038101906102bc91906115e2565b6108c6565b6040516102ce919061182d565b60405180910390f35b6102f160048036038101906102ec91906115e2565b610972565b6040516102fe919061182d565b60405180910390f35b610321600480360381019061031c91906114c4565b610990565b60405161032e919061198a565b60405180910390f35b610351600480360381019061034c9190611497565b610a17565b005b61036d60048036038101906103689190611622565b610b5b565b60405161037a919061182d565b60405180910390f35b60606004805461039290611b53565b80601f01602080910402602001604051908101604052809291908181526020018280546103be90611b53565b801561040b5780601f106103e05761010080835404028352916020019161040b565b820191906000526020600020905b8154815290600101906020018083116103ee57829003601f168201915b5050505050905090565b6000610429610422610c01565b8484610c09565b6001905092915050565b6000600354905090565b600061044a848484610dd4565b6104ea84610456610c01565b84600260008973ffffffffffffffffffffffffffffffffffffffff1673ffffffffffffffffffffffffffffffffffffffff16815260200190815260200160002060006104a0610c01565b73ffffffffffffffffffffffffffffffffffffffff1673ffffffffffffffffffffffffffffffffffffffff168152602001908152602001600020546104e59190611a88565b610c09565b600190509392505050565b6000600660009054906101000a900460ff16905090565b60006105ae610519610c01565b848460026000610527610c01565b73ffffffffffffffffffffffffffffffffffffffff1673ffffffffffffffffffffffffffffffffffffffff16815260200190815260200160002060008873ffffffffffffffffffffffffffffffffffffffff1673ffffffffffffffffffffffffffffffffffffffff168152602001908152602001600020546105a99190611a32565b610c09565b6001905092915050565b6000600160008373ffffffffffffffffffffffffffffffffffffffff1673ffffffffffffffffffffffffffffffffffffffff168152602001908152602001600020549050919050565b600660019054906101000a900473ffffffffffffffffffffffffffffffffffffffff1681565b600060019054906101000a900460ff168061064d575060008054906101000a900460ff16155b61068c576040517f08c379a0000000000000000000000000000000000000000000000000000000008152600401610683906118ca565b60405180910390fd5b60008060019054906101000a900460ff1615905080156106dc576001600060016101000a81548160ff02191690831515021790555060016000806101000a81548160ff0219169083151502179055505b83600660016101000a81548173ffffffffffffffffffffffffffffffffffffffff021916908373ffffffffffffffffffffffffffffffffffffffff160217905550826004908051906020019061073392919061135a565b50816005908051906020019061074a92919061135a565b506012600660006101000a81548160ff021916908360ff16021790555080156107885760008060016101000a81548160ff0219169083151502179055505b50505050565b6000600660019054906101000a900473ffffffffffffffffffffffffffffffffffffffff1673ffffffffffffffffffffffffffffffffffffffff163373ffffffffffffffffffffffffffffffffffffffff1614610820576040517f08c379a0000000000000000000000000000000000000000000000000000000008152600401610817906118ea565b60405180910390fd5b61082a8284611045565b6001905092915050565b60606005805461084390611b53565b80601f016020809104026020016040519081016040528092919081815260200182805461086f90611b53565b80156108bc5780601f10610891576101008083540402835291602001916108bc565b820191906000526020600020905b81548152906001019060200180831161089f57829003601f168201915b5050505050905090565b60006109686108d3610c01565b8484600260006108e1610c01565b73ffffffffffffffffffffffffffffffffffffffff1673ffffffffffffffffffffffffffffffffffffffff16815260200190815260200160002060008873ffffffffffffffffffffffffffffffffffffffff1673ffffffffffffffffffffffffffffffffffffffff168152602001908152602001600020546109639190611a88565b610c09565b6001905092915050565b600061098661097f610c01565b8484610dd4565b6001905092915050565b6000600260008473ffffffffffffffffffffffffffffffffffffffff1673ffffffffffffffffffffffffffffffffffffffff16815260200190815260200160002060008373ffffffffffffffffffffffffffffffffffffffff1673ffffffffffffffffffffffffffffffffffffffff16815260200190815260200160002054905092915050565b600660019054906101000a900473ffffffffffffffffffffffffffffffffffffffff1673ffffffffffffffffffffffffffffffffffffffff163373ffffffffffffffffffffffffffffffffffffffff1614610aa7576040517f08c379a0000000000000000000000000000000000000000000000000000000008152600401610a9e906118ea565b60405180910390fd5b600073ffffffffffffffffffffffffffffffffffffffff168173ffffffffffffffffffffffffffffffffffffffff161415610b17576040517f08c379a0000000000000000000000000000000000000000000000000000000008152600401610b0e9061188a565b60405180910390fd5b80600660016101000a81548173ffffffffffffffffffffffffffffffffffffffff021916908373ffffffffffffffffffffffffffffffffffffffff16021790555050565b6000600660019054906101000a900473ffffffffffffffffffffffffffffffffffffffff1673ffffffffffffffffffffffffffffffffffffffff163373ffffffffffffffffffffffffffffffffffffffff1614610bed576040517f08c379a0000000000000000000000000000000000000000000000000000000008152600401610be4906118ea565b60405180910390fd5b610bf782846111cd565b6001905092915050565b600033905090565b600073ffffffffffffffffffffffffffffffffffffffff168373ffffffffffffffffffffffffffffffffffffffff161415610c79576040517f08c379a0000000000000000000000000000000000000000000000000000000008152600401610c709061194a565b60405180910390fd5b600073ffffffffffffffffffffffffffffffffffffffff168273ffffffffffffffffffffffffffffffffffffffff161415610ce9576040517f08c379a0000000000000000000000000000000000000000000000000000000008152600401610ce0906118aa565b60405180910390fd5b80600260008573ffffffffffffffffffffffffffffffffffffffff1673ffffffffffffffffffffffffffffffffffffffff16815260200190815260200160002060008473ffffffffffffffffffffffffffffffffffffffff1673ffffffffffffffffffffffffffffffffffffffff168152602001908152602001600020819055508173ffffffffffffffffffffffffffffffffffffffff168373ffffffffffffffffffffffffffffffffffffffff167f8c5be1e5ebec7d5bd14f71427d1e84f3dd0314c0f7b2291e5b200ac8c7c3b92583604051610dc7919061198a565b60405180910390a3505050565b600073ffffffffffffffffffffffffffffffffffffffff168373ffffffffffffffffffffffffffffffffffffffff161415610e44576040517f08c379a0000000000000000000000000000000000000000000000000000000008152600401610e3b9061192a565b60405180910390fd5b600073ffffffffffffffffffffffffffffffffffffffff168273ffffffffffffffffffffffffffffffffffffffff161415610eb4576040517f08c379a0000000000000000000000000000000000000000000000000000000008152600401610eab9061186a565b60405180910390fd5b610ebf838383611355565b80600160008573ffffffffffffffffffffffffffffffffffffffff1673ffffffffffffffffffffffffffffffffffffffff16815260200190815260200160002054610f0a9190611a88565b600160008573ffffffffffffffffffffffffffffffffffffffff1673ffffffffffffffffffffffffffffffffffffffff1681526020019081526020016000208190555080600160008473ffffffffffffffffffffffffffffffffffffffff1673ffffffffffffffffffffffffffffffffffffffff16815260200190815260200160002054610f989190611a32565b600160008473ffffffffffffffffffffffffffffffffffffffff1673ffffffffffffffffffffffffffffffffffffffff168152602001908152602001600020819055508173ffffffffffffffffffffffffffffffffffffffff168373ffffffffffffffffffffffffffffffffffffffff167fddf252ad1be2c89b69c2b068fc378daa952ba7f163c4a11628f55a4df523b3ef83604051611038919061198a565b60405180910390a3505050565b600073ffffffffffffffffffffffffffffffffffffffff168273ffffffffffffffffffffffffffffffffffffffff1614156110b5576040517f08c379a00000000000000000000000000000000000000000000000000000000081526004016110ac9061196a565b60405180910390fd5b6110c160008383611355565b806003546110cf9190611a32565b60038190555080600160008473ffffffffffffffffffffffffffffffffffffffff1673ffffffffffffffffffffffffffffffffffffffff168152602001908152602001600020546111209190611a32565b600160008473ffffffffffffffffffffffffffffffffffffffff1673ffffffffffffffffffffffffffffffffffffffff168152602001908152602001600020819055508173ffffffffffffffffffffffffffffffffffffffff16600073ffffffffffffffffffffffffffffffffffffffff167fddf252ad1be2c89b69c2b068fc378daa952ba7f163c4a11628f55a4df523b3ef836040516111c1919061198a565b60405180910390a35050565b600073ffffffffffffffffffffffffffffffffffffffff168273ffffffffffffffffffffffffffffffffffffffff16141561123d576040517f08c379a00000000000000000000000000000000000000000000000000000000081526004016112349061190a565b60405180910390fd5b61124982600083611355565b80600160008473ffffffffffffffffffffffffffffffffffffffff1673ffffffffffffffffffffffffffffffffffffffff168152602001908152602001600020546112949190611a88565b600160008473ffffffffffffffffffffffffffffffffffffffff1673ffffffffffffffffffffffffffffffffffffffff16815260200190815260200160002081905550806003546112e59190611a88565b600381905550600073ffffffffffffffffffffffffffffffffffffffff168273ffffffffffffffffffffffffffffffffffffffff167fddf252ad1be2c89b69c2b068fc378daa952ba7f163c4a11628f55a4df523b3ef83604051611349919061198a565b60405180910390a35050565b505050565b82805461136690611b53565b90600052602060002090601f01602090048101928261138857600085556113cf565b82601f106113a157805160ff19168380011785556113cf565b828001600101855582156113cf579182015b828111156113ce5782518255916020019190600101906113b3565b5b5090506113dc91906113e0565b5090565b5b808211156113f95760008160009055506001016113e1565b5090565b600061141061140b846119e5565b6119c0565b90508281526020810184848401111561142c5761142b611c48565b5b611437848285611b11565b509392505050565b60008135905061144e81611ebd565b92915050565b600082601f83011261146957611468611c43565b5b81356114798482602086016113fd565b91505092915050565b60008135905061149181611ed4565b92915050565b6000602082840312156114ad576114ac611c52565b5b60006114bb8482850161143f565b91505092915050565b600080604083850312156114db576114da611c52565b5b60006114e98582860161143f565b92505060206114fa8582860161143f565b9150509250929050565b60008060006060848603121561151d5761151c611c52565b5b600061152b8682870161143f565b935050602061153c8682870161143f565b925050604061154d86828701611482565b9150509250925092565b6000806000606084860312156115705761156f611c52565b5b600061157e8682870161143f565b935050602084013567ffffffffffffffff81111561159f5761159e611c4d565b5b6115ab86828701611454565b925050604084013567ffffffffffffffff8111156115cc576115cb611c4d565b5b6115d886828701611454565b9150509250925092565b600080604083850312156115f9576115f8611c52565b5b60006116078582860161143f565b925050602061161885828601611482565b9150509250929050565b6000806040838503121561163957611638611c52565b5b600061164785828601611482565b92505060206116588582860161143f565b9150509250929050565b61166b81611abc565b82525050565b61167a81611ace565b82525050565b600061168b82611a16565b6116958185611a21565b93506116a5818560208601611b20565b6116ae81611c57565b840191505092915050565b60006116c6602383611a21565b91506116d182611c68565b604082019050919050565b60006116e9601b83611a21565b91506116f482611cb7565b602082019050919050565b600061170c602283611a21565b915061171782611ce0565b604082019050919050565b600061172f602e83611a21565b915061173a82611d2f565b604082019050919050565b6000611752601483611a21565b915061175d82611d7e565b602082019050919050565b6000611775602183611a21565b915061178082611da7565b604082019050919050565b6000611798602583611a21565b91506117a382611df6565b604082019050919050565b60006117bb602483611a21565b91506117c682611e45565b604082019050919050565b60006117de601f83611a21565b91506117e982611e94565b602082019050919050565b6117fd81611afa565b82525050565b61180c81611b04565b82525050565b60006020820190506118276000830184611662565b92915050565b60006020820190506118426000830184611671565b92915050565b600060208201905081810360008301526118628184611680565b905092915050565b60006020820190508181036000830152611883816116b9565b9050919050565b600060208201905081810360008301526118a3816116dc565b9050919050565b600060208201905081810360008301526118c3816116ff565b9050919050565b600060208201905081810360008301526118e381611722565b9050919050565b6000602082019050818103600083015261190381611745565b9050919050565b6000602082019050818103600083015261192381611768565b9050919050565b600060208201905081810360008301526119438161178b565b9050919050565b60006020820190508181036000830152611963816117ae565b9050919050565b60006020820190508181036000830152611983816117d1565b9050919050565b600060208201905061199f60008301846117f4565b92915050565b60006020820190506119ba6000830184611803565b92915050565b60006119ca6119db565b90506119d68282611b85565b919050565b6000604051905090565b600067ffffffffffffffff821115611a00576119ff611c14565b5b611a0982611c57565b9050602081019050919050565b600081519050919050565b600082825260208201905092915050565b6000611a3d82611afa565b9150611a4883611afa565b9250827fffffffffffffffffffffffffffffffffffffffffffffffffffffffffffffffff03821115611a7d57611a7c611bb6565b5b828201905092915050565b6000611a9382611afa565b9150611a9e83611afa565b925082821015611ab157611ab0611bb6565b5b828203905092915050565b6000611ac782611ada565b9050919050565b60008115159050919050565b600073ffffffffffffffffffffffffffffffffffffffff82169050919050565b6000819050919050565b600060ff82169050919050565b82818337600083830152505050565b60005b83811015611b3e578082015181840152602081019050611b23565b83811115611b4d576000848401525b50505050565b60006002820490506001821680611b6b57607f821691505b60208210811415611b7f57611b7e611be5565b5b50919050565b611b8e82611c57565b810181811067ffffffffffffffff82111715611bad57611bac611c14565b5b80604052505050565b7f4e487b7100000000000000000000000000000000000000000000000000000000600052601160045260246000fd5b7f4e487b7100000000000000000000000000000000000000000000000000000000600052602260045260246000fd5b7f4e487b7100000000000000000000000000000000000000000000000000000000600052604160045260246000fd5b600080fd5b600080fd5b600080fd5b600080fd5b6000601f19601f8301169050919050565b7f45524332303a207472616e7366657220746f20746865207a65726f206164647260008201527f6573730000000000000000000000000000000000000000000000000000000000602082015250565b7f4f776e65723a2073657474696e6720746f203020616464726573730000000000600082015250565b7f45524332303a20617070726f766520746f20746865207a65726f20616464726560008201527f7373000000000000000000000000000000000000000000000000000000000000602082015250565b7f496e697469616c697a61626c653a20636f6e747261637420697320616c72656160008201527f647920696e697469616c697a6564000000000000000000000000000000000000602082015250565b7f6d73672e73656e646572206e6f74206f776e6572000000000000000000000000600082015250565b7f45524332303a206275726e2066726f6d20746865207a65726f2061646472657360008201527f7300000000000000000000000000000000000000000000000000000000000000602082015250565b7f45524332303a207472616e736665722066726f6d20746865207a65726f20616460008201527f6472657373000000000000000000000000000000000000000000000000000000602082015250565b7f45524332303a20617070726f76652066726f6d20746865207a65726f2061646460008201527f7265737300000000000000000000000000000000000000000000000000000000602082015250565b7f45524332303a206d696e7420746f20746865207a65726f206164647265737300600082015250565b611ec681611abc565b8114611ed157600080fd5b50565b611edd81611afa565b8114611ee857600080fd5b5056fea26469706673582212200eceaca4dbff91e1a2a09c146d5a4afc3d730c2b694682da82fe760005c8fc6964736f6c63430008070033608060405234801561001057600080fd5b506150dc806100206000396000f3fe608060405234801561001057600080fd5b50600436106102065760003560e01c80637de93f931161011a578063ba8d5468116100ad578063ddca3f431161007c578063ddca3f4314610549578063f3466dfa14610567578063f633a74014610585578063fab0dd6a146105a1578063fd2c80ae146105bd57610206565b8063ba8d5468146104d5578063bbcaac38146104f3578063cd39f30f1461050f578063d38bfff41461052d57610206565b806387f9ca5d116100e957806387f9ca5d1461045f578063ab47c2b31461047b578063aced166114610499578063b9ed8abf146104b757610206565b80637de93f93146103fb5780637e71fc7d146104195780638226f396146104375780638456cb591461045557610206565b80635c975abb1161019d57806375c66e2f1161016c57806375c66e2f14610369578063796da7af146103855780637b0a0c90146103a35780637bbf1033146103bf5780637bfe789a146103dd57610206565b80635c975abb146102e15780636d3e313e146102ff5780636dc2b2711461031d578063748747e61461034d57610206565b806341275358116101d957806341275358146102595780634f64b2be146102775780635817f0c6146102a75780635aa6e675146102c357610206565b8063217a4b701461020b5780633c3f8252146102295780633d4c485d146102455780633f4ba83a1461024f575b600080fd5b6102136105db565b604051610220919061401f565b60405180910390f35b610243600480360381019061023e9190613811565b610601565b005b61024d6106f3565b005b6102576108d7565b005b6102616109b0565b60405161026e919061401f565b60405180910390f35b610291600480360381019061028c91906137b7565b6109d6565b60405161029e919061401f565b60405180910390f35b6102c160048036038101906102bc91906135e0565b610a0c565b005b6102cb610bad565b6040516102d8919061401f565b60405180910390f35b6102e9610bd3565b6040516102f691906140e7565b60405180910390f35b610307610be6565b60405161031491906140cc565b60405180910390f35b610337600480360381019061033291906135e0565b610c67565b60405161034491906140e7565b60405180910390f35b61036760048036038101906103629190613560565b610e6f565b005b610383600480360381019061037e9190613891565b6110a7565b005b61038d61134b565b60405161039a9190614146565b60405180910390f35b6103bd60048036038101906103b8919061358d565b6113f2565b005b6103c7611606565b6040516103d491906140e7565b60405180910390f35b6103e5611636565b6040516103f29190614634565b60405180910390f35b61040361164c565b60405161041091906145b9565b60405180910390f35b610421611652565b60405161042e91906145b9565b60405180910390f35b61043f611658565b60405161044c919061401f565b60405180910390f35b61045d61167e565b005b61047960048036038101906104749190613891565b611757565b005b6104836119fb565b6040516104909190614102565b60405180910390f35b6104a1611a0e565b6040516104ae919061401f565b60405180910390f35b6104bf611a34565b6040516104cc919061401f565b60405180910390f35b6104dd611a5a565b6040516104ea91906145b9565b60405180910390f35b61050d60048036038101906105089190613560565b611a60565b005b610517611c98565b604051610524919061401f565b60405180910390f35b61054760048036038101906105429190613560565b611cbe565b005b610551611ef6565b60405161055e9190614102565b60405180910390f35b61056f611f09565b60405161057c9190614161565b60405180910390f35b61059f600480360381019061059a91906136d4565b611f97565b005b6105bb60048036038101906105b69190613741565b61218a565b005b6105c5612dd8565b6040516105d29190614634565b60405180910390f35b600a60009054906101000a900473ffffffffffffffffffffffffffffffffffffffff1681565b600b60009054906101000a900473ffffffffffffffffffffffffffffffffffffffff1673ffffffffffffffffffffffffffffffffffffffff163373ffffffffffffffffffffffffffffffffffffffff1614610691576040517f08c379a000000000000000000000000000000000000000000000000000000000815260040161068890614403565b60405180910390fd5b600f60149054906101000a900460ff16156106e1576040517f08c379a00000000000000000000000000000000000000000000000000000000081526004016106d890614263565b60405180910390fd5b81600281905550806001819055505050565b600760009054906101000a900473ffffffffffffffffffffffffffffffffffffffff1673ffffffffffffffffffffffffffffffffffffffff163373ffffffffffffffffffffffffffffffffffffffff1614610783576040517f08c379a000000000000000000000000000000000000000000000000000000000815260040161077a90614523565b60405180910390fd5b600f60149054906101000a900460ff166107d2576040517f08c379a00000000000000000000000000000000000000000000000000000000081526004016107c9906141e3565b60405180910390fd5b6000600a60009054906101000a900473ffffffffffffffffffffffffffffffffffffffff16905060008173ffffffffffffffffffffffffffffffffffffffff166370a08231306040518263ffffffff1660e01b8152600401610834919061401f565b60206040518083038186803b15801561084c57600080fd5b505afa158015610860573d6000803e3d6000fd5b505050506040513d601f19601f8201168201806040525081019061088491906137e4565b90506108d33382600a60009054906101000a900473ffffffffffffffffffffffffffffffffffffffff1673ffffffffffffffffffffffffffffffffffffffff16612dee9092919063ffffffff16565b5050565b600760009054906101000a900473ffffffffffffffffffffffffffffffffffffffff1673ffffffffffffffffffffffffffffffffffffffff163373ffffffffffffffffffffffffffffffffffffffff1614610967576040517f08c379a000000000000000000000000000000000000000000000000000000000815260040161095e90614523565b60405180910390fd5b6000600f60146101000a81548160ff0219169083151502179055507fa45f47fdea8a1efdd9029a5691c7f759c32b7c698632b563573e155625d1693360405160405180910390a1565b600960009054906101000a900473ffffffffffffffffffffffffffffffffffffffff1681565b600581600281106109e657600080fd5b016000915054906101000a900473ffffffffffffffffffffffffffffffffffffffff1681565b600b60009054906101000a900473ffffffffffffffffffffffffffffffffffffffff1673ffffffffffffffffffffffffffffffffffffffff163373ffffffffffffffffffffffffffffffffffffffff1614610a9c576040517f08c379a0000000000000000000000000000000000000000000000000000000008152600401610a9390614403565b60405180910390fd5b600f60149054906101000a900460ff1615610aec576040517f08c379a0000000000000000000000000000000000000000000000000000000008152600401610ae390614263565b60405180910390fd5b600073ffffffffffffffffffffffffffffffffffffffff168273ffffffffffffffffffffffffffffffffffffffff161415610b5c576040517f08c379a0000000000000000000000000000000000000000000000000000000008152600401610b5390614563565b60405180910390fd5b610ba98282600a60009054906101000a900473ffffffffffffffffffffffffffffffffffffffff1673ffffffffffffffffffffffffffffffffffffffff16612dee9092919063ffffffff16565b5050565b600760009054906101000a900473ffffffffffffffffffffffffffffffffffffffff1681565b600f60149054906101000a900460ff1681565b610bee613394565b6005600280602002604051908101604052809291908260028015610c5d576020028201915b8160009054906101000a900473ffffffffffffffffffffffffffffffffffffffff1673ffffffffffffffffffffffffffffffffffffffff1681526020019060010190808311610c13575b5050505050905090565b6000600860009054906101000a900473ffffffffffffffffffffffffffffffffffffffff1673ffffffffffffffffffffffffffffffffffffffff163373ffffffffffffffffffffffffffffffffffffffff1614610cf9576040517f08c379a0000000000000000000000000000000000000000000000000000000008152600401610cf0906142e3565b60405180910390fd5b600f60149054906101000a900460ff1615610d49576040517f08c379a0000000000000000000000000000000000000000000000000000000008152600401610d4090614263565b60405180910390fd5b60006001549050600060025490508082610d639190614711565b8410610d7457600092505050610e69565b600080733FE070eC913099fcBd96c18524F873D7c3F95F4863dc35bc138786866040518463ffffffff1660e01b8152600401610db2939291906145fd565b604080518083038186803b158015610dc957600080fd5b505af4158015610ddd573d6000803e3d6000fd5b505050506040513d601f19601f82011682018060405250810190610e019190613851565b915091508160018190555080600281905550610e608787600a60009054906101000a900473ffffffffffffffffffffffffffffffffffffffff1673ffffffffffffffffffffffffffffffffffffffff16612dee9092919063ffffffff16565b60019450505050505b92915050565b600760009054906101000a900473ffffffffffffffffffffffffffffffffffffffff1673ffffffffffffffffffffffffffffffffffffffff163373ffffffffffffffffffffffffffffffffffffffff1614610eff576040517f08c379a0000000000000000000000000000000000000000000000000000000008152600401610ef690614523565b60405180910390fd5b600f60149054906101000a900460ff1615610f4f576040517f08c379a0000000000000000000000000000000000000000000000000000000008152600401610f4690614263565b60405180910390fd5b600073ffffffffffffffffffffffffffffffffffffffff168173ffffffffffffffffffffffffffffffffffffffff161415610fbf576040517f08c379a0000000000000000000000000000000000000000000000000000000008152600401610fb690614423565b60405180910390fd5b6000600860009054906101000a900473ffffffffffffffffffffffffffffffffffffffff16905081600860006101000a81548173ffffffffffffffffffffffffffffffffffffffff021916908373ffffffffffffffffffffffffffffffffffffffff160217905550600860009054906101000a900473ffffffffffffffffffffffffffffffffffffffff1673ffffffffffffffffffffffffffffffffffffffff168173ffffffffffffffffffffffffffffffffffffffff167f402b3f9a8de3e388e7653c7a5892204fe18b579c8c23db19d6e00f1043ceb92160405160405180910390a35050565b600b60009054906101000a900473ffffffffffffffffffffffffffffffffffffffff1673ffffffffffffffffffffffffffffffffffffffff163373ffffffffffffffffffffffffffffffffffffffff1614611137576040517f08c379a000000000000000000000000000000000000000000000000000000000815260040161112e90614403565b60405180910390fd5b600f60149054906101000a900460ff1615611187576040517f08c379a000000000000000000000000000000000000000000000000000000000815260040161117e90614263565b60405180910390fd5b600073ffffffffffffffffffffffffffffffffffffffff168173ffffffffffffffffffffffffffffffffffffffff1614156111f7576040517f08c379a00000000000000000000000000000000000000000000000000000000081526004016111ee906143c3565b60405180910390fd5b60008314806112065750600183145b611245576040517f08c379a000000000000000000000000000000000000000000000000000000000815260040161123c906142a3565b60405180910390fd5b60058360028110611259576112586148f4565b5b0160009054906101000a900473ffffffffffffffffffffffffffffffffffffffff1673ffffffffffffffffffffffffffffffffffffffff166394bf804d83836040518363ffffffff1660e01b81526004016112b59291906145d4565b602060405180830381600087803b1580156112cf57600080fd5b505af11580156112e3573d6000803e3d6000fd5b505050506040513d601f19601f820116820180604052508101906113079190613620565b611346576040517f08c379a000000000000000000000000000000000000000000000000000000000815260040161133d906141c3565b60405180910390fd5b505050565b6000600e60009054906101000a900473ffffffffffffffffffffffffffffffffffffffff1673ffffffffffffffffffffffffffffffffffffffff166398d5fdca6040518163ffffffff1660e01b815260040160206040518083038186803b1580156113b557600080fd5b505afa1580156113c9573d6000803e3d6000fd5b505050506040513d601f19601f820116820180604052508101906113ed91906136a7565b905090565b600b60009054906101000a900473ffffffffffffffffffffffffffffffffffffffff1673ffffffffffffffffffffffffffffffffffffffff163373ffffffffffffffffffffffffffffffffffffffff1614611482576040517f08c379a000000000000000000000000000000000000000000000000000000000815260040161147990614403565b60405180910390fd5b600f60149054906101000a900460ff16156114d2576040517f08c379a00000000000000000000000000000000000000000000000000000000081526004016114c990614263565b60405180910390fd5b600073ffffffffffffffffffffffffffffffffffffffff168373ffffffffffffffffffffffffffffffffffffffff161415611542576040517f08c379a000000000000000000000000000000000000000000000000000000000815260040161153990614243565b60405180910390fd5b600073ffffffffffffffffffffffffffffffffffffffff168273ffffffffffffffffffffffffffffffffffffffff1614156115b2576040517f08c379a00000000000000000000000000000000000000000000000000000000081526004016115a990614563565b60405180910390fd5b611601838383600a60009054906101000a900473ffffffffffffffffffffffffffffffffffffffff1673ffffffffffffffffffffffffffffffffffffffff16612e74909392919063ffffffff16565b505050565b6000600360049054906101000a900463ffffffff1663ffffffff16600c5461162e9190614711565b421015905090565b600360009054906101000a900463ffffffff1681565b600c5481565b60025481565b600f60009054906101000a900473ffffffffffffffffffffffffffffffffffffffff1681565b600760009054906101000a900473ffffffffffffffffffffffffffffffffffffffff1673ffffffffffffffffffffffffffffffffffffffff163373ffffffffffffffffffffffffffffffffffffffff161461170e576040517f08c379a000000000000000000000000000000000000000000000000000000000815260040161170590614523565b60405180910390fd5b6001600f60146101000a81548160ff0219169083151502179055507f9e87fac88ff661f02d44f95383c817fece4bce600a3dab7a54406878b965e75260405160405180910390a1565b600b60009054906101000a900473ffffffffffffffffffffffffffffffffffffffff1673ffffffffffffffffffffffffffffffffffffffff163373ffffffffffffffffffffffffffffffffffffffff16146117e7576040517f08c379a00000000000000000000000000000000000000000000000000000000081526004016117de90614403565b60405180910390fd5b600f60149054906101000a900460ff1615611837576040517f08c379a000000000000000000000000000000000000000000000000000000000815260040161182e90614263565b60405180910390fd5b600073ffffffffffffffffffffffffffffffffffffffff168173ffffffffffffffffffffffffffffffffffffffff1614156118a7576040517f08c379a000000000000000000000000000000000000000000000000000000000815260040161189e906141a3565b60405180910390fd5b60008314806118b65750600183145b6118f5576040517f08c379a00000000000000000000000000000000000000000000000000000000081526004016118ec906142a3565b60405180910390fd5b60058360028110611909576119086148f4565b5b0160009054906101000a900473ffffffffffffffffffffffffffffffffffffffff1673ffffffffffffffffffffffffffffffffffffffff1663fcd3533c83836040518363ffffffff1660e01b81526004016119659291906145d4565b602060405180830381600087803b15801561197f57600080fd5b505af1158015611993573d6000803e3d6000fd5b505050506040513d601f19601f820116820180604052508101906119b79190613620565b6119f6576040517f08c379a00000000000000000000000000000000000000000000000000000000081526004016119ed90614283565b60405180910390fd5b505050565b600460009054906101000a900460801b81565b600860009054906101000a900473ffffffffffffffffffffffffffffffffffffffff1681565b600e60009054906101000a900473ffffffffffffffffffffffffffffffffffffffff1681565b60015481565b600760009054906101000a900473ffffffffffffffffffffffffffffffffffffffff1673ffffffffffffffffffffffffffffffffffffffff163373ffffffffffffffffffffffffffffffffffffffff1614611af0576040517f08c379a0000000000000000000000000000000000000000000000000000000008152600401611ae790614523565b60405180910390fd5b600f60149054906101000a900460ff1615611b40576040517f08c379a0000000000000000000000000000000000000000000000000000000008152600401611b3790614263565b60405180910390fd5b600073ffffffffffffffffffffffffffffffffffffffff168173ffffffffffffffffffffffffffffffffffffffff161415611bb0576040517f08c379a0000000000000000000000000000000000000000000000000000000008152600401611ba790614203565b60405180910390fd5b6000600960009054906101000a900473ffffffffffffffffffffffffffffffffffffffff16905081600960006101000a81548173ffffffffffffffffffffffffffffffffffffffff021916908373ffffffffffffffffffffffffffffffffffffffff160217905550600960009054906101000a900473ffffffffffffffffffffffffffffffffffffffff1673ffffffffffffffffffffffffffffffffffffffff168173ffffffffffffffffffffffffffffffffffffffff167f11f35a22548bcd4c3788ab4a7e4fba427a2014f02e5d5e2da9af62212c03183f60405160405180910390a35050565b600b60009054906101000a900473ffffffffffffffffffffffffffffffffffffffff1681565b600760009054906101000a900473ffffffffffffffffffffffffffffffffffffffff1673ffffffffffffffffffffffffffffffffffffffff163373ffffffffffffffffffffffffffffffffffffffff1614611d4e576040517f08c379a0000000000000000000000000000000000000000000000000000000008152600401611d4590614523565b60405180910390fd5b600f60149054906101000a900460ff1615611d9e576040517f08c379a0000000000000000000000000000000000000000000000000000000008152600401611d9590614263565b60405180910390fd5b600073ffffffffffffffffffffffffffffffffffffffff168173ffffffffffffffffffffffffffffffffffffffff161415611e0e576040517f08c379a0000000000000000000000000000000000000000000000000000000008152600401611e0590614183565b60405180910390fd5b6000600760009054906101000a900473ffffffffffffffffffffffffffffffffffffffff16905081600760006101000a81548173ffffffffffffffffffffffffffffffffffffffff021916908373ffffffffffffffffffffffffffffffffffffffff160217905550600760009054906101000a900473ffffffffffffffffffffffffffffffffffffffff1673ffffffffffffffffffffffffffffffffffffffff168173ffffffffffffffffffffffffffffffffffffffff167f023588d3d1dcaad34e471c9e01b616b794156174bc693539c8fe15c0bfd5d82660405160405180910390a35050565b600360089054906101000a900460801b81565b600d8054611f1690614864565b80601f0160208091040260200160405190810160405280929190818152602001828054611f4290614864565b8015611f8f5780601f10611f6457610100808354040283529160200191611f8f565b820191906000526020600020905b815481529060010190602001808311611f7257829003601f168201915b505050505081565b600860009054906101000a900473ffffffffffffffffffffffffffffffffffffffff1673ffffffffffffffffffffffffffffffffffffffff163373ffffffffffffffffffffffffffffffffffffffff1614612027576040517f08c379a000000000000000000000000000000000000000000000000000000000815260040161201e90614363565b60405180910390fd5b600f60149054906101000a900460ff1615612077576040517f08c379a000000000000000000000000000000000000000000000000000000000815260040161206e90614263565b60405180910390fd5b61207f611606565b6120be576040517f08c379a00000000000000000000000000000000000000000000000000000000081526004016120b5906142c3565b60405180910390fd5b4264ffffffffff16600c819055506120d68282612efd565b600b60009054906101000a900473ffffffffffffffffffffffffffffffffffffffff1673ffffffffffffffffffffffffffffffffffffffff16631c536da46040518163ffffffff1660e01b8152600401600060405180830381600087803b15801561214057600080fd5b505af1158015612154573d6000803e3d6000fd5b5050505080827fff8740b55453301923810a0c8f4b6b2da72577fdc5e874f77bebaadcfa2775e260405160405180910390a35050565b600060019054906101000a900460ff16806121b0575060008054906101000a900460ff16155b6121ef576040517f08c379a00000000000000000000000000000000000000000000000000000000081526004016121e690614303565b60405180910390fd5b60008060019054906101000a900460ff16159050801561223f576001600060016101000a81548160ff02191690831515021790555060016000806101000a81548160ff0219169083151502179055505b600073ffffffffffffffffffffffffffffffffffffffff168261018001602081019061226b9190613560565b73ffffffffffffffffffffffffffffffffffffffff1614156122c2576040517f08c379a00000000000000000000000000000000000000000000000000000000081526004016122b9906144c3565b60405180910390fd5b600073ffffffffffffffffffffffffffffffffffffffff16826101a00160208101906122ee9190613560565b73ffffffffffffffffffffffffffffffffffffffff161415612345576040517f08c379a000000000000000000000000000000000000000000000000000000000815260040161233c90614383565b60405180910390fd5b600073ffffffffffffffffffffffffffffffffffffffff168260400160208101906123709190613560565b73ffffffffffffffffffffffffffffffffffffffff1614156123c7576040517f08c379a00000000000000000000000000000000000000000000000000000000081526004016123be90614323565b60405180910390fd5b600073ffffffffffffffffffffffffffffffffffffffff168260600160208101906123f29190613560565b73ffffffffffffffffffffffffffffffffffffffff161415612449576040517f08c379a000000000000000000000000000000000000000000000000000000000815260040161244090614443565b60405180910390fd5b600073ffffffffffffffffffffffffffffffffffffffff168260000160208101906124749190613560565b73ffffffffffffffffffffffffffffffffffffffff1614156124cb576040517f08c379a00000000000000000000000000000000000000000000000000000000081526004016124c290614343565b60405180910390fd5b600073ffffffffffffffffffffffffffffffffffffffff168260200160208101906124f69190613560565b73ffffffffffffffffffffffffffffffffffffffff16141561254d576040517f08c379a0000000000000000000000000000000000000000000000000000000008152600401612544906143e3565b60405180910390fd5b600073ffffffffffffffffffffffffffffffffffffffff168260800160208101906125789190613560565b73ffffffffffffffffffffffffffffffffffffffff1614156125cf576040517f08c379a00000000000000000000000000000000000000000000000000000000081526004016125c690614483565b60405180910390fd5b600073ffffffffffffffffffffffffffffffffffffffff168260a00160208101906125fa9190613560565b73ffffffffffffffffffffffffffffffffffffffff161415612651576040517f08c379a0000000000000000000000000000000000000000000000000000000008152600401612648906144e3565b60405180910390fd5b600073ffffffffffffffffffffffffffffffffffffffff168260c001602081019061267c9190613560565b73ffffffffffffffffffffffffffffffffffffffff1614156126d3576040517f08c379a00000000000000000000000000000000000000000000000000000000081526004016126ca906143a3565b60405180910390fd5b816101200160208101906126e79190613937565b63ffffffff16826101000160208101906127019190613937565b63ffffffff1610612747576040517f08c379a000000000000000000000000000000000000000000000000000000000815260040161273e90614543565b60405180910390fd5b7fffffffffffffffffffffffffffffffffffffffffffffffffffffffffffffffff733FE070eC913099fcBd96c18524F873D7c3F95F48631842c9d884610140016020810190612796919061364d565b6f3fff000000000000000000000000000060801b6040518363ffffffff1660e01b81526004016127c792919061411d565b60206040518083038186803b1580156127df57600080fd5b505af41580156127f3573d6000803e3d6000fd5b505050506040513d601f19601f820116820180604052508101906128179190613714565b60000b1461285a576040517f08c379a0000000000000000000000000000000000000000000000000000000008152600401612851906144a3565b60405180910390fd5b81600001602081019061286d9190613560565b600760006101000a81548173ffffffffffffffffffffffffffffffffffffffff021916908373ffffffffffffffffffffffffffffffffffffffff1602179055508160200160208101906128c09190613560565b600860006101000a81548173ffffffffffffffffffffffffffffffffffffffff021916908373ffffffffffffffffffffffffffffffffffffffff1602179055508160400160208101906129139190613560565b600e60006101000a81548173ffffffffffffffffffffffffffffffffffffffff021916908373ffffffffffffffffffffffffffffffffffffffff1602179055508160600160208101906129669190613560565b600f60006101000a81548173ffffffffffffffffffffffffffffffffffffffff021916908373ffffffffffffffffffffffffffffffffffffffff160217905550816101a00160208101906129ba9190613560565b600a60006101000a81548173ffffffffffffffffffffffffffffffffffffffff021916908373ffffffffffffffffffffffffffffffffffffffff16021790555081610100016020810190612a0e9190613937565b600360006101000a81548163ffffffff021916908363ffffffff16021790555081610120016020810190612a429190613937565b600360046101000a81548163ffffffff021916908363ffffffff16021790555081610140016020810190612a76919061364d565b600360086101000a8154816fffffffffffffffffffffffffffffffff021916908360801c0217905550733FE070eC913099fcBd96c18524F873D7c3F95F4863dfdbe4da83610160016020810190612acd919061378a565b6040518263ffffffff1660e01b8152600401612ae9919061459e565b60206040518083038186803b158015612b0157600080fd5b505af4158015612b15573d6000803e3d6000fd5b505050506040513d601f19601f82011682018060405250810190612b39919061367a565b600460006101000a8154816fffffffffffffffffffffffffffffffff021916908360801c021790555081610180016020810190612b769190613560565b600960006101000a81548173ffffffffffffffffffffffffffffffffffffffff021916908373ffffffffffffffffffffffffffffffffffffffff1602179055504264ffffffffff16600c81905550818060e00190612bd4919061464f565b600d9190612be39291906133b6565b50816080016020810190612bf79190613560565b6005600060028110612c0c57612c0b6148f4565b5b0160006101000a81548173ffffffffffffffffffffffffffffffffffffffff021916908373ffffffffffffffffffffffffffffffffffffffff1602179055508160a0016020810190612c5e9190613560565b6005600160028110612c7357612c726148f4565b5b0160006101000a81548173ffffffffffffffffffffffffffffffffffffffff021916908373ffffffffffffffffffffffffffffffffffffffff1602179055508160c0016020810190612cc59190613560565b600b60006101000a81548173ffffffffffffffffffffffffffffffffffffffff021916908373ffffffffffffffffffffffffffffffffffffffff1602179055508160a0016020810190612d189190613560565b73ffffffffffffffffffffffffffffffffffffffff16826080016020810190612d419190613560565b73ffffffffffffffffffffffffffffffffffffffff167fbc8bd61e5dd69ff5cb8c389529c029503515ba368eaafbdaa406e072fdd36072846101a0016020810190612d8c9190613560565b858060e00190612d9c919061464f565b604051612dab93929190614071565b60405180910390a38015612dd45760008060016101000a81548160ff0219169083151502179055505b5050565b600360049054906101000a900463ffffffff1681565b612e6f8363a9059cbb60e01b8484604051602401612e0d9291906140a3565b604051602081830303815290604052907bffffffffffffffffffffffffffffffffffffffffffffffffffffffff19166020820180517bffffffffffffffffffffffffffffffffffffffffffffffffffffffff8381831617835250505050613127565b505050565b612ef7846323b872dd60e01b858585604051602401612e959392919061403a565b604051602081830303815290604052907bffffffffffffffffffffffffffffffffffffffffffffffffffffffff19166020820180517bffffffffffffffffffffffffffffffffffffffffffffffffffffffff8381831617835250505050613127565b50505050565b600f60149054906101000a900460ff1615612f4d576040517f08c379a0000000000000000000000000000000000000000000000000000000008152600401612f4490614263565b60405180910390fd5b600082131580612f5e575060008113155b15612f965780827f27f70c863f1bd3e335bb4d6bf2a31075c861752f0b21a03b816a356035b1dec660405160405180910390a3613123565b60006040518060c0016040528084815260200183815260200160025481526020016001548152602001600460009054906101000a900460801b6fffffffffffffffffffffffffffffffff19168152602001600360089054906101000a900460801b6fffffffffffffffffffffffffffffffff191681525090506000806000733FE070eC913099fcBd96c18524F873D7c3F95F4863a481c1b4856040518263ffffffff1660e01b815260040161304b9190614583565b60606040518083038186803b15801561306357600080fd5b505af4158015613077573d6000803e3d6000fd5b505050506040513d601f19601f8201168201806040525081019061309b91906138e4565b925092509250826002819055508160018190555061311e600960009054906101000a900473ffffffffffffffffffffffffffffffffffffffff1682600a60009054906101000a900473ffffffffffffffffffffffffffffffffffffffff1673ffffffffffffffffffffffffffffffffffffffff16612dee9092919063ffffffff16565b505050505b5050565b6000613189826040518060400160405280602081526020017f5361666545524332303a206c6f772d6c6576656c2063616c6c206661696c65648152508573ffffffffffffffffffffffffffffffffffffffff166131ee9092919063ffffffff16565b90506000815111156131e957808060200190518101906131a99190613620565b6131e8576040517f08c379a00000000000000000000000000000000000000000000000000000000081526004016131df90614503565b60405180910390fd5b5b505050565b60606131fd8484600085613206565b90509392505050565b60608247101561324b576040517f08c379a000000000000000000000000000000000000000000000000000000000815260040161324290614223565b60405180910390fd5b6132548561331a565b613293576040517f08c379a000000000000000000000000000000000000000000000000000000000815260040161328a90614463565b60405180910390fd5b6000808673ffffffffffffffffffffffffffffffffffffffff1685876040516132bc9190614008565b60006040518083038185875af1925050503d80600081146132f9576040519150601f19603f3d011682016040523d82523d6000602084013e6132fe565b606091505b509150915061330e82828661332d565b92505050949350505050565b600080823b905060008111915050919050565b6060831561333d5782905061338d565b6000835111156133505782518084602001fd5b816040517f08c379a00000000000000000000000000000000000000000000000000000000081526004016133849190614161565b60405180910390fd5b9392505050565b6040518060400160405280600290602082028036833780820191505090505090565b8280546133c290614864565b90600052602060002090601f0160209004810192826133e4576000855561342b565b82601f106133fd57803560ff191683800117855561342b565b8280016001018555821561342b579182015b8281111561342a57823582559160200191906001019061340f565b5b509050613438919061343c565b5090565b5b8082111561345557600081600090555060010161343d565b5090565b60008135905061346881614fee565b92915050565b60008151905061347d81615005565b92915050565b6000813590506134928161501c565b92915050565b6000815190506134a78161501c565b92915050565b6000813590506134bc81615033565b92915050565b6000815190506134d181615033565b92915050565b6000815190506134e68161504a565b92915050565b60006101c0828403121561350357613502614928565b5b81905092915050565b60008135905061351b81615061565b92915050565b60008135905061353081615078565b92915050565b60008151905061354581615078565b92915050565b60008135905061355a8161508f565b92915050565b6000602082840312156135765761357561493c565b5b600061358484828501613459565b91505092915050565b6000806000606084860312156135a6576135a561493c565b5b60006135b486828701613459565b93505060206135c586828701613459565b92505060406135d686828701613521565b9150509250925092565b600080604083850312156135f7576135f661493c565b5b600061360585828601613459565b925050602061361685828601613521565b9150509250929050565b6000602082840312156136365761363561493c565b5b60006136448482850161346e565b91505092915050565b6000602082840312156136635761366261493c565b5b600061367184828501613483565b91505092915050565b6000602082840312156136905761368f61493c565b5b600061369e84828501613498565b91505092915050565b6000602082840312156136bd576136bc61493c565b5b60006136cb848285016134c2565b91505092915050565b600080604083850312156136eb576136ea61493c565b5b60006136f9858286016134ad565b925050602061370a858286016134ad565b9150509250929050565b60006020828403121561372a5761372961493c565b5b6000613738848285016134d7565b91505092915050565b6000602082840312156137575761375661493c565b5b600082013567ffffffffffffffff81111561377557613774614937565b5b613781848285016134ec565b91505092915050565b6000602082840312156137a05761379f61493c565b5b60006137ae8482850161350c565b91505092915050565b6000602082840312156137cd576137cc61493c565b5b60006137db84828501613521565b91505092915050565b6000602082840312156137fa576137f961493c565b5b600061380884828501613536565b91505092915050565b600080604083850312156138285761382761493c565b5b600061383685828601613521565b925050602061384785828601613521565b9150509250929050565b600080604083850312156138685761386761493c565b5b600061387685828601613536565b925050602061388785828601613536565b9150509250929050565b6000806000606084860312156138aa576138a961493c565b5b60006138b886828701613521565b93505060206138c986828701613521565b92505060406138da86828701613459565b9150509250925092565b6000806000606084860312156138fd576138fc61493c565b5b600061390b86828701613536565b935050602061391c86828701613536565b925050604061392d86828701613536565b9150509250925092565b60006020828403121561394d5761394c61493c565b5b600061395b8482850161354b565b91505092915050565b6000613970838361397c565b60208301905092915050565b61398581614767565b82525050565b61399481614767565b82525050565b6139a3816146bc565b6139ad81846146ea565b92506139b8826146b2565b8060005b838110156139e95781516139d08782613964565b96506139db836146dd565b9250506001810190506139bc565b505050505050565b6139fa81614779565b82525050565b613a0981614785565b82525050565b613a1881614785565b82525050565b613a2781614785565b82525050565b6000613a38826146c7565b613a4281856146f5565b9350613a52818560208601614831565b80840191505092915050565b613a67816147b1565b82525050565b613a76816147b1565b82525050565b6000613a888385614700565b9350613a95838584614822565b613a9e83614941565b840190509392505050565b6000613ab4826146d2565b613abe8185614700565b9350613ace818560208601614831565b613ad781614941565b840191505092915050565b6000613aef602683614700565b9150613afa82614952565b604082019050919050565b6000613b12602283614700565b9150613b1d826149a1565b604082019050919050565b6000613b35600b83614700565b9150613b40826149f0565b602082019050919050565b6000613b58600c83614700565b9150613b6382614a19565b602082019050919050565b6000613b7b601b83614700565b9150613b8682614a42565b602082019050919050565b6000613b9e602683614700565b9150613ba982614a6b565b604082019050919050565b6000613bc1602083614700565b9150613bcc82614aba565b602082019050919050565b6000613be4600e83614700565b9150613bef82614ae3565b602082019050919050565b6000613c07600b83614700565b9150613c1282614b0c565b602082019050919050565b6000613c2a601883614700565b9150613c3582614b35565b602082019050919050565b6000613c4d601d83614700565b9150613c5882614b5e565b602082019050919050565b6000613c70601183614700565b9150613c7b82614b87565b602082019050919050565b6000613c93602e83614700565b9150613c9e82614bb0565b604082019050919050565b6000613cb6602283614700565b9150613cc182614bff565b604082019050919050565b6000613cd9601983614700565b9150613ce482614c4e565b602082019050919050565b6000613cfc601583614700565b9150613d0782614c77565b602082019050919050565b6000613d1f601f83614700565b9150613d2a82614ca0565b602082019050919050565b6000613d42602183614700565b9150613d4d82614cc9565b604082019050919050565b6000613d65602283614700565b9150613d7082614d18565b604082019050919050565b6000613d88601a83614700565b9150613d9382614d67565b602082019050919050565b6000613dab601c83614700565b9150613db682614d90565b602082019050919050565b6000613dce602283614700565b9150613dd982614db9565b604082019050919050565b6000613df1602183614700565b9150613dfc82614e08565b604082019050919050565b6000613e14601d83614700565b9150613e1f82614e57565b602082019050919050565b6000613e37601e83614700565b9150613e4282614e80565b602082019050919050565b6000613e5a601883614700565b9150613e6582614ea9565b602082019050919050565b6000613e7d601f83614700565b9150613e8882614ed2565b602082019050919050565b6000613ea0601f83614700565b9150613eab82614efb565b602082019050919050565b6000613ec3602a83614700565b9150613ece82614f24565b604082019050919050565b6000613ee6601983614700565b9150613ef182614f73565b602082019050919050565b6000613f09601d83614700565b9150613f1482614f9c565b602082019050919050565b6000613f2c601e83614700565b9150613f3782614fc5565b602082019050919050565b60c082016000820151613f586000850182613a6d565b506020820151613f6b6020850182613a6d565b506040820151613f7e6040850182613fea565b506060820151613f916060850182613fea565b506080820151613fa46080850182613a1e565b5060a0820151613fb760a0850182613a1e565b50505050565b613fc681614810565b82525050565b613fd5816147f6565b82525050565b613fe4816147f6565b82525050565b613ff3816147f6565b82525050565b61400281614800565b82525050565b60006140148284613a2d565b915081905092915050565b6000602082019050614034600083018461398b565b92915050565b600060608201905061404f600083018661398b565b61405c602083018561398b565b6140696040830184613fcc565b949350505050565b6000604082019050614086600083018661398b565b8181036020830152614099818486613a7c565b9050949350505050565b60006040820190506140b8600083018561398b565b6140c56020830184613fcc565b9392505050565b60006040820190506140e1600083018461399a565b92915050565b60006020820190506140fc60008301846139f1565b92915050565b60006020820190506141176000830184613a00565b92915050565b60006040820190506141326000830185613a0f565b61413f6020830184613a0f565b9392505050565b600060208201905061415b6000830184613a5e565b92915050565b6000602082019050818103600083015261417b8184613aa9565b905092915050565b6000602082019050818103600083015261419c81613ae2565b9050919050565b600060208201905081810360008301526141bc81613b05565b9050919050565b600060208201905081810360008301526141dc81613b28565b9050919050565b600060208201905081810360008301526141fc81613b4b565b9050919050565b6000602082019050818103600083015261421c81613b6e565b9050919050565b6000602082019050818103600083015261423c81613b91565b9050919050565b6000602082019050818103600083015261425c81613bb4565b9050919050565b6000602082019050818103600083015261427c81613bd7565b9050919050565b6000602082019050818103600083015261429c81613bfa565b9050919050565b600060208201905081810360008301526142bc81613c1d565b9050919050565b600060208201905081810360008301526142dc81613c40565b9050919050565b600060208201905081810360008301526142fc81613c63565b9050919050565b6000602082019050818103600083015261431c81613c86565b9050919050565b6000602082019050818103600083015261433c81613ca9565b9050919050565b6000602082019050818103600083015261435c81613ccc565b9050919050565b6000602082019050818103600083015261437c81613cef565b9050919050565b6000602082019050818103600083015261439c81613d12565b9050919050565b600060208201905081810360008301526143bc81613d35565b9050919050565b600060208201905081810360008301526143dc81613d58565b9050919050565b600060208201905081810360008301526143fc81613d7b565b9050919050565b6000602082019050818103600083015261441c81613d9e565b9050919050565b6000602082019050818103600083015261443c81613dc1565b9050919050565b6000602082019050818103600083015261445c81613de4565b9050919050565b6000602082019050818103600083015261447c81613e07565b9050919050565b6000602082019050818103600083015261449c81613e2a565b9050919050565b600060208201905081810360008301526144bc81613e4d565b9050919050565b600060208201905081810360008301526144dc81613e70565b9050919050565b600060208201905081810360008301526144fc81613e93565b9050919050565b6000602082019050818103600083015261451c81613eb6565b9050919050565b6000602082019050818103600083015261453c81613ed9565b9050919050565b6000602082019050818103600083015261455c81613efc565b9050919050565b6000602082019050818103600083015261457c81613f1f565b9050919050565b600060c0820190506145986000830184613f42565b92915050565b60006020820190506145b36000830184613fbd565b92915050565b60006020820190506145ce6000830184613fcc565b92915050565b60006040820190506145e96000830185613fcc565b6145f6602083018461398b565b9392505050565b60006060820190506146126000830186613fdb565b61461f6020830185613fdb565b61462c6040830184613fdb565b949350505050565b60006020820190506146496000830184613ff9565b92915050565b6000808335600160200384360303811261466c5761466b61492d565b5b80840192508235915067ffffffffffffffff82111561468e5761468d614923565b5b6020830192506001820236038313156146aa576146a9614932565b5b509250929050565b6000819050919050565b600060029050919050565b600081519050919050565b600081519050919050565b6000602082019050919050565b600081905092915050565b600081905092915050565b600082825260208201905092915050565b600061471c826147f6565b9150614727836147f6565b9250827fffffffffffffffffffffffffffffffffffffffffffffffffffffffffffffffff0382111561475c5761475b614896565b5b828201905092915050565b6000614772826147d6565b9050919050565b60008115159050919050565b60007fffffffffffffffffffffffffffffffff0000000000000000000000000000000082169050919050565b6000819050919050565b60008160000b9050919050565b600061ffff82169050919050565b600073ffffffffffffffffffffffffffffffffffffffff82169050919050565b6000819050919050565b600063ffffffff82169050919050565b600061481b826147c8565b9050919050565b82818337600083830152505050565b60005b8381101561484f578082015181840152602081019050614834565b8381111561485e576000848401525b50505050565b6000600282049050600182168061487c57607f821691505b602082108114156148905761488f6148c5565b5b50919050565b7f4e487b7100000000000000000000000000000000000000000000000000000000600052601160045260246000fd5b7f4e487b7100000000000000000000000000000000000000000000000000000000600052602260045260246000fd5b7f4e487b7100000000000000000000000000000000000000000000000000000000600052603260045260246000fd5b600080fd5b600080fd5b600080fd5b600080fd5b600080fd5b600080fd5b6000601f19601f8301169050919050565b7f476f7665726e616e636520616464726573732063616e6e6f742062652030206160008201527f6464726573730000000000000000000000000000000000000000000000000000602082015250565b7f4275726e657220616464726573732063616e6e6f74206265203020616464726560008201527f7373000000000000000000000000000000000000000000000000000000000000602082015250565b7f4d696e74206661696c6564000000000000000000000000000000000000000000600082015250565b7f506f6f6c206973206c6976650000000000000000000000000000000000000000600082015250565b7f4163636f756e742063616e6e6f74206265203020616464726573730000000000600082015250565b7f416464726573733a20696e73756666696369656e742062616c616e636520666f60008201527f722063616c6c0000000000000000000000000000000000000000000000000000602082015250565b7f46726f6d20616464726573732063616e6e6f7420626520302061646472657373600082015250565b7f506f6f6c20697320706175736564000000000000000000000000000000000000600082015250565b7f4275726e206661696c6564000000000000000000000000000000000000000000600082015250565b7f506f6f6c3a20746f6b656e206f7574206f662072616e67650000000000000000600082015250565b7f55706461746520696e74657276616c206861736e277420706173736564000000600082015250565b7f73656e646572206e6f74206b6565706572000000000000000000000000000000600082015250565b7f496e697469616c697a61626c653a20636f6e747261637420697320616c72656160008201527f647920696e697469616c697a6564000000000000000000000000000000000000602082015250565b7f4f7261636c6520777261707065722063616e6e6f74206265203020616464726560008201527f7373000000000000000000000000000000000000000000000000000000000000602082015250565b7f4f776e65722063616e6e6f742062652030206164647265737300000000000000600082015250565b7f6d73672e73656e646572206e6f74206b65657065720000000000000000000000600082015250565b7f51756f746520746f6b656e2063616e6e6f742062652030206164647265737300600082015250565b7f506f6f6c436f6d6d69747465722063616e6e6f7420626520302061646472657360008201527f7300000000000000000000000000000000000000000000000000000000000000602082015250565b7f4d696e74657220616464726573732063616e6e6f74206265203020616464726560008201527f7373000000000000000000000000000000000000000000000000000000000000602082015250565b7f4b65657065722063616e6e6f7420626520302061646472657373000000000000600082015250565b7f6d73672e73656e646572206e6f7420706f6f6c436f6d6d697474657200000000600082015250565b7f4b656570657220616464726573732063616e6e6f74206265203020616464726560008201527f7373000000000000000000000000000000000000000000000000000000000000602082015250565b7f4b6565706572206f7261636c652063616e6e6f7420626520302061646472657360008201527f7300000000000000000000000000000000000000000000000000000000000000602082015250565b7f416464726573733a2063616c6c20746f206e6f6e2d636f6e7472616374000000600082015250565b7f4c6f6e6720746f6b656e2063616e6e6f74206265203020616464726573730000600082015250565b7f4665652069732067726561746572207468616e20313030250000000000000000600082015250565b7f46656520616464726573732063616e6e6f742062652030206164647265737300600082015250565b7f53686f727420746f6b656e2063616e6e6f742062652030206164647265737300600082015250565b7f5361666545524332303a204552433230206f7065726174696f6e20646964206e60008201527f6f74207375636365656400000000000000000000000000000000000000000000602082015250565b7f6d73672e73656e646572206e6f7420676f7665726e616e636500000000000000600082015250565b7f66726f6e7452756e6e696e67203e20757064617465496e74657276616c000000600082015250565b7f546f20616464726573732063616e6e6f74206265203020616464726573730000600082015250565b614ff781614767565b811461500257600080fd5b50565b61500e81614779565b811461501957600080fd5b50565b61502581614785565b811461503057600080fd5b50565b61503c816147b1565b811461504757600080fd5b50565b615053816147bb565b811461505e57600080fd5b50565b61506a816147c8565b811461507557600080fd5b50565b615081816147f6565b811461508c57600080fd5b50565b61509881614800565b81146150a357600080fd5b5056fea2646970667358221220745758e316dbe9b267a69783170d9d55ed65495a8d82a302b21ff371042e3f3f64736f6c63430008070033",
  "libraries": {
    "PoolSwapLibrary": "0x3FE070eC913099fcBd96c18524F873D7c3F95F48"
  },
  "devdoc": {
    "kind": "dev",
    "methods": {
      "deployPool((string,uint32,uint32,uint16,address,address,address,uint128,uint128))": {
        "params": {
          "deploymentParameters": "Deployment parameters of the market. Some may be reconfigurable"
        },
        "returns": {
          "_0": "Address of the created pool"
        }
      },
      "owner()": {
        "details": "Returns the address of the current owner."
      },
      "renounceOwnership()": {
        "details": "Leaves the contract without owner. It will not be possible to call `onlyOwner` functions anymore. Can only be called by the current owner. NOTE: Renouncing ownership will leave the contract without an owner, thereby removing any functionality that is only available to the owner."
      },
      "transferOwnership(address)": {
        "details": "Transfers ownership of the contract to a new account (`newOwner`). Can only be called by the current owner."
      }
    },
    "title": "The pool factory contract",
    "version": 1
  },
  "userdoc": {
    "events": {
      "DeployPool(address,string)": {
        "notice": "Creates a notification when a pool is deployed"
      }
    },
    "kind": "user",
    "methods": {
      "deployPool((string,uint32,uint32,uint16,address,address,address,uint128,uint128))": {
        "notice": "Deploy a leveraged pool with given parameters"
      },
      "isValidPool(address)": {
        "notice": "Format: Pool address => validity"
      },
      "pools(uint256)": {
        "notice": "Format: Pool counter => pool address"
      }
    },
    "version": 1
  },
  "storageLayout": {
    "storage": [
      {
        "astId": 110,
        "contract": "contracts/implementation/PoolFactory.sol:PoolFactory",
        "label": "_owner",
        "offset": 0,
        "slot": "0",
        "type": "t_address"
      },
      {
        "astId": 9103,
        "contract": "contracts/implementation/PoolFactory.sol:PoolFactory",
        "label": "pairTokenBase",
        "offset": 0,
        "slot": "1",
        "type": "t_contract(PoolToken)10948"
      },
      {
        "astId": 9106,
        "contract": "contracts/implementation/PoolFactory.sol:PoolFactory",
        "label": "poolBase",
        "offset": 0,
        "slot": "2",
        "type": "t_contract(LeveragedPool)7809"
      },
      {
        "astId": 9109,
        "contract": "contracts/implementation/PoolFactory.sol:PoolFactory",
        "label": "poolKeeper",
        "offset": 0,
        "slot": "3",
        "type": "t_contract(IPoolKeeper)11484"
      },
      {
        "astId": 9112,
        "contract": "contracts/implementation/PoolFactory.sol:PoolFactory",
        "label": "poolCommitterDeployer",
        "offset": 0,
        "slot": "4",
        "type": "t_contract(IPoolCommitterDeployer)11325"
      },
      {
        "astId": 9115,
        "contract": "contracts/implementation/PoolFactory.sol:PoolFactory",
        "label": "maxLeverage",
        "offset": 20,
        "slot": "4",
        "type": "t_uint16"
      },
      {
        "astId": 9117,
        "contract": "contracts/implementation/PoolFactory.sol:PoolFactory",
        "label": "feeReceiver",
        "offset": 0,
        "slot": "5",
        "type": "t_address"
      },
      {
        "astId": 9119,
        "contract": "contracts/implementation/PoolFactory.sol:PoolFactory",
        "label": "fee",
        "offset": 0,
        "slot": "6",
        "type": "t_bytes16"
      },
      {
        "astId": 9125,
        "contract": "contracts/implementation/PoolFactory.sol:PoolFactory",
        "label": "pools",
        "offset": 0,
        "slot": "7",
        "type": "t_mapping(t_uint256,t_address)"
      },
      {
        "astId": 9128,
        "contract": "contracts/implementation/PoolFactory.sol:PoolFactory",
        "label": "numPools",
        "offset": 0,
        "slot": "8",
        "type": "t_uint256"
      },
      {
        "astId": 9134,
        "contract": "contracts/implementation/PoolFactory.sol:PoolFactory",
        "label": "isValidPool",
        "offset": 0,
        "slot": "9",
        "type": "t_mapping(t_address,t_bool)"
      }
    ],
    "types": {
      "t_address": {
        "encoding": "inplace",
        "label": "address",
        "numberOfBytes": "20"
      },
      "t_bool": {
        "encoding": "inplace",
        "label": "bool",
        "numberOfBytes": "1"
      },
      "t_bytes16": {
        "encoding": "inplace",
        "label": "bytes16",
        "numberOfBytes": "16"
      },
      "t_contract(IPoolCommitterDeployer)11325": {
        "encoding": "inplace",
        "label": "contract IPoolCommitterDeployer",
        "numberOfBytes": "20"
      },
      "t_contract(IPoolKeeper)11484": {
        "encoding": "inplace",
        "label": "contract IPoolKeeper",
        "numberOfBytes": "20"
      },
      "t_contract(LeveragedPool)7809": {
        "encoding": "inplace",
        "label": "contract LeveragedPool",
        "numberOfBytes": "20"
      },
      "t_contract(PoolToken)10948": {
        "encoding": "inplace",
        "label": "contract PoolToken",
        "numberOfBytes": "20"
      },
      "t_mapping(t_address,t_bool)": {
        "encoding": "mapping",
        "key": "t_address",
        "label": "mapping(address => bool)",
        "numberOfBytes": "32",
        "value": "t_bool"
      },
      "t_mapping(t_uint256,t_address)": {
        "encoding": "mapping",
        "key": "t_uint256",
        "label": "mapping(uint256 => address)",
        "numberOfBytes": "32",
        "value": "t_address"
      },
      "t_uint16": {
        "encoding": "inplace",
        "label": "uint16",
        "numberOfBytes": "2"
      },
      "t_uint256": {
        "encoding": "inplace",
        "label": "uint256",
        "numberOfBytes": "32"
      }
    }
  }
}