{
  "address": "0xC0343a458C5766a365E5De2EE2CAF271dE65e53b",
  "abi": [
    {
      "inputs": [
        {
          "internalType": "address",
          "name": "_factory",
          "type": "address"
        }
      ],
      "stateMutability": "nonpayable",
      "type": "constructor"
    },
    {
      "inputs": [
        {
          "internalType": "uint128",
          "name": "_minimumCommitSize",
          "type": "uint128"
        },
        {
          "internalType": "uint128",
          "name": "_maximumCommitQueueLength",
          "type": "uint128"
        }
      ],
      "name": "deploy",
      "outputs": [
        {
          "internalType": "address",
          "name": "",
          "type": "address"
        }
      ],
      "stateMutability": "nonpayable",
      "type": "function"
    },
    {
      "inputs": [],
      "name": "factory",
      "outputs": [
        {
          "internalType": "address",
          "name": "",
          "type": "address"
        }
      ],
      "stateMutability": "view",
      "type": "function"
    }
  ],
  "transactionHash": "0x69b6a8761e13d0311d4597636bc488dc451996ccb9926b3114b2f45ee82be451",
  "args": [
    "0x6B2936bA3eb7258604d607354a55750eD474Ce32"
  ],
  "solcInputHash": "3efc6345f10ff4dee709674b30f177e5",
  "bytecode": "0x608060405234801561001057600080fd5b50604051615dc4380380615dc48339818101604052810190610032919061008d565b806000806101000a81548173ffffffffffffffffffffffffffffffffffffffff021916908373ffffffffffffffffffffffffffffffffffffffff16021790555050610108565b600081519050610087816100f1565b92915050565b6000602082840312156100a3576100a26100ec565b5b60006100b184828501610078565b91505092915050565b60006100c5826100cc565b9050919050565b600073ffffffffffffffffffffffffffffffffffffffff82169050919050565b600080fd5b6100fa816100ba565b811461010557600080fd5b50565b615cad806101176000396000f3fe608060405234801561001057600080fd5b50600436106100365760003560e01c8063960419831461003b578063c45a01551461006b575b600080fd5b610055600480360381019061005091906101c1565b610089565b6040516100629190610242565b60405180910390f35b61007361017a565b6040516100809190610242565b60405180910390f35b60008060009054906101000a900473ffffffffffffffffffffffffffffffffffffffff1673ffffffffffffffffffffffffffffffffffffffff163373ffffffffffffffffffffffffffffffffffffffff161461011a576040517f08c379a000000000000000000000000000000000000000000000000000000000815260040161011190610294565b60405180910390fd5b60008054906101000a900473ffffffffffffffffffffffffffffffffffffffff1683836040516101499061019e565b6101559392919061025d565b604051809103906000f080158015610171573d6000803e3d6000fd5b50905092915050565b60008054906101000a900473ffffffffffffffffffffffffffffffffffffffff1681565b61591f806200035983390190565b6000813590506101bb81610341565b92915050565b600080604083850312156101d8576101d7610313565b5b60006101e6858286016101ac565b92505060206101f7858286016101ac565b9150509250929050565b61020a816102c5565b82525050565b600061021d6016836102b4565b915061022882610318565b602082019050919050565b61023c816102d7565b82525050565b60006020820190506102576000830184610201565b92915050565b60006060820190506102726000830186610201565b61027f6020830185610233565b61028c6040830184610233565b949350505050565b600060208201905081810360008301526102ad81610210565b9050919050565b600082825260208201905092915050565b60006102d0826102f3565b9050919050565b60006fffffffffffffffffffffffffffffffff82169050919050565b600073ffffffffffffffffffffffffffffffffffffffff82169050919050565b600080fd5b7f6d73672e73656e646572206e6f7420666163746f727900000000000000000000600082015250565b61034a816102d7565b811461035557600080fd5b5056fe60806040526fffffffffffffffffffffffffffffffff600260006101000a8154816fffffffffffffffffffffffffffffffff02191690836fffffffffffffffffffffffffffffffff1602179055503480156200005a57600080fd5b506040516200591f3803806200591f83398181016040528101906200008091906200036e565b620000a0620000946200024260201b60201c565b6200024a60201b60201c565b82600760006101000a81548173ffffffffffffffffffffffffffffffffffffffff021916908373ffffffffffffffffffffffffffffffffffffffff16021790555081600360106101000a8154816fffffffffffffffffffffffffffffffff02191690836fffffffffffffffffffffffffffffffff16021790555080600460006101000a8154816fffffffffffffffffffffffffffffffff02191690836fffffffffffffffffffffffffffffffff160217905550600760009054906101000a900473ffffffffffffffffffffffffffffffffffffffff1673ffffffffffffffffffffffffffffffffffffffff1663893d20e86040518163ffffffff1660e01b8152600401602060405180830381600087803b158015620001be57600080fd5b505af1158015620001d3573d6000803e3d6000fd5b505050506040513d601f19601f82011682018060405250810190620001f991906200033c565b600860006101000a81548173ffffffffffffffffffffffffffffffffffffffff021916908373ffffffffffffffffffffffffffffffffffffffff16021790555050505062000453565b600033905090565b60008060009054906101000a900473ffffffffffffffffffffffffffffffffffffffff169050816000806101000a81548173ffffffffffffffffffffffffffffffffffffffff021916908373ffffffffffffffffffffffffffffffffffffffff1602179055508173ffffffffffffffffffffffffffffffffffffffff168173ffffffffffffffffffffffffffffffffffffffff167f8be0079c531659141344cd1fd0a4f28419497f9722a3daafe3b4186f6b6457e060405160405180910390a35050565b6000815190506200031f816200041f565b92915050565b600081519050620003368162000439565b92915050565b6000602082840312156200035557620003546200041a565b5b600062000365848285016200030e565b91505092915050565b6000806000606084860312156200038a57620003896200041a565b5b60006200039a868287016200030e565b9350506020620003ad8682870162000325565b9250506040620003c08682870162000325565b9150509250925092565b6000620003d782620003fa565b9050919050565b60006fffffffffffffffffffffffffffffffff82169050919050565b600073ffffffffffffffffffffffffffffffffffffffff82169050919050565b600080fd5b6200042a81620003ca565b81146200043657600080fd5b50565b6200044481620003de565b81146200045057600080fd5b50565b6154bc80620004636000396000f3fe608060405234801561001057600080fd5b50600436106101585760003560e01c80638bf13f82116100c3578063d44b1ff31161007c578063d44b1ff314610394578063e323aac6146103b2578063f2fde38b146103d0578063f9495c9c146103ec578063f9a0e14e14610408578063fd555fb91461042657610158565b80638bf13f82146102d05780638da5cb5b146102ee5780639eda0cc21461030c578063b3fecffe1461032a578063c45a015514610346578063caf4c2c51461036457610158565b80635aa6e675116101155780635aa6e67514610222578063605814fc1461024057806364d5366014610270578063685544a61461028e578063715018a6146102aa578063822255de146102b457610158565b80631c536da41461015d57806329075d711461016757806330f752601461019a57806341397577146101b85780634b2ec831146101e857806351b450f614610206575b600080fd5b610165610442565b005b610181600480360381019061017c919061455a565b610ae7565b6040516101919493929190614c33565b60405180910390f35b6101a2610b55565b6040516101af9190614bfd565b60405180910390f35b6101d260048036038101906101cd9190614587565b610b69565b6040516101df9190614c18565b60405180910390f35b6101f0610b81565b6040516101fd9190614bfd565b60405180910390f35b610220600480360381019061021b919061455a565b610ba3565b005b61022a610fb4565b6040516102379190614910565b60405180910390f35b61025a600480360381019061025591906144c0565b610fda565b6040516102679190614c18565b60405180910390f35b6102786110bc565b6040516102859190614bfd565b60405180910390f35b6102a860048036038101906102a3919061455a565b6110de565b005b6102b26111aa565b005b6102ce60048036038101906102c991906144ed565b611232565b005b6102d8611fdc565b6040516102e59190614bfd565b60405180910390f35b6102f6611ffe565b6040516103039190614910565b60405180910390f35b610314612027565b6040516103219190614bfd565b60405180910390f35b610344600480360381019061033f919061452d565b612049565b005b61034e612f04565b60405161035b9190614910565b60405180910390f35b61037e6004803603810190610379919061455a565b612f2a565b60405161038b9190614be2565b60405180910390f35b61039c61303f565b6040516103a99190614bfd565b60405180910390f35b6103ba613061565b6040516103c79190614910565b60405180910390f35b6103ea60048036038101906103e591906143cc565b613087565b005b6104066004803603810190610401919061455a565b61317f565b005b6104106132a0565b60405161041d9190614bfd565b60405180910390f35b610440600480360381019061043b91906143f9565b6132c2565b005b600160009054906101000a900473ffffffffffffffffffffffffffffffffffffffff1673ffffffffffffffffffffffffffffffffffffffff163373ffffffffffffffffffffffffffffffffffffffff16146104d2576040517f08c379a00000000000000000000000000000000000000000000000000000000081526004016104c990614b82565b60405180910390fd5b6fffffffffffffffffffffffffffffffff8016600260009054906101000a90046fffffffffffffffffffffffffffffffff166fffffffffffffffffffffffffffffffff16141561052157610ae5565b6000600460106101000a8154816fffffffffffffffffffffffffffffffff02191690836fffffffffffffffffffffffffffffffff160217905550600080600160009054906101000a900473ffffffffffffffffffffffffffffffffffffffff16905060008173ffffffffffffffffffffffffffffffffffffffff16637bfe789a6040518163ffffffff1660e01b815260040160206040518083038186803b1580156105cb57600080fd5b505afa1580156105df573d6000803e3d6000fd5b505050506040513d601f19601f8201168201806040525081019061060391906145e1565b63ffffffff16905060008273ffffffffffffffffffffffffffffffffffffffff16637de93f936040518163ffffffff1660e01b815260040160206040518083038186803b15801561065357600080fd5b505afa158015610667573d6000803e3d6000fd5b505050506040513d601f19601f8201168201806040525081019061068b91906145b4565b90506000600260009054906101000a90046fffffffffffffffffffffffffffffffff1690505b600260109054906101000a90046fffffffffffffffffffffffffffffffff166fffffffffffffffffffffffffffffffff16816fffffffffffffffffffffffffffffffff1611610aa657600060056000836fffffffffffffffffffffffffffffffff166fffffffffffffffffffffffffffffffff168152602001908152602001600020604051806080016040529081600082015481526020016001820160009054906101000a900460ff16600381111561076d5761076c615039565b5b600381111561077f5761077e615039565b5b81526020016001820160019054906101000a900464ffffffffff1664ffffffffff1664ffffffffff1681526020016001820160069054906101000a900473ffffffffffffffffffffffffffffffffffffffff1673ffffffffffffffffffffffffffffffffffffffff1673ffffffffffffffffffffffffffffffffffffffff16815250509050819550600073ffffffffffffffffffffffffffffffffffffffff16816060015173ffffffffffffffffffffffffffffffffffffffff1614156108555760018661084d9190614da2565b955050610a93565b83816040015164ffffffffff168461086d9190614e72565b116108785750610aa6565b7f53e7d7eb888194c67870ec86b8523606069fb6eeeab81f458a6065b9e88defa9826040516108a79190614bfd565b60405180910390a13073ffffffffffffffffffffffffffffffffffffffff1663b3fecffe826040518263ffffffff1660e01b81526004016108e89190614be2565b600060405180830381600087803b15801561090257600080fd5b505af1925050508015610913575060015b61095d5761092181836135aa565b7f089a8e68b5afa612f76f7ec1235a9d9d07e0d79462a6b0d862aaa0ac035426c1826040516109509190614bfd565b60405180910390a16109f3565b60056000836fffffffffffffffffffffffffffffffff166fffffffffffffffffffffffffffffffff1681526020019081526020016000206000808201600090556001820160006101000a81549060ff02191690556001820160016101000a81549064ffffffffff02191690556001820160066101000a81549073ffffffffffffffffffffffffffffffffffffffff021916905550505b600260109054906101000a90046fffffffffffffffffffffffffffffffff166fffffffffffffffffffffffffffffffff16826fffffffffffffffffffffffffffffffff161415610a91576fffffffffffffffffffffffffffffffff600260006101000a8154816fffffffffffffffffffffffffffffffff02191690836fffffffffffffffffffffffffffffffff160217905550505050505050610ae5565b505b8080610a9e90614fd1565b9150506106b1565b5083600260006101000a8154816fffffffffffffffffffffffffffffffff02191690836fffffffffffffffffffffffffffffffff160217905550505050505b565b60056020528060005260406000206000915090508060000154908060010160009054906101000a900460ff16908060010160019054906101000a900464ffffffffff16908060010160069054906101000a900473ffffffffffffffffffffffffffffffffffffffff16905084565b6fffffffffffffffffffffffffffffffff81565b60066020528060005260406000206000915090505481565b600360109054906101000a90046fffffffffffffffffffffffffffffffff1681565b600060056000836fffffffffffffffffffffffffffffffff166fffffffffffffffffffffffffffffffff168152602001908152602001600020604051806080016040529081600082015481526020016001820160009054906101000a900460ff166003811115610c1657610c15615039565b5b6003811115610c2857610c27615039565b5b81526020016001820160019054906101000a900464ffffffffff1664ffffffffff1664ffffffffff1681526020016001820160069054906101000a900473ffffffffffffffffffffffffffffffffffffffff1673ffffffffffffffffffffffffffffffffffffffff1673ffffffffffffffffffffffffffffffffffffffff168152505090506000600160009054906101000a900473ffffffffffffffffffffffffffffffffffffffff16905060008173ffffffffffffffffffffffffffffffffffffffff16637de93f936040518163ffffffff1660e01b815260040160206040518083038186803b158015610d1c57600080fd5b505afa158015610d30573d6000803e3d6000fd5b505050506040513d601f19601f82011682018060405250810190610d5491906145b4565b905060008273ffffffffffffffffffffffffffffffffffffffff16637bfe789a6040518163ffffffff1660e01b815260040160206040518083038186803b158015610d9e57600080fd5b505afa158015610db2573d6000803e3d6000fd5b505050506040513d601f19601f82011682018060405250810190610dd691906145e1565b63ffffffff16905060008373ffffffffffffffffffffffffffffffffffffffff1663fd2c80ae6040518163ffffffff1660e01b815260040160206040518083038186803b158015610e2657600080fd5b505afa158015610e3a573d6000803e3d6000fd5b505050506040513d601f19601f82011682018060405250810190610e5e91906145e1565b63ffffffff169050733FE070eC913099fcBd96c18524F873D7c3F95F4863aaa578b28483856040518463ffffffff1660e01b8152600401610ea193929190614cca565b60206040518083038186803b158015610eb957600080fd5b505af4158015610ecd573d6000803e3d6000fd5b505050506040513d601f19601f82011682018060405250810190610ef19190614466565b610f30576040517f08c379a0000000000000000000000000000000000000000000000000000000008152600401610f2790614b22565b60405180910390fd5b846060015173ffffffffffffffffffffffffffffffffffffffff163373ffffffffffffffffffffffffffffffffffffffff1614610fa2576040517f08c379a0000000000000000000000000000000000000000000000000000000008152600401610f9990614a62565b60405180910390fd5b610fac85876135aa565b505050505050565b600860009054906101000a900473ffffffffffffffffffffffffffffffffffffffff1681565b6000806003811115610fef57610fee615039565b5b82600381111561100257611001615039565b5b141561101157600090506110b7565b6001600381111561102557611024615039565b5b82600381111561103857611037615039565b5b141561104757600190506110b7565b6002600381111561105b5761105a615039565b5b82600381111561106e5761106d615039565b5b141561107d57600290506110b7565b6003808111156110905761108f615039565b5b8260038111156110a3576110a2615039565b5b14156110b257600390506110b7565b600090505b919050565b600460009054906101000a90046fffffffffffffffffffffffffffffffff1681565b600860009054906101000a900473ffffffffffffffffffffffffffffffffffffffff1673ffffffffffffffffffffffffffffffffffffffff163373ffffffffffffffffffffffffffffffffffffffff161461116e576040517f08c379a000000000000000000000000000000000000000000000000000000000815260040161116590614bc2565b60405180910390fd5b80600360106101000a8154816fffffffffffffffffffffffffffffffff02191690836fffffffffffffffffffffffffffffffff16021790555050565b6111b2613b3b565b73ffffffffffffffffffffffffffffffffffffffff166111d0611ffe565b73ffffffffffffffffffffffffffffffffffffffff1614611226576040517f08c379a000000000000000000000000000000000000000000000000000000000815260040161121d90614b42565b60405180910390fd5b6112306000613b43565b565b600460009054906101000a90046fffffffffffffffffffffffffffffffff166fffffffffffffffffffffffffffffffff16600460109054906101000a90046fffffffffffffffffffffffffffffffff166fffffffffffffffffffffffffffffffff16106112d4576040517f08c379a00000000000000000000000000000000000000000000000000000000081526004016112cb90614ba2565b60405180910390fd5b6001600460108282829054906101000a90046fffffffffffffffffffffffffffffffff166113029190614da2565b92506101000a8154816fffffffffffffffffffffffffffffffff02191690836fffffffffffffffffffffffffffffffff1602179055506000811161137b576040517f08c379a000000000000000000000000000000000000000000000000000000000815260040161137290614ac2565b60405180910390fd5b6000600360009054906101000a90046fffffffffffffffffffffffffffffffff1690506001816113ab9190614da2565b600360006101000a8154816fffffffffffffffffffffffffffffffff02191690836fffffffffffffffffffffffffffffffff1602179055506000600160009054906101000a900473ffffffffffffffffffffffffffffffffffffffff169050604051806080016040528084815260200185600381111561142e5761142d615039565b5b81526020014264ffffffffff1681526020013373ffffffffffffffffffffffffffffffffffffffff1681525060056000846fffffffffffffffffffffffffffffffff166fffffffffffffffffffffffffffffffff1681526020019081526020016000206000820151816000015560208201518160010160006101000a81548160ff021916908360038111156114c6576114c5615039565b5b021790555060408201518160010160016101000a81548164ffffffffff021916908364ffffffffff16021790555060608201518160010160066101000a81548173ffffffffffffffffffffffffffffffffffffffff021916908373ffffffffffffffffffffffffffffffffffffffff160217905550905050600061154985610fda565b905083600660008381526020019081526020016000205461156a9190614de8565b60066000838152602001908152602001600020819055506fffffffffffffffffffffffffffffffff8016600260009054906101000a90046fffffffffffffffffffffffffffffffff166fffffffffffffffffffffffffffffffff1614156116055782600260006101000a8154816fffffffffffffffffffffffffffffffff02191690836fffffffffffffffffffffffffffffffff1602179055505b82600260106101000a8154816fffffffffffffffffffffffffffffffff02191690836fffffffffffffffffffffffffffffffff16021790555084600381111561165157611650615039565b5b84846fffffffffffffffffffffffffffffffff167feeb519088468e5ea7765bbf8c4464c3bde5ff110d8de10ee5db057be2599d1fc60405160405180910390a460008273ffffffffffffffffffffffffffffffffffffffff1663ba8d54686040518163ffffffff1660e01b815260040160206040518083038186803b1580156116d957600080fd5b505afa1580156116ed573d6000803e3d6000fd5b505050506040513d601f19601f8201168201806040525081019061171191906145b4565b905060008373ffffffffffffffffffffffffffffffffffffffff16637e71fc7d6040518163ffffffff1660e01b815260040160206040518083038186803b15801561175b57600080fd5b505afa15801561176f573d6000803e3d6000fd5b505050506040513d601f19601f8201168201806040525081019061179391906145b4565b9050600260038111156117a9576117a8615039565b5b8760038111156117bc576117bb615039565b5b14806117ec5750600060038111156117d7576117d6615039565b5b8760038111156117ea576117e9615039565b5b145b156118fa57600360109054906101000a90046fffffffffffffffffffffffffffffffff166fffffffffffffffffffffffffffffffff16861015611864576040517f08c379a000000000000000000000000000000000000000000000000000000000815260040161185b90614ae2565b60405180910390fd5b8373ffffffffffffffffffffffffffffffffffffffff16637b0a0c9033600160009054906101000a900473ffffffffffffffffffffffffffffffffffffffff16896040518463ffffffff1660e01b81526004016118c39392919061492b565b600060405180830381600087803b1580156118dd57600080fd5b505af11580156118f1573d6000803e3d6000fd5b50505050611fd3565b60038081111561190d5761190c615039565b5b8760038111156119205761191f615039565b5b1415611c67576000733FE070eC913099fcBd96c18524F873D7c3F95F4863cda8198c733FE070eC913099fcBd96c18524F873D7c3F95F4863cff70001858b6006600061196c6003610fda565b8152602001908152602001600020548b73ffffffffffffffffffffffffffffffffffffffff16636d3e313e6040518163ffffffff1660e01b8152600401604080518083038186803b1580156119c057600080fd5b505afa1580156119d4573d6000803e3d6000fd5b505050506040513d601f19601f820116820180604052508101906119f89190614439565b600060028110611a0b57611a0a615068565b5b602002015173ffffffffffffffffffffffffffffffffffffffff166318160ddd6040518163ffffffff1660e01b815260040160206040518083038186803b158015611a5557600080fd5b505afa158015611a69573d6000803e3d6000fd5b505050506040513d601f19601f82011682018060405250810190611a8d91906145b4565b611a979190614de8565b611aa19190614de8565b6040518363ffffffff1660e01b8152600401611abe929190614c78565b60206040518083038186803b158015611ad657600080fd5b505af4158015611aea573d6000803e3d6000fd5b505050506040513d601f19601f82011682018060405250810190611b0e9190614493565b896040518363ffffffff1660e01b8152600401611b2c92919061498b565b60206040518083038186803b158015611b4457600080fd5b505af4158015611b58573d6000803e3d6000fd5b505050506040513d601f19601f82011682018060405250810190611b7c91906145b4565b9050600360109054906101000a90046fffffffffffffffffffffffffffffffff166fffffffffffffffffffffffffffffffff16811015611bf1576040517f08c379a0000000000000000000000000000000000000000000000000000000008152600401611be890614ae2565b60405180910390fd5b8473ffffffffffffffffffffffffffffffffffffffff166387f9ca5d600089336040518463ffffffff1660e01b8152600401611c2f939291906149b4565b600060405180830381600087803b158015611c4957600080fd5b505af1158015611c5d573d6000803e3d6000fd5b5050505050611fd2565b60016003811115611c7b57611c7a615039565b5b876003811115611c8e57611c8d615039565b5b1415611fd1576000733FE070eC913099fcBd96c18524F873D7c3F95F4863cda8198c733FE070eC913099fcBd96c18524F873D7c3F95F4863cff70001868b60066000611cda6001610fda565b8152602001908152602001600020548b73ffffffffffffffffffffffffffffffffffffffff16636d3e313e6040518163ffffffff1660e01b8152600401604080518083038186803b158015611d2e57600080fd5b505afa158015611d42573d6000803e3d6000fd5b505050506040513d601f19601f82011682018060405250810190611d669190614439565b600160028110611d7957611d78615068565b5b602002015173ffffffffffffffffffffffffffffffffffffffff166318160ddd6040518163ffffffff1660e01b815260040160206040518083038186803b158015611dc357600080fd5b505afa158015611dd7573d6000803e3d6000fd5b505050506040513d601f19601f82011682018060405250810190611dfb91906145b4565b611e059190614de8565b611e0f9190614de8565b6040518363ffffffff1660e01b8152600401611e2c929190614c78565b60206040518083038186803b158015611e4457600080fd5b505af4158015611e58573d6000803e3d6000fd5b505050506040513d601f19601f82011682018060405250810190611e7c9190614493565b896040518363ffffffff1660e01b8152600401611e9a92919061498b565b60206040518083038186803b158015611eb257600080fd5b505af4158015611ec6573d6000803e3d6000fd5b505050506040513d601f19601f82011682018060405250810190611eea91906145b4565b9050600360109054906101000a90046fffffffffffffffffffffffffffffffff166fffffffffffffffffffffffffffffffff16811015611f5f576040517f08c379a0000000000000000000000000000000000000000000000000000000008152600401611f5690614ae2565b60405180910390fd5b8473ffffffffffffffffffffffffffffffffffffffff166387f9ca5d600189336040518463ffffffff1660e01b8152600401611f9d939291906149eb565b600060405180830381600087803b158015611fb757600080fd5b505af1158015611fcb573d6000803e3d6000fd5b50505050505b5b5b50505050505050565b600460109054906101000a90046fffffffffffffffffffffffffffffffff1681565b60008060009054906101000a900473ffffffffffffffffffffffffffffffffffffffff16905090565b600260009054906101000a90046fffffffffffffffffffffffffffffffff1681565b3073ffffffffffffffffffffffffffffffffffffffff163373ffffffffffffffffffffffffffffffffffffffff16146120b7576040517f08c379a00000000000000000000000000000000000000000000000000000000081526004016120ae90614b02565b60405180910390fd5b6000600160009054906101000a900473ffffffffffffffffffffffffffffffffffffffff16905060008173ffffffffffffffffffffffffffffffffffffffff1663ba8d54686040518163ffffffff1660e01b815260040160206040518083038186803b15801561212657600080fd5b505afa15801561213a573d6000803e3d6000fd5b505050506040513d601f19601f8201168201806040525081019061215e91906145b4565b905060008273ffffffffffffffffffffffffffffffffffffffff16637e71fc7d6040518163ffffffff1660e01b815260040160206040518083038186803b1580156121a857600080fd5b505afa1580156121bc573d6000803e3d6000fd5b505050506040513d601f19601f820116820180604052508101906121e091906145b4565b905060006121f18560200151610fda565b9050846000015160066000838152602001908152602001600020546122169190614e72565b60066000838152602001908152602001600020819055506002600381111561224157612240615039565b5b8560200151600381111561225857612257615039565b5b1415612516576000733FE070eC913099fcBd96c18524F873D7c3F95F4863ab41556f8673ffffffffffffffffffffffffffffffffffffffff16636d3e313e6040518163ffffffff1660e01b8152600401604080518083038186803b1580156122bf57600080fd5b505afa1580156122d3573d6000803e3d6000fd5b505050506040513d601f19601f820116820180604052508101906122f79190614439565b60006002811061230a57612309615068565b5b602002015173ffffffffffffffffffffffffffffffffffffffff166318160ddd6040518163ffffffff1660e01b815260040160206040518083038186803b15801561235457600080fd5b505afa158015612368573d6000803e3d6000fd5b505050506040513d601f19601f8201168201806040525081019061238c91906145b4565b886000015186600660006123a06003610fda565b8152602001908152602001600020546040518563ffffffff1660e01b81526004016123ce9493929190614d01565b60206040518083038186803b1580156123e657600080fd5b505af41580156123fa573d6000803e3d6000fd5b505050506040513d601f19601f8201168201806040525081019061241e91906145b4565b90508473ffffffffffffffffffffffffffffffffffffffff166375c66e2f60008389606001516040518463ffffffff1660e01b8152600401612462939291906149b4565b600060405180830381600087803b15801561247c57600080fd5b505af1158015612490573d6000803e3d6000fd5b505050508473ffffffffffffffffffffffffffffffffffffffff16633c3f82528760000151856124c09190614de8565b866040518363ffffffff1660e01b81526004016124de929190614ca1565b600060405180830381600087803b1580156124f857600080fd5b505af115801561250c573d6000803e3d6000fd5b5050505050612efd565b60038081111561252957612528615039565b5b856020015160038111156125405761253f615039565b5b1415612895576000733FE070eC913099fcBd96c18524F873D7c3F95F4863cda8198c733FE070eC913099fcBd96c18524F873D7c3F95F4863cff70001868a60000151600660006125906003610fda565b8152602001908152602001600020548b73ffffffffffffffffffffffffffffffffffffffff16636d3e313e6040518163ffffffff1660e01b8152600401604080518083038186803b1580156125e457600080fd5b505afa1580156125f8573d6000803e3d6000fd5b505050506040513d601f19601f8201168201806040525081019061261c9190614439565b60006002811061262f5761262e615068565b5b602002015173ffffffffffffffffffffffffffffffffffffffff166318160ddd6040518163ffffffff1660e01b815260040160206040518083038186803b15801561267957600080fd5b505afa15801561268d573d6000803e3d6000fd5b505050506040513d601f19601f820116820180604052508101906126b191906145b4565b6126bb9190614de8565b6126c59190614de8565b6040518363ffffffff1660e01b81526004016126e2929190614c78565b60206040518083038186803b1580156126fa57600080fd5b505af415801561270e573d6000803e3d6000fd5b505050506040513d601f19601f820116820180604052508101906127329190614493565b88600001516040518363ffffffff1660e01b815260040161275492919061498b565b60206040518083038186803b15801561276c57600080fd5b505af4158015612780573d6000803e3d6000fd5b505050506040513d601f19601f820116820180604052508101906127a491906145b4565b90508473ffffffffffffffffffffffffffffffffffffffff16633c3f825282856127ce9190614e72565b866040518363ffffffff1660e01b81526004016127ec929190614ca1565b600060405180830381600087803b15801561280657600080fd5b505af115801561281a573d6000803e3d6000fd5b505050508473ffffffffffffffffffffffffffffffffffffffff16635817f0c68760600151836040518363ffffffff1660e01b815260040161285d929190614962565b600060405180830381600087803b15801561287757600080fd5b505af115801561288b573d6000803e3d6000fd5b5050505050612efc565b600060038111156128a9576128a8615039565b5b856020015160038111156128c0576128bf615039565b5b1415612b7e576000733FE070eC913099fcBd96c18524F873D7c3F95F4863ab41556f8673ffffffffffffffffffffffffffffffffffffffff16636d3e313e6040518163ffffffff1660e01b8152600401604080518083038186803b15801561292757600080fd5b505afa15801561293b573d6000803e3d6000fd5b505050506040513d601f19601f8201168201806040525081019061295f9190614439565b60016002811061297257612971615068565b5b602002015173ffffffffffffffffffffffffffffffffffffffff166318160ddd6040518163ffffffff1660e01b815260040160206040518083038186803b1580156129bc57600080fd5b505afa1580156129d0573d6000803e3d6000fd5b505050506040513d601f19601f820116820180604052508101906129f491906145b4565b88600001518760066000612a086001610fda565b8152602001908152602001600020546040518563ffffffff1660e01b8152600401612a369493929190614d01565b60206040518083038186803b158015612a4e57600080fd5b505af4158015612a62573d6000803e3d6000fd5b505050506040513d601f19601f82011682018060405250810190612a8691906145b4565b90508473ffffffffffffffffffffffffffffffffffffffff166375c66e2f60018389606001516040518463ffffffff1660e01b8152600401612aca939291906149eb565b600060405180830381600087803b158015612ae457600080fd5b505af1158015612af8573d6000803e3d6000fd5b505050508473ffffffffffffffffffffffffffffffffffffffff16633c3f825284886000015187612b299190614de8565b6040518363ffffffff1660e01b8152600401612b46929190614ca1565b600060405180830381600087803b158015612b6057600080fd5b505af1158015612b74573d6000803e3d6000fd5b5050505050612efb565b60016003811115612b9257612b91615039565b5b85602001516003811115612ba957612ba8615039565b5b1415612efa576000733FE070eC913099fcBd96c18524F873D7c3F95F4863cda8198c733FE070eC913099fcBd96c18524F873D7c3F95F4863cff70001878a6000015160066000612bf96001610fda565b8152602001908152602001600020548b73ffffffffffffffffffffffffffffffffffffffff16636d3e313e6040518163ffffffff1660e01b8152600401604080518083038186803b158015612c4d57600080fd5b505afa158015612c61573d6000803e3d6000fd5b505050506040513d601f19601f82011682018060405250810190612c859190614439565b600160028110612c9857612c97615068565b5b602002015173ffffffffffffffffffffffffffffffffffffffff166318160ddd6040518163ffffffff1660e01b815260040160206040518083038186803b158015612ce257600080fd5b505afa158015612cf6573d6000803e3d6000fd5b505050506040513d601f19601f82011682018060405250810190612d1a91906145b4565b612d249190614de8565b612d2e9190614de8565b6040518363ffffffff1660e01b8152600401612d4b929190614c78565b60206040518083038186803b158015612d6357600080fd5b505af4158015612d77573d6000803e3d6000fd5b505050506040513d601f19601f82011682018060405250810190612d9b9190614493565b88600001516040518363ffffffff1660e01b8152600401612dbd92919061498b565b60206040518083038186803b158015612dd557600080fd5b505af4158015612de9573d6000803e3d6000fd5b505050506040513d601f19601f82011682018060405250810190612e0d91906145b4565b90508473ffffffffffffffffffffffffffffffffffffffff16633c3f8252848387612e389190614e72565b6040518363ffffffff1660e01b8152600401612e55929190614ca1565b600060405180830381600087803b158015612e6f57600080fd5b505af1158015612e83573d6000803e3d6000fd5b505050508473ffffffffffffffffffffffffffffffffffffffff16635817f0c68760600151836040518363ffffffff1660e01b8152600401612ec6929190614962565b600060405180830381600087803b158015612ee057600080fd5b505af1158015612ef4573d6000803e3d6000fd5b50505050505b5b5b5b5050505050565b600760009054906101000a900473ffffffffffffffffffffffffffffffffffffffff1681565b612f32614199565b60056000836fffffffffffffffffffffffffffffffff166fffffffffffffffffffffffffffffffff168152602001908152602001600020604051806080016040529081600082015481526020016001820160009054906101000a900460ff166003811115612fa357612fa2615039565b5b6003811115612fb557612fb4615039565b5b81526020016001820160019054906101000a900464ffffffffff1664ffffffffff1664ffffffffff1681526020016001820160069054906101000a900473ffffffffffffffffffffffffffffffffffffffff1673ffffffffffffffffffffffffffffffffffffffff1673ffffffffffffffffffffffffffffffffffffffff16815250509050919050565b600260109054906101000a90046fffffffffffffffffffffffffffffffff1681565b600160009054906101000a900473ffffffffffffffffffffffffffffffffffffffff1681565b61308f613b3b565b73ffffffffffffffffffffffffffffffffffffffff166130ad611ffe565b73ffffffffffffffffffffffffffffffffffffffff1614613103576040517f08c379a00000000000000000000000000000000000000000000000000000000081526004016130fa90614b42565b60405180910390fd5b600073ffffffffffffffffffffffffffffffffffffffff168173ffffffffffffffffffffffffffffffffffffffff161415613173576040517f08c379a000000000000000000000000000000000000000000000000000000000815260040161316a90614a82565b60405180910390fd5b61317c81613b43565b50565b600860009054906101000a900473ffffffffffffffffffffffffffffffffffffffff1673ffffffffffffffffffffffffffffffffffffffff163373ffffffffffffffffffffffffffffffffffffffff161461320f576040517f08c379a000000000000000000000000000000000000000000000000000000000815260040161320690614bc2565b60405180910390fd5b6000816fffffffffffffffffffffffffffffffff1611613264576040517f08c379a000000000000000000000000000000000000000000000000000000000815260040161325b90614a22565b60405180910390fd5b80600460006101000a8154816fffffffffffffffffffffffffffffffff02191690836fffffffffffffffffffffffffffffffff16021790555050565b600360009054906101000a90046fffffffffffffffffffffffffffffffff1681565b600760009054906101000a900473ffffffffffffffffffffffffffffffffffffffff1673ffffffffffffffffffffffffffffffffffffffff163373ffffffffffffffffffffffffffffffffffffffff1614613352576040517f08c379a000000000000000000000000000000000000000000000000000000000815260040161334990614b62565b60405180910390fd5b600073ffffffffffffffffffffffffffffffffffffffff168273ffffffffffffffffffffffffffffffffffffffff1614156133c2576040517f08c379a00000000000000000000000000000000000000000000000000000000081526004016133b990614a42565b60405180910390fd5b600073ffffffffffffffffffffffffffffffffffffffff168173ffffffffffffffffffffffffffffffffffffffff161415613432576040517f08c379a000000000000000000000000000000000000000000000000000000000815260040161342990614aa2565b60405180910390fd5b80600160006101000a81548173ffffffffffffffffffffffffffffffffffffffff021916908373ffffffffffffffffffffffffffffffffffffffff16021790555060008290508073ffffffffffffffffffffffffffffffffffffffff1663095ea7b3600160009054906101000a900473ffffffffffffffffffffffffffffffffffffffff168373ffffffffffffffffffffffffffffffffffffffff166318160ddd6040518163ffffffff1660e01b815260040160206040518083038186803b1580156134fd57600080fd5b505afa158015613511573d6000803e3d6000fd5b505050506040513d601f19601f8201168201806040525081019061353591906145b4565b6040518363ffffffff1660e01b8152600401613552929190614962565b602060405180830381600087803b15801561356c57600080fd5b505af1158015613580573d6000803e3d6000fd5b505050506040513d601f19601f820116820180604052508101906135a49190614466565b50505050565b60006135b98360200151610fda565b9050826000015160066000838152602001908152602001600020546135de9190614e72565b60066000838152602001908152602001600020819055508260200151600381111561360c5761360b615039565b5b8360000151836fffffffffffffffffffffffffffffffff167f2f2b9ec00f96da9afe52a06f4a0392b84a333e3718b29186681f51ddfe7c593b60405160405180910390a460056000836fffffffffffffffffffffffffffffffff166fffffffffffffffffffffffffffffffff1681526020019081526020016000206000808201600090556001820160006101000a81549060ff02191690556001820160016101000a81549064ffffffffff02191690556001820160066101000a81549073ffffffffffffffffffffffffffffffffffffffff02191690555050816fffffffffffffffffffffffffffffffff16600260009054906101000a90046fffffffffffffffffffffffffffffffff166fffffffffffffffffffffffffffffffff16141561379e576001600260008282829054906101000a90046fffffffffffffffffffffffffffffffff1661375d9190614da2565b92506101000a8154816fffffffffffffffffffffffffffffffff02191690836fffffffffffffffffffffffffffffffff16021790555061379d6000613c07565b5b816fffffffffffffffffffffffffffffffff16600260109054906101000a90046fffffffffffffffffffffffffffffffff166fffffffffffffffffffffffffffffffff1614801561383157506fffffffffffffffffffffffffffffffff8016600260009054906101000a90046fffffffffffffffffffffffffffffffff166fffffffffffffffffffffffffffffffff1614155b156138a5576001600260108282829054906101000a90046fffffffffffffffffffffffffffffffff166138649190614e3e565b92506101000a8154816fffffffffffffffffffffffffffffffff02191690836fffffffffffffffffffffffffffffffff1602179055506138a46001613c07565b5b600260038111156138b9576138b8615039565b5b836020015160038111156138d0576138cf615039565b5b14806139045750600060038111156138eb576138ea615039565b5b8360200151600381111561390257613901615039565b5b145b156139a157600160009054906101000a900473ffffffffffffffffffffffffffffffffffffffff1673ffffffffffffffffffffffffffffffffffffffff16635817f0c63385600001516040518363ffffffff1660e01b815260040161396a929190614962565b600060405180830381600087803b15801561398457600080fd5b505af1158015613998573d6000803e3d6000fd5b50505050613b36565b6003808111156139b4576139b3615039565b5b836020015160038111156139cb576139ca615039565b5b1415613a6c57600160009054906101000a900473ffffffffffffffffffffffffffffffffffffffff1673ffffffffffffffffffffffffffffffffffffffff166375c66e2f60008560000151336040518463ffffffff1660e01b8152600401613a35939291906149b4565b600060405180830381600087803b158015613a4f57600080fd5b505af1158015613a63573d6000803e3d6000fd5b50505050613b35565b60016003811115613a8057613a7f615039565b5b83602001516003811115613a9757613a96615039565b5b1415613b3457600160009054906101000a900473ffffffffffffffffffffffffffffffffffffffff1673ffffffffffffffffffffffffffffffffffffffff166375c66e2f60018560000151336040518463ffffffff1660e01b8152600401613b01939291906149eb565b600060405180830381600087803b158015613b1b57600080fd5b505af1158015613b2f573d6000803e3d6000fd5b505050505b5b5b505050565b600033905090565b60008060009054906101000a900473ffffffffffffffffffffffffffffffffffffffff169050816000806101000a81548173ffffffffffffffffffffffffffffffffffffffff021916908373ffffffffffffffffffffffffffffffffffffffff1602179055508173ffffffffffffffffffffffffffffffffffffffff168173ffffffffffffffffffffffffffffffffffffffff167f8be0079c531659141344cd1fd0a4f28419497f9722a3daafe3b4186f6b6457e060405160405180910390a35050565b60006001811115613c1b57613c1a615039565b5b816001811115613c2e57613c2d615039565b5b1415613ecf576000600260009054906101000a90046fffffffffffffffffffffffffffffffff1690505b600260109054906101000a90046fffffffffffffffffffffffffffffffff166fffffffffffffffffffffffffffffffff16816fffffffffffffffffffffffffffffffff1611613dfb57600060056000836fffffffffffffffffffffffffffffffff166fffffffffffffffffffffffffffffffff168152602001908152602001600020604051806080016040529081600082015481526020016001820160009054906101000a900460ff166003811115613d1457613d13615039565b5b6003811115613d2657613d25615039565b5b81526020016001820160019054906101000a900464ffffffffff1664ffffffffff1664ffffffffff1681526020016001820160069054906101000a900473ffffffffffffffffffffffffffffffffffffffff1673ffffffffffffffffffffffffffffffffffffffff1673ffffffffffffffffffffffffffffffffffffffff16815250509050600073ffffffffffffffffffffffffffffffffffffffff16816060015173ffffffffffffffffffffffffffffffffffffffff161415613df957600182613df19190614da2565b915050613c58565b505b600260109054906101000a90046fffffffffffffffffffffffffffffffff166fffffffffffffffffffffffffffffffff16816fffffffffffffffffffffffffffffffff161115613e93576fffffffffffffffffffffffffffffffff600260006101000a8154816fffffffffffffffffffffffffffffffff02191690836fffffffffffffffffffffffffffffffff160217905550613ecd565b80600260006101000a8154816fffffffffffffffffffffffffffffffff02191690836fffffffffffffffffffffffffffffffff1602179055505b505b600180811115613ee257613ee1615039565b5b816001811115613ef557613ef4615039565b5b1415614196576000600260109054906101000a90046fffffffffffffffffffffffffffffffff1690505b600260009054906101000a90046fffffffffffffffffffffffffffffffff166fffffffffffffffffffffffffffffffff16816fffffffffffffffffffffffffffffffff16106140c257600060056000836fffffffffffffffffffffffffffffffff166fffffffffffffffffffffffffffffffff168152602001908152602001600020604051806080016040529081600082015481526020016001820160009054906101000a900460ff166003811115613fdb57613fda615039565b5b6003811115613fed57613fec615039565b5b81526020016001820160019054906101000a900464ffffffffff1664ffffffffff1664ffffffffff1681526020016001820160069054906101000a900473ffffffffffffffffffffffffffffffffffffffff1673ffffffffffffffffffffffffffffffffffffffff1673ffffffffffffffffffffffffffffffffffffffff16815250509050600073ffffffffffffffffffffffffffffffffffffffff16816060015173ffffffffffffffffffffffffffffffffffffffff1614156140c0576001826140b89190614e3e565b915050613f1f565b505b600260009054906101000a90046fffffffffffffffffffffffffffffffff166fffffffffffffffffffffffffffffffff16816fffffffffffffffffffffffffffffffff16101561415a576fffffffffffffffffffffffffffffffff600260006101000a8154816fffffffffffffffffffffffffffffffff02191690836fffffffffffffffffffffffffffffffff160217905550614194565b80600260106101000a8154816fffffffffffffffffffffffffffffffff02191690836fffffffffffffffffffffffffffffffff1602179055505b505b50565b604051806080016040528060008152602001600060038111156141bf576141be615039565b5b8152602001600064ffffffffff168152602001600073ffffffffffffffffffffffffffffffffffffffff1681525090565b60006142036141fe84614d6b565b614d46565b9050808285602086028201111561421d5761421c6150d0565b5b60005b8581101561424d5781614233888261426c565b845260208401935060208301925050600181019050614220565b5050509392505050565b600081359050614266816153d5565b92915050565b60008151905061427b816153d5565b92915050565b600082601f830112614296576142956150c6565b5b60026142a38482856141f0565b91505092915050565b6000815190506142bb816153ec565b92915050565b6000815190506142d081615403565b92915050565b6000813590506142e58161541a565b92915050565b600060808284031215614301576143006150cb565b5b61430b6080614d46565b9050600061431b84828501614378565b600083015250602061432f848285016142d6565b6020830152506040614343848285016143b7565b604083015250606061435784828501614257565b60608301525092915050565b6000813590506143728161542a565b92915050565b60008135905061438781615441565b92915050565b60008151905061439c81615441565b92915050565b6000815190506143b181615458565b92915050565b6000813590506143c68161546f565b92915050565b6000602082840312156143e2576143e16150d5565b5b60006143f084828501614257565b91505092915050565b600080604083850312156144105761440f6150d5565b5b600061441e85828601614257565b925050602061442f85828601614257565b9150509250929050565b60006040828403121561444f5761444e6150d5565b5b600061445d84828501614281565b91505092915050565b60006020828403121561447c5761447b6150d5565b5b600061448a848285016142ac565b91505092915050565b6000602082840312156144a9576144a86150d5565b5b60006144b7848285016142c1565b91505092915050565b6000602082840312156144d6576144d56150d5565b5b60006144e4848285016142d6565b91505092915050565b60008060408385031215614504576145036150d5565b5b6000614512858286016142d6565b925050602061452385828601614378565b9150509250929050565b600060808284031215614543576145426150d5565b5b6000614551848285016142eb565b91505092915050565b6000602082840312156145705761456f6150d5565b5b600061457e84828501614363565b91505092915050565b60006020828403121561459d5761459c6150d5565b5b60006145ab84828501614378565b91505092915050565b6000602082840312156145ca576145c96150d5565b5b60006145d88482850161438d565b91505092915050565b6000602082840312156145f7576145f66150d5565b5b6000614605848285016143a2565b91505092915050565b61461781614ea6565b82525050565b61462681614ea6565b82525050565b61463581614ec4565b82525050565b61464481614f6a565b82525050565b61465381614f6a565b82525050565b61466281614f7c565b82525050565b61467181614f8e565b82525050565b6000614684601883614d91565b915061468f826150eb565b602082019050919050565b60006146a7602783614d91565b91506146b282615114565b604082019050919050565b60006146ca600c83614d91565b91506146d582615163565b602082019050919050565b60006146ed602683614d91565b91506146f88261518c565b604082019050919050565b6000614710602a83614d91565b915061471b826151db565b604082019050919050565b6000614733601783614d91565b915061473e8261522a565b602082019050919050565b6000614756601883614d91565b915061476182615253565b602082019050919050565b6000614779601383614d91565b91506147848261527c565b602082019050919050565b600061479c602983614d91565b91506147a7826152a5565b604082019050919050565b60006147bf602083614d91565b91506147ca826152f4565b602082019050919050565b60006147e2601583614d91565b91506147ed8261531d565b602082019050919050565b6000614805601c83614d91565b915061481082615346565b602082019050919050565b6000614828601c83614d91565b91506148338261536f565b602082019050919050565b600061484b601983614d91565b915061485682615398565b602082019050919050565b60808201600082015161487760008501826148c5565b50602082015161488a602085018261463b565b50604082015161489d60408501826148f2565b5060608201516148b0606085018261460e565b50505050565b6148bf81614f03565b82525050565b6148ce81614f3f565b82525050565b6148dd81614f3f565b82525050565b6148ec81614f3f565b82525050565b6148fb81614f59565b82525050565b61490a81614f59565b82525050565b6000602082019050614925600083018461461d565b92915050565b6000606082019050614940600083018661461d565b61494d602083018561461d565b61495a60408301846148d4565b949350505050565b6000604082019050614977600083018561461d565b61498460208301846148d4565b9392505050565b60006040820190506149a0600083018561462c565b6149ad60208301846148e3565b9392505050565b60006060820190506149c96000830186614659565b6149d660208301856148d4565b6149e3604083018461461d565b949350505050565b6000606082019050614a006000830186614668565b614a0d60208301856148d4565b614a1a604083018461461d565b949350505050565b60006020820190508181036000830152614a3b81614677565b9050919050565b60006020820190508181036000830152614a5b8161469a565b9050919050565b60006020820190508181036000830152614a7b816146bd565b9050919050565b60006020820190508181036000830152614a9b816146e0565b9050919050565b60006020820190508181036000830152614abb81614703565b9050919050565b60006020820190508181036000830152614adb81614726565b9050919050565b60006020820190508181036000830152614afb81614749565b9050919050565b60006020820190508181036000830152614b1b8161476c565b9050919050565b60006020820190508181036000830152614b3b8161478f565b9050919050565b60006020820190508181036000830152614b5b816147b2565b9050919050565b60006020820190508181036000830152614b7b816147d5565b9050919050565b60006020820190508181036000830152614b9b816147f8565b9050919050565b60006020820190508181036000830152614bbb8161481b565b9050919050565b60006020820190508181036000830152614bdb8161483e565b9050919050565b6000608082019050614bf76000830184614861565b92915050565b6000602082019050614c1260008301846148b6565b92915050565b6000602082019050614c2d60008301846148d4565b92915050565b6000608082019050614c4860008301876148d4565b614c55602083018661464a565b614c626040830185614901565b614c6f606083018461461d565b95945050505050565b6000604082019050614c8d60008301856148e3565b614c9a60208301846148e3565b9392505050565b6000604082019050614cb660008301856148d4565b614cc360208301846148d4565b9392505050565b6000606082019050614cdf60008301866148e3565b614cec60208301856148e3565b614cf960408301846148e3565b949350505050565b6000608082019050614d1660008301876148e3565b614d2360208301866148e3565b614d3060408301856148e3565b614d3d60608301846148e3565b95945050505050565b6000614d50614d61565b9050614d5c8282614fa0565b919050565b6000604051905090565b600067ffffffffffffffff821115614d8657614d85615097565b5b602082029050919050565b600082825260208201905092915050565b6000614dad82614f03565b9150614db883614f03565b9250826fffffffffffffffffffffffffffffffff03821115614ddd57614ddc61500a565b5b828201905092915050565b6000614df382614f3f565b9150614dfe83614f3f565b9250827fffffffffffffffffffffffffffffffffffffffffffffffffffffffffffffffff03821115614e3357614e3261500a565b5b828201905092915050565b6000614e4982614f03565b9150614e5483614f03565b925082821015614e6757614e6661500a565b5b828203905092915050565b6000614e7d82614f3f565b9150614e8883614f3f565b925082821015614e9b57614e9a61500a565b5b828203905092915050565b6000614eb182614f1f565b9050919050565b60008115159050919050565b60007fffffffffffffffffffffffffffffffff0000000000000000000000000000000082169050919050565b6000819050614efe826153c1565b919050565b60006fffffffffffffffffffffffffffffffff82169050919050565b600073ffffffffffffffffffffffffffffffffffffffff82169050919050565b6000819050919050565b600063ffffffff82169050919050565b600064ffffffffff82169050919050565b6000614f7582614ef0565b9050919050565b6000614f8782614f3f565b9050919050565b6000614f9982614f3f565b9050919050565b614fa9826150da565b810181811067ffffffffffffffff82111715614fc857614fc7615097565b5b80604052505050565b6000614fdc82614f03565b91506fffffffffffffffffffffffffffffffff821415614fff57614ffe61500a565b5b600182019050919050565b7f4e487b7100000000000000000000000000000000000000000000000000000000600052601160045260246000fd5b7f4e487b7100000000000000000000000000000000000000000000000000000000600052602160045260246000fd5b7f4e487b7100000000000000000000000000000000000000000000000000000000600052603260045260246000fd5b7f4e487b7100000000000000000000000000000000000000000000000000000000600052604160045260246000fd5b600080fd5b600080fd5b600080fd5b600080fd5b6000601f19601f8301169050919050565b7f436f6d6d6974207175657565206d757374206265203e20300000000000000000600082015250565b7f51756f746520746f6b656e20616464726573732063616e6e6f7420626520302060008201527f6164647265737300000000000000000000000000000000000000000000000000602082015250565b7f556e617574686f72697a65640000000000000000000000000000000000000000600082015250565b7f4f776e61626c653a206e6577206f776e657220697320746865207a65726f206160008201527f6464726573730000000000000000000000000000000000000000000000000000602082015250565b7f4c657665726167656420706f6f6c20616464726573732063616e6e6f7420626560008201527f2030206164647265737300000000000000000000000000000000000000000000602082015250565b7f416d6f756e74206d757374206e6f74206265207a65726f000000000000000000600082015250565b7f416d6f756e74206c657373207468616e206d696e696d756d0000000000000000600082015250565b7f6d73672e73656e646572206e6f742073656c6600000000000000000000000000600082015250565b7f4d75737420756e636f6d6d6974206265666f72652066726f6e7452756e6e696e60008201527f67496e74657276616c0000000000000000000000000000000000000000000000602082015250565b7f4f776e61626c653a2063616c6c6572206973206e6f7420746865206f776e6572600082015250565b7f436f6d6d697465723a206e6f7420666163746f72790000000000000000000000600082015250565b7f6d73672e73656e646572206e6f74206c6576657261676564506f6f6c00000000600082015250565b7f546f6f206d616e7920636f6d6d69747320696e20696e74657276616c00000000600082015250565b7f6d73672e73656e646572206e6f7420676f7665726e616e636500000000000000600082015250565b600481106153d2576153d1615039565b5b50565b6153de81614ea6565b81146153e957600080fd5b50565b6153f581614eb8565b811461540057600080fd5b50565b61540c81614ec4565b811461541757600080fd5b50565b6004811061542757600080fd5b50565b61543381614f03565b811461543e57600080fd5b50565b61544a81614f3f565b811461545557600080fd5b50565b61546181614f49565b811461546c57600080fd5b50565b61547881614f59565b811461548357600080fd5b5056fea264697066735822122035b6a43b29f31b39c1d1b02cdd766921302badf6e4cfbff9947b2e9b2e4f0dfa64736f6c63430008070033a264697066735822122081a947e6740055bcf08c1db6075a4024c5231d7ecec47a305accc5511a9b596a64736f6c63430008070033",
  "deployedBytecode": "0x608060405234801561001057600080fd5b50600436106100365760003560e01c8063960419831461003b578063c45a01551461006b575b600080fd5b610055600480360381019061005091906101c1565b610089565b6040516100629190610242565b60405180910390f35b61007361017a565b6040516100809190610242565b60405180910390f35b60008060009054906101000a900473ffffffffffffffffffffffffffffffffffffffff1673ffffffffffffffffffffffffffffffffffffffff163373ffffffffffffffffffffffffffffffffffffffff161461011a576040517f08c379a000000000000000000000000000000000000000000000000000000000815260040161011190610294565b60405180910390fd5b60008054906101000a900473ffffffffffffffffffffffffffffffffffffffff1683836040516101499061019e565b6101559392919061025d565b604051809103906000f080158015610171573d6000803e3d6000fd5b50905092915050565b60008054906101000a900473ffffffffffffffffffffffffffffffffffffffff1681565b61591f806200035983390190565b6000813590506101bb81610341565b92915050565b600080604083850312156101d8576101d7610313565b5b60006101e6858286016101ac565b92505060206101f7858286016101ac565b9150509250929050565b61020a816102c5565b82525050565b600061021d6016836102b4565b915061022882610318565b602082019050919050565b61023c816102d7565b82525050565b60006020820190506102576000830184610201565b92915050565b60006060820190506102726000830186610201565b61027f6020830185610233565b61028c6040830184610233565b949350505050565b600060208201905081810360008301526102ad81610210565b9050919050565b600082825260208201905092915050565b60006102d0826102f3565b9050919050565b60006fffffffffffffffffffffffffffffffff82169050919050565b600073ffffffffffffffffffffffffffffffffffffffff82169050919050565b600080fd5b7f6d73672e73656e646572206e6f7420666163746f727900000000000000000000600082015250565b61034a816102d7565b811461035557600080fd5b5056fe60806040526fffffffffffffffffffffffffffffffff600260006101000a8154816fffffffffffffffffffffffffffffffff02191690836fffffffffffffffffffffffffffffffff1602179055503480156200005a57600080fd5b506040516200591f3803806200591f83398181016040528101906200008091906200036e565b620000a0620000946200024260201b60201c565b6200024a60201b60201c565b82600760006101000a81548173ffffffffffffffffffffffffffffffffffffffff021916908373ffffffffffffffffffffffffffffffffffffffff16021790555081600360106101000a8154816fffffffffffffffffffffffffffffffff02191690836fffffffffffffffffffffffffffffffff16021790555080600460006101000a8154816fffffffffffffffffffffffffffffffff02191690836fffffffffffffffffffffffffffffffff160217905550600760009054906101000a900473ffffffffffffffffffffffffffffffffffffffff1673ffffffffffffffffffffffffffffffffffffffff1663893d20e86040518163ffffffff1660e01b8152600401602060405180830381600087803b158015620001be57600080fd5b505af1158015620001d3573d6000803e3d6000fd5b505050506040513d601f19601f82011682018060405250810190620001f991906200033c565b600860006101000a81548173ffffffffffffffffffffffffffffffffffffffff021916908373ffffffffffffffffffffffffffffffffffffffff16021790555050505062000453565b600033905090565b60008060009054906101000a900473ffffffffffffffffffffffffffffffffffffffff169050816000806101000a81548173ffffffffffffffffffffffffffffffffffffffff021916908373ffffffffffffffffffffffffffffffffffffffff1602179055508173ffffffffffffffffffffffffffffffffffffffff168173ffffffffffffffffffffffffffffffffffffffff167f8be0079c531659141344cd1fd0a4f28419497f9722a3daafe3b4186f6b6457e060405160405180910390a35050565b6000815190506200031f816200041f565b92915050565b600081519050620003368162000439565b92915050565b6000602082840312156200035557620003546200041a565b5b600062000365848285016200030e565b91505092915050565b6000806000606084860312156200038a57620003896200041a565b5b60006200039a868287016200030e565b9350506020620003ad8682870162000325565b9250506040620003c08682870162000325565b9150509250925092565b6000620003d782620003fa565b9050919050565b60006fffffffffffffffffffffffffffffffff82169050919050565b600073ffffffffffffffffffffffffffffffffffffffff82169050919050565b600080fd5b6200042a81620003ca565b81146200043657600080fd5b50565b6200044481620003de565b81146200045057600080fd5b50565b6154bc80620004636000396000f3fe608060405234801561001057600080fd5b50600436106101585760003560e01c80638bf13f82116100c3578063d44b1ff31161007c578063d44b1ff314610394578063e323aac6146103b2578063f2fde38b146103d0578063f9495c9c146103ec578063f9a0e14e14610408578063fd555fb91461042657610158565b80638bf13f82146102d05780638da5cb5b146102ee5780639eda0cc21461030c578063b3fecffe1461032a578063c45a015514610346578063caf4c2c51461036457610158565b80635aa6e675116101155780635aa6e67514610222578063605814fc1461024057806364d5366014610270578063685544a61461028e578063715018a6146102aa578063822255de146102b457610158565b80631c536da41461015d57806329075d711461016757806330f752601461019a57806341397577146101b85780634b2ec831146101e857806351b450f614610206575b600080fd5b610165610442565b005b610181600480360381019061017c919061455a565b610ae7565b6040516101919493929190614c33565b60405180910390f35b6101a2610b55565b6040516101af9190614bfd565b60405180910390f35b6101d260048036038101906101cd9190614587565b610b69565b6040516101df9190614c18565b60405180910390f35b6101f0610b81565b6040516101fd9190614bfd565b60405180910390f35b610220600480360381019061021b919061455a565b610ba3565b005b61022a610fb4565b6040516102379190614910565b60405180910390f35b61025a600480360381019061025591906144c0565b610fda565b6040516102679190614c18565b60405180910390f35b6102786110bc565b6040516102859190614bfd565b60405180910390f35b6102a860048036038101906102a3919061455a565b6110de565b005b6102b26111aa565b005b6102ce60048036038101906102c991906144ed565b611232565b005b6102d8611fdc565b6040516102e59190614bfd565b60405180910390f35b6102f6611ffe565b6040516103039190614910565b60405180910390f35b610314612027565b6040516103219190614bfd565b60405180910390f35b610344600480360381019061033f919061452d565b612049565b005b61034e612f04565b60405161035b9190614910565b60405180910390f35b61037e6004803603810190610379919061455a565b612f2a565b60405161038b9190614be2565b60405180910390f35b61039c61303f565b6040516103a99190614bfd565b60405180910390f35b6103ba613061565b6040516103c79190614910565b60405180910390f35b6103ea60048036038101906103e591906143cc565b613087565b005b6104066004803603810190610401919061455a565b61317f565b005b6104106132a0565b60405161041d9190614bfd565b60405180910390f35b610440600480360381019061043b91906143f9565b6132c2565b005b600160009054906101000a900473ffffffffffffffffffffffffffffffffffffffff1673ffffffffffffffffffffffffffffffffffffffff163373ffffffffffffffffffffffffffffffffffffffff16146104d2576040517f08c379a00000000000000000000000000000000000000000000000000000000081526004016104c990614b82565b60405180910390fd5b6fffffffffffffffffffffffffffffffff8016600260009054906101000a90046fffffffffffffffffffffffffffffffff166fffffffffffffffffffffffffffffffff16141561052157610ae5565b6000600460106101000a8154816fffffffffffffffffffffffffffffffff02191690836fffffffffffffffffffffffffffffffff160217905550600080600160009054906101000a900473ffffffffffffffffffffffffffffffffffffffff16905060008173ffffffffffffffffffffffffffffffffffffffff16637bfe789a6040518163ffffffff1660e01b815260040160206040518083038186803b1580156105cb57600080fd5b505afa1580156105df573d6000803e3d6000fd5b505050506040513d601f19601f8201168201806040525081019061060391906145e1565b63ffffffff16905060008273ffffffffffffffffffffffffffffffffffffffff16637de93f936040518163ffffffff1660e01b815260040160206040518083038186803b15801561065357600080fd5b505afa158015610667573d6000803e3d6000fd5b505050506040513d601f19601f8201168201806040525081019061068b91906145b4565b90506000600260009054906101000a90046fffffffffffffffffffffffffffffffff1690505b600260109054906101000a90046fffffffffffffffffffffffffffffffff166fffffffffffffffffffffffffffffffff16816fffffffffffffffffffffffffffffffff1611610aa657600060056000836fffffffffffffffffffffffffffffffff166fffffffffffffffffffffffffffffffff168152602001908152602001600020604051806080016040529081600082015481526020016001820160009054906101000a900460ff16600381111561076d5761076c615039565b5b600381111561077f5761077e615039565b5b81526020016001820160019054906101000a900464ffffffffff1664ffffffffff1664ffffffffff1681526020016001820160069054906101000a900473ffffffffffffffffffffffffffffffffffffffff1673ffffffffffffffffffffffffffffffffffffffff1673ffffffffffffffffffffffffffffffffffffffff16815250509050819550600073ffffffffffffffffffffffffffffffffffffffff16816060015173ffffffffffffffffffffffffffffffffffffffff1614156108555760018661084d9190614da2565b955050610a93565b83816040015164ffffffffff168461086d9190614e72565b116108785750610aa6565b7f53e7d7eb888194c67870ec86b8523606069fb6eeeab81f458a6065b9e88defa9826040516108a79190614bfd565b60405180910390a13073ffffffffffffffffffffffffffffffffffffffff1663b3fecffe826040518263ffffffff1660e01b81526004016108e89190614be2565b600060405180830381600087803b15801561090257600080fd5b505af1925050508015610913575060015b61095d5761092181836135aa565b7f089a8e68b5afa612f76f7ec1235a9d9d07e0d79462a6b0d862aaa0ac035426c1826040516109509190614bfd565b60405180910390a16109f3565b60056000836fffffffffffffffffffffffffffffffff166fffffffffffffffffffffffffffffffff1681526020019081526020016000206000808201600090556001820160006101000a81549060ff02191690556001820160016101000a81549064ffffffffff02191690556001820160066101000a81549073ffffffffffffffffffffffffffffffffffffffff021916905550505b600260109054906101000a90046fffffffffffffffffffffffffffffffff166fffffffffffffffffffffffffffffffff16826fffffffffffffffffffffffffffffffff161415610a91576fffffffffffffffffffffffffffffffff600260006101000a8154816fffffffffffffffffffffffffffffffff02191690836fffffffffffffffffffffffffffffffff160217905550505050505050610ae5565b505b8080610a9e90614fd1565b9150506106b1565b5083600260006101000a8154816fffffffffffffffffffffffffffffffff02191690836fffffffffffffffffffffffffffffffff160217905550505050505b565b60056020528060005260406000206000915090508060000154908060010160009054906101000a900460ff16908060010160019054906101000a900464ffffffffff16908060010160069054906101000a900473ffffffffffffffffffffffffffffffffffffffff16905084565b6fffffffffffffffffffffffffffffffff81565b60066020528060005260406000206000915090505481565b600360109054906101000a90046fffffffffffffffffffffffffffffffff1681565b600060056000836fffffffffffffffffffffffffffffffff166fffffffffffffffffffffffffffffffff168152602001908152602001600020604051806080016040529081600082015481526020016001820160009054906101000a900460ff166003811115610c1657610c15615039565b5b6003811115610c2857610c27615039565b5b81526020016001820160019054906101000a900464ffffffffff1664ffffffffff1664ffffffffff1681526020016001820160069054906101000a900473ffffffffffffffffffffffffffffffffffffffff1673ffffffffffffffffffffffffffffffffffffffff1673ffffffffffffffffffffffffffffffffffffffff168152505090506000600160009054906101000a900473ffffffffffffffffffffffffffffffffffffffff16905060008173ffffffffffffffffffffffffffffffffffffffff16637de93f936040518163ffffffff1660e01b815260040160206040518083038186803b158015610d1c57600080fd5b505afa158015610d30573d6000803e3d6000fd5b505050506040513d601f19601f82011682018060405250810190610d5491906145b4565b905060008273ffffffffffffffffffffffffffffffffffffffff16637bfe789a6040518163ffffffff1660e01b815260040160206040518083038186803b158015610d9e57600080fd5b505afa158015610db2573d6000803e3d6000fd5b505050506040513d601f19601f82011682018060405250810190610dd691906145e1565b63ffffffff16905060008373ffffffffffffffffffffffffffffffffffffffff1663fd2c80ae6040518163ffffffff1660e01b815260040160206040518083038186803b158015610e2657600080fd5b505afa158015610e3a573d6000803e3d6000fd5b505050506040513d601f19601f82011682018060405250810190610e5e91906145e1565b63ffffffff16905073__$dc3b4b0a367edd91a2d74c73e2da54c142$__63aaa578b28483856040518463ffffffff1660e01b8152600401610ea193929190614cca565b60206040518083038186803b158015610eb957600080fd5b505af4158015610ecd573d6000803e3d6000fd5b505050506040513d601f19601f82011682018060405250810190610ef19190614466565b610f30576040517f08c379a0000000000000000000000000000000000000000000000000000000008152600401610f2790614b22565b60405180910390fd5b846060015173ffffffffffffffffffffffffffffffffffffffff163373ffffffffffffffffffffffffffffffffffffffff1614610fa2576040517f08c379a0000000000000000000000000000000000000000000000000000000008152600401610f9990614a62565b60405180910390fd5b610fac85876135aa565b505050505050565b600860009054906101000a900473ffffffffffffffffffffffffffffffffffffffff1681565b6000806003811115610fef57610fee615039565b5b82600381111561100257611001615039565b5b141561101157600090506110b7565b6001600381111561102557611024615039565b5b82600381111561103857611037615039565b5b141561104757600190506110b7565b6002600381111561105b5761105a615039565b5b82600381111561106e5761106d615039565b5b141561107d57600290506110b7565b6003808111156110905761108f615039565b5b8260038111156110a3576110a2615039565b5b14156110b257600390506110b7565b600090505b919050565b600460009054906101000a90046fffffffffffffffffffffffffffffffff1681565b600860009054906101000a900473ffffffffffffffffffffffffffffffffffffffff1673ffffffffffffffffffffffffffffffffffffffff163373ffffffffffffffffffffffffffffffffffffffff161461116e576040517f08c379a000000000000000000000000000000000000000000000000000000000815260040161116590614bc2565b60405180910390fd5b80600360106101000a8154816fffffffffffffffffffffffffffffffff02191690836fffffffffffffffffffffffffffffffff16021790555050565b6111b2613b3b565b73ffffffffffffffffffffffffffffffffffffffff166111d0611ffe565b73ffffffffffffffffffffffffffffffffffffffff1614611226576040517f08c379a000000000000000000000000000000000000000000000000000000000815260040161121d90614b42565b60405180910390fd5b6112306000613b43565b565b600460009054906101000a90046fffffffffffffffffffffffffffffffff166fffffffffffffffffffffffffffffffff16600460109054906101000a90046fffffffffffffffffffffffffffffffff166fffffffffffffffffffffffffffffffff16106112d4576040517f08c379a00000000000000000000000000000000000000000000000000000000081526004016112cb90614ba2565b60405180910390fd5b6001600460108282829054906101000a90046fffffffffffffffffffffffffffffffff166113029190614da2565b92506101000a8154816fffffffffffffffffffffffffffffffff02191690836fffffffffffffffffffffffffffffffff1602179055506000811161137b576040517f08c379a000000000000000000000000000000000000000000000000000000000815260040161137290614ac2565b60405180910390fd5b6000600360009054906101000a90046fffffffffffffffffffffffffffffffff1690506001816113ab9190614da2565b600360006101000a8154816fffffffffffffffffffffffffffffffff02191690836fffffffffffffffffffffffffffffffff1602179055506000600160009054906101000a900473ffffffffffffffffffffffffffffffffffffffff169050604051806080016040528084815260200185600381111561142e5761142d615039565b5b81526020014264ffffffffff1681526020013373ffffffffffffffffffffffffffffffffffffffff1681525060056000846fffffffffffffffffffffffffffffffff166fffffffffffffffffffffffffffffffff1681526020019081526020016000206000820151816000015560208201518160010160006101000a81548160ff021916908360038111156114c6576114c5615039565b5b021790555060408201518160010160016101000a81548164ffffffffff021916908364ffffffffff16021790555060608201518160010160066101000a81548173ffffffffffffffffffffffffffffffffffffffff021916908373ffffffffffffffffffffffffffffffffffffffff160217905550905050600061154985610fda565b905083600660008381526020019081526020016000205461156a9190614de8565b60066000838152602001908152602001600020819055506fffffffffffffffffffffffffffffffff8016600260009054906101000a90046fffffffffffffffffffffffffffffffff166fffffffffffffffffffffffffffffffff1614156116055782600260006101000a8154816fffffffffffffffffffffffffffffffff02191690836fffffffffffffffffffffffffffffffff1602179055505b82600260106101000a8154816fffffffffffffffffffffffffffffffff02191690836fffffffffffffffffffffffffffffffff16021790555084600381111561165157611650615039565b5b84846fffffffffffffffffffffffffffffffff167feeb519088468e5ea7765bbf8c4464c3bde5ff110d8de10ee5db057be2599d1fc60405160405180910390a460008273ffffffffffffffffffffffffffffffffffffffff1663ba8d54686040518163ffffffff1660e01b815260040160206040518083038186803b1580156116d957600080fd5b505afa1580156116ed573d6000803e3d6000fd5b505050506040513d601f19601f8201168201806040525081019061171191906145b4565b905060008373ffffffffffffffffffffffffffffffffffffffff16637e71fc7d6040518163ffffffff1660e01b815260040160206040518083038186803b15801561175b57600080fd5b505afa15801561176f573d6000803e3d6000fd5b505050506040513d601f19601f8201168201806040525081019061179391906145b4565b9050600260038111156117a9576117a8615039565b5b8760038111156117bc576117bb615039565b5b14806117ec5750600060038111156117d7576117d6615039565b5b8760038111156117ea576117e9615039565b5b145b156118fa57600360109054906101000a90046fffffffffffffffffffffffffffffffff166fffffffffffffffffffffffffffffffff16861015611864576040517f08c379a000000000000000000000000000000000000000000000000000000000815260040161185b90614ae2565b60405180910390fd5b8373ffffffffffffffffffffffffffffffffffffffff16637b0a0c9033600160009054906101000a900473ffffffffffffffffffffffffffffffffffffffff16896040518463ffffffff1660e01b81526004016118c39392919061492b565b600060405180830381600087803b1580156118dd57600080fd5b505af11580156118f1573d6000803e3d6000fd5b50505050611fd3565b60038081111561190d5761190c615039565b5b8760038111156119205761191f615039565b5b1415611c6757600073__$dc3b4b0a367edd91a2d74c73e2da54c142$__63cda8198c73__$dc3b4b0a367edd91a2d74c73e2da54c142$__63cff70001858b6006600061196c6003610fda565b8152602001908152602001600020548b73ffffffffffffffffffffffffffffffffffffffff16636d3e313e6040518163ffffffff1660e01b8152600401604080518083038186803b1580156119c057600080fd5b505afa1580156119d4573d6000803e3d6000fd5b505050506040513d601f19601f820116820180604052508101906119f89190614439565b600060028110611a0b57611a0a615068565b5b602002015173ffffffffffffffffffffffffffffffffffffffff166318160ddd6040518163ffffffff1660e01b815260040160206040518083038186803b158015611a5557600080fd5b505afa158015611a69573d6000803e3d6000fd5b505050506040513d601f19601f82011682018060405250810190611a8d91906145b4565b611a979190614de8565b611aa19190614de8565b6040518363ffffffff1660e01b8152600401611abe929190614c78565b60206040518083038186803b158015611ad657600080fd5b505af4158015611aea573d6000803e3d6000fd5b505050506040513d601f19601f82011682018060405250810190611b0e9190614493565b896040518363ffffffff1660e01b8152600401611b2c92919061498b565b60206040518083038186803b158015611b4457600080fd5b505af4158015611b58573d6000803e3d6000fd5b505050506040513d601f19601f82011682018060405250810190611b7c91906145b4565b9050600360109054906101000a90046fffffffffffffffffffffffffffffffff166fffffffffffffffffffffffffffffffff16811015611bf1576040517f08c379a0000000000000000000000000000000000000000000000000000000008152600401611be890614ae2565b60405180910390fd5b8473ffffffffffffffffffffffffffffffffffffffff166387f9ca5d600089336040518463ffffffff1660e01b8152600401611c2f939291906149b4565b600060405180830381600087803b158015611c4957600080fd5b505af1158015611c5d573d6000803e3d6000fd5b5050505050611fd2565b60016003811115611c7b57611c7a615039565b5b876003811115611c8e57611c8d615039565b5b1415611fd157600073__$dc3b4b0a367edd91a2d74c73e2da54c142$__63cda8198c73__$dc3b4b0a367edd91a2d74c73e2da54c142$__63cff70001868b60066000611cda6001610fda565b8152602001908152602001600020548b73ffffffffffffffffffffffffffffffffffffffff16636d3e313e6040518163ffffffff1660e01b8152600401604080518083038186803b158015611d2e57600080fd5b505afa158015611d42573d6000803e3d6000fd5b505050506040513d601f19601f82011682018060405250810190611d669190614439565b600160028110611d7957611d78615068565b5b602002015173ffffffffffffffffffffffffffffffffffffffff166318160ddd6040518163ffffffff1660e01b815260040160206040518083038186803b158015611dc357600080fd5b505afa158015611dd7573d6000803e3d6000fd5b505050506040513d601f19601f82011682018060405250810190611dfb91906145b4565b611e059190614de8565b611e0f9190614de8565b6040518363ffffffff1660e01b8152600401611e2c929190614c78565b60206040518083038186803b158015611e4457600080fd5b505af4158015611e58573d6000803e3d6000fd5b505050506040513d601f19601f82011682018060405250810190611e7c9190614493565b896040518363ffffffff1660e01b8152600401611e9a92919061498b565b60206040518083038186803b158015611eb257600080fd5b505af4158015611ec6573d6000803e3d6000fd5b505050506040513d601f19601f82011682018060405250810190611eea91906145b4565b9050600360109054906101000a90046fffffffffffffffffffffffffffffffff166fffffffffffffffffffffffffffffffff16811015611f5f576040517f08c379a0000000000000000000000000000000000000000000000000000000008152600401611f5690614ae2565b60405180910390fd5b8473ffffffffffffffffffffffffffffffffffffffff166387f9ca5d600189336040518463ffffffff1660e01b8152600401611f9d939291906149eb565b600060405180830381600087803b158015611fb757600080fd5b505af1158015611fcb573d6000803e3d6000fd5b50505050505b5b5b50505050505050565b600460109054906101000a90046fffffffffffffffffffffffffffffffff1681565b60008060009054906101000a900473ffffffffffffffffffffffffffffffffffffffff16905090565b600260009054906101000a90046fffffffffffffffffffffffffffffffff1681565b3073ffffffffffffffffffffffffffffffffffffffff163373ffffffffffffffffffffffffffffffffffffffff16146120b7576040517f08c379a00000000000000000000000000000000000000000000000000000000081526004016120ae90614b02565b60405180910390fd5b6000600160009054906101000a900473ffffffffffffffffffffffffffffffffffffffff16905060008173ffffffffffffffffffffffffffffffffffffffff1663ba8d54686040518163ffffffff1660e01b815260040160206040518083038186803b15801561212657600080fd5b505afa15801561213a573d6000803e3d6000fd5b505050506040513d601f19601f8201168201806040525081019061215e91906145b4565b905060008273ffffffffffffffffffffffffffffffffffffffff16637e71fc7d6040518163ffffffff1660e01b815260040160206040518083038186803b1580156121a857600080fd5b505afa1580156121bc573d6000803e3d6000fd5b505050506040513d601f19601f820116820180604052508101906121e091906145b4565b905060006121f18560200151610fda565b9050846000015160066000838152602001908152602001600020546122169190614e72565b60066000838152602001908152602001600020819055506002600381111561224157612240615039565b5b8560200151600381111561225857612257615039565b5b141561251657600073__$dc3b4b0a367edd91a2d74c73e2da54c142$__63ab41556f8673ffffffffffffffffffffffffffffffffffffffff16636d3e313e6040518163ffffffff1660e01b8152600401604080518083038186803b1580156122bf57600080fd5b505afa1580156122d3573d6000803e3d6000fd5b505050506040513d601f19601f820116820180604052508101906122f79190614439565b60006002811061230a57612309615068565b5b602002015173ffffffffffffffffffffffffffffffffffffffff166318160ddd6040518163ffffffff1660e01b815260040160206040518083038186803b15801561235457600080fd5b505afa158015612368573d6000803e3d6000fd5b505050506040513d601f19601f8201168201806040525081019061238c91906145b4565b886000015186600660006123a06003610fda565b8152602001908152602001600020546040518563ffffffff1660e01b81526004016123ce9493929190614d01565b60206040518083038186803b1580156123e657600080fd5b505af41580156123fa573d6000803e3d6000fd5b505050506040513d601f19601f8201168201806040525081019061241e91906145b4565b90508473ffffffffffffffffffffffffffffffffffffffff166375c66e2f60008389606001516040518463ffffffff1660e01b8152600401612462939291906149b4565b600060405180830381600087803b15801561247c57600080fd5b505af1158015612490573d6000803e3d6000fd5b505050508473ffffffffffffffffffffffffffffffffffffffff16633c3f82528760000151856124c09190614de8565b866040518363ffffffff1660e01b81526004016124de929190614ca1565b600060405180830381600087803b1580156124f857600080fd5b505af115801561250c573d6000803e3d6000fd5b5050505050612efd565b60038081111561252957612528615039565b5b856020015160038111156125405761253f615039565b5b141561289557600073__$dc3b4b0a367edd91a2d74c73e2da54c142$__63cda8198c73__$dc3b4b0a367edd91a2d74c73e2da54c142$__63cff70001868a60000151600660006125906003610fda565b8152602001908152602001600020548b73ffffffffffffffffffffffffffffffffffffffff16636d3e313e6040518163ffffffff1660e01b8152600401604080518083038186803b1580156125e457600080fd5b505afa1580156125f8573d6000803e3d6000fd5b505050506040513d601f19601f8201168201806040525081019061261c9190614439565b60006002811061262f5761262e615068565b5b602002015173ffffffffffffffffffffffffffffffffffffffff166318160ddd6040518163ffffffff1660e01b815260040160206040518083038186803b15801561267957600080fd5b505afa15801561268d573d6000803e3d6000fd5b505050506040513d601f19601f820116820180604052508101906126b191906145b4565b6126bb9190614de8565b6126c59190614de8565b6040518363ffffffff1660e01b81526004016126e2929190614c78565b60206040518083038186803b1580156126fa57600080fd5b505af415801561270e573d6000803e3d6000fd5b505050506040513d601f19601f820116820180604052508101906127329190614493565b88600001516040518363ffffffff1660e01b815260040161275492919061498b565b60206040518083038186803b15801561276c57600080fd5b505af4158015612780573d6000803e3d6000fd5b505050506040513d601f19601f820116820180604052508101906127a491906145b4565b90508473ffffffffffffffffffffffffffffffffffffffff16633c3f825282856127ce9190614e72565b866040518363ffffffff1660e01b81526004016127ec929190614ca1565b600060405180830381600087803b15801561280657600080fd5b505af115801561281a573d6000803e3d6000fd5b505050508473ffffffffffffffffffffffffffffffffffffffff16635817f0c68760600151836040518363ffffffff1660e01b815260040161285d929190614962565b600060405180830381600087803b15801561287757600080fd5b505af115801561288b573d6000803e3d6000fd5b5050505050612efc565b600060038111156128a9576128a8615039565b5b856020015160038111156128c0576128bf615039565b5b1415612b7e57600073__$dc3b4b0a367edd91a2d74c73e2da54c142$__63ab41556f8673ffffffffffffffffffffffffffffffffffffffff16636d3e313e6040518163ffffffff1660e01b8152600401604080518083038186803b15801561292757600080fd5b505afa15801561293b573d6000803e3d6000fd5b505050506040513d601f19601f8201168201806040525081019061295f9190614439565b60016002811061297257612971615068565b5b602002015173ffffffffffffffffffffffffffffffffffffffff166318160ddd6040518163ffffffff1660e01b815260040160206040518083038186803b1580156129bc57600080fd5b505afa1580156129d0573d6000803e3d6000fd5b505050506040513d601f19601f820116820180604052508101906129f491906145b4565b88600001518760066000612a086001610fda565b8152602001908152602001600020546040518563ffffffff1660e01b8152600401612a369493929190614d01565b60206040518083038186803b158015612a4e57600080fd5b505af4158015612a62573d6000803e3d6000fd5b505050506040513d601f19601f82011682018060405250810190612a8691906145b4565b90508473ffffffffffffffffffffffffffffffffffffffff166375c66e2f60018389606001516040518463ffffffff1660e01b8152600401612aca939291906149eb565b600060405180830381600087803b158015612ae457600080fd5b505af1158015612af8573d6000803e3d6000fd5b505050508473ffffffffffffffffffffffffffffffffffffffff16633c3f825284886000015187612b299190614de8565b6040518363ffffffff1660e01b8152600401612b46929190614ca1565b600060405180830381600087803b158015612b6057600080fd5b505af1158015612b74573d6000803e3d6000fd5b5050505050612efb565b60016003811115612b9257612b91615039565b5b85602001516003811115612ba957612ba8615039565b5b1415612efa57600073__$dc3b4b0a367edd91a2d74c73e2da54c142$__63cda8198c73__$dc3b4b0a367edd91a2d74c73e2da54c142$__63cff70001878a6000015160066000612bf96001610fda565b8152602001908152602001600020548b73ffffffffffffffffffffffffffffffffffffffff16636d3e313e6040518163ffffffff1660e01b8152600401604080518083038186803b158015612c4d57600080fd5b505afa158015612c61573d6000803e3d6000fd5b505050506040513d601f19601f82011682018060405250810190612c859190614439565b600160028110612c9857612c97615068565b5b602002015173ffffffffffffffffffffffffffffffffffffffff166318160ddd6040518163ffffffff1660e01b815260040160206040518083038186803b158015612ce257600080fd5b505afa158015612cf6573d6000803e3d6000fd5b505050506040513d601f19601f82011682018060405250810190612d1a91906145b4565b612d249190614de8565b612d2e9190614de8565b6040518363ffffffff1660e01b8152600401612d4b929190614c78565b60206040518083038186803b158015612d6357600080fd5b505af4158015612d77573d6000803e3d6000fd5b505050506040513d601f19601f82011682018060405250810190612d9b9190614493565b88600001516040518363ffffffff1660e01b8152600401612dbd92919061498b565b60206040518083038186803b158015612dd557600080fd5b505af4158015612de9573d6000803e3d6000fd5b505050506040513d601f19601f82011682018060405250810190612e0d91906145b4565b90508473ffffffffffffffffffffffffffffffffffffffff16633c3f8252848387612e389190614e72565b6040518363ffffffff1660e01b8152600401612e55929190614ca1565b600060405180830381600087803b158015612e6f57600080fd5b505af1158015612e83573d6000803e3d6000fd5b505050508473ffffffffffffffffffffffffffffffffffffffff16635817f0c68760600151836040518363ffffffff1660e01b8152600401612ec6929190614962565b600060405180830381600087803b158015612ee057600080fd5b505af1158015612ef4573d6000803e3d6000fd5b50505050505b5b5b5b5050505050565b600760009054906101000a900473ffffffffffffffffffffffffffffffffffffffff1681565b612f32614199565b60056000836fffffffffffffffffffffffffffffffff166fffffffffffffffffffffffffffffffff168152602001908152602001600020604051806080016040529081600082015481526020016001820160009054906101000a900460ff166003811115612fa357612fa2615039565b5b6003811115612fb557612fb4615039565b5b81526020016001820160019054906101000a900464ffffffffff1664ffffffffff1664ffffffffff1681526020016001820160069054906101000a900473ffffffffffffffffffffffffffffffffffffffff1673ffffffffffffffffffffffffffffffffffffffff1673ffffffffffffffffffffffffffffffffffffffff16815250509050919050565b600260109054906101000a90046fffffffffffffffffffffffffffffffff1681565b600160009054906101000a900473ffffffffffffffffffffffffffffffffffffffff1681565b61308f613b3b565b73ffffffffffffffffffffffffffffffffffffffff166130ad611ffe565b73ffffffffffffffffffffffffffffffffffffffff1614613103576040517f08c379a00000000000000000000000000000000000000000000000000000000081526004016130fa90614b42565b60405180910390fd5b600073ffffffffffffffffffffffffffffffffffffffff168173ffffffffffffffffffffffffffffffffffffffff161415613173576040517f08c379a000000000000000000000000000000000000000000000000000000000815260040161316a90614a82565b60405180910390fd5b61317c81613b43565b50565b600860009054906101000a900473ffffffffffffffffffffffffffffffffffffffff1673ffffffffffffffffffffffffffffffffffffffff163373ffffffffffffffffffffffffffffffffffffffff161461320f576040517f08c379a000000000000000000000000000000000000000000000000000000000815260040161320690614bc2565b60405180910390fd5b6000816fffffffffffffffffffffffffffffffff1611613264576040517f08c379a000000000000000000000000000000000000000000000000000000000815260040161325b90614a22565b60405180910390fd5b80600460006101000a8154816fffffffffffffffffffffffffffffffff02191690836fffffffffffffffffffffffffffffffff16021790555050565b600360009054906101000a90046fffffffffffffffffffffffffffffffff1681565b600760009054906101000a900473ffffffffffffffffffffffffffffffffffffffff1673ffffffffffffffffffffffffffffffffffffffff163373ffffffffffffffffffffffffffffffffffffffff1614613352576040517f08c379a000000000000000000000000000000000000000000000000000000000815260040161334990614b62565b60405180910390fd5b600073ffffffffffffffffffffffffffffffffffffffff168273ffffffffffffffffffffffffffffffffffffffff1614156133c2576040517f08c379a00000000000000000000000000000000000000000000000000000000081526004016133b990614a42565b60405180910390fd5b600073ffffffffffffffffffffffffffffffffffffffff168173ffffffffffffffffffffffffffffffffffffffff161415613432576040517f08c379a000000000000000000000000000000000000000000000000000000000815260040161342990614aa2565b60405180910390fd5b80600160006101000a81548173ffffffffffffffffffffffffffffffffffffffff021916908373ffffffffffffffffffffffffffffffffffffffff16021790555060008290508073ffffffffffffffffffffffffffffffffffffffff1663095ea7b3600160009054906101000a900473ffffffffffffffffffffffffffffffffffffffff168373ffffffffffffffffffffffffffffffffffffffff166318160ddd6040518163ffffffff1660e01b815260040160206040518083038186803b1580156134fd57600080fd5b505afa158015613511573d6000803e3d6000fd5b505050506040513d601f19601f8201168201806040525081019061353591906145b4565b6040518363ffffffff1660e01b8152600401613552929190614962565b602060405180830381600087803b15801561356c57600080fd5b505af1158015613580573d6000803e3d6000fd5b505050506040513d601f19601f820116820180604052508101906135a49190614466565b50505050565b60006135b98360200151610fda565b9050826000015160066000838152602001908152602001600020546135de9190614e72565b60066000838152602001908152602001600020819055508260200151600381111561360c5761360b615039565b5b8360000151836fffffffffffffffffffffffffffffffff167f2f2b9ec00f96da9afe52a06f4a0392b84a333e3718b29186681f51ddfe7c593b60405160405180910390a460056000836fffffffffffffffffffffffffffffffff166fffffffffffffffffffffffffffffffff1681526020019081526020016000206000808201600090556001820160006101000a81549060ff02191690556001820160016101000a81549064ffffffffff02191690556001820160066101000a81549073ffffffffffffffffffffffffffffffffffffffff02191690555050816fffffffffffffffffffffffffffffffff16600260009054906101000a90046fffffffffffffffffffffffffffffffff166fffffffffffffffffffffffffffffffff16141561379e576001600260008282829054906101000a90046fffffffffffffffffffffffffffffffff1661375d9190614da2565b92506101000a8154816fffffffffffffffffffffffffffffffff02191690836fffffffffffffffffffffffffffffffff16021790555061379d6000613c07565b5b816fffffffffffffffffffffffffffffffff16600260109054906101000a90046fffffffffffffffffffffffffffffffff166fffffffffffffffffffffffffffffffff1614801561383157506fffffffffffffffffffffffffffffffff8016600260009054906101000a90046fffffffffffffffffffffffffffffffff166fffffffffffffffffffffffffffffffff1614155b156138a5576001600260108282829054906101000a90046fffffffffffffffffffffffffffffffff166138649190614e3e565b92506101000a8154816fffffffffffffffffffffffffffffffff02191690836fffffffffffffffffffffffffffffffff1602179055506138a46001613c07565b5b600260038111156138b9576138b8615039565b5b836020015160038111156138d0576138cf615039565b5b14806139045750600060038111156138eb576138ea615039565b5b8360200151600381111561390257613901615039565b5b145b156139a157600160009054906101000a900473ffffffffffffffffffffffffffffffffffffffff1673ffffffffffffffffffffffffffffffffffffffff16635817f0c63385600001516040518363ffffffff1660e01b815260040161396a929190614962565b600060405180830381600087803b15801561398457600080fd5b505af1158015613998573d6000803e3d6000fd5b50505050613b36565b6003808111156139b4576139b3615039565b5b836020015160038111156139cb576139ca615039565b5b1415613a6c57600160009054906101000a900473ffffffffffffffffffffffffffffffffffffffff1673ffffffffffffffffffffffffffffffffffffffff166375c66e2f60008560000151336040518463ffffffff1660e01b8152600401613a35939291906149b4565b600060405180830381600087803b158015613a4f57600080fd5b505af1158015613a63573d6000803e3d6000fd5b50505050613b35565b60016003811115613a8057613a7f615039565b5b83602001516003811115613a9757613a96615039565b5b1415613b3457600160009054906101000a900473ffffffffffffffffffffffffffffffffffffffff1673ffffffffffffffffffffffffffffffffffffffff166375c66e2f60018560000151336040518463ffffffff1660e01b8152600401613b01939291906149eb565b600060405180830381600087803b158015613b1b57600080fd5b505af1158015613b2f573d6000803e3d6000fd5b505050505b5b5b505050565b600033905090565b60008060009054906101000a900473ffffffffffffffffffffffffffffffffffffffff169050816000806101000a81548173ffffffffffffffffffffffffffffffffffffffff021916908373ffffffffffffffffffffffffffffffffffffffff1602179055508173ffffffffffffffffffffffffffffffffffffffff168173ffffffffffffffffffffffffffffffffffffffff167f8be0079c531659141344cd1fd0a4f28419497f9722a3daafe3b4186f6b6457e060405160405180910390a35050565b60006001811115613c1b57613c1a615039565b5b816001811115613c2e57613c2d615039565b5b1415613ecf576000600260009054906101000a90046fffffffffffffffffffffffffffffffff1690505b600260109054906101000a90046fffffffffffffffffffffffffffffffff166fffffffffffffffffffffffffffffffff16816fffffffffffffffffffffffffffffffff1611613dfb57600060056000836fffffffffffffffffffffffffffffffff166fffffffffffffffffffffffffffffffff168152602001908152602001600020604051806080016040529081600082015481526020016001820160009054906101000a900460ff166003811115613d1457613d13615039565b5b6003811115613d2657613d25615039565b5b81526020016001820160019054906101000a900464ffffffffff1664ffffffffff1664ffffffffff1681526020016001820160069054906101000a900473ffffffffffffffffffffffffffffffffffffffff1673ffffffffffffffffffffffffffffffffffffffff1673ffffffffffffffffffffffffffffffffffffffff16815250509050600073ffffffffffffffffffffffffffffffffffffffff16816060015173ffffffffffffffffffffffffffffffffffffffff161415613df957600182613df19190614da2565b915050613c58565b505b600260109054906101000a90046fffffffffffffffffffffffffffffffff166fffffffffffffffffffffffffffffffff16816fffffffffffffffffffffffffffffffff161115613e93576fffffffffffffffffffffffffffffffff600260006101000a8154816fffffffffffffffffffffffffffffffff02191690836fffffffffffffffffffffffffffffffff160217905550613ecd565b80600260006101000a8154816fffffffffffffffffffffffffffffffff02191690836fffffffffffffffffffffffffffffffff1602179055505b505b600180811115613ee257613ee1615039565b5b816001811115613ef557613ef4615039565b5b1415614196576000600260109054906101000a90046fffffffffffffffffffffffffffffffff1690505b600260009054906101000a90046fffffffffffffffffffffffffffffffff166fffffffffffffffffffffffffffffffff16816fffffffffffffffffffffffffffffffff16106140c257600060056000836fffffffffffffffffffffffffffffffff166fffffffffffffffffffffffffffffffff168152602001908152602001600020604051806080016040529081600082015481526020016001820160009054906101000a900460ff166003811115613fdb57613fda615039565b5b6003811115613fed57613fec615039565b5b81526020016001820160019054906101000a900464ffffffffff1664ffffffffff1664ffffffffff1681526020016001820160069054906101000a900473ffffffffffffffffffffffffffffffffffffffff1673ffffffffffffffffffffffffffffffffffffffff1673ffffffffffffffffffffffffffffffffffffffff16815250509050600073ffffffffffffffffffffffffffffffffffffffff16816060015173ffffffffffffffffffffffffffffffffffffffff1614156140c0576001826140b89190614e3e565b915050613f1f565b505b600260009054906101000a90046fffffffffffffffffffffffffffffffff166fffffffffffffffffffffffffffffffff16816fffffffffffffffffffffffffffffffff16101561415a576fffffffffffffffffffffffffffffffff600260006101000a8154816fffffffffffffffffffffffffffffffff02191690836fffffffffffffffffffffffffffffffff160217905550614194565b80600260106101000a8154816fffffffffffffffffffffffffffffffff02191690836fffffffffffffffffffffffffffffffff1602179055505b505b50565b604051806080016040528060008152602001600060038111156141bf576141be615039565b5b8152602001600064ffffffffff168152602001600073ffffffffffffffffffffffffffffffffffffffff1681525090565b60006142036141fe84614d6b565b614d46565b9050808285602086028201111561421d5761421c6150d0565b5b60005b8581101561424d5781614233888261426c565b845260208401935060208301925050600181019050614220565b5050509392505050565b600081359050614266816153d5565b92915050565b60008151905061427b816153d5565b92915050565b600082601f830112614296576142956150c6565b5b60026142a38482856141f0565b91505092915050565b6000815190506142bb816153ec565b92915050565b6000815190506142d081615403565b92915050565b6000813590506142e58161541a565b92915050565b600060808284031215614301576143006150cb565b5b61430b6080614d46565b9050600061431b84828501614378565b600083015250602061432f848285016142d6565b6020830152506040614343848285016143b7565b604083015250606061435784828501614257565b60608301525092915050565b6000813590506143728161542a565b92915050565b60008135905061438781615441565b92915050565b60008151905061439c81615441565b92915050565b6000815190506143b181615458565b92915050565b6000813590506143c68161546f565b92915050565b6000602082840312156143e2576143e16150d5565b5b60006143f084828501614257565b91505092915050565b600080604083850312156144105761440f6150d5565b5b600061441e85828601614257565b925050602061442f85828601614257565b9150509250929050565b60006040828403121561444f5761444e6150d5565b5b600061445d84828501614281565b91505092915050565b60006020828403121561447c5761447b6150d5565b5b600061448a848285016142ac565b91505092915050565b6000602082840312156144a9576144a86150d5565b5b60006144b7848285016142c1565b91505092915050565b6000602082840312156144d6576144d56150d5565b5b60006144e4848285016142d6565b91505092915050565b60008060408385031215614504576145036150d5565b5b6000614512858286016142d6565b925050602061452385828601614378565b9150509250929050565b600060808284031215614543576145426150d5565b5b6000614551848285016142eb565b91505092915050565b6000602082840312156145705761456f6150d5565b5b600061457e84828501614363565b91505092915050565b60006020828403121561459d5761459c6150d5565b5b60006145ab84828501614378565b91505092915050565b6000602082840312156145ca576145c96150d5565b5b60006145d88482850161438d565b91505092915050565b6000602082840312156145f7576145f66150d5565b5b6000614605848285016143a2565b91505092915050565b61461781614ea6565b82525050565b61462681614ea6565b82525050565b61463581614ec4565b82525050565b61464481614f6a565b82525050565b61465381614f6a565b82525050565b61466281614f7c565b82525050565b61467181614f8e565b82525050565b6000614684601883614d91565b915061468f826150eb565b602082019050919050565b60006146a7602783614d91565b91506146b282615114565b604082019050919050565b60006146ca600c83614d91565b91506146d582615163565b602082019050919050565b60006146ed602683614d91565b91506146f88261518c565b604082019050919050565b6000614710602a83614d91565b915061471b826151db565b604082019050919050565b6000614733601783614d91565b915061473e8261522a565b602082019050919050565b6000614756601883614d91565b915061476182615253565b602082019050919050565b6000614779601383614d91565b91506147848261527c565b602082019050919050565b600061479c602983614d91565b91506147a7826152a5565b604082019050919050565b60006147bf602083614d91565b91506147ca826152f4565b602082019050919050565b60006147e2601583614d91565b91506147ed8261531d565b602082019050919050565b6000614805601c83614d91565b915061481082615346565b602082019050919050565b6000614828601c83614d91565b91506148338261536f565b602082019050919050565b600061484b601983614d91565b915061485682615398565b602082019050919050565b60808201600082015161487760008501826148c5565b50602082015161488a602085018261463b565b50604082015161489d60408501826148f2565b5060608201516148b0606085018261460e565b50505050565b6148bf81614f03565b82525050565b6148ce81614f3f565b82525050565b6148dd81614f3f565b82525050565b6148ec81614f3f565b82525050565b6148fb81614f59565b82525050565b61490a81614f59565b82525050565b6000602082019050614925600083018461461d565b92915050565b6000606082019050614940600083018661461d565b61494d602083018561461d565b61495a60408301846148d4565b949350505050565b6000604082019050614977600083018561461d565b61498460208301846148d4565b9392505050565b60006040820190506149a0600083018561462c565b6149ad60208301846148e3565b9392505050565b60006060820190506149c96000830186614659565b6149d660208301856148d4565b6149e3604083018461461d565b949350505050565b6000606082019050614a006000830186614668565b614a0d60208301856148d4565b614a1a604083018461461d565b949350505050565b60006020820190508181036000830152614a3b81614677565b9050919050565b60006020820190508181036000830152614a5b8161469a565b9050919050565b60006020820190508181036000830152614a7b816146bd565b9050919050565b60006020820190508181036000830152614a9b816146e0565b9050919050565b60006020820190508181036000830152614abb81614703565b9050919050565b60006020820190508181036000830152614adb81614726565b9050919050565b60006020820190508181036000830152614afb81614749565b9050919050565b60006020820190508181036000830152614b1b8161476c565b9050919050565b60006020820190508181036000830152614b3b8161478f565b9050919050565b60006020820190508181036000830152614b5b816147b2565b9050919050565b60006020820190508181036000830152614b7b816147d5565b9050919050565b60006020820190508181036000830152614b9b816147f8565b9050919050565b60006020820190508181036000830152614bbb8161481b565b9050919050565b60006020820190508181036000830152614bdb8161483e565b9050919050565b6000608082019050614bf76000830184614861565b92915050565b6000602082019050614c1260008301846148b6565b92915050565b6000602082019050614c2d60008301846148d4565b92915050565b6000608082019050614c4860008301876148d4565b614c55602083018661464a565b614c626040830185614901565b614c6f606083018461461d565b95945050505050565b6000604082019050614c8d60008301856148e3565b614c9a60208301846148e3565b9392505050565b6000604082019050614cb660008301856148d4565b614cc360208301846148d4565b9392505050565b6000606082019050614cdf60008301866148e3565b614cec60208301856148e3565b614cf960408301846148e3565b949350505050565b6000608082019050614d1660008301876148e3565b614d2360208301866148e3565b614d3060408301856148e3565b614d3d60608301846148e3565b95945050505050565b6000614d50614d61565b9050614d5c8282614fa0565b919050565b6000604051905090565b600067ffffffffffffffff821115614d8657614d85615097565b5b602082029050919050565b600082825260208201905092915050565b6000614dad82614f03565b9150614db883614f03565b9250826fffffffffffffffffffffffffffffffff03821115614ddd57614ddc61500a565b5b828201905092915050565b6000614df382614f3f565b9150614dfe83614f3f565b9250827fffffffffffffffffffffffffffffffffffffffffffffffffffffffffffffffff03821115614e3357614e3261500a565b5b828201905092915050565b6000614e4982614f03565b9150614e5483614f03565b925082821015614e6757614e6661500a565b5b828203905092915050565b6000614e7d82614f3f565b9150614e8883614f3f565b925082821015614e9b57614e9a61500a565b5b828203905092915050565b6000614eb182614f1f565b9050919050565b60008115159050919050565b60007fffffffffffffffffffffffffffffffff0000000000000000000000000000000082169050919050565b6000819050614efe826153c1565b919050565b60006fffffffffffffffffffffffffffffffff82169050919050565b600073ffffffffffffffffffffffffffffffffffffffff82169050919050565b6000819050919050565b600063ffffffff82169050919050565b600064ffffffffff82169050919050565b6000614f7582614ef0565b9050919050565b6000614f8782614f3f565b9050919050565b6000614f9982614f3f565b9050919050565b614fa9826150da565b810181811067ffffffffffffffff82111715614fc857614fc7615097565b5b80604052505050565b6000614fdc82614f03565b91506fffffffffffffffffffffffffffffffff821415614fff57614ffe61500a565b5b600182019050919050565b7f4e487b7100000000000000000000000000000000000000000000000000000000600052601160045260246000fd5b7f4e487b7100000000000000000000000000000000000000000000000000000000600052602160045260246000fd5b7f4e487b7100000000000000000000000000000000000000000000000000000000600052603260045260246000fd5b7f4e487b7100000000000000000000000000000000000000000000000000000000600052604160045260246000fd5b600080fd5b600080fd5b600080fd5b600080fd5b6000601f19601f8301169050919050565b7f436f6d6d6974207175657565206d757374206265203e20300000000000000000600082015250565b7f51756f746520746f6b656e20616464726573732063616e6e6f7420626520302060008201527f6164647265737300000000000000000000000000000000000000000000000000602082015250565b7f556e617574686f72697a65640000000000000000000000000000000000000000600082015250565b7f4f776e61626c653a206e6577206f776e657220697320746865207a65726f206160008201527f6464726573730000000000000000000000000000000000000000000000000000602082015250565b7f4c657665726167656420706f6f6c20616464726573732063616e6e6f7420626560008201527f2030206164647265737300000000000000000000000000000000000000000000602082015250565b7f416d6f756e74206d757374206e6f74206265207a65726f000000000000000000600082015250565b7f416d6f756e74206c657373207468616e206d696e696d756d0000000000000000600082015250565b7f6d73672e73656e646572206e6f742073656c6600000000000000000000000000600082015250565b7f4d75737420756e636f6d6d6974206265666f72652066726f6e7452756e6e696e60008201527f67496e74657276616c0000000000000000000000000000000000000000000000602082015250565b7f4f776e61626c653a2063616c6c6572206973206e6f7420746865206f776e6572600082015250565b7f436f6d6d697465723a206e6f7420666163746f72790000000000000000000000600082015250565b7f6d73672e73656e646572206e6f74206c6576657261676564506f6f6c00000000600082015250565b7f546f6f206d616e7920636f6d6d69747320696e20696e74657276616c00000000600082015250565b7f6d73672e73656e646572206e6f7420676f7665726e616e636500000000000000600082015250565b600481106153d2576153d1615039565b5b50565b6153de81614ea6565b81146153e957600080fd5b50565b6153f581614eb8565b811461540057600080fd5b50565b61540c81614ec4565b811461541757600080fd5b50565b6004811061542757600080fd5b50565b61543381614f03565b811461543e57600080fd5b50565b61544a81614f3f565b811461545557600080fd5b50565b61546181614f49565b811461546c57600080fd5b50565b61547881614f59565b811461548357600080fd5b5056fea264697066735822122035b6a43b29f31b39c1d1b02cdd766921302badf6e4cfbff9947b2e9b2e4f0dfa64736f6c63430008070033a264697066735822122081a947e6740055bcf08c1db6075a4024c5231d7ecec47a305accc5511a9b596a64736f6c63430008070033",
  "libraries": {
    "PoolSwapLibrary": "0x3FE070eC913099fcBd96c18524F873D7c3F95F48"
  },
  "devdoc": {
    "kind": "dev",
    "methods": {},
    "title": "The deployer of the PoolCommitter contract",
    "version": 1
  },
  "userdoc": {
    "kind": "user",
    "methods": {},
    "version": 1
  },
  "storageLayout": {
    "storage": [
      {
        "astId": 9036,
        "contract": "contracts/implementation/PoolCommitterDeployer.sol:PoolCommitterDeployer",
        "label": "factory",
        "offset": 0,
        "slot": "0",
        "type": "t_address"
      }
    ],
    "types": {
      "t_address": {
        "encoding": "inplace",
        "label": "address",
        "numberOfBytes": "20"
      }
    }
  }
}