{
  "address": "0x799b73BC2ae5333d90b2A1075295998Da24C58a4",
  "abi": [
    {
      "inputs": [
        {
          "internalType": "address",
          "name": "_feeReceiver",
          "type": "address"
        }
      ],
      "stateMutability": "nonpayable",
      "type": "constructor"
    },
    {
      "anonymous": false,
      "inputs": [
        {
          "indexed": true,
          "internalType": "address",
          "name": "pool",
          "type": "address"
        },
        {
          "indexed": false,
          "internalType": "string",
          "name": "ticker",
          "type": "string"
        }
      ],
      "name": "DeployPool",
      "type": "event"
    },
    {
      "anonymous": false,
      "inputs": [
        {
          "indexed": true,
          "internalType": "address",
          "name": "previousOwner",
          "type": "address"
        },
        {
          "indexed": true,
          "internalType": "address",
          "name": "newOwner",
          "type": "address"
        }
      ],
      "name": "OwnershipTransferred",
      "type": "event"
    },
    {
      "inputs": [
        {
          "components": [
            {
              "internalType": "string",
              "name": "poolName",
              "type": "string"
            },
            {
              "internalType": "uint32",
              "name": "frontRunningInterval",
              "type": "uint32"
            },
            {
              "internalType": "uint32",
              "name": "updateInterval",
              "type": "uint32"
            },
            {
              "internalType": "uint16",
              "name": "leverageAmount",
              "type": "uint16"
            },
            {
              "internalType": "address",
              "name": "quoteToken",
              "type": "address"
            },
            {
              "internalType": "address",
              "name": "oracleWrapper",
              "type": "address"
            },
            {
              "internalType": "address",
              "name": "settlementEthOracle",
              "type": "address"
            }
          ],
          "internalType": "struct IPoolFactory.PoolDeployment",
          "name": "deploymentParameters",
          "type": "tuple"
        }
      ],
      "name": "deployPool",
      "outputs": [
        {
          "internalType": "address",
          "name": "",
          "type": "address"
        }
      ],
      "stateMutability": "nonpayable",
      "type": "function"
    },
    {
      "inputs": [],
      "name": "fee",
      "outputs": [
        {
          "internalType": "bytes16",
          "name": "",
          "type": "bytes16"
        }
      ],
      "stateMutability": "view",
      "type": "function"
    },
    {
      "inputs": [
        {
          "internalType": "address",
          "name": "",
          "type": "address"
        }
      ],
      "name": "isValidPool",
      "outputs": [
        {
          "internalType": "bool",
          "name": "",
          "type": "bool"
        }
      ],
      "stateMutability": "view",
      "type": "function"
    },
    {
      "inputs": [],
      "name": "maxLeverage",
      "outputs": [
        {
          "internalType": "uint16",
          "name": "",
          "type": "uint16"
        }
      ],
      "stateMutability": "view",
      "type": "function"
    },
    {
      "inputs": [],
      "name": "numPools",
      "outputs": [
        {
          "internalType": "uint256",
          "name": "",
          "type": "uint256"
        }
      ],
      "stateMutability": "view",
      "type": "function"
    },
    {
      "inputs": [],
      "name": "owner",
      "outputs": [
        {
          "internalType": "address",
          "name": "",
          "type": "address"
        }
      ],
      "stateMutability": "view",
      "type": "function"
    },
    {
      "inputs": [],
      "name": "pairTokenBase",
      "outputs": [
        {
          "internalType": "contract PoolToken",
          "name": "",
          "type": "address"
        }
      ],
      "stateMutability": "view",
      "type": "function"
    },
    {
      "inputs": [],
      "name": "poolBase",
      "outputs": [
        {
          "internalType": "contract LeveragedPool",
          "name": "",
          "type": "address"
        }
      ],
      "stateMutability": "view",
      "type": "function"
    },
    {
      "inputs": [],
      "name": "poolCommitterDeployer",
      "outputs": [
        {
          "internalType": "contract IPoolCommitterDeployer",
          "name": "",
          "type": "address"
        }
      ],
      "stateMutability": "view",
      "type": "function"
    },
    {
      "inputs": [],
      "name": "poolKeeper",
      "outputs": [
        {
          "internalType": "contract IPoolKeeper",
          "name": "",
          "type": "address"
        }
      ],
      "stateMutability": "view",
      "type": "function"
    },
    {
      "inputs": [
        {
          "internalType": "uint256",
          "name": "",
          "type": "uint256"
        }
      ],
      "name": "pools",
      "outputs": [
        {
          "internalType": "address",
          "name": "",
          "type": "address"
        }
      ],
      "stateMutability": "view",
      "type": "function"
    },
    {
      "inputs": [],
      "name": "renounceOwnership",
      "outputs": [],
      "stateMutability": "nonpayable",
      "type": "function"
    },
    {
      "inputs": [
        {
          "internalType": "bytes16",
          "name": "_fee",
          "type": "bytes16"
        }
      ],
      "name": "setFee",
      "outputs": [],
      "stateMutability": "nonpayable",
      "type": "function"
    },
    {
      "inputs": [
        {
          "internalType": "address",
          "name": "_feeReceiver",
          "type": "address"
        }
      ],
      "name": "setFeeReceiver",
      "outputs": [],
      "stateMutability": "nonpayable",
      "type": "function"
    },
    {
      "inputs": [
        {
          "internalType": "uint16",
          "name": "newMaxLeverage",
          "type": "uint16"
        }
      ],
      "name": "setMaxLeverage",
      "outputs": [],
      "stateMutability": "nonpayable",
      "type": "function"
    },
    {
      "inputs": [
        {
          "internalType": "address",
          "name": "_poolCommitterDeployer",
          "type": "address"
        }
      ],
      "name": "setPoolCommitterDeployer",
      "outputs": [],
      "stateMutability": "nonpayable",
      "type": "function"
    },
    {
      "inputs": [
        {
          "internalType": "address",
          "name": "_poolKeeper",
          "type": "address"
        }
      ],
      "name": "setPoolKeeper",
      "outputs": [],
      "stateMutability": "nonpayable",
      "type": "function"
    },
    {
      "inputs": [
        {
          "internalType": "address",
          "name": "newOwner",
          "type": "address"
        }
      ],
      "name": "transferOwnership",
      "outputs": [],
      "stateMutability": "nonpayable",
      "type": "function"
    }
  ],
  "transactionHash": "0x8024cd1d4b34523dca39ecba4e2bcca45bd77d7b231dd7ef2da7fb6748d31d51",
  "args": [
    "0xfb59B91646cd0890F3E5343384FEb746989B66C7"
  ],
  "solcInputHash": "5696ca81503a3a2723ea0bca85055557",
  "bytecode": "0x6080604052600a600460146101000a81548161ffff021916908361ffff1602179055503480156200002f57600080fd5b5060405162009fbd38038062009fbd83398181016040528101906200005591906200053e565b62000075620000696200043f60201b60201c565b6200044760201b60201c565b60405162000083906200050b565b604051809103906000f080158015620000a0573d6000803e3d6000fd5b50600160006101000a81548173ffffffffffffffffffffffffffffffffffffffff021916908373ffffffffffffffffffffffffffffffffffffffff160217905550604051620000ef9062000519565b604051809103906000f0801580156200010c573d6000803e3d6000fd5b50600260006101000a81548173ffffffffffffffffffffffffffffffffffffffff021916908373ffffffffffffffffffffffffffffffffffffffff1602179055506000604051806101c001604052803073ffffffffffffffffffffffffffffffffffffffff1681526020013073ffffffffffffffffffffffffffffffffffffffff1681526020013073ffffffffffffffffffffffffffffffffffffffff1681526020013073ffffffffffffffffffffffffffffffffffffffff1681526020013073ffffffffffffffffffffffffffffffffffffffff1681526020013073ffffffffffffffffffffffffffffffffffffffff1681526020013073ffffffffffffffffffffffffffffffffffffffff1681526020016040518060400160405280600981526020017f424153455f504f4f4c00000000000000000000000000000000000000000000008152508152602001600f63ffffffff168152602001601e63ffffffff168152602001600060801b6fffffffffffffffffffffffffffffffff19168152602001600161ffff1681526020013073ffffffffffffffffffffffffffffffffffffffff1681526020013073ffffffffffffffffffffffffffffffffffffffff168152509050600260009054906101000a900473ffffffffffffffffffffffffffffffffffffffff1673ffffffffffffffffffffffffffffffffffffffff1663fab0dd6a826040518263ffffffff1660e01b8152600401620003319190620007e5565b600060405180830381600087803b1580156200034c57600080fd5b505af115801562000361573d6000803e3d6000fd5b50505050600160009054906101000a900473ffffffffffffffffffffffffffffffffffffffff1673ffffffffffffffffffffffffffffffffffffffff166390657147306040518263ffffffff1660e01b8152600401620003c291906200079e565b600060405180830381600087803b158015620003dd57600080fd5b505af1158015620003f2573d6000803e3d6000fd5b5050505081600560006101000a81548173ffffffffffffffffffffffffffffffffffffffff021916908373ffffffffffffffffffffffffffffffffffffffff16021790555050506200096c565b600033905090565b60008060009054906101000a900473ffffffffffffffffffffffffffffffffffffffff169050816000806101000a81548173ffffffffffffffffffffffffffffffffffffffff021916908373ffffffffffffffffffffffffffffffffffffffff1602179055508173ffffffffffffffffffffffffffffffffffffffff168173ffffffffffffffffffffffffffffffffffffffff167f8be0079c531659141344cd1fd0a4f28419497f9722a3daafe3b4186f6b6457e060405160405180910390a35050565b61211a806200303983390190565b614e6a806200515383390190565b600081519050620005388162000952565b92915050565b600060208284031215620005575762000556620008ea565b5b6000620005678482850162000527565b91505092915050565b6200057b8162000836565b82525050565b6200058c8162000836565b82525050565b6200059d816200084a565b82525050565b6000620005b08262000809565b620005bc818562000814565b9350620005ce818560208601620008b4565b620005d981620008ef565b840191505092915050565b6000620005f360048362000825565b9150620006008262000900565b602082019050919050565b60006200061a600a8362000825565b9150620006278262000929565b602082019050919050565b60006101c0830160008301516200064d600086018262000570565b50602083015162000662602086018262000570565b50604083015162000677604086018262000570565b5060608301516200068c606086018262000570565b506080830151620006a1608086018262000570565b5060a0830151620006b660a086018262000570565b5060c0830151620006cb60c086018262000570565b5060e083015184820360e0860152620006e58282620005a3565b915050610100830151620006fe6101008601826200078d565b50610120830151620007156101208601826200078d565b506101408301516200072c61014086018262000592565b50610160830151620007436101608601826200077c565b506101808301516200075a61018086018262000570565b506101a0830151620007716101a086018262000570565b508091505092915050565b620007878162000876565b82525050565b6200079881620008a4565b82525050565b6000606082019050620007b5600083018462000581565b8181036020830152620007c8816200060b565b90508181036040830152620007dd81620005e4565b905092915050565b6000602082019050818103600083015262000801818462000632565b905092915050565b600081519050919050565b600082825260208201905092915050565b600082825260208201905092915050565b6000620008438262000884565b9050919050565b60007fffffffffffffffffffffffffffffffff0000000000000000000000000000000082169050919050565b600061ffff82169050919050565b600073ffffffffffffffffffffffffffffffffffffffff82169050919050565b600063ffffffff82169050919050565b60005b83811015620008d4578082015181840152602081019050620008b7565b83811115620008e4576000848401525b50505050565b600080fd5b6000601f19601f8301169050919050565b7f4241534500000000000000000000000000000000000000000000000000000000600082015250565b7f424153455f544f4b454e00000000000000000000000000000000000000000000600082015250565b6200095d8162000836565b81146200096957600080fd5b50565b6126bd806200097c6000396000f3fe608060405234801561001057600080fd5b50600436106101165760003560e01c8063715018a6116100a2578063ae3302c211610071578063ae3302c2146102bb578063d723c68b146102d9578063ddca3f43146102f7578063efdcd97414610315578063f2fde38b1461033157610116565b8063715018a61461024757806379b471cf146102515780638da5cb5b1461026d578063ac4afa381461028b57610116565b8063430ed6eb116100e9578063430ed6eb146101a3578063568212f6146101bf5780635ab78ee1146101db5780635bae377a1461020b57806367e047561461022957610116565b80630679d3621461011b578063178f9e35146101375780632a0a6aa11461015557806335c62bc214610185575b600080fd5b61013560048036038101906101309190611855565b61034d565b005b61013f6103e9565b60405161014c9190611eef565b60405180910390f35b61016f600480360381019061016a919061180c565b61040f565b60405161017c9190611e15565b60405180910390f35b61018d610db4565b60405161019a91906120c1565b60405180910390f35b6101bd60048036038101906101b89190611785565b610dba565b005b6101d960048036038101906101d49190611785565b610eea565b005b6101f560048036038101906101f09190611785565b61101a565b6040516102029190611e9e565b60405180910390f35b61021361103a565b6040516102209190611f0a565b60405180910390f35b610231611060565b60405161023e9190611ed4565b60405180910390f35b61024f611086565b005b61026b600480360381019061026691906117df565b61110e565b005b6102756111b7565b6040516102829190611e15565b60405180910390f35b6102a560048036038101906102a09190611882565b6111e0565b6040516102b29190611e15565b60405180910390f35b6102c3611213565b6040516102d091906120a6565b60405180910390f35b6102e1611227565b6040516102ee9190611f25565b60405180910390f35b6102ff61124d565b60405161030c9190611eb9565b60405180910390f35b61032f600480360381019061032a9190611785565b611260565b005b61034b60048036038101906103469190611785565b611390565b005b610355611488565b73ffffffffffffffffffffffffffffffffffffffff166103736111b7565b73ffffffffffffffffffffffffffffffffffffffff16146103c9576040517f08c379a00000000000000000000000000000000000000000000000000000000081526004016103c090611fc4565b60405180910390fd5b80600460146101000a81548161ffff021916908361ffff16021790555050565b600360009054906101000a900473ffffffffffffffffffffffffffffffffffffffff1681565b60006104196111b7565b73ffffffffffffffffffffffffffffffffffffffff163373ffffffffffffffffffffffffffffffffffffffff1614610486576040517f08c379a000000000000000000000000000000000000000000000000000000000815260040161047d90612064565b60405180910390fd5b6000600360009054906101000a900473ffffffffffffffffffffffffffffffffffffffff169050600073ffffffffffffffffffffffffffffffffffffffff168173ffffffffffffffffffffffffffffffffffffffff16141561051d576040517f08c379a000000000000000000000000000000000000000000000000000000000815260040161051490612004565b60405180910390fd5b600073ffffffffffffffffffffffffffffffffffffffff16600460009054906101000a900473ffffffffffffffffffffffffffffffffffffffff1673ffffffffffffffffffffffffffffffffffffffff1614156105af576040517f08c379a00000000000000000000000000000000000000000000000000000000081526004016105a690612024565b60405180910390fd5b6000600460009054906101000a900473ffffffffffffffffffffffffffffffffffffffff1673ffffffffffffffffffffffffffffffffffffffff1663775c300c6040518163ffffffff1660e01b8152600401602060405180830381600087803b15801561061b57600080fd5b505af115801561062f573d6000803e3d6000fd5b505050506040513d601f19601f8201168201806040525081019061065391906117b2565b9050600184606001602081019061066a9190611855565b61ffff16101580156106a65750600460149054906101000a900461ffff1661ffff1684606001602081019061069f9190611855565b61ffff1611155b6106e5576040517f08c379a00000000000000000000000000000000000000000000000000000000081526004016106dc90611f84565b60405180910390fd5b60128460800160208101906106fa9190611785565b73ffffffffffffffffffffffffffffffffffffffff1663313ce5676040518163ffffffff1660e01b815260040160206040518083038186803b15801561073f57600080fd5b505afa158015610753573d6000803e3d6000fd5b505050506040513d601f19601f8201168201806040525081019061077791906118dc565b60ff1611156107bb576040517f08c379a00000000000000000000000000000000000000000000000000000000081526004016107b290611fe4565b60405180910390fd5b60006107e8600260009054906101000a900473ffffffffffffffffffffffffffffffffffffffff16611490565b905060008190508073ffffffffffffffffffffffffffffffffffffffff167fd76cdb035f3aba359cb02087e4c5bd75f911562b407fc3a52ed2bedfb46585b687806000019061083791906120dc565b604051610845929190611f40565b60405180910390a260006108b88288806000019061086391906120dc565b604051602001610874929190611da9565b60405160208183030381529060405289806000019061089391906120dc565b6040516020016108a4929190611dcd565b604051602081830303815290604052611565565b90506000610925838980600001906108d091906120dc565b6040516020016108e1929190611d85565b6040516020818303038152906040528a806000019061090091906120dc565b604051602001610911929190611df1565b604051602081830303815290604052611565565b90506000604051806101c0016040528061093d6111b7565b73ffffffffffffffffffffffffffffffffffffffff1681526020018873ffffffffffffffffffffffffffffffffffffffff1681526020018a60a00160208101906109879190611785565b73ffffffffffffffffffffffffffffffffffffffff1681526020018a60c00160208101906109b59190611785565b73ffffffffffffffffffffffffffffffffffffffff1681526020018473ffffffffffffffffffffffffffffffffffffffff1681526020018373ffffffffffffffffffffffffffffffffffffffff1681526020018773ffffffffffffffffffffffffffffffffffffffff1681526020018a8060000190610a3491906120dc565b8080601f016020809104026020016040519081016040528093929190818152602001838380828437600081840152601f19601f8201169050808301925050505050505081526020018a6020016020810190610a8f91906118af565b63ffffffff1681526020018a6040016020810190610aad91906118af565b63ffffffff168152602001600660009054906101000a900460801b6fffffffffffffffffffffffffffffffff191681526020018a6060016020810190610af39190611855565b61ffff168152602001600560009054906101000a900473ffffffffffffffffffffffffffffffffffffffff1673ffffffffffffffffffffffffffffffffffffffff1681526020018a6080016020810190610b4d9190611785565b73ffffffffffffffffffffffffffffffffffffffff1681525090508573ffffffffffffffffffffffffffffffffffffffff1663fd555fb98a6080016020810190610b979190611785565b866040518363ffffffff1660e01b8152600401610bb5929190611e30565b600060405180830381600087803b158015610bcf57600080fd5b505af1158015610be3573d6000803e3d6000fd5b505050508473ffffffffffffffffffffffffffffffffffffffff1663fab0dd6a826040518263ffffffff1660e01b8152600401610c209190612084565b600060405180830381600087803b158015610c3a57600080fd5b505af1158015610c4e573d6000803e3d6000fd5b50505050600360009054906101000a900473ffffffffffffffffffffffffffffffffffffffff1673ffffffffffffffffffffffffffffffffffffffff16633c5c7fb3856040518263ffffffff1660e01b8152600401610cad9190611e15565b600060405180830381600087803b158015610cc757600080fd5b505af1158015610cdb573d6000803e3d6000fd5b505050508360076000600854815260200190815260200160002060006101000a81548173ffffffffffffffffffffffffffffffffffffffff021916908373ffffffffffffffffffffffffffffffffffffffff160217905550600160086000828254610d469190612177565b925050819055506001600960008673ffffffffffffffffffffffffffffffffffffffff1673ffffffffffffffffffffffffffffffffffffffff16815260200190815260200160002060006101000a81548160ff02191690831515021790555083975050505050505050919050565b60085481565b610dc2611488565b73ffffffffffffffffffffffffffffffffffffffff16610de06111b7565b73ffffffffffffffffffffffffffffffffffffffff1614610e36576040517f08c379a0000000000000000000000000000000000000000000000000000000008152600401610e2d90611fc4565b60405180910390fd5b600073ffffffffffffffffffffffffffffffffffffffff168173ffffffffffffffffffffffffffffffffffffffff161415610ea6576040517f08c379a0000000000000000000000000000000000000000000000000000000008152600401610e9d90612044565b60405180910390fd5b80600360006101000a81548173ffffffffffffffffffffffffffffffffffffffff021916908373ffffffffffffffffffffffffffffffffffffffff16021790555050565b610ef2611488565b73ffffffffffffffffffffffffffffffffffffffff16610f106111b7565b73ffffffffffffffffffffffffffffffffffffffff1614610f66576040517f08c379a0000000000000000000000000000000000000000000000000000000008152600401610f5d90611fc4565b60405180910390fd5b600073ffffffffffffffffffffffffffffffffffffffff168173ffffffffffffffffffffffffffffffffffffffff161415610fd6576040517f08c379a0000000000000000000000000000000000000000000000000000000008152600401610fcd90612044565b60405180910390fd5b80600460006101000a81548173ffffffffffffffffffffffffffffffffffffffff021916908373ffffffffffffffffffffffffffffffffffffffff16021790555050565b60096020528060005260406000206000915054906101000a900460ff1681565b600260009054906101000a900473ffffffffffffffffffffffffffffffffffffffff1681565b600460009054906101000a900473ffffffffffffffffffffffffffffffffffffffff1681565b61108e611488565b73ffffffffffffffffffffffffffffffffffffffff166110ac6111b7565b73ffffffffffffffffffffffffffffffffffffffff1614611102576040517f08c379a00000000000000000000000000000000000000000000000000000000081526004016110f990611fc4565b60405180910390fd5b61110c600061160f565b565b611116611488565b73ffffffffffffffffffffffffffffffffffffffff166111346111b7565b73ffffffffffffffffffffffffffffffffffffffff161461118a576040517f08c379a000000000000000000000000000000000000000000000000000000000815260040161118190611fc4565b60405180910390fd5b80600660006101000a8154816fffffffffffffffffffffffffffffffff021916908360801c021790555050565b60008060009054906101000a900473ffffffffffffffffffffffffffffffffffffffff16905090565b60076020528060005260406000206000915054906101000a900473ffffffffffffffffffffffffffffffffffffffff1681565b600460149054906101000a900461ffff1681565b600160009054906101000a900473ffffffffffffffffffffffffffffffffffffffff1681565b600660009054906101000a900460801b81565b611268611488565b73ffffffffffffffffffffffffffffffffffffffff166112866111b7565b73ffffffffffffffffffffffffffffffffffffffff16146112dc576040517f08c379a00000000000000000000000000000000000000000000000000000000081526004016112d390611fc4565b60405180910390fd5b600073ffffffffffffffffffffffffffffffffffffffff168173ffffffffffffffffffffffffffffffffffffffff16141561134c576040517f08c379a000000000000000000000000000000000000000000000000000000000815260040161134390612044565b60405180910390fd5b80600560006101000a81548173ffffffffffffffffffffffffffffffffffffffff021916908373ffffffffffffffffffffffffffffffffffffffff16021790555050565b611398611488565b73ffffffffffffffffffffffffffffffffffffffff166113b66111b7565b73ffffffffffffffffffffffffffffffffffffffff161461140c576040517f08c379a000000000000000000000000000000000000000000000000000000000815260040161140390611fc4565b60405180910390fd5b600073ffffffffffffffffffffffffffffffffffffffff168173ffffffffffffffffffffffffffffffffffffffff16141561147c576040517f08c379a000000000000000000000000000000000000000000000000000000000815260040161147390611f64565b60405180910390fd5b6114858161160f565b50565b600033905090565b60006040517f3d602d80600a3d3981f3363d3d373d3d3d363d7300000000000000000000000081528260601b60148201527f5af43d82803e903d91602b57fd5bf3000000000000000000000000000000000060288201526037816000f0915050600073ffffffffffffffffffffffffffffffffffffffff168173ffffffffffffffffffffffffffffffffffffffff161415611560576040517f08c379a000000000000000000000000000000000000000000000000000000000815260040161155790611fa4565b60405180910390fd5b919050565b600080611593600160009054906101000a900473ffffffffffffffffffffffffffffffffffffffff16611490565b90508073ffffffffffffffffffffffffffffffffffffffff1663906571478686866040518463ffffffff1660e01b81526004016115d293929190611e59565b600060405180830381600087803b1580156115ec57600080fd5b505af1158015611600573d6000803e3d6000fd5b50505050809150509392505050565b60008060009054906101000a900473ffffffffffffffffffffffffffffffffffffffff169050816000806101000a81548173ffffffffffffffffffffffffffffffffffffffff021916908373ffffffffffffffffffffffffffffffffffffffff1602179055508173ffffffffffffffffffffffffffffffffffffffff168173ffffffffffffffffffffffffffffffffffffffff167f8be0079c531659141344cd1fd0a4f28419497f9722a3daafe3b4186f6b6457e060405160405180910390a35050565b6000813590506116e2816125fd565b92915050565b6000815190506116f7816125fd565b92915050565b60008135905061170c81612614565b92915050565b600060e0828403121561172857611727612372565b5b81905092915050565b6000813590506117408161262b565b92915050565b60008135905061175581612642565b92915050565b60008135905061176a81612659565b92915050565b60008151905061177f81612670565b92915050565b60006020828403121561179b5761179a612386565b5b60006117a9848285016116d3565b91505092915050565b6000602082840312156117c8576117c7612386565b5b60006117d6848285016116e8565b91505092915050565b6000602082840312156117f5576117f4612386565b5b6000611803848285016116fd565b91505092915050565b60006020828403121561182257611821612386565b5b600082013567ffffffffffffffff8111156118405761183f612381565b5b61184c84828501611712565b91505092915050565b60006020828403121561186b5761186a612386565b5b600061187984828501611731565b91505092915050565b60006020828403121561189857611897612386565b5b60006118a684828501611746565b91505092915050565b6000602082840312156118c5576118c4612386565b5b60006118d38482850161175b565b91505092915050565b6000602082840312156118f2576118f1612386565b5b600061190084828501611770565b91505092915050565b611912816121cd565b82525050565b611921816121cd565b82525050565b611930816121df565b82525050565b61193f816121eb565b82525050565b61194e816121eb565b82525050565b61195d8161226c565b82525050565b61196c81612290565b82525050565b61197b816122b4565b82525050565b61198a816122d8565b82525050565b600061199c838561215b565b93506119a98385846122fc565b6119b28361238b565b840190509392505050565b60006119c9838561216c565b93506119d68385846122fc565b82840190509392505050565b60006119ed8261213f565b6119f7818561214a565b9350611a0781856020860161230b565b611a108161238b565b840191505092915050565b6000611a268261213f565b611a30818561215b565b9350611a4081856020860161230b565b611a498161238b565b840191505092915050565b6000611a6160268361215b565b9150611a6c8261239c565b604082019050919050565b6000611a8460068361216c565b9150611a8f826123eb565b600682019050919050565b6000611aa760248361215b565b9150611ab282612414565b604082019050919050565b6000611aca60168361215b565b9150611ad582612463565b602082019050919050565b6000611aed60028361216c565b9150611af88261248c565b600282019050919050565b6000611b1060028361216c565b9150611b1b826124b5565b600282019050919050565b6000611b3360058361216c565b9150611b3e826124de565b600582019050919050565b6000611b5660208361215b565b9150611b6182612507565b602082019050919050565b6000611b7960138361215b565b9150611b8482612530565b602082019050919050565b6000611b9c60128361215b565b9150611ba782612559565b602082019050919050565b6000611bbf601d8361215b565b9150611bca82612582565b602082019050919050565b6000611be260168361215b565b9150611bed826125ab565b602082019050919050565b6000611c0560198361215b565b9150611c10826125d4565b602082019050919050565b60006101c083016000830151611c346000860182611909565b506020830151611c476020860182611909565b506040830151611c5a6040860182611909565b506060830151611c6d6060860182611909565b506080830151611c806080860182611909565b5060a0830151611c9360a0860182611909565b5060c0830151611ca660c0860182611909565b5060e083015184820360e0860152611cbe82826119e2565b915050610100830151611cd5610100860182611d76565b50610120830151611cea610120860182611d76565b50610140830151611cff610140860182611936565b50610160830151611d14610160860182611d49565b50610180830151611d29610180860182611909565b506101a0830151611d3e6101a0860182611909565b508091505092915050565b611d5281612217565b82525050565b611d6181612217565b82525050565b611d7081612245565b82525050565b611d7f8161224f565b82525050565b6000611d928284866119bd565b9150611d9d82611a77565b91508190509392505050565b6000611db68284866119bd565b9150611dc182611b26565b91508190509392505050565b6000611dd882611ae0565b9150611de58284866119bd565b91508190509392505050565b6000611dfc82611b03565b9150611e098284866119bd565b91508190509392505050565b6000602082019050611e2a6000830184611918565b92915050565b6000604082019050611e456000830185611918565b611e526020830184611918565b9392505050565b6000606082019050611e6e6000830186611918565b8181036020830152611e808185611a1b565b90508181036040830152611e948184611a1b565b9050949350505050565b6000602082019050611eb36000830184611927565b92915050565b6000602082019050611ece6000830184611945565b92915050565b6000602082019050611ee96000830184611954565b92915050565b6000602082019050611f046000830184611963565b92915050565b6000602082019050611f1f6000830184611972565b92915050565b6000602082019050611f3a6000830184611981565b92915050565b60006020820190508181036000830152611f5b818486611990565b90509392505050565b60006020820190508181036000830152611f7d81611a54565b9050919050565b60006020820190508181036000830152611f9d81611a9a565b9050919050565b60006020820190508181036000830152611fbd81611abd565b9050919050565b60006020820190508181036000830152611fdd81611b49565b9050919050565b60006020820190508181036000830152611ffd81611b6c565b9050919050565b6000602082019050818103600083015261201d81611b8f565b9050919050565b6000602082019050818103600083015261203d81611bb2565b9050919050565b6000602082019050818103600083015261205d81611bd5565b9050919050565b6000602082019050818103600083015261207d81611bf8565b9050919050565b6000602082019050818103600083015261209e8184611c1b565b905092915050565b60006020820190506120bb6000830184611d58565b92915050565b60006020820190506120d66000830184611d67565b92915050565b600080833560016020038436030381126120f9576120f8612377565b5b80840192508235915067ffffffffffffffff82111561211b5761211a61236d565b5b6020830192506001820236038313156121375761213661237c565b5b509250929050565b600081519050919050565b600082825260208201905092915050565b600082825260208201905092915050565b600081905092915050565b600061218282612245565b915061218d83612245565b9250827fffffffffffffffffffffffffffffffffffffffffffffffffffffffffffffffff038211156121c2576121c161233e565b5b828201905092915050565b60006121d882612225565b9050919050565b60008115159050919050565b60007fffffffffffffffffffffffffffffffff0000000000000000000000000000000082169050919050565b600061ffff82169050919050565b600073ffffffffffffffffffffffffffffffffffffffff82169050919050565b6000819050919050565b600063ffffffff82169050919050565b600060ff82169050919050565b60006122778261227e565b9050919050565b600061228982612225565b9050919050565b600061229b826122a2565b9050919050565b60006122ad82612225565b9050919050565b60006122bf826122c6565b9050919050565b60006122d182612225565b9050919050565b60006122e3826122ea565b9050919050565b60006122f582612225565b9050919050565b82818337600083830152505050565b60005b8381101561232957808201518184015260208101905061230e565b83811115612338576000848401525b50505050565b7f4e487b7100000000000000000000000000000000000000000000000000000000600052601160045260246000fd5b600080fd5b600080fd5b600080fd5b600080fd5b600080fd5b600080fd5b6000601f19601f8301169050919050565b7f4f776e61626c653a206e6577206f776e657220697320746865207a65726f206160008201527f6464726573730000000000000000000000000000000000000000000000000000602082015250565b7f2d53484f52540000000000000000000000000000000000000000000000000000600082015250565b7f506f6f6c4b65657065723a206c657665726167656420616d6f756e7420696e7660008201527f616c696400000000000000000000000000000000000000000000000000000000602082015250565b7f455243313136373a20637265617465206661696c656400000000000000000000600082015250565b7f4c2d000000000000000000000000000000000000000000000000000000000000600082015250565b7f532d000000000000000000000000000000000000000000000000000000000000600082015250565b7f2d4c4f4e47000000000000000000000000000000000000000000000000000000600082015250565b7f4f776e61626c653a2063616c6c6572206973206e6f7420746865206f776e6572600082015250565b7f546f6b656e20646563696d616c73203e20313800000000000000000000000000600082015250565b7f506f6f6c4b6565706572206e6f74207365740000000000000000000000000000600082015250565b7f506f6f6c436f6d6d69747465724465706c6f796572206e6f7420736574000000600082015250565b7f616464726573732063616e6e6f74206265206e756c6c00000000000000000000600082015250565b7f6d73672e73656e646572206e6f7420676f7665726e616e636500000000000000600082015250565b612606816121cd565b811461261157600080fd5b50565b61261d816121eb565b811461262857600080fd5b50565b61263481612217565b811461263f57600080fd5b50565b61264b81612245565b811461265657600080fd5b50565b6126628161224f565b811461266d57600080fd5b50565b6126798161225f565b811461268457600080fd5b5056fea26469706673582212208e872bb6f2733621264002d6569e8d17be1e66fd7370825416c5bfaa0b776d7c64736f6c6343000806003360806040523480156200001157600080fd5b506040518060400160405280600a81526020017f424153455f544f4b454e000000000000000000000000000000000000000000008152506040518060400160405280600481526020017f4241534500000000000000000000000000000000000000000000000000000000815250816004908051906020019062000096929190620000d4565b508060059080519060200190620000af929190620000d4565b506008600660006101000a81548160ff021916908360ff1602179055505050620001e9565b828054620000e29062000184565b90600052602060002090601f01602090048101928262000106576000855562000152565b82601f106200012157805160ff191683800117855562000152565b8280016001018555821562000152579182015b828111156200015157825182559160200191906001019062000134565b5b50905062000161919062000165565b5090565b5b808211156200018057600081600090555060010162000166565b5090565b600060028204905060018216806200019d57607f821691505b60208210811415620001b457620001b3620001ba565b5b50919050565b7f4e487b7100000000000000000000000000000000000000000000000000000000600052602260045260246000fd5b611f2180620001f96000396000f3fe608060405234801561001057600080fd5b50600436106101005760003560e01c80639065714711610097578063a9059cbb11610066578063a9059cbb146102d7578063dd62ed3e14610307578063f2fde38b14610337578063fcd3533c1461035357610100565b8063906571471461023d57806394bf804d1461025957806395d89b4114610289578063a457c2d7146102a757610100565b8063313ce567116100d3578063313ce567146101a157806339509351146101bf57806370a08231146101ef5780638da5cb5b1461021f57610100565b806306fdde0314610105578063095ea7b31461012357806318160ddd1461015357806323b872dd14610171575b600080fd5b61010d610383565b60405161011a9190611848565b60405180910390f35b61013d600480360381019061013891906115e2565b610415565b60405161014a919061182d565b60405180910390f35b61015b610433565b604051610168919061198a565b60405180910390f35b61018b60048036038101906101869190611504565b61043d565b604051610198919061182d565b60405180910390f35b6101a96104f5565b6040516101b691906119a5565b60405180910390f35b6101d960048036038101906101d491906115e2565b61050c565b6040516101e6919061182d565b60405180910390f35b61020960048036038101906102049190611497565b6105b8565b604051610216919061198a565b60405180910390f35b610227610601565b6040516102349190611812565b60405180910390f35b61025760048036038101906102529190611557565b610627565b005b610273600480360381019061026e9190611622565b61078e565b604051610280919061182d565b60405180910390f35b610291610834565b60405161029e9190611848565b60405180910390f35b6102c160048036038101906102bc91906115e2565b6108c6565b6040516102ce919061182d565b60405180910390f35b6102f160048036038101906102ec91906115e2565b610972565b6040516102fe919061182d565b60405180910390f35b610321600480360381019061031c91906114c4565b610990565b60405161032e919061198a565b60405180910390f35b610351600480360381019061034c9190611497565b610a17565b005b61036d60048036038101906103689190611622565b610b5b565b60405161037a919061182d565b60405180910390f35b60606004805461039290611b53565b80601f01602080910402602001604051908101604052809291908181526020018280546103be90611b53565b801561040b5780601f106103e05761010080835404028352916020019161040b565b820191906000526020600020905b8154815290600101906020018083116103ee57829003601f168201915b5050505050905090565b6000610429610422610c01565b8484610c09565b6001905092915050565b6000600354905090565b600061044a848484610dd4565b6104ea84610456610c01565b84600260008973ffffffffffffffffffffffffffffffffffffffff1673ffffffffffffffffffffffffffffffffffffffff16815260200190815260200160002060006104a0610c01565b73ffffffffffffffffffffffffffffffffffffffff1673ffffffffffffffffffffffffffffffffffffffff168152602001908152602001600020546104e59190611a88565b610c09565b600190509392505050565b6000600660009054906101000a900460ff16905090565b60006105ae610519610c01565b848460026000610527610c01565b73ffffffffffffffffffffffffffffffffffffffff1673ffffffffffffffffffffffffffffffffffffffff16815260200190815260200160002060008873ffffffffffffffffffffffffffffffffffffffff1673ffffffffffffffffffffffffffffffffffffffff168152602001908152602001600020546105a99190611a32565b610c09565b6001905092915050565b6000600160008373ffffffffffffffffffffffffffffffffffffffff1673ffffffffffffffffffffffffffffffffffffffff168152602001908152602001600020549050919050565b600660019054906101000a900473ffffffffffffffffffffffffffffffffffffffff1681565b600060019054906101000a900460ff168061064d575060008054906101000a900460ff16155b61068c576040517f08c379a0000000000000000000000000000000000000000000000000000000008152600401610683906118ca565b60405180910390fd5b60008060019054906101000a900460ff1615905080156106dc576001600060016101000a81548160ff02191690831515021790555060016000806101000a81548160ff0219169083151502179055505b83600660016101000a81548173ffffffffffffffffffffffffffffffffffffffff021916908373ffffffffffffffffffffffffffffffffffffffff160217905550826004908051906020019061073392919061135a565b50816005908051906020019061074a92919061135a565b506012600660006101000a81548160ff021916908360ff16021790555080156107885760008060016101000a81548160ff0219169083151502179055505b50505050565b6000600660019054906101000a900473ffffffffffffffffffffffffffffffffffffffff1673ffffffffffffffffffffffffffffffffffffffff163373ffffffffffffffffffffffffffffffffffffffff1614610820576040517f08c379a0000000000000000000000000000000000000000000000000000000008152600401610817906118ea565b60405180910390fd5b61082a8284611045565b6001905092915050565b60606005805461084390611b53565b80601f016020809104026020016040519081016040528092919081815260200182805461086f90611b53565b80156108bc5780601f10610891576101008083540402835291602001916108bc565b820191906000526020600020905b81548152906001019060200180831161089f57829003601f168201915b5050505050905090565b60006109686108d3610c01565b8484600260006108e1610c01565b73ffffffffffffffffffffffffffffffffffffffff1673ffffffffffffffffffffffffffffffffffffffff16815260200190815260200160002060008873ffffffffffffffffffffffffffffffffffffffff1673ffffffffffffffffffffffffffffffffffffffff168152602001908152602001600020546109639190611a88565b610c09565b6001905092915050565b600061098661097f610c01565b8484610dd4565b6001905092915050565b6000600260008473ffffffffffffffffffffffffffffffffffffffff1673ffffffffffffffffffffffffffffffffffffffff16815260200190815260200160002060008373ffffffffffffffffffffffffffffffffffffffff1673ffffffffffffffffffffffffffffffffffffffff16815260200190815260200160002054905092915050565b600660019054906101000a900473ffffffffffffffffffffffffffffffffffffffff1673ffffffffffffffffffffffffffffffffffffffff163373ffffffffffffffffffffffffffffffffffffffff1614610aa7576040517f08c379a0000000000000000000000000000000000000000000000000000000008152600401610a9e906118ea565b60405180910390fd5b600073ffffffffffffffffffffffffffffffffffffffff168173ffffffffffffffffffffffffffffffffffffffff161415610b17576040517f08c379a0000000000000000000000000000000000000000000000000000000008152600401610b0e9061188a565b60405180910390fd5b80600660016101000a81548173ffffffffffffffffffffffffffffffffffffffff021916908373ffffffffffffffffffffffffffffffffffffffff16021790555050565b6000600660019054906101000a900473ffffffffffffffffffffffffffffffffffffffff1673ffffffffffffffffffffffffffffffffffffffff163373ffffffffffffffffffffffffffffffffffffffff1614610bed576040517f08c379a0000000000000000000000000000000000000000000000000000000008152600401610be4906118ea565b60405180910390fd5b610bf782846111cd565b6001905092915050565b600033905090565b600073ffffffffffffffffffffffffffffffffffffffff168373ffffffffffffffffffffffffffffffffffffffff161415610c79576040517f08c379a0000000000000000000000000000000000000000000000000000000008152600401610c709061194a565b60405180910390fd5b600073ffffffffffffffffffffffffffffffffffffffff168273ffffffffffffffffffffffffffffffffffffffff161415610ce9576040517f08c379a0000000000000000000000000000000000000000000000000000000008152600401610ce0906118aa565b60405180910390fd5b80600260008573ffffffffffffffffffffffffffffffffffffffff1673ffffffffffffffffffffffffffffffffffffffff16815260200190815260200160002060008473ffffffffffffffffffffffffffffffffffffffff1673ffffffffffffffffffffffffffffffffffffffff168152602001908152602001600020819055508173ffffffffffffffffffffffffffffffffffffffff168373ffffffffffffffffffffffffffffffffffffffff167f8c5be1e5ebec7d5bd14f71427d1e84f3dd0314c0f7b2291e5b200ac8c7c3b92583604051610dc7919061198a565b60405180910390a3505050565b600073ffffffffffffffffffffffffffffffffffffffff168373ffffffffffffffffffffffffffffffffffffffff161415610e44576040517f08c379a0000000000000000000000000000000000000000000000000000000008152600401610e3b9061192a565b60405180910390fd5b600073ffffffffffffffffffffffffffffffffffffffff168273ffffffffffffffffffffffffffffffffffffffff161415610eb4576040517f08c379a0000000000000000000000000000000000000000000000000000000008152600401610eab9061186a565b60405180910390fd5b610ebf838383611355565b80600160008573ffffffffffffffffffffffffffffffffffffffff1673ffffffffffffffffffffffffffffffffffffffff16815260200190815260200160002054610f0a9190611a88565b600160008573ffffffffffffffffffffffffffffffffffffffff1673ffffffffffffffffffffffffffffffffffffffff1681526020019081526020016000208190555080600160008473ffffffffffffffffffffffffffffffffffffffff1673ffffffffffffffffffffffffffffffffffffffff16815260200190815260200160002054610f989190611a32565b600160008473ffffffffffffffffffffffffffffffffffffffff1673ffffffffffffffffffffffffffffffffffffffff168152602001908152602001600020819055508173ffffffffffffffffffffffffffffffffffffffff168373ffffffffffffffffffffffffffffffffffffffff167fddf252ad1be2c89b69c2b068fc378daa952ba7f163c4a11628f55a4df523b3ef83604051611038919061198a565b60405180910390a3505050565b600073ffffffffffffffffffffffffffffffffffffffff168273ffffffffffffffffffffffffffffffffffffffff1614156110b5576040517f08c379a00000000000000000000000000000000000000000000000000000000081526004016110ac9061196a565b60405180910390fd5b6110c160008383611355565b806003546110cf9190611a32565b60038190555080600160008473ffffffffffffffffffffffffffffffffffffffff1673ffffffffffffffffffffffffffffffffffffffff168152602001908152602001600020546111209190611a32565b600160008473ffffffffffffffffffffffffffffffffffffffff1673ffffffffffffffffffffffffffffffffffffffff168152602001908152602001600020819055508173ffffffffffffffffffffffffffffffffffffffff16600073ffffffffffffffffffffffffffffffffffffffff167fddf252ad1be2c89b69c2b068fc378daa952ba7f163c4a11628f55a4df523b3ef836040516111c1919061198a565b60405180910390a35050565b600073ffffffffffffffffffffffffffffffffffffffff168273ffffffffffffffffffffffffffffffffffffffff16141561123d576040517f08c379a00000000000000000000000000000000000000000000000000000000081526004016112349061190a565b60405180910390fd5b61124982600083611355565b80600160008473ffffffffffffffffffffffffffffffffffffffff1673ffffffffffffffffffffffffffffffffffffffff168152602001908152602001600020546112949190611a88565b600160008473ffffffffffffffffffffffffffffffffffffffff1673ffffffffffffffffffffffffffffffffffffffff16815260200190815260200160002081905550806003546112e59190611a88565b600381905550600073ffffffffffffffffffffffffffffffffffffffff168273ffffffffffffffffffffffffffffffffffffffff167fddf252ad1be2c89b69c2b068fc378daa952ba7f163c4a11628f55a4df523b3ef83604051611349919061198a565b60405180910390a35050565b505050565b82805461136690611b53565b90600052602060002090601f01602090048101928261138857600085556113cf565b82601f106113a157805160ff19168380011785556113cf565b828001600101855582156113cf579182015b828111156113ce5782518255916020019190600101906113b3565b5b5090506113dc91906113e0565b5090565b5b808211156113f95760008160009055506001016113e1565b5090565b600061141061140b846119e5565b6119c0565b90508281526020810184848401111561142c5761142b611c48565b5b611437848285611b11565b509392505050565b60008135905061144e81611ebd565b92915050565b600082601f83011261146957611468611c43565b5b81356114798482602086016113fd565b91505092915050565b60008135905061149181611ed4565b92915050565b6000602082840312156114ad576114ac611c52565b5b60006114bb8482850161143f565b91505092915050565b600080604083850312156114db576114da611c52565b5b60006114e98582860161143f565b92505060206114fa8582860161143f565b9150509250929050565b60008060006060848603121561151d5761151c611c52565b5b600061152b8682870161143f565b935050602061153c8682870161143f565b925050604061154d86828701611482565b9150509250925092565b6000806000606084860312156115705761156f611c52565b5b600061157e8682870161143f565b935050602084013567ffffffffffffffff81111561159f5761159e611c4d565b5b6115ab86828701611454565b925050604084013567ffffffffffffffff8111156115cc576115cb611c4d565b5b6115d886828701611454565b9150509250925092565b600080604083850312156115f9576115f8611c52565b5b60006116078582860161143f565b925050602061161885828601611482565b9150509250929050565b6000806040838503121561163957611638611c52565b5b600061164785828601611482565b92505060206116588582860161143f565b9150509250929050565b61166b81611abc565b82525050565b61167a81611ace565b82525050565b600061168b82611a16565b6116958185611a21565b93506116a5818560208601611b20565b6116ae81611c57565b840191505092915050565b60006116c6602383611a21565b91506116d182611c68565b604082019050919050565b60006116e9601b83611a21565b91506116f482611cb7565b602082019050919050565b600061170c602283611a21565b915061171782611ce0565b604082019050919050565b600061172f602e83611a21565b915061173a82611d2f565b604082019050919050565b6000611752601483611a21565b915061175d82611d7e565b602082019050919050565b6000611775602183611a21565b915061178082611da7565b604082019050919050565b6000611798602583611a21565b91506117a382611df6565b604082019050919050565b60006117bb602483611a21565b91506117c682611e45565b604082019050919050565b60006117de601f83611a21565b91506117e982611e94565b602082019050919050565b6117fd81611afa565b82525050565b61180c81611b04565b82525050565b60006020820190506118276000830184611662565b92915050565b60006020820190506118426000830184611671565b92915050565b600060208201905081810360008301526118628184611680565b905092915050565b60006020820190508181036000830152611883816116b9565b9050919050565b600060208201905081810360008301526118a3816116dc565b9050919050565b600060208201905081810360008301526118c3816116ff565b9050919050565b600060208201905081810360008301526118e381611722565b9050919050565b6000602082019050818103600083015261190381611745565b9050919050565b6000602082019050818103600083015261192381611768565b9050919050565b600060208201905081810360008301526119438161178b565b9050919050565b60006020820190508181036000830152611963816117ae565b9050919050565b60006020820190508181036000830152611983816117d1565b9050919050565b600060208201905061199f60008301846117f4565b92915050565b60006020820190506119ba6000830184611803565b92915050565b60006119ca6119db565b90506119d68282611b85565b919050565b6000604051905090565b600067ffffffffffffffff821115611a00576119ff611c14565b5b611a0982611c57565b9050602081019050919050565b600081519050919050565b600082825260208201905092915050565b6000611a3d82611afa565b9150611a4883611afa565b9250827fffffffffffffffffffffffffffffffffffffffffffffffffffffffffffffffff03821115611a7d57611a7c611bb6565b5b828201905092915050565b6000611a9382611afa565b9150611a9e83611afa565b925082821015611ab157611ab0611bb6565b5b828203905092915050565b6000611ac782611ada565b9050919050565b60008115159050919050565b600073ffffffffffffffffffffffffffffffffffffffff82169050919050565b6000819050919050565b600060ff82169050919050565b82818337600083830152505050565b60005b83811015611b3e578082015181840152602081019050611b23565b83811115611b4d576000848401525b50505050565b60006002820490506001821680611b6b57607f821691505b60208210811415611b7f57611b7e611be5565b5b50919050565b611b8e82611c57565b810181811067ffffffffffffffff82111715611bad57611bac611c14565b5b80604052505050565b7f4e487b7100000000000000000000000000000000000000000000000000000000600052601160045260246000fd5b7f4e487b7100000000000000000000000000000000000000000000000000000000600052602260045260246000fd5b7f4e487b7100000000000000000000000000000000000000000000000000000000600052604160045260246000fd5b600080fd5b600080fd5b600080fd5b600080fd5b6000601f19601f8301169050919050565b7f45524332303a207472616e7366657220746f20746865207a65726f206164647260008201527f6573730000000000000000000000000000000000000000000000000000000000602082015250565b7f4f776e65723a2073657474696e6720746f203020616464726573730000000000600082015250565b7f45524332303a20617070726f766520746f20746865207a65726f20616464726560008201527f7373000000000000000000000000000000000000000000000000000000000000602082015250565b7f496e697469616c697a61626c653a20636f6e747261637420697320616c72656160008201527f647920696e697469616c697a6564000000000000000000000000000000000000602082015250565b7f6d73672e73656e646572206e6f74206f776e6572000000000000000000000000600082015250565b7f45524332303a206275726e2066726f6d20746865207a65726f2061646472657360008201527f7300000000000000000000000000000000000000000000000000000000000000602082015250565b7f45524332303a207472616e736665722066726f6d20746865207a65726f20616460008201527f6472657373000000000000000000000000000000000000000000000000000000602082015250565b7f45524332303a20617070726f76652066726f6d20746865207a65726f2061646460008201527f7265737300000000000000000000000000000000000000000000000000000000602082015250565b7f45524332303a206d696e7420746f20746865207a65726f206164647265737300600082015250565b611ec681611abc565b8114611ed157600080fd5b50565b611edd81611afa565b8114611ee857600080fd5b5056fea26469706673582212201f747be7b5ada2f68067d198f26381441d9db8bfbd9375a400169d068ef1e73564736f6c63430008060033608060405234801561001057600080fd5b50614e4a806100206000396000f3fe608060405234801561001057600080fd5b50600436106101fb5760003560e01c80637de93f931161011a578063ba8d5468116100ad578063ddca3f431161007c578063ddca3f4314610534578063f3466dfa14610552578063f633a74014610570578063fab0dd6a1461058c578063fd2c80ae146105a8576101fb565b8063ba8d5468146104c0578063bbcaac38146104de578063cd39f30f146104fa578063d38bfff414610518576101fb565b806387f9ca5d116100e957806387f9ca5d1461044a578063ab47c2b314610466578063aced166114610484578063b9ed8abf146104a2576101fb565b80637de93f93146103e65780637e71fc7d146104045780638226f396146104225780638456cb5914610440576101fb565b80636d3e313e11610192578063796da7af11610161578063796da7af146103705780637b0a0c901461038e5780637bbf1033146103aa5780637bfe789a146103c8576101fb565b80636d3e313e146102ea5780636dc2b27114610308578063748747e61461033857806375c66e2f14610354576101fb565b80634f64b2be116101ce5780634f64b2be146102625780635817f0c6146102925780635aa6e675146102ae5780635c975abb146102cc576101fb565b8063217a4b70146102005780633c3f82521461021e5780633f4ba83a1461023a5780634127535814610244575b600080fd5b6102086105c6565b6040516102159190613dd6565b60405180910390f35b610238600480360381019061023391906135eb565b6105ec565b005b6102426106de565b005b61024c6107b7565b6040516102599190613dd6565b60405180910390f35b61027c600480360381019061027791906135be565b6107dd565b6040516102899190613dd6565b60405180910390f35b6102ac60048036038101906102a791906133e7565b610813565b005b6102b66109b4565b6040516102c39190613dd6565b60405180910390f35b6102d46109da565b6040516102e19190613e9e565b60405180910390f35b6102f26109ed565b6040516102ff9190613e83565b60405180910390f35b610322600480360381019061031d91906133e7565b610a6e565b60405161032f9190613e9e565b60405180910390f35b610352600480360381019061034d9190613367565b610c76565b005b61036e6004803603810190610369919061366b565b610eae565b005b610378611152565b6040516103859190613efd565b60405180910390f35b6103a860048036038101906103a39190613394565b6111f9565b005b6103b261140d565b6040516103bf9190613e9e565b60405180910390f35b6103d061143d565b6040516103dd91906143cb565b60405180910390f35b6103ee611453565b6040516103fb9190614350565b60405180910390f35b61040c611459565b6040516104199190614350565b60405180910390f35b61042a61145f565b6040516104379190613dd6565b60405180910390f35b610448611485565b005b610464600480360381019061045f919061366b565b61155e565b005b61046e611802565b60405161047b9190613eb9565b60405180910390f35b61048c611815565b6040516104999190613dd6565b60405180910390f35b6104aa61183b565b6040516104b79190613dd6565b60405180910390f35b6104c8611861565b6040516104d59190614350565b60405180910390f35b6104f860048036038101906104f39190613367565b611867565b005b610502611a9f565b60405161050f9190613dd6565b60405180910390f35b610532600480360381019061052d9190613367565b611ac5565b005b61053c611cfd565b6040516105499190613eb9565b60405180910390f35b61055a611d10565b6040516105679190613f18565b60405180910390f35b61058a600480360381019061058591906134db565b611d9e565b005b6105a660048036038101906105a19190613548565b611f91565b005b6105b0612bdf565b6040516105bd91906143cb565b60405180910390f35b600a60009054906101000a900473ffffffffffffffffffffffffffffffffffffffff1681565b600b60009054906101000a900473ffffffffffffffffffffffffffffffffffffffff1673ffffffffffffffffffffffffffffffffffffffff163373ffffffffffffffffffffffffffffffffffffffff161461067c576040517f08c379a00000000000000000000000000000000000000000000000000000000081526004016106739061419a565b60405180910390fd5b600f60149054906101000a900460ff16156106cc576040517f08c379a00000000000000000000000000000000000000000000000000000000081526004016106c390613ffa565b60405180910390fd5b81600281905550806001819055505050565b600760009054906101000a900473ffffffffffffffffffffffffffffffffffffffff1673ffffffffffffffffffffffffffffffffffffffff163373ffffffffffffffffffffffffffffffffffffffff161461076e576040517f08c379a0000000000000000000000000000000000000000000000000000000008152600401610765906142ba565b60405180910390fd5b6000600f60146101000a81548160ff0219169083151502179055507fa45f47fdea8a1efdd9029a5691c7f759c32b7c698632b563573e155625d1693360405160405180910390a1565b600960009054906101000a900473ffffffffffffffffffffffffffffffffffffffff1681565b600581600281106107ed57600080fd5b016000915054906101000a900473ffffffffffffffffffffffffffffffffffffffff1681565b600b60009054906101000a900473ffffffffffffffffffffffffffffffffffffffff1673ffffffffffffffffffffffffffffffffffffffff163373ffffffffffffffffffffffffffffffffffffffff16146108a3576040517f08c379a000000000000000000000000000000000000000000000000000000000815260040161089a9061419a565b60405180910390fd5b600f60149054906101000a900460ff16156108f3576040517f08c379a00000000000000000000000000000000000000000000000000000000081526004016108ea90613ffa565b60405180910390fd5b600073ffffffffffffffffffffffffffffffffffffffff168273ffffffffffffffffffffffffffffffffffffffff161415610963576040517f08c379a000000000000000000000000000000000000000000000000000000000815260040161095a906142fa565b60405180910390fd5b6109b08282600a60009054906101000a900473ffffffffffffffffffffffffffffffffffffffff1673ffffffffffffffffffffffffffffffffffffffff16612bf59092919063ffffffff16565b5050565b600760009054906101000a900473ffffffffffffffffffffffffffffffffffffffff1681565b600f60149054906101000a900460ff1681565b6109f561319b565b6005600280602002604051908101604052809291908260028015610a64576020028201915b8160009054906101000a900473ffffffffffffffffffffffffffffffffffffffff1673ffffffffffffffffffffffffffffffffffffffff1681526020019060010190808311610a1a575b5050505050905090565b6000600860009054906101000a900473ffffffffffffffffffffffffffffffffffffffff1673ffffffffffffffffffffffffffffffffffffffff163373ffffffffffffffffffffffffffffffffffffffff1614610b00576040517f08c379a0000000000000000000000000000000000000000000000000000000008152600401610af79061407a565b60405180910390fd5b600f60149054906101000a900460ff1615610b50576040517f08c379a0000000000000000000000000000000000000000000000000000000008152600401610b4790613ffa565b60405180910390fd5b60006001549050600060025490508082610b6a91906144a8565b8410610b7b57600092505050610c70565b600080731E761FC72EeD30dcA34CD7770c52EADB2d675eB863dc35bc138786866040518463ffffffff1660e01b8152600401610bb993929190614394565b604080518083038186803b158015610bd057600080fd5b505af4158015610be4573d6000803e3d6000fd5b505050506040513d601f19601f82011682018060405250810190610c08919061362b565b915091508160018190555080600281905550610c678787600a60009054906101000a900473ffffffffffffffffffffffffffffffffffffffff1673ffffffffffffffffffffffffffffffffffffffff16612bf59092919063ffffffff16565b60019450505050505b92915050565b600760009054906101000a900473ffffffffffffffffffffffffffffffffffffffff1673ffffffffffffffffffffffffffffffffffffffff163373ffffffffffffffffffffffffffffffffffffffff1614610d06576040517f08c379a0000000000000000000000000000000000000000000000000000000008152600401610cfd906142ba565b60405180910390fd5b600f60149054906101000a900460ff1615610d56576040517f08c379a0000000000000000000000000000000000000000000000000000000008152600401610d4d90613ffa565b60405180910390fd5b600073ffffffffffffffffffffffffffffffffffffffff168173ffffffffffffffffffffffffffffffffffffffff161415610dc6576040517f08c379a0000000000000000000000000000000000000000000000000000000008152600401610dbd906141ba565b60405180910390fd5b6000600860009054906101000a900473ffffffffffffffffffffffffffffffffffffffff16905081600860006101000a81548173ffffffffffffffffffffffffffffffffffffffff021916908373ffffffffffffffffffffffffffffffffffffffff160217905550600860009054906101000a900473ffffffffffffffffffffffffffffffffffffffff1673ffffffffffffffffffffffffffffffffffffffff168173ffffffffffffffffffffffffffffffffffffffff167f402b3f9a8de3e388e7653c7a5892204fe18b579c8c23db19d6e00f1043ceb92160405160405180910390a35050565b600b60009054906101000a900473ffffffffffffffffffffffffffffffffffffffff1673ffffffffffffffffffffffffffffffffffffffff163373ffffffffffffffffffffffffffffffffffffffff1614610f3e576040517f08c379a0000000000000000000000000000000000000000000000000000000008152600401610f359061419a565b60405180910390fd5b600f60149054906101000a900460ff1615610f8e576040517f08c379a0000000000000000000000000000000000000000000000000000000008152600401610f8590613ffa565b60405180910390fd5b600073ffffffffffffffffffffffffffffffffffffffff168173ffffffffffffffffffffffffffffffffffffffff161415610ffe576040517f08c379a0000000000000000000000000000000000000000000000000000000008152600401610ff59061415a565b60405180910390fd5b600083148061100d5750600183145b61104c576040517f08c379a00000000000000000000000000000000000000000000000000000000081526004016110439061403a565b60405180910390fd5b600583600281106110605761105f61468b565b5b0160009054906101000a900473ffffffffffffffffffffffffffffffffffffffff1673ffffffffffffffffffffffffffffffffffffffff166394bf804d83836040518363ffffffff1660e01b81526004016110bc92919061436b565b602060405180830381600087803b1580156110d657600080fd5b505af11580156110ea573d6000803e3d6000fd5b505050506040513d601f19601f8201168201806040525081019061110e9190613427565b61114d576040517f08c379a000000000000000000000000000000000000000000000000000000000815260040161114490613f7a565b60405180910390fd5b505050565b6000600e60009054906101000a900473ffffffffffffffffffffffffffffffffffffffff1673ffffffffffffffffffffffffffffffffffffffff166398d5fdca6040518163ffffffff1660e01b815260040160206040518083038186803b1580156111bc57600080fd5b505afa1580156111d0573d6000803e3d6000fd5b505050506040513d601f19601f820116820180604052508101906111f491906134ae565b905090565b600b60009054906101000a900473ffffffffffffffffffffffffffffffffffffffff1673ffffffffffffffffffffffffffffffffffffffff163373ffffffffffffffffffffffffffffffffffffffff1614611289576040517f08c379a00000000000000000000000000000000000000000000000000000000081526004016112809061419a565b60405180910390fd5b600f60149054906101000a900460ff16156112d9576040517f08c379a00000000000000000000000000000000000000000000000000000000081526004016112d090613ffa565b60405180910390fd5b600073ffffffffffffffffffffffffffffffffffffffff168373ffffffffffffffffffffffffffffffffffffffff161415611349576040517f08c379a000000000000000000000000000000000000000000000000000000000815260040161134090613fda565b60405180910390fd5b600073ffffffffffffffffffffffffffffffffffffffff168273ffffffffffffffffffffffffffffffffffffffff1614156113b9576040517f08c379a00000000000000000000000000000000000000000000000000000000081526004016113b0906142fa565b60405180910390fd5b611408838383600a60009054906101000a900473ffffffffffffffffffffffffffffffffffffffff1673ffffffffffffffffffffffffffffffffffffffff16612c7b909392919063ffffffff16565b505050565b6000600360049054906101000a900463ffffffff1663ffffffff16600c5461143591906144a8565b421015905090565b600360009054906101000a900463ffffffff1681565b600c5481565b60025481565b600f60009054906101000a900473ffffffffffffffffffffffffffffffffffffffff1681565b600760009054906101000a900473ffffffffffffffffffffffffffffffffffffffff1673ffffffffffffffffffffffffffffffffffffffff163373ffffffffffffffffffffffffffffffffffffffff1614611515576040517f08c379a000000000000000000000000000000000000000000000000000000000815260040161150c906142ba565b60405180910390fd5b6001600f60146101000a81548160ff0219169083151502179055507f9e87fac88ff661f02d44f95383c817fece4bce600a3dab7a54406878b965e75260405160405180910390a1565b600b60009054906101000a900473ffffffffffffffffffffffffffffffffffffffff1673ffffffffffffffffffffffffffffffffffffffff163373ffffffffffffffffffffffffffffffffffffffff16146115ee576040517f08c379a00000000000000000000000000000000000000000000000000000000081526004016115e59061419a565b60405180910390fd5b600f60149054906101000a900460ff161561163e576040517f08c379a000000000000000000000000000000000000000000000000000000000815260040161163590613ffa565b60405180910390fd5b600073ffffffffffffffffffffffffffffffffffffffff168173ffffffffffffffffffffffffffffffffffffffff1614156116ae576040517f08c379a00000000000000000000000000000000000000000000000000000000081526004016116a590613f5a565b60405180910390fd5b60008314806116bd5750600183145b6116fc576040517f08c379a00000000000000000000000000000000000000000000000000000000081526004016116f39061403a565b60405180910390fd5b600583600281106117105761170f61468b565b5b0160009054906101000a900473ffffffffffffffffffffffffffffffffffffffff1673ffffffffffffffffffffffffffffffffffffffff1663fcd3533c83836040518363ffffffff1660e01b815260040161176c92919061436b565b602060405180830381600087803b15801561178657600080fd5b505af115801561179a573d6000803e3d6000fd5b505050506040513d601f19601f820116820180604052508101906117be9190613427565b6117fd576040517f08c379a00000000000000000000000000000000000000000000000000000000081526004016117f49061401a565b60405180910390fd5b505050565b600460009054906101000a900460801b81565b600860009054906101000a900473ffffffffffffffffffffffffffffffffffffffff1681565b600e60009054906101000a900473ffffffffffffffffffffffffffffffffffffffff1681565b60015481565b600760009054906101000a900473ffffffffffffffffffffffffffffffffffffffff1673ffffffffffffffffffffffffffffffffffffffff163373ffffffffffffffffffffffffffffffffffffffff16146118f7576040517f08c379a00000000000000000000000000000000000000000000000000000000081526004016118ee906142ba565b60405180910390fd5b600f60149054906101000a900460ff1615611947576040517f08c379a000000000000000000000000000000000000000000000000000000000815260040161193e90613ffa565b60405180910390fd5b600073ffffffffffffffffffffffffffffffffffffffff168173ffffffffffffffffffffffffffffffffffffffff1614156119b7576040517f08c379a00000000000000000000000000000000000000000000000000000000081526004016119ae90613f9a565b60405180910390fd5b6000600960009054906101000a900473ffffffffffffffffffffffffffffffffffffffff16905081600960006101000a81548173ffffffffffffffffffffffffffffffffffffffff021916908373ffffffffffffffffffffffffffffffffffffffff160217905550600960009054906101000a900473ffffffffffffffffffffffffffffffffffffffff1673ffffffffffffffffffffffffffffffffffffffff168173ffffffffffffffffffffffffffffffffffffffff167f11f35a22548bcd4c3788ab4a7e4fba427a2014f02e5d5e2da9af62212c03183f60405160405180910390a35050565b600b60009054906101000a900473ffffffffffffffffffffffffffffffffffffffff1681565b600760009054906101000a900473ffffffffffffffffffffffffffffffffffffffff1673ffffffffffffffffffffffffffffffffffffffff163373ffffffffffffffffffffffffffffffffffffffff1614611b55576040517f08c379a0000000000000000000000000000000000000000000000000000000008152600401611b4c906142ba565b60405180910390fd5b600f60149054906101000a900460ff1615611ba5576040517f08c379a0000000000000000000000000000000000000000000000000000000008152600401611b9c90613ffa565b60405180910390fd5b600073ffffffffffffffffffffffffffffffffffffffff168173ffffffffffffffffffffffffffffffffffffffff161415611c15576040517f08c379a0000000000000000000000000000000000000000000000000000000008152600401611c0c90613f3a565b60405180910390fd5b6000600760009054906101000a900473ffffffffffffffffffffffffffffffffffffffff16905081600760006101000a81548173ffffffffffffffffffffffffffffffffffffffff021916908373ffffffffffffffffffffffffffffffffffffffff160217905550600760009054906101000a900473ffffffffffffffffffffffffffffffffffffffff1673ffffffffffffffffffffffffffffffffffffffff168173ffffffffffffffffffffffffffffffffffffffff167f023588d3d1dcaad34e471c9e01b616b794156174bc693539c8fe15c0bfd5d82660405160405180910390a35050565b600360089054906101000a900460801b81565b600d8054611d1d906145fb565b80601f0160208091040260200160405190810160405280929190818152602001828054611d49906145fb565b8015611d965780601f10611d6b57610100808354040283529160200191611d96565b820191906000526020600020905b815481529060010190602001808311611d7957829003601f168201915b505050505081565b600860009054906101000a900473ffffffffffffffffffffffffffffffffffffffff1673ffffffffffffffffffffffffffffffffffffffff163373ffffffffffffffffffffffffffffffffffffffff1614611e2e576040517f08c379a0000000000000000000000000000000000000000000000000000000008152600401611e25906140fa565b60405180910390fd5b600f60149054906101000a900460ff1615611e7e576040517f08c379a0000000000000000000000000000000000000000000000000000000008152600401611e7590613ffa565b60405180910390fd5b611e8661140d565b611ec5576040517f08c379a0000000000000000000000000000000000000000000000000000000008152600401611ebc9061405a565b60405180910390fd5b4264ffffffffff16600c81905550611edd8282612d04565b600b60009054906101000a900473ffffffffffffffffffffffffffffffffffffffff1673ffffffffffffffffffffffffffffffffffffffff16631c536da46040518163ffffffff1660e01b8152600401600060405180830381600087803b158015611f4757600080fd5b505af1158015611f5b573d6000803e3d6000fd5b5050505080827fff8740b55453301923810a0c8f4b6b2da72577fdc5e874f77bebaadcfa2775e260405160405180910390a35050565b600060019054906101000a900460ff1680611fb7575060008054906101000a900460ff16155b611ff6576040517f08c379a0000000000000000000000000000000000000000000000000000000008152600401611fed9061409a565b60405180910390fd5b60008060019054906101000a900460ff161590508015612046576001600060016101000a81548160ff02191690831515021790555060016000806101000a81548160ff0219169083151502179055505b600073ffffffffffffffffffffffffffffffffffffffff16826101800160208101906120729190613367565b73ffffffffffffffffffffffffffffffffffffffff1614156120c9576040517f08c379a00000000000000000000000000000000000000000000000000000000081526004016120c09061425a565b60405180910390fd5b600073ffffffffffffffffffffffffffffffffffffffff16826101a00160208101906120f59190613367565b73ffffffffffffffffffffffffffffffffffffffff16141561214c576040517f08c379a00000000000000000000000000000000000000000000000000000000081526004016121439061411a565b60405180910390fd5b600073ffffffffffffffffffffffffffffffffffffffff168260400160208101906121779190613367565b73ffffffffffffffffffffffffffffffffffffffff1614156121ce576040517f08c379a00000000000000000000000000000000000000000000000000000000081526004016121c5906140ba565b60405180910390fd5b600073ffffffffffffffffffffffffffffffffffffffff168260600160208101906121f99190613367565b73ffffffffffffffffffffffffffffffffffffffff161415612250576040517f08c379a0000000000000000000000000000000000000000000000000000000008152600401612247906141da565b60405180910390fd5b600073ffffffffffffffffffffffffffffffffffffffff1682600001602081019061227b9190613367565b73ffffffffffffffffffffffffffffffffffffffff1614156122d2576040517f08c379a00000000000000000000000000000000000000000000000000000000081526004016122c9906140da565b60405180910390fd5b600073ffffffffffffffffffffffffffffffffffffffff168260200160208101906122fd9190613367565b73ffffffffffffffffffffffffffffffffffffffff161415612354576040517f08c379a000000000000000000000000000000000000000000000000000000000815260040161234b9061417a565b60405180910390fd5b600073ffffffffffffffffffffffffffffffffffffffff1682608001602081019061237f9190613367565b73ffffffffffffffffffffffffffffffffffffffff1614156123d6576040517f08c379a00000000000000000000000000000000000000000000000000000000081526004016123cd9061421a565b60405180910390fd5b600073ffffffffffffffffffffffffffffffffffffffff168260a00160208101906124019190613367565b73ffffffffffffffffffffffffffffffffffffffff161415612458576040517f08c379a000000000000000000000000000000000000000000000000000000000815260040161244f9061427a565b60405180910390fd5b600073ffffffffffffffffffffffffffffffffffffffff168260c00160208101906124839190613367565b73ffffffffffffffffffffffffffffffffffffffff1614156124da576040517f08c379a00000000000000000000000000000000000000000000000000000000081526004016124d19061413a565b60405180910390fd5b816101200160208101906124ee9190613711565b63ffffffff16826101000160208101906125089190613711565b63ffffffff161061254e576040517f08c379a0000000000000000000000000000000000000000000000000000000008152600401612545906142da565b60405180910390fd5b7fffffffffffffffffffffffffffffffffffffffffffffffffffffffffffffffff731E761FC72EeD30dcA34CD7770c52EADB2d675eB8631842c9d88461014001602081019061259d9190613454565b6f3fff000000000000000000000000000060801b6040518363ffffffff1660e01b81526004016125ce929190613ed4565b60206040518083038186803b1580156125e657600080fd5b505af41580156125fa573d6000803e3d6000fd5b505050506040513d601f19601f8201168201806040525081019061261e919061351b565b60000b14612661576040517f08c379a00000000000000000000000000000000000000000000000000000000081526004016126589061423a565b60405180910390fd5b8160000160208101906126749190613367565b600760006101000a81548173ffffffffffffffffffffffffffffffffffffffff021916908373ffffffffffffffffffffffffffffffffffffffff1602179055508160200160208101906126c79190613367565b600860006101000a81548173ffffffffffffffffffffffffffffffffffffffff021916908373ffffffffffffffffffffffffffffffffffffffff16021790555081604001602081019061271a9190613367565b600e60006101000a81548173ffffffffffffffffffffffffffffffffffffffff021916908373ffffffffffffffffffffffffffffffffffffffff16021790555081606001602081019061276d9190613367565b600f60006101000a81548173ffffffffffffffffffffffffffffffffffffffff021916908373ffffffffffffffffffffffffffffffffffffffff160217905550816101a00160208101906127c19190613367565b600a60006101000a81548173ffffffffffffffffffffffffffffffffffffffff021916908373ffffffffffffffffffffffffffffffffffffffff160217905550816101000160208101906128159190613711565b600360006101000a81548163ffffffff021916908363ffffffff160217905550816101200160208101906128499190613711565b600360046101000a81548163ffffffff021916908363ffffffff1602179055508161014001602081019061287d9190613454565b600360086101000a8154816fffffffffffffffffffffffffffffffff021916908360801c0217905550731E761FC72EeD30dcA34CD7770c52EADB2d675eB863dfdbe4da836101600160208101906128d49190613591565b6040518263ffffffff1660e01b81526004016128f09190614335565b60206040518083038186803b15801561290857600080fd5b505af415801561291c573d6000803e3d6000fd5b505050506040513d601f19601f820116820180604052508101906129409190613481565b600460006101000a8154816fffffffffffffffffffffffffffffffff021916908360801c02179055508161018001602081019061297d9190613367565b600960006101000a81548173ffffffffffffffffffffffffffffffffffffffff021916908373ffffffffffffffffffffffffffffffffffffffff1602179055504264ffffffffff16600c81905550818060e001906129db91906143e6565b600d91906129ea9291906131bd565b508160800160208101906129fe9190613367565b6005600060028110612a1357612a1261468b565b5b0160006101000a81548173ffffffffffffffffffffffffffffffffffffffff021916908373ffffffffffffffffffffffffffffffffffffffff1602179055508160a0016020810190612a659190613367565b6005600160028110612a7a57612a7961468b565b5b0160006101000a81548173ffffffffffffffffffffffffffffffffffffffff021916908373ffffffffffffffffffffffffffffffffffffffff1602179055508160c0016020810190612acc9190613367565b600b60006101000a81548173ffffffffffffffffffffffffffffffffffffffff021916908373ffffffffffffffffffffffffffffffffffffffff1602179055508160a0016020810190612b1f9190613367565b73ffffffffffffffffffffffffffffffffffffffff16826080016020810190612b489190613367565b73ffffffffffffffffffffffffffffffffffffffff167fbc8bd61e5dd69ff5cb8c389529c029503515ba368eaafbdaa406e072fdd36072846101a0016020810190612b939190613367565b858060e00190612ba391906143e6565b604051612bb293929190613e28565b60405180910390a38015612bdb5760008060016101000a81548160ff0219169083151502179055505b5050565b600360049054906101000a900463ffffffff1681565b612c768363a9059cbb60e01b8484604051602401612c14929190613e5a565b604051602081830303815290604052907bffffffffffffffffffffffffffffffffffffffffffffffffffffffff19166020820180517bffffffffffffffffffffffffffffffffffffffffffffffffffffffff8381831617835250505050612f2e565b505050565b612cfe846323b872dd60e01b858585604051602401612c9c93929190613df1565b604051602081830303815290604052907bffffffffffffffffffffffffffffffffffffffffffffffffffffffff19166020820180517bffffffffffffffffffffffffffffffffffffffffffffffffffffffff8381831617835250505050612f2e565b50505050565b600f60149054906101000a900460ff1615612d54576040517f08c379a0000000000000000000000000000000000000000000000000000000008152600401612d4b90613ffa565b60405180910390fd5b600082131580612d65575060008113155b15612d9d5780827f27f70c863f1bd3e335bb4d6bf2a31075c861752f0b21a03b816a356035b1dec660405160405180910390a3612f2a565b60006040518060c0016040528084815260200183815260200160025481526020016001548152602001600460009054906101000a900460801b6fffffffffffffffffffffffffffffffff19168152602001600360089054906101000a900460801b6fffffffffffffffffffffffffffffffff191681525090506000806000731E761FC72EeD30dcA34CD7770c52EADB2d675eB863a481c1b4856040518263ffffffff1660e01b8152600401612e52919061431a565b60606040518083038186803b158015612e6a57600080fd5b505af4158015612e7e573d6000803e3d6000fd5b505050506040513d601f19601f82011682018060405250810190612ea291906136be565b9250925092508260028190555081600181905550612f25600960009054906101000a900473ffffffffffffffffffffffffffffffffffffffff1682600a60009054906101000a900473ffffffffffffffffffffffffffffffffffffffff1673ffffffffffffffffffffffffffffffffffffffff16612bf59092919063ffffffff16565b505050505b5050565b6000612f90826040518060400160405280602081526020017f5361666545524332303a206c6f772d6c6576656c2063616c6c206661696c65648152508573ffffffffffffffffffffffffffffffffffffffff16612ff59092919063ffffffff16565b9050600081511115612ff05780806020019051810190612fb09190613427565b612fef576040517f08c379a0000000000000000000000000000000000000000000000000000000008152600401612fe69061429a565b60405180910390fd5b5b505050565b6060613004848460008561300d565b90509392505050565b606082471015613052576040517f08c379a000000000000000000000000000000000000000000000000000000000815260040161304990613fba565b60405180910390fd5b61305b85613121565b61309a576040517f08c379a0000000000000000000000000000000000000000000000000000000008152600401613091906141fa565b60405180910390fd5b6000808673ffffffffffffffffffffffffffffffffffffffff1685876040516130c39190613dbf565b60006040518083038185875af1925050503d8060008114613100576040519150601f19603f3d011682016040523d82523d6000602084013e613105565b606091505b5091509150613115828286613134565b92505050949350505050565b600080823b905060008111915050919050565b6060831561314457829050613194565b6000835111156131575782518084602001fd5b816040517f08c379a000000000000000000000000000000000000000000000000000000000815260040161318b9190613f18565b60405180910390fd5b9392505050565b6040518060400160405280600290602082028036833780820191505090505090565b8280546131c9906145fb565b90600052602060002090601f0160209004810192826131eb5760008555613232565b82601f1061320457803560ff1916838001178555613232565b82800160010185558215613232579182015b82811115613231578235825591602001919060010190613216565b5b50905061323f9190613243565b5090565b5b8082111561325c576000816000905550600101613244565b5090565b60008135905061326f81614d5c565b92915050565b60008151905061328481614d73565b92915050565b60008135905061329981614d8a565b92915050565b6000815190506132ae81614d8a565b92915050565b6000813590506132c381614da1565b92915050565b6000815190506132d881614da1565b92915050565b6000815190506132ed81614db8565b92915050565b60006101c0828403121561330a576133096146bf565b5b81905092915050565b60008135905061332281614dcf565b92915050565b60008135905061333781614de6565b92915050565b60008151905061334c81614de6565b92915050565b60008135905061336181614dfd565b92915050565b60006020828403121561337d5761337c6146d3565b5b600061338b84828501613260565b91505092915050565b6000806000606084860312156133ad576133ac6146d3565b5b60006133bb86828701613260565b93505060206133cc86828701613260565b92505060406133dd86828701613328565b9150509250925092565b600080604083850312156133fe576133fd6146d3565b5b600061340c85828601613260565b925050602061341d85828601613328565b9150509250929050565b60006020828403121561343d5761343c6146d3565b5b600061344b84828501613275565b91505092915050565b60006020828403121561346a576134696146d3565b5b60006134788482850161328a565b91505092915050565b600060208284031215613497576134966146d3565b5b60006134a58482850161329f565b91505092915050565b6000602082840312156134c4576134c36146d3565b5b60006134d2848285016132c9565b91505092915050565b600080604083850312156134f2576134f16146d3565b5b6000613500858286016132b4565b9250506020613511858286016132b4565b9150509250929050565b600060208284031215613531576135306146d3565b5b600061353f848285016132de565b91505092915050565b60006020828403121561355e5761355d6146d3565b5b600082013567ffffffffffffffff81111561357c5761357b6146ce565b5b613588848285016132f3565b91505092915050565b6000602082840312156135a7576135a66146d3565b5b60006135b584828501613313565b91505092915050565b6000602082840312156135d4576135d36146d3565b5b60006135e284828501613328565b91505092915050565b60008060408385031215613602576136016146d3565b5b600061361085828601613328565b925050602061362185828601613328565b9150509250929050565b60008060408385031215613642576136416146d3565b5b60006136508582860161333d565b92505060206136618582860161333d565b9150509250929050565b600080600060608486031215613684576136836146d3565b5b600061369286828701613328565b93505060206136a386828701613328565b92505060406136b486828701613260565b9150509250925092565b6000806000606084860312156136d7576136d66146d3565b5b60006136e58682870161333d565b93505060206136f68682870161333d565b92505060406137078682870161333d565b9150509250925092565b600060208284031215613727576137266146d3565b5b600061373584828501613352565b91505092915050565b600061374a8383613756565b60208301905092915050565b61375f816144fe565b82525050565b61376e816144fe565b82525050565b61377d81614453565b6137878184614481565b925061379282614449565b8060005b838110156137c35781516137aa878261373e565b96506137b583614474565b925050600181019050613796565b505050505050565b6137d481614510565b82525050565b6137e38161451c565b82525050565b6137f28161451c565b82525050565b6138018161451c565b82525050565b60006138128261445e565b61381c818561448c565b935061382c8185602086016145c8565b80840191505092915050565b61384181614548565b82525050565b61385081614548565b82525050565b60006138628385614497565b935061386f8385846145b9565b613878836146d8565b840190509392505050565b600061388e82614469565b6138988185614497565b93506138a88185602086016145c8565b6138b1816146d8565b840191505092915050565b60006138c9602683614497565b91506138d4826146e9565b604082019050919050565b60006138ec602283614497565b91506138f782614738565b604082019050919050565b600061390f600b83614497565b915061391a82614787565b602082019050919050565b6000613932601b83614497565b915061393d826147b0565b602082019050919050565b6000613955602683614497565b9150613960826147d9565b604082019050919050565b6000613978602083614497565b915061398382614828565b602082019050919050565b600061399b600e83614497565b91506139a682614851565b602082019050919050565b60006139be600b83614497565b91506139c98261487a565b602082019050919050565b60006139e1601883614497565b91506139ec826148a3565b602082019050919050565b6000613a04601d83614497565b9150613a0f826148cc565b602082019050919050565b6000613a27601183614497565b9150613a32826148f5565b602082019050919050565b6000613a4a602e83614497565b9150613a558261491e565b604082019050919050565b6000613a6d602283614497565b9150613a788261496d565b604082019050919050565b6000613a90601983614497565b9150613a9b826149bc565b602082019050919050565b6000613ab3601583614497565b9150613abe826149e5565b602082019050919050565b6000613ad6601f83614497565b9150613ae182614a0e565b602082019050919050565b6000613af9602183614497565b9150613b0482614a37565b604082019050919050565b6000613b1c602283614497565b9150613b2782614a86565b604082019050919050565b6000613b3f601a83614497565b9150613b4a82614ad5565b602082019050919050565b6000613b62601c83614497565b9150613b6d82614afe565b602082019050919050565b6000613b85602283614497565b9150613b9082614b27565b604082019050919050565b6000613ba8602183614497565b9150613bb382614b76565b604082019050919050565b6000613bcb601d83614497565b9150613bd682614bc5565b602082019050919050565b6000613bee601e83614497565b9150613bf982614bee565b602082019050919050565b6000613c11601883614497565b9150613c1c82614c17565b602082019050919050565b6000613c34601f83614497565b9150613c3f82614c40565b602082019050919050565b6000613c57601f83614497565b9150613c6282614c69565b602082019050919050565b6000613c7a602a83614497565b9150613c8582614c92565b604082019050919050565b6000613c9d601983614497565b9150613ca882614ce1565b602082019050919050565b6000613cc0601d83614497565b9150613ccb82614d0a565b602082019050919050565b6000613ce3601e83614497565b9150613cee82614d33565b602082019050919050565b60c082016000820151613d0f6000850182613847565b506020820151613d226020850182613847565b506040820151613d356040850182613da1565b506060820151613d486060850182613da1565b506080820151613d5b60808501826137f8565b5060a0820151613d6e60a08501826137f8565b50505050565b613d7d816145a7565b82525050565b613d8c8161458d565b82525050565b613d9b8161458d565b82525050565b613daa8161458d565b82525050565b613db981614597565b82525050565b6000613dcb8284613807565b915081905092915050565b6000602082019050613deb6000830184613765565b92915050565b6000606082019050613e066000830186613765565b613e136020830185613765565b613e206040830184613d83565b949350505050565b6000604082019050613e3d6000830186613765565b8181036020830152613e50818486613856565b9050949350505050565b6000604082019050613e6f6000830185613765565b613e7c6020830184613d83565b9392505050565b6000604082019050613e986000830184613774565b92915050565b6000602082019050613eb360008301846137cb565b92915050565b6000602082019050613ece60008301846137da565b92915050565b6000604082019050613ee960008301856137e9565b613ef660208301846137e9565b9392505050565b6000602082019050613f126000830184613838565b92915050565b60006020820190508181036000830152613f328184613883565b905092915050565b60006020820190508181036000830152613f53816138bc565b9050919050565b60006020820190508181036000830152613f73816138df565b9050919050565b60006020820190508181036000830152613f9381613902565b9050919050565b60006020820190508181036000830152613fb381613925565b9050919050565b60006020820190508181036000830152613fd381613948565b9050919050565b60006020820190508181036000830152613ff38161396b565b9050919050565b600060208201905081810360008301526140138161398e565b9050919050565b60006020820190508181036000830152614033816139b1565b9050919050565b60006020820190508181036000830152614053816139d4565b9050919050565b60006020820190508181036000830152614073816139f7565b9050919050565b6000602082019050818103600083015261409381613a1a565b9050919050565b600060208201905081810360008301526140b381613a3d565b9050919050565b600060208201905081810360008301526140d381613a60565b9050919050565b600060208201905081810360008301526140f381613a83565b9050919050565b6000602082019050818103600083015261411381613aa6565b9050919050565b6000602082019050818103600083015261413381613ac9565b9050919050565b6000602082019050818103600083015261415381613aec565b9050919050565b6000602082019050818103600083015261417381613b0f565b9050919050565b6000602082019050818103600083015261419381613b32565b9050919050565b600060208201905081810360008301526141b381613b55565b9050919050565b600060208201905081810360008301526141d381613b78565b9050919050565b600060208201905081810360008301526141f381613b9b565b9050919050565b6000602082019050818103600083015261421381613bbe565b9050919050565b6000602082019050818103600083015261423381613be1565b9050919050565b6000602082019050818103600083015261425381613c04565b9050919050565b6000602082019050818103600083015261427381613c27565b9050919050565b6000602082019050818103600083015261429381613c4a565b9050919050565b600060208201905081810360008301526142b381613c6d565b9050919050565b600060208201905081810360008301526142d381613c90565b9050919050565b600060208201905081810360008301526142f381613cb3565b9050919050565b6000602082019050818103600083015261431381613cd6565b9050919050565b600060c08201905061432f6000830184613cf9565b92915050565b600060208201905061434a6000830184613d74565b92915050565b60006020820190506143656000830184613d83565b92915050565b60006040820190506143806000830185613d83565b61438d6020830184613765565b9392505050565b60006060820190506143a96000830186613d92565b6143b66020830185613d92565b6143c36040830184613d92565b949350505050565b60006020820190506143e06000830184613db0565b92915050565b60008083356001602003843603038112614403576144026146c4565b5b80840192508235915067ffffffffffffffff821115614425576144246146ba565b5b602083019250600182023603831315614441576144406146c9565b5b509250929050565b6000819050919050565b600060029050919050565b600081519050919050565b600081519050919050565b6000602082019050919050565b600081905092915050565b600081905092915050565b600082825260208201905092915050565b60006144b38261458d565b91506144be8361458d565b9250827fffffffffffffffffffffffffffffffffffffffffffffffffffffffffffffffff038211156144f3576144f261462d565b5b828201905092915050565b60006145098261456d565b9050919050565b60008115159050919050565b60007fffffffffffffffffffffffffffffffff0000000000000000000000000000000082169050919050565b6000819050919050565b60008160000b9050919050565b600061ffff82169050919050565b600073ffffffffffffffffffffffffffffffffffffffff82169050919050565b6000819050919050565b600063ffffffff82169050919050565b60006145b28261455f565b9050919050565b82818337600083830152505050565b60005b838110156145e65780820151818401526020810190506145cb565b838111156145f5576000848401525b50505050565b6000600282049050600182168061461357607f821691505b602082108114156146275761462661465c565b5b50919050565b7f4e487b7100000000000000000000000000000000000000000000000000000000600052601160045260246000fd5b7f4e487b7100000000000000000000000000000000000000000000000000000000600052602260045260246000fd5b7f4e487b7100000000000000000000000000000000000000000000000000000000600052603260045260246000fd5b600080fd5b600080fd5b600080fd5b600080fd5b600080fd5b600080fd5b6000601f19601f8301169050919050565b7f476f7665726e616e636520616464726573732063616e6e6f742062652030206160008201527f6464726573730000000000000000000000000000000000000000000000000000602082015250565b7f4275726e657220616464726573732063616e6e6f74206265203020616464726560008201527f7373000000000000000000000000000000000000000000000000000000000000602082015250565b7f4d696e74206661696c6564000000000000000000000000000000000000000000600082015250565b7f4163636f756e742063616e6e6f74206265203020616464726573730000000000600082015250565b7f416464726573733a20696e73756666696369656e742062616c616e636520666f60008201527f722063616c6c0000000000000000000000000000000000000000000000000000602082015250565b7f46726f6d20616464726573732063616e6e6f7420626520302061646472657373600082015250565b7f506f6f6c20697320706175736564000000000000000000000000000000000000600082015250565b7f4275726e206661696c6564000000000000000000000000000000000000000000600082015250565b7f506f6f6c3a20746f6b656e206f7574206f662072616e67650000000000000000600082015250565b7f55706461746520696e74657276616c206861736e277420706173736564000000600082015250565b7f73656e646572206e6f74206b6565706572000000000000000000000000000000600082015250565b7f496e697469616c697a61626c653a20636f6e747261637420697320616c72656160008201527f647920696e697469616c697a6564000000000000000000000000000000000000602082015250565b7f4f7261636c6520777261707065722063616e6e6f74206265203020616464726560008201527f7373000000000000000000000000000000000000000000000000000000000000602082015250565b7f4f776e65722063616e6e6f742062652030206164647265737300000000000000600082015250565b7f6d73672e73656e646572206e6f74206b65657065720000000000000000000000600082015250565b7f51756f746520746f6b656e2063616e6e6f742062652030206164647265737300600082015250565b7f506f6f6c436f6d6d69747465722063616e6e6f7420626520302061646472657360008201527f7300000000000000000000000000000000000000000000000000000000000000602082015250565b7f4d696e74657220616464726573732063616e6e6f74206265203020616464726560008201527f7373000000000000000000000000000000000000000000000000000000000000602082015250565b7f4b65657065722063616e6e6f7420626520302061646472657373000000000000600082015250565b7f6d73672e73656e646572206e6f7420706f6f6c436f6d6d697474657200000000600082015250565b7f4b656570657220616464726573732063616e6e6f74206265203020616464726560008201527f7373000000000000000000000000000000000000000000000000000000000000602082015250565b7f4b6565706572206f7261636c652063616e6e6f7420626520302061646472657360008201527f7300000000000000000000000000000000000000000000000000000000000000602082015250565b7f416464726573733a2063616c6c20746f206e6f6e2d636f6e7472616374000000600082015250565b7f4c6f6e6720746f6b656e2063616e6e6f74206265203020616464726573730000600082015250565b7f4665652069732067726561746572207468616e20313030250000000000000000600082015250565b7f46656520616464726573732063616e6e6f742062652030206164647265737300600082015250565b7f53686f727420746f6b656e2063616e6e6f742062652030206164647265737300600082015250565b7f5361666545524332303a204552433230206f7065726174696f6e20646964206e60008201527f6f74207375636365656400000000000000000000000000000000000000000000602082015250565b7f6d73672e73656e646572206e6f7420676f7665726e616e636500000000000000600082015250565b7f66726f6e7452756e6e696e67203e20757064617465496e74657276616c000000600082015250565b7f546f20616464726573732063616e6e6f74206265203020616464726573730000600082015250565b614d65816144fe565b8114614d7057600080fd5b50565b614d7c81614510565b8114614d8757600080fd5b50565b614d938161451c565b8114614d9e57600080fd5b50565b614daa81614548565b8114614db557600080fd5b50565b614dc181614552565b8114614dcc57600080fd5b50565b614dd88161455f565b8114614de357600080fd5b50565b614def8161458d565b8114614dfa57600080fd5b50565b614e0681614597565b8114614e1157600080fd5b5056fea264697066735822122009c459858ca2fa60c742c7440050f800095a98327dce39ddf7e167c63280351464736f6c63430008060033",
  "libraries": {
    "PoolSwapLibrary": "0x1E761FC72EeD30dcA34CD7770c52EADB2d675eB8"
  },
  "devdoc": {
    "kind": "dev",
    "methods": {
      "deployPool((string,uint32,uint32,uint16,address,address,address))": {
        "params": {
          "deploymentParameters": "Deployment parameters of the market. Some may be reconfigurable"
        },
        "returns": {
          "_0": "Address of the created pool"
        }
      },
      "owner()": {
        "details": "Returns the address of the current owner."
      },
      "renounceOwnership()": {
        "details": "Leaves the contract without owner. It will not be possible to call `onlyOwner` functions anymore. Can only be called by the current owner. NOTE: Renouncing ownership will leave the contract without an owner, thereby removing any functionality that is only available to the owner."
      },
      "transferOwnership(address)": {
        "details": "Transfers ownership of the contract to a new account (`newOwner`). Can only be called by the current owner."
      }
    },
    "title": "The pool factory contract",
    "version": 1
  },
  "userdoc": {
    "events": {
      "DeployPool(address,string)": {
        "notice": "Creates a notification when a pool is deployed"
      }
    },
    "kind": "user",
    "methods": {
      "deployPool((string,uint32,uint32,uint16,address,address,address))": {
        "notice": "Deploy a leveraged pool with given parameters"
      },
      "isValidPool(address)": {
        "notice": "Format: Pool address => validity"
      },
      "pools(uint256)": {
        "notice": "Format: Pool counter => pool address"
      }
    },
    "version": 1
  },
  "storageLayout": {
    "storage": [
      {
        "astId": 110,
        "contract": "contracts/implementation/PoolFactory.sol:PoolFactory",
        "label": "_owner",
        "offset": 0,
        "slot": "0",
        "type": "t_address"
      },
      {
        "astId": 8759,
        "contract": "contracts/implementation/PoolFactory.sol:PoolFactory",
        "label": "pairTokenBase",
        "offset": 0,
        "slot": "1",
        "type": "t_contract(PoolToken)10478"
      },
      {
        "astId": 8762,
        "contract": "contracts/implementation/PoolFactory.sol:PoolFactory",
        "label": "poolBase",
        "offset": 0,
        "slot": "2",
        "type": "t_contract(LeveragedPool)7771"
      },
      {
        "astId": 8765,
        "contract": "contracts/implementation/PoolFactory.sol:PoolFactory",
        "label": "poolKeeper",
        "offset": 0,
        "slot": "3",
        "type": "t_contract(IPoolKeeper)10991"
      },
      {
        "astId": 8768,
        "contract": "contracts/implementation/PoolFactory.sol:PoolFactory",
        "label": "poolCommitterDeployer",
        "offset": 0,
        "slot": "4",
        "type": "t_contract(IPoolCommitterDeployer)10841"
      },
      {
        "astId": 8771,
        "contract": "contracts/implementation/PoolFactory.sol:PoolFactory",
        "label": "maxLeverage",
        "offset": 20,
        "slot": "4",
        "type": "t_uint16"
      },
      {
        "astId": 8773,
        "contract": "contracts/implementation/PoolFactory.sol:PoolFactory",
        "label": "feeReceiver",
        "offset": 0,
        "slot": "5",
        "type": "t_address"
      },
      {
        "astId": 8775,
        "contract": "contracts/implementation/PoolFactory.sol:PoolFactory",
        "label": "fee",
        "offset": 0,
        "slot": "6",
        "type": "t_bytes16"
      },
      {
        "astId": 8781,
        "contract": "contracts/implementation/PoolFactory.sol:PoolFactory",
        "label": "pools",
        "offset": 0,
        "slot": "7",
        "type": "t_mapping(t_uint256,t_address)"
      },
      {
        "astId": 8784,
        "contract": "contracts/implementation/PoolFactory.sol:PoolFactory",
        "label": "numPools",
        "offset": 0,
        "slot": "8",
        "type": "t_uint256"
      },
      {
        "astId": 8790,
        "contract": "contracts/implementation/PoolFactory.sol:PoolFactory",
        "label": "isValidPool",
        "offset": 0,
        "slot": "9",
        "type": "t_mapping(t_address,t_bool)"
      }
    ],
    "types": {
      "t_address": {
        "encoding": "inplace",
        "label": "address",
        "numberOfBytes": "20"
      },
      "t_bool": {
        "encoding": "inplace",
        "label": "bool",
        "numberOfBytes": "1"
      },
      "t_bytes16": {
        "encoding": "inplace",
        "label": "bytes16",
        "numberOfBytes": "16"
      },
      "t_contract(IPoolCommitterDeployer)10841": {
        "encoding": "inplace",
        "label": "contract IPoolCommitterDeployer",
        "numberOfBytes": "20"
      },
      "t_contract(IPoolKeeper)10991": {
        "encoding": "inplace",
        "label": "contract IPoolKeeper",
        "numberOfBytes": "20"
      },
      "t_contract(LeveragedPool)7771": {
        "encoding": "inplace",
        "label": "contract LeveragedPool",
        "numberOfBytes": "20"
      },
      "t_contract(PoolToken)10478": {
        "encoding": "inplace",
        "label": "contract PoolToken",
        "numberOfBytes": "20"
      },
      "t_mapping(t_address,t_bool)": {
        "encoding": "mapping",
        "key": "t_address",
        "label": "mapping(address => bool)",
        "numberOfBytes": "32",
        "value": "t_bool"
      },
      "t_mapping(t_uint256,t_address)": {
        "encoding": "mapping",
        "key": "t_uint256",
        "label": "mapping(uint256 => address)",
        "numberOfBytes": "32",
        "value": "t_address"
      },
      "t_uint16": {
        "encoding": "inplace",
        "label": "uint16",
        "numberOfBytes": "2"
      },
      "t_uint256": {
        "encoding": "inplace",
        "label": "uint256",
        "numberOfBytes": "32"
      }
    }
  }
}