{
  "address": "0x4b8C43D0c8a14573D874f681D40EcDE7d6BaC8FB",
  "abi": [
    {
      "inputs": [
        {
          "internalType": "address",
          "name": "_factory",
          "type": "address"
        }
      ],
      "stateMutability": "nonpayable",
      "type": "constructor"
    },
    {
      "anonymous": false,
      "inputs": [
        {
          "indexed": true,
          "internalType": "address",
          "name": "_pool",
          "type": "address"
        },
        {
          "indexed": true,
          "internalType": "address",
          "name": "keeper",
          "type": "address"
        },
        {
          "indexed": false,
          "internalType": "uint256",
          "name": "reward",
          "type": "uint256"
        }
      ],
      "name": "KeeperPaid",
      "type": "event"
    },
    {
      "anonymous": false,
      "inputs": [
        {
          "indexed": true,
          "internalType": "address",
          "name": "_pool",
          "type": "address"
        },
        {
          "indexed": true,
          "internalType": "address",
          "name": "keeper",
          "type": "address"
        },
        {
          "indexed": false,
          "internalType": "uint256",
          "name": "expectedReward",
          "type": "uint256"
        }
      ],
      "name": "KeeperPaymentError",
      "type": "event"
    },
    {
      "anonymous": false,
      "inputs": [
        {
          "indexed": true,
          "internalType": "address",
          "name": "previousOwner",
          "type": "address"
        },
        {
          "indexed": true,
          "internalType": "address",
          "name": "newOwner",
          "type": "address"
        }
      ],
      "name": "OwnershipTransferred",
      "type": "event"
    },
    {
      "anonymous": false,
      "inputs": [
        {
          "indexed": true,
          "internalType": "address",
          "name": "poolAddress",
          "type": "address"
        },
        {
          "indexed": true,
          "internalType": "int256",
          "name": "firstPrice",
          "type": "int256"
        }
      ],
      "name": "PoolAdded",
      "type": "event"
    },
    {
      "anonymous": false,
      "inputs": [
        {
          "indexed": true,
          "internalType": "address",
          "name": "pool",
          "type": "address"
        },
        {
          "indexed": false,
          "internalType": "string",
          "name": "reason",
          "type": "string"
        }
      ],
      "name": "PoolUpkeepError",
      "type": "event"
    },
    {
      "inputs": [],
      "name": "BASE_TIP",
      "outputs": [
        {
          "internalType": "uint256",
          "name": "",
          "type": "uint256"
        }
      ],
      "stateMutability": "view",
      "type": "function"
    },
    {
      "inputs": [],
      "name": "BLOCK_TIME",
      "outputs": [
        {
          "internalType": "uint256",
          "name": "",
          "type": "uint256"
        }
      ],
      "stateMutability": "view",
      "type": "function"
    },
    {
      "inputs": [],
      "name": "MAX_DECIMALS",
      "outputs": [
        {
          "internalType": "uint256",
          "name": "",
          "type": "uint256"
        }
      ],
      "stateMutability": "view",
      "type": "function"
    },
    {
      "inputs": [],
      "name": "TIP_DELTA_PER_BLOCK",
      "outputs": [
        {
          "internalType": "uint256",
          "name": "",
          "type": "uint256"
        }
      ],
      "stateMutability": "view",
      "type": "function"
    },
    {
      "inputs": [
        {
          "internalType": "address[]",
          "name": "_pools",
          "type": "address[]"
        }
      ],
      "name": "checkUpkeepMultiplePools",
      "outputs": [
        {
          "internalType": "bool",
          "name": "",
          "type": "bool"
        }
      ],
      "stateMutability": "view",
      "type": "function"
    },
    {
      "inputs": [
        {
          "internalType": "address",
          "name": "_pool",
          "type": "address"
        }
      ],
      "name": "checkUpkeepSinglePool",
      "outputs": [
        {
          "internalType": "bool",
          "name": "",
          "type": "bool"
        }
      ],
      "stateMutability": "view",
      "type": "function"
    },
    {
      "inputs": [
        {
          "internalType": "address",
          "name": "",
          "type": "address"
        }
      ],
      "name": "executionPrice",
      "outputs": [
        {
          "internalType": "int256",
          "name": "",
          "type": "int256"
        }
      ],
      "stateMutability": "view",
      "type": "function"
    },
    {
      "inputs": [],
      "name": "factory",
      "outputs": [
        {
          "internalType": "contract IPoolFactory",
          "name": "",
          "type": "address"
        }
      ],
      "stateMutability": "view",
      "type": "function"
    },
    {
      "inputs": [
        {
          "internalType": "address",
          "name": "_pool",
          "type": "address"
        },
        {
          "internalType": "uint256",
          "name": "_gasPrice",
          "type": "uint256"
        },
        {
          "internalType": "uint256",
          "name": "_gasSpent",
          "type": "uint256"
        }
      ],
      "name": "keeperGas",
      "outputs": [
        {
          "internalType": "uint256",
          "name": "",
          "type": "uint256"
        }
      ],
      "stateMutability": "view",
      "type": "function"
    },
    {
      "inputs": [
        {
          "internalType": "address",
          "name": "_pool",
          "type": "address"
        },
        {
          "internalType": "uint256",
          "name": "_gasPrice",
          "type": "uint256"
        },
        {
          "internalType": "uint256",
          "name": "_gasSpent",
          "type": "uint256"
        },
        {
          "internalType": "uint256",
          "name": "_savedPreviousUpdatedTimestamp",
          "type": "uint256"
        },
        {
          "internalType": "uint256",
          "name": "_poolInterval",
          "type": "uint256"
        }
      ],
      "name": "keeperReward",
      "outputs": [
        {
          "internalType": "uint256",
          "name": "",
          "type": "uint256"
        }
      ],
      "stateMutability": "view",
      "type": "function"
    },
    {
      "inputs": [
        {
          "internalType": "uint256",
          "name": "_savedPreviousUpdatedTimestamp",
          "type": "uint256"
        },
        {
          "internalType": "uint256",
          "name": "_poolInterval",
          "type": "uint256"
        }
      ],
      "name": "keeperTip",
      "outputs": [
        {
          "internalType": "uint256",
          "name": "",
          "type": "uint256"
        }
      ],
      "stateMutability": "view",
      "type": "function"
    },
    {
      "inputs": [
        {
          "internalType": "address",
          "name": "_poolAddress",
          "type": "address"
        }
      ],
      "name": "newPool",
      "outputs": [],
      "stateMutability": "nonpayable",
      "type": "function"
    },
    {
      "inputs": [],
      "name": "owner",
      "outputs": [
        {
          "internalType": "address",
          "name": "",
          "type": "address"
        }
      ],
      "stateMutability": "view",
      "type": "function"
    },
    {
      "inputs": [
        {
          "internalType": "address[]",
          "name": "pools",
          "type": "address[]"
        }
      ],
      "name": "performUpkeepMultiplePools",
      "outputs": [],
      "stateMutability": "nonpayable",
      "type": "function"
    },
    {
      "inputs": [
        {
          "internalType": "address",
          "name": "_pool",
          "type": "address"
        }
      ],
      "name": "performUpkeepSinglePool",
      "outputs": [],
      "stateMutability": "nonpayable",
      "type": "function"
    },
    {
      "inputs": [],
      "name": "renounceOwnership",
      "outputs": [],
      "stateMutability": "nonpayable",
      "type": "function"
    },
    {
      "inputs": [
        {
          "internalType": "address",
          "name": "_factory",
          "type": "address"
        }
      ],
      "name": "setFactory",
      "outputs": [],
      "stateMutability": "nonpayable",
      "type": "function"
    },
    {
      "inputs": [
        {
          "internalType": "address",
          "name": "newOwner",
          "type": "address"
        }
      ],
      "name": "transferOwnership",
      "outputs": [],
      "stateMutability": "nonpayable",
      "type": "function"
    }
  ],
  "transactionHash": "0x9ec89dcee3521507f537af5787f56a3ba2f0915225ebcd81382981eb57763c1f",
  "args": [
    "0x6B2936bA3eb7258604d607354a55750eD474Ce32"
  ],
  "solcInputHash": "3efc6345f10ff4dee709674b30f177e5",
  "bytecode": "0x60806040523480156200001157600080fd5b5060405162003835380380620038358339818101604052810190620000379190620001f5565b620000576200004b6200011260201b60201c565b6200011a60201b60201c565b600073ffffffffffffffffffffffffffffffffffffffff168173ffffffffffffffffffffffffffffffffffffffff161415620000ca576040517f08c379a0000000000000000000000000000000000000000000000000000000008152600401620000c1906200024e565b60405180910390fd5b80600260006101000a81548173ffffffffffffffffffffffffffffffffffffffff021916908373ffffffffffffffffffffffffffffffffffffffff16021790555050620002fd565b600033905090565b60008060009054906101000a900473ffffffffffffffffffffffffffffffffffffffff169050816000806101000a81548173ffffffffffffffffffffffffffffffffffffffff021916908373ffffffffffffffffffffffffffffffffffffffff1602179055508173ffffffffffffffffffffffffffffffffffffffff168173ffffffffffffffffffffffffffffffffffffffff167f8be0079c531659141344cd1fd0a4f28419497f9722a3daafe3b4186f6b6457e060405160405180910390a35050565b600081519050620001ef81620002e3565b92915050565b6000602082840312156200020e576200020d620002b5565b5b60006200021e84828501620001de565b91505092915050565b600062000236601b8362000270565b91506200024382620002ba565b602082019050919050565b60006020820190508181036000830152620002698162000227565b9050919050565b600082825260208201905092915050565b60006200028e8262000295565b9050919050565b600073ffffffffffffffffffffffffffffffffffffffff82169050919050565b600080fd5b7f466163746f72792063616e6e6f74206265203020616464726573730000000000600082015250565b620002ee8162000281565b8114620002fa57600080fd5b50565b613528806200030d6000396000f3fe608060405234801561001057600080fd5b50600436106101165760003560e01c8063aea8acb1116100a2578063cdd9e13711610071578063cdd9e137146102cf578063ce1dcdfc146102ff578063f2fde38b1461032f578063f93019101461034b578063fcab9e981461036957610116565b8063aea8acb114610233578063b3fbb7c414610251578063b9c6536514610281578063c45a0155146102b157610116565b8063715018a6116100e9578063715018a6146101a15780638da5cb5b146101ab57806391a60782146101c95780639f9a3d95146101e5578063a40d6b801461020357610116565b80630417cf8e1461011b578063225739b1146101395780633c5c7fb3146101695780635bb4780814610185575b600080fd5b610123610385565b6040516101309190612f1c565b60405180910390f35b610153600480360381019061014e9190612a4a565b61038a565b6040516101609190612e20565b60405180910390f35b610183600480360381019061017e9190612a4a565b6104ca565b005b61019f600480360381019061019a9190612a4a565b61071d565b005b6101a96107dd565b005b6101b3610865565b6040516101c09190612ddc565b60405180910390f35b6101e360048036038101906101de9190612a4a565b61088e565b005b6101ed610ccd565b6040516101fa9190612f1c565b60405180910390f35b61021d60048036038101906102189190612aa4565b610cd2565b60405161022a9190612f1c565b60405180910390f35b61023b610e44565b6040516102489190612f1c565b60405180910390f35b61026b60048036038101906102669190612af7565b610e49565b6040516102789190612f1c565b60405180910390f35b61029b60048036038101906102969190612c46565b61108b565b6040516102a89190612f1c565b60405180910390f35b6102b96110d5565b6040516102c69190612e3b565b60405180910390f35b6102e960048036038101906102e49190612a4a565b6110fb565b6040516102f69190612e56565b60405180910390f35b61031960048036038101906103149190612b72565b611113565b6040516103269190612e20565b60405180910390f35b61034960048036038101906103449190612a4a565b611184565b005b61035361127c565b6040516103609190612f1c565b60405180910390f35b610383600480360381019061037e9190612b72565b611281565b005b601281565b6000600260009054906101000a900473ffffffffffffffffffffffffffffffffffffffff1673ffffffffffffffffffffffffffffffffffffffff16635ab78ee1836040518263ffffffff1660e01b81526004016103e79190612ddc565b60206040518083038186803b1580156103ff57600080fd5b505afa158015610413573d6000803e3d6000fd5b505050506040513d601f19601f820116820180604052508101906104379190612bbf565b61044457600090506104c5565b8173ffffffffffffffffffffffffffffffffffffffff16637bbf10336040518163ffffffff1660e01b815260040160206040518083038186803b15801561048a57600080fd5b505afa15801561049e573d6000803e3d6000fd5b505050506040513d601f19601f820116820180604052508101906104c29190612bbf565b90505b919050565b600260009054906101000a900473ffffffffffffffffffffffffffffffffffffffff1673ffffffffffffffffffffffffffffffffffffffff163373ffffffffffffffffffffffffffffffffffffffff161461055a576040517f08c379a000000000000000000000000000000000000000000000000000000000815260040161055190612efc565b60405180910390fd5b60008173ffffffffffffffffffffffffffffffffffffffff1663b9ed8abf6040518163ffffffff1660e01b815260040160206040518083038186803b1580156105a257600080fd5b505afa1580156105b6573d6000803e3d6000fd5b505050506040513d601f19601f820116820180604052508101906105da9190612a77565b905060008173ffffffffffffffffffffffffffffffffffffffff166398d5fdca6040518163ffffffff1660e01b815260040160206040518083038186803b15801561062457600080fd5b505afa158015610638573d6000803e3d6000fd5b505050506040513d601f19601f8201168201806040525081019061065c9190612bec565b9050600061068d61068861066f846112d7565b6f403abc16d674ec80000000000000000060801b611385565b61181a565b9050818473ffffffffffffffffffffffffffffffffffffffff167fe950cb32f7a787627d713d7365623fef2d762ef8fcf813b865a04350852deb9b60405160405180910390a380600160008673ffffffffffffffffffffffffffffffffffffffff1673ffffffffffffffffffffffffffffffffffffffff1681526020019081526020016000208190555050505050565b61072561197a565b73ffffffffffffffffffffffffffffffffffffffff16610743610865565b73ffffffffffffffffffffffffffffffffffffffff1614610799576040517f08c379a000000000000000000000000000000000000000000000000000000000815260040161079090612edc565b60405180910390fd5b80600260006101000a81548173ffffffffffffffffffffffffffffffffffffffff021916908373ffffffffffffffffffffffffffffffffffffffff16021790555050565b6107e561197a565b73ffffffffffffffffffffffffffffffffffffffff16610803610865565b73ffffffffffffffffffffffffffffffffffffffff1614610859576040517f08c379a000000000000000000000000000000000000000000000000000000000815260040161085090612edc565b60405180910390fd5b6108636000611982565b565b60008060009054906101000a900473ffffffffffffffffffffffffffffffffffffffff16905090565b60005a905061089c8261038a565b6108a65750610cca565b600082905060008173ffffffffffffffffffffffffffffffffffffffff1663b9ed8abf6040518163ffffffff1660e01b815260040160206040518083038186803b1580156108f357600080fd5b505afa158015610907573d6000803e3d6000fd5b505050506040513d601f19601f8201168201806040525081019061092b9190612a77565b73ffffffffffffffffffffffffffffffffffffffff166398d5fdca6040518163ffffffff1660e01b815260040160206040518083038186803b15801561097057600080fd5b505afa158015610984573d6000803e3d6000fd5b505050506040513d601f19601f820116820180604052508101906109a89190612bec565b90506000600160008673ffffffffffffffffffffffffffffffffffffffff1673ffffffffffffffffffffffffffffffffffffffff168152602001908152602001600020549050610a1b610a166109fd846112d7565b6f403abc16d674ec80000000000000000060801b611385565b61181a565b600160008773ffffffffffffffffffffffffffffffffffffffff1673ffffffffffffffffffffffffffffffffffffffff1681526020019081526020016000208190555060008373ffffffffffffffffffffffffffffffffffffffff16637de93f936040518163ffffffff1660e01b815260040160206040518083038186803b158015610aa657600080fd5b505afa158015610aba573d6000803e3d6000fd5b505050506040513d601f19601f82011682018060405250810190610ade9190612c19565b905060008473ffffffffffffffffffffffffffffffffffffffff1663fd2c80ae6040518163ffffffff1660e01b815260040160206040518083038186803b158015610b2857600080fd5b505afa158015610b3c573d6000803e3d6000fd5b505050506040513d601f19601f82011682018060405250810190610b609190612c86565b63ffffffff1690508473ffffffffffffffffffffffffffffffffffffffff1663f633a74084600160008b73ffffffffffffffffffffffffffffffffffffffff1673ffffffffffffffffffffffffffffffffffffffff168152602001908152602001600020546040518363ffffffff1660e01b8152600401610be2929190612e71565b600060405180830381600087803b158015610bfc57600080fd5b505af1925050508015610c0d575060015b610c9e57610c196132d8565b806308c379a01415610c8d5750610c2e6133d2565b80610c395750610c8f565b8773ffffffffffffffffffffffffffffffffffffffff167f8a47468bf96478429d382ed6385d9c77fba8b89540cd88199b1b51d5723b11fa82604051610c7f9190612e9a565b60405180910390a250610c99565b505b3d6000803e3d6000fd5b610cc3565b60005a87610cac9190613067565b90506000489050610cc08982848787611a46565b50505b5050505050505b50565b600581565b6000808473ffffffffffffffffffffffffffffffffffffffff16638226f3966040518163ffffffff1660e01b815260040160206040518083038186803b158015610d1b57600080fd5b505afa158015610d2f573d6000803e3d6000fd5b505050506040513d601f19601f82011682018060405250810190610d539190612a77565b73ffffffffffffffffffffffffffffffffffffffff166398d5fdca6040518163ffffffff1660e01b815260040160206040518083038186803b158015610d9857600080fd5b505afa158015610dac573d6000803e3d6000fd5b505050506040513d601f19601f82011682018060405250810190610dd09190612bec565b905060008113610de4576000915050610e3d565b6000610dfa8486610df5919061300d565b611bc1565b90506000610e0783611bc1565b9050610e37610e32610e198484611385565b6f403abc16d674ec80000000000000000060801b611c3f565b612108565b93505050505b9392505050565b600581565b600080610e57878787610cd2565b90506000610e89610e70610e6b878761108b565b611bc1565b6f403abc16d674ec80000000000000000060801b611385565b9050610e9e81610e996064611bc1565b611c3f565b90506000610ee9610ee4610eb185611bc1565b610edf610ec6610ec088611bc1565b87611385565b6f403abc16d674ec80000000000000000060801b611c3f565b612206565b61181a565b905060008973ffffffffffffffffffffffffffffffffffffffff1663217a4b706040518163ffffffff1660e01b815260040160206040518083038186803b158015610f3357600080fd5b505afa158015610f47573d6000803e3d6000fd5b505050506040513d601f19601f82011682018060405250810190610f6b9190612a77565b73ffffffffffffffffffffffffffffffffffffffff1663313ce5676040518163ffffffff1660e01b815260040160206040518083038186803b158015610fb057600080fd5b505afa158015610fc4573d6000803e3d6000fd5b505050506040513d601f19601f82011682018060405250810190610fe89190612cb3565b60ff1690506000733FE070eC913099fcBd96c18524F873D7c3F95F4863bf36f0e984846040518363ffffffff1660e01b8152600401611028929190612f37565b60206040518083038186803b15801561104057600080fd5b505af4158015611054573d6000803e3d6000fd5b505050506040513d601f19601f820116820180604052508101906110789190612c19565b9050809550505050505095945050505050565b600080600d838561109c9190612f86565b426110a79190613067565b6110b19190612fdc565b90508060056110c0919061300d565b60056110cc9190612f86565b91505092915050565b600260009054906101000a900473ffffffffffffffffffffffffffffffffffffffff1681565b60016020528060005260406000206000915090505481565b600080600090505b838390508110156111785761115684848381811061113c5761113b61327a565b5b90506020020160208101906111519190612a4a565b61038a565b1561116557600191505061117e565b8080611170906131a4565b91505061111b565b50600090505b92915050565b61118c61197a565b73ffffffffffffffffffffffffffffffffffffffff166111aa610865565b73ffffffffffffffffffffffffffffffffffffffff1614611200576040517f08c379a00000000000000000000000000000000000000000000000000000000081526004016111f790612edc565b60405180910390fd5b600073ffffffffffffffffffffffffffffffffffffffff168173ffffffffffffffffffffffffffffffffffffffff161415611270576040517f08c379a000000000000000000000000000000000000000000000000000000000815260040161126790612ebc565b60405180910390fd5b61127981611982565b50565b600d81565b60005b828290508110156112d2576112bf8383838181106112a5576112a461327a565b5b90506020020160208101906112ba9190612a4a565b61088e565b80806112ca906131a4565b915050611284565b505050565b6000808214156112ed57600060801b9050611380565b60008083136112ff5782600003611301565b825b9050600061130e8261286b565b90506070811015611327578060700382901b915061133b565b607081111561133a576070810382901c91505b5b607081613fff01901b6dffffffffffffffffffffffffffff83161791506000841215611377576f80000000000000000000000000000000821791505b8160801b925050505b919050565b600080617fff60708560801c6fffffffffffffffffffffffffffffffff16901c166fffffffffffffffffffffffffffffffff1690506000617fff60708560801c6fffffffffffffffffffffffffffffffff16901c166fffffffffffffffffffffffffffffffff169050617fff82141561151c57617fff8114156114aa57836fffffffffffffffffffffffffffffffff1916856fffffffffffffffffffffffffffffffff19161415611451576f8000000000000000000000000000000060801b8416851892505050611814565b6f8000000000000000000000000000000060801b8486186fffffffffffffffffffffffffffffffff1916141561148d5783851792505050611814565b6f7fff800000000000000000000000000060801b92505050611814565b600060801b6f7fffffffffffffffffffffffffffffff60801b85166fffffffffffffffffffffffffffffffff191614156114fb576f7fff800000000000000000000000000060801b92505050611814565b6f8000000000000000000000000000000060801b8416851892505050611814565b617fff81141561159857600060801b6f7fffffffffffffffffffffffffffffff60801b86166fffffffffffffffffffffffffffffffff19161415611577576f7fff800000000000000000000000000060801b92505050611814565b6f8000000000000000000000000000000060801b8516841892505050611814565b60006dffffffffffffffffffffffffffff8660801c166fffffffffffffffffffffffffffffffff16905060008314156115d457600192506115e9565b6e010000000000000000000000000000811790505b60006dffffffffffffffffffffffffffff8660801c166fffffffffffffffffffffffffffffffff1690506000831415611625576001925061163a565b6e010000000000000000000000000000811790505b808202915060008214156116a757600060801b6f8000000000000000000000000000000060801b878918166fffffffffffffffffffffffffffffffff19161161168757600060801b61169c565b6f8000000000000000000000000000000060801b5b945050505050611814565b828401935060007c020000000000000000000000000000000000000000000000000000000083101561170e577c0100000000000000000000000000000000000000000000000000000000831015611706576117018361286b565b611709565b60e05b611711565b60e15b9050614070818601101561172c5760009450600092506117d4565b6140e081860110156117705761407085101561175157846140700383901c9250611767565b61407085111561176657614070850383901b92505b5b600094506117d3565b61c0dd818601111561178a57617fff9450600092506117d2565b60708111156117a1576070810383901c92506117b5565b60708110156117b4578060700383901b92505b5b6dffffffffffffffffffffffffffff831692506140df8186010394505b5b5b82607086901b6f8000000000000000000000000000000060801b898b181660801c6fffffffffffffffffffffffffffffffff16171760801b955050505050505b92915050565b600080617fff60708460801c6fffffffffffffffffffffffffffffffff16901c166fffffffffffffffffffffffffffffffff1690506140fe81111561185e57600080fd5b613fff811015611872576000915050611975565b60006e0100000000000000000000000000006dffffffffffffffffffffffffffff8560801c6fffffffffffffffffffffffffffffffff161617905061406f8210156118c6578161406f0381901c90506118dc565b61406f8211156118db5761406f820381901b90505b5b6f800000000000000000000000000000008460801c6fffffffffffffffffffffffffffffffff1610611942577f800000000000000000000000000000000000000000000000000000000000000081111561193557600080fd5b8060000392505050611975565b7f7fffffffffffffffffffffffffffffffffffffffffffffffffffffffffffffff81111561196f57600080fd5b80925050505b919050565b600033905090565b60008060009054906101000a900473ffffffffffffffffffffffffffffffffffffffff169050816000806101000a81548173ffffffffffffffffffffffffffffffffffffffff021916908373ffffffffffffffffffffffffffffffffffffffff1602179055508173ffffffffffffffffffffffffffffffffffffffff168173ffffffffffffffffffffffffffffffffffffffff167f8be0079c531659141344cd1fd0a4f28419497f9722a3daafe3b4186f6b6457e060405160405180910390a35050565b6000611a558686868686610e49565b90508573ffffffffffffffffffffffffffffffffffffffff16636dc2b27133836040518363ffffffff1660e01b8152600401611a92929190612df7565b602060405180830381600087803b158015611aac57600080fd5b505af1158015611ac0573d6000803e3d6000fd5b505050506040513d601f19601f82011682018060405250810190611ae49190612bbf565b15611b53573373ffffffffffffffffffffffffffffffffffffffff168673ffffffffffffffffffffffffffffffffffffffff167ff03012dd4aab142682aa01439f94e975e2ec77ef558352323bc05f382f74b08283604051611b469190612f1c565b60405180910390a3611bb9565b3373ffffffffffffffffffffffffffffffffffffffff168673ffffffffffffffffffffffffffffffffffffffff167f08b35d4c86707ba44cdcc5efaa79b8a307e6c7f789f1eb86ca1ff1e9bde0569783604051611bb09190612f1c565b60405180910390a35b505050505050565b600080821415611bd757600060801b9050611c3a565b60008290506000611be78261286b565b90506070811015611c00578060700382901b9150611c14565b6070811115611c13576070810382901c91505b5b607081613fff01901b6dffffffffffffffffffffffffffff83161791508160801b925050505b919050565b600080617fff60708560801c6fffffffffffffffffffffffffffffffff16901c166fffffffffffffffffffffffffffffffff1690506000617fff60708560801c6fffffffffffffffffffffffffffffffff16901c166fffffffffffffffffffffffffffffffff169050617fff821415611cfa57617fff811415611cd9576f7fff800000000000000000000000000060801b92505050612102565b6f8000000000000000000000000000000060801b8416851892505050612102565b617fff811415611d7957600060801b6dffffffffffffffffffffffffffff60801b85166fffffffffffffffffffffffffffffffff191614611d52576f7fff800000000000000000000000000060801b92505050612102565b6f8000000000000000000000000000000060801b84861816600060801b1792505050612102565b600060801b6f7fffffffffffffffffffffffffffffff60801b85166fffffffffffffffffffffffffffffffff19161415611e3457600060801b6f7fffffffffffffffffffffffffffffff60801b86166fffffffffffffffffffffffffffffffff19161415611dfe576f7fff800000000000000000000000000060801b92505050612102565b6f8000000000000000000000000000000060801b848618166f7fff000000000000000000000000000060801b1792505050612102565b60006dffffffffffffffffffffffffffff8560801c166fffffffffffffffffffffffffffffffff1690506000821415611e705760019150611e85565b6e010000000000000000000000000000811790505b60006dffffffffffffffffffffffffffff8760801c166fffffffffffffffffffffffffffffffff1690506000841415611ee95760008114611ee4576000611ecb8261286b565b60e20390508082901b9150600194506072810384019350505b611f02565b60726e0100000000000000000000000000008217901b90505b818181611f1257611f1161324b565b5b0490506000811415611f7d57600060801b6f8000000000000000000000000000000060801b878918166fffffffffffffffffffffffffffffffff191611611f5d57600060801b611f72565b6f8000000000000000000000000000000060801b5b945050505050612102565b6d1000000000000000000000000000811015611f9c57611f9b6131ed565b5b60006e080000000000000000000000000000821015611ffd576e040000000000000000000000000000821015611ff2576e020000000000000000000000000000821015611fea576070611fed565b60715b611ff5565b60725b60ff16612007565b6120068261286b565b5b90506140718401818601111561202557617fff9450600091506120c2565b83613ffc8287010110156120405760009450600091506120c1565b83613f8c82870101101561208e5783613ffc8601111561206b5783613ffc86010382901b9150612085565b83613ffc8601101561208457613ffc8585030382901c91505b5b600094506120c0565b60708111156120a1576070810382901c91505b6dffffffffffffffffffffffffffff8216915083613f8d828701010394505b5b5b81607086901b6f8000000000000000000000000000000060801b898b181660801c6fffffffffffffffffffffffffffffffff16171760801b955050505050505b92915050565b600080617fff60708460801c6fffffffffffffffffffffffffffffffff16901c166fffffffffffffffffffffffffffffffff169050613fff811015612151576000915050612201565b6f800000000000000000000000000000008360801c6fffffffffffffffffffffffffffffffff161061218257600080fd5b6140fe81111561219157600080fd5b60006e0100000000000000000000000000006dffffffffffffffffffffffffffff8560801c6fffffffffffffffffffffffffffffffff161617905061406f8210156121e5578161406f0381901c90506121fb565b61406f8211156121fa5761406f820381901b90505b5b80925050505b919050565b600080617fff60708560801c6fffffffffffffffffffffffffffffffff16901c166fffffffffffffffffffffffffffffffff1690506000617fff60708560801c6fffffffffffffffffffffffffffffffff16901c166fffffffffffffffffffffffffffffffff169050617fff8214156122e257617fff8114156122d857836fffffffffffffffffffffffffffffffff1916856fffffffffffffffffffffffffffffffff191614156122bb578492505050612865565b6f7fff800000000000000000000000000060801b92505050612865565b8492505050612865565b617fff8114156122f6578392505050612865565b60006f800000000000000000000000000000008660801c6fffffffffffffffffffffffffffffffff161015905060006dffffffffffffffffffffffffffff8760801c166fffffffffffffffffffffffffffffffff169050600084141561235f5760019350612374565b6e010000000000000000000000000000811790505b60006f800000000000000000000000000000008760801c6fffffffffffffffffffffffffffffffff161015905060006dffffffffffffffffffffffffffff8860801c166fffffffffffffffffffffffffffffffff16905060008514156123dd57600194506123f2565b6e010000000000000000000000000000811790505b6000831415612454576f8000000000000000000000000000000060801b6fffffffffffffffffffffffffffffffff1916886fffffffffffffffffffffffffffffffff1916146124415787612447565b600060801b5b9650505050505050612865565b60008114156124b6576f8000000000000000000000000000000060801b6fffffffffffffffffffffffffffffffff1916896fffffffffffffffffffffffffffffffff1916146124a357886124a9565b600060801b5b9650505050505050612865565b6000858703905082151585151514156126345760708113156124e15789975050505050505050612865565b60008113156124f5578082901c9150612543565b7fffffffffffffffffffffffffffffffffffffffffffffffffffffffffffffff9081121561252c5788975050505050505050612865565b6000811215612542578060000384901c93508596505b5b81840193506e020000000000000000000000000000841061256c57600184901c93506001870196505b617fff8714156125b75784612594576f7fff000000000000000000000000000060801b6125a9565b6fffff000000000000000000000000000060801b5b975050505050505050612865565b6e0100000000000000000000000000008410156125d757600096506125eb565b6dffffffffffffffffffffffffffff841693505b83607088901b866125fd57600061260f565b6f800000000000000000000000000000005b6fffffffffffffffffffffffffffffffff16171760801b975050505050505050612865565b600081131561264f57600184901b9350600187039650612667565b600081121561266657600182901b91506001860396505b5b60708113156126795760019150612703565b600181131561269557600180820360018403901c019150612702565b7fffffffffffffffffffffffffffffffffffffffffffffffffffffffffffffff908112156126c65760019350612701565b7fffffffffffffffffffffffffffffffffffffffffffffffffffffffffffffffff81121561270057600180826000030360018603901c0193505b5b5b5b81841061271457818403935061271d565b83820393508294505b600084141561273957600060801b975050505050505050612865565b60006127448561286b565b90506071811415612771576dffffffffffffffffffffffffffff600186901c1694506001880197506127d3565b60708110156127be576000816070039050808911156127aa576dffffffffffffffffffffffffffff8187901b16955080890398506127b8565b6001890386901b9550600098505b506127d2565b6dffffffffffffffffffffffffffff851694505b5b617fff88141561281f57856127fb576f7fff000000000000000000000000000060801b612810565b6fffff000000000000000000000000000060801b5b98505050505050505050612865565b84607089901b87612831576000612843565b6f800000000000000000000000000000005b6fffffffffffffffffffffffffffffffff16171760801b985050505050505050505b92915050565b600080821161287957600080fd5b600070010000000000000000000000000000000083106128a157608083901c92506080810190505b6801000000000000000083106128bf57604083901c92506040810190505b64010000000083106128d957602083901c92506020810190505b6201000083106128f157601083901c92506010810190505b610100831061290857600883901c92506008810190505b6010831061291e57600483901c92506004810190505b6004831061293457600283901c92506002810190505b60028310612943576001810190505b80915050919050565b60008135905061295b81613468565b92915050565b60008151905061297081613468565b92915050565b60008083601f84011261298c5761298b6132ff565b5b8235905067ffffffffffffffff8111156129a9576129a86132fa565b5b6020830191508360208202830111156129c5576129c4613304565b5b9250929050565b6000815190506129db8161347f565b92915050565b6000815190506129f081613496565b92915050565b600081359050612a05816134ad565b92915050565b600081519050612a1a816134ad565b92915050565b600081519050612a2f816134c4565b92915050565b600081519050612a44816134db565b92915050565b600060208284031215612a6057612a5f61330e565b5b6000612a6e8482850161294c565b91505092915050565b600060208284031215612a8d57612a8c61330e565b5b6000612a9b84828501612961565b91505092915050565b600080600060608486031215612abd57612abc61330e565b5b6000612acb8682870161294c565b9350506020612adc868287016129f6565b9250506040612aed868287016129f6565b9150509250925092565b600080600080600060a08688031215612b1357612b1261330e565b5b6000612b218882890161294c565b9550506020612b32888289016129f6565b9450506040612b43888289016129f6565b9350506060612b54888289016129f6565b9250506080612b65888289016129f6565b9150509295509295909350565b60008060208385031215612b8957612b8861330e565b5b600083013567ffffffffffffffff811115612ba757612ba6613309565b5b612bb385828601612976565b92509250509250929050565b600060208284031215612bd557612bd461330e565b5b6000612be3848285016129cc565b91505092915050565b600060208284031215612c0257612c0161330e565b5b6000612c10848285016129e1565b91505092915050565b600060208284031215612c2f57612c2e61330e565b5b6000612c3d84828501612a0b565b91505092915050565b60008060408385031215612c5d57612c5c61330e565b5b6000612c6b858286016129f6565b9250506020612c7c858286016129f6565b9150509250929050565b600060208284031215612c9c57612c9b61330e565b5b6000612caa84828501612a20565b91505092915050565b600060208284031215612cc957612cc861330e565b5b6000612cd784828501612a35565b91505092915050565b612ce98161309b565b82525050565b612cf8816130ad565b82525050565b612d078161310a565b82525050565b612d16816130b9565b82525050565b6000612d2782612f6a565b612d318185612f75565b9350612d41818560208601613140565b612d4a81613313565b840191505092915050565b6000612d62602683612f75565b9150612d6d82613331565b604082019050919050565b6000612d85602083612f75565b9150612d9082613380565b602082019050919050565b6000612da8601283612f75565b9150612db3826133a9565b602082019050919050565b612dc7816130e3565b82525050565b612dd6816130e3565b82525050565b6000602082019050612df16000830184612ce0565b92915050565b6000604082019050612e0c6000830185612ce0565b612e196020830184612dbe565b9392505050565b6000602082019050612e356000830184612cef565b92915050565b6000602082019050612e506000830184612cfe565b92915050565b6000602082019050612e6b6000830184612d0d565b92915050565b6000604082019050612e866000830185612d0d565b612e936020830184612d0d565b9392505050565b60006020820190508181036000830152612eb48184612d1c565b905092915050565b60006020820190508181036000830152612ed581612d55565b9050919050565b60006020820190508181036000830152612ef581612d78565b9050919050565b60006020820190508181036000830152612f1581612d9b565b9050919050565b6000602082019050612f316000830184612dbe565b92915050565b6000604082019050612f4c6000830185612dcd565b612f596020830184612dcd565b9392505050565b6000604051905090565b600081519050919050565b600082825260208201905092915050565b6000612f91826130e3565b9150612f9c836130e3565b9250827fffffffffffffffffffffffffffffffffffffffffffffffffffffffffffffffff03821115612fd157612fd061321c565b5b828201905092915050565b6000612fe7826130e3565b9150612ff2836130e3565b9250826130025761300161324b565b5b828204905092915050565b6000613018826130e3565b9150613023836130e3565b9250817fffffffffffffffffffffffffffffffffffffffffffffffffffffffffffffffff048311821515161561305c5761305b61321c565b5b828202905092915050565b6000613072826130e3565b915061307d836130e3565b9250828210156130905761308f61321c565b5b828203905092915050565b60006130a6826130c3565b9050919050565b60008115159050919050565b6000819050919050565b600073ffffffffffffffffffffffffffffffffffffffff82169050919050565b6000819050919050565b600063ffffffff82169050919050565b600060ff82169050919050565b60006131158261311c565b9050919050565b60006131278261312e565b9050919050565b6000613139826130c3565b9050919050565b60005b8381101561315e578082015181840152602081019050613143565b8381111561316d576000848401525b50505050565b61317c82613313565b810181811067ffffffffffffffff8211171561319b5761319a6132a9565b5b80604052505050565b60006131af826130e3565b91507fffffffffffffffffffffffffffffffffffffffffffffffffffffffffffffffff8214156131e2576131e161321c565b5b600182019050919050565b7f4e487b7100000000000000000000000000000000000000000000000000000000600052600160045260246000fd5b7f4e487b7100000000000000000000000000000000000000000000000000000000600052601160045260246000fd5b7f4e487b7100000000000000000000000000000000000000000000000000000000600052601260045260246000fd5b7f4e487b7100000000000000000000000000000000000000000000000000000000600052603260045260246000fd5b7f4e487b7100000000000000000000000000000000000000000000000000000000600052604160045260246000fd5b600060033d11156132f75760046000803e6132f4600051613324565b90505b90565b600080fd5b600080fd5b600080fd5b600080fd5b600080fd5b6000601f19601f8301169050919050565b60008160e01c9050919050565b7f4f776e61626c653a206e6577206f776e657220697320746865207a65726f206160008201527f6464726573730000000000000000000000000000000000000000000000000000602082015250565b7f4f776e61626c653a2063616c6c6572206973206e6f7420746865206f776e6572600082015250565b7f43616c6c6572206e6f7420666163746f72790000000000000000000000000000600082015250565b600060443d10156133e257613465565b6133ea612f60565b60043d036004823e80513d602482011167ffffffffffffffff82111715613412575050613465565b808201805167ffffffffffffffff8111156134305750505050613465565b80602083010160043d03850181111561344d575050505050613465565b61345c82602001850186613173565b82955050505050505b90565b6134718161309b565b811461347c57600080fd5b50565b613488816130ad565b811461349357600080fd5b50565b61349f816130b9565b81146134aa57600080fd5b50565b6134b6816130e3565b81146134c157600080fd5b50565b6134cd816130ed565b81146134d857600080fd5b50565b6134e4816130fd565b81146134ef57600080fd5b5056fea2646970667358221220ab402edd5d6882f53282cdbfbbfd4c711c5d03619d0448ae12da3439bbcf28a864736f6c63430008070033",
  "deployedBytecode": "0x608060405234801561001057600080fd5b50600436106101165760003560e01c8063aea8acb1116100a2578063cdd9e13711610071578063cdd9e137146102cf578063ce1dcdfc146102ff578063f2fde38b1461032f578063f93019101461034b578063fcab9e981461036957610116565b8063aea8acb114610233578063b3fbb7c414610251578063b9c6536514610281578063c45a0155146102b157610116565b8063715018a6116100e9578063715018a6146101a15780638da5cb5b146101ab57806391a60782146101c95780639f9a3d95146101e5578063a40d6b801461020357610116565b80630417cf8e1461011b578063225739b1146101395780633c5c7fb3146101695780635bb4780814610185575b600080fd5b610123610385565b6040516101309190612f1c565b60405180910390f35b610153600480360381019061014e9190612a4a565b61038a565b6040516101609190612e20565b60405180910390f35b610183600480360381019061017e9190612a4a565b6104ca565b005b61019f600480360381019061019a9190612a4a565b61071d565b005b6101a96107dd565b005b6101b3610865565b6040516101c09190612ddc565b60405180910390f35b6101e360048036038101906101de9190612a4a565b61088e565b005b6101ed610ccd565b6040516101fa9190612f1c565b60405180910390f35b61021d60048036038101906102189190612aa4565b610cd2565b60405161022a9190612f1c565b60405180910390f35b61023b610e44565b6040516102489190612f1c565b60405180910390f35b61026b60048036038101906102669190612af7565b610e49565b6040516102789190612f1c565b60405180910390f35b61029b60048036038101906102969190612c46565b61108b565b6040516102a89190612f1c565b60405180910390f35b6102b96110d5565b6040516102c69190612e3b565b60405180910390f35b6102e960048036038101906102e49190612a4a565b6110fb565b6040516102f69190612e56565b60405180910390f35b61031960048036038101906103149190612b72565b611113565b6040516103269190612e20565b60405180910390f35b61034960048036038101906103449190612a4a565b611184565b005b61035361127c565b6040516103609190612f1c565b60405180910390f35b610383600480360381019061037e9190612b72565b611281565b005b601281565b6000600260009054906101000a900473ffffffffffffffffffffffffffffffffffffffff1673ffffffffffffffffffffffffffffffffffffffff16635ab78ee1836040518263ffffffff1660e01b81526004016103e79190612ddc565b60206040518083038186803b1580156103ff57600080fd5b505afa158015610413573d6000803e3d6000fd5b505050506040513d601f19601f820116820180604052508101906104379190612bbf565b61044457600090506104c5565b8173ffffffffffffffffffffffffffffffffffffffff16637bbf10336040518163ffffffff1660e01b815260040160206040518083038186803b15801561048a57600080fd5b505afa15801561049e573d6000803e3d6000fd5b505050506040513d601f19601f820116820180604052508101906104c29190612bbf565b90505b919050565b600260009054906101000a900473ffffffffffffffffffffffffffffffffffffffff1673ffffffffffffffffffffffffffffffffffffffff163373ffffffffffffffffffffffffffffffffffffffff161461055a576040517f08c379a000000000000000000000000000000000000000000000000000000000815260040161055190612efc565b60405180910390fd5b60008173ffffffffffffffffffffffffffffffffffffffff1663b9ed8abf6040518163ffffffff1660e01b815260040160206040518083038186803b1580156105a257600080fd5b505afa1580156105b6573d6000803e3d6000fd5b505050506040513d601f19601f820116820180604052508101906105da9190612a77565b905060008173ffffffffffffffffffffffffffffffffffffffff166398d5fdca6040518163ffffffff1660e01b815260040160206040518083038186803b15801561062457600080fd5b505afa158015610638573d6000803e3d6000fd5b505050506040513d601f19601f8201168201806040525081019061065c9190612bec565b9050600061068d61068861066f846112d7565b6f403abc16d674ec80000000000000000060801b611385565b61181a565b9050818473ffffffffffffffffffffffffffffffffffffffff167fe950cb32f7a787627d713d7365623fef2d762ef8fcf813b865a04350852deb9b60405160405180910390a380600160008673ffffffffffffffffffffffffffffffffffffffff1673ffffffffffffffffffffffffffffffffffffffff1681526020019081526020016000208190555050505050565b61072561197a565b73ffffffffffffffffffffffffffffffffffffffff16610743610865565b73ffffffffffffffffffffffffffffffffffffffff1614610799576040517f08c379a000000000000000000000000000000000000000000000000000000000815260040161079090612edc565b60405180910390fd5b80600260006101000a81548173ffffffffffffffffffffffffffffffffffffffff021916908373ffffffffffffffffffffffffffffffffffffffff16021790555050565b6107e561197a565b73ffffffffffffffffffffffffffffffffffffffff16610803610865565b73ffffffffffffffffffffffffffffffffffffffff1614610859576040517f08c379a000000000000000000000000000000000000000000000000000000000815260040161085090612edc565b60405180910390fd5b6108636000611982565b565b60008060009054906101000a900473ffffffffffffffffffffffffffffffffffffffff16905090565b60005a905061089c8261038a565b6108a65750610cca565b600082905060008173ffffffffffffffffffffffffffffffffffffffff1663b9ed8abf6040518163ffffffff1660e01b815260040160206040518083038186803b1580156108f357600080fd5b505afa158015610907573d6000803e3d6000fd5b505050506040513d601f19601f8201168201806040525081019061092b9190612a77565b73ffffffffffffffffffffffffffffffffffffffff166398d5fdca6040518163ffffffff1660e01b815260040160206040518083038186803b15801561097057600080fd5b505afa158015610984573d6000803e3d6000fd5b505050506040513d601f19601f820116820180604052508101906109a89190612bec565b90506000600160008673ffffffffffffffffffffffffffffffffffffffff1673ffffffffffffffffffffffffffffffffffffffff168152602001908152602001600020549050610a1b610a166109fd846112d7565b6f403abc16d674ec80000000000000000060801b611385565b61181a565b600160008773ffffffffffffffffffffffffffffffffffffffff1673ffffffffffffffffffffffffffffffffffffffff1681526020019081526020016000208190555060008373ffffffffffffffffffffffffffffffffffffffff16637de93f936040518163ffffffff1660e01b815260040160206040518083038186803b158015610aa657600080fd5b505afa158015610aba573d6000803e3d6000fd5b505050506040513d601f19601f82011682018060405250810190610ade9190612c19565b905060008473ffffffffffffffffffffffffffffffffffffffff1663fd2c80ae6040518163ffffffff1660e01b815260040160206040518083038186803b158015610b2857600080fd5b505afa158015610b3c573d6000803e3d6000fd5b505050506040513d601f19601f82011682018060405250810190610b609190612c86565b63ffffffff1690508473ffffffffffffffffffffffffffffffffffffffff1663f633a74084600160008b73ffffffffffffffffffffffffffffffffffffffff1673ffffffffffffffffffffffffffffffffffffffff168152602001908152602001600020546040518363ffffffff1660e01b8152600401610be2929190612e71565b600060405180830381600087803b158015610bfc57600080fd5b505af1925050508015610c0d575060015b610c9e57610c196132d8565b806308c379a01415610c8d5750610c2e6133d2565b80610c395750610c8f565b8773ffffffffffffffffffffffffffffffffffffffff167f8a47468bf96478429d382ed6385d9c77fba8b89540cd88199b1b51d5723b11fa82604051610c7f9190612e9a565b60405180910390a250610c99565b505b3d6000803e3d6000fd5b610cc3565b60005a87610cac9190613067565b90506000489050610cc08982848787611a46565b50505b5050505050505b50565b600581565b6000808473ffffffffffffffffffffffffffffffffffffffff16638226f3966040518163ffffffff1660e01b815260040160206040518083038186803b158015610d1b57600080fd5b505afa158015610d2f573d6000803e3d6000fd5b505050506040513d601f19601f82011682018060405250810190610d539190612a77565b73ffffffffffffffffffffffffffffffffffffffff166398d5fdca6040518163ffffffff1660e01b815260040160206040518083038186803b158015610d9857600080fd5b505afa158015610dac573d6000803e3d6000fd5b505050506040513d601f19601f82011682018060405250810190610dd09190612bec565b905060008113610de4576000915050610e3d565b6000610dfa8486610df5919061300d565b611bc1565b90506000610e0783611bc1565b9050610e37610e32610e198484611385565b6f403abc16d674ec80000000000000000060801b611c3f565b612108565b93505050505b9392505050565b600581565b600080610e57878787610cd2565b90506000610e89610e70610e6b878761108b565b611bc1565b6f403abc16d674ec80000000000000000060801b611385565b9050610e9e81610e996064611bc1565b611c3f565b90506000610ee9610ee4610eb185611bc1565b610edf610ec6610ec088611bc1565b87611385565b6f403abc16d674ec80000000000000000060801b611c3f565b612206565b61181a565b905060008973ffffffffffffffffffffffffffffffffffffffff1663217a4b706040518163ffffffff1660e01b815260040160206040518083038186803b158015610f3357600080fd5b505afa158015610f47573d6000803e3d6000fd5b505050506040513d601f19601f82011682018060405250810190610f6b9190612a77565b73ffffffffffffffffffffffffffffffffffffffff1663313ce5676040518163ffffffff1660e01b815260040160206040518083038186803b158015610fb057600080fd5b505afa158015610fc4573d6000803e3d6000fd5b505050506040513d601f19601f82011682018060405250810190610fe89190612cb3565b60ff169050600073__$dc3b4b0a367edd91a2d74c73e2da54c142$__63bf36f0e984846040518363ffffffff1660e01b8152600401611028929190612f37565b60206040518083038186803b15801561104057600080fd5b505af4158015611054573d6000803e3d6000fd5b505050506040513d601f19601f820116820180604052508101906110789190612c19565b9050809550505050505095945050505050565b600080600d838561109c9190612f86565b426110a79190613067565b6110b19190612fdc565b90508060056110c0919061300d565b60056110cc9190612f86565b91505092915050565b600260009054906101000a900473ffffffffffffffffffffffffffffffffffffffff1681565b60016020528060005260406000206000915090505481565b600080600090505b838390508110156111785761115684848381811061113c5761113b61327a565b5b90506020020160208101906111519190612a4a565b61038a565b1561116557600191505061117e565b8080611170906131a4565b91505061111b565b50600090505b92915050565b61118c61197a565b73ffffffffffffffffffffffffffffffffffffffff166111aa610865565b73ffffffffffffffffffffffffffffffffffffffff1614611200576040517f08c379a00000000000000000000000000000000000000000000000000000000081526004016111f790612edc565b60405180910390fd5b600073ffffffffffffffffffffffffffffffffffffffff168173ffffffffffffffffffffffffffffffffffffffff161415611270576040517f08c379a000000000000000000000000000000000000000000000000000000000815260040161126790612ebc565b60405180910390fd5b61127981611982565b50565b600d81565b60005b828290508110156112d2576112bf8383838181106112a5576112a461327a565b5b90506020020160208101906112ba9190612a4a565b61088e565b80806112ca906131a4565b915050611284565b505050565b6000808214156112ed57600060801b9050611380565b60008083136112ff5782600003611301565b825b9050600061130e8261286b565b90506070811015611327578060700382901b915061133b565b607081111561133a576070810382901c91505b5b607081613fff01901b6dffffffffffffffffffffffffffff83161791506000841215611377576f80000000000000000000000000000000821791505b8160801b925050505b919050565b600080617fff60708560801c6fffffffffffffffffffffffffffffffff16901c166fffffffffffffffffffffffffffffffff1690506000617fff60708560801c6fffffffffffffffffffffffffffffffff16901c166fffffffffffffffffffffffffffffffff169050617fff82141561151c57617fff8114156114aa57836fffffffffffffffffffffffffffffffff1916856fffffffffffffffffffffffffffffffff19161415611451576f8000000000000000000000000000000060801b8416851892505050611814565b6f8000000000000000000000000000000060801b8486186fffffffffffffffffffffffffffffffff1916141561148d5783851792505050611814565b6f7fff800000000000000000000000000060801b92505050611814565b600060801b6f7fffffffffffffffffffffffffffffff60801b85166fffffffffffffffffffffffffffffffff191614156114fb576f7fff800000000000000000000000000060801b92505050611814565b6f8000000000000000000000000000000060801b8416851892505050611814565b617fff81141561159857600060801b6f7fffffffffffffffffffffffffffffff60801b86166fffffffffffffffffffffffffffffffff19161415611577576f7fff800000000000000000000000000060801b92505050611814565b6f8000000000000000000000000000000060801b8516841892505050611814565b60006dffffffffffffffffffffffffffff8660801c166fffffffffffffffffffffffffffffffff16905060008314156115d457600192506115e9565b6e010000000000000000000000000000811790505b60006dffffffffffffffffffffffffffff8660801c166fffffffffffffffffffffffffffffffff1690506000831415611625576001925061163a565b6e010000000000000000000000000000811790505b808202915060008214156116a757600060801b6f8000000000000000000000000000000060801b878918166fffffffffffffffffffffffffffffffff19161161168757600060801b61169c565b6f8000000000000000000000000000000060801b5b945050505050611814565b828401935060007c020000000000000000000000000000000000000000000000000000000083101561170e577c0100000000000000000000000000000000000000000000000000000000831015611706576117018361286b565b611709565b60e05b611711565b60e15b9050614070818601101561172c5760009450600092506117d4565b6140e081860110156117705761407085101561175157846140700383901c9250611767565b61407085111561176657614070850383901b92505b5b600094506117d3565b61c0dd818601111561178a57617fff9450600092506117d2565b60708111156117a1576070810383901c92506117b5565b60708110156117b4578060700383901b92505b5b6dffffffffffffffffffffffffffff831692506140df8186010394505b5b5b82607086901b6f8000000000000000000000000000000060801b898b181660801c6fffffffffffffffffffffffffffffffff16171760801b955050505050505b92915050565b600080617fff60708460801c6fffffffffffffffffffffffffffffffff16901c166fffffffffffffffffffffffffffffffff1690506140fe81111561185e57600080fd5b613fff811015611872576000915050611975565b60006e0100000000000000000000000000006dffffffffffffffffffffffffffff8560801c6fffffffffffffffffffffffffffffffff161617905061406f8210156118c6578161406f0381901c90506118dc565b61406f8211156118db5761406f820381901b90505b5b6f800000000000000000000000000000008460801c6fffffffffffffffffffffffffffffffff1610611942577f800000000000000000000000000000000000000000000000000000000000000081111561193557600080fd5b8060000392505050611975565b7f7fffffffffffffffffffffffffffffffffffffffffffffffffffffffffffffff81111561196f57600080fd5b80925050505b919050565b600033905090565b60008060009054906101000a900473ffffffffffffffffffffffffffffffffffffffff169050816000806101000a81548173ffffffffffffffffffffffffffffffffffffffff021916908373ffffffffffffffffffffffffffffffffffffffff1602179055508173ffffffffffffffffffffffffffffffffffffffff168173ffffffffffffffffffffffffffffffffffffffff167f8be0079c531659141344cd1fd0a4f28419497f9722a3daafe3b4186f6b6457e060405160405180910390a35050565b6000611a558686868686610e49565b90508573ffffffffffffffffffffffffffffffffffffffff16636dc2b27133836040518363ffffffff1660e01b8152600401611a92929190612df7565b602060405180830381600087803b158015611aac57600080fd5b505af1158015611ac0573d6000803e3d6000fd5b505050506040513d601f19601f82011682018060405250810190611ae49190612bbf565b15611b53573373ffffffffffffffffffffffffffffffffffffffff168673ffffffffffffffffffffffffffffffffffffffff167ff03012dd4aab142682aa01439f94e975e2ec77ef558352323bc05f382f74b08283604051611b469190612f1c565b60405180910390a3611bb9565b3373ffffffffffffffffffffffffffffffffffffffff168673ffffffffffffffffffffffffffffffffffffffff167f08b35d4c86707ba44cdcc5efaa79b8a307e6c7f789f1eb86ca1ff1e9bde0569783604051611bb09190612f1c565b60405180910390a35b505050505050565b600080821415611bd757600060801b9050611c3a565b60008290506000611be78261286b565b90506070811015611c00578060700382901b9150611c14565b6070811115611c13576070810382901c91505b5b607081613fff01901b6dffffffffffffffffffffffffffff83161791508160801b925050505b919050565b600080617fff60708560801c6fffffffffffffffffffffffffffffffff16901c166fffffffffffffffffffffffffffffffff1690506000617fff60708560801c6fffffffffffffffffffffffffffffffff16901c166fffffffffffffffffffffffffffffffff169050617fff821415611cfa57617fff811415611cd9576f7fff800000000000000000000000000060801b92505050612102565b6f8000000000000000000000000000000060801b8416851892505050612102565b617fff811415611d7957600060801b6dffffffffffffffffffffffffffff60801b85166fffffffffffffffffffffffffffffffff191614611d52576f7fff800000000000000000000000000060801b92505050612102565b6f8000000000000000000000000000000060801b84861816600060801b1792505050612102565b600060801b6f7fffffffffffffffffffffffffffffff60801b85166fffffffffffffffffffffffffffffffff19161415611e3457600060801b6f7fffffffffffffffffffffffffffffff60801b86166fffffffffffffffffffffffffffffffff19161415611dfe576f7fff800000000000000000000000000060801b92505050612102565b6f8000000000000000000000000000000060801b848618166f7fff000000000000000000000000000060801b1792505050612102565b60006dffffffffffffffffffffffffffff8560801c166fffffffffffffffffffffffffffffffff1690506000821415611e705760019150611e85565b6e010000000000000000000000000000811790505b60006dffffffffffffffffffffffffffff8760801c166fffffffffffffffffffffffffffffffff1690506000841415611ee95760008114611ee4576000611ecb8261286b565b60e20390508082901b9150600194506072810384019350505b611f02565b60726e0100000000000000000000000000008217901b90505b818181611f1257611f1161324b565b5b0490506000811415611f7d57600060801b6f8000000000000000000000000000000060801b878918166fffffffffffffffffffffffffffffffff191611611f5d57600060801b611f72565b6f8000000000000000000000000000000060801b5b945050505050612102565b6d1000000000000000000000000000811015611f9c57611f9b6131ed565b5b60006e080000000000000000000000000000821015611ffd576e040000000000000000000000000000821015611ff2576e020000000000000000000000000000821015611fea576070611fed565b60715b611ff5565b60725b60ff16612007565b6120068261286b565b5b90506140718401818601111561202557617fff9450600091506120c2565b83613ffc8287010110156120405760009450600091506120c1565b83613f8c82870101101561208e5783613ffc8601111561206b5783613ffc86010382901b9150612085565b83613ffc8601101561208457613ffc8585030382901c91505b5b600094506120c0565b60708111156120a1576070810382901c91505b6dffffffffffffffffffffffffffff8216915083613f8d828701010394505b5b5b81607086901b6f8000000000000000000000000000000060801b898b181660801c6fffffffffffffffffffffffffffffffff16171760801b955050505050505b92915050565b600080617fff60708460801c6fffffffffffffffffffffffffffffffff16901c166fffffffffffffffffffffffffffffffff169050613fff811015612151576000915050612201565b6f800000000000000000000000000000008360801c6fffffffffffffffffffffffffffffffff161061218257600080fd5b6140fe81111561219157600080fd5b60006e0100000000000000000000000000006dffffffffffffffffffffffffffff8560801c6fffffffffffffffffffffffffffffffff161617905061406f8210156121e5578161406f0381901c90506121fb565b61406f8211156121fa5761406f820381901b90505b5b80925050505b919050565b600080617fff60708560801c6fffffffffffffffffffffffffffffffff16901c166fffffffffffffffffffffffffffffffff1690506000617fff60708560801c6fffffffffffffffffffffffffffffffff16901c166fffffffffffffffffffffffffffffffff169050617fff8214156122e257617fff8114156122d857836fffffffffffffffffffffffffffffffff1916856fffffffffffffffffffffffffffffffff191614156122bb578492505050612865565b6f7fff800000000000000000000000000060801b92505050612865565b8492505050612865565b617fff8114156122f6578392505050612865565b60006f800000000000000000000000000000008660801c6fffffffffffffffffffffffffffffffff161015905060006dffffffffffffffffffffffffffff8760801c166fffffffffffffffffffffffffffffffff169050600084141561235f5760019350612374565b6e010000000000000000000000000000811790505b60006f800000000000000000000000000000008760801c6fffffffffffffffffffffffffffffffff161015905060006dffffffffffffffffffffffffffff8860801c166fffffffffffffffffffffffffffffffff16905060008514156123dd57600194506123f2565b6e010000000000000000000000000000811790505b6000831415612454576f8000000000000000000000000000000060801b6fffffffffffffffffffffffffffffffff1916886fffffffffffffffffffffffffffffffff1916146124415787612447565b600060801b5b9650505050505050612865565b60008114156124b6576f8000000000000000000000000000000060801b6fffffffffffffffffffffffffffffffff1916896fffffffffffffffffffffffffffffffff1916146124a357886124a9565b600060801b5b9650505050505050612865565b6000858703905082151585151514156126345760708113156124e15789975050505050505050612865565b60008113156124f5578082901c9150612543565b7fffffffffffffffffffffffffffffffffffffffffffffffffffffffffffffff9081121561252c5788975050505050505050612865565b6000811215612542578060000384901c93508596505b5b81840193506e020000000000000000000000000000841061256c57600184901c93506001870196505b617fff8714156125b75784612594576f7fff000000000000000000000000000060801b6125a9565b6fffff000000000000000000000000000060801b5b975050505050505050612865565b6e0100000000000000000000000000008410156125d757600096506125eb565b6dffffffffffffffffffffffffffff841693505b83607088901b866125fd57600061260f565b6f800000000000000000000000000000005b6fffffffffffffffffffffffffffffffff16171760801b975050505050505050612865565b600081131561264f57600184901b9350600187039650612667565b600081121561266657600182901b91506001860396505b5b60708113156126795760019150612703565b600181131561269557600180820360018403901c019150612702565b7fffffffffffffffffffffffffffffffffffffffffffffffffffffffffffffff908112156126c65760019350612701565b7fffffffffffffffffffffffffffffffffffffffffffffffffffffffffffffffff81121561270057600180826000030360018603901c0193505b5b5b5b81841061271457818403935061271d565b83820393508294505b600084141561273957600060801b975050505050505050612865565b60006127448561286b565b90506071811415612771576dffffffffffffffffffffffffffff600186901c1694506001880197506127d3565b60708110156127be576000816070039050808911156127aa576dffffffffffffffffffffffffffff8187901b16955080890398506127b8565b6001890386901b9550600098505b506127d2565b6dffffffffffffffffffffffffffff851694505b5b617fff88141561281f57856127fb576f7fff000000000000000000000000000060801b612810565b6fffff000000000000000000000000000060801b5b98505050505050505050612865565b84607089901b87612831576000612843565b6f800000000000000000000000000000005b6fffffffffffffffffffffffffffffffff16171760801b985050505050505050505b92915050565b600080821161287957600080fd5b600070010000000000000000000000000000000083106128a157608083901c92506080810190505b6801000000000000000083106128bf57604083901c92506040810190505b64010000000083106128d957602083901c92506020810190505b6201000083106128f157601083901c92506010810190505b610100831061290857600883901c92506008810190505b6010831061291e57600483901c92506004810190505b6004831061293457600283901c92506002810190505b60028310612943576001810190505b80915050919050565b60008135905061295b81613468565b92915050565b60008151905061297081613468565b92915050565b60008083601f84011261298c5761298b6132ff565b5b8235905067ffffffffffffffff8111156129a9576129a86132fa565b5b6020830191508360208202830111156129c5576129c4613304565b5b9250929050565b6000815190506129db8161347f565b92915050565b6000815190506129f081613496565b92915050565b600081359050612a05816134ad565b92915050565b600081519050612a1a816134ad565b92915050565b600081519050612a2f816134c4565b92915050565b600081519050612a44816134db565b92915050565b600060208284031215612a6057612a5f61330e565b5b6000612a6e8482850161294c565b91505092915050565b600060208284031215612a8d57612a8c61330e565b5b6000612a9b84828501612961565b91505092915050565b600080600060608486031215612abd57612abc61330e565b5b6000612acb8682870161294c565b9350506020612adc868287016129f6565b9250506040612aed868287016129f6565b9150509250925092565b600080600080600060a08688031215612b1357612b1261330e565b5b6000612b218882890161294c565b9550506020612b32888289016129f6565b9450506040612b43888289016129f6565b9350506060612b54888289016129f6565b9250506080612b65888289016129f6565b9150509295509295909350565b60008060208385031215612b8957612b8861330e565b5b600083013567ffffffffffffffff811115612ba757612ba6613309565b5b612bb385828601612976565b92509250509250929050565b600060208284031215612bd557612bd461330e565b5b6000612be3848285016129cc565b91505092915050565b600060208284031215612c0257612c0161330e565b5b6000612c10848285016129e1565b91505092915050565b600060208284031215612c2f57612c2e61330e565b5b6000612c3d84828501612a0b565b91505092915050565b60008060408385031215612c5d57612c5c61330e565b5b6000612c6b858286016129f6565b9250506020612c7c858286016129f6565b9150509250929050565b600060208284031215612c9c57612c9b61330e565b5b6000612caa84828501612a20565b91505092915050565b600060208284031215612cc957612cc861330e565b5b6000612cd784828501612a35565b91505092915050565b612ce98161309b565b82525050565b612cf8816130ad565b82525050565b612d078161310a565b82525050565b612d16816130b9565b82525050565b6000612d2782612f6a565b612d318185612f75565b9350612d41818560208601613140565b612d4a81613313565b840191505092915050565b6000612d62602683612f75565b9150612d6d82613331565b604082019050919050565b6000612d85602083612f75565b9150612d9082613380565b602082019050919050565b6000612da8601283612f75565b9150612db3826133a9565b602082019050919050565b612dc7816130e3565b82525050565b612dd6816130e3565b82525050565b6000602082019050612df16000830184612ce0565b92915050565b6000604082019050612e0c6000830185612ce0565b612e196020830184612dbe565b9392505050565b6000602082019050612e356000830184612cef565b92915050565b6000602082019050612e506000830184612cfe565b92915050565b6000602082019050612e6b6000830184612d0d565b92915050565b6000604082019050612e866000830185612d0d565b612e936020830184612d0d565b9392505050565b60006020820190508181036000830152612eb48184612d1c565b905092915050565b60006020820190508181036000830152612ed581612d55565b9050919050565b60006020820190508181036000830152612ef581612d78565b9050919050565b60006020820190508181036000830152612f1581612d9b565b9050919050565b6000602082019050612f316000830184612dbe565b92915050565b6000604082019050612f4c6000830185612dcd565b612f596020830184612dcd565b9392505050565b6000604051905090565b600081519050919050565b600082825260208201905092915050565b6000612f91826130e3565b9150612f9c836130e3565b9250827fffffffffffffffffffffffffffffffffffffffffffffffffffffffffffffffff03821115612fd157612fd061321c565b5b828201905092915050565b6000612fe7826130e3565b9150612ff2836130e3565b9250826130025761300161324b565b5b828204905092915050565b6000613018826130e3565b9150613023836130e3565b9250817fffffffffffffffffffffffffffffffffffffffffffffffffffffffffffffffff048311821515161561305c5761305b61321c565b5b828202905092915050565b6000613072826130e3565b915061307d836130e3565b9250828210156130905761308f61321c565b5b828203905092915050565b60006130a6826130c3565b9050919050565b60008115159050919050565b6000819050919050565b600073ffffffffffffffffffffffffffffffffffffffff82169050919050565b6000819050919050565b600063ffffffff82169050919050565b600060ff82169050919050565b60006131158261311c565b9050919050565b60006131278261312e565b9050919050565b6000613139826130c3565b9050919050565b60005b8381101561315e578082015181840152602081019050613143565b8381111561316d576000848401525b50505050565b61317c82613313565b810181811067ffffffffffffffff8211171561319b5761319a6132a9565b5b80604052505050565b60006131af826130e3565b91507fffffffffffffffffffffffffffffffffffffffffffffffffffffffffffffffff8214156131e2576131e161321c565b5b600182019050919050565b7f4e487b7100000000000000000000000000000000000000000000000000000000600052600160045260246000fd5b7f4e487b7100000000000000000000000000000000000000000000000000000000600052601160045260246000fd5b7f4e487b7100000000000000000000000000000000000000000000000000000000600052601260045260246000fd5b7f4e487b7100000000000000000000000000000000000000000000000000000000600052603260045260246000fd5b7f4e487b7100000000000000000000000000000000000000000000000000000000600052604160045260246000fd5b600060033d11156132f75760046000803e6132f4600051613324565b90505b90565b600080fd5b600080fd5b600080fd5b600080fd5b600080fd5b6000601f19601f8301169050919050565b60008160e01c9050919050565b7f4f776e61626c653a206e6577206f776e657220697320746865207a65726f206160008201527f6464726573730000000000000000000000000000000000000000000000000000602082015250565b7f4f776e61626c653a2063616c6c6572206973206e6f7420746865206f776e6572600082015250565b7f43616c6c6572206e6f7420666163746f72790000000000000000000000000000600082015250565b600060443d10156133e257613465565b6133ea612f60565b60043d036004823e80513d602482011167ffffffffffffffff82111715613412575050613465565b808201805167ffffffffffffffff8111156134305750505050613465565b80602083010160043d03850181111561344d575050505050613465565b61345c82602001850186613173565b82955050505050505b90565b6134718161309b565b811461347c57600080fd5b50565b613488816130ad565b811461349357600080fd5b50565b61349f816130b9565b81146134aa57600080fd5b50565b6134b6816130e3565b81146134c157600080fd5b50565b6134cd816130ed565b81146134d857600080fd5b50565b6134e4816130fd565b81146134ef57600080fd5b5056fea2646970667358221220ab402edd5d6882f53282cdbfbbfd4c711c5d03619d0448ae12da3439bbcf28a864736f6c63430008070033",
  "libraries": {
    "PoolSwapLibrary": "0x3FE070eC913099fcBd96c18524F873D7c3F95F48"
  },
  "devdoc": {
    "kind": "dev",
    "methods": {
      "checkUpkeepMultiplePools(address[])": {
        "params": {
          "_pools": "The array of pools to check"
        },
        "returns": {
          "_0": "upkeepNeeded Whether or not at least one pool needs upkeeping"
        }
      },
      "checkUpkeepSinglePool(address)": {
        "params": {
          "_pool": "The address of the pool to upkeep"
        },
        "returns": {
          "_0": "upkeepNeeded Whether or not upkeep is needed for this single pool"
        }
      },
      "keeperGas(address,uint256,uint256)": {
        "params": {
          "_gasPrice": "Price of a single gas unit (in ETH)",
          "_gasSpent": "Number of gas units spent",
          "_pool": "Address of the given pool"
        },
        "returns": {
          "_0": "Keeper's gas compensation"
        }
      },
      "keeperReward(address,uint256,uint256,uint256,uint256)": {
        "params": {
          "_gasPrice": "Price of a single gas unit (in ETH)",
          "_gasSpent": "Number of gas units spent",
          "_pool": "Address of the given pool",
          "_poolInterval": "Pool interval of the given pool",
          "_savedPreviousUpdatedTimestamp": "Last timestamp when the pool's price execution happened"
        },
        "returns": {
          "_0": "Number of settlement tokens to give to the keeper for work performed"
        }
      },
      "keeperTip(uint256,uint256)": {
        "params": {
          "_poolInterval": "Pool interval of the given pool",
          "_savedPreviousUpdatedTimestamp": "Last timestamp when the pool's price execution happened"
        },
        "returns": {
          "_0": "Percent of the `keeperGas` cost to add to payment, as a percent"
        }
      },
      "newPool(address)": {
        "params": {
          "_poolAddress": "The address of the newly-created pools"
        }
      },
      "owner()": {
        "details": "Returns the address of the current owner."
      },
      "performUpkeepMultiplePools(address[])": {
        "params": {
          "pools": "pool codes to perform the update for"
        }
      },
      "performUpkeepSinglePool(address)": {
        "params": {
          "_pool": "The pool code to perform the update for"
        }
      },
      "renounceOwnership()": {
        "details": "Leaves the contract without owner. It will not be possible to call `onlyOwner` functions anymore. Can only be called by the current owner. NOTE: Renouncing ownership will leave the contract without an owner, thereby removing any functionality that is only available to the owner."
      },
      "transferOwnership(address)": {
        "details": "Transfers ownership of the contract to a new account (`newOwner`). Can only be called by the current owner."
      }
    },
    "title": "The manager contract for multiple markets and the pools in them",
    "version": 1
  },
  "userdoc": {
    "events": {
      "KeeperPaid(address,address,uint256)": {
        "notice": "Creates a notification when a keeper is paid for doing upkeep for a pool"
      },
      "KeeperPaymentError(address,address,uint256)": {
        "notice": "Creates a notification when a keeper's payment for upkeeping a pool failed"
      },
      "PoolAdded(address,int256)": {
        "notice": "Creates a notification when a pool is created"
      },
      "PoolUpkeepError(address,string)": {
        "notice": "Creates a notification of a failed pool update"
      }
    },
    "kind": "user",
    "methods": {
      "checkUpkeepMultiplePools(address[])": {
        "notice": "Checks multiple pools if any of them need updating"
      },
      "checkUpkeepSinglePool(address)": {
        "notice": "Check if upkeep is required"
      },
      "executionPrice(address)": {
        "notice": "Format: Pool address => last executionPrice"
      },
      "keeperGas(address,uint256,uint256)": {
        "notice": "Compensation a keeper will receive for their gas expenditure"
      },
      "keeperReward(address,uint256,uint256,uint256,uint256)": {
        "notice": "Payment keeper receives for performing upkeep on a given pool"
      },
      "keeperTip(uint256,uint256)": {
        "notice": "Tip a keeper will receive for successfully updating the specified pool"
      },
      "newPool(address)": {
        "notice": "When a pool is created, this function is called by the factory to initiate price trackings"
      },
      "performUpkeepMultiplePools(address[])": {
        "notice": "Called by keepers to perform an update on multiple pools"
      },
      "performUpkeepSinglePool(address)": {
        "notice": "Called by keepers to perform an update on a single pool"
      }
    },
    "version": 1
  },
  "storageLayout": {
    "storage": [
      {
        "astId": 110,
        "contract": "contracts/implementation/PoolKeeper.sol:PoolKeeper",
        "label": "_owner",
        "offset": 0,
        "slot": "0",
        "type": "t_address"
      },
      {
        "astId": 9756,
        "contract": "contracts/implementation/PoolKeeper.sol:PoolKeeper",
        "label": "executionPrice",
        "offset": 0,
        "slot": "1",
        "type": "t_mapping(t_address,t_int256)"
      },
      {
        "astId": 9759,
        "contract": "contracts/implementation/PoolKeeper.sol:PoolKeeper",
        "label": "factory",
        "offset": 0,
        "slot": "2",
        "type": "t_contract(IPoolFactory)11412"
      }
    ],
    "types": {
      "t_address": {
        "encoding": "inplace",
        "label": "address",
        "numberOfBytes": "20"
      },
      "t_contract(IPoolFactory)11412": {
        "encoding": "inplace",
        "label": "contract IPoolFactory",
        "numberOfBytes": "20"
      },
      "t_int256": {
        "encoding": "inplace",
        "label": "int256",
        "numberOfBytes": "32"
      },
      "t_mapping(t_address,t_int256)": {
        "encoding": "mapping",
        "key": "t_address",
        "label": "mapping(address => int256)",
        "numberOfBytes": "32",
        "value": "t_int256"
      }
    }
  }
}