{
    "address": "0x051afD0b39ACF4Cc52c76a479aD802d0B82A8249",
    "abi": [
        {
            "inputs": [
                {
                    "internalType": "address",
                    "name": "_factory",
                    "type": "address"
                }
            ],
            "stateMutability": "nonpayable",
            "type": "constructor"
        },
        {
            "anonymous": false,
            "inputs": [
                {
                    "indexed": true,
                    "internalType": "address",
                    "name": "factory",
                    "type": "address"
                }
            ],
            "name": "FactoryChanged",
            "type": "event"
        },
        {
            "anonymous": false,
            "inputs": [
                {
                    "indexed": true,
                    "internalType": "uint256",
                    "name": "price",
                    "type": "uint256"
                }
            ],
            "name": "GasPriceChanged",
            "type": "event"
        },
        {
            "anonymous": false,
            "inputs": [
                {
                    "indexed": true,
                    "internalType": "address",
                    "name": "_pool",
                    "type": "address"
                },
                {
                    "indexed": true,
                    "internalType": "address",
                    "name": "keeper",
                    "type": "address"
                },
                {
                    "indexed": false,
                    "internalType": "uint256",
                    "name": "reward",
                    "type": "uint256"
                }
            ],
            "name": "KeeperPaid",
            "type": "event"
        },
        {
            "anonymous": false,
            "inputs": [
                {
                    "indexed": true,
                    "internalType": "address",
                    "name": "_pool",
                    "type": "address"
                },
                {
                    "indexed": true,
                    "internalType": "address",
                    "name": "keeper",
                    "type": "address"
                },
                {
                    "indexed": false,
                    "internalType": "uint256",
                    "name": "expectedReward",
                    "type": "uint256"
                }
            ],
            "name": "KeeperPaymentError",
            "type": "event"
        },
        {
            "anonymous": false,
            "inputs": [
                {
                    "indexed": true,
                    "internalType": "address",
                    "name": "oldKeeperRewards",
                    "type": "address"
                },
                {
                    "indexed": true,
                    "internalType": "address",
                    "name": "newKeeperRewards",
                    "type": "address"
                }
            ],
            "name": "KeeperRewardsSet",
            "type": "event"
        },
        {
            "anonymous": false,
            "inputs": [
                {
                    "indexed": true,
                    "internalType": "address",
                    "name": "previousOwner",
                    "type": "address"
                },
                {
                    "indexed": true,
                    "internalType": "address",
                    "name": "newOwner",
                    "type": "address"
                }
            ],
            "name": "OwnershipTransferred",
            "type": "event"
        },
        {
            "anonymous": false,
            "inputs": [
                {
                    "indexed": true,
                    "internalType": "address",
                    "name": "poolAddress",
                    "type": "address"
                },
                {
                    "indexed": true,
                    "internalType": "int256",
                    "name": "firstPrice",
                    "type": "int256"
                }
            ],
            "name": "PoolAdded",
            "type": "event"
        },
        {
            "anonymous": false,
            "inputs": [
                {
                    "indexed": true,
                    "internalType": "address",
                    "name": "pool",
                    "type": "address"
                },
                {
                    "indexed": false,
                    "internalType": "string",
                    "name": "reason",
                    "type": "string"
                }
            ],
            "name": "PoolUpkeepError",
            "type": "event"
        },
        {
            "anonymous": false,
            "inputs": [
                {
                    "indexed": true,
                    "internalType": "address",
                    "name": "pool",
                    "type": "address"
                },
                {
                    "indexed": false,
                    "internalType": "bytes",
                    "name": "data",
                    "type": "bytes"
                },
                {
                    "indexed": true,
                    "internalType": "int256",
                    "name": "startPrice",
                    "type": "int256"
                },
                {
                    "indexed": true,
                    "internalType": "int256",
                    "name": "endPrice",
                    "type": "int256"
                }
            ],
            "name": "UpkeepSuccessful",
            "type": "event"
        },
        {
            "inputs": [
                {
                    "internalType": "address[]",
                    "name": "_pools",
                    "type": "address[]"
                }
            ],
            "name": "checkUpkeepMultiplePools",
            "outputs": [
                {
                    "internalType": "bool",
                    "name": "",
                    "type": "bool"
                }
            ],
            "stateMutability": "view",
            "type": "function"
        },
        {
            "inputs": [
                {
                    "internalType": "address",
                    "name": "",
                    "type": "address"
                }
            ],
            "name": "executionPrice",
            "outputs": [
                {
                    "internalType": "int256",
                    "name": "",
                    "type": "int256"
                }
            ],
            "stateMutability": "view",
            "type": "function"
        },
        {
            "inputs": [],
            "name": "factory",
            "outputs": [
                {
                    "internalType": "contract IPoolFactory",
                    "name": "",
                    "type": "address"
                }
            ],
            "stateMutability": "view",
            "type": "function"
        },
        {
            "inputs": [],
            "name": "gasPrice",
            "outputs": [
                {
                    "internalType": "uint256",
                    "name": "",
                    "type": "uint256"
                }
            ],
            "stateMutability": "view",
            "type": "function"
        },
        {
            "inputs": [
                {
                    "internalType": "address",
                    "name": "_pool",
                    "type": "address"
                }
            ],
            "name": "isUpkeepRequiredSinglePool",
            "outputs": [
                {
                    "internalType": "bool",
                    "name": "",
                    "type": "bool"
                }
            ],
            "stateMutability": "view",
            "type": "function"
        },
        {
            "inputs": [],
            "name": "keeperRewards",
            "outputs": [
                {
                    "internalType": "address",
                    "name": "",
                    "type": "address"
                }
            ],
            "stateMutability": "view",
            "type": "function"
        },
        {
            "inputs": [
                {
                    "internalType": "address",
                    "name": "_poolAddress",
                    "type": "address"
                }
            ],
            "name": "newPool",
            "outputs": [],
            "stateMutability": "nonpayable",
            "type": "function"
        },
        {
            "inputs": [],
            "name": "owner",
            "outputs": [
                {
                    "internalType": "address",
                    "name": "",
                    "type": "address"
                }
            ],
            "stateMutability": "view",
            "type": "function"
        },
        {
            "inputs": [
                {
                    "internalType": "address[]",
                    "name": "pools",
                    "type": "address[]"
                }
            ],
            "name": "performUpkeepMultiplePools",
            "outputs": [],
            "stateMutability": "nonpayable",
            "type": "function"
        },
        {
            "inputs": [
                {
                    "internalType": "bytes",
                    "name": "pools",
                    "type": "bytes"
                }
            ],
            "name": "performUpkeepMultiplePoolsPacked",
            "outputs": [],
            "stateMutability": "nonpayable",
            "type": "function"
        },
        {
            "inputs": [
                {
                    "internalType": "address",
                    "name": "_pool",
                    "type": "address"
                }
            ],
            "name": "performUpkeepSinglePool",
            "outputs": [],
            "stateMutability": "nonpayable",
            "type": "function"
        },
        {
            "inputs": [],
            "name": "renounceOwnership",
            "outputs": [],
            "stateMutability": "nonpayable",
            "type": "function"
        },
        {
            "inputs": [
                {
                    "internalType": "uint256",
                    "name": "_price",
                    "type": "uint256"
                }
            ],
            "name": "setGasPrice",
            "outputs": [],
            "stateMutability": "nonpayable",
            "type": "function"
        },
        {
            "inputs": [
                {
                    "internalType": "address",
                    "name": "_keeperRewards",
                    "type": "address"
                }
            ],
            "name": "setKeeperRewards",
            "outputs": [],
            "stateMutability": "nonpayable",
            "type": "function"
        },
        {
            "inputs": [
                {
                    "internalType": "address",
                    "name": "newOwner",
                    "type": "address"
                }
            ],
            "name": "transferOwnership",
            "outputs": [],
            "stateMutability": "nonpayable",
            "type": "function"
        }
    ],
    "transactionHash": "0x87f1f6b59a5e03a7590dd2f59afe61f92376750b8aa4020fad0e33188deef019",
    "args": [
        "0x3Feafee6b12C8d2E58c5B118e54C09F9273c6124"
    ],
    "solcInputHash": "4b024dc169a046e6527f075e446ec886",
    "bytecode": "0x60a06040526402540be40060035534801561001957600080fd5b506040516113c33803806113c383398101604081905261003891610100565b610041336100b0565b6001600160a01b03811661009b5760405162461bcd60e51b815260206004820152601660248201527f466163746f72792063616e6e6f74206265206e756c6c00000000000000000000604482015260640160405180910390fd5b60601b6001600160601b031916608052610130565b600080546001600160a01b038381166001600160a01b0319831681178455604051919092169283917f8be0079c531659141344cd1fd0a4f28419497f9722a3daafe3b4186f6b6457e09190a35050565b60006020828403121561011257600080fd5b81516001600160a01b038116811461012957600080fd5b9392505050565b60805160601c61126761015c600039600081816101b90152818161031b015261042501526112676000f3fe608060405234801561001057600080fd5b50600436106100f55760003560e01c8063bf1fe42011610097578063e98ccdc411610066578063e98ccdc41461021c578063f2fde38b1461022f578063fcab9e9814610242578063fe173b971461025557600080fd5b8063bf1fe420146101a1578063c45a0155146101b4578063cdd9e137146101db578063ce1dcdfc1461020957600080fd5b8063715018a6116100d3578063715018a61461014a578063857ad312146101525780638da5cb5b1461017d57806391a607821461018e57600080fd5b80632027574e146100fa578063332611111461010f5780633c5c7fb314610137575b600080fd5b61010d610108366004610ed6565b61025e565b005b61012261011d366004610dfe565b6102f9565b60405190151581526020015b60405180910390f35b61010d610145366004610dfe565b61041a565b61010d610682565b600254610165906001600160a01b031681565b6040516001600160a01b03909116815260200161012e565b6000546001600160a01b0316610165565b61010d61019c366004610dfe565b6106b8565b61010d6101af366004611001565b610b3c565b6101657f000000000000000000000000000000000000000000000000000000000000000081565b6101fb6101e9366004610dfe565b60016020526000908152604090205481565b60405190815260200161012e565b610122610217366004610e3f565b610b99565b61010d61022a366004610dfe565b610bf3565b61010d61023d366004610dfe565b610ccf565b61010d610250366004610e3f565b610d6a565b6101fb60035481565b610269601482611120565b156102bb5760405162461bcd60e51b815260206004820181905260248201527f44617461206d757374206f6e6c7920696e636c7564652061646472657373657360448201526064015b60405180910390fd5b60006102c860148361108e565b90508260005b828110156102f2576102e3823560601c6106b8565b601491909101906001016102ce565b5050505050565b604051635ab78ee160e01b81526001600160a01b0382811660048301526000917f000000000000000000000000000000000000000000000000000000000000000090911690635ab78ee19060240160206040518083038186803b15801561035f57600080fd5b505afa158015610373573d6000803e3d6000fd5b505050506040513d601f19601f820116820180604052508101906103979190610eb4565b6103a357506000919050565b816001600160a01b0316637bbf10336040518163ffffffff1660e01b815260040160206040518083038186803b1580156103dc57600080fd5b505afa1580156103f0573d6000803e3d6000fd5b505050506040513d601f19601f820116820180604052508101906104149190610eb4565b92915050565b336001600160a01b037f000000000000000000000000000000000000000000000000000000000000000016146104875760405162461bcd60e51b815260206004820152601260248201527143616c6c6572206e6f7420666163746f727960701b60448201526064016102b2565b806001600160a01b031663b9ed8abf6040518163ffffffff1660e01b815260040160206040518083038186803b1580156104c057600080fd5b505afa1580156104d4573d6000803e3d6000fd5b505050506040513d601f19601f820116820180604052508101906104f89190610e22565b6001600160a01b031663a11752796040518163ffffffff1660e01b8152600401602060405180830381600087803b15801561053257600080fd5b505af1158015610546573d6000803e3d6000fd5b505050506040513d601f19601f8201168201806040525081019061056a9190610f36565b506000816001600160a01b031663796da7af6040518163ffffffff1660e01b815260040160206040518083038186803b1580156105a657600080fd5b505afa1580156105ba573d6000803e3d6000fd5b505050506040513d601f19601f820116820180604052508101906105de9190610f36565b9050600081136106305760405162461bcd60e51b815260206004820152601b60248201527f4669727374207072696365206973206e6f6e2d706f736974697665000000000060448201526064016102b2565b60405181906001600160a01b038416907fe950cb32f7a787627d713d7365623fef2d762ef8fcf813b865a04350852deb9b90600090a36001600160a01b03909116600090815260016020526040902055565b6000546001600160a01b031633146106ac5760405162461bcd60e51b81526004016102b290611059565b6106b66000610dae565b565b60005a90506106c6826102f9565b6106ce575050565b6000826001600160a01b031663b9ed8abf6040518163ffffffff1660e01b815260040160206040518083038186803b15801561070957600080fd5b505afa15801561071d573d6000803e3d6000fd5b505050506040513d601f19601f820116820180604052508101906107419190610e22565b9050806001600160a01b031663a11752796040518163ffffffff1660e01b8152600401602060405180830381600087803b15801561077e57600080fd5b505af19250505080156107ae575060408051601f3d908101601f191682019092526107ab91810190610f36565b60015b61082d576107ba611176565b806308c379a0141561082157506107cf611192565b806107da5750610823565b836001600160a01b03167f8a47468bf96478429d382ed6385d9c77fba8b89540cd88199b1b51d5723b11fa826040516108139190611046565b60405180910390a25061082f565b505b3d6000803e3d6000fd5b505b600080600080866001600160a01b03166304883c276040518163ffffffff1660e01b815260040160006040518083038186803b15801561086e57600080fd5b505afa158015610882573d6000803e3d6000fd5b505050506040513d6000823e601f3d908101601f191682016040526108aa9190810190610f4f565b6001600160a01b038b16600081815260016020526040908190205490516303d8ce9d60e61b815260048101829052602481018790529599509397509195509350909163f633a74090604401600060405180830381600087803b15801561090f57600080fd5b505af1925050508015610920575060015b6109935761092c611176565b806308c379a014156108215750610941611192565b8061094c5750610823565b886001600160a01b03167f8a47468bf96478429d382ed6385d9c77fba8b89540cd88199b1b51d5723b11fa826040516109859190611046565b60405180910390a2506109eb565b6001600160a01b0388166000818152600160205260409081902087905551869183917f0aa8d2838ad6d4e2a5d7ca0826dfdbc36d922adf8fe5c6d25aee2724b07de074906109e2908990611046565b60405180910390a45b60005a6109f890896110a2565b60025460035460405163348c2b1f60e01b81523360048201526001600160a01b038d811660248301526044820192909252606481018490526084810188905260a4810187905292935060009291169063348c2b1f9060c401602060405180830381600087803b158015610a6a57600080fd5b505af1158015610a7e573d6000803e3d6000fd5b505050506040513d601f19601f82011682018060405250810190610aa29190610f36565b90508015610aef5760405181815233906001600160a01b038c16907ff03012dd4aab142682aa01439f94e975e2ec77ef558352323bc05f382f74b0829060200160405180910390a3610b30565b60405181815233906001600160a01b038c16907f08b35d4c86707ba44cdcc5efaa79b8a307e6c7f789f1eb86ca1ff1e9bde056979060200160405180910390a35b50505050505050505050565b6000546001600160a01b03163314610b665760405162461bcd60e51b81526004016102b290611059565b600381905560405181907f52264b89e0fceafb26e79fd49ef8a366eb6297483bf4035b027f0c99a7ad512e90600090a250565b600081815b81811015610be857610bd0858583818110610bbb57610bbb61114a565b905060200201602081019061011d9190610dfe565b15610be057600192505050610414565b600101610b9e565b506000949350505050565b6000546001600160a01b03163314610c1d5760405162461bcd60e51b81526004016102b290611059565b6001600160a01b038116610c7d5760405162461bcd60e51b815260206004820152602160248201527f4b6565706572526577617264732063616e6e6f742062652030206164647265736044820152607360f81b60648201526084016102b2565b600280546001600160a01b038381166001600160a01b0319831681179093556040519116919082907fed60217a0f5e211a1105c7e6fdc9df5753b136c553ae2974a15e8be0cc02ac7390600090a35050565b6000546001600160a01b03163314610cf95760405162461bcd60e51b81526004016102b290611059565b6001600160a01b038116610d5e5760405162461bcd60e51b815260206004820152602660248201527f4f776e61626c653a206e6577206f776e657220697320746865207a65726f206160448201526564647265737360d01b60648201526084016102b2565b610d6781610dae565b50565b8060005b81811015610da857610da0848483818110610d8b57610d8b61114a565b905060200201602081019061019c9190610dfe565b600101610d6e565b50505050565b600080546001600160a01b038381166001600160a01b0319831681178455604051919092169283917f8be0079c531659141344cd1fd0a4f28419497f9722a3daafe3b4186f6b6457e09190a35050565b600060208284031215610e1057600080fd5b8135610e1b8161121c565b9392505050565b600060208284031215610e3457600080fd5b8151610e1b8161121c565b60008060208385031215610e5257600080fd5b823567ffffffffffffffff80821115610e6a57600080fd5b818501915085601f830112610e7e57600080fd5b813581811115610e8d57600080fd5b8660208260051b8501011115610ea257600080fd5b60209290920196919550909350505050565b600060208284031215610ec657600080fd5b81518015158114610e1b57600080fd5b60008060208385031215610ee957600080fd5b823567ffffffffffffffff80821115610f0157600080fd5b818501915085601f830112610f1557600080fd5b813581811115610f2457600080fd5b866020828501011115610ea257600080fd5b600060208284031215610f4857600080fd5b5051919050565b60008060008060808587031215610f6557600080fd5b84519350602085015167ffffffffffffffff80821115610f8457600080fd5b818701915087601f830112610f9857600080fd5b815181811115610faa57610faa611160565b6040519150610fc3601f8201601f1916602001836110f3565b808252886020828501011115610fd857600080fd5b610fe98160208401602086016110c7565b50604087015160609097015195989097509350505050565b60006020828403121561101357600080fd5b5035919050565b600081518084526110328160208601602086016110c7565b601f01601f19169290920160200192915050565b602081526000610e1b602083018461101a565b6020808252818101527f4f776e61626c653a2063616c6c6572206973206e6f7420746865206f776e6572604082015260600190565b60008261109d5761109d611134565b500490565b6000828210156110c257634e487b7160e01b600052601160045260246000fd5b500390565b60005b838110156110e25781810151838201526020016110ca565b83811115610da85750506000910152565b601f8201601f1916810167ffffffffffffffff8111828210171561111957611119611160565b6040525050565b60008261112f5761112f611134565b500690565b634e487b7160e01b600052601260045260246000fd5b634e487b7160e01b600052603260045260246000fd5b634e487b7160e01b600052604160045260246000fd5b600060033d111561118f5760046000803e5060005160e01c5b90565b600060443d10156111a05790565b6040516003193d81016004833e81513d67ffffffffffffffff81602484011181841117156111d057505050505090565b82850191508151818111156111e85750505050505090565b843d87010160208285010111156112025750505050505090565b611211602082860101876110f3565b509095945050505050565b6001600160a01b0381168114610d6757600080fdfea2646970667358221220ec3d513ca47a9974860d3e1f018989d9621ff81181a9aa4b8ee869dd8fee009564736f6c63430008070033",
    "libraries": {
        "PoolSwapLibrary": "0x58639957c0E526fF4E4Bb1cBfBDFeFdeb16Af237"
    },
    "devdoc": {
        "details": "Currently, this contract estimates the best keeper rewards in a way that is best suited for Ethereum L1.It assumes an approximate block time of 13 seconds, and an Ethereum-like gas system.This code was also written with Arbitrum deployment in mind, meaning there exists no `block.basefee`, and no arbitrum gas price oracle.It has another large drawback in that it is not possible to calculate the cost of the current transaction Arbitrum, given that the cost is largely determined by L1 calldata cost.Because of this, the reward calculation is an rough \"good enough\" estimation.",
        "kind": "dev",
        "methods": {
            "checkUpkeepMultiplePools(address[])": {
                "details": "Iterates over the provided array of pool addresses",
                "params": {
                    "_pools": "Array of pools to check"
                },
                "returns": {
                    "_0": "Whether or not at least one pool needs upkeeping"
                }
            },
            "isUpkeepRequiredSinglePool(address)": {
                "params": {
                    "_pool": "The address of the pool to upkeep"
                },
                "returns": {
                    "_0": "Whether or not upkeep is needed for this single pool"
                }
            },
            "newPool(address)": {
                "details": "Only callable by the associated `PoolFactory` contract",
                "params": {
                    "_poolAddress": "The address of the newly-created pools"
                }
            },
            "owner()": {
                "details": "Returns the address of the current owner."
            },
            "performUpkeepMultiplePools(address[])": {
                "details": "Iterates over the provided arrayEssentially wraps calls to `performUpkeepSinglePool`",
                "params": {
                    "pools": "Addresses of each pool to upkeep"
                }
            },
            "performUpkeepMultiplePoolsPacked(bytes)": {
                "details": "Arguments can be encoded with `L2Encoder.encodeAddressArray`Will revert if the bytes array is a correct length (some multiple of 20 bytes)",
                "params": {
                    "pools": "A tightly packed bytes array of LeveragedPool addresses to be upkept  __________________________________________________ |   20 bytes       20 bytes       20 bytes     ... | | pool address | pool address | pool address | ... |  "
                }
            },
            "performUpkeepSinglePool(address)": {
                "details": "Tracks gas usage via `gasleft` accounting and uses this to inform          keeper paymentCatches any failure of the underlying `pool.poolUpkeep` callEmits a `KeeperPaid` event if the underlying call to `pool.payKeeperFromBalances` succeedsEmits a `KeeperPaymentError` event otherwise",
                "params": {
                    "_pool": "Address of the pool to be upkept"
                }
            },
            "renounceOwnership()": {
                "details": "Leaves the contract without owner. It will not be possible to call `onlyOwner` functions anymore. Can only be called by the current owner. NOTE: Renouncing ownership will leave the contract without an owner, thereby removing any functionality that is only available to the owner."
            },
            "setGasPrice(uint256)": {
                "details": "Only callable by the ownerThis function is only necessary due to the L2 deployment of Pools -- in reality, it should be `BASEFEE`Emits a `GasPriceChanged` event on success",
                "params": {
                    "_price": "Price (in ETH) per unit gas"
                }
            },
            "setKeeperRewards(address)": {
                "details": "Only callable by the contract owneremits KeeperRewardsSet when the addresss is successfuly changed",
                "params": {
                    "_keeperRewards": "The new KeeperRewards contract"
                }
            },
            "transferOwnership(address)": {
                "details": "Transfers ownership of the contract to a new account (`newOwner`). Can only be called by the current owner."
            }
        },
        "title": "The manager contract for multiple markets and the pools in them",
        "version": 1
    },
    "userdoc": {
        "events": {
            "FactoryChanged(address)": {
                "notice": "Indicates that the factory address has changed"
            },
            "GasPriceChanged(uint256)": {
                "notice": "Indicates that the gas price for keeper rewards changed"
            },
            "KeeperPaid(address,address,uint256)": {
                "notice": "Creates a notification when a keeper is paid for doing upkeep for a pool"
            },
            "KeeperPaymentError(address,address,uint256)": {
                "notice": "Creates a notification when a keeper's payment for upkeeping a pool failed"
            },
            "KeeperRewardsSet(address,address)": {
                "notice": "Indicates that the KeeperRewards contract has"
            },
            "PoolAdded(address,int256)": {
                "notice": "Creates a notification when a pool is created"
            },
            "PoolUpkeepError(address,string)": {
                "notice": "Creates a notification of a failed pool update"
            },
            "UpkeepSuccessful(address,bytes,int256,int256)": {
                "notice": "Creates a notification when a call to LeveragedPool:poolUpkeep is successful"
            }
        },
        "kind": "user",
        "methods": {
            "checkUpkeepMultiplePools(address[])": {
                "notice": "Checks multiple pools if any of them need updating"
            },
            "executionPrice(address)": {
                "notice": "Format: Pool address => last executionPrice"
            },
            "isUpkeepRequiredSinglePool(address)": {
                "notice": "Check if upkeep is required"
            },
            "newPool(address)": {
                "notice": "When a pool is created, this function is called by the factory to initiate price trackings"
            },
            "performUpkeepMultiplePools(address[])": {
                "notice": "Called by keepers to perform an update on multiple pools"
            },
            "performUpkeepMultiplePoolsPacked(bytes)": {
                "notice": "Called by keepers to perform an update on multiple pools"
            },
            "performUpkeepSinglePool(address)": {
                "notice": "Called by keepers to perform an update on a single pool"
            },
            "setGasPrice(uint256)": {
                "notice": "Sets the gas price to be used in compensating keepers for successful upkeep"
            },
            "setKeeperRewards(address)": {
                "notice": "Changes the KeeperRewards contract, used for calculating and executing rewards for calls to upkeep functions"
            }
        },
        "version": 1
    },
    "storageLayout": {
        "storage": [
            {
                "astId": 110,
                "contract": "contracts/implementation/PoolKeeper.sol:PoolKeeper",
                "label": "_owner",
                "offset": 0,
                "slot": "0",
                "type": "t_address"
            },
            {
                "astId": 13444,
                "contract": "contracts/implementation/PoolKeeper.sol:PoolKeeper",
                "label": "executionPrice",
                "offset": 0,
                "slot": "1",
                "type": "t_mapping(t_address,t_int256)"
            },
            {
                "astId": 13450,
                "contract": "contracts/implementation/PoolKeeper.sol:PoolKeeper",
                "label": "keeperRewards",
                "offset": 0,
                "slot": "2",
                "type": "t_address"
            },
            {
                "astId": 13453,
                "contract": "contracts/implementation/PoolKeeper.sol:PoolKeeper",
                "label": "gasPrice",
                "offset": 0,
                "slot": "3",
                "type": "t_uint256"
            }
        ],
        "types": {
            "t_address": {
                "encoding": "inplace",
                "label": "address",
                "numberOfBytes": "20"
            },
            "t_int256": {
                "encoding": "inplace",
                "label": "int256",
                "numberOfBytes": "32"
            },
            "t_mapping(t_address,t_int256)": {
                "encoding": "mapping",
                "key": "t_address",
                "label": "mapping(address => int256)",
                "numberOfBytes": "32",
                "value": "t_int256"
            },
            "t_uint256": {
                "encoding": "inplace",
                "label": "uint256",
                "numberOfBytes": "32"
            }
        }
    }
}