{
  "address": "0xCeB1f359c1C5dFFa085cE5D4A95a802bD0168De9",
  "abi": [
    {
      "inputs": [
        {
          "internalType": "address",
          "name": "_factory",
          "type": "address"
        }
      ],
      "stateMutability": "nonpayable",
      "type": "constructor"
    },
    {
      "inputs": [
        {
          "internalType": "uint128",
          "name": "_minimumCommitSize",
          "type": "uint128"
        },
        {
          "internalType": "uint128",
          "name": "_maximumCommitQueueLength",
          "type": "uint128"
        }
      ],
      "name": "deploy",
      "outputs": [
        {
          "internalType": "address",
          "name": "",
          "type": "address"
        }
      ],
      "stateMutability": "nonpayable",
      "type": "function"
    },
    {
      "inputs": [],
      "name": "factory",
      "outputs": [
        {
          "internalType": "address",
          "name": "",
          "type": "address"
        }
      ],
      "stateMutability": "view",
      "type": "function"
    }
  ],
  "transactionHash": "0x84616b79120e0085c71b10954052258fda8e4e7c4765388cbe5171a232a14255",
  "args": [
    "0xdE728E434578edFcD22a1820bDae35456cf4361D"
  ],
  "solcInputHash": "064a46e8a39a75e0d8a373ad538a65bf",
  "bytecode": "0x608060405234801561001057600080fd5b5060405161360f38038061360f83398101604081905261002f916100ae565b6001600160a01b0381166100895760405162461bcd60e51b815260206004820152601e60248201527f466163746f727920616464726573732063616e6e6f74206265206e756c6c0000604482015260640160405180910390fd5b600080546001600160a01b0319166001600160a01b03929092169190911790556100de565b6000602082840312156100c057600080fd5b81516001600160a01b03811681146100d757600080fd5b9392505050565b613522806100ed6000396000f3fe608060405234801561001057600080fd5b50600436106100365760003560e01c8063960419831461003b578063c45a01551461006a575b600080fd5b61004e610049366004610167565b61007d565b6040516001600160a01b03909116815260200160405180910390f35b60005461004e906001600160a01b031681565b600080546001600160a01b031633146100d55760405162461bcd60e51b81526020600482015260166024820152756d73672e73656e646572206e6f7420666163746f727960501b604482015260640160405180910390fd5b6000546040516001600160a01b0390911690849084906100f49061013e565b6001600160a01b0390931683526001600160801b039182166020840152166040820152606001604051809103906000f080158015610136573d6000803e3d6000fd5b509392505050565b6133528061019b83390190565b80356001600160801b038116811461016257600080fd5b919050565b6000806040838503121561017a57600080fd5b6101838361014b565b91506101916020840161014b565b9050925092905056fe6080604052600480546001600160801b0319166001600160801b031790553480156200002a57600080fd5b5060405162003352380380620033528339810160408190526200004d916200024f565b6200005833620001a5565b6001600160a01b038316620000b35760405162461bcd60e51b815260206004820152601e60248201527f466163746f727920616464726573732063616e6e6f74206265206e756c6c0000604482015260640160405180910390fd5b600a80546001600160a01b0319166001600160a01b038516908117909155600580546001600160801b03908116600160801b8683160217909155600680546001600160801b03191691841691909117905560408051631127a41d60e31b8152905163893d20e8916004818101926020929091908290030181600087803b1580156200013d57600080fd5b505af115801562000152573d6000803e3d6000fd5b505050506040513d601f19601f820116820180604052508101906200017891906200022a565b600b80546001600160a01b0319166001600160a01b03929092169190911790555050426007555062000299565b600080546001600160a01b038381166001600160a01b0319831681178455604051919092169283917f8be0079c531659141344cd1fd0a4f28419497f9722a3daafe3b4186f6b6457e09190a35050565b80516001600160a01b03811681146200020d57600080fd5b919050565b80516001600160801b03811681146200020d57600080fd5b6000602082840312156200023d57600080fd5b6200024882620001f5565b9392505050565b6000806000606084860312156200026557600080fd5b6200027084620001f5565b9250620002806020850162000212565b9150620002906040850162000212565b90509250925092565b6130a980620002a96000396000f3fe608060405234801561001057600080fd5b50600436106101585760003560e01c80638bf13f82116100c3578063d44b1ff31161007c578063d44b1ff31461033f578063e323aac614610359578063f2fde38b1461036c578063f9495c9c1461037f578063f9a0e14e14610392578063fd555fb9146103a557600080fd5b80638bf13f82146102bb5780638da5cb5b146102d55780639eda0cc2146102e6578063b3fecffe146102f9578063c45a01551461030c578063caf4c2c51461031f57600080fd5b80634f64b2be116101155780634f64b2be1461023c5780635aa6e6751461026757806364d536601461027a578063685544a61461028d578063715018a6146102a0578063822255de146102a857600080fd5b80631c536da41461015d57806321fe80591461016757806329075d711461018357806330f75260146101dc57806341397577146102025780634b2ec83114610222575b600080fd5b6101656103b8565b005b61017060075481565b6040519081526020015b60405180910390f35b6101cc610191366004612df8565b6008602052600090815260409020805460019091015460ff811690610100810464ffffffffff1690600160301b90046001600160a01b031684565b60405161017a9493929190612f38565b6101ea6001600160801b0381565b6040516001600160801b03909116815260200161017a565b610170610210366004612e21565b60096020526000908152604090205481565b6005546101ea90600160801b90046001600160801b031681565b61024f61024a366004612e21565b6108d5565b6040516001600160a01b03909116815260200161017a565b600b5461024f906001600160a01b031681565b6006546101ea906001600160801b031681565b61016561029b366004612df8565b6108f5565b61016561096a565b6101656102b6366004612d4a565b6109ce565b6006546101ea90600160801b90046001600160801b031681565b6000546001600160a01b031661024f565b6004546101ea906001600160801b031681565b610165610307366004612d74565b611522565b600a5461024f906001600160a01b031681565b61033261032d366004612df8565b611f71565b60405161017a9190612ef1565b6004546101ea90600160801b90046001600160801b031681565b60015461024f906001600160a01b031681565b61016561037a366004612c39565b61201e565b61016561038d366004612df8565b6120e9565b6005546101ea906001600160801b031681565b6101656103b3366004612c5d565b6121ba565b6001546001600160a01b031633146104175760405162461bcd60e51b815260206004820152601c60248201527f6d73672e73656e646572206e6f74206c6576657261676564506f6f6c0000000060448201526064015b60405180910390fd5b6004546001600160801b03908116141561042d57565b60015460408051633dff3c4d60e11b815290516001600160a01b03909216916000918391637bfe789a91600480820192602092909190829003018186803b15801561047757600080fd5b505afa15801561048b573d6000803e3d6000fd5b505050506040513d601f19601f820116820180604052508101906104af9190612e53565b63ffffffff1690506000826001600160a01b031663fd2c80ae6040518163ffffffff1660e01b815260040160206040518083038186803b1580156104f257600080fd5b505afa158015610506573d6000803e3d6000fd5b505050506040513d601f19601f8201168201806040525081019061052a9190612e53565b63ffffffff1690506000836001600160a01b0316637de93f936040518163ffffffff1660e01b815260040160206040518083038186803b15801561056d57600080fd5b505afa158015610581573d6000803e3d6000fd5b505050506040513d601f19601f820116820180604052508101906105a59190612e3a565b6007546040516381a799db60e01b815260048101919091526024810182905260448101849052606481018590529091507316A9d6c7950F973511BFe451cfCf3E346acCc021906381a799db9060840160206040518083038186803b15801561060c57600080fd5b505af4158015610620573d6000803e3d6000fd5b505050506040513d601f19601f820116820180604052508101906106449190612d28565b1561065d57600680546001600160801b03169055426007555b6004546001600160801b0380821691600160801b9004165b806001600160801b0316826001600160801b0316116108ad576001600160801b0382166000908152600860209081526040808320815160808101909252805482526001810154919290919083019060ff1660038111156106d7576106d7613032565b60038111156106e8576106e8613032565b81526001919091015464ffffffffff61010082041660208301526001600160a01b03600160301b9091048116604090920191909152606082015191925016610730575061089b565b85816040015164ffffffffff16426107489190612fde565b1161075357506108ad565b6040516001600160801b03841681527f53e7d7eb888194c67870ec86b8523606069fb6eeeab81f458a6065b9e88defa99060200160405180910390a16040516359ff67ff60e11b8152309063b3fecffe906107b2908490600401612ef1565b600060405180830381600087803b1580156107cc57600080fd5b505af19250505080156107dd575060015b61082c576107eb81846125da565b6040516001600160801b03841681527f089a8e68b5afa612f76f7ec1235a9d9d07e0d79462a6b0d862aaa0ac035426c19060200160405180910390a1610859565b6001600160801b038316600090815260086020526040812090815560010180546001600160d01b03191690555b816001600160801b0316836001600160801b03161415610899575050600480546001600160801b0319166001600160801b03179055506108d39350505050565b505b816108a581612ff5565b925050610675565b50600480546001600160801b0319166001600160801b0392909216919091179055505050505b565b600281600281106108e557600080fd5b01546001600160a01b0316905081565b600b546001600160a01b0316331461094b5760405162461bcd60e51b81526020600482015260196024820152786d73672e73656e646572206e6f7420676f7665726e616e636560381b604482015260640161040e565b600580546001600160801b03928316600160801b029216919091179055565b6000546001600160a01b031633146109c45760405162461bcd60e51b815260206004820181905260248201527f4f776e61626c653a2063616c6c6572206973206e6f7420746865206f776e6572604482015260640161040e565b6108d360006128d2565b6006546001600160801b03808216600160801b9092041610610a325760405162461bcd60e51b815260206004820152601c60248201527f546f6f206d616e7920636f6d6d69747320696e20696e74657276616c00000000604482015260640161040e565b60008111610a825760405162461bcd60e51b815260206004820152601760248201527f416d6f756e74206d757374206e6f74206265207a65726f000000000000000000604482015260640161040e565b60015460408051637e96405760e11b815290516001600160a01b0390921691600091839163fd2c80ae91600480820192602092909190829003018186803b158015610acc57600080fd5b505afa158015610ae0573d6000803e3d6000fd5b505050506040513d601f19601f82011682018060405250810190610b049190612e53565b63ffffffff1690506000826001600160a01b0316637de93f936040518163ffffffff1660e01b815260040160206040518083038186803b158015610b4757600080fd5b505afa158015610b5b573d6000803e3d6000fd5b505050506040513d601f19601f82011682018060405250810190610b7f9190612e3a565b90506000836001600160a01b0316637bfe789a6040518163ffffffff1660e01b815260040160206040518083038186803b158015610bbc57600080fd5b505afa158015610bd0573d6000803e3d6000fd5b505050506040513d601f19601f82011682018060405250810190610bf49190612e53565b6007546040516381a799db60e01b81526004810191909152602481018490526044810185905263ffffffff919091166064820181905291507316A9d6c7950F973511BFe451cfCf3E346acCc021906381a799db9060840160206040518083038186803b158015610c6357600080fd5b505af4158015610c77573d6000803e3d6000fd5b505050506040513d601f19601f82011682018060405250810190610c9b9190612d28565b8015610d3b57506040516381a799db60e01b81524260048201526024810183905260448101849052606481018290527316A9d6c7950F973511BFe451cfCf3E346acCc021906381a799db9060840160206040518083038186803b158015610d0157600080fd5b505af4158015610d15573d6000803e3d6000fd5b505050506040513d601f19601f82011682018060405250810190610d399190612d28565b155b15610d5457600680546001600160801b03169055426007555b6001600660108282829054906101000a90046001600160801b0316610d799190612f73565b82546101009290920a6001600160801b03818102199093169183160217909155600554169050610daa816001612f73565b600560006101000a8154816001600160801b0302191690836001600160801b031602179055506040518060800160405280878152602001886003811115610df357610df3613032565b815264ffffffffff4216602080830191909152336040928301526001600160801b03841660009081526008825291909120825181559082015160018083018054909160ff1990911690836003811115610e4e57610e4e613032565b02179055506040820151600190910180546060909301516001600160a01b0316600160301b026601000000000000600160d01b031964ffffffffff9093166101000292909216610100600160d01b0319909316929092171790556000876003811115610ebc57610ebc613032565b600081815260096020526040902054909150610ed9908890612f9e565b6000828152600960205260409020556004546001600160801b039081161415610f1857600480546001600160801b0319166001600160801b0384161790555b600480546001600160801b03808516600160801b029116179055876003811115610f4457610f44613032565b60405188906001600160801b038516907feeb519088468e5ea7765bbf8c4464c3bde5ff110d8de10ee5db057be2599d1fc90600090a46000866001600160a01b031663ba8d54686040518163ffffffff1660e01b815260040160206040518083038186803b158015610fb557600080fd5b505afa158015610fc9573d6000803e3d6000fd5b505050506040513d601f19601f82011682018060405250810190610fed9190612e3a565b90506000876001600160a01b0316637e71fc7d6040518163ffffffff1660e01b815260040160206040518083038186803b15801561102a57600080fd5b505afa15801561103e573d6000803e3d6000fd5b505050506040513d601f19601f820116820180604052508101906110629190612e3a565b905060028a600381111561107857611078613032565b1480611095575060008a600381111561109357611093613032565b145b1561113d57600554600160801b90046001600160801b03168910156110cc5760405162461bcd60e51b815260040161040e90612eba565b6001546040516307b0a0c960e41b81523360048201526001600160a01b039182166024820152604481018b905290891690637b0a0c9090606401600060405180830381600087803b15801561112057600080fd5b505af1158015611134573d6000803e3d6000fd5b50505050611516565b60038a600381111561115157611151613032565b141561132b5760007316A9d6c7950F973511BFe451cfCf3E346acCc02163debb52df6002830160009054906101000a90046001600160a01b03166001600160a01b03166318160ddd6040518163ffffffff1660e01b815260040160206040518083038186803b1580156111c357600080fd5b505afa1580156111d7573d6000803e3d6000fd5b505050506040513d601f19601f820116820180604052508101906111fb9190612e3a565b6000878152600960205260409081902054905160e084901b6001600160e01b03191681526004810192909252602482018e905260448201869052606482015260840160206040518083038186803b15801561125557600080fd5b505af4158015611269573d6000803e3d6000fd5b505050506040513d601f19601f8201168201806040525081019061128d9190612e3a565b600554909150600160801b90046001600160801b03168110156112c25760405162461bcd60e51b815260040161040e90612eba565b6040516387f9ca5d60e01b81526001600160a01b038a16906387f9ca5d906112f3906000908e903390600401612e9b565b600060405180830381600087803b15801561130d57600080fd5b505af1158015611321573d6000803e3d6000fd5b5050505050611516565b60018a600381111561133f5761133f613032565b14156115165760007316A9d6c7950F973511BFe451cfCf3E346acCc02163debb52df600260010160009054906101000a90046001600160a01b03166001600160a01b03166318160ddd6040518163ffffffff1660e01b815260040160206040518083038186803b1580156113b257600080fd5b505afa1580156113c6573d6000803e3d6000fd5b505050506040513d601f19601f820116820180604052508101906113ea9190612e3a565b6000878152600960205260409081902054905160e084901b6001600160e01b03191681526004810192909252602482018e905260448201879052606482015260840160206040518083038186803b15801561144457600080fd5b505af4158015611458573d6000803e3d6000fd5b505050506040513d601f19601f8201168201806040525081019061147c9190612e3a565b600554909150600160801b90046001600160801b03168110156114b15760405162461bcd60e51b815260040161040e90612eba565b6040516387f9ca5d60e01b81526001600160a01b038a16906387f9ca5d906114e2906001908e903390600401612e9b565b600060405180830381600087803b1580156114fc57600080fd5b505af1158015611510573d6000803e3d6000fd5b50505050505b50505050505050505050565b3330146115675760405162461bcd60e51b815260206004820152601360248201527236b9b39739b2b73232b9103737ba1039b2b63360691b604482015260640161040e565b60015460408051631751aa8d60e31b815290516001600160a01b0390921691600091839163ba8d546891600480820192602092909190829003018186803b1580156115b157600080fd5b505afa1580156115c5573d6000803e3d6000fd5b505050506040513d601f19601f820116820180604052508101906115e99190612e3a565b90506000826001600160a01b0316637e71fc7d6040518163ffffffff1660e01b815260040160206040518083038186803b15801561162657600080fd5b505afa15801561163a573d6000803e3d6000fd5b505050506040513d601f19601f8201168201806040525081019061165e9190612e3a565b905060008460200151600381111561167857611678613032565b855160008281526009602052604090205491925061169591612fde565b6000828152600960205260409020556002856020015160038111156116bc576116bc613032565b14156118fc5760007316A9d6c7950F973511BFe451cfCf3E346acCc02163ab41556f6002830160009054906101000a90046001600160a01b03166001600160a01b03166318160ddd6040518163ffffffff1660e01b815260040160206040518083038186803b15801561172e57600080fd5b505afa158015611742573d6000803e3d6000fd5b505050506040513d601f19601f820116820180604052508101906117669190612e3a565b8851600360005260096020527fc575c31fea594a6eb97c8e9d3f9caee4c16218c6ef37e923234c0fe9014a61e7546040516001600160e01b031960e086901b1681526004810193909352602483019190915260448201879052606482015260840160206040518083038186803b1580156117df57600080fd5b505af41580156117f3573d6000803e3d6000fd5b505050506040513d601f19601f820116820180604052508101906118179190612e3a565b60608701516040516375c66e2f60e01b81529192506001600160a01b038716916375c66e2f9161184e916000918691600401612e9b565b600060405180830381600087803b15801561186857600080fd5b505af115801561187c573d6000803e3d6000fd5b505087516001600160a01b0388169250633c3f8252915061189d9086612f9e565b866040518363ffffffff1660e01b81526004016118c4929190918252602082015260400190565b600060405180830381600087803b1580156118de57600080fd5b505af11580156118f2573d6000803e3d6000fd5b5050505050611f6a565b60038560200151600381111561191457611914613032565b1415611b0c5760007316A9d6c7950F973511BFe451cfCf3E346acCc02163debb52df6002830160009054906101000a90046001600160a01b03166001600160a01b03166318160ddd6040518163ffffffff1660e01b815260040160206040518083038186803b15801561198657600080fd5b505afa15801561199a573d6000803e3d6000fd5b505050506040513d601f19601f820116820180604052508101906119be9190612e3a565b885160008681526009602052604090205487906119dc908390612f9e565b6040516001600160e01b031960e087901b168152600481019490945260248401929092526044830152606482015260840160206040518083038186803b158015611a2557600080fd5b505af4158015611a39573d6000803e3d6000fd5b505050506040513d601f19601f82011682018060405250810190611a5d9190612e3a565b90506001600160a01b038516633c3f8252611a788386612fde565b866040518363ffffffff1660e01b8152600401611a9f929190918252602082015260400190565b600060405180830381600087803b158015611ab957600080fd5b505af1158015611acd573d6000803e3d6000fd5b505050506060860151604051632c0bf86360e11b81526001600160a01b0391821660048201526024810183905290861690635817f0c6906044016118c4565b600085602001516003811115611b2457611b24613032565b1415611d325760007316A9d6c7950F973511BFe451cfCf3E346acCc02163ab41556f600260010160009054906101000a90046001600160a01b03166001600160a01b03166318160ddd6040518163ffffffff1660e01b815260040160206040518083038186803b158015611b9757600080fd5b505afa158015611bab573d6000803e3d6000fd5b505050506040513d601f19601f82011682018060405250810190611bcf9190612e3a565b8851600160005260096020527f92e85d02570a8092d09a6e3a57665bc3815a2699a4074001bf1ccabf660f5a36546040516001600160e01b031960e086901b1681526004810193909352602483019190915260448201889052606482015260840160206040518083038186803b158015611c4857600080fd5b505af4158015611c5c573d6000803e3d6000fd5b505050506040513d601f19601f82011682018060405250810190611c809190612e3a565b60608701516040516375c66e2f60e01b81529192506001600160a01b038716916375c66e2f91611cb7916001918691600401612e9b565b600060405180830381600087803b158015611cd157600080fd5b505af1158015611ce5573d6000803e3d6000fd5b50505050846001600160a01b0316633c3f825284886000015187611d099190612f9e565b6040516001600160e01b031960e085901b168152600481019290925260248201526044016118c4565b600185602001516003811115611d4a57611d4a613032565b1415611f6a5760007316A9d6c7950F973511BFe451cfCf3E346acCc02163debb52df600260010160009054906101000a90046001600160a01b03166001600160a01b03166318160ddd6040518163ffffffff1660e01b815260040160206040518083038186803b158015611dbd57600080fd5b505afa158015611dd1573d6000803e3d6000fd5b505050506040513d601f19601f82011682018060405250810190611df59190612e3a565b88516000868152600960205260409020548890611e13908390612f9e565b6040516001600160e01b031960e087901b168152600481019490945260248401929092526044830152606482015260840160206040518083038186803b158015611e5c57600080fd5b505af4158015611e70573d6000803e3d6000fd5b505050506040513d601f19601f82011682018060405250810190611e949190612e3a565b90506001600160a01b038516633c3f825284611eb08488612fde565b6040516001600160e01b031960e085901b16815260048101929092526024820152604401600060405180830381600087803b158015611eee57600080fd5b505af1158015611f02573d6000803e3d6000fd5b505050506060860151604051632c0bf86360e11b81526001600160a01b0391821660048201526024810183905290861690635817f0c690604401600060405180830381600087803b158015611f5657600080fd5b505af1158015611516573d6000803e3d6000fd5b5050505050565b604080516080808201835260008083526020808401829052838501829052606084018290526001600160801b038616825260088152908490208451928301909452835482526001840154929391929083019060ff166003811115611fd757611fd7613032565b6003811115611fe857611fe8613032565b815260019190910154610100810464ffffffffff166020830152600160301b90046001600160a01b031660409091015292915050565b6000546001600160a01b031633146120785760405162461bcd60e51b815260206004820181905260248201527f4f776e61626c653a2063616c6c6572206973206e6f7420746865206f776e6572604482015260640161040e565b6001600160a01b0381166120dd5760405162461bcd60e51b815260206004820152602660248201527f4f776e61626c653a206e6577206f776e657220697320746865207a65726f206160448201526564647265737360d01b606482015260840161040e565b6120e6816128d2565b50565b600b546001600160a01b0316331461213f5760405162461bcd60e51b81526020600482015260196024820152786d73672e73656e646572206e6f7420676f7665726e616e636560381b604482015260640161040e565b6000816001600160801b0316116121985760405162461bcd60e51b815260206004820152601860248201527f436f6d6d6974207175657565206d757374206265203e20300000000000000000604482015260640161040e565b600680546001600160801b0319166001600160801b0392909216919091179055565b600a546001600160a01b0316331461220d5760405162461bcd60e51b8152602060048201526016602482015275436f6d6d69747465723a206e6f7420666163746f727960501b604482015260640161040e565b6001600160a01b0382166122735760405162461bcd60e51b815260206004820152602760248201527f51756f746520746f6b656e20616464726573732063616e6e6f742062652030206044820152666164647265737360c81b606482015260840161040e565b6001600160a01b0381166122dc5760405162461bcd60e51b815260206004820152602a60248201527f4c657665726167656420706f6f6c20616464726573732063616e6e6f742062656044820152692030206164647265737360b01b606482015260840161040e565b600180546001600160a01b0319166001600160a01b03838116918217909255604080516318160ddd60e01b8152905185936000939085169263095ea7b39284916318160ddd916004808301926020929190829003018186803b15801561234157600080fd5b505afa158015612355573d6000803e3d6000fd5b505050506040513d601f19601f820116820180604052508101906123799190612e3a565b6040516001600160e01b031960e085901b1681526001600160a01b0390921660048301526024820152604401602060405180830381600087803b1580156123bf57600080fd5b505af11580156123d3573d6000803e3d6000fd5b505050506040513d601f19601f820116820180604052508101906123f79190612d28565b90508061243e5760405162461bcd60e51b8152602060048201526015602482015274115490cc8c08185c1c1c9bdd985b0819985a5b1959605a1b604482015260640161040e565b816001600160a01b031663095ea7b3600160009054906101000a90046001600160a01b0316846001600160a01b03166318160ddd6040518163ffffffff1660e01b815260040160206040518083038186803b15801561249c57600080fd5b505afa1580156124b0573d6000803e3d6000fd5b505050506040513d601f19601f820116820180604052508101906124d49190612e3a565b6040516001600160e01b031960e085901b1681526001600160a01b0390921660048301526024820152604401602060405180830381600087803b15801561251a57600080fd5b505af115801561252e573d6000803e3d6000fd5b505050506040513d601f19601f820116820180604052508101906125529190612d28565b506001546040805163369f189f60e11b815281516001600160a01b0390931692636d3e313e92600480840193919291829003018186803b15801561259557600080fd5b505afa1580156125a9573d6000803e3d6000fd5b505050506040513d601f19601f820116820180604052508101906125cd9190612c96565b611f6a9060029081612bb8565b6000826020015160038111156125f2576125f2613032565b835160008281526009602052604090205491925061260f91612fde565b600082815260096020908152604090912091909155830151600381111561263857612638613032565b83516040516001600160801b038516907f2f2b9ec00f96da9afe52a06f4a0392b84a333e3718b29186681f51ddfe7c593b90600090a46001600160801b03808316600081815260086020526040812090815560010180546001600160d01b031916905560045490911614156126f45760048054600191906000906126c69084906001600160801b0316612f73565b92506101000a8154816001600160801b0302191690836001600160801b031602179055506126f46000612922565b6004546001600160801b03838116600160801b9092041614801561272457506004546001600160801b0390811614155b1561277c576001600460108282829054906101000a90046001600160801b031661274e9190612fb6565b92506101000a8154816001600160801b0302191690836001600160801b0316021790555061277c6001612922565b60028360200151600381111561279457612794613032565b14806127b557506000836020015160038111156127b3576127b3613032565b145b15612827576001548351604051632c0bf86360e11b815233600482015260248101919091526001600160a01b0390911690635817f0c6906044015b600060405180830381600087803b15801561280a57600080fd5b505af115801561281e573d6000803e3d6000fd5b50505050505050565b60038360200151600381111561283f5761283f613032565b141561287b5760015483516040516375c66e2f60e01b81526001600160a01b03909216916375c66e2f916127f091600091903390600401612e9b565b60018360200151600381111561289357612893613032565b14156128cd576001805484516040516375c66e2f60e01b81526001600160a01b03909216926375c66e2f926127f092903390600401612e9b565b505050565b600080546001600160a01b038381166001600160a01b0319831681178455604051919092169283917f8be0079c531659141344cd1fd0a4f28419497f9722a3daafe3b4186f6b6457e09190a35050565b600081600181111561293657612936613032565b1415612a71576004546001600160801b03165b6004546001600160801b03600160801b909104811690821611612a17576001600160801b0381166000908152600860209081526040808320815160808101909252805482526001810154919290919083019060ff1660038111156129af576129af613032565b60038111156129c0576129c0613032565b81526001919091015464ffffffffff61010082041660208301526001600160a01b03600160301b9091048116604090920191909152606082015191925016612a1557612a0d600183612f73565b915050612949565b505b6004546001600160801b03600160801b90910481169082161115612a5357600480546001600160801b0319166001600160801b03179055612a6f565b600480546001600160801b0319166001600160801b0383161790555b505b6001816001811115612a8557612a85613032565b14156120e657600454600160801b90046001600160801b03165b6004546001600160801b0390811690821610612b66576001600160801b0381166000908152600860209081526040808320815160808101909252805482526001810154919290919083019060ff166003811115612afe57612afe613032565b6003811115612b0f57612b0f613032565b81526001919091015464ffffffffff61010082041660208301526001600160a01b03600160301b9091048116604090920191909152606082015191925016612b6457612b5c600183612fb6565b915050612a9f565b505b6004546001600160801b039081169082161015612b9a57600480546001600160801b0319166001600160801b031790555050565b600480546001600160801b03808416600160801b0291161790555050565b8260028101928215612c00579160200282015b82811115612c0057825182546001600160a01b0319166001600160a01b03909116178255602090920191600190910190612bcb565b50612c0c929150612c10565b5090565b5b80821115612c0c5760008155600101612c11565b803560048110612c3457600080fd5b919050565b600060208284031215612c4b57600080fd5b8135612c568161305e565b9392505050565b60008060408385031215612c7057600080fd5b8235612c7b8161305e565b91506020830135612c8b8161305e565b809150509250929050565b600060408284031215612ca857600080fd5b82601f830112612cb757600080fd5b6040516040810181811067ffffffffffffffff82111715612cda57612cda613048565b8060405250808385604086011115612cf157600080fd5b60005b6002811015612d1d578151612d088161305e565b83526020928301929190910190600101612cf4565b509195945050505050565b600060208284031215612d3a57600080fd5b81518015158114612c5657600080fd5b60008060408385031215612d5d57600080fd5b612d6683612c25565b946020939093013593505050565b600060808284031215612d8657600080fd5b6040516080810181811067ffffffffffffffff82111715612da957612da9613048565b60405282358152612dbc60208401612c25565b6020820152604083013564ffffffffff81168114612dd957600080fd5b60408201526060830135612dec8161305e565b60608201529392505050565b600060208284031215612e0a57600080fd5b81356001600160801b0381168114612c5657600080fd5b600060208284031215612e3357600080fd5b5035919050565b600060208284031215612e4c57600080fd5b5051919050565b600060208284031215612e6557600080fd5b815163ffffffff81168114612c5657600080fd5b60048110612e9757634e487b7160e01b600052602160045260246000fd5b9052565b92835260208301919091526001600160a01b0316604082015260600190565b60208082526018908201527f416d6f756e74206c657373207468616e206d696e696d756d0000000000000000604082015260600190565b815181526020808301516080830191612f0c90840182612e79565b5060408381015164ffffffffff16908301526060928301516001600160a01b0316929091019190915290565b84815260808101612f4c6020830186612e79565b64ffffffffff9390931660408201526001600160a01b039190911660609091015292915050565b60006001600160801b03808316818516808303821115612f9557612f9561301c565b01949350505050565b60008219821115612fb157612fb161301c565b500190565b60006001600160801b0383811690831681811015612fd657612fd661301c565b039392505050565b600082821015612ff057612ff061301c565b500390565b60006001600160801b03808316818114156130125761301261301c565b6001019392505050565b634e487b7160e01b600052601160045260246000fd5b634e487b7160e01b600052602160045260246000fd5b634e487b7160e01b600052604160045260246000fd5b6001600160a01b03811681146120e657600080fdfea264697066735822122012f402f9f81b6e6d8187f9dba10387e5c3c086db80f869be1b996e775caec70664736f6c63430008070033a2646970667358221220220f09e7c70ab6ed37a423379a28c5708449ecd52733c87ce08abf43107ef8ca64736f6c63430008070033",
  "deployedBytecode": "0x608060405234801561001057600080fd5b50600436106100365760003560e01c8063960419831461003b578063c45a01551461006a575b600080fd5b61004e610049366004610167565b61007d565b6040516001600160a01b03909116815260200160405180910390f35b60005461004e906001600160a01b031681565b600080546001600160a01b031633146100d55760405162461bcd60e51b81526020600482015260166024820152756d73672e73656e646572206e6f7420666163746f727960501b604482015260640160405180910390fd5b6000546040516001600160a01b0390911690849084906100f49061013e565b6001600160a01b0390931683526001600160801b039182166020840152166040820152606001604051809103906000f080158015610136573d6000803e3d6000fd5b509392505050565b6133528061019b83390190565b80356001600160801b038116811461016257600080fd5b919050565b6000806040838503121561017a57600080fd5b6101838361014b565b91506101916020840161014b565b9050925092905056fe6080604052600480546001600160801b0319166001600160801b031790553480156200002a57600080fd5b5060405162003352380380620033528339810160408190526200004d916200024f565b6200005833620001a5565b6001600160a01b038316620000b35760405162461bcd60e51b815260206004820152601e60248201527f466163746f727920616464726573732063616e6e6f74206265206e756c6c0000604482015260640160405180910390fd5b600a80546001600160a01b0319166001600160a01b038516908117909155600580546001600160801b03908116600160801b8683160217909155600680546001600160801b03191691841691909117905560408051631127a41d60e31b8152905163893d20e8916004818101926020929091908290030181600087803b1580156200013d57600080fd5b505af115801562000152573d6000803e3d6000fd5b505050506040513d601f19601f820116820180604052508101906200017891906200022a565b600b80546001600160a01b0319166001600160a01b03929092169190911790555050426007555062000299565b600080546001600160a01b038381166001600160a01b0319831681178455604051919092169283917f8be0079c531659141344cd1fd0a4f28419497f9722a3daafe3b4186f6b6457e09190a35050565b80516001600160a01b03811681146200020d57600080fd5b919050565b80516001600160801b03811681146200020d57600080fd5b6000602082840312156200023d57600080fd5b6200024882620001f5565b9392505050565b6000806000606084860312156200026557600080fd5b6200027084620001f5565b9250620002806020850162000212565b9150620002906040850162000212565b90509250925092565b6130a980620002a96000396000f3fe608060405234801561001057600080fd5b50600436106101585760003560e01c80638bf13f82116100c3578063d44b1ff31161007c578063d44b1ff31461033f578063e323aac614610359578063f2fde38b1461036c578063f9495c9c1461037f578063f9a0e14e14610392578063fd555fb9146103a557600080fd5b80638bf13f82146102bb5780638da5cb5b146102d55780639eda0cc2146102e6578063b3fecffe146102f9578063c45a01551461030c578063caf4c2c51461031f57600080fd5b80634f64b2be116101155780634f64b2be1461023c5780635aa6e6751461026757806364d536601461027a578063685544a61461028d578063715018a6146102a0578063822255de146102a857600080fd5b80631c536da41461015d57806321fe80591461016757806329075d711461018357806330f75260146101dc57806341397577146102025780634b2ec83114610222575b600080fd5b6101656103b8565b005b61017060075481565b6040519081526020015b60405180910390f35b6101cc610191366004612df8565b6008602052600090815260409020805460019091015460ff811690610100810464ffffffffff1690600160301b90046001600160a01b031684565b60405161017a9493929190612f38565b6101ea6001600160801b0381565b6040516001600160801b03909116815260200161017a565b610170610210366004612e21565b60096020526000908152604090205481565b6005546101ea90600160801b90046001600160801b031681565b61024f61024a366004612e21565b6108d5565b6040516001600160a01b03909116815260200161017a565b600b5461024f906001600160a01b031681565b6006546101ea906001600160801b031681565b61016561029b366004612df8565b6108f5565b61016561096a565b6101656102b6366004612d4a565b6109ce565b6006546101ea90600160801b90046001600160801b031681565b6000546001600160a01b031661024f565b6004546101ea906001600160801b031681565b610165610307366004612d74565b611522565b600a5461024f906001600160a01b031681565b61033261032d366004612df8565b611f71565b60405161017a9190612ef1565b6004546101ea90600160801b90046001600160801b031681565b60015461024f906001600160a01b031681565b61016561037a366004612c39565b61201e565b61016561038d366004612df8565b6120e9565b6005546101ea906001600160801b031681565b6101656103b3366004612c5d565b6121ba565b6001546001600160a01b031633146104175760405162461bcd60e51b815260206004820152601c60248201527f6d73672e73656e646572206e6f74206c6576657261676564506f6f6c0000000060448201526064015b60405180910390fd5b6004546001600160801b03908116141561042d57565b60015460408051633dff3c4d60e11b815290516001600160a01b03909216916000918391637bfe789a91600480820192602092909190829003018186803b15801561047757600080fd5b505afa15801561048b573d6000803e3d6000fd5b505050506040513d601f19601f820116820180604052508101906104af9190612e53565b63ffffffff1690506000826001600160a01b031663fd2c80ae6040518163ffffffff1660e01b815260040160206040518083038186803b1580156104f257600080fd5b505afa158015610506573d6000803e3d6000fd5b505050506040513d601f19601f8201168201806040525081019061052a9190612e53565b63ffffffff1690506000836001600160a01b0316637de93f936040518163ffffffff1660e01b815260040160206040518083038186803b15801561056d57600080fd5b505afa158015610581573d6000803e3d6000fd5b505050506040513d601f19601f820116820180604052508101906105a59190612e3a565b6007546040516381a799db60e01b8152600481019190915260248101829052604481018490526064810185905290915073__$dc3b4b0a367edd91a2d74c73e2da54c142$__906381a799db9060840160206040518083038186803b15801561060c57600080fd5b505af4158015610620573d6000803e3d6000fd5b505050506040513d601f19601f820116820180604052508101906106449190612d28565b1561065d57600680546001600160801b03169055426007555b6004546001600160801b0380821691600160801b9004165b806001600160801b0316826001600160801b0316116108ad576001600160801b0382166000908152600860209081526040808320815160808101909252805482526001810154919290919083019060ff1660038111156106d7576106d7613032565b60038111156106e8576106e8613032565b81526001919091015464ffffffffff61010082041660208301526001600160a01b03600160301b9091048116604090920191909152606082015191925016610730575061089b565b85816040015164ffffffffff16426107489190612fde565b1161075357506108ad565b6040516001600160801b03841681527f53e7d7eb888194c67870ec86b8523606069fb6eeeab81f458a6065b9e88defa99060200160405180910390a16040516359ff67ff60e11b8152309063b3fecffe906107b2908490600401612ef1565b600060405180830381600087803b1580156107cc57600080fd5b505af19250505080156107dd575060015b61082c576107eb81846125da565b6040516001600160801b03841681527f089a8e68b5afa612f76f7ec1235a9d9d07e0d79462a6b0d862aaa0ac035426c19060200160405180910390a1610859565b6001600160801b038316600090815260086020526040812090815560010180546001600160d01b03191690555b816001600160801b0316836001600160801b03161415610899575050600480546001600160801b0319166001600160801b03179055506108d39350505050565b505b816108a581612ff5565b925050610675565b50600480546001600160801b0319166001600160801b0392909216919091179055505050505b565b600281600281106108e557600080fd5b01546001600160a01b0316905081565b600b546001600160a01b0316331461094b5760405162461bcd60e51b81526020600482015260196024820152786d73672e73656e646572206e6f7420676f7665726e616e636560381b604482015260640161040e565b600580546001600160801b03928316600160801b029216919091179055565b6000546001600160a01b031633146109c45760405162461bcd60e51b815260206004820181905260248201527f4f776e61626c653a2063616c6c6572206973206e6f7420746865206f776e6572604482015260640161040e565b6108d360006128d2565b6006546001600160801b03808216600160801b9092041610610a325760405162461bcd60e51b815260206004820152601c60248201527f546f6f206d616e7920636f6d6d69747320696e20696e74657276616c00000000604482015260640161040e565b60008111610a825760405162461bcd60e51b815260206004820152601760248201527f416d6f756e74206d757374206e6f74206265207a65726f000000000000000000604482015260640161040e565b60015460408051637e96405760e11b815290516001600160a01b0390921691600091839163fd2c80ae91600480820192602092909190829003018186803b158015610acc57600080fd5b505afa158015610ae0573d6000803e3d6000fd5b505050506040513d601f19601f82011682018060405250810190610b049190612e53565b63ffffffff1690506000826001600160a01b0316637de93f936040518163ffffffff1660e01b815260040160206040518083038186803b158015610b4757600080fd5b505afa158015610b5b573d6000803e3d6000fd5b505050506040513d601f19601f82011682018060405250810190610b7f9190612e3a565b90506000836001600160a01b0316637bfe789a6040518163ffffffff1660e01b815260040160206040518083038186803b158015610bbc57600080fd5b505afa158015610bd0573d6000803e3d6000fd5b505050506040513d601f19601f82011682018060405250810190610bf49190612e53565b6007546040516381a799db60e01b81526004810191909152602481018490526044810185905263ffffffff9190911660648201819052915073__$dc3b4b0a367edd91a2d74c73e2da54c142$__906381a799db9060840160206040518083038186803b158015610c6357600080fd5b505af4158015610c77573d6000803e3d6000fd5b505050506040513d601f19601f82011682018060405250810190610c9b9190612d28565b8015610d3b57506040516381a799db60e01b815242600482015260248101839052604481018490526064810182905273__$dc3b4b0a367edd91a2d74c73e2da54c142$__906381a799db9060840160206040518083038186803b158015610d0157600080fd5b505af4158015610d15573d6000803e3d6000fd5b505050506040513d601f19601f82011682018060405250810190610d399190612d28565b155b15610d5457600680546001600160801b03169055426007555b6001600660108282829054906101000a90046001600160801b0316610d799190612f73565b82546101009290920a6001600160801b03818102199093169183160217909155600554169050610daa816001612f73565b600560006101000a8154816001600160801b0302191690836001600160801b031602179055506040518060800160405280878152602001886003811115610df357610df3613032565b815264ffffffffff4216602080830191909152336040928301526001600160801b03841660009081526008825291909120825181559082015160018083018054909160ff1990911690836003811115610e4e57610e4e613032565b02179055506040820151600190910180546060909301516001600160a01b0316600160301b026601000000000000600160d01b031964ffffffffff9093166101000292909216610100600160d01b0319909316929092171790556000876003811115610ebc57610ebc613032565b600081815260096020526040902054909150610ed9908890612f9e565b6000828152600960205260409020556004546001600160801b039081161415610f1857600480546001600160801b0319166001600160801b0384161790555b600480546001600160801b03808516600160801b029116179055876003811115610f4457610f44613032565b60405188906001600160801b038516907feeb519088468e5ea7765bbf8c4464c3bde5ff110d8de10ee5db057be2599d1fc90600090a46000866001600160a01b031663ba8d54686040518163ffffffff1660e01b815260040160206040518083038186803b158015610fb557600080fd5b505afa158015610fc9573d6000803e3d6000fd5b505050506040513d601f19601f82011682018060405250810190610fed9190612e3a565b90506000876001600160a01b0316637e71fc7d6040518163ffffffff1660e01b815260040160206040518083038186803b15801561102a57600080fd5b505afa15801561103e573d6000803e3d6000fd5b505050506040513d601f19601f820116820180604052508101906110629190612e3a565b905060028a600381111561107857611078613032565b1480611095575060008a600381111561109357611093613032565b145b1561113d57600554600160801b90046001600160801b03168910156110cc5760405162461bcd60e51b815260040161040e90612eba565b6001546040516307b0a0c960e41b81523360048201526001600160a01b039182166024820152604481018b905290891690637b0a0c9090606401600060405180830381600087803b15801561112057600080fd5b505af1158015611134573d6000803e3d6000fd5b50505050611516565b60038a600381111561115157611151613032565b141561132b57600073__$dc3b4b0a367edd91a2d74c73e2da54c142$__63debb52df6002830160009054906101000a90046001600160a01b03166001600160a01b03166318160ddd6040518163ffffffff1660e01b815260040160206040518083038186803b1580156111c357600080fd5b505afa1580156111d7573d6000803e3d6000fd5b505050506040513d601f19601f820116820180604052508101906111fb9190612e3a565b6000878152600960205260409081902054905160e084901b6001600160e01b03191681526004810192909252602482018e905260448201869052606482015260840160206040518083038186803b15801561125557600080fd5b505af4158015611269573d6000803e3d6000fd5b505050506040513d601f19601f8201168201806040525081019061128d9190612e3a565b600554909150600160801b90046001600160801b03168110156112c25760405162461bcd60e51b815260040161040e90612eba565b6040516387f9ca5d60e01b81526001600160a01b038a16906387f9ca5d906112f3906000908e903390600401612e9b565b600060405180830381600087803b15801561130d57600080fd5b505af1158015611321573d6000803e3d6000fd5b5050505050611516565b60018a600381111561133f5761133f613032565b141561151657600073__$dc3b4b0a367edd91a2d74c73e2da54c142$__63debb52df600260010160009054906101000a90046001600160a01b03166001600160a01b03166318160ddd6040518163ffffffff1660e01b815260040160206040518083038186803b1580156113b257600080fd5b505afa1580156113c6573d6000803e3d6000fd5b505050506040513d601f19601f820116820180604052508101906113ea9190612e3a565b6000878152600960205260409081902054905160e084901b6001600160e01b03191681526004810192909252602482018e905260448201879052606482015260840160206040518083038186803b15801561144457600080fd5b505af4158015611458573d6000803e3d6000fd5b505050506040513d601f19601f8201168201806040525081019061147c9190612e3a565b600554909150600160801b90046001600160801b03168110156114b15760405162461bcd60e51b815260040161040e90612eba565b6040516387f9ca5d60e01b81526001600160a01b038a16906387f9ca5d906114e2906001908e903390600401612e9b565b600060405180830381600087803b1580156114fc57600080fd5b505af1158015611510573d6000803e3d6000fd5b50505050505b50505050505050505050565b3330146115675760405162461bcd60e51b815260206004820152601360248201527236b9b39739b2b73232b9103737ba1039b2b63360691b604482015260640161040e565b60015460408051631751aa8d60e31b815290516001600160a01b0390921691600091839163ba8d546891600480820192602092909190829003018186803b1580156115b157600080fd5b505afa1580156115c5573d6000803e3d6000fd5b505050506040513d601f19601f820116820180604052508101906115e99190612e3a565b90506000826001600160a01b0316637e71fc7d6040518163ffffffff1660e01b815260040160206040518083038186803b15801561162657600080fd5b505afa15801561163a573d6000803e3d6000fd5b505050506040513d601f19601f8201168201806040525081019061165e9190612e3a565b905060008460200151600381111561167857611678613032565b855160008281526009602052604090205491925061169591612fde565b6000828152600960205260409020556002856020015160038111156116bc576116bc613032565b14156118fc57600073__$dc3b4b0a367edd91a2d74c73e2da54c142$__63ab41556f6002830160009054906101000a90046001600160a01b03166001600160a01b03166318160ddd6040518163ffffffff1660e01b815260040160206040518083038186803b15801561172e57600080fd5b505afa158015611742573d6000803e3d6000fd5b505050506040513d601f19601f820116820180604052508101906117669190612e3a565b8851600360005260096020527fc575c31fea594a6eb97c8e9d3f9caee4c16218c6ef37e923234c0fe9014a61e7546040516001600160e01b031960e086901b1681526004810193909352602483019190915260448201879052606482015260840160206040518083038186803b1580156117df57600080fd5b505af41580156117f3573d6000803e3d6000fd5b505050506040513d601f19601f820116820180604052508101906118179190612e3a565b60608701516040516375c66e2f60e01b81529192506001600160a01b038716916375c66e2f9161184e916000918691600401612e9b565b600060405180830381600087803b15801561186857600080fd5b505af115801561187c573d6000803e3d6000fd5b505087516001600160a01b0388169250633c3f8252915061189d9086612f9e565b866040518363ffffffff1660e01b81526004016118c4929190918252602082015260400190565b600060405180830381600087803b1580156118de57600080fd5b505af11580156118f2573d6000803e3d6000fd5b5050505050611f6a565b60038560200151600381111561191457611914613032565b1415611b0c57600073__$dc3b4b0a367edd91a2d74c73e2da54c142$__63debb52df6002830160009054906101000a90046001600160a01b03166001600160a01b03166318160ddd6040518163ffffffff1660e01b815260040160206040518083038186803b15801561198657600080fd5b505afa15801561199a573d6000803e3d6000fd5b505050506040513d601f19601f820116820180604052508101906119be9190612e3a565b885160008681526009602052604090205487906119dc908390612f9e565b6040516001600160e01b031960e087901b168152600481019490945260248401929092526044830152606482015260840160206040518083038186803b158015611a2557600080fd5b505af4158015611a39573d6000803e3d6000fd5b505050506040513d601f19601f82011682018060405250810190611a5d9190612e3a565b90506001600160a01b038516633c3f8252611a788386612fde565b866040518363ffffffff1660e01b8152600401611a9f929190918252602082015260400190565b600060405180830381600087803b158015611ab957600080fd5b505af1158015611acd573d6000803e3d6000fd5b505050506060860151604051632c0bf86360e11b81526001600160a01b0391821660048201526024810183905290861690635817f0c6906044016118c4565b600085602001516003811115611b2457611b24613032565b1415611d3257600073__$dc3b4b0a367edd91a2d74c73e2da54c142$__63ab41556f600260010160009054906101000a90046001600160a01b03166001600160a01b03166318160ddd6040518163ffffffff1660e01b815260040160206040518083038186803b158015611b9757600080fd5b505afa158015611bab573d6000803e3d6000fd5b505050506040513d601f19601f82011682018060405250810190611bcf9190612e3a565b8851600160005260096020527f92e85d02570a8092d09a6e3a57665bc3815a2699a4074001bf1ccabf660f5a36546040516001600160e01b031960e086901b1681526004810193909352602483019190915260448201889052606482015260840160206040518083038186803b158015611c4857600080fd5b505af4158015611c5c573d6000803e3d6000fd5b505050506040513d601f19601f82011682018060405250810190611c809190612e3a565b60608701516040516375c66e2f60e01b81529192506001600160a01b038716916375c66e2f91611cb7916001918691600401612e9b565b600060405180830381600087803b158015611cd157600080fd5b505af1158015611ce5573d6000803e3d6000fd5b50505050846001600160a01b0316633c3f825284886000015187611d099190612f9e565b6040516001600160e01b031960e085901b168152600481019290925260248201526044016118c4565b600185602001516003811115611d4a57611d4a613032565b1415611f6a57600073__$dc3b4b0a367edd91a2d74c73e2da54c142$__63debb52df600260010160009054906101000a90046001600160a01b03166001600160a01b03166318160ddd6040518163ffffffff1660e01b815260040160206040518083038186803b158015611dbd57600080fd5b505afa158015611dd1573d6000803e3d6000fd5b505050506040513d601f19601f82011682018060405250810190611df59190612e3a565b88516000868152600960205260409020548890611e13908390612f9e565b6040516001600160e01b031960e087901b168152600481019490945260248401929092526044830152606482015260840160206040518083038186803b158015611e5c57600080fd5b505af4158015611e70573d6000803e3d6000fd5b505050506040513d601f19601f82011682018060405250810190611e949190612e3a565b90506001600160a01b038516633c3f825284611eb08488612fde565b6040516001600160e01b031960e085901b16815260048101929092526024820152604401600060405180830381600087803b158015611eee57600080fd5b505af1158015611f02573d6000803e3d6000fd5b505050506060860151604051632c0bf86360e11b81526001600160a01b0391821660048201526024810183905290861690635817f0c690604401600060405180830381600087803b158015611f5657600080fd5b505af1158015611516573d6000803e3d6000fd5b5050505050565b604080516080808201835260008083526020808401829052838501829052606084018290526001600160801b038616825260088152908490208451928301909452835482526001840154929391929083019060ff166003811115611fd757611fd7613032565b6003811115611fe857611fe8613032565b815260019190910154610100810464ffffffffff166020830152600160301b90046001600160a01b031660409091015292915050565b6000546001600160a01b031633146120785760405162461bcd60e51b815260206004820181905260248201527f4f776e61626c653a2063616c6c6572206973206e6f7420746865206f776e6572604482015260640161040e565b6001600160a01b0381166120dd5760405162461bcd60e51b815260206004820152602660248201527f4f776e61626c653a206e6577206f776e657220697320746865207a65726f206160448201526564647265737360d01b606482015260840161040e565b6120e6816128d2565b50565b600b546001600160a01b0316331461213f5760405162461bcd60e51b81526020600482015260196024820152786d73672e73656e646572206e6f7420676f7665726e616e636560381b604482015260640161040e565b6000816001600160801b0316116121985760405162461bcd60e51b815260206004820152601860248201527f436f6d6d6974207175657565206d757374206265203e20300000000000000000604482015260640161040e565b600680546001600160801b0319166001600160801b0392909216919091179055565b600a546001600160a01b0316331461220d5760405162461bcd60e51b8152602060048201526016602482015275436f6d6d69747465723a206e6f7420666163746f727960501b604482015260640161040e565b6001600160a01b0382166122735760405162461bcd60e51b815260206004820152602760248201527f51756f746520746f6b656e20616464726573732063616e6e6f742062652030206044820152666164647265737360c81b606482015260840161040e565b6001600160a01b0381166122dc5760405162461bcd60e51b815260206004820152602a60248201527f4c657665726167656420706f6f6c20616464726573732063616e6e6f742062656044820152692030206164647265737360b01b606482015260840161040e565b600180546001600160a01b0319166001600160a01b03838116918217909255604080516318160ddd60e01b8152905185936000939085169263095ea7b39284916318160ddd916004808301926020929190829003018186803b15801561234157600080fd5b505afa158015612355573d6000803e3d6000fd5b505050506040513d601f19601f820116820180604052508101906123799190612e3a565b6040516001600160e01b031960e085901b1681526001600160a01b0390921660048301526024820152604401602060405180830381600087803b1580156123bf57600080fd5b505af11580156123d3573d6000803e3d6000fd5b505050506040513d601f19601f820116820180604052508101906123f79190612d28565b90508061243e5760405162461bcd60e51b8152602060048201526015602482015274115490cc8c08185c1c1c9bdd985b0819985a5b1959605a1b604482015260640161040e565b816001600160a01b031663095ea7b3600160009054906101000a90046001600160a01b0316846001600160a01b03166318160ddd6040518163ffffffff1660e01b815260040160206040518083038186803b15801561249c57600080fd5b505afa1580156124b0573d6000803e3d6000fd5b505050506040513d601f19601f820116820180604052508101906124d49190612e3a565b6040516001600160e01b031960e085901b1681526001600160a01b0390921660048301526024820152604401602060405180830381600087803b15801561251a57600080fd5b505af115801561252e573d6000803e3d6000fd5b505050506040513d601f19601f820116820180604052508101906125529190612d28565b506001546040805163369f189f60e11b815281516001600160a01b0390931692636d3e313e92600480840193919291829003018186803b15801561259557600080fd5b505afa1580156125a9573d6000803e3d6000fd5b505050506040513d601f19601f820116820180604052508101906125cd9190612c96565b611f6a9060029081612bb8565b6000826020015160038111156125f2576125f2613032565b835160008281526009602052604090205491925061260f91612fde565b600082815260096020908152604090912091909155830151600381111561263857612638613032565b83516040516001600160801b038516907f2f2b9ec00f96da9afe52a06f4a0392b84a333e3718b29186681f51ddfe7c593b90600090a46001600160801b03808316600081815260086020526040812090815560010180546001600160d01b031916905560045490911614156126f45760048054600191906000906126c69084906001600160801b0316612f73565b92506101000a8154816001600160801b0302191690836001600160801b031602179055506126f46000612922565b6004546001600160801b03838116600160801b9092041614801561272457506004546001600160801b0390811614155b1561277c576001600460108282829054906101000a90046001600160801b031661274e9190612fb6565b92506101000a8154816001600160801b0302191690836001600160801b0316021790555061277c6001612922565b60028360200151600381111561279457612794613032565b14806127b557506000836020015160038111156127b3576127b3613032565b145b15612827576001548351604051632c0bf86360e11b815233600482015260248101919091526001600160a01b0390911690635817f0c6906044015b600060405180830381600087803b15801561280a57600080fd5b505af115801561281e573d6000803e3d6000fd5b50505050505050565b60038360200151600381111561283f5761283f613032565b141561287b5760015483516040516375c66e2f60e01b81526001600160a01b03909216916375c66e2f916127f091600091903390600401612e9b565b60018360200151600381111561289357612893613032565b14156128cd576001805484516040516375c66e2f60e01b81526001600160a01b03909216926375c66e2f926127f092903390600401612e9b565b505050565b600080546001600160a01b038381166001600160a01b0319831681178455604051919092169283917f8be0079c531659141344cd1fd0a4f28419497f9722a3daafe3b4186f6b6457e09190a35050565b600081600181111561293657612936613032565b1415612a71576004546001600160801b03165b6004546001600160801b03600160801b909104811690821611612a17576001600160801b0381166000908152600860209081526040808320815160808101909252805482526001810154919290919083019060ff1660038111156129af576129af613032565b60038111156129c0576129c0613032565b81526001919091015464ffffffffff61010082041660208301526001600160a01b03600160301b9091048116604090920191909152606082015191925016612a1557612a0d600183612f73565b915050612949565b505b6004546001600160801b03600160801b90910481169082161115612a5357600480546001600160801b0319166001600160801b03179055612a6f565b600480546001600160801b0319166001600160801b0383161790555b505b6001816001811115612a8557612a85613032565b14156120e657600454600160801b90046001600160801b03165b6004546001600160801b0390811690821610612b66576001600160801b0381166000908152600860209081526040808320815160808101909252805482526001810154919290919083019060ff166003811115612afe57612afe613032565b6003811115612b0f57612b0f613032565b81526001919091015464ffffffffff61010082041660208301526001600160a01b03600160301b9091048116604090920191909152606082015191925016612b6457612b5c600183612fb6565b915050612a9f565b505b6004546001600160801b039081169082161015612b9a57600480546001600160801b0319166001600160801b031790555050565b600480546001600160801b03808416600160801b0291161790555050565b8260028101928215612c00579160200282015b82811115612c0057825182546001600160a01b0319166001600160a01b03909116178255602090920191600190910190612bcb565b50612c0c929150612c10565b5090565b5b80821115612c0c5760008155600101612c11565b803560048110612c3457600080fd5b919050565b600060208284031215612c4b57600080fd5b8135612c568161305e565b9392505050565b60008060408385031215612c7057600080fd5b8235612c7b8161305e565b91506020830135612c8b8161305e565b809150509250929050565b600060408284031215612ca857600080fd5b82601f830112612cb757600080fd5b6040516040810181811067ffffffffffffffff82111715612cda57612cda613048565b8060405250808385604086011115612cf157600080fd5b60005b6002811015612d1d578151612d088161305e565b83526020928301929190910190600101612cf4565b509195945050505050565b600060208284031215612d3a57600080fd5b81518015158114612c5657600080fd5b60008060408385031215612d5d57600080fd5b612d6683612c25565b946020939093013593505050565b600060808284031215612d8657600080fd5b6040516080810181811067ffffffffffffffff82111715612da957612da9613048565b60405282358152612dbc60208401612c25565b6020820152604083013564ffffffffff81168114612dd957600080fd5b60408201526060830135612dec8161305e565b60608201529392505050565b600060208284031215612e0a57600080fd5b81356001600160801b0381168114612c5657600080fd5b600060208284031215612e3357600080fd5b5035919050565b600060208284031215612e4c57600080fd5b5051919050565b600060208284031215612e6557600080fd5b815163ffffffff81168114612c5657600080fd5b60048110612e9757634e487b7160e01b600052602160045260246000fd5b9052565b92835260208301919091526001600160a01b0316604082015260600190565b60208082526018908201527f416d6f756e74206c657373207468616e206d696e696d756d0000000000000000604082015260600190565b815181526020808301516080830191612f0c90840182612e79565b5060408381015164ffffffffff16908301526060928301516001600160a01b0316929091019190915290565b84815260808101612f4c6020830186612e79565b64ffffffffff9390931660408201526001600160a01b039190911660609091015292915050565b60006001600160801b03808316818516808303821115612f9557612f9561301c565b01949350505050565b60008219821115612fb157612fb161301c565b500190565b60006001600160801b0383811690831681811015612fd657612fd661301c565b039392505050565b600082821015612ff057612ff061301c565b500390565b60006001600160801b03808316818114156130125761301261301c565b6001019392505050565b634e487b7160e01b600052601160045260246000fd5b634e487b7160e01b600052602160045260246000fd5b634e487b7160e01b600052604160045260246000fd5b6001600160a01b03811681146120e657600080fdfea264697066735822122012f402f9f81b6e6d8187f9dba10387e5c3c086db80f869be1b996e775caec70664736f6c63430008070033a2646970667358221220220f09e7c70ab6ed37a423379a28c5708449ecd52733c87ce08abf43107ef8ca64736f6c63430008070033",
  "libraries": {
    "PoolSwapLibrary": "0x16A9d6c7950F973511BFe451cfCf3E346acCc021"
  },
  "devdoc": {
    "kind": "dev",
    "methods": {},
    "title": "The deployer of the PoolCommitter contract",
    "version": 1
  },
  "userdoc": {
    "kind": "user",
    "methods": {},
    "version": 1
  },
  "storageLayout": {
    "storage": [
      {
        "astId": 9136,
        "contract": "contracts/implementation/PoolCommitterDeployer.sol:PoolCommitterDeployer",
        "label": "factory",
        "offset": 0,
        "slot": "0",
        "type": "t_address"
      }
    ],
    "types": {
      "t_address": {
        "encoding": "inplace",
        "label": "address",
        "numberOfBytes": "20"
      }
    }
  }
}