{
  "address": "0xdE728E434578edFcD22a1820bDae35456cf4361D",
  "abi": [
    {
      "inputs": [
        {
          "internalType": "address",
          "name": "_feeReceiver",
          "type": "address"
        }
      ],
      "stateMutability": "nonpayable",
      "type": "constructor"
    },
    {
      "anonymous": false,
      "inputs": [
        {
          "indexed": true,
          "internalType": "address",
          "name": "pool",
          "type": "address"
        },
        {
          "indexed": false,
          "internalType": "string",
          "name": "ticker",
          "type": "string"
        }
      ],
      "name": "DeployPool",
      "type": "event"
    },
    {
      "anonymous": false,
      "inputs": [
        {
          "indexed": true,
          "internalType": "address",
          "name": "previousOwner",
          "type": "address"
        },
        {
          "indexed": true,
          "internalType": "address",
          "name": "newOwner",
          "type": "address"
        }
      ],
      "name": "OwnershipTransferred",
      "type": "event"
    },
    {
      "inputs": [
        {
          "components": [
            {
              "internalType": "string",
              "name": "poolName",
              "type": "string"
            },
            {
              "internalType": "uint32",
              "name": "frontRunningInterval",
              "type": "uint32"
            },
            {
              "internalType": "uint32",
              "name": "updateInterval",
              "type": "uint32"
            },
            {
              "internalType": "uint16",
              "name": "leverageAmount",
              "type": "uint16"
            },
            {
              "internalType": "address",
              "name": "quoteToken",
              "type": "address"
            },
            {
              "internalType": "address",
              "name": "oracleWrapper",
              "type": "address"
            },
            {
              "internalType": "address",
              "name": "settlementEthOracle",
              "type": "address"
            },
            {
              "internalType": "uint128",
              "name": "minimumCommitSize",
              "type": "uint128"
            },
            {
              "internalType": "uint128",
              "name": "maximumCommitQueueLength",
              "type": "uint128"
            }
          ],
          "internalType": "struct IPoolFactory.PoolDeployment",
          "name": "deploymentParameters",
          "type": "tuple"
        }
      ],
      "name": "deployPool",
      "outputs": [
        {
          "internalType": "address",
          "name": "",
          "type": "address"
        }
      ],
      "stateMutability": "nonpayable",
      "type": "function"
    },
    {
      "inputs": [],
      "name": "fee",
      "outputs": [
        {
          "internalType": "bytes16",
          "name": "",
          "type": "bytes16"
        }
      ],
      "stateMutability": "view",
      "type": "function"
    },
    {
      "inputs": [],
      "name": "feeReceiver",
      "outputs": [
        {
          "internalType": "address",
          "name": "",
          "type": "address"
        }
      ],
      "stateMutability": "view",
      "type": "function"
    },
    {
      "inputs": [],
      "name": "getOwner",
      "outputs": [
        {
          "internalType": "address",
          "name": "",
          "type": "address"
        }
      ],
      "stateMutability": "view",
      "type": "function"
    },
    {
      "inputs": [
        {
          "internalType": "address",
          "name": "",
          "type": "address"
        }
      ],
      "name": "isValidPool",
      "outputs": [
        {
          "internalType": "bool",
          "name": "",
          "type": "bool"
        }
      ],
      "stateMutability": "view",
      "type": "function"
    },
    {
      "inputs": [],
      "name": "maxLeverage",
      "outputs": [
        {
          "internalType": "uint16",
          "name": "",
          "type": "uint16"
        }
      ],
      "stateMutability": "view",
      "type": "function"
    },
    {
      "inputs": [],
      "name": "numPools",
      "outputs": [
        {
          "internalType": "uint256",
          "name": "",
          "type": "uint256"
        }
      ],
      "stateMutability": "view",
      "type": "function"
    },
    {
      "inputs": [],
      "name": "owner",
      "outputs": [
        {
          "internalType": "address",
          "name": "",
          "type": "address"
        }
      ],
      "stateMutability": "view",
      "type": "function"
    },
    {
      "inputs": [],
      "name": "pairTokenBase",
      "outputs": [
        {
          "internalType": "contract PoolToken",
          "name": "",
          "type": "address"
        }
      ],
      "stateMutability": "view",
      "type": "function"
    },
    {
      "inputs": [],
      "name": "pairTokenBaseAddress",
      "outputs": [
        {
          "internalType": "address",
          "name": "",
          "type": "address"
        }
      ],
      "stateMutability": "view",
      "type": "function"
    },
    {
      "inputs": [],
      "name": "poolBase",
      "outputs": [
        {
          "internalType": "contract LeveragedPool",
          "name": "",
          "type": "address"
        }
      ],
      "stateMutability": "view",
      "type": "function"
    },
    {
      "inputs": [],
      "name": "poolBaseAddress",
      "outputs": [
        {
          "internalType": "address",
          "name": "",
          "type": "address"
        }
      ],
      "stateMutability": "view",
      "type": "function"
    },
    {
      "inputs": [],
      "name": "poolCommitterDeployer",
      "outputs": [
        {
          "internalType": "contract IPoolCommitterDeployer",
          "name": "",
          "type": "address"
        }
      ],
      "stateMutability": "view",
      "type": "function"
    },
    {
      "inputs": [],
      "name": "poolKeeper",
      "outputs": [
        {
          "internalType": "contract IPoolKeeper",
          "name": "",
          "type": "address"
        }
      ],
      "stateMutability": "view",
      "type": "function"
    },
    {
      "inputs": [
        {
          "internalType": "uint256",
          "name": "",
          "type": "uint256"
        }
      ],
      "name": "pools",
      "outputs": [
        {
          "internalType": "address",
          "name": "",
          "type": "address"
        }
      ],
      "stateMutability": "view",
      "type": "function"
    },
    {
      "inputs": [],
      "name": "renounceOwnership",
      "outputs": [],
      "stateMutability": "nonpayable",
      "type": "function"
    },
    {
      "inputs": [
        {
          "internalType": "bytes16",
          "name": "_fee",
          "type": "bytes16"
        }
      ],
      "name": "setFee",
      "outputs": [],
      "stateMutability": "nonpayable",
      "type": "function"
    },
    {
      "inputs": [
        {
          "internalType": "address",
          "name": "_feeReceiver",
          "type": "address"
        }
      ],
      "name": "setFeeReceiver",
      "outputs": [],
      "stateMutability": "nonpayable",
      "type": "function"
    },
    {
      "inputs": [
        {
          "internalType": "uint16",
          "name": "newMaxLeverage",
          "type": "uint16"
        }
      ],
      "name": "setMaxLeverage",
      "outputs": [],
      "stateMutability": "nonpayable",
      "type": "function"
    },
    {
      "inputs": [
        {
          "internalType": "address",
          "name": "_poolCommitterDeployer",
          "type": "address"
        }
      ],
      "name": "setPoolCommitterDeployer",
      "outputs": [],
      "stateMutability": "nonpayable",
      "type": "function"
    },
    {
      "inputs": [
        {
          "internalType": "address",
          "name": "_poolKeeper",
          "type": "address"
        }
      ],
      "name": "setPoolKeeper",
      "outputs": [],
      "stateMutability": "nonpayable",
      "type": "function"
    },
    {
      "inputs": [
        {
          "internalType": "address",
          "name": "newOwner",
          "type": "address"
        }
      ],
      "name": "transferOwnership",
      "outputs": [],
      "stateMutability": "nonpayable",
      "type": "function"
    }
  ],
  "transactionHash": "0xe1d3ab9e88b3a77e3744e6f26a94ffc42c71f382ce8b7207dcf01da4f04a08b7",
  "args": [
    "0x2C39193Bc5Bc25865B92780B475590A0ce55aC92"
  ],
  "solcInputHash": "064a46e8a39a75e0d8a373ad538a65bf",
  "bytecode": "0x60c06040526004805461ffff60a01b1916600560a11b1790553480156200002557600080fd5b5060405162005a3d38038062005a3d83398101604081905262000048916200031e565b6200005333620002b2565b604051620000619062000302565b604051809103906000f0801580156200007e573d6000803e3d6000fd5b50600180546001600160a01b0319166001600160a01b03831617905560601b6001600160601b031916608052604051620000b89062000310565b604051809103906000f080158015620000d5573d6000803e3d6000fd5b50600280546001600160a01b0319166001600160a01b038316908117909155606091821b6001600160601b03191660a0908152604080516101c0810182523080825260208083018290528284018290529582018190526080820181905292810183905260c08101839052815180830183526009815268109054d157d413d3d360ba1b9581019590955260e0810194909452600f610100850152601e6101208501526000610140850152600161016085015261018084018290526101a084019190915251637d586eb560e11b815263fab0dd6a90620001b8908490600401620003a0565b600060405180830381600087803b158015620001d357600080fd5b505af1158015620001e8573d6000803e3d6000fd5b5050600154604051639065714760e01b81523060048083019190915260606024830152600a6064830152692120a9a2afaa27a5a2a760b11b608483015260a0604483015260a4820152634241534560e01b60c48201526001600160a01b0390911692506390657147915060e401600060405180830381600087803b1580156200027057600080fd5b505af115801562000285573d6000803e3d6000fd5b5050600580546001600160a01b0319166001600160a01b0395909516949094179093555062000504915050565b600080546001600160a01b038381166001600160a01b0319831681178455604051919092169283917f8be0079c531659141344cd1fd0a4f28419497f9722a3daafe3b4186f6b6457e09190a35050565b61118c8062001c0283390190565b612caf8062002d8e83390190565b6000602082840312156200033157600080fd5b81516001600160a01b03811681146200034957600080fd5b9392505050565b6000815180845260005b8181101562000378576020818501810151868301820152016200035a565b818111156200038b576000602083870101525b50601f01601f19169290920160200192915050565b60208152620003bb6020820183516001600160a01b03169052565b60006020830151620003d860408401826001600160a01b03169052565b5060408301516001600160a01b03811660608401525060608301516001600160a01b03811660808401525060808301516001600160a01b03811660a08401525060a08301516001600160a01b03811660c08401525060c08301516001600160a01b03811660e08401525060e08301516101c06101008181860152620004626101e086018462000350565b908601519092506101206200047e8682018363ffffffff169052565b8601519050610140620004988682018363ffffffff169052565b8601519050610160620004b6868201836001600160801b0319169052565b8601519050610180620004ce8682018361ffff169052565b86015190506101a0620004eb868201836001600160a01b03169052565b909501516001600160a01b031693019290925250919050565b60805160601c60a05160601c6116c46200053e6000396000818161032a015261074b0152600081816101ce0152610fcf01526116c46000f3fe608060405234801561001057600080fd5b50600436106101425760003560e01c806379b471cf116100b8578063b3f006741161007c578063b3f00674146102d9578063d723c68b146102ec578063ddca3f43146102ff578063ed3f7e2614610325578063efdcd9741461034c578063f2fde38b1461035f57600080fd5b806379b471cf14610264578063893d20e8146102775780638da5cb5b14610277578063ac4afa3814610288578063ae3302c2146102b157600080fd5b80634690092c1161010a5780634690092c146101c9578063568212f6146101f05780635ab78ee1146102035780635bae377a1461023657806367e0475614610249578063715018a61461025c57600080fd5b80630679d36214610147578063178f9e351461015c57806335c62bc21461018c57806340339cbf146101a3578063430ed6eb146101b6575b600080fd5b61015a610155366004611181565b610372565b005b60035461016f906001600160a01b031681565b6040516001600160a01b0390911681526020015b60405180910390f35b61019560085481565b604051908152602001610183565b61016f6101b136600461111c565b610425565b61015a6101c43660046110b1565b610b99565b61016f7f000000000000000000000000000000000000000000000000000000000000000081565b61015a6101fe3660046110b1565b610c0b565b6102266102113660046110b1565b60096020526000908152604090205460ff1681565b6040519015158152602001610183565b60025461016f906001600160a01b031681565b60045461016f906001600160a01b031681565b61015a610c7d565b61015a6102723660046110f2565b610cb3565b6000546001600160a01b031661016f565b61016f6102963660046111a5565b6007602052600090815260409020546001600160a01b031681565b6004546102c690600160a01b900461ffff1681565b60405161ffff9091168152602001610183565b60055461016f906001600160a01b031681565b60015461016f906001600160a01b031681565b60065461030c9060801b81565b6040516001600160801b03199091168152602001610183565b61016f7f000000000000000000000000000000000000000000000000000000000000000081565b61015a61035a3660046110b1565b610cf9565b61015a61036d3660046110b1565b610d6b565b6000546001600160a01b031633146103a55760405162461bcd60e51b815260040161039c90611349565b60405180910390fd5b60008161ffff16116104035760405162461bcd60e51b815260206004820152602160248201527f4d6178696d756d206c65766572616765206d757374206265206e6f6e2d7a65726044820152606f60f81b606482015260840161039c565b6004805461ffff909216600160a01b0261ffff60a01b19909216919091179055565b600080546001600160a01b031633146104805760405162461bcd60e51b815260206004820152601960248201527f6d73672e73656e646572206e6f7420676f7665726e616e636500000000000000604482015260640161039c565b6003546001600160a01b0316806104ce5760405162461bcd60e51b8152602060048201526012602482015271141bdbdb12d9595c195c881b9bdd081cd95d60721b604482015260640161039c565b6004546001600160a01b03166105265760405162461bcd60e51b815260206004820152601d60248201527f506f6f6c436f6d6d69747465724465706c6f796572206e6f7420736574000000604482015260640161039c565b6004546000906001600160a01b0316639604198361054b610100870160e08801611158565b61055d61012088016101008901611158565b6040516001600160e01b031960e085901b1681526001600160801b03928316600482015291166024820152604401602060405180830381600087803b1580156105a557600080fd5b505af11580156105b9573d6000803e3d6000fd5b505050506040513d601f19601f820116820180604052508101906105dd91906110d5565b905060016105f16080860160608701611181565b61ffff16101580156106235750600454600160a01b900461ffff1661061c6080860160608701611181565b61ffff1611155b61067b5760405162461bcd60e51b8152602060048201526024808201527f506f6f6c4b65657065723a206c657665726167656420616d6f756e7420696e76604482015263185b1a5960e21b606482015260840161039c565b601261068d60a08601608087016110b1565b6001600160a01b031663313ce5676040518163ffffffff1660e01b815260040160206040518083038186803b1580156106c557600080fd5b505afa1580156106d9573d6000803e3d6000fd5b505050506040513d601f19601f820116820180604052508101906106fd91906111e4565b60ff1611156107445760405162461bcd60e51b81526020600482015260136024820152720a8ded6cadc40c8cac6d2dac2d8e6407c40627606b1b604482015260640161039c565b600061076f7f0000000000000000000000000000000000000000000000000000000000000000610e06565b9050806001600160a01b0381167fd76cdb035f3aba359cb02087e4c5bd75f911562b407fc3a52ed2bedfb46585b66107a78880611509565b6040516107b592919061131a565b60405180910390a260006107db6107d26080890160608a01611181565b61ffff16610e9e565b90506000816107ea8980611509565b6040516020016107fc93929190611233565b60408051601f19818403018152919052905060008261081b8a80611509565b60405160200161082d9392919061126b565b6040516020818303038152906040529050600061084b858384610fc7565b9050600061085a868586610fc7565b90506000604051806101c0016040528061087c6000546001600160a01b031690565b6001600160a01b031681526020018b6001600160a01b031681526020018d60a00160208101906108ac91906110b1565b6001600160a01b031681526020018d60c00160208101906108cd91906110b1565b6001600160a01b039081168252848116602083015285811660408301528b166060820152608001876108ff8f80611509565b604051602001610911939291906112a3565b60405160208183030381529060405281526020018d602001602081019061093891906111be565b63ffffffff1681526020018d604001602081019061095691906111be565b63ffffffff168152602001600660009054906101000a900460801b6001600160801b03191681526020018d60600160208101906109939190611181565b61ffff168152602001600560009054906101000a90046001600160a01b03166001600160a01b031681526020018d60800160208101906109d391906110b1565b6001600160a01b03168152509050876001600160a01b031663fab0dd6a826040518263ffffffff1660e01b8152600401610a0d91906113ae565b600060405180830381600087803b158015610a2757600080fd5b505af1158015610a3b573d6000803e3d6000fd5b50505050886001600160a01b031663fd555fb98d6080016020810190610a6191906110b1565b6040516001600160e01b031960e084901b1681526001600160a01b039182166004820152908a166024820152604401600060405180830381600087803b158015610aaa57600080fd5b505af1158015610abe573d6000803e3d6000fd5b5050600354604051633c5c7fb360e01b81526001600160a01b038b811660048301529091169250633c5c7fb39150602401600060405180830381600087803b158015610b0957600080fd5b505af1158015610b1d573d6000803e3d6000fd5b505060088054600090815260076020526040812080546001600160a01b0319166001600160a01b038d1617905581546001945091925090610b5f908490611557565b9091555050506001600160a01b0386166000908152600960205260409020805460ff1916600117905550939750505050505050505b919050565b6000546001600160a01b03163314610bc35760405162461bcd60e51b815260040161039c90611349565b6001600160a01b038116610be95760405162461bcd60e51b815260040161039c9061137e565b600380546001600160a01b0319166001600160a01b0392909216919091179055565b6000546001600160a01b03163314610c355760405162461bcd60e51b815260040161039c90611349565b6001600160a01b038116610c5b5760405162461bcd60e51b815260040161039c9061137e565b600480546001600160a01b0319166001600160a01b0392909216919091179055565b6000546001600160a01b03163314610ca75760405162461bcd60e51b815260040161039c90611349565b610cb16000611061565b565b6000546001600160a01b03163314610cdd5760405162461bcd60e51b815260040161039c90611349565b600680546001600160801b03191660809290921c919091179055565b6000546001600160a01b03163314610d235760405162461bcd60e51b815260040161039c90611349565b6001600160a01b038116610d495760405162461bcd60e51b815260040161039c9061137e565b600580546001600160a01b0319166001600160a01b0392909216919091179055565b6000546001600160a01b03163314610d955760405162461bcd60e51b815260040161039c90611349565b6001600160a01b038116610dfa5760405162461bcd60e51b815260206004820152602660248201527f4f776e61626c653a206e6577206f776e657220697320746865207a65726f206160448201526564647265737360d01b606482015260840161039c565b610e0381611061565b50565b6000604051733d602d80600a3d3981f3363d3d373d3d3d363d7360601b81528260601b60148201526e5af43d82803e903d91602b57fd5bf360881b60288201526037816000f09150506001600160a01b038116610b945760405162461bcd60e51b8152602060048201526016602482015275115490cc4c4d8dce8818dc99585d194819985a5b195960521b604482015260640161039c565b606081610ec25750506040805180820190915260018152600360fc1b602082015290565b8160005b8115610eec5780610ed68161161c565b9150610ee59050600a83611594565b9150610ec6565b60008167ffffffffffffffff811115610f0757610f07611663565b6040519080825280601f01601f191660200182016040528015610f31576020820181803683370190505b509050815b8515610fbe57610f476001826115d5565b90506000610f56600a88611594565b610f6190600a6115b6565b610f6b90886115d5565b610f7690603061156f565b905060008160f81b905080848481518110610f9357610f9361164d565b60200101906001600160f81b031916908160001a905350610fb5600a89611594565b97505050610f36565b50949350505050565b600080610ff37f0000000000000000000000000000000000000000000000000000000000000000610e06565b604051639065714760e01b81529091506001600160a01b03821690639065714790611026908890889088906004016112da565b600060405180830381600087803b15801561104057600080fd5b505af1158015611054573d6000803e3d6000fd5b5092979650505050505050565b600080546001600160a01b038381166001600160a01b0319831681178455604051919092169283917f8be0079c531659141344cd1fd0a4f28419497f9722a3daafe3b4186f6b6457e09190a35050565b6000602082840312156110c357600080fd5b81356110ce81611679565b9392505050565b6000602082840312156110e757600080fd5b81516110ce81611679565b60006020828403121561110457600080fd5b81356001600160801b0319811681146110ce57600080fd5b60006020828403121561112e57600080fd5b813567ffffffffffffffff81111561114557600080fd5b820161012081850312156110ce57600080fd5b60006020828403121561116a57600080fd5b81356001600160801b03811681146110ce57600080fd5b60006020828403121561119357600080fd5b813561ffff811681146110ce57600080fd5b6000602082840312156111b757600080fd5b5035919050565b6000602082840312156111d057600080fd5b813563ffffffff811681146110ce57600080fd5b6000602082840312156111f657600080fd5b815160ff811681146110ce57600080fd5b6000815180845261121f8160208601602086016115ec565b601f01601f19169290920160200192915050565b600084516112458184602089016115ec565b614c2d60f01b908301908152838560028301376000930160020192835250909392505050565b6000845161127d8184602089016115ec565b61532d60f01b908301908152838560028301376000930160020192835250909392505050565b600084516112b58184602089016115ec565b602d60f81b908301908152838560018301376000930160010192835250909392505050565b6001600160a01b03841681526060602082018190526000906112fe90830185611207565b82810360408401526113108185611207565b9695505050505050565b60208152816020820152818360408301376000818301604090810191909152601f909201601f19160101919050565b6020808252818101527f4f776e61626c653a2063616c6c6572206973206e6f7420746865206f776e6572604082015260600190565b6020808252601690820152751859191c995cdcc818d85b9b9bdd081899481b9d5b1b60521b604082015260600190565b602081526113c86020820183516001600160a01b03169052565b600060208301516113e460408401826001600160a01b03169052565b5060408301516001600160a01b03811660608401525060608301516001600160a01b03811660808401525060808301516001600160a01b03811660a08401525060a08301516001600160a01b03811660c08401525060c08301516001600160a01b03811660e08401525060e08301516101c0610100818186015261146c6101e0860184611207565b908601519092506101206114878682018363ffffffff169052565b86015190506101406114a08682018363ffffffff169052565b86015190506101606114bd868201836001600160801b0319169052565b86015190506101806114d48682018361ffff169052565b86015190506101a06114f0868201836001600160a01b03169052565b909501516001600160a01b031693019290925250919050565b6000808335601e1984360301811261152057600080fd5b83018035915067ffffffffffffffff82111561153b57600080fd5b60200191503681900382131561155057600080fd5b9250929050565b6000821982111561156a5761156a611637565b500190565b600060ff821660ff84168060ff0382111561158c5761158c611637565b019392505050565b6000826115b157634e487b7160e01b600052601260045260246000fd5b500490565b60008160001904831182151516156115d0576115d0611637565b500290565b6000828210156115e7576115e7611637565b500390565b60005b838110156116075781810151838201526020016115ef565b83811115611616576000848401525b50505050565b600060001982141561163057611630611637565b5060010190565b634e487b7160e01b600052601160045260246000fd5b634e487b7160e01b600052603260045260246000fd5b634e487b7160e01b600052604160045260246000fd5b6001600160a01b0381168114610e0357600080fdfea2646970667358221220916091f21c7984e2ca69ab7cbcc80619c5a0953a2010152a28b456a68628fef964736f6c6343000807003360806040523480156200001157600080fd5b50604080518082018252600a8152692120a9a2afaa27a5a2a760b11b6020808301918252835180850190945260048452634241534560e01b90840152815191929183918391620000649160039162000097565b5080516200007a90600490602084019062000097565b50506005805462ff0000191662120000179055506200017a915050565b828054620000a5906200013d565b90600052602060002090601f016020900481019282620000c9576000855562000114565b82601f10620000e457805160ff191683800117855562000114565b8280016001018555821562000114579182015b8281111562000114578251825591602001919060010190620000f7565b506200012292915062000126565b5090565b5b8082111562000122576000815560010162000127565b600181811c908216806200015257607f821691505b602082108114156200017457634e487b7160e01b600052602260045260246000fd5b50919050565b611002806200018a6000396000f3fe608060405234801561001057600080fd5b50600436106101005760003560e01c80639065714711610097578063a9059cbb11610066578063a9059cbb14610233578063dd62ed3e14610246578063f2fde38b1461027f578063fcd3533c1461029257600080fd5b806390657147146101f057806394bf804d1461020557806395d89b4114610218578063a457c2d71461022057600080fd5b8063313ce567116100d3578063313ce5671461016b578063395093511461018957806370a082311461019c5780638da5cb5b146101c557600080fd5b806306fdde0314610105578063095ea7b31461012357806318160ddd1461014657806323b872dd14610158575b600080fd5b61010d6102a5565b60405161011a9190610eb3565b60405180910390f35b610136610131366004610e66565b610337565b604051901515815260200161011a565b6002545b60405190815260200161011a565b610136610166366004610db6565b61034d565b60055462010000900460ff1660405160ff909116815260200161011a565b610136610197366004610e66565b6103fc565b61014a6101aa366004610d61565b6001600160a01b031660009081526020819052604090205490565b6008546101d8906001600160a01b031681565b6040516001600160a01b03909116815260200161011a565b6102036101fe366004610df2565b610438565b005b610136610213366004610e90565b610542565b61010d610579565b61013661022e366004610e66565b610588565b610136610241366004610e66565b610621565b61014a610254366004610d83565b6001600160a01b03918216600090815260016020908152604080832093909416825291909152205490565b61020361028d366004610d61565b61062e565b6101366102a0366004610e90565b6106d0565b6060600680546102b490610f65565b80601f01602080910402602001604051908101604052809291908181526020018280546102e090610f65565b801561032d5780601f106103025761010080835404028352916020019161032d565b820191906000526020600020905b81548152906001019060200180831161031057829003601f168201915b5050505050905090565b6000610344338484610707565b50600192915050565b600061035a84848461082c565b6001600160a01b0384166000908152600160209081526040808320338452909152902054828110156103e45760405162461bcd60e51b815260206004820152602860248201527f45524332303a207472616e7366657220616d6f756e74206578636565647320616044820152676c6c6f77616e636560c01b60648201526084015b60405180910390fd5b6103f18533858403610707565b506001949350505050565b3360008181526001602090815260408083206001600160a01b03871684529091528120549091610344918590610433908690610f36565b610707565b600554610100900460ff1680610451575060055460ff16155b6104b45760405162461bcd60e51b815260206004820152602e60248201527f496e697469616c697a61626c653a20636f6e747261637420697320616c72656160448201526d191e481a5b9a5d1a585b1a5e995960921b60648201526084016103db565b600554610100900460ff161580156104d6576005805461ffff19166101011790555b600880546001600160a01b0319166001600160a01b0386161790558251610504906006906020860190610c1f565b508151610518906007906020850190610c1f565b506005805462ff0000191662120000179055801561053c576005805461ff00191690555b50505050565b6008546000906001600160a01b0316331461056f5760405162461bcd60e51b81526004016103db90610f08565b61034482846109fa565b6060600780546102b490610f65565b3360009081526001602090815260408083206001600160a01b03861684529091528120548281101561060a5760405162461bcd60e51b815260206004820152602560248201527f45524332303a2064656372656173656420616c6c6f77616e63652062656c6f77604482015264207a65726f60d81b60648201526084016103db565b6106173385858403610707565b5060019392505050565b600061034433848461082c565b6008546001600160a01b031633146106585760405162461bcd60e51b81526004016103db90610f08565b6001600160a01b0381166106ae5760405162461bcd60e51b815260206004820152601b60248201527f4f776e65723a2073657474696e6720746f20302061646472657373000000000060448201526064016103db565b600880546001600160a01b0319166001600160a01b0392909216919091179055565b6008546000906001600160a01b031633146106fd5760405162461bcd60e51b81526004016103db90610f08565b6103448284610ad9565b6001600160a01b0383166107695760405162461bcd60e51b8152602060048201526024808201527f45524332303a20617070726f76652066726f6d20746865207a65726f206164646044820152637265737360e01b60648201526084016103db565b6001600160a01b0382166107ca5760405162461bcd60e51b815260206004820152602260248201527f45524332303a20617070726f766520746f20746865207a65726f206164647265604482015261737360f01b60648201526084016103db565b6001600160a01b0383811660008181526001602090815260408083209487168084529482529182902085905590518481527f8c5be1e5ebec7d5bd14f71427d1e84f3dd0314c0f7b2291e5b200ac8c7c3b92591015b60405180910390a3505050565b6001600160a01b0383166108905760405162461bcd60e51b815260206004820152602560248201527f45524332303a207472616e736665722066726f6d20746865207a65726f206164604482015264647265737360d81b60648201526084016103db565b6001600160a01b0382166108f25760405162461bcd60e51b815260206004820152602360248201527f45524332303a207472616e7366657220746f20746865207a65726f206164647260448201526265737360e81b60648201526084016103db565b6001600160a01b0383166000908152602081905260409020548181101561096a5760405162461bcd60e51b815260206004820152602660248201527f45524332303a207472616e7366657220616d6f756e7420657863656564732062604482015265616c616e636560d01b60648201526084016103db565b6001600160a01b038085166000908152602081905260408082208585039055918516815290812080548492906109a1908490610f36565b92505081905550826001600160a01b0316846001600160a01b03167fddf252ad1be2c89b69c2b068fc378daa952ba7f163c4a11628f55a4df523b3ef846040516109ed91815260200190565b60405180910390a361053c565b6001600160a01b038216610a505760405162461bcd60e51b815260206004820152601f60248201527f45524332303a206d696e7420746f20746865207a65726f20616464726573730060448201526064016103db565b8060026000828254610a629190610f36565b90915550506001600160a01b03821660009081526020819052604081208054839290610a8f908490610f36565b90915550506040518181526001600160a01b038316906000907fddf252ad1be2c89b69c2b068fc378daa952ba7f163c4a11628f55a4df523b3ef9060200160405180910390a35050565b6001600160a01b038216610b395760405162461bcd60e51b815260206004820152602160248201527f45524332303a206275726e2066726f6d20746865207a65726f206164647265736044820152607360f81b60648201526084016103db565b6001600160a01b03821660009081526020819052604090205481811015610bad5760405162461bcd60e51b815260206004820152602260248201527f45524332303a206275726e20616d6f756e7420657863656564732062616c616e604482015261636560f01b60648201526084016103db565b6001600160a01b0383166000908152602081905260408120838303905560028054849290610bdc908490610f4e565b90915550506040518281526000906001600160a01b038516907fddf252ad1be2c89b69c2b068fc378daa952ba7f163c4a11628f55a4df523b3ef9060200161081f565b828054610c2b90610f65565b90600052602060002090601f016020900481019282610c4d5760008555610c93565b82601f10610c6657805160ff1916838001178555610c93565b82800160010185558215610c93579182015b82811115610c93578251825591602001919060010190610c78565b50610c9f929150610ca3565b5090565b5b80821115610c9f5760008155600101610ca4565b80356001600160a01b0381168114610ccf57600080fd5b919050565b600082601f830112610ce557600080fd5b813567ffffffffffffffff80821115610d0057610d00610fb6565b604051601f8301601f19908116603f01168101908282118183101715610d2857610d28610fb6565b81604052838152866020858801011115610d4157600080fd5b836020870160208301376000602085830101528094505050505092915050565b600060208284031215610d7357600080fd5b610d7c82610cb8565b9392505050565b60008060408385031215610d9657600080fd5b610d9f83610cb8565b9150610dad60208401610cb8565b90509250929050565b600080600060608486031215610dcb57600080fd5b610dd484610cb8565b9250610de260208501610cb8565b9150604084013590509250925092565b600080600060608486031215610e0757600080fd5b610e1084610cb8565b9250602084013567ffffffffffffffff80821115610e2d57600080fd5b610e3987838801610cd4565b93506040860135915080821115610e4f57600080fd5b50610e5c86828701610cd4565b9150509250925092565b60008060408385031215610e7957600080fd5b610e8283610cb8565b946020939093013593505050565b60008060408385031215610ea357600080fd5b82359150610dad60208401610cb8565b600060208083528351808285015260005b81811015610ee057858101830151858201604001528201610ec4565b81811115610ef2576000604083870101525b50601f01601f1916929092016040019392505050565b60208082526014908201527336b9b39739b2b73232b9103737ba1037bbb732b960611b604082015260600190565b60008219821115610f4957610f49610fa0565b500190565b600082821015610f6057610f60610fa0565b500390565b600181811c90821680610f7957607f821691505b60208210811415610f9a57634e487b7160e01b600052602260045260246000fd5b50919050565b634e487b7160e01b600052601160045260246000fd5b634e487b7160e01b600052604160045260246000fdfea264697066735822122079d9ee578d645bd578f278864fb64074dfd918b94fed5848139382c6ddad6ccc64736f6c63430008070033608060405234801561001057600080fd5b50612c8f806100206000396000f3fe608060405234801561001057600080fd5b506004361061023d5760003560e01c80637bfe789a1161013b578063ba8d5468116100b8578063f164e2a71161007c578063f164e2a7146104df578063f3466dfa146104f3578063f633a74014610508578063fab0dd6a1461051b578063fd2c80ae1461052e57600080fd5b8063ba8d546814610489578063bbcaac3814610492578063cd39f30f146104a5578063d38bfff4146104b8578063ddca3f43146104cb57600080fd5b806387f9ca5d116100ff57806387f9ca5d146104175780639fd552451461042a578063ab47c2b31461043d578063aced166114610463578063b9ed8abf1461047657600080fd5b80637bfe789a146103c55780637de93f93146103ea5780637e71fc7d146103f35780638226f396146103fc5780638456cb591461040f57600080fd5b80635c975abb116101c957806375c66e2f1161018d57806375c66e2f14610366578063796da7af146103795780637b0a0c901461038f5780637bb98a68146103a25780637bbf1033146103bd57600080fd5b80635c975abb146102ff5780635d36b190146103235780636d3e313e1461032b5780636dc2b27114610340578063748747e61461035357600080fd5b80633f4ba83a116102105780633f4ba83a146102ab57806341275358146102b35780634f64b2be146102c65780635817f0c6146102d95780635aa6e675146102ec57600080fd5b806304883c2714610242578063217a4b70146102635780633c3f82521461028e5780633d4c485d146102a3575b600080fd5b61024a610546565b60405161025a9493929190612a1d565b60405180910390f35b600a54610276906001600160a01b031681565b6040516001600160a01b03909116815260200161025a565b6102a161029c3660046127f0565b6105f9565b005b6102a1610661565b6102a1610771565b600954610276906001600160a01b031681565b6102766102d4366004612895565b6107d3565b6102a16102e7366004612698565b6107f3565b600754610276906001600160a01b031681565b60105461031390600160a81b900460ff1681565b604051901515815260200161025a565b6102a16108b4565b6103336109f2565b60405161025a91906129e3565b61031361034e366004612698565b610a36565b6102a1610361366004612641565b610c00565b6102a16103743660046128d2565b610d07565b610381610ee7565b60405190815260200161025a565b6102a161039d36600461265c565b610f69565b6001546002546040805192835260208301919091520161025a565b610313611081565b6003546103d59063ffffffff1681565b60405163ffffffff909116815260200161025a565b610381600c5481565b61038160025481565b600f54610276906001600160a01b031681565b6102a16110ab565b6102a16104253660046128d2565b611113565b601054610276906001600160a01b031681565b60045461044a9060801b81565b6040516001600160801b0319909116815260200161025a565b600854610276906001600160a01b031681565b600e54610276906001600160a01b031681565b61038160015481565b6102a16104a0366004612641565b6112ee565b600b54610276906001600160a01b031681565b6102a16104c6366004612641565b6113ea565b60035461044a90600160401b900460801b81565b60105461031390600160a01b900460ff1681565b6104fb6114f9565b60405161025a9190612a49565b6102a16105163660046127f0565b611587565b6102a1610529366004612835565b6116d1565b6003546103d590640100000000900463ffffffff1681565b60006060600080600e60009054906101000a90046001600160a01b03166001600160a01b031663db6d8fcf6040518163ffffffff1660e01b815260040160006040518083038186803b15801561059b57600080fd5b505afa1580156105af573d6000803e3d6000fd5b505050506040513d6000823e601f3d908101601f191682016040526105d79190810190612737565b600c546003549297919650945064010000000090910463ffffffff1692509050565b600b546001600160a01b0316331461062c5760405162461bcd60e51b815260040161062390612a84565b60405180910390fd5b601054600160a81b900460ff16156106565760405162461bcd60e51b815260040161062390612a5c565b600291909155600155565b6007546001600160a01b0316331461068b5760405162461bcd60e51b815260040161062390612abb565b601054600160a81b900460ff166106d35760405162461bcd60e51b815260206004820152600c60248201526b506f6f6c206973206c69766560a01b6044820152606401610623565b600a546040516370a0823160e01b81523060048201526001600160a01b039091169060009082906370a082319060240160206040518083038186803b15801561071b57600080fd5b505afa15801561072f573d6000803e3d6000fd5b505050506040513d601f19601f82011682018060405250810190610753919061271e565b600a5490915061076d906001600160a01b03163383612082565b5050565b6007546001600160a01b0316331461079b5760405162461bcd60e51b815260040161062390612abb565b6010805460ff60a81b191690556040517fa45f47fdea8a1efdd9029a5691c7f759c32b7c698632b563573e155625d1693390600090a1565b600581600281106107e357600080fd5b01546001600160a01b0316905081565b600b546001600160a01b0316331461081d5760405162461bcd60e51b815260040161062390612a84565b601054600160a81b900460ff16156108475760405162461bcd60e51b815260040161062390612a5c565b6001600160a01b03821661089d5760405162461bcd60e51b815260206004820152601e60248201527f546f20616464726573732063616e6e6f742062652030206164647265737300006044820152606401610623565b600a5461076d906001600160a01b03168383612082565b601054600160a81b900460ff16156108de5760405162461bcd60e51b815260040161062390612a5c565b601054600160a01b900460ff166109375760405162461bcd60e51b815260206004820152601b60248201527f4e6f20676f7665726e616e6365206368616e67652061637469766500000000006044820152606401610623565b6010546001600160a01b031633146109915760405162461bcd60e51b815260206004820152601860248201527f4e6f742070726f766973696f6e616c20676f7665726e6f7200000000000000006044820152606401610623565b60078054601080546001600160a01b038082166001600160a01b03198516811790955560ff60a01b199091169091556040519116919082907f023588d3d1dcaad34e471c9e01b616b794156174bc693539c8fe15c0bfd5d82690600090a350565b6109fa61256e565b60408051808201918290529060059060029082845b81546001600160a01b03168152600190910190602001808311610a0f575050505050905090565b6008546000906001600160a01b03163314610a8b5760405162461bcd60e51b815260206004820152601560248201527436b9b39739b2b73232b9103737ba1035b2b2b832b960591b6044820152606401610623565b601054600160a81b900460ff1615610ab55760405162461bcd60e51b815260040161062390612a5c565b6001600160a01b038316610b155760405162461bcd60e51b815260206004820152602160248201527f52656365697069656e7420616464726573732063616e6e6f74206265206e756c6044820152601b60fa1b6064820152608401610623565b600154600254610b258183612b40565b8410610b3657600092505050610bfa565b60405163dc35bc1360e01b815260048101859052602481018390526044810182905260009081907316A9d6c7950F973511BFe451cfCf3E346acCc0219063dc35bc1390606401604080518083038186803b158015610b9357600080fd5b505af4158015610ba7573d6000803e3d6000fd5b505050506040513d601f19601f82011682018060405250810190610bcb91906128ae565b60018290556002819055600a549193509150610bf1906001600160a01b03168888612082565b60019450505050505b92915050565b6007546001600160a01b03163314610c2a5760405162461bcd60e51b815260040161062390612abb565b601054600160a81b900460ff1615610c545760405162461bcd60e51b815260040161062390612a5c565b6001600160a01b038116610cb55760405162461bcd60e51b815260206004820152602260248201527f4b656570657220616464726573732063616e6e6f742062652030206164647265604482015261737360f01b6064820152608401610623565b600880546001600160a01b038381166001600160a01b0319831681179093556040519116919082907f402b3f9a8de3e388e7653c7a5892204fe18b579c8c23db19d6e00f1043ceb92190600090a35050565b600b546001600160a01b03163314610d315760405162461bcd60e51b815260040161062390612a84565b601054600160a81b900460ff1615610d5b5760405162461bcd60e51b815260040161062390612a5c565b6001600160a01b038116610dbc5760405162461bcd60e51b815260206004820152602260248201527f4d696e74657220616464726573732063616e6e6f742062652030206164647265604482015261737360f01b6064820152608401610623565b821580610dc95750826001145b610e105760405162461bcd60e51b8152602060048201526018602482015277506f6f6c3a20746f6b656e206f7574206f662072616e676560401b6044820152606401610623565b60058360028110610e2357610e23612c14565b01546040516394bf804d60e01b8152600481018490526001600160a01b038381166024830152909116906394bf804d90604401602060405180830381600087803b158015610e7057600080fd5b505af1158015610e84573d6000803e3d6000fd5b505050506040513d601f19601f82011682018060405250810190610ea891906126c2565b610ee25760405162461bcd60e51b815260206004820152600b60248201526a135a5b9d0819985a5b195960aa1b6044820152606401610623565b505050565b600e5460408051634c6afee560e11b815290516000926001600160a01b0316916398d5fdca916004808301926020929190829003018186803b158015610f2c57600080fd5b505afa158015610f40573d6000803e3d6000fd5b505050506040513d601f19601f82011682018060405250810190610f64919061271e565b905090565b600b546001600160a01b03163314610f935760405162461bcd60e51b815260040161062390612a84565b601054600160a81b900460ff1615610fbd5760405162461bcd60e51b815260040161062390612a5c565b6001600160a01b0383166110135760405162461bcd60e51b815260206004820181905260248201527f46726f6d20616464726573732063616e6e6f74206265203020616464726573736044820152606401610623565b6001600160a01b0382166110695760405162461bcd60e51b815260206004820152601e60248201527f546f20616464726573732063616e6e6f742062652030206164647265737300006044820152606401610623565b600a54610ee2906001600160a01b03168484846120e5565b600354600c546000916110a39164010000000090910463ffffffff1690612b40565b421015905090565b6007546001600160a01b031633146110d55760405162461bcd60e51b815260040161062390612abb565b6010805460ff60a81b1916600160a81b1790556040517f9e87fac88ff661f02d44f95383c817fece4bce600a3dab7a54406878b965e75290600090a1565b600b546001600160a01b0316331461113d5760405162461bcd60e51b815260040161062390612a84565b601054600160a81b900460ff16156111675760405162461bcd60e51b815260040161062390612a5c565b6001600160a01b0381166111c85760405162461bcd60e51b815260206004820152602260248201527f4275726e657220616464726573732063616e6e6f742062652030206164647265604482015261737360f01b6064820152608401610623565b8215806111d55750826001145b61121c5760405162461bcd60e51b8152602060048201526018602482015277506f6f6c3a20746f6b656e206f7574206f662072616e676560401b6044820152606401610623565b6005836002811061122f5761122f612c14565b0154604051633f34d4cf60e21b8152600481018490526001600160a01b0383811660248301529091169063fcd3533c90604401602060405180830381600087803b15801561127c57600080fd5b505af1158015611290573d6000803e3d6000fd5b505050506040513d601f19601f820116820180604052508101906112b491906126c2565b610ee25760405162461bcd60e51b815260206004820152600b60248201526a109d5c9b8819985a5b195960aa1b6044820152606401610623565b6007546001600160a01b031633146113185760405162461bcd60e51b815260040161062390612abb565b601054600160a81b900460ff16156113425760405162461bcd60e51b815260040161062390612a5c565b6001600160a01b0381166113985760405162461bcd60e51b815260206004820152601b60248201527f4163636f756e742063616e6e6f742062652030206164647265737300000000006044820152606401610623565b600980546001600160a01b038381166001600160a01b0319831681179093556040519116919082907f11f35a22548bcd4c3788ab4a7e4fba427a2014f02e5d5e2da9af62212c03183f90600090a35050565b6007546001600160a01b031633146114145760405162461bcd60e51b815260040161062390612abb565b601054600160a81b900460ff161561143e5760405162461bcd60e51b815260040161062390612a5c565b6001600160a01b0381166114a35760405162461bcd60e51b815260206004820152602660248201527f476f7665726e616e636520616464726573732063616e6e6f742062652030206160448201526564647265737360d01b6064820152608401610623565b601080546001600160a81b0319166001600160a01b0380841691909117600160a01b17918290556040519116907f35681f4f23137fb58510a9854f1b6e95f90a2cf0b66d2fce4df74cc0becc82d590600090a250565b600d805461150690612bc3565b80601f016020809104026020016040519081016040528092919081815260200182805461153290612bc3565b801561157f5780601f106115545761010080835404028352916020019161157f565b820191906000526020600020905b81548152906001019060200180831161156257829003601f168201915b505050505081565b6008546001600160a01b031633146115d95760405162461bcd60e51b815260206004820152601560248201527436b9b39739b2b73232b9103737ba1035b2b2b832b960591b6044820152606401610623565b601054600160a81b900460ff16156116035760405162461bcd60e51b815260040161062390612a5c565b61160b611081565b6116575760405162461bcd60e51b815260206004820152601d60248201527f55706461746520696e74657276616c206861736e2774207061737365640000006044820152606401610623565b6116618282612123565b600b60009054906101000a90046001600160a01b03166001600160a01b0316631c536da46040518163ffffffff1660e01b8152600401600060405180830381600087803b1580156116b157600080fd5b505af11580156116c5573d6000803e3d6000fd5b505042600c5550505050565b600054610100900460ff16806116ea575060005460ff16155b61174d5760405162461bcd60e51b815260206004820152602e60248201527f496e697469616c697a61626c653a20636f6e747261637420697320616c72656160448201526d191e481a5b9a5d1a585b1a5e995960921b6064820152608401610623565b600054610100900460ff1615801561176f576000805461ffff19166101011790555b60006117836101a084016101808501612641565b6001600160a01b031614156117da5760405162461bcd60e51b815260206004820152601f60248201527f46656520616464726573732063616e6e6f7420626520302061646472657373006044820152606401610623565b60006117ee6101c084016101a08501612641565b6001600160a01b031614156118455760405162461bcd60e51b815260206004820152601f60248201527f51756f746520746f6b656e2063616e6e6f7420626520302061646472657373006044820152606401610623565b60006118576060840160408501612641565b6001600160a01b031614156118b95760405162461bcd60e51b815260206004820152602260248201527f4f7261636c6520777261707065722063616e6e6f742062652030206164647265604482015261737360f01b6064820152608401610623565b60006118cb6080840160608501612641565b6001600160a01b0316141561192c5760405162461bcd60e51b815260206004820152602160248201527f4b6565706572206f7261636c652063616e6e6f742062652030206164647265736044820152607360f81b6064820152608401610623565b600061193b6020840184612641565b6001600160a01b031614156119925760405162461bcd60e51b815260206004820152601960248201527f4f776e65722063616e6e6f7420626520302061646472657373000000000000006044820152606401610623565b60006119a46040840160208501612641565b6001600160a01b031614156119fb5760405162461bcd60e51b815260206004820152601a60248201527f4b65657065722063616e6e6f74206265203020616464726573730000000000006044820152606401610623565b6000611a0d60a0840160808501612641565b6001600160a01b03161415611a645760405162461bcd60e51b815260206004820152601e60248201527f4c6f6e6720746f6b656e2063616e6e6f742062652030206164647265737300006044820152606401610623565b6000611a7660c0840160a08501612641565b6001600160a01b03161415611acd5760405162461bcd60e51b815260206004820152601f60248201527f53686f727420746f6b656e2063616e6e6f7420626520302061646472657373006044820152606401610623565b6000611adf60e0840160c08501612641565b6001600160a01b03161415611b405760405162461bcd60e51b815260206004820152602160248201527f506f6f6c436f6d6d69747465722063616e6e6f742062652030206164647265736044820152607360f81b6064820152608401610623565b611b5261014083016101208401612935565b63ffffffff16611b6a61012084016101008501612935565b63ffffffff1610611bbd5760405162461bcd60e51b815260206004820152601d60248201527f66726f6e7452756e6e696e67203e20757064617465496e74657276616c0000006044820152606401610623565b7316A9d6c7950F973511BFe451cfCf3E346acCc021631842c9d8611be9610160850161014086016126e4565b60405160e083901b6001600160e01b03191681526001600160801b03199091166004820152613fff60f01b602482015260440160206040518083038186803b158015611c3457600080fd5b505af4158015611c48573d6000803e3d6000fd5b505050506040513d601f19601f82011682018060405250810190611c6c9190612812565b60000b60001914611cad5760405162461bcd60e51b815260206004820152600b60248201526a466565203e3d203130302560a81b6044820152606401610623565b611cba6020830183612641565b600780546001600160a01b0319166001600160a01b0392909216919091179055611cea6040830160208401612641565b600880546001600160a01b0319166001600160a01b0392909216919091179055611d1a6060830160408401612641565b600e80546001600160a01b0319166001600160a01b0392909216919091179055611d4a6080830160608401612641565b600f80546001600160a01b0319166001600160a01b0392909216919091179055611d7c6101c083016101a08401612641565b600a80546001600160a01b0319166001600160a01b0392909216919091179055611dae61012083016101008401612935565b6003805463ffffffff191663ffffffff92909216919091179055611dda61014083016101208401612935565b6003805463ffffffff929092166401000000000267ffffffff0000000019909216919091179055611e13610160830161014084016126e4565b6003805460809290921c600160401b0277ffffffffffffffffffffffffffffffff0000000000000000199092169190911790557316A9d6c7950F973511BFe451cfCf3E346acCc02163dfdbe4da611e7261018085016101608601612871565b6040516001600160e01b031960e084901b16815261ffff909116600482015260240160206040518083038186803b158015611eac57600080fd5b505af4158015611ec0573d6000803e3d6000fd5b505050506040513d601f19601f82011682018060405250810190611ee49190612701565b600480546001600160801b03191660809290921c919091179055611f106101a083016101808401612641565b600980546001600160a01b0319166001600160a01b039290921691909117905542600c55611f4160e0830183612af2565b611f4d91600d9161258c565b50611f5e60a0830160808401612641565b600560000180546001600160a01b0319166001600160a01b0392909216919091179055611f9160c0830160a08401612641565b600560010180546001600160a01b0319166001600160a01b0392909216919091179055611fc460e0830160c08401612641565b600b80546001600160a01b0319166001600160a01b0392909216919091179055611ff460c0830160a08401612641565b6001600160a01b031661200d60a0840160808501612641565b6001600160a01b03167fbc8bd61e5dd69ff5cb8c389529c029503515ba368eaafbdaa406e072fdd360726120496101c086016101a08701612641565b61205660e0870187612af2565b604051612065939291906129a3565b60405180910390a3801561076d576000805461ff00191690555050565b6040516001600160a01b038316602482015260448101829052610ee290849063a9059cbb60e01b906064015b60408051601f198184030181529190526020810180516001600160e01b03166001600160e01b031990931692909217909152612322565b6040516001600160a01b038085166024830152831660448201526064810182905261211d9085906323b872dd60e01b906084016120ae565b50505050565b601054600160a81b900460ff161561214d5760405162461bcd60e51b815260040161062390612a5c565b60008213158061215e575060008113155b1561219457604051819083907f27f70c863f1bd3e335bb4d6bf2a31075c861752f0b21a03b816a356035b1dec690600090a35050565b6001546002546040805160c0810182528581526020810185815281830184815260608301868152600480546001600160801b0319608091821b8116828801908152600354600160401b900490921b811660a088019081529751632920706d60e21b815287519381019390935294516024830152925160448201529051606482015290518216608482015292511660a483015290600090819081907316A9d6c7950F973511BFe451cfCf3E346acCc0219063a481c1b49060c40160606040518083038186803b15801561226557600080fd5b505af4158015612279573d6000803e3d6000fd5b505050506040513d601f19601f8201168201806040525081019061229d9190612907565b919450925090507f3a4a53e86baa9b577f931e849a3472fd6be844c0916377bc806be891847a5c2b6122cf8784612b58565b6122d98786612b58565b6040805192835260208301919091520160405180910390a160028390556001829055600954600a54612318916001600160a01b03918216911683612082565b5050505050505050565b6000612377826040518060400160405280602081526020017f5361666545524332303a206c6f772d6c6576656c2063616c6c206661696c6564815250856001600160a01b03166123f49092919063ffffffff16565b805190915015610ee2578080602001905181019061239591906126c2565b610ee25760405162461bcd60e51b815260206004820152602a60248201527f5361666545524332303a204552433230206f7065726174696f6e20646964206e6044820152691bdd081cdd58d8d9595960b21b6064820152608401610623565b6060612403848460008561240d565b90505b9392505050565b60608247101561246e5760405162461bcd60e51b815260206004820152602660248201527f416464726573733a20696e73756666696369656e742062616c616e636520666f6044820152651c8818d85b1b60d21b6064820152608401610623565b843b6124bc5760405162461bcd60e51b815260206004820152601d60248201527f416464726573733a2063616c6c20746f206e6f6e2d636f6e74726163740000006044820152606401610623565b600080866001600160a01b031685876040516124d89190612987565b60006040518083038185875af1925050503d8060008114612515576040519150601f19603f3d011682016040523d82523d6000602084013e61251a565b606091505b509150915061252a828286612535565b979650505050505050565b60608315612544575081612406565b8251156125545782518084602001fd5b8160405162461bcd60e51b81526004016106239190612a49565b60405180604001604052806002906020820280368337509192915050565b82805461259890612bc3565b90600052602060002090601f0160209004810192826125ba5760008555612600565b82601f106125d35782800160ff19823516178555612600565b82800160010185558215612600579182015b828111156126005782358255916020019190600101906125e5565b5061260c929150612610565b5090565b5b8082111561260c5760008155600101612611565b80356001600160a01b038116811461263c57600080fd5b919050565b60006020828403121561265357600080fd5b61240682612625565b60008060006060848603121561267157600080fd5b61267a84612625565b925061268860208501612625565b9150604084013590509250925092565b600080604083850312156126ab57600080fd5b6126b483612625565b946020939093013593505050565b6000602082840312156126d457600080fd5b8151801515811461240657600080fd5b6000602082840312156126f657600080fd5b813561240681612c40565b60006020828403121561271357600080fd5b815161240681612c40565b60006020828403121561273057600080fd5b5051919050565b6000806040838503121561274a57600080fd5b82519150602083015167ffffffffffffffff8082111561276957600080fd5b818501915085601f83011261277d57600080fd5b81518181111561278f5761278f612c2a565b604051601f8201601f19908116603f011681019083821181831017156127b7576127b7612c2a565b816040528281528860208487010111156127d057600080fd5b6127e1836020830160208801612b97565b80955050505050509250929050565b6000806040838503121561280357600080fd5b50508035926020909101359150565b60006020828403121561282457600080fd5b81518060000b811461240657600080fd5b60006020828403121561284757600080fd5b813567ffffffffffffffff81111561285e57600080fd5b82016101c0818503121561240657600080fd5b60006020828403121561288357600080fd5b813561ffff8116811461240657600080fd5b6000602082840312156128a757600080fd5b5035919050565b600080604083850312156128c157600080fd5b505080516020909101519092909150565b6000806000606084860312156128e757600080fd5b83359250602084013591506128fe60408501612625565b90509250925092565b60008060006060848603121561291c57600080fd5b8351925060208401519150604084015190509250925092565b60006020828403121561294757600080fd5b813563ffffffff8116811461240657600080fd5b60008151808452612973816020860160208601612b97565b601f01601f19169290920160200192915050565b60008251612999818460208701612b97565b9190910192915050565b6001600160a01b03841681526040602082018190528101829052818360608301376000818301606090810191909152601f909201601f1916010192915050565b60408101818360005b6002811015612a145781516001600160a01b03168352602092830192909101906001016129ec565b50505092915050565b848152608060208201526000612a36608083018661295b565b6040830194909452506060015292915050565b602081526000612406602083018461295b565b6020808252600e908201526d141bdbdb081a5cc81c185d5cd95960921b604082015260600190565b6020808252601c908201527f6d73672e73656e646572206e6f7420706f6f6c436f6d6d697474657200000000604082015260600190565b60208082526019908201527f6d73672e73656e646572206e6f7420676f7665726e616e636500000000000000604082015260600190565b6000808335601e19843603018112612b0957600080fd5b83018035915067ffffffffffffffff821115612b2457600080fd5b602001915036819003821315612b3957600080fd5b9250929050565b60008219821115612b5357612b53612bfe565b500190565b60008083128015600160ff1b850184121615612b7657612b76612bfe565b6001600160ff1b0384018313811615612b9157612b91612bfe565b50500390565b60005b83811015612bb2578181015183820152602001612b9a565b8381111561211d5750506000910152565b600181811c90821680612bd757607f821691505b60208210811415612bf857634e487b7160e01b600052602260045260246000fd5b50919050565b634e487b7160e01b600052601160045260246000fd5b634e487b7160e01b600052603260045260246000fd5b634e487b7160e01b600052604160045260246000fd5b6001600160801b031981168114612c5657600080fd5b5056fea2646970667358221220534ad54a44e5f8eb7b28be3cb5896b6cd1fae605f2e9c87f95cfe36def3060d264736f6c63430008070033",
  "libraries": {
    "PoolSwapLibrary": "0x16A9d6c7950F973511BFe451cfCf3E346acCc021"
  },
  "devdoc": {
    "kind": "dev",
    "methods": {
      "deployPool((string,uint32,uint32,uint16,address,address,address,uint128,uint128))": {
        "params": {
          "deploymentParameters": "Deployment parameters of the market. Some may be reconfigurable"
        },
        "returns": {
          "_0": "Address of the created pool"
        }
      },
      "owner()": {
        "details": "Returns the address of the current owner."
      },
      "renounceOwnership()": {
        "details": "Leaves the contract without owner. It will not be possible to call `onlyOwner` functions anymore. Can only be called by the current owner. NOTE: Renouncing ownership will leave the contract without an owner, thereby removing any functionality that is only available to the owner."
      },
      "transferOwnership(address)": {
        "details": "Transfers ownership of the contract to a new account (`newOwner`). Can only be called by the current owner."
      }
    },
    "title": "The pool factory contract",
    "version": 1
  },
  "userdoc": {
    "events": {
      "DeployPool(address,string)": {
        "notice": "Creates a notification when a pool is deployed"
      }
    },
    "kind": "user",
    "methods": {
      "deployPool((string,uint32,uint32,uint16,address,address,address,uint128,uint128))": {
        "notice": "Deploy a leveraged pool with given parameters"
      },
      "isValidPool(address)": {
        "notice": "Format: Pool address => validity"
      },
      "pools(uint256)": {
        "notice": "Format: Pool counter => pool address"
      }
    },
    "version": 1
  },
  "storageLayout": {
    "storage": [
      {
        "astId": 110,
        "contract": "contracts/implementation/PoolFactory.sol:PoolFactory",
        "label": "_owner",
        "offset": 0,
        "slot": "0",
        "type": "t_address"
      },
      {
        "astId": 9213,
        "contract": "contracts/implementation/PoolFactory.sol:PoolFactory",
        "label": "pairTokenBase",
        "offset": 0,
        "slot": "1",
        "type": "t_contract(PoolToken)11098"
      },
      {
        "astId": 9218,
        "contract": "contracts/implementation/PoolFactory.sol:PoolFactory",
        "label": "poolBase",
        "offset": 0,
        "slot": "2",
        "type": "t_contract(LeveragedPool)7951"
      },
      {
        "astId": 9223,
        "contract": "contracts/implementation/PoolFactory.sol:PoolFactory",
        "label": "poolKeeper",
        "offset": 0,
        "slot": "3",
        "type": "t_contract(IPoolKeeper)11675"
      },
      {
        "astId": 9226,
        "contract": "contracts/implementation/PoolFactory.sol:PoolFactory",
        "label": "poolCommitterDeployer",
        "offset": 0,
        "slot": "4",
        "type": "t_contract(IPoolCommitterDeployer)11505"
      },
      {
        "astId": 9229,
        "contract": "contracts/implementation/PoolFactory.sol:PoolFactory",
        "label": "maxLeverage",
        "offset": 20,
        "slot": "4",
        "type": "t_uint16"
      },
      {
        "astId": 9231,
        "contract": "contracts/implementation/PoolFactory.sol:PoolFactory",
        "label": "feeReceiver",
        "offset": 0,
        "slot": "5",
        "type": "t_address"
      },
      {
        "astId": 9233,
        "contract": "contracts/implementation/PoolFactory.sol:PoolFactory",
        "label": "fee",
        "offset": 0,
        "slot": "6",
        "type": "t_bytes16"
      },
      {
        "astId": 9239,
        "contract": "contracts/implementation/PoolFactory.sol:PoolFactory",
        "label": "pools",
        "offset": 0,
        "slot": "7",
        "type": "t_mapping(t_uint256,t_address)"
      },
      {
        "astId": 9242,
        "contract": "contracts/implementation/PoolFactory.sol:PoolFactory",
        "label": "numPools",
        "offset": 0,
        "slot": "8",
        "type": "t_uint256"
      },
      {
        "astId": 9248,
        "contract": "contracts/implementation/PoolFactory.sol:PoolFactory",
        "label": "isValidPool",
        "offset": 0,
        "slot": "9",
        "type": "t_mapping(t_address,t_bool)"
      }
    ],
    "types": {
      "t_address": {
        "encoding": "inplace",
        "label": "address",
        "numberOfBytes": "20"
      },
      "t_bool": {
        "encoding": "inplace",
        "label": "bool",
        "numberOfBytes": "1"
      },
      "t_bytes16": {
        "encoding": "inplace",
        "label": "bytes16",
        "numberOfBytes": "16"
      },
      "t_contract(IPoolCommitterDeployer)11505": {
        "encoding": "inplace",
        "label": "contract IPoolCommitterDeployer",
        "numberOfBytes": "20"
      },
      "t_contract(IPoolKeeper)11675": {
        "encoding": "inplace",
        "label": "contract IPoolKeeper",
        "numberOfBytes": "20"
      },
      "t_contract(LeveragedPool)7951": {
        "encoding": "inplace",
        "label": "contract LeveragedPool",
        "numberOfBytes": "20"
      },
      "t_contract(PoolToken)11098": {
        "encoding": "inplace",
        "label": "contract PoolToken",
        "numberOfBytes": "20"
      },
      "t_mapping(t_address,t_bool)": {
        "encoding": "mapping",
        "key": "t_address",
        "label": "mapping(address => bool)",
        "numberOfBytes": "32",
        "value": "t_bool"
      },
      "t_mapping(t_uint256,t_address)": {
        "encoding": "mapping",
        "key": "t_uint256",
        "label": "mapping(uint256 => address)",
        "numberOfBytes": "32",
        "value": "t_address"
      },
      "t_uint16": {
        "encoding": "inplace",
        "label": "uint16",
        "numberOfBytes": "2"
      },
      "t_uint256": {
        "encoding": "inplace",
        "label": "uint256",
        "numberOfBytes": "32"
      }
    }
  }
}