{
  "address": "0xdabffa47e509659FEDE5deC5e22CFFb9Cb9040b4",
  "abi": [
    {
      "inputs": [
        {
          "internalType": "address",
          "name": "_feeReceiver",
          "type": "address"
        },
        {
          "internalType": "address",
          "name": "_governance",
          "type": "address"
        }
      ],
      "stateMutability": "nonpayable",
      "type": "constructor"
    },
    {
      "anonymous": false,
      "inputs": [
        {
          "indexed": true,
          "internalType": "address",
          "name": "autoClaim",
          "type": "address"
        }
      ],
      "name": "AutoClaimChanged",
      "type": "event"
    },
    {
      "anonymous": false,
      "inputs": [
        {
          "indexed": false,
          "internalType": "address",
          "name": "poolCommitterAddress",
          "type": "address"
        },
        {
          "indexed": false,
          "internalType": "address",
          "name": "settlementToken",
          "type": "address"
        },
        {
          "indexed": false,
          "internalType": "address",
          "name": "pool",
          "type": "address"
        },
        {
          "indexed": false,
          "internalType": "uint256",
          "name": "changeInterval",
          "type": "uint256"
        },
        {
          "indexed": false,
          "internalType": "address",
          "name": "feeController",
          "type": "address"
        }
      ],
      "name": "DeployCommitter",
      "type": "event"
    },
    {
      "anonymous": false,
      "inputs": [
        {
          "indexed": true,
          "internalType": "address",
          "name": "pool",
          "type": "address"
        },
        {
          "indexed": false,
          "internalType": "address",
          "name": "poolCommitter",
          "type": "address"
        },
        {
          "indexed": false,
          "internalType": "string",
          "name": "ticker",
          "type": "string"
        }
      ],
      "name": "DeployPool",
      "type": "event"
    },
    {
      "anonymous": false,
      "inputs": [
        {
          "indexed": true,
          "internalType": "uint256",
          "name": "fee",
          "type": "uint256"
        }
      ],
      "name": "FeeChanged",
      "type": "event"
    },
    {
      "anonymous": false,
      "inputs": [
        {
          "indexed": true,
          "internalType": "address",
          "name": "receiver",
          "type": "address"
        }
      ],
      "name": "FeeReceiverChanged",
      "type": "event"
    },
    {
      "anonymous": false,
      "inputs": [
        {
          "indexed": true,
          "internalType": "address",
          "name": "oldAddress",
          "type": "address"
        },
        {
          "indexed": true,
          "internalType": "address",
          "name": "newAddress",
          "type": "address"
        }
      ],
      "name": "GovernanceAddressChanged",
      "type": "event"
    },
    {
      "anonymous": false,
      "inputs": [
        {
          "indexed": true,
          "internalType": "address",
          "name": "invariantCheck",
          "type": "address"
        }
      ],
      "name": "InvariantCheckChanged",
      "type": "event"
    },
    {
      "anonymous": false,
      "inputs": [
        {
          "indexed": true,
          "internalType": "uint256",
          "name": "leverage",
          "type": "uint256"
        }
      ],
      "name": "MaxLeverageChanged",
      "type": "event"
    },
    {
      "anonymous": false,
      "inputs": [
        {
          "indexed": true,
          "internalType": "uint256",
          "name": "mint",
          "type": "uint256"
        },
        {
          "indexed": true,
          "internalType": "uint256",
          "name": "burn",
          "type": "uint256"
        }
      ],
      "name": "MintAndBurnFeesChanged",
      "type": "event"
    },
    {
      "anonymous": false,
      "inputs": [
        {
          "indexed": false,
          "internalType": "address",
          "name": "_poolKeeper",
          "type": "address"
        }
      ],
      "name": "PoolKeeperChanged",
      "type": "event"
    },
    {
      "anonymous": false,
      "inputs": [
        {
          "indexed": true,
          "internalType": "address",
          "name": "newAddress",
          "type": "address"
        }
      ],
      "name": "ProvisionalGovernanceChanged",
      "type": "event"
    },
    {
      "anonymous": false,
      "inputs": [
        {
          "indexed": true,
          "internalType": "uint256",
          "name": "fee",
          "type": "uint256"
        }
      ],
      "name": "SecondaryFeeSplitChanged",
      "type": "event"
    },
    {
      "inputs": [],
      "name": "autoClaim",
      "outputs": [
        {
          "internalType": "address",
          "name": "",
          "type": "address"
        }
      ],
      "stateMutability": "view",
      "type": "function"
    },
    {
      "inputs": [],
      "name": "claimGovernance",
      "outputs": [],
      "stateMutability": "nonpayable",
      "type": "function"
    },
    {
      "inputs": [
        {
          "components": [
            {
              "internalType": "string",
              "name": "poolName",
              "type": "string"
            },
            {
              "internalType": "uint32",
              "name": "frontRunningInterval",
              "type": "uint32"
            },
            {
              "internalType": "uint32",
              "name": "updateInterval",
              "type": "uint32"
            },
            {
              "internalType": "uint16",
              "name": "leverageAmount",
              "type": "uint16"
            },
            {
              "internalType": "address",
              "name": "settlementToken",
              "type": "address"
            },
            {
              "internalType": "address",
              "name": "oracleWrapper",
              "type": "address"
            },
            {
              "internalType": "address",
              "name": "settlementEthOracle",
              "type": "address"
            },
            {
              "internalType": "address",
              "name": "feeController",
              "type": "address"
            },
            {
              "internalType": "uint256",
              "name": "mintingFee",
              "type": "uint256"
            },
            {
              "internalType": "uint256",
              "name": "changeInterval",
              "type": "uint256"
            },
            {
              "internalType": "uint256",
              "name": "burningFee",
              "type": "uint256"
            }
          ],
          "internalType": "struct IPoolFactory.PoolDeployment",
          "name": "deploymentParameters",
          "type": "tuple"
        }
      ],
      "name": "deployPool",
      "outputs": [
        {
          "internalType": "address",
          "name": "",
          "type": "address"
        }
      ],
      "stateMutability": "nonpayable",
      "type": "function"
    },
    {
      "inputs": [],
      "name": "fee",
      "outputs": [
        {
          "internalType": "uint256",
          "name": "",
          "type": "uint256"
        }
      ],
      "stateMutability": "view",
      "type": "function"
    },
    {
      "inputs": [],
      "name": "feeReceiver",
      "outputs": [
        {
          "internalType": "address",
          "name": "",
          "type": "address"
        }
      ],
      "stateMutability": "view",
      "type": "function"
    },
    {
      "inputs": [],
      "name": "getPoolKeeper",
      "outputs": [
        {
          "internalType": "address",
          "name": "",
          "type": "address"
        }
      ],
      "stateMutability": "view",
      "type": "function"
    },
    {
      "inputs": [],
      "name": "governance",
      "outputs": [
        {
          "internalType": "address",
          "name": "",
          "type": "address"
        }
      ],
      "stateMutability": "view",
      "type": "function"
    },
    {
      "inputs": [],
      "name": "governanceTransferInProgress",
      "outputs": [
        {
          "internalType": "bool",
          "name": "",
          "type": "bool"
        }
      ],
      "stateMutability": "view",
      "type": "function"
    },
    {
      "inputs": [],
      "name": "invariantCheck",
      "outputs": [
        {
          "internalType": "address",
          "name": "",
          "type": "address"
        }
      ],
      "stateMutability": "view",
      "type": "function"
    },
    {
      "inputs": [
        {
          "internalType": "address",
          "name": "",
          "type": "address"
        }
      ],
      "name": "isValidPool",
      "outputs": [
        {
          "internalType": "bool",
          "name": "",
          "type": "bool"
        }
      ],
      "stateMutability": "view",
      "type": "function"
    },
    {
      "inputs": [
        {
          "internalType": "address",
          "name": "",
          "type": "address"
        }
      ],
      "name": "isValidPoolCommitter",
      "outputs": [
        {
          "internalType": "bool",
          "name": "",
          "type": "bool"
        }
      ],
      "stateMutability": "view",
      "type": "function"
    },
    {
      "inputs": [],
      "name": "numPools",
      "outputs": [
        {
          "internalType": "uint256",
          "name": "",
          "type": "uint256"
        }
      ],
      "stateMutability": "view",
      "type": "function"
    },
    {
      "inputs": [],
      "name": "pairTokenBaseAddress",
      "outputs": [
        {
          "internalType": "address",
          "name": "",
          "type": "address"
        }
      ],
      "stateMutability": "view",
      "type": "function"
    },
    {
      "inputs": [],
      "name": "poolBaseAddress",
      "outputs": [
        {
          "internalType": "address",
          "name": "",
          "type": "address"
        }
      ],
      "stateMutability": "view",
      "type": "function"
    },
    {
      "inputs": [],
      "name": "poolCommitterBaseAddress",
      "outputs": [
        {
          "internalType": "address",
          "name": "",
          "type": "address"
        }
      ],
      "stateMutability": "view",
      "type": "function"
    },
    {
      "inputs": [],
      "name": "poolKeeper",
      "outputs": [
        {
          "internalType": "contract IPoolKeeper",
          "name": "",
          "type": "address"
        }
      ],
      "stateMutability": "view",
      "type": "function"
    },
    {
      "inputs": [
        {
          "internalType": "uint256",
          "name": "",
          "type": "uint256"
        }
      ],
      "name": "pools",
      "outputs": [
        {
          "internalType": "address",
          "name": "",
          "type": "address"
        }
      ],
      "stateMutability": "view",
      "type": "function"
    },
    {
      "inputs": [],
      "name": "provisionalGovernance",
      "outputs": [
        {
          "internalType": "address",
          "name": "",
          "type": "address"
        }
      ],
      "stateMutability": "view",
      "type": "function"
    },
    {
      "inputs": [],
      "name": "secondaryFeeSplitPercent",
      "outputs": [
        {
          "internalType": "uint256",
          "name": "",
          "type": "uint256"
        }
      ],
      "stateMutability": "view",
      "type": "function"
    },
    {
      "inputs": [
        {
          "internalType": "address",
          "name": "_autoClaim",
          "type": "address"
        }
      ],
      "name": "setAutoClaim",
      "outputs": [],
      "stateMutability": "nonpayable",
      "type": "function"
    },
    {
      "inputs": [
        {
          "internalType": "uint256",
          "name": "_fee",
          "type": "uint256"
        }
      ],
      "name": "setFee",
      "outputs": [],
      "stateMutability": "nonpayable",
      "type": "function"
    },
    {
      "inputs": [
        {
          "internalType": "address",
          "name": "_feeReceiver",
          "type": "address"
        }
      ],
      "name": "setFeeReceiver",
      "outputs": [],
      "stateMutability": "nonpayable",
      "type": "function"
    },
    {
      "inputs": [
        {
          "internalType": "address",
          "name": "_invariantCheck",
          "type": "address"
        }
      ],
      "name": "setInvariantCheck",
      "outputs": [],
      "stateMutability": "nonpayable",
      "type": "function"
    },
    {
      "inputs": [
        {
          "internalType": "address",
          "name": "_poolKeeper",
          "type": "address"
        }
      ],
      "name": "setPoolKeeper",
      "outputs": [],
      "stateMutability": "nonpayable",
      "type": "function"
    },
    {
      "inputs": [
        {
          "internalType": "uint256",
          "name": "newFeePercent",
          "type": "uint256"
        }
      ],
      "name": "setSecondaryFeeSplitPercent",
      "outputs": [],
      "stateMutability": "nonpayable",
      "type": "function"
    },
    {
      "inputs": [
        {
          "internalType": "address",
          "name": "_governance",
          "type": "address"
        }
      ],
      "name": "transferGovernance",
      "outputs": [],
      "stateMutability": "nonpayable",
      "type": "function"
    }
  ],
  "transactionHash": "0x58a21a30a9e10878edae6ba02c9f8ecf04cd65fc34cb9701852f3ae2d0f4a20f",
  "args": [
    "0x0f79e82aE88E1318B8cfC8b4A205fE2F982B928A",
    "0xfb59B91646cd0890F3E5343384FEb746989B66C7"
  ],
  "solcInputHash": "ed877995a3a12fdfd020e943737872e5",
  "bytecode": "0x60e0604052600a6006553480156200001657600080fd5b506040516200b50f3803806200b50f83398101604081905262000039916200048a565b6001600160a01b038216620000955760405162461bcd60e51b815260206004820152601b60248201527f4665652072656365697665722063616e6e6f74206265206e756c6c000000000060448201526064015b60405180910390fd5b6001600160a01b038116620000ed5760405162461bcd60e51b815260206004820152601960248201527f476f7665726e616e63652063616e6e6f74206265206e756c6c0000000000000060448201526064016200008c565b600380546001600160a01b0319166001600160a01b0383161790556040516000906012906200011c9062000443565b60ff9091168152602001604051809103906000f08015801562000143573d6000803e3d6000fd5b506001600160601b0319606082901b166080526040519091506000906200016a9062000451565b604051809103906000f08015801562000187573d6000803e3d6000fd5b506001600160601b0319606082901b1660a052604051909150600090620001ae906200045f565b604051809103906000f080158015620001cb573d6000803e3d6000fd5b50606081901b6001600160601b03191660c0908152600780546001600160a01b0319166001600160a01b0389811691909117909155604051637b69774360e11b81528582166004808301919091526080602483015260848201819052636261736560e01b60a4830152604482019390935260c4810192909252634241534560e01b60e4830152600860648301529192509084169063f6d2ee869061010401600060405180830381600087803b1580156200028457600080fd5b505af115801562000299573d6000803e3d6000fd5b50506040805161022081018252308082526020808301829052828401829052606083018290526001600160a01b038981166080850181905260a085015287811660c085015260e08401839052845180860186526004808252636261736560e01b93820193909352610100850152600061012085018190526001610140860181905261016086015261018085018190526101a085018490526101c085018490526101e08501939093526102008401929092529251630129011d60e41b81529194508616925063129011d091620003719185910162000512565b600060405180830381600087803b1580156200038c57600080fd5b505af1158015620003a1573d6000803e3d6000fd5b5050600354604051637403c6cd60e01b815230600482018190526024820181905260448201526001600160a01b03918216606482018190526084820152600060a4820181905260c4820181905260e48201529085169250637403c6cd915061010401600060405180830381600087803b1580156200041e57600080fd5b505af115801562000433573d6000803e3d6000fd5b50505050505050505050620006b6565b6111eb80620025ec83390190565b612e7a80620037d783390190565b614ebe806200665183390190565b80516001600160a01b03811681146200048557600080fd5b919050565b600080604083850312156200049e57600080fd5b620004a9836200046d565b9150620004b9602084016200046d565b90509250929050565b6000815180845260005b81811015620004ea57602081850181015186830182015201620004cc565b81811115620004fd576000602083870101525b50601f01601f19169290920160200192915050565b602081526200052d6020820183516001600160a01b03169052565b600060208301516200054a60408401826001600160a01b03169052565b5060408301516001600160a01b03811660608401525060608301516001600160a01b03811660808401525060808301516001600160a01b03811660a08401525060a08301516001600160a01b03811660c08401525060c08301516001600160a01b03811660e08401525060e0830151610100620005d1818501836001600160a01b03169052565b808501519150506102206101208181860152620005f3610240860184620004c2565b908601519092506101406200060f8682018363ffffffff169052565b8601519050610160620006298682018363ffffffff169052565b8601519050610180620006418682018361ffff169052565b8601516101a08681019190915286015190506101c06200066b818701836001600160a01b03169052565b86015190506101e062000688868201836001600160a01b03169052565b8601519050610200620006a5868201836001600160a01b03169052565b959095015193019290925250919050565b60805160601c60a05160601c60c05160601c611ee8620007046000396000818161037a0152610c230152600081816103bd0152610d2201526000818161022301526116750152611ee86000f3fe608060405234801561001057600080fd5b506004361061018e5760003560e01c806379bc6182116100de578063c70db32311610097578063ddca3f4311610071578063ddca3f43146103af578063ed3f7e26146103b8578063efdcd974146103df578063f164e2a7146103f257600080fd5b8063c70db32314610362578063d339471414610375578063d38bfff41461039c57600080fd5b806379bc6182146102dc5780637dbb36c4146102ef5780639fd5524514610300578063ac4afa3814610313578063b3f006741461033c578063b7f4bb1c1461034f57600080fd5b80634690092c1161014b5780635ab78ee1116101255780635ab78ee11461028b5780635d36b190146102ae578063616e5790146102b657806369fe0e2d146102c957600080fd5b80634690092c1461021e57806359e86a99146102455780635aa6e6751461027857600080fd5b806303850dbb14610193578063178f9e35146101af578063225454c5146101da57806335c62bc2146101ef578063430ed6eb146101f85780634509017e1461020b575b600080fd5b61019c60065481565b6040519081526020015b60405180910390f35b6000546101c2906001600160a01b031681565b6040516001600160a01b0390911681526020016101a6565b6101ed6101e83660046117d1565b610406565b005b61019c60095481565b6101ed6102063660046117d1565b6104a9565b6002546101c2906001600160a01b031681565b6101c27f000000000000000000000000000000000000000000000000000000000000000081565b6102686102533660046117d1565b600b6020526000908152604090205460ff1681565b60405190151581526020016101a6565b6003546101c2906001600160a01b031681565b6102686102993660046117d1565b600a6020526000908152604090205460ff1681565b6101ed61054d565b6101ed6102c4366004611869565b61066c565b6101ed6102d7366004611869565b610729565b6101ed6102ea3660046117d1565b6107d4565b6000546001600160a01b03166101c2565b6004546101c2906001600160a01b031681565b6101c2610321366004611869565b6008602052600090815260409020546001600160a01b031681565b6007546101c2906001600160a01b031681565b6101c261035d366004611812565b61086e565b6001546101c2906001600160a01b031681565b6101c27f000000000000000000000000000000000000000000000000000000000000000081565b6101ed6103aa3660046117d1565b6111b3565b61019c60055481565b6101c27f000000000000000000000000000000000000000000000000000000000000000081565b6101ed6103ed3660046117d1565b611315565b60035461026890600160a01b900460ff1681565b6003546001600160a01b031633146104395760405162461bcd60e51b815260040161043090611a19565b60405180910390fd5b6001600160a01b03811661045f5760405162461bcd60e51b8152600401610430906119f1565b600280546001600160a01b0319166001600160a01b0383169081179091556040517f24c15dcddddd5cf1c1ca428f04560f295744a59a459f278163e3ffcbd12f108690600090a250565b6003546001600160a01b031633146104d35760405162461bcd60e51b815260040161043090611a19565b6001600160a01b0381166104f95760405162461bcd60e51b8152600401610430906119f1565b600080546001600160a01b0319166001600160a01b0383169081179091556040519081527ff33ed59034aadf61086c54204694b493ee22a3d903bddbe94c276f7bb442f4e39060200160405180910390a150565b600354600160a01b900460ff166105a65760405162461bcd60e51b815260206004820152601b60248201527f4e6f20676f7665726e616e6365206368616e67652061637469766500000000006044820152606401610430565b6004546001600160a01b03163381146106015760405162461bcd60e51b815260206004820152601860248201527f4e6f742070726f766973696f6e616c20676f7665726e6f7200000000000000006044820152606401610430565b6003546040516001600160a01b038084169216907f023588d3d1dcaad34e471c9e01b616b794156174bc693539c8fe15c0bfd5d82690600090a360038054600480546001600160a01b03191690556001600160a81b0319166001600160a01b03909216919091179055565b6003546001600160a01b031633146106965760405162461bcd60e51b815260040161043090611a19565b60648111156106f65760405162461bcd60e51b815260206004820152602660248201527f5365636f6e64617279206665652073706c69742063616e6e6f7420657863656560448201526564203130302560d01b6064820152608401610430565b600681905560405181907ffd9d1596de9068fc7e910a6e5ba7d9c07e9f6018518a993f41ab74afb0f9617790600090a250565b6003546001600160a01b031633146107535760405162461bcd60e51b815260040161043090611a19565b67016345785d8a00008111156107a15760405162461bcd60e51b81526020600482015260136024820152724665652063616e6e6f74206265203e2031302560681b6044820152606401610430565b600581905560405181907f6bbc57480a46553fa4d156ce702beef5f3ad66303b0ed1a5d4cb44966c6584c390600090a250565b6003546001600160a01b031633146107fe5760405162461bcd60e51b815260040161043090611a19565b6001600160a01b0381166108245760405162461bcd60e51b8152600401610430906119f1565b600180546001600160a01b0319166001600160a01b0383169081179091556040517fa88db2b867bf534c147cbfc947cf3f3158ed92959503ef51c8729e6f35dc109e90600090a250565b600080546001600160a01b0316806108bd5760405162461bcd60e51b8152602060048201526012602482015271141bdbdb12d9595c195c881b9bdd081cd95d60721b6044820152606401610430565b6001546001600160a01b03166109095760405162461bcd60e51b8152602060048201526011602482015270105d5d1bd0db185a5b481b9bdd081cd95d607a1b6044820152606401610430565b6002546001600160a01b031661095a5760405162461bcd60e51b8152602060048201526016602482015275125b9d985c9a585b9d10da1958dac81b9bdd081cd95d60521b6044820152606401610430565b3361096b60c0850160a086016117d1565b6001600160a01b031663d5f394886040518163ffffffff1660e01b815260040160206040518083038186803b1580156109a357600080fd5b505afa1580156109b7573d6000803e3d6000fd5b505050506040513d601f19601f820116820180604052508101906109db91906117f5565b6001600160a01b031614610a3f5760405162461bcd60e51b815260206004820152602560248201527f4465706c6f796572206d757374206265206f7261636c6520777261707065722060448201526437bbb732b960d91b6064820152608401610430565b610a4f608084016060850161184e565b61ffff16610a9f5760405162461bcd60e51b815260206004820152601f60248201527f4c657665726167656420616d6f756e742063616e6e6f7420657175616c2030006044820152606401610430565b6012610ab160a08501608086016117d1565b6001600160a01b031663313ce5676040518163ffffffff1660e01b815260040160206040518083038186803b158015610ae957600080fd5b505afa158015610afd573d6000803e3d6000fd5b505050506040513d601f19601f82011682018060405250810190610b21919061189d565b60ff161115610b725760405162461bcd60e51b815260206004820152601a60248201527f446563696d616c20707265636973696f6e20746f6f20686967680000000000006044820152606401610430565b6000610b846040850160208601611882565b610b946060860160408701611882565b610ba4608087016060880161184e565b610bb460a08801608089016117d1565b610bc460c0890160a08a016117d1565b6040805163ffffffff9687166020820152959094169385019390935261ffff90911660608401526001600160a01b0390811660808401521660a082015260c0016040516020818303038152906040528051906020012090506000610c487f0000000000000000000000000000000000000000000000000000000000000000836113df565b60015460035491925082916001600160a01b0380841692637403c6cd9230929182169116610c7d6101008c0160e08d016117d1565b6002546040516001600160e01b031960e088901b1681526001600160a01b039586166004820152938516602485015291841660448401528316606483015291909116608482015261010089013560a482015261014089013560c482015261012089013560e482015261010401600060405180830381600087803b158015610d0357600080fd5b505af1158015610d17573d6000803e3d6000fd5b505050506000610d477f0000000000000000000000000000000000000000000000000000000000000000856113df565b9050806001600160a01b0381167f82f5ba2b59209e8b2008e0addf2c8502bf23175cfee67125b2562302ce9823b985610d808b80611c29565b604051610d8f93929190611966565b60405180910390a26000610db5610dac60808b0160608c0161184e565b61ffff16611485565b60408051610220810182526003546001600160a01b0390811682528a166020820152919250600091908101610df060c08d0160a08e016117d1565b6001600160a01b03168152602001610e0e60e08d0160c08e016117d1565b6001600160a01b03168152602001610e4a8585610e2a8f611d03565b604051806040016040528060028152602001614c2d60f01b81525061158b565b6001600160a01b03168152602001610e868585610e668f611d03565b60405180604001604052806002815260200161532d60f01b81525061158b565b6001600160a01b039081168252878116602083015260025416604082015260600183610eb28d80611c29565b604051602001610ec49392919061192f565b60405160208183030381529060405281526020018b6020016020810190610eeb9190611882565b63ffffffff168152602001610f0660608d0160408e01611882565b63ffffffff168152602001610f2160808d0160608e0161184e565b61ffff1681526020016301e18558610f3f60608e0160408f01611882565b63ffffffff16600554610f529190611ccd565b610f5c9190611cb9565b81526007546001600160a01b03166020820152336040820152606001610f8860a08d0160808e016117d1565b6001600160a01b031681526020016006548152509050836001600160a01b031663129011d0826040518263ffffffff1660e01b8152600401610fca9190611a50565b600060405180830381600087803b158015610fe457600080fd5b505af1158015610ff8573d6000803e3d6000fd5b505060405163221b8a9560e11b81526001600160a01b03868116600483015288169250634437152a9150602401600060405180830381600087803b15801561103f57600080fd5b505af1158015611053573d6000803e3d6000fd5b505050507fe1759462958518b57e02da7f1e24c6a789c6f0ad7f8751169def6657289695f1858b608001602081019061108c91906117d1565b858d61012001358e60e00160208101906110a691906117d1565b604080516001600160a01b0396871681529486166020860152928516928401929092526060830152909116608082015260a00160405180910390a1600054604051633c5c7fb360e01b81526001600160a01b03858116600483015290911690633c5c7fb390602401600060405180830381600087803b15801561112857600080fd5b505af115801561113c573d6000803e3d6000fd5b505060098054600090815260086020908152604080832080546001600160a01b0319166001600160a01b038b8116918217909255855460019081019096558452600a8352818420805460ff1990811687179091559c168352600b909152902080549099161790975550919998505050505050505050565b6003546001600160a01b031633146111dd5760405162461bcd60e51b815260040161043090611a19565b6003546001600160a01b03828116911614156112615760405162461bcd60e51b815260206004820152603f60248201527f4e657720676f7665726e616e636520616464726573732063616e6e6f7420626560448201527f2073616d65206173206f6c6420676f7665726e616e63652061646472657373006064820152608401610430565b6001600160a01b0381166112b75760405162461bcd60e51b815260206004820152601960248201527f476f7665726e616e63652063616e6e6f74206265206e756c6c000000000000006044820152606401610430565b600480546001600160a01b0383166001600160a01b031990911681179091556003805460ff60a01b1916600160a01b1790556040517f35681f4f23137fb58510a9854f1b6e95f90a2cf0b66d2fce4df74cc0becc82d590600090a250565b6003546001600160a01b0316331461133f5760405162461bcd60e51b815260040161043090611a19565b6001600160a01b0381166113955760405162461bcd60e51b815260206004820152601b60248201527f4665652072656365697665722063616e6e6f74206265206e756c6c00000000006044820152606401610430565b600780546001600160a01b0319166001600160a01b0383169081179091556040517f647672599d3468abcfa241a13c9e3d34383caadb5cc80fb67c3cdfcd5f78605990600090a250565b6000604051733d602d80600a3d3981f3363d3d373d3d3d363d7360601b81528360601b60148201526e5af43d82803e903d91602b57fd5bf360881b6028820152826037826000f59150506001600160a01b03811661147f5760405162461bcd60e51b815260206004820152601760248201527f455243313136373a2063726561746532206661696c65640000000000000000006044820152606401610430565b92915050565b6060816114a95750506040805180820190915260018152600360fc1b602082015290565b8160005b81156114d357806114bd81611e13565b91506114cc9050600a83611cb9565b91506114ad565b60008167ffffffffffffffff8111156114ee576114ee611e84565b6040519080825280601f01601f191660200182016040528015611518576020820181803683370190505b5090505b84156115835761152d600183611cec565b915061153a600a86611e2e565b611545906030611ca1565b60f81b81838151811061155a5761155a611e6e565b60200101906001600160f81b031916908160001a90535061157c600a86611cb9565b945061151c565b949350505050565b600080848385600001516040516020016115a7939291906118ec565b6040516020818303038152906040529050600084608001516001600160a01b031663313ce5676040518163ffffffff1660e01b815260040160206040518083038186803b1580156115f757600080fd5b505afa15801561160b573d6000803e3d6000fd5b505050506040513d601f19601f8201168201806040525081019061162f919061189d565b90506000856060015186608001518760a00151876040516020016116569493929190611be9565b604051602081830303815290604052805190602001209050600061169a7f0000000000000000000000000000000000000000000000000000000000000000836113df565b604051637b69774360e11b81529091506001600160a01b0382169063f6d2ee86906116cf908c908890819089906004016119a6565b600060405180830381600087803b1580156116e957600080fd5b505af11580156116fd573d6000803e3d6000fd5b50929b9a5050505050505050505050565b803561171981611e9a565b919050565b600082601f83011261172f57600080fd5b813567ffffffffffffffff8082111561174a5761174a611e84565b604051601f8301601f19908116603f0116810190828211818310171561177257611772611e84565b8160405283815286602085880101111561178b57600080fd5b836020870160208301376000602085830101528094505050505092915050565b803561ffff8116811461171957600080fd5b803563ffffffff8116811461171957600080fd5b6000602082840312156117e357600080fd5b81356117ee81611e9a565b9392505050565b60006020828403121561180757600080fd5b81516117ee81611e9a565b60006020828403121561182457600080fd5b813567ffffffffffffffff81111561183b57600080fd5b820161016081850312156117ee57600080fd5b60006020828403121561186057600080fd5b6117ee826117ab565b60006020828403121561187b57600080fd5b5035919050565b60006020828403121561189457600080fd5b6117ee826117bd565b6000602082840312156118af57600080fd5b815160ff811681146117ee57600080fd5b600081518084526118d8816020860160208601611de3565b601f01601f19169290920160200192915050565b600084516118fe818460208901611de3565b845190830190611912818360208901611de3565b8451910190611925818360208801611de3565b0195945050505050565b60008451611941818460208901611de3565b602d60f81b908301908152838560018301376000930160010192835250909392505050565b6001600160a01b03841681526040602082018190528101829052818360608301376000818301606090810191909152601f909201601f1916010192915050565b6001600160a01b03851681526080602082018190526000906119ca908301866118c0565b82810360408401526119dc81866118c0565b91505060ff8316606083015295945050505050565b6020808252600e908201526d18d85b9b9bdd081899481b9d5b1b60921b604082015260600190565b60208082526019908201527f6d73672e73656e646572206e6f7420676f7665726e616e636500000000000000604082015260600190565b60208152611a6a6020820183516001600160a01b03169052565b60006020830151611a8660408401826001600160a01b03169052565b5060408301516001600160a01b03811660608401525060608301516001600160a01b03811660808401525060808301516001600160a01b03811660a08401525060a08301516001600160a01b03811660c08401525060c08301516001600160a01b03811660e08401525060e0830151610100611b0c818501836001600160a01b03169052565b808501519150506102206101208181860152611b2c6102408601846118c0565b90860151909250610140611b478682018363ffffffff169052565b8601519050610160611b608682018363ffffffff169052565b8601519050610180611b778682018361ffff169052565b8601516101a08681019190915286015190506101c0611ba0818701836001600160a01b03169052565b86015190506101e0611bbc868201836001600160a01b03169052565b8601519050610200611bd8868201836001600160a01b03169052565b959095015193019290925250919050565b61ffff851681526001600160a01b03848116602083015283166040820152608060608201819052600090611c1f908301846118c0565b9695505050505050565b6000808335601e19843603018112611c4057600080fd5b83018035915067ffffffffffffffff821115611c5b57600080fd5b602001915036819003821315611c7057600080fd5b9250929050565b604051610160810167ffffffffffffffff81118282101715611c9b57611c9b611e84565b60405290565b60008219821115611cb457611cb4611e42565b500190565b600082611cc857611cc8611e58565b500490565b6000816000190483118215151615611ce757611ce7611e42565b500290565b600082821015611cfe57611cfe611e42565b500390565b60006101608236031215611d1657600080fd5b611d1e611c77565b823567ffffffffffffffff811115611d3557600080fd5b611d413682860161171e565b825250611d50602084016117bd565b6020820152611d61604084016117bd565b6040820152611d72606084016117ab565b6060820152611d836080840161170e565b6080820152611d9460a0840161170e565b60a0820152611da560c0840161170e565b60c0820152611db660e0840161170e565b60e08201526101008381013590820152610120808401359082015261014092830135928101929092525090565b60005b83811015611dfe578181015183820152602001611de6565b83811115611e0d576000848401525b50505050565b6000600019821415611e2757611e27611e42565b5060010190565b600082611e3d57611e3d611e58565b500690565b634e487b7160e01b600052601160045260246000fd5b634e487b7160e01b600052601260045260246000fd5b634e487b7160e01b600052603260045260246000fd5b634e487b7160e01b600052604160045260246000fd5b6001600160a01b0381168114611eaf57600080fd5b5056fea2646970667358221220172bc1f228631c330775471ea87083bc2ac0de60ffeebfc797dee88af716485e64736f6c6343000807003360806040523480156200001157600080fd5b50604051620011eb380380620011eb833981016040819052620000349162000175565b6040518060400160405280600a8152602001692120a9a2afaa27a5a2a760b11b815250604051806040016040528060048152602001634241534560e01b81525082828281600390805190602001906200008f929190620000cf565b508051620000a5906004906020840190620000cf565b50506005805460ff909316620100000262ff0000199093169290921790915550620001de92505050565b828054620000dd90620001a1565b90600052602060002090601f0160209004810192826200010157600085556200014c565b82601f106200011c57805160ff19168380011785556200014c565b828001600101855582156200014c579182015b828111156200014c5782518255916020019190600101906200012f565b506200015a9291506200015e565b5090565b5b808211156200015a57600081556001016200015f565b6000602082840312156200018857600080fd5b815160ff811681146200019a57600080fd5b9392505050565b600181811c90821680620001b657607f821691505b60208210811415620001d857634e487b7160e01b600052602260045260246000fd5b50919050565b610ffd80620001ee6000396000f3fe608060405234801561001057600080fd5b50600436106101005760003560e01c80638da5cb5b11610097578063a9059cbb11610066578063a9059cbb14610233578063dd62ed3e14610246578063f2fde38b1461027f578063f6d2ee861461029257600080fd5b80638da5cb5b146101da57806395d89b41146102055780639dc29fac1461020d578063a457c2d71461022057600080fd5b8063313ce567116100d3578063313ce5671461016b578063395093511461018957806340c10f191461019c57806370a08231146101b157600080fd5b806306fdde0314610105578063095ea7b31461012357806318160ddd1461014657806323b872dd14610158575b600080fd5b61010d6102a5565b60405161011a9190610eae565b60405180910390f35b610136610131366004610e84565b610337565b604051901515815260200161011a565b6002545b60405190815260200161011a565b610136610166366004610dbb565b61034d565b60055462010000900460ff1660405160ff909116815260200161011a565b610136610197366004610e84565b6103fc565b6101af6101aa366004610e84565b610438565b005b61014a6101bf366004610d66565b6001600160a01b031660009081526020819052604090205490565b6008546101ed906001600160a01b031681565b6040516001600160a01b03909116815260200161011a565b61010d610470565b6101af61021b366004610e84565b61047f565b61013661022e366004610e84565b6104b3565b610136610241366004610e84565b61054c565b61014a610254366004610d88565b6001600160a01b03918216600090815260016020908152604080832093909416825291909152205490565b6101af61028d366004610d66565b610559565b6101af6102a0366004610df7565b6105fb565b6060600680546102b490610f60565b80601f01602080910402602001604051908101604052809291908181526020018280546102e090610f60565b801561032d5780601f106103025761010080835404028352916020019161032d565b820191906000526020600020905b81548152906001019060200180831161031057829003601f168201915b5050505050905090565b600061034433848461070b565b50600192915050565b600061035a848484610830565b6001600160a01b0384166000908152600160209081526040808320338452909152902054828110156103e45760405162461bcd60e51b815260206004820152602860248201527f45524332303a207472616e7366657220616d6f756e74206578636565647320616044820152676c6c6f77616e636560c01b60648201526084015b60405180910390fd5b6103f1853385840361070b565b506001949350505050565b3360008181526001602090815260408083206001600160a01b03871684529091528120549091610344918590610433908690610f31565b61070b565b6008546001600160a01b031633146104625760405162461bcd60e51b81526004016103db90610f03565b61046c82826109ff565b5050565b6060600780546102b490610f60565b6008546001600160a01b031633146104a95760405162461bcd60e51b81526004016103db90610f03565b61046c8282610ade565b3360009081526001602090815260408083206001600160a01b0386168452909152812054828110156105355760405162461bcd60e51b815260206004820152602560248201527f45524332303a2064656372656173656420616c6c6f77616e63652062656c6f77604482015264207a65726f60d81b60648201526084016103db565b610542338585840361070b565b5060019392505050565b6000610344338484610830565b6008546001600160a01b031633146105835760405162461bcd60e51b81526004016103db90610f03565b6001600160a01b0381166105d95760405162461bcd60e51b815260206004820152601b60248201527f4f776e65723a2073657474696e6720746f20302061646472657373000000000060448201526064016103db565b600880546001600160a01b0319166001600160a01b0392909216919091179055565b600554610100900460ff1680610614575060055460ff16155b6106775760405162461bcd60e51b815260206004820152602e60248201527f496e697469616c697a61626c653a20636f6e747261637420697320616c72656160448201526d191e481a5b9a5d1a585b1a5e995960921b60648201526084016103db565b600554610100900460ff16158015610699576005805461ffff19166101011790555b600880546001600160a01b0319166001600160a01b03871617905583516106c7906006906020870190610c24565b5082516106db906007906020860190610c24565b506005805462ff000019166201000060ff8516021790558015610704576005805461ff00191690555b5050505050565b6001600160a01b03831661076d5760405162461bcd60e51b8152602060048201526024808201527f45524332303a20617070726f76652066726f6d20746865207a65726f206164646044820152637265737360e01b60648201526084016103db565b6001600160a01b0382166107ce5760405162461bcd60e51b815260206004820152602260248201527f45524332303a20617070726f766520746f20746865207a65726f206164647265604482015261737360f01b60648201526084016103db565b6001600160a01b0383811660008181526001602090815260408083209487168084529482529182902085905590518481527f8c5be1e5ebec7d5bd14f71427d1e84f3dd0314c0f7b2291e5b200ac8c7c3b92591015b60405180910390a3505050565b6001600160a01b0383166108945760405162461bcd60e51b815260206004820152602560248201527f45524332303a207472616e736665722066726f6d20746865207a65726f206164604482015264647265737360d81b60648201526084016103db565b6001600160a01b0382166108f65760405162461bcd60e51b815260206004820152602360248201527f45524332303a207472616e7366657220746f20746865207a65726f206164647260448201526265737360e81b60648201526084016103db565b6001600160a01b0383166000908152602081905260409020548181101561096e5760405162461bcd60e51b815260206004820152602660248201527f45524332303a207472616e7366657220616d6f756e7420657863656564732062604482015265616c616e636560d01b60648201526084016103db565b6001600160a01b038085166000908152602081905260408082208585039055918516815290812080548492906109a5908490610f31565b92505081905550826001600160a01b0316846001600160a01b03167fddf252ad1be2c89b69c2b068fc378daa952ba7f163c4a11628f55a4df523b3ef846040516109f191815260200190565b60405180910390a350505050565b6001600160a01b038216610a555760405162461bcd60e51b815260206004820152601f60248201527f45524332303a206d696e7420746f20746865207a65726f20616464726573730060448201526064016103db565b8060026000828254610a679190610f31565b90915550506001600160a01b03821660009081526020819052604081208054839290610a94908490610f31565b90915550506040518181526001600160a01b038316906000907fddf252ad1be2c89b69c2b068fc378daa952ba7f163c4a11628f55a4df523b3ef9060200160405180910390a35050565b6001600160a01b038216610b3e5760405162461bcd60e51b815260206004820152602160248201527f45524332303a206275726e2066726f6d20746865207a65726f206164647265736044820152607360f81b60648201526084016103db565b6001600160a01b03821660009081526020819052604090205481811015610bb25760405162461bcd60e51b815260206004820152602260248201527f45524332303a206275726e20616d6f756e7420657863656564732062616c616e604482015261636560f01b60648201526084016103db565b6001600160a01b0383166000908152602081905260408120838303905560028054849290610be1908490610f49565b90915550506040518281526000906001600160a01b038516907fddf252ad1be2c89b69c2b068fc378daa952ba7f163c4a11628f55a4df523b3ef90602001610823565b828054610c3090610f60565b90600052602060002090601f016020900481019282610c525760008555610c98565b82601f10610c6b57805160ff1916838001178555610c98565b82800160010185558215610c98579182015b82811115610c98578251825591602001919060010190610c7d565b50610ca4929150610ca8565b5090565b5b80821115610ca45760008155600101610ca9565b80356001600160a01b0381168114610cd457600080fd5b919050565b600082601f830112610cea57600080fd5b813567ffffffffffffffff80821115610d0557610d05610fb1565b604051601f8301601f19908116603f01168101908282118183101715610d2d57610d2d610fb1565b81604052838152866020858801011115610d4657600080fd5b836020870160208301376000602085830101528094505050505092915050565b600060208284031215610d7857600080fd5b610d8182610cbd565b9392505050565b60008060408385031215610d9b57600080fd5b610da483610cbd565b9150610db260208401610cbd565b90509250929050565b600080600060608486031215610dd057600080fd5b610dd984610cbd565b9250610de760208501610cbd565b9150604084013590509250925092565b60008060008060808587031215610e0d57600080fd5b610e1685610cbd565b9350602085013567ffffffffffffffff80821115610e3357600080fd5b610e3f88838901610cd9565b94506040870135915080821115610e5557600080fd5b50610e6287828801610cd9565b925050606085013560ff81168114610e7957600080fd5b939692955090935050565b60008060408385031215610e9757600080fd5b610ea083610cbd565b946020939093013593505050565b600060208083528351808285015260005b81811015610edb57858101830151858201604001528201610ebf565b81811115610eed576000604083870101525b50601f01601f1916929092016040019392505050565b60208082526014908201527336b9b39739b2b73232b9103737ba1037bbb732b960611b604082015260600190565b60008219821115610f4457610f44610f9b565b500190565b600082821015610f5b57610f5b610f9b565b500390565b600181811c90821680610f7457607f821691505b60208210811415610f9557634e487b7160e01b600052602260045260246000fd5b50919050565b634e487b7160e01b600052601160045260246000fd5b634e487b7160e01b600052604160045260246000fdfea2646970667358221220b320f0be9f47be35b28ed0993064618c5a156b6d8c320679645cf9de9097a62664736f6c63430008070033608060405234801561001057600080fd5b50612e5a806100206000396000f3fe608060405234801561001057600080fd5b50600436106102bb5760003560e01c80637bbf103311610182578063ba8d5468116100e9578063d38bfff4116100a2578063f164e2a71161007c578063f164e2a7146105fc578063f3466dfa14610610578063f633a74014610625578063fd2c80ae1461063857600080fd5b8063d38bfff4146105c9578063ddca3f43146105dc578063e3d346cd146105e957600080fd5b8063ba8d546814610577578063bbcaac3814610580578063c40f6aa914610593578063cd39f30f1461059b578063d0b06f09146105ae578063d11262a0146105c157600080fd5b806387f9ca5d1161013b57806387f9ca5d146104f557806389e59154146105085780639fd5524514610511578063ab47c2b314610524578063aced166114610551578063b9ed8abf1461056457600080fd5b80637bbf10331461047f5780637bfe789a1461049c5780637de93f93146104c85780637e71fc7d146104d15780638226f396146104da5780638456cb59146104ed57600080fd5b806346fdc99a116102265780636dc2b271116101df5780636dc2b27114610410578063748747e61461042357806375a024a214610436578063796da7af146104495780637b9e618d146104515780637bb98a681461046457600080fd5b806346fdc99a146103a05780634f64b2be146103a95780635aa6e675146103bc5780635c975abb146103cf5780635d36b190146103f35780636d3e313e146103fb57600080fd5b8063129011d011610278578063129011d01461032c5780632fd7d6431461033f5780633c3f8252146103475780633f4ba83a1461035a57806341275358146103625780634509017e1461038d57600080fd5b806303850dbb146102c057806304883c27146102dc578063062e0d69146102f45780630c96871a146102fc5780630d20a1dc14610306578063110b1bed14610319575b600080fd5b6102c9600a5481565b6040519081526020015b60405180910390f35b6102e461064f565b6040516102d39493929190612c25565b6102c9600081565b610304610706565b005b610304610314366004612829565b61084c565b6103046103273660046128b3565b6108bd565b61030461033a3660046129f1565b610941565b6103046113b2565b6103046103553660046129cf565b61141e565b6103046114ad565b600854610375906001600160a01b031681565b6040516001600160a01b0390911681526020016102d3565b600454610375906001600160a01b031681565b6102c9600c5481565b6103756103b7366004612a51565b61150f565b600354610375906001600160a01b031681565b6006546103e390600160a01b900460ff1681565b60405190151581526020016102d3565b61030461152f565b610403611650565b6040516102d39190612beb565b6103e361041e36600461286a565b611694565b6103046104313660046127ef565b611877565b6103046104443660046127ef565b61194b565b6102c96119be565b600d54610375906001600160a01b031681565b600154600254604080519283526020830191909152016102d3565b600454601354600160c01b90910463ffffffff16014210156103e3565b6004546104b390600160a01b900463ffffffff1681565b60405163ffffffff90911681526020016102d3565b6102c960135481565b6102c960025481565b601054610375906001600160a01b031681565b610304611a40565b610304610503366004612a8e565b611ad8565b6102c9600b5481565b600654610375906001600160a01b031681565b60055461053890600160801b900460801b81565b6040516001600160801b031990911681526020016102d3565b600754610375906001600160a01b031681565b600f54610375906001600160a01b031681565b6102c960015481565b61030461058e3660046127ef565b611ba9565b6102c9600181565b600e54610375906001600160a01b031681565b6103046105bc36600461286a565b611ca8565b610304611d13565b6103046105d73660046127ef565b611d78565b6005546105389060801b81565b600954610375906001600160a01b031681565b6006546103e390600160a81b900460ff1681565b610618611ecd565b6040516102d39190612c51565b6103046106333660046129cf565b611f5b565b6004546104b390600160c01b900463ffffffff1681565b60006060600080600080600f60009054906101000a90046001600160a01b03166001600160a01b031663db6d8fcf6040518163ffffffff1660e01b815260040160006040518083038186803b1580156106a757600080fd5b505afa1580156106bb573d6000803e3d6000fd5b505050506040513d6000823e601f3d908101601f191682016040526106e39190810190612916565b60135460045492999198509650600160c01b90910463ffffffff16945092505050565b6003546001600160a01b031633146107395760405162461bcd60e51b815260040161073090612cc3565b60405180910390fd5b600654600160a01b900460ff166107815760405162461bcd60e51b815260206004820152600c60248201526b506f6f6c206973206c69766560a01b6044820152606401610730565b600d546040516370a0823160e01b81523060048201526001600160a01b039091169060009082906370a082319060240160206040518083038186803b1580156107c957600080fd5b505afa1580156107dd573d6000803e3d6000fd5b505050506040513d601f19601f8201168201806040525081019061080191906128fd565b600d5490915061081b906001600160a01b031633836121f5565b604051819033907f3304a35fcccaae1037a5405395dfc497e010ed92b42060cc21ac54cfb0e3e85090600090a35050565b600e546001600160a01b031633146108765760405162461bcd60e51b815260040161073090612c8c565b600654600160a01b900460ff16156108a05760405162461bcd60e51b815260040161073090612c64565b600d546108b8906001600160a01b0316848484612258565b505050565b600e546001600160a01b031633146108e75760405162461bcd60e51b815260040161073090612c8c565b600654600160a01b900460ff16156109115760405162461bcd60e51b815260040161073090612c64565b8215610933576108b88282601160005b01546001600160a01b031691906121f5565b6108b8828260116001610921565b600054610100900460ff168061095a575060005460ff16155b6109bd5760405162461bcd60e51b815260206004820152602e60248201527f496e697469616c697a61626c653a20636f6e747261637420697320616c72656160448201526d191e481a5b9a5d1a585b1a5e995960921b6064820152608401610730565b600054610100900460ff161580156109df576000805461ffff19166101011790555b60006109f36101c084016101a085016127ef565b6001600160a01b03161415610a3f5760405162461bcd60e51b81526020600482015260126024820152711199594818d85b9b9bdd081899481b9d5b1b60721b6044820152606401610730565b6000610a5361020084016101e085016127ef565b6001600160a01b03161415610aaa5760405162461bcd60e51b815260206004820152601f60248201527f536574746c656d656e7420746f6b656e2063616e6e6f74206265206e756c6c006044820152606401610730565b6000610abc60608401604085016127ef565b6001600160a01b03161415610b135760405162461bcd60e51b815260206004820152601d60248201527f4f7261636c6520777261707065722063616e6e6f74206265206e756c6c0000006044820152606401610730565b6000610b2560808401606085016127ef565b6001600160a01b03161415610b7c5760405162461bcd60e51b815260206004820152601c60248201527f4b6565706572206f7261636c652063616e6e6f74206265206e756c6c000000006044820152606401610730565b6000610b8b60208401846127ef565b6001600160a01b03161415610bd95760405162461bcd60e51b815260206004820152601460248201527313dddb995c8818d85b9b9bdd081899481b9d5b1b60621b6044820152606401610730565b6000610beb60408401602085016127ef565b6001600160a01b03161415610c3a5760405162461bcd60e51b815260206004820152601560248201527412d9595c195c8818d85b9b9bdd081899481b9d5b1b605a1b6044820152606401610730565b6000610c4c60a08401608085016127ef565b6001600160a01b03161415610ca35760405162461bcd60e51b815260206004820152601960248201527f4c6f6e6720746f6b656e2063616e6e6f74206265206e756c6c000000000000006044820152606401610730565b6000610cb560c0840160a085016127ef565b6001600160a01b03161415610d0c5760405162461bcd60e51b815260206004820152601a60248201527f53686f727420746f6b656e2063616e6e6f74206265206e756c6c0000000000006044820152606401610730565b6000610d1e60e0840160c085016127ef565b6001600160a01b03161415610d755760405162461bcd60e51b815260206004820152601c60248201527f506f6f6c436f6d6d69747465722063616e6e6f74206265206e756c6c000000006044820152606401610730565b6000610d88610100840160e085016127ef565b6001600160a01b03161415610ddf5760405162461bcd60e51b815260206004820152601d60248201527f496e76617269616e74436865636b2063616e6e6f74206265206e756c6c0000006044820152606401610730565b670de0b6b3a764000082610180013510610e295760405162461bcd60e51b815260206004820152600b60248201526a466565203e3d203130302560a81b6044820152606401610730565b60648261020001351115610e8e5760405162461bcd60e51b815260206004820152602660248201527f5365636f6e64617279206665652073706c69742063616e6e6f7420657863656560448201526564203130302560d01b6064820152608401610730565b610ea061016083016101408401612b3d565b63ffffffff16610ef25760405162461bcd60e51b815260206004820152601b60248201527f55706461746520696e74657276616c2063616e6e6f74206265203000000000006044820152606401610730565b610eff60208301836127ef565b600380546001600160a01b0319166001600160a01b0392909216919091179055610f2f60408301602084016127ef565b600780546001600160a01b0319166001600160a01b0392909216919091179055610f5f60608301604084016127ef565b600f80546001600160a01b0319166001600160a01b0392909216919091179055610f8f60808301606084016127ef565b601080546001600160a01b0319166001600160a01b0392909216919091179055610fc161020083016101e084016127ef565b600d80546001600160a01b0319166001600160a01b0392909216919091179055610ff2610100830160e084016127ef565b600480546001600160a01b0319166001600160a01b039290921691909117905561102461014083016101208401612b3d565b6004805463ffffffff92909216600160a01b0263ffffffff60a01b1990921691909117905561105b61016083016101408401612b3d565b6004805463ffffffff92909216600160c01b0263ffffffff60c01b19909216919091178155604051636fedf26d60e11b81527371dBdA135d5A9F64306fd22e00E59a5fEdFB86F99163dfdbe4da916110be91610180870135910190815260200190565b60206040518083038186803b1580156110d657600080fd5b505af41580156110ea573d6000803e3d6000fd5b505050506040513d601f19601f8201168201806040525081019061110e91906128d3565b600580546001600160801b03191660809290921c9190911790557371dBdA135d5A9F64306fd22e00E59a5fEdFB86F963dfdbe4da61115461018085016101608601612a2d565b6040516001600160e01b031960e084901b16815261ffff909116600482015260240160206040518083038186803b15801561118e57600080fd5b505af41580156111a2573d6000803e3d6000fd5b505050506040513d601f19601f820116820180604052508101906111c691906128d3565b6005805460809290921c600160801b026fffffffffffffffffffffffffffffffff9092169190911790556112026101c083016101a084016127ef565b600880546001600160a01b0319166001600160a01b03929092169190911790556112346101e083016101c084016127ef565b600980546001600160a01b0319166001600160a01b0392909216919091179055610200820135600a554260135561126f610100830183612cfa565b61127b91601491612738565b5061128c60a08301608084016127ef565b601160000180546001600160a01b0319166001600160a01b03929092169190911790556112bf60c0830160a084016127ef565b601160010180546001600160a01b0319166001600160a01b03929092169190911790556112f260e0830160c084016127ef565b600e80546001600160a01b0319166001600160a01b039290921691909117905561132260c0830160a084016127ef565b6001600160a01b031661133b60a08401608085016127ef565b6001600160a01b03167fbc8bd61e5dd69ff5cb8c389529c029503515ba368eaafbdaa406e072fdd3607261137761020086016101e087016127ef565b611385610100870187612cfa565b60405161139493929190612bab565b60405180910390a380156113ae576000805461ff00191690555b5050565b600b80546000909155600854600d546113d8916001600160a01b039182169116836121f5565b6008546040518281526001600160a01b03909116907fe756bfac49549fbcb50e6d0f75a98c96a16261fbaf06f41dd35de05f2902fa4e906020015b60405180910390a250565b600e546001600160a01b031633146114485760405162461bcd60e51b815260040161073090612c8c565b600654600160a01b900460ff16156114725760405162461bcd60e51b815260040161073090612c64565b60028290556001819055604051819083907fb31885164844201997ff1f41bcad765029c634f5183880298a4c69ec4540d89f90600090a35050565b6003546001600160a01b031633146114d75760405162461bcd60e51b815260040161073090612cc3565b6006805460ff60a01b191690556040517fa45f47fdea8a1efdd9029a5691c7f759c32b7c698632b563573e155625d1693390600090a1565b6011816002811061151f57600080fd5b01546001600160a01b0316905081565b600654600160a81b900460ff166115885760405162461bcd60e51b815260206004820152601b60248201527f4e6f20676f7665726e616e6365206368616e67652061637469766500000000006044820152606401610730565b6006546001600160a01b03163381146115e35760405162461bcd60e51b815260206004820152601860248201527f4e6f742070726f766973696f6e616c20676f7665726e6f7200000000000000006044820152606401610730565b6003546040516001600160a01b038084169216907f023588d3d1dcaad34e471c9e01b616b794156174bc693539c8fe15c0bfd5d82690600090a3600380546001600160a01b0319166001600160a01b039290921691909117905560068054600161ff0160a01b0319169055565b6116586127bc565b60408051808201918290529060119060029082845b81546001600160a01b0316815260019091019060200180831161166d575050505050905090565b600754604080516342bd698960e11b815290516000926001600160a01b03169163857ad31291600480830192602092919082900301818787803b1580156116da57600080fd5b505af11580156116ee573d6000803e3d6000fd5b505050506040513d601f19601f82011682018060405250810190611712919061280c565b6001600160a01b0316336001600160a01b0316146117725760405162461bcd60e51b815260206004820152601c60248201527f6d73672e73656e646572206e6f74206b656570657252657761726473000000006044820152606401610730565b600654600160a01b900460ff161561179c5760405162461bcd60e51b815260040161073090612c64565b6001546002546117ac8183612d48565b84106117bd57600092505050611871565b60405163dc35bc1360e01b81526004810185905260248101839052604481018290527371dBdA135d5A9F64306fd22e00E59a5fEdFB86F99063dc35bc1390606401604080518083038186803b15801561181557600080fd5b505af4158015611829573d6000803e3d6000fd5b505050506040513d601f19601f8201168201806040525081019061184d9190612a6a565b600255600155600d5461186a906001600160a01b031686866121f5565b6001925050505b92915050565b6003546001600160a01b031633146118a15760405162461bcd60e51b815260040161073090612cc3565b6001600160a01b0381166118ef5760405162461bcd60e51b815260206004820152601560248201527412d9595c195c8818d85b9b9bdd081899481b9d5b1b605a1b6044820152606401610730565b6007546040516001600160a01b038084169216907f402b3f9a8de3e388e7653c7a5892204fe18b579c8c23db19d6e00f1043ceb92190600090a3600780546001600160a01b0319166001600160a01b0392909216919091179055565b6009546001600160a01b0316331461196257600080fd5b6009546040516001600160a01b038084169216907f4a1fe1b44fae78218ab520acca2aaba5067e706a4084bccf913f291c8d6e074990600090a3600980546001600160a01b0319166001600160a01b0392909216919091179055565b600f5460408051634c6afee560e11b815290516000926001600160a01b0316916398d5fdca916004808301926020929190829003018186803b158015611a0357600080fd5b505afa158015611a17573d6000803e3d6000fd5b505050506040513d601f19601f82011682018060405250810190611a3b91906128fd565b905090565b6004546001600160a01b03163314611a9a5760405162461bcd60e51b815260206004820152601d60248201527f6d73672e73656e646572206e6f7420696e76617269616e74436865636b0000006044820152606401610730565b6006805460ff60a01b1916600160a01b1790556040517f9e87fac88ff661f02d44f95383c817fece4bce600a3dab7a54406878b965e75290600090a1565b600e546001600160a01b03163314611b025760405162461bcd60e51b815260040161073090612c8c565b600654600160a01b900460ff1615611b2c5760405162461bcd60e51b815260040161073090612c64565b60118360028110611b3f57611b3f612dd5565b0154604051632770a7eb60e21b81526001600160a01b0383811660048301526024820185905290911690639dc29fac90604401600060405180830381600087803b158015611b8c57600080fd5b505af1158015611ba0573d6000803e3d6000fd5b50505050505050565b6003546001600160a01b03163314611bd35760405162461bcd60e51b815260040161073090612cc3565b600654600160a01b900460ff1615611bfd5760405162461bcd60e51b815260040161073090612c64565b6001600160a01b038116611c4c5760405162461bcd60e51b81526020600482015260166024820152751058d8dbdd5b9d0818d85b9b9bdd081899481b9d5b1b60521b6044820152606401610730565b6008546040516001600160a01b038084169216907f11f35a22548bcd4c3788ab4a7e4fba427a2014f02e5d5e2da9af62212c03183f90600090a3600880546001600160a01b0319166001600160a01b0392909216919091179055565b600e546001600160a01b03163314611cd25760405162461bcd60e51b815260040161073090612c8c565b600654600160a01b900460ff1615611cfc5760405162461bcd60e51b815260040161073090612c64565b600d546113ae906001600160a01b031683836121f5565b600c80546000909155600954600d54611d39916001600160a01b039182169116836121f5565b6009546040518281526001600160a01b03909116907f2f76018fcfcd8aaaa8299da890bcca2dfebfc638250a89e5785b34bdc68b636390602001611413565b6003546001600160a01b03163314611da25760405162461bcd60e51b815260040161073090612cc3565b6003546001600160a01b0382811691161415611e265760405162461bcd60e51b815260206004820152603f60248201527f4e657720676f7665726e616e636520616464726573732063616e6e6f7420626560448201527f2073616d65206173206f6c6420676f7665726e616e63652061646472657373006064820152608401610730565b6001600160a01b038116611e7c5760405162461bcd60e51b815260206004820152601960248201527f476f7665726e616e63652063616e6e6f74206265206e756c6c000000000000006044820152606401610730565b60068054600161ff0160a01b0319166001600160a01b038316908117600160a81b179091556040517f35681f4f23137fb58510a9854f1b6e95f90a2cf0b66d2fce4df74cc0becc82d590600090a250565b60148054611eda90612d9a565b80601f0160208091040260200160405190810160405280929190818152602001828054611f0690612d9a565b8015611f535780601f10611f2857610100808354040283529160200191611f53565b820191906000526020600020905b815481529060010190602001808311611f3657829003601f168201915b505050505081565b6007546001600160a01b03163314611fad5760405162461bcd60e51b815260206004820152601560248201527436b9b39739b2b73232b9103737ba1035b2b2b832b960591b6044820152606401610730565b600654600160a01b900460ff1615611fd75760405162461bcd60e51b815260040161073090612c64565b600454601354600160c01b90910463ffffffff160142101561203b5760405162461bcd60e51b815260206004820152601d60248201527f55706461746520696e74657276616c206861736e2774207061737365640000006044820152606401610730565b601380544290915561204d8383612296565b600e5460048054600254600154604051638f5b8e8760e01b8152938401869052600160c01b90920463ffffffff1660248401526044830152606482015260009182918291829182916001600160a01b031690638f5b8e879060840160a060405180830381600087803b1580156120c257600080fd5b505af11580156120d6573d6000803e3d6000fd5b505050506040513d601f19601f820116820180604052508101906120fa9190612afd565b6013819055600283905560018290559398509196509450925090508415612180576011546040516340c10f1960e01b8152306004820152602481018790526001600160a01b03909116906340c10f1990604401600060405180830381600087803b15801561216757600080fd5b505af115801561217b573d6000803e3d6000fd5b505050505b83156121eb576012546040516340c10f1960e01b8152306004820152602481018690526001600160a01b03909116906340c10f1990604401600060405180830381600087803b1580156121d257600080fd5b505af11580156121e6573d6000803e3d6000fd5b505050505b5050505050505050565b6040516001600160a01b0383166024820152604481018290526108b890849063a9059cbb60e01b906064015b60408051601f198184030181529190526020810180516001600160e01b03166001600160e01b031990931692909217909152612420565b6040516001600160a01b03808516602483015283166044820152606481018290526122909085906323b872dd60e01b90608401612221565b50505050565b6000821315806122a7575060008113155b156122dd57604051819083907f27f70c863f1bd3e335bb4d6bf2a31075c861752f0b21a03b816a356035b1dec690600090a35050565b60015460025460055460405163b89bf2ef60e01b81526004810183905260248101849052600160801b8204608090811b6001600160801b03199081166044840152606483018890526084830187905292901b90911660a48201526000908190819081907371dBdA135d5A9F64306fd22e00E59a5fEdFB86F99063b89bf2ef9060c40160806040518083038186803b15801561237757600080fd5b505af415801561238b573d6000803e3d6000fd5b505050506040513d601f19601f820116820180604052508101906123af9190612ac7565b604080518b850381528a8603602082015290810182905260608101839052939750919550935091507ff1e6677cbfc1dcb704bc91fc51ba87e318c4ed18c6a5571907e52a09a2c0f9aa9060800160405180910390a1600284905560018390556121eb61241b8284612d48565b6124f2565b6000612475826040518060400160405280602081526020017f5361666545524332303a206c6f772d6c6576656c2063616c6c206661696c6564815250856001600160a01b03166125be9092919063ffffffff16565b8051909150156108b857808060200190518101906124939190612896565b6108b85760405162461bcd60e51b815260206004820152602a60248201527f5361666545524332303a204552433230206f7065726174696f6e20646964206e6044820152691bdd081cdd58d8d9595960b21b6064820152608401610730565b6009546001600160a01b031661250d57600b80548201905550565b600a5460405163fea3de3360e01b81526004810183905260248101919091526064604482018190526000917371dBdA135d5A9F64306fd22e00E59a5fEdFB86F99163fea3de33910160206040518083038186803b15801561256d57600080fd5b505af4158015612581573d6000803e3d6000fd5b505050506040513d601f19601f820116820180604052508101906125a591906128fd565b600c805482019055600b80549184039091019055505b50565b60606125cd84846000856125d7565b90505b9392505050565b6060824710156126385760405162461bcd60e51b815260206004820152602660248201527f416464726573733a20696e73756666696369656e742062616c616e636520666f6044820152651c8818d85b1b60d21b6064820152608401610730565b843b6126865760405162461bcd60e51b815260206004820152601d60248201527f416464726573733a2063616c6c20746f206e6f6e2d636f6e74726163740000006044820152606401610730565b600080866001600160a01b031685876040516126a29190612b8f565b60006040518083038185875af1925050503d80600081146126df576040519150601f19603f3d011682016040523d82523d6000602084013e6126e4565b606091505b50915091506126f48282866126ff565b979650505050505050565b6060831561270e5750816125d0565b82511561271e5782518084602001fd5b8160405162461bcd60e51b81526004016107309190612c51565b82805461274490612d9a565b90600052602060002090601f01602090048101928261276657600085556127ac565b82601f1061277f5782800160ff198235161785556127ac565b828001600101855582156127ac579182015b828111156127ac578235825591602001919060010190612791565b506127b89291506127da565b5090565b60405180604001604052806002906020820280368337509192915050565b5b808211156127b857600081556001016127db565b60006020828403121561280157600080fd5b81356125d081612e01565b60006020828403121561281e57600080fd5b81516125d081612e01565b60008060006060848603121561283e57600080fd5b833561284981612e01565b9250602084013561285981612e01565b929592945050506040919091013590565b6000806040838503121561287d57600080fd5b823561288881612e01565b946020939093013593505050565b6000602082840312156128a857600080fd5b81516125d081612e16565b6000806000606084860312156128c857600080fd5b833561284981612e16565b6000602082840312156128e557600080fd5b81516001600160801b0319811681146125d057600080fd5b60006020828403121561290f57600080fd5b5051919050565b6000806040838503121561292957600080fd5b82519150602083015167ffffffffffffffff8082111561294857600080fd5b818501915085601f83011261295c57600080fd5b81518181111561296e5761296e612deb565b604051601f8201601f19908116603f0116810190838211818310171561299657612996612deb565b816040528281528860208487010111156129af57600080fd5b6129c0836020830160208801612d6e565b80955050505050509250929050565b600080604083850312156129e257600080fd5b50508035926020909101359150565b600060208284031215612a0357600080fd5b813567ffffffffffffffff811115612a1a57600080fd5b820161022081850312156125d057600080fd5b600060208284031215612a3f57600080fd5b813561ffff811681146125d057600080fd5b600060208284031215612a6357600080fd5b5035919050565b60008060408385031215612a7d57600080fd5b505080516020909101519092909150565b600080600060608486031215612aa357600080fd5b83359250602084013591506040840135612abc81612e01565b809150509250925092565b60008060008060808587031215612add57600080fd5b505082516020840151604085015160609095015191969095509092509050565b600080600080600060a08688031215612b1557600080fd5b5050835160208501516040860151606087015160809097015192989197509594509092509050565b600060208284031215612b4f57600080fd5b813563ffffffff811681146125d057600080fd5b60008151808452612b7b816020860160208601612d6e565b601f01601f19169290920160200192915050565b60008251612ba1818460208701612d6e565b9190910192915050565b6001600160a01b03841681526040602082018190528101829052818360608301376000818301606090810191909152601f909201601f1916010192915050565b60408101818360005b6002811015612c1c5781516001600160a01b0316835260209283019290910190600101612bf4565b50505092915050565b848152608060208201526000612c3e6080830186612b63565b6040830194909452506060015292915050565b6020815260006125d06020830184612b63565b6020808252600e908201526d141bdbdb081a5cc81c185d5cd95960921b604082015260600190565b6020808252601c908201527f6d73672e73656e646572206e6f7420706f6f6c436f6d6d697474657200000000604082015260600190565b60208082526019908201527f6d73672e73656e646572206e6f7420676f7665726e616e636500000000000000604082015260600190565b6000808335601e19843603018112612d1157600080fd5b83018035915067ffffffffffffffff821115612d2c57600080fd5b602001915036819003821315612d4157600080fd5b9250929050565b60008219821115612d6957634e487b7160e01b600052601160045260246000fd5b500190565b60005b83811015612d89578181015183820152602001612d71565b838111156122905750506000910152565b600181811c90821680612dae57607f821691505b60208210811415612dcf57634e487b7160e01b600052602260045260246000fd5b50919050565b634e487b7160e01b600052603260045260246000fd5b634e487b7160e01b600052604160045260246000fd5b6001600160a01b03811681146125bb57600080fd5b80151581146125bb57600080fdfea2646970667358221220b289bcb4ec762e32136f723a5a30423e5b2feeaf8b79514c291662c14eba004d64736f6c634300080700336080604052600180546001600160801b0319168117905534801561002257600080fd5b50614e8c806100326000396000f3fe6080604052600436106102935760003560e01c80638f5b8e871161015a578063c45a0155116100c1578063ea348c9a1161007a578063ea348c9a146108fc578063f14fcbc814610953578063f3fa35a0146105eb578063f9dc972014610966578063fa87166514610986578063fe5898581461099b57600080fd5b8063c45a01551461084a578063c70db3231461086a578063ce66091614610890578063d4c4e283146108a6578063e20acc79146108bb578063e323aac6146108dc57600080fd5b8063af91497611610113578063af91497614610780578063b27a048414610796578063b59d88a9146107e0578063b9fc75b0146107f5578063c3bed53f14610815578063c40f6aa91461083557600080fd5b80638f5b8e871461062957806390f712cc1461067157806397ac250f1461068b5780639a546848146106a15780639d03132e146107405780639fa21dca1461076057600080fd5b806355c10624116101fe5780636fa1268e116101b75780636fa1268e146105785780637403c6cd146105965780638456cb59146105b6578063882d882b146105cb57806388b78aaa146105eb5780638d7269fa1461060957600080fd5b806355c106241461048b5780635a64ad95146104c65780635aa6e675146104e75780635c975abb146105075780636333091a146105385780636999b3771461055857600080fd5b80633ed4c678116102505780633ed4c6781461039c5780633f4ba83a146103bc5780634437152a146103d15780634509017e146103f15780634f64b2be1461042957806354da49921461044957600080fd5b8063062e0d69146102985780631aabc7e7146102ca5780631d92c26d146103135780631e83409a1461033a578063238a47091461035c578063384564e31461037c575b600080fd5b3480156102a457600080fd5b506102ad600081565b6040516001600160801b0390911681526020015b60405180910390f35b3480156102d657600080fd5b506102fa6102e5366004614a32565b60066020526000908152604090205460801b81565b6040516001600160801b031990911681526020016102c1565b34801561031f57600080fd5b50610328600f81565b60405160ff90911681526020016102c1565b34801561034657600080fd5b5061035a610355366004614881565b610a18565b005b34801561036857600080fd5b5061035a610377366004614a32565b610de4565b34801561038857600080fd5b5061035a610397366004614a32565b610f40565b3480156103a857600080fd5b5061035a6103b7366004614881565b6110a7565b3480156103c857600080fd5b5061035a611160565b3480156103dd57600080fd5b5061035a6103ec366004614881565b6111f2565b3480156103fd57600080fd5b50601454610411906001600160a01b031681565b6040516001600160a01b0390911681526020016102c1565b34801561043557600080fd5b50610411610444366004614a32565b61136a565b34801561045557600080fd5b50610469610464366004614881565b61138a565b60408051825181526020808401519082015291810151908201526060016102c1565b34801561049757600080fd5b506104b86104a6366004614881565b600d6020526000908152604090205481565b6040519081526020016102c1565b3480156104d257600080fd5b506001546102fa90600160801b900460801b81565b3480156104f357600080fd5b50601154610411906001600160a01b031681565b34801561051357600080fd5b5060145461052890600160a01b900460ff1681565b60405190151581526020016102c1565b34801561054457600080fd5b50610528610553366004614a4b565b611615565b34801561056457600080fd5b50601254610411906001600160a01b031681565b34801561058457600080fd5b506102fa66201bb1a2bc2ec560c91b81565b3480156105a257600080fd5b5061035a6105b136600461489e565b61164f565b3480156105c257600080fd5b5061035a611c18565b3480156105d757600080fd5b506105286105e6366004614a4b565b611cb0565b3480156105f757600080fd5b506102fa668075782dace9d960c71b81565b34801561061557600080fd5b50610528610624366004614a4b565b611cd4565b34801561063557600080fd5b50610649610644366004614b6a565b611cf9565b604080519586526020860194909452928401919091526060830152608082015260a0016102c1565b34801561067d57600080fd5b506002546102fa9060801b81565b34801561069757600080fd5b506104b860095481565b3480156106ad57600080fd5b5061070b6106bc366004614928565b600c602052816000526040600020602052806000526040600020600091509150508060000154908060010154908060020154908060030154908060040154908060050154908060060154905087565b604080519788526020880196909652948601939093526060850191909152608084015260a083015260c082015260e0016102c1565b34801561074c57600080fd5b506001546102ad906001600160801b031681565b34801561076c57600080fd5b5061035a61077b366004614881565b6121e7565b34801561078c57600080fd5b506104b8600a5481565b3480156107a257600080fd5b506107d26107b1366004614a32565b600560205260009081526040902054608081811b91600160801b9004901b82565b6040516102c1929190614bc2565b3480156107ec57600080fd5b506104b8612722565b34801561080157600080fd5b506104b8610810366004614928565b6127c4565b34801561082157600080fd5b50610528610830366004614a4b565b6127f5565b34801561084157600080fd5b506102ad600181565b34801561085657600080fd5b50601054610411906001600160a01b031681565b34801561087657600080fd5b50600054610411906201000090046001600160a01b031681565b34801561089c57600080fd5b506104b860085481565b3480156108b257600080fd5b506102ad6127fd565b3480156108c757600080fd5b506002546102fa90600160801b900460801b81565b3480156108e857600080fd5b50601354610411906001600160a01b031681565b34801561090857600080fd5b50610938610917366004614881565b60076020526000908152604090208054600182015460029092015490919083565b604080519384526020840192909252908201526060016102c1565b61035a610961366004614a32565b612a1d565b34801561097257600080fd5b5061035a610981366004614a32565b6130fd565b34801561099257600080fd5b506104b8613246565b3480156109a757600080fd5b506109eb6109b6366004614a32565b600b60205260009081526040902080546001820154600283015460038401546004850154600590950154939492939192909186565b604080519687526020870195909552938501929092526060840152608083015260a082015260c0016102c1565b80336001600160a01b0382161480610a4057506000546201000090046001600160a01b031633145b610a9f5760405162461bcd60e51b815260206004820152602560248201527f6d73672e73656e646572206e6f7420636f6d6d6974746572206f72204175746f604482015264436c61696d60d81b60648201526084015b60405180910390fd5b601454600160a01b900460ff1615610aea5760405162461bcd60e51b815260206004820152600e60248201526d141bdbdb081a5cc81c185d5cd95960921b6044820152606401610a96565b610af3826121e7565b6001600160a01b0380831660008181526007602081815260408084208151606081018352815481526001820180548286015260028301805483860152601354898952969095529186905590859055918490555190949190911692917f0c7ef932d3b91976772937f18d5ef9b39a9930bef486b576c374f047c4b512dc91a2336001600160a01b038516148015610c0e5750600054604051631107d3c960e31b81526001600160a01b038681166004830152306024830152620100009092049091169063883e9e489060440160206040518083038186803b158015610bd657600080fd5b505afa158015610bea573d6000803e3d6000fd5b505050506040513d601f19601f82011682018060405250810190610c0e91906149e6565b15610c7a576000546040516307119aeb60e01b81526001600160a01b03868116600483015262010000909204909116906307119aeb90602401600060405180830381600087803b158015610c6157600080fd5b505af1158015610c75573d6000803e3d6000fd5b505050505b604082015115610cee57604082810151905163d0b06f0960e01b81526001600160a01b03868116600483015260248201929092529082169063d0b06f0990604401600060405180830381600087803b158015610cd557600080fd5b505af1158015610ce9573d6000803e3d6000fd5b505050505b815115610d6357815160405163110b1bed60e01b8152600160048201526001600160a01b03868116602483015260448201929092529082169063110b1bed90606401600060405180830381600087803b158015610d4a57600080fd5b505af1158015610d5e573d6000803e3d6000fd5b505050505b602082015115610dde57602082015160405163110b1bed60e01b8152600060048201526001600160a01b03868116602483015260448201929092529082169063110b1bed90606401600060405180830381600087803b158015610dc557600080fd5b505af1158015610dd9573d6000803e3d6000fd5b505050505b50505050565b6012546001600160a01b03163314610e0e5760405162461bcd60e51b8152600401610a9690614c3c565b604051636fedf26d60e11b8152600481018290527371dBdA135d5A9F64306fd22e00E59a5fEdFB86F99063dfdbe4da9060240160206040518083038186803b158015610e5957600080fd5b505af4158015610e6d573d6000803e3d6000fd5b505050506040513d601f19601f82011682018060405250810190610e919190614a08565b60018054608092831c600160801b9081026001600160801b039092169190911791829055668075782dace9d960c71b910490911b6001600160801b0319161115610f125760405162461bcd60e51b81526020600482015260126024820152714d696e74696e6720666565203e203130302560701b6044820152606401610a96565b60405181907f07aefbcc0d8cdf34e241279c78d93d1df9540b5a60d320437958df12ef59e46390600090a250565b6012546001600160a01b03163314610f6a5760405162461bcd60e51b8152600401610a9690614c3c565b604051636fedf26d60e11b8152600481018290527371dBdA135d5A9F64306fd22e00E59a5fEdFB86F99063dfdbe4da9060240160206040518083038186803b158015610fb557600080fd5b505af4158015610fc9573d6000803e3d6000fd5b505050506040513d601f19601f82011682018060405250810190610fed9190614a08565b60028054608092831c600160801b9081026001600160801b039092169190911791829055668075782dace9d960c71b910490911b6001600160801b03191611156110795760405162461bcd60e51b815260206004820152601d60248201527f4368616e676520496e74657276616c2065786365656473206c696d69740000006044820152606401610a96565b60405181907f1f609e633399cb8530717d1970d31255fae2af322c2c3b90793cc1c1a7fe88be90600090a250565b6011546001600160a01b03163314806110ca57506012546001600160a01b031633145b6111165760405162461bcd60e51b815260206004820152601860248201527f43616e6e6f742073657420666565436f6e74726f6c6c657200000000000000006044820152606401610a96565b601280546001600160a01b0319166001600160a01b0383169081179091556040517f4645d48e2e83635dc48865c27880f748bc610aab2e41ca3358057b565ff56a5790600090a250565b6011546001600160a01b031633146111ba5760405162461bcd60e51b815260206004820152601960248201527f6d73672e73656e646572206e6f7420676f7665726e616e6365000000000000006044820152606401610a96565b6014805460ff60a01b191690556040517fa45f47fdea8a1efdd9029a5691c7f759c32b7c698632b563573e155625d1693390600090a1565b6010546001600160a01b031633146112455760405162461bcd60e51b8152602060048201526016602482015275436f6d6d69747465723a206e6f7420666163746f727960501b6044820152606401610a96565b6001600160a01b03811661129b5760405162461bcd60e51b815260206004820152601d60248201527f4c657665726167656420706f6f6c2063616e6e6f74206265206e756c6c0000006044820152606401610a96565b601380546001600160a01b0319166001600160a01b0383169081179091556040805163369f189f60e11b81528151636d3e313e92600480840193919291829003018186803b1580156112ec57600080fd5b505afa158015611300573d6000803e3d6000fd5b505050506040513d601f19601f820116820180604052508101906113249190614954565b6113329060039060026147b3565b506040516001600160a01b038216907fa84ed99a050d1610bc3dddf2c220cd77842a3ab1a46664af49062a70417debdf90600090a250565b6003816002811061137a57600080fd5b01546001600160a01b0316905081565b6113ae60405180606001604052806000815260200160008152602001600081525090565b6001600160a01b0382166000818152600760209081526040808320815160608082018452825482526001808401548387015260029093015482850152835160e08101855292546001600160801b0316835282850186905282840186905282018590526080820185905260a0820185905260c08201859052948452600e8352818420805483518186028101860190945280845291949390919083018282801561147557602002820191906000526020600020905b815481526020019060010190808311611461575b5050835193945050600f83109150611490905057600f611492565b805b60ff1660c084015260005b8360c0015160ff168110156115c15760008382815181106114c0576114c0614e15565b6020026020010151905080600014156114d957506115b9565b6001600160a01b0388166000908152600c60209081526040808320848452825291829020825160e08101845281548152600180830154938201939093526002820154938101939093526003810154606084015260048101546080840152600581015460a08401526006015460c0830181905290546001600160801b031611156115b657600061156782613292565b905080600001518760200181815161157f9190614d62565b9052506020810151604088018051611598908390614d62565b90525060808101516060880180516115b1908390614d62565b905250505b50505b60010161149d565b506020830151845185906115d6908390614d62565b90525060408301516020850180516115ef908390614d62565b9052506060830151604085018051611608908390614d62565b9052509295945050505050565b6000600282600581111561162b5761162b614de9565b1480611649575060005b82600581111561164757611647614de9565b145b92915050565b600054610100900460ff1680611668575060005460ff16155b6116cb5760405162461bcd60e51b815260206004820152602e60248201527f496e697469616c697a61626c653a20636f6e747261637420697320616c72656160448201526d191e481a5b9a5d1a585b1a5e995960921b6064820152608401610a96565b600054610100900460ff161580156116ed576000805461ffff19166101011790555b6001600160a01b03891661173c5760405162461bcd60e51b8152602060048201526016602482015275119858dd1bdc9e4818d85b9b9bdd081899481b9d5b1b60521b6044820152606401610a96565b6001600160a01b0388166117925760405162461bcd60e51b815260206004820152601860248201527f4175746f436c61696d2063616e6e6f74206265206e756c6c00000000000000006044820152606401610a96565b6001600160a01b0386166117e85760405162461bcd60e51b815260206004820152601d60248201527f66656520636f6e74726f6c6c65722063616e6e6f74206265206e756c6c0000006044820152606401610a96565b6001600160a01b03851661183e5760405162461bcd60e51b815260206004820152601d60248201527f696e76617269616e74436865636b2063616e6e6f74206265206e756c6c0000006044820152606401610a96565b600180546001600160801b03191681179055601080546001600160a01b038b81166001600160a01b0319928316179092556014805492881692909116919091179055604051636fedf26d60e11b8152600481018590527371dBdA135d5A9F64306fd22e00E59a5fEdFB86F99063dfdbe4da9060240160206040518083038186803b1580156118cb57600080fd5b505af41580156118df573d6000803e3d6000fd5b505050506040513d601f19601f820116820180604052508101906119039190614a08565b6001805460809290921c600160801b026001600160801b03909216919091179055604051636fedf26d60e11b8152600481018490527371dBdA135d5A9F64306fd22e00E59a5fEdFB86F99063dfdbe4da9060240160206040518083038186803b15801561196f57600080fd5b505af4158015611983573d6000803e3d6000fd5b505050506040513d601f19601f820116820180604052508101906119a79190614a08565b600280546001600160801b03191660809290921c919091179055604051636fedf26d60e11b8152600481018390527371dBdA135d5A9F64306fd22e00E59a5fEdFB86F99063dfdbe4da9060240160206040518083038186803b158015611a0c57600080fd5b505af4158015611a20573d6000803e3d6000fd5b505050506040513d601f19601f82011682018060405250810190611a449190614a08565b600280546001600160801b0316600160801b608093841c810291909117909155600154668075782dace9d960c71b6001600160801b03199290910490921b161115611ad15760405162461bcd60e51b815260206004820152601960248201527f4d696e74696e67206665652065786365656473206c696d6974000000000000006044820152606401610a96565b60025466201bb1a2bc2ec560c91b60809190911b6001600160801b0319161115611b3d5760405162461bcd60e51b815260206004820152601960248201527f4275726e696e67206665652065786365656473206c696d6974000000000000006044820152606401610a96565b600254668075782dace9d960c71b600160801b90910460801b6001600160801b0319161115611bae5760405162461bcd60e51b815260206004820152601d60248201527f4368616e676520496e74657276616c2065786365656473206c696d69740000006044820152606401610a96565b601280546001600160a01b038089166001600160a01b031992831617909255600080548b8416620100000262010000600160b01b031990911617905560118054928a16929091169190911790558015611c0d576000805461ff00191690555b505050505050505050565b6014546001600160a01b03163314611c725760405162461bcd60e51b815260206004820152601d60248201527f6d73672e73656e646572206e6f7420696e76617269616e74436865636b0000006044820152606401610a96565b6014805460ff60a01b1916600160a01b1790556040517f9e87fac88ff661f02d44f95383c817fece4bce600a3dab7a54406878b965e75290600090a1565b60006002826005811115611cc657611cc6614de9565b148061164957506003611635565b600060035b826005811115611ceb57611ceb614de9565b148061164957506001611635565b60135460009081908190819081906001600160a01b03163314611d5e5760405162461bcd60e51b815260206004820152601c60248201527f6d73672e73656e646572206e6f74206c6576657261676564506f6f6c000000006044820152606401610a96565b6040805160a081018083526003546318160ddd60e01b90915291516001926000929182916001600160a01b0316906318160ddd9060a480850191602091818703018186803b158015611daf57600080fd5b505afa158015611dc3573d6000803e3d6000fd5b505050506040513d601f19601f82011682018060405250810190611de79190614aff565b8152602001600360010160009054906101000a90046001600160a01b03166001600160a01b03166318160ddd6040518163ffffffff1660e01b815260040160206040518083038186803b158015611e3d57600080fd5b505afa158015611e51573d6000803e3d6000fd5b505050506040513d601f19601f82011682018060405250810190611e759190614aff565b81526000602080830182905260408084018390526060938401929092528351918401919091528201519082015290505b600f60ff83161161202e57611ebd60ff83168b614d7a565b611ec7908c614d62565b421061201e57600180546001600160801b03908116608084810182815260028054600094855260066020908152604080872080546001600160801b031916939098169290921790965591518452600b855292819020815160c0810183528154815295810154948601949094529183015491840191909152600382015460608401526004820154908301526005015460a0820152611f6690828b8b61341a565b602085810193909352928452608080850151600254604051921b6001600160801b0319168252919c50929a50917f260463f9bbb6d40c58e9fc4e09a71c3f80fc18d818d6d9d5df86b2443722a59f910160405180910390a260808101516000908152600b60205260408120818155600180820183905560028201839055600382018390556004820183905560059091019190915580546001600160801b038082168301166001600160801b0319909116179055612023565b61202e565b600182019150611ea5565b8051604051635cf4ee9160e01b8152600481018b90526024810191909152612159907371dBdA135d5A9F64306fd22e00E59a5fEdFB86F990635cf4ee919060440160206040518083038186803b15801561208757600080fd5b505af415801561209b573d6000803e3d6000fd5b505050506040513d601f19601f820116820180604052508101906120bf9190614a08565b6020830151604051635cf4ee9160e01b81527371dBdA135d5A9F64306fd22e00E59a5fEdFB86F991635cf4ee9191612104918e91600401918252602082015260400190565b60206040518083038186803b15801561211c57600080fd5b505af4158015612130573d6000803e3d6000fd5b505050506040513d601f19601f820116820180604052508101906121549190614a08565b613bfb565b612164600183614db0565b6121719060ff168b614d7a565b61217b908c614d62565b42106121aa5761218c600183614db0565b6121999060ff168b614d7a565b6121a3908c614d62565b9a506121ae565b429a505b604081015181516121bf9190614d99565b816060015182602001516121d39190614d99565b909c909b999a509798979650505050505050565b6001600160a01b0381166000818152600760209081526040808320815160e0810183526001546001600160801b03168152808401859052808301859052606081018590526080810185905260a0810185905260c08101859052948452600e835281842080548351818602810186019094528084529195949390919083018282801561229157602002820191906000526020600020905b81548152602001906001019080831161227d575b5050835193945050600f831091506122ac905057600f6122ae565b805b60ff1660c084015260005b8360c0015160ff168110156125455760008382815181106122dc576122dc614e15565b6020026020010151905080600014156122f5575061253d565b6001600160a01b0387166000908152600c60209081526040808320848452825291829020825160e08101845281548152600180830154938201939093526002820154938101939093526003810154606084015260048101546080840152600581015460a08401526006015460c0830181905290546001600160801b031611156124fe57600061238382613292565b905080600001518760200181815161239b9190614d62565b90525060208101516040880180516123b4908390614d62565b90525060808101516060880180516123cd908390614d62565b90525060408101516080880180516123e6908390614d62565b905250606081015160a0880180516123ff908390614d62565b9052506001600160a01b0389166000818152600c6020908152604080832087845282528083208381556001810184905560028101849055600381018490556004810184905560058101849055600601839055928252600e905220600f8611801561246a575080546001105b80156124825750805461247f90600190614d99565b85105b156124d1578054819061249790600190614d99565b815481106124a7576124a7614e15565b90600052602060002001548186815481106124c4576124c4614e15565b6000918252602090912001555b808054806124e1576124e1614dff565b60019003818190600052602060002001600090559055505061253a565b600f841161253a57600f85848151811061251a5761251a614e15565b602090810291909101810151825460018101845560009384529190922001555b50505b6001016122b9565b50600f8111612582576001600160a01b0385166000908152600e60205260409020600f805461257592919061480b565b50612582600f600061484b565b826020015184600001600082825461259a9190614d62565b909155505060408301516001850180546000906125b8908490614d62565b909155505060608301516002850180546000906125d6908490614d62565b909155505060135460408051630f77314d60e31b815281516001600160a01b039093169260009283928592637bb98a6892600480840193919291829003018186803b15801561262457600080fd5b505afa158015612638573d6000803e3d6000fd5b505050506040513d601f19601f8201168201806040525081019061265c9190614b18565b91509150826001600160a01b0316633c3f825287608001518361267f9190614d62565b60a089015161268e9086614d62565b6040516001600160e01b031960e085901b16815260048101929092526024820152604401600060405180830381600087803b1580156126cc57600080fd5b505af11580156126e0573d6000803e3d6000fd5b50506040516001600160a01b038b1692507fdefa4140341b4fd283af41700779361dc94f34ae245a186b3b9c187033c065549150600090a25050505050505050565b60015460405163aeb64d7d60e01b8152600160801b90910460801b6001600160801b03191660048201526000907371dBdA135d5A9F64306fd22e00E59a5fEdFB86F99063aeb64d7d906024015b60206040518083038186803b15801561278757600080fd5b505af415801561279b573d6000803e3d6000fd5b505050506040513d601f19601f820116820180604052508101906127bf9190614aff565b905090565b600e60205281600052604060002081815481106127e057600080fd5b90600052602060002001600091509150505481565b600080611cd9565b60135460408051637de93f9360e01b815290516000926001600160a01b0316917371dBdA135d5A9F64306fd22e00E59a5fEdFB86F99163ff9afe879142918591637de93f93916004808301926020929190829003018186803b15801561286257600080fd5b505afa158015612876573d6000803e3d6000fd5b505050506040513d601f19601f8201168201806040525081019061289a9190614aff565b846001600160a01b0316637bfe789a6040518163ffffffff1660e01b815260040160206040518083038186803b1580156128d357600080fd5b505afa1580156128e7573d6000803e3d6000fd5b505050506040513d601f19601f8201168201806040525081019061290b9190614b9c565b856001600160a01b031663fd2c80ae6040518163ffffffff1660e01b815260040160206040518083038186803b15801561294457600080fd5b505afa158015612958573d6000803e3d6000fd5b505050506040513d601f19601f8201168201806040525081019061297c9190614b9c565b60015460405160e087901b6001600160e01b03191681526004810195909552602485019390935263ffffffff91821660448501521660648301526001600160801b0316608482015260a40160206040518083038186803b1580156129df57600080fd5b505af41580156129f3573d6000803e3d6000fd5b505050506040513d601f19601f82011682018060405250810190612a179190614aff565b91505090565b6001600160801b03811660ff608083901c811690608884901c811690609085901c1683612a8c5760405162461bcd60e51b815260206004820152601760248201527f416d6f756e74206d757374206e6f74206265207a65726f0000000000000000006044820152606401610a96565b612a95336121e7565b60135460408051637e96405760e11b815290516001600160a01b0390921691600091839163fd2c80ae91600480820192602092909190829003018186803b158015612adf57600080fd5b505afa158015612af3573d6000803e3d6000fd5b505050506040513d601f19601f82011682018060405250810190612b179190614b9c565b63ffffffff1690506000826001600160a01b0316637de93f936040518163ffffffff1660e01b815260040160206040518083038186803b158015612b5a57600080fd5b505afa158015612b6e573d6000803e3d6000fd5b505050506040513d601f19601f82011682018060405250810190612b929190614aff565b90506000836001600160a01b0316637bfe789a6040518163ffffffff1660e01b815260040160206040518083038186803b158015612bcf57600080fd5b505afa158015612be3573d6000803e3d6000fd5b505050506040513d601f19601f82011682018060405250810190612c079190614b9c565b60015460405160016265017960e01b031981524260048201526024810185905263ffffffff9290921660448301819052606483018690526001600160801b03909116608483015291506000907371dBdA135d5A9F64306fd22e00E59a5fEdFB86F99063ff9afe879060a40160206040518083038186803b158015612c8a57600080fd5b505af4158015612c9e573d6000803e3d6000fd5b505050506040513d601f19601f82011682018060405250810190612cc29190614aff565b6000818152600b60209081526040808320338452600c835281842085855290925290912060068101549293509091612cfc57600681018390555b336000908152600e6020526040902054801580612d4d5750336000908152600e602052604090208490612d30600184614d99565b81548110612d4057612d40614e15565b9060005260206000200154105b15612d7557336000908152600e60209081526040822080546001810182559083529120018490555b604051633199848d60e11b81523090636333091a90612d98908e90600401614bdd565b60206040518083038186803b158015612db057600080fd5b505afa158015612dc4573d6000803e3d6000fd5b505050506040513d601f19601f82011682018060405250810190612de891906149e6565b8015612df15750895b15612e8057336000908152600760205260409020600201548c1115612e585760405162461bcd60e51b815260206004820152601e60248201527f496e73756666696369656e7420736574746c656d656e7420746f6b656e7300006044820152606401610a96565b33600090815260076020526040812060020180548e9290612e7a908490614d99565b90915550505b612e8e888c8e8d868861402f565b604051633199848d60e11b81523090636333091a90612eb1908e90600401614bdd565b60206040518083038186803b158015612ec957600080fd5b505afa158015612edd573d6000803e3d6000fd5b505050506040513d601f19601f82011682018060405250810190612f0191906149e6565b8015612f0b575089155b15612f7d57601354604051630348287760e21b81523360048201526001600160a01b039182166024820152604481018e905290891690630d20a1dc90606401600060405180830381600087803b158015612f6457600080fd5b505af1158015612f78573d6000803e3d6000fd5b505050505b881561302e5734612fc55760405162461bcd60e51b81526020600482015260126024820152714d7573742070617920666f7220636c61696d60701b6044820152606401610a96565b600054604051634da17a3f60e11b8152336004820152620100009091046001600160a01b031690639b42f47e9034906024016000604051808303818588803b15801561301057600080fd5b505af1158015613024573d6000803e3d6000fd5b5050505050613075565b34156130755760405162461bcd60e51b81526020600482015260166024820152756d73672e76616c7565206d757374206265207a65726f60501b6044820152606401610a96565b8a600581111561308757613087614de9565b600154604080518781528d151560208201528c151591810191909152600160801b909104608090811b6001600160801b03191660608301528e9133917f04f9dae5361dfaa5b3f324fc0af5e71bcb4d76e8324ad9ce78d70496c548d503910160405180910390a450505050505050505050505050565b6012546001600160a01b031633146131275760405162461bcd60e51b8152600401610a9690614c3c565b604051636fedf26d60e11b8152600481018290527371dBdA135d5A9F64306fd22e00E59a5fEdFB86F99063dfdbe4da9060240160206040518083038186803b15801561317257600080fd5b505af4158015613186573d6000803e3d6000fd5b505050506040513d601f19601f820116820180604052508101906131aa9190614a08565b60028054608092831c6001600160801b0319918216179182905566201bb1a2bc2ec560c91b9190921b909116106132185760405162461bcd60e51b81526020600482015260126024820152714275726e696e6720666565203e3d2031302560701b6044820152606401610a96565b60405181907f9bd544d4dd4e5359b6126812d7f52828638adf3d7beab61310fab58b27d811cc90600090a250565b60025460405163aeb64d7d60e01b815260809190911b6001600160801b03191660048201526000907371dBdA135d5A9F64306fd22e00E59a5fEdFB86F99063aeb64d7d9060240161276f565b6132c46040518060a0016040528060008152602001600081526020016000815260200160008152602001600081525090565b604080516101808101825260c08085018051600090815260056020818152868320546001600160801b0319608091821b811688528551855292825287842054600160801b90819004821b841683890152600154908104821b8416888a01526001600160801b03166060808901919091528551828901528a5160a0808a0191909152838c0151978901979097528a89015160e08901528a015161010088015294890151610120870152848901516101408701529251825260069092528490205490911b166101608201529051639eb17fa360e01b81527371dBdA135d5A9F64306fd22e00E59a5fEdFB86F990639eb17fa3906133c3908490600401614c73565b60a06040518083038186803b1580156133db57600080fd5b505af41580156133ef573d6000803e3d6000fd5b505050506040513d601f19601f820116820180604052508101906134139190614a8f565b9392505050565b6080830180516000908152600b602052604080822060020154925182528120546008549192839283928392916134509190614d99565b61345a9190614d99565b6008819055506000604051806101000160405280878b6040015161347e9190614d62565b8152602001888b600001516134939190614d62565b8152602001600081526020016000815260200160008152602001600081526020018a60a001518b602001516134c89190614d62565b81526020018a608001518b606001516134e19190614d62565b815250905060007371dBdA135d5A9F64306fd22e00E59a5fEdFB86F9635cf4ee9189600a548c600001516135159190614d62565b6040516001600160e01b031960e085901b1681526004810192909252602482015260440160206040518083038186803b15801561355157600080fd5b505af4158015613565573d6000803e3d6000fd5b505050506040513d601f19601f820116820180604052508101906135899190614a08565b905060007371dBdA135d5A9F64306fd22e00E59a5fEdFB86F9635cf4ee91896009548d602001516135ba9190614d62565b6040516001600160e01b031960e085901b1681526004810192909252602482015260440160206040518083038186803b1580156135f657600080fd5b505af415801561360a573d6000803e3d6000fd5b505050506040513d601f19601f8201168201806040525081019061362e9190614a08565b90506040518060400160405280836001600160801b0319168152602001826001600160801b031916815250600560008c60800151815260200190815260200160002060008201518160000160006101000a8154816001600160801b03021916908360801c021790555060208201518160000160106101000a8154816001600160801b03021916908360801c021790555090505060007371dBdA135d5A9F64306fd22e00E59a5fEdFB86F963839dff3d8d60a0015185600260009054906101000a900460801b600160109054906101000a900460801b6040518563ffffffff1660e01b815260040161374594939291909384526001600160801b03199283166020850152908216604084015216606082015260800190565b60606040518083038186803b15801561375d57600080fd5b505af4158015613771573d6000803e3d6000fd5b505050506040513d601f19601f820116820180604052508101906137959190614b3c565b505060808501819052845190915084906137b0908390614d62565b90525060808b81015160025460015460405163839dff3d60e01b815260048101939093526001600160801b0319858116602485015291841b82166044840152600160801b900490921b90911660648201526000907371dBdA135d5A9F64306fd22e00E59a5fEdFB86F99063839dff3d9060840160606040518083038186803b15801561383b57600080fd5b505af415801561384f573d6000803e3d6000fd5b505050506040513d601f19601f820116820180604052508101906138739190614b3c565b505060a0850181905260208501805191925090613891908390614d62565b905250895160a08401518c517371dBdA135d5A9F64306fd22e00E59a5fEdFB86F99263ab41556f9290916138c59190614d62565b600a546040516001600160e01b031960e086901b16815260048101939093526024830191909152604482018d9052606482015260840160206040518083038186803b15801561391357600080fd5b505af4158015613927573d6000803e3d6000fd5b505050506040513d601f19601f8201168201806040525081019061394b9190614aff565b6040848101919091528a5160c0850151600a54925163debb52df60e01b815260048101929092526024820152604481018b905260648101919091527371dBdA135d5A9F64306fd22e00E59a5fEdFB86F99063debb52df9060840160206040518083038186803b1580156139bd57600080fd5b505af41580156139d1573d6000803e3d6000fd5b505050506040513d601f19601f820116820180604052508101906139f59190614aff565b83602001818151613a069190614d99565b915081815250507371dBdA135d5A9F64306fd22e00E59a5fEdFB86F963ab41556f8b6020015185608001518e60400151613a409190614d62565b6009546040516001600160e01b031960e086901b16815260048101939093526024830191909152604482018c9052606482015260840160206040518083038186803b158015613a8e57600080fd5b505af4158015613aa2573d6000803e3d6000fd5b505050506040513d601f19601f82011682018060405250810190613ac69190614aff565b606084015260208a015160e084015160095460405163debb52df60e01b815260048101939093526024830191909152604482018a905260648201527371dBdA135d5A9F64306fd22e00E59a5fEdFB86F99063debb52df9060840160206040518083038186803b158015613b3857600080fd5b505af4158015613b4c573d6000803e3d6000fd5b505050506040513d601f19601f82011682018060405250810190613b709190614aff565b83518490613b7f908390614d99565b90525060c0830151600a8054600090613b99908490614d99565b909155505060e083015160098054600090613bb5908490614d99565b909155505060408301518a51613bcb9190614d62565b83606001518b60200151613bdf9190614d62565b60208501519451919d909c50939a509850919650505050505050565b6040516345e7ef9b60e01b81526000907371dBdA135d5A9F64306fd22e00E59a5fEdFB86F9906345e7ef9b90613c379086908690600401614bc2565b60206040518083038186803b158015613c4f57600080fd5b505af4158015613c63573d6000803e3d6000fd5b505050506040513d601f19601f82011682018060405250810190613c879190614a08565b604051630308593b60e31b81529091507371dBdA135d5A9F64306fd22e00E59a5fEdFB86F990631842c9d890613cc890613fff60f01b908590600401614bc2565b60206040518083038186803b158015613ce057600080fd5b505af4158015613cf4573d6000803e3d6000fd5b505050506040513d601f19601f82011682018060405250810190613d189190614a6c565b60000b6000191415613eab57600154600254604051630308593b60e31b81527371dBdA135d5A9F64306fd22e00E59a5fEdFB86F992631842c9d892613d7592600160801b92839004608090811b9390920490911b90600401614bc2565b60206040518083038186803b158015613d8d57600080fd5b505af4158015613da1573d6000803e3d6000fd5b505050506040513d601f19601f82011682018060405250810190613dc59190614a6c565b60000b6000191415613de557600180546001600160801b03169055505050565b600154600254604051630e8418dd60e01b81527371dBdA135d5A9F64306fd22e00E59a5fEdFB86F992630e8418dd92613e3692600160801b92839004608090811b9390920490911b90600401614bc2565b60206040518083038186803b158015613e4e57600080fd5b505af4158015613e62573d6000803e3d6000fd5b505050506040513d601f19601f82011682018060405250810190613e869190614a08565b600160106101000a8154816001600160801b03021916908360801c0217905550505050565b600154600254604051635b597cfb60e11b81527371dBdA135d5A9F64306fd22e00E59a5fEdFB86F99263b6b2f9f692613efc92600160801b92839004608090811b9390920490911b90600401614bc2565b60206040518083038186803b158015613f1457600080fd5b505af4158015613f28573d6000803e3d6000fd5b505050506040513d601f19601f82011682018060405250810190613f4c9190614a08565b600180546001600160801b0316600160801b608093841c81029190911791829055604051630308593b60e31b81527371dBdA135d5A9F64306fd22e00E59a5fEdFB86F993631842c9d893613fb3939004901b90668075782dace9d960c71b90600401614bc2565b60206040518083038186803b158015613fcb57600080fd5b505af4158015613fdf573d6000803e3d6000fd5b505050506040513d601f19601f820116820180604052508101906140039190614a6c565b60000b6001141561402a57600180546001600160801b0316668075782dace9d960c71b1790555b505050565b336000908152600760209081526040808320815160608101835281548152600182015493810193909352600201548282015251633199848d60e11b81529091903090636333091a90614085908a90600401614bdd565b60206040518083038186803b15801561409d57600080fd5b505afa1580156140b1573d6000803e3d6000fd5b505050506040513d601f19601f820116820180604052508101906140d591906149e6565b156141a05760015460405163aacf0ecb60e01b8152600160801b90910460801b6001600160801b0319166004820152602481018790527371dBdA135d5A9F64306fd22e00E59a5fEdFB86F99063aacf0ecb9060440160206040518083038186803b15801561414257600080fd5b505af4158015614156573d6000803e3d6000fd5b505050506040513d601f19601f8201168201806040525081019061417a9190614aff565b90506141868187614d99565b9550856008600082825461419a9190614d62565b90915550505b60028760058111156141b4576141b4614de9565b14156142dc57600080896001600160a01b0316637bb98a686040518163ffffffff1660e01b8152600401604080518083038186803b1580156141f557600080fd5b505afa158015614209573d6000803e3d6000fd5b505050506040513d601f19601f8201168201806040525081019061422d9190614b18565b91509150878660000160008282546142459190614d62565b909155505084548890869060009061425e908490614d62565b90915550506001600160a01b038a16633c3f825261427c8584614d62565b846040518363ffffffff1660e01b81526004016142a3929190918252602082015260400190565b600060405180830381600087803b1580156142bd57600080fd5b505af11580156142d1573d6000803e3d6000fd5b505050505050610dd9565b60038760058111156142f0576142f0614de9565b141561442c5785600a60008282546143089190614d62565b92505081905550858460010160008282546143239190614d62565b925050819055508583600101600082825461433e9190614d62565b909155505084156143fb57815186111561436a5760405162461bcd60e51b8152600401610a9690614c05565b3360009081526007602052604081208054889290614389908490614d99565b90915550506013546040516387f9ca5d60e01b81526001600160a01b03808b16926387f9ca5d926143c4926000928c92911690600401614d38565b600060405180830381600087803b1580156143de57600080fd5b505af11580156143f2573d6000803e3d6000fd5b50505050610dd9565b6040516387f9ca5d60e01b81526001600160a01b038916906387f9ca5d906143c4906000908a903390600401614d38565b600087600581111561444057614440614de9565b141561453457600080896001600160a01b0316637bb98a686040518163ffffffff1660e01b8152600401604080518083038186803b15801561448157600080fd5b505afa158015614495573d6000803e3d6000fd5b505050506040513d601f19601f820116820180604052508101906144b99190614b18565b91509150878660020160008282546144d19190614d62565b92505081905550878560020160008282546144ec9190614d62565b90915550506001600160a01b038a16633c3f82528261450b8686614d62565b6040516001600160e01b031960e085901b168152600481019290925260248201526044016142a3565b600187600581111561454857614548614de9565b14156146535785600960008282546145609190614d62565b925050819055508584600301600082825461457b9190614d62565b92505081905550858360030160008282546145969190614d62565b909155505084156146225781602001518611156145c55760405162461bcd60e51b8152600401610a9690614c05565b33600090815260076020526040812060010180548892906145e7908490614d99565b90915550506013546040516387f9ca5d60e01b81526001600160a01b03808b16926387f9ca5d926143c4926001928c92911690600401614d38565b6040516387f9ca5d60e01b81526001600160a01b038916906387f9ca5d906143c4906001908a903390600401614d38565b600487600581111561466757614667614de9565b14156146b55785600a600082825461467f9190614d62565b925050819055508584600501600082825461469a9190614d62565b925050819055508583600501600082825461433e9190614d62565b60058760058111156146c9576146c9614de9565b1415610dd95785600960008282546146e19190614d62565b92505081905550858460040160008282546146fc9190614d62565b92505081905550858360040160008282546147179190614d62565b909155505084156147465781602001518611156145c55760405162461bcd60e51b8152600401610a9690614c05565b6040516387f9ca5d60e01b81526001600160a01b038916906387f9ca5d90614777906001908a903390600401614d38565b600060405180830381600087803b15801561479157600080fd5b505af11580156147a5573d6000803e3d6000fd5b505050505050505050505050565b82600281019282156147fb579160200282015b828111156147fb57825182546001600160a01b0319166001600160a01b039091161782556020909201916001909101906147c6565b5061480792915061486c565b5090565b8280548282559060005260206000209081019282156147fb5760005260206000209182015b828111156147fb578254825591600101919060010190614830565b5080546000825590600052602060002090810190614869919061486c565b50565b5b80821115614807576000815560010161486d565b60006020828403121561489357600080fd5b813561341381614e41565b600080600080600080600080610100898b0312156148bb57600080fd5b88356148c681614e41565b975060208901356148d681614e41565b965060408901356148e681614e41565b955060608901356148f681614e41565b9450608089013561490681614e41565b979a969950949793969560a0850135955060c08501359460e001359350915050565b6000806040838503121561493b57600080fd5b823561494681614e41565b946020939093013593505050565b60006040828403121561496657600080fd5b82601f83011261497557600080fd5b6040516040810181811067ffffffffffffffff8211171561499857614998614e2b565b80604052508083856040860111156149af57600080fd5b60005b60028110156149db5781516149c681614e41565b835260209283019291909101906001016149b2565b509195945050505050565b6000602082840312156149f857600080fd5b8151801515811461341357600080fd5b600060208284031215614a1a57600080fd5b81516001600160801b03198116811461341357600080fd5b600060208284031215614a4457600080fd5b5035919050565b600060208284031215614a5d57600080fd5b81356006811061341357600080fd5b600060208284031215614a7e57600080fd5b81518060000b811461341357600080fd5b600060a08284031215614aa157600080fd5b60405160a0810181811067ffffffffffffffff82111715614ac457614ac4614e2b565b806040525082518152602083015160208201526040830151604082015260608301516060820152608083015160808201528091505092915050565b600060208284031215614b1157600080fd5b5051919050565b60008060408385031215614b2b57600080fd5b505080516020909101519092909150565b600080600060608486031215614b5157600080fd5b8351925060208401519150604084015190509250925092565b60008060008060808587031215614b8057600080fd5b5050823594602084013594506040840135936060013592509050565b600060208284031215614bae57600080fd5b815163ffffffff8116811461341357600080fd5b6001600160801b031992831681529116602082015260400190565b6020810160068310614bff57634e487b7160e01b600052602160045260246000fd5b91905290565b60208082526018908201527f496e73756666696369656e7420706f6f6c20746f6b656e730000000000000000604082015260600190565b6020808252601d908201527f6d73672e73656e646572206e6f742066656520636f6e74726f6c6c6572000000604082015260600190565b81516001600160801b031916815261018081016020830151614ca160208401826001600160801b0319169052565b506040830151614cbd60408401826001600160801b0319169052565b50606083015160608301526080830151608083015260a083015160a083015260c083015160c083015260e083015160e083015261010080840151818401525061012080840151818401525061014080840151818401525061016080840151614d30828501826001600160801b0319169052565b505092915050565b6001600160801b0393909316835260208301919091526001600160a01b0316604082015260600190565b60008219821115614d7557614d75614dd3565b500190565b6000816000190483118215151615614d9457614d94614dd3565b500290565b600082821015614dab57614dab614dd3565b500390565b600060ff821660ff841680821015614dca57614dca614dd3565b90039392505050565b634e487b7160e01b600052601160045260246000fd5b634e487b7160e01b600052602160045260246000fd5b634e487b7160e01b600052603160045260246000fd5b634e487b7160e01b600052603260045260246000fd5b634e487b7160e01b600052604160045260246000fd5b6001600160a01b038116811461486957600080fdfea2646970667358221220fcdc15ab6ffdaa3d60fbfc02b8d09616f33ca87e3651ff5379c69e2fefb2187164736f6c63430008070033",
  "libraries": {
    "PoolSwapLibrary": "0x71dBdA135d5A9F64306fd22e00E59a5fEdFB86F9"
  },
  "devdoc": {
    "kind": "dev",
    "methods": {
      "claimGovernance()": {
        "details": "Second and final step of the two-step governance transfer processSee `transferGovernance`Sets the governance transfer flag to falseAfter a successful call to this function, the actual governance      address and the provisional governance address MUST be equal."
      },
      "deployPool((string,uint32,uint32,uint16,address,address,address,address,uint256,uint256,uint256))": {
        "details": "Throws if pool keeper is nullThrows if deployer does not own the oracle wrapperThrows if leverage amount is invalidThrows if decimal precision is too high (i.e., greater than `MAX_DECIMALS`)The IOracleWrapper declares a `deployer` variable, this is used here to confirm that the pool which uses said oracle wrapper is indeed      the intended address. This is to prevent a griefing attack in which someone uses the same oracle wrapper with the same parameters *before* the genuine deployer.",
        "params": {
          "deploymentParameters": "Deployment parameters of the market. Some may be reconfigurable."
        },
        "returns": {
          "_0": "Address of the created pool"
        }
      },
      "getPoolKeeper()": {
        "returns": {
          "_0": "Address of the associated `PoolKeeper` contract"
        }
      },
      "setAutoClaim(address)": {
        "details": "Throws if provided address is nullOnly callable by the owner",
        "params": {
          "_autoClaim": "Address of the `AutoClaim`"
        }
      },
      "setFee(uint256)": {
        "details": "This is a percentage in WAD; multiplied by 10^18 e.g. 5% is 0.05 * 10^18Throws if fee is greater than 10%Emits a `FeeChanged` event on success",
        "params": {
          "_fee": "The fee amount as a percentage"
        }
      },
      "setFeeReceiver(address)": {
        "details": "Only callable by the owner of this contractThis fuction does not change anything for already deployed pools, only pools deployed after the changeEmits a `FeeReceiverChanged` event on success",
        "params": {
          "_feeReceiver": "address of fee receiver"
        }
      },
      "setInvariantCheck(address)": {
        "details": "Throws if provided address is nullOnly callable by the owner",
        "params": {
          "_invariantCheck": "Address of the `InvariantCheck`"
        }
      },
      "setPoolKeeper(address)": {
        "details": "Throws if provided address is nullOnly callable by the ownerEmits a `PoolKeeperChanged` event on success",
        "params": {
          "_poolKeeper": "Address of the `PoolKeeper`"
        }
      },
      "setSecondaryFeeSplitPercent(uint256)": {
        "details": "Only callable by the owner of this contractThrows if `newFeePercent` exceeds 100Emits a `SecondaryFeeSplitChanged` event on success",
        "params": {
          "newFeePercent": "Proportion of fees to split"
        }
      },
      "transferGovernance(address)": {
        "details": "First step of the two-step governance transfer processSets the governance transfer flag to trueSee `claimGovernance`",
        "params": {
          "_governance": "New address of the governance of the pool"
        }
      }
    },
    "title": "The pool factory contract",
    "version": 1
  },
  "userdoc": {
    "events": {
      "AutoClaimChanged(address)": {
        "notice": "Indicates that the AutoClaim contract has changed"
      },
      "DeployCommitter(address,address,address,uint256,address)": {
        "notice": "Creates a notification when a PoolCommitter is deployed"
      },
      "DeployPool(address,address,string)": {
        "notice": "Creates a notification when a pool is deployed"
      },
      "FeeChanged(uint256)": {
        "notice": "Indicates that the trading fee has changed"
      },
      "FeeReceiverChanged(address)": {
        "notice": "Indicates that the receipient of fees has changed"
      },
      "GovernanceAddressChanged(address,address)": {
        "notice": "Represents change in governance address"
      },
      "InvariantCheckChanged(address)": {
        "notice": "Indicates that the InvariantCheck contract has changed"
      },
      "MaxLeverageChanged(uint256)": {
        "notice": "Indicates that the maximum allowed leverage has changed"
      },
      "MintAndBurnFeesChanged(uint256,uint256)": {
        "notice": "Indicates that the minting and burning fees have changed"
      },
      "PoolKeeperChanged(address)": {
        "notice": "Creates a notification when the pool keeper changes"
      },
      "ProvisionalGovernanceChanged(address)": {
        "notice": "Represents proposed change in governance address"
      },
      "SecondaryFeeSplitChanged(uint256)": {
        "notice": "Indicates that the receipient of fees has changed"
      }
    },
    "kind": "user",
    "methods": {
      "claimGovernance()": {
        "notice": "Completes transfer of governance by actually changing permissions          over the pool."
      },
      "deployPool((string,uint32,uint32,uint16,address,address,address,address,uint256,uint256,uint256))": {
        "notice": "Deploy a leveraged pool and its committer/pool tokens with given parametersRebasing tokens are not supported and will break functionality"
      },
      "getPoolKeeper()": {
        "notice": "Gets the address of the associated `PoolKeeper` contract"
      },
      "isValidPool(address)": {
        "notice": "Format: Pool address => validity"
      },
      "isValidPoolCommitter(address)": {
        "notice": "Format: PoolCommitter address => validity"
      },
      "pools(uint256)": {
        "notice": "Format: Pool counter => pool address"
      },
      "setAutoClaim(address)": {
        "notice": "Sets the address of the associated `AutoClaim` contract"
      },
      "setFee(uint256)": {
        "notice": "Set the yearly fee amount. The max yearly fee is 10%"
      },
      "setFeeReceiver(address)": {
        "notice": "Sets the primary fee receiver of deployed Leveraged pools."
      },
      "setInvariantCheck(address)": {
        "notice": "Sets the address of the associated `InvariantCheck` contract"
      },
      "setPoolKeeper(address)": {
        "notice": "Sets the address of the associated `PoolKeeper` contract"
      },
      "setSecondaryFeeSplitPercent(uint256)": {
        "notice": "Sets the proportion of fees to be split to the nominated secondary fees recipient"
      },
      "transferGovernance(address)": {
        "notice": "Starts to transfer governance of the pool. The new governance          address must call `claimGovernance` in order for this to take          effect. Until this occurs, the existing governance address          remains in control of the pool."
      }
    },
    "version": 1
  },
  "storageLayout": {
    "storage": [
      {
        "astId": 12459,
        "contract": "contracts/implementation/PoolFactory.sol:PoolFactory",
        "label": "poolKeeper",
        "offset": 0,
        "slot": "0",
        "type": "t_contract(IPoolKeeper)15479"
      },
      {
        "astId": 12463,
        "contract": "contracts/implementation/PoolFactory.sol:PoolFactory",
        "label": "autoClaim",
        "offset": 0,
        "slot": "1",
        "type": "t_address"
      },
      {
        "astId": 12465,
        "contract": "contracts/implementation/PoolFactory.sol:PoolFactory",
        "label": "invariantCheck",
        "offset": 0,
        "slot": "2",
        "type": "t_address"
      },
      {
        "astId": 12468,
        "contract": "contracts/implementation/PoolFactory.sol:PoolFactory",
        "label": "governance",
        "offset": 0,
        "slot": "3",
        "type": "t_address"
      },
      {
        "astId": 12471,
        "contract": "contracts/implementation/PoolFactory.sol:PoolFactory",
        "label": "governanceTransferInProgress",
        "offset": 20,
        "slot": "3",
        "type": "t_bool"
      },
      {
        "astId": 12474,
        "contract": "contracts/implementation/PoolFactory.sol:PoolFactory",
        "label": "provisionalGovernance",
        "offset": 0,
        "slot": "4",
        "type": "t_address"
      },
      {
        "astId": 12476,
        "contract": "contracts/implementation/PoolFactory.sol:PoolFactory",
        "label": "fee",
        "offset": 0,
        "slot": "5",
        "type": "t_uint256"
      },
      {
        "astId": 12479,
        "contract": "contracts/implementation/PoolFactory.sol:PoolFactory",
        "label": "secondaryFeeSplitPercent",
        "offset": 0,
        "slot": "6",
        "type": "t_uint256"
      },
      {
        "astId": 12490,
        "contract": "contracts/implementation/PoolFactory.sol:PoolFactory",
        "label": "feeReceiver",
        "offset": 0,
        "slot": "7",
        "type": "t_address"
      },
      {
        "astId": 12496,
        "contract": "contracts/implementation/PoolFactory.sol:PoolFactory",
        "label": "pools",
        "offset": 0,
        "slot": "8",
        "type": "t_mapping(t_uint256,t_address)"
      },
      {
        "astId": 12499,
        "contract": "contracts/implementation/PoolFactory.sol:PoolFactory",
        "label": "numPools",
        "offset": 0,
        "slot": "9",
        "type": "t_uint256"
      },
      {
        "astId": 12505,
        "contract": "contracts/implementation/PoolFactory.sol:PoolFactory",
        "label": "isValidPool",
        "offset": 0,
        "slot": "10",
        "type": "t_mapping(t_address,t_bool)"
      },
      {
        "astId": 12511,
        "contract": "contracts/implementation/PoolFactory.sol:PoolFactory",
        "label": "isValidPoolCommitter",
        "offset": 0,
        "slot": "11",
        "type": "t_mapping(t_address,t_bool)"
      }
    ],
    "types": {
      "t_address": {
        "encoding": "inplace",
        "label": "address",
        "numberOfBytes": "20"
      },
      "t_bool": {
        "encoding": "inplace",
        "label": "bool",
        "numberOfBytes": "1"
      },
      "t_contract(IPoolKeeper)15479": {
        "encoding": "inplace",
        "label": "contract IPoolKeeper",
        "numberOfBytes": "20"
      },
      "t_mapping(t_address,t_bool)": {
        "encoding": "mapping",
        "key": "t_address",
        "label": "mapping(address => bool)",
        "numberOfBytes": "32",
        "value": "t_bool"
      },
      "t_mapping(t_uint256,t_address)": {
        "encoding": "mapping",
        "key": "t_uint256",
        "label": "mapping(uint256 => address)",
        "numberOfBytes": "32",
        "value": "t_address"
      },
      "t_uint256": {
        "encoding": "inplace",
        "label": "uint256",
        "numberOfBytes": "32"
      }
    }
  }
}