{
    "address": "0x667e4C71eBc1086F852E47C99687E7b3266f2FD3",
    "abi": [
        {
            "inputs": [
                {
                    "internalType": "address",
                    "name": "_oracle",
                    "type": "address"
                },
                {
                    "internalType": "address",
                    "name": "_deployer",
                    "type": "address"
                }
            ],
            "stateMutability": "nonpayable",
            "type": "constructor"
        },
        {
            "inputs": [],
            "name": "decimals",
            "outputs": [
                {
                    "internalType": "uint8",
                    "name": "",
                    "type": "uint8"
                }
            ],
            "stateMutability": "pure",
            "type": "function"
        },
        {
            "inputs": [],
            "name": "deployer",
            "outputs": [
                {
                    "internalType": "address",
                    "name": "",
                    "type": "address"
                }
            ],
            "stateMutability": "view",
            "type": "function"
        },
        {
            "inputs": [
                {
                    "internalType": "int256",
                    "name": "wad",
                    "type": "int256"
                }
            ],
            "name": "fromWad",
            "outputs": [
                {
                    "internalType": "int256",
                    "name": "",
                    "type": "int256"
                }
            ],
            "stateMutability": "view",
            "type": "function"
        },
        {
            "inputs": [],
            "name": "getPrice",
            "outputs": [
                {
                    "internalType": "int256",
                    "name": "",
                    "type": "int256"
                }
            ],
            "stateMutability": "view",
            "type": "function"
        },
        {
            "inputs": [],
            "name": "getPriceAndMetadata",
            "outputs": [
                {
                    "internalType": "int256",
                    "name": "",
                    "type": "int256"
                },
                {
                    "internalType": "bytes",
                    "name": "",
                    "type": "bytes"
                }
            ],
            "stateMutability": "view",
            "type": "function"
        },
        {
            "inputs": [],
            "name": "oracle",
            "outputs": [
                {
                    "internalType": "address",
                    "name": "",
                    "type": "address"
                }
            ],
            "stateMutability": "view",
            "type": "function"
        },
        {
            "inputs": [],
            "name": "poll",
            "outputs": [
                {
                    "internalType": "int256",
                    "name": "",
                    "type": "int256"
                }
            ],
            "stateMutability": "pure",
            "type": "function"
        },
        {
            "inputs": [],
            "name": "scaler",
            "outputs": [
                {
                    "internalType": "int256",
                    "name": "",
                    "type": "int256"
                }
            ],
            "stateMutability": "view",
            "type": "function"
        }
    ],
    "transactionHash": "0x1d4af54e9201b563f53b98fa246bd1ddcb0418e1d639f22b27ef22195ad419ef",
    "args": [
        "0x594b919AD828e693B935705c3F816221729E7AE8",
        "0xCC97EB5651e05D5a0Ae8bcD2813B9DFDaD6F92a5"
    ],
    "solcInputHash": "4b024dc169a046e6527f075e446ec886",
    "bytecode": "0x60a060405234801561001057600080fd5b5060405161077f38038061077f83398101604081905261002f91610203565b6001600160a01b03821661008a5760405162461bcd60e51b815260206004820152601560248201527f4f7261636c652063616e6e6f74206265206e756c6c000000000000000000000060448201526064015b60405180910390fd5b6001600160a01b0381166100e05760405162461bcd60e51b815260206004820152601760248201527f4465706c6f7965722063616e6e6f74206265206e756c6c0000000000000000006044820152606401610081565b600080546001600160a01b0319166001600160a01b0384169081178255606083901b6001600160601b0319166080526040805163313ce56760e01b8152905163313ce56791600480820192602092909190829003018186803b15801561014557600080fd5b505afa158015610159573d6000803e3d6000fd5b505050506040513d601f19601f8201168201806040525081019061017d9190610236565b9050601260ff821611156101d35760405162461bcd60e51b815260206004820152601660248201527f434f413a20746f6f206d616e7920646563696d616c73000000000000000000006044820152606401610081565b60120360ff16600a0a600155506102609050565b80516001600160a01b03811681146101fe57600080fd5b919050565b6000806040838503121561021657600080fd5b61021f836101e7565b915061022d602084016101e7565b90509250929050565b60006020828403121561024857600080fd5b815160ff8116811461025957600080fd5b9392505050565b60805160601c61050161027e600039600061010a01526105016000f3fe608060405234801561001057600080fd5b50600436106100885760003560e01c806398d5fdca1161005b57806398d5fdca146100f6578063a1175279146100fe578063d5f3948814610105578063db6d8fcf1461012c57600080fd5b8063313ce5671461008d5780633c1e6ff5146100a1578063412ad1cc146100b85780637dc0d1d0146100cb575b600080fd5b604051601281526020015b60405180910390f35b6100aa60015481565b604051908152602001610098565b6100aa6100c636600461032e565b610142565b6000546100de906001600160a01b031681565b6040516001600160a01b039091168152602001610098565b6100aa610158565b60006100aa565b6100de7f000000000000000000000000000000000000000000000000000000000000000081565b61013461016a565b604051610098929190610397565b60006001548261015291906103f4565b92915050565b6000806101636101ae565b5092915050565b600060606000806101796101ae565b6040805160b09290921b6001600160b01b03191660208301528051600a818403018152602a9092019052909590945092505050565b60008060008060008060008054906101000a90046001600160a01b03166001600160a01b031663feaf968c6040518163ffffffff1660e01b815260040160a06040518083038186803b15801561020357600080fd5b505afa158015610217573d6000803e3d6000fd5b505050506040513d601f19601f8201168201806040525081019061023b9190610347565b9450945050935093508369ffffffffffffffffffff168169ffffffffffffffffffff1610156102a55760405162461bcd60e51b815260206004820152601160248201527021a7a09d1029ba30b6329030b739bbb2b960791b60448201526064015b60405180910390fd5b816102ea5760405162461bcd60e51b8152602060048201526015602482015274434f413a20526f756e6420696e636f6d706c65746560581b604482015260640161029c565b6102f3836102ff565b96939550929350505050565b6000600154826101529190610430565b805169ffffffffffffffffffff8116811461032957600080fd5b919050565b60006020828403121561034057600080fd5b5035919050565b600080600080600060a0868803121561035f57600080fd5b6103688661030f565b945060208601519350604086015192506060860151915061038b6080870161030f565b90509295509295909350565b82815260006020604081840152835180604085015260005b818110156103cb578581018301518582016060015282016103af565b818111156103dd576000606083870101525b50601f01601f191692909201606001949350505050565b60008261041157634e487b7160e01b600052601260045260246000fd5b600160ff1b82146000198414161561042b5761042b6104b5565b500590565b60006001600160ff1b0381841382841380821686840486111615610456576104566104b5565b600160ff1b6000871282811687830589121615610475576104756104b5565b60008712925087820587128484161615610491576104916104b5565b878505871281841616156104a7576104a76104b5565b505050929093029392505050565b634e487b7160e01b600052601160045260246000fdfea264697066735822122000c342d507d432b060bf29f49310bf248455e0846f943b259d9fce3f4f40eb9664736f6c63430008070033",
    "devdoc": {
        "kind": "dev",
        "methods": {
            "getPriceAndMetadata()": {
                "returns": {
                    "_0": "_price The latest round data price",
                    "_1": "_data The metadata. Implementations can choose what data to return here. This implementation returns the roundID"
                }
            },
            "poll()": {
                "details": "Spot oracles must implement but it will be a no-op"
            }
        },
        "title": "The oracle management contract for chainlink V3 oracles",
        "version": 1
    },
    "userdoc": {
        "kind": "user",
        "methods": {
            "fromWad(int256)": {
                "notice": "Converts from a WAD value to a raw value based on the decimals in the feed"
            },
            "getPrice()": {
                "notice": "Returns the oracle price in WAD format"
            },
            "oracle()": {
                "notice": "The address of the feed oracle"
            },
            "poll()": {
                "notice": "Updates the underlying oracle state and returns the new price"
            }
        },
        "version": 1
    },
    "storageLayout": {
        "storage": [
            {
                "astId": 8055,
                "contract": "contracts/implementation/ChainlinkOracleWrapper.sol:ChainlinkOracleWrapper",
                "label": "oracle",
                "offset": 0,
                "slot": "0",
                "type": "t_address"
            },
            {
                "astId": 8063,
                "contract": "contracts/implementation/ChainlinkOracleWrapper.sol:ChainlinkOracleWrapper",
                "label": "scaler",
                "offset": 0,
                "slot": "1",
                "type": "t_int256"
            }
        ],
        "types": {
            "t_address": {
                "encoding": "inplace",
                "label": "address",
                "numberOfBytes": "20"
            },
            "t_int256": {
                "encoding": "inplace",
                "label": "int256",
                "numberOfBytes": "32"
            }
        }
    }
}