{
  "_format": "hh-sol-artifact-1",
  "contractName": "TestPoolFactory",
  "sourceName": "contracts/test-utilities/TestPoolFactory.sol",
  "abi": [
    {
      "inputs": [
        {
          "internalType": "address",
          "name": "_pool",
          "type": "address"
        }
      ],
      "stateMutability": "nonpayable",
      "type": "constructor"
    },
    {
      "anonymous": false,
      "inputs": [
        {
          "indexed": true,
          "internalType": "address",
          "name": "pool",
          "type": "address"
        }
      ],
      "name": "DeployPool",
      "type": "event"
    },
    {
      "inputs": [
        {
          "internalType": "string",
          "name": "_poolCode",
          "type": "string"
        }
      ],
      "name": "createPool",
      "outputs": [],
      "stateMutability": "nonpayable",
      "type": "function"
    },
    {
      "inputs": [],
      "name": "poolBase",
      "outputs": [
        {
          "internalType": "address",
          "name": "",
          "type": "address"
        }
      ],
      "stateMutability": "view",
      "type": "function"
    }
  ],
  "bytecode": "0x60a060405234801561001057600080fd5b5060405161034e38038061034e83398101604081905261002f91610057565b6001600160a01b03811661004257600080fd5b60601b6001600160601b031916608052610087565b60006020828403121561006957600080fd5b81516001600160a01b038116811461008057600080fd5b9392505050565b60805160601c6102a46100aa6000396000818160400152609a01526102a46000f3fe608060405234801561001057600080fd5b50600436106100365760003560e01c80635bae377a1461003b578063d0d130361461007e575b600080fd5b6100627f000000000000000000000000000000000000000000000000000000000000000081565b6040516001600160a01b03909116815260200160405180910390f35b61009161008c3660046101cd565b610093565b005b60006100e77f000000000000000000000000000000000000000000000000000000000000000084846040516020016100cc92919061023f565b60405160208183030381529060405280519060200120610123565b6040519091506001600160a01b038216907f216c3165d111d8414747bc1012ba17835a6523f16a32966ac4682527525f39fc90600090a2505050565b6000604051733d602d80600a3d3981f3363d3d373d3d3d363d7360601b81528360601b60148201526e5af43d82803e903d91602b57fd5bf360881b6028820152826037826000f59150506001600160a01b0381166101c75760405162461bcd60e51b815260206004820152601760248201527f455243313136373a2063726561746532206661696c6564000000000000000000604482015260640160405180910390fd5b92915050565b600080602083850312156101e057600080fd5b823567ffffffffffffffff808211156101f857600080fd5b818501915085601f83011261020c57600080fd5b81358181111561021b57600080fd5b86602082850101111561022d57600080fd5b60209290920196919550909350505050565b60208152816020820152818360408301376000818301604090810191909152601f909201601f1916010191905056fea26469706673582212200290371871d82dc72657da2ef295a810ae4cf236cab7eab57bcbec03f305e18064736f6c63430008070033",
  "linkReferences": {},
  "deployedLinkReferences": {}
}