{
  "_format": "hh-sol-artifact-1",
  "contractName": "PoolToken",
  "sourceName": "contracts/implementation/PoolToken.sol",
  "abi": [
    {
      "inputs": [
        {
          "internalType": "uint8",
          "name": "_decimals",
          "type": "uint8"
        }
      ],
      "stateMutability": "nonpayable",
      "type": "constructor"
    },
    {
      "anonymous": false,
      "inputs": [
        {
          "indexed": true,
          "internalType": "address",
          "name": "owner",
          "type": "address"
        },
        {
          "indexed": true,
          "internalType": "address",
          "name": "spender",
          "type": "address"
        },
        {
          "indexed": false,
          "internalType": "uint256",
          "name": "value",
          "type": "uint256"
        }
      ],
      "name": "Approval",
      "type": "event"
    },
    {
      "anonymous": false,
      "inputs": [
        {
          "indexed": true,
          "internalType": "address",
          "name": "from",
          "type": "address"
        },
        {
          "indexed": true,
          "internalType": "address",
          "name": "to",
          "type": "address"
        },
        {
          "indexed": false,
          "internalType": "uint256",
          "name": "value",
          "type": "uint256"
        }
      ],
      "name": "Transfer",
      "type": "event"
    },
    {
      "inputs": [
        {
          "internalType": "address",
          "name": "owner",
          "type": "address"
        },
        {
          "internalType": "address",
          "name": "spender",
          "type": "address"
        }
      ],
      "name": "allowance",
      "outputs": [
        {
          "internalType": "uint256",
          "name": "",
          "type": "uint256"
        }
      ],
      "stateMutability": "view",
      "type": "function"
    },
    {
      "inputs": [
        {
          "internalType": "address",
          "name": "spender",
          "type": "address"
        },
        {
          "internalType": "uint256",
          "name": "amount",
          "type": "uint256"
        }
      ],
      "name": "approve",
      "outputs": [
        {
          "internalType": "bool",
          "name": "",
          "type": "bool"
        }
      ],
      "stateMutability": "nonpayable",
      "type": "function"
    },
    {
      "inputs": [
        {
          "internalType": "address",
          "name": "account",
          "type": "address"
        }
      ],
      "name": "balanceOf",
      "outputs": [
        {
          "internalType": "uint256",
          "name": "",
          "type": "uint256"
        }
      ],
      "stateMutability": "view",
      "type": "function"
    },
    {
      "inputs": [
        {
          "internalType": "uint256",
          "name": "amount",
          "type": "uint256"
        },
        {
          "internalType": "address",
          "name": "account",
          "type": "address"
        }
      ],
      "name": "burn",
      "outputs": [
        {
          "internalType": "bool",
          "name": "",
          "type": "bool"
        }
      ],
      "stateMutability": "nonpayable",
      "type": "function"
    },
    {
      "inputs": [],
      "name": "decimals",
      "outputs": [
        {
          "internalType": "uint8",
          "name": "",
          "type": "uint8"
        }
      ],
      "stateMutability": "view",
      "type": "function"
    },
    {
      "inputs": [
        {
          "internalType": "address",
          "name": "spender",
          "type": "address"
        },
        {
          "internalType": "uint256",
          "name": "subtractedValue",
          "type": "uint256"
        }
      ],
      "name": "decreaseAllowance",
      "outputs": [
        {
          "internalType": "bool",
          "name": "",
          "type": "bool"
        }
      ],
      "stateMutability": "nonpayable",
      "type": "function"
    },
    {
      "inputs": [
        {
          "internalType": "address",
          "name": "spender",
          "type": "address"
        },
        {
          "internalType": "uint256",
          "name": "addedValue",
          "type": "uint256"
        }
      ],
      "name": "increaseAllowance",
      "outputs": [
        {
          "internalType": "bool",
          "name": "",
          "type": "bool"
        }
      ],
      "stateMutability": "nonpayable",
      "type": "function"
    },
    {
      "inputs": [
        {
          "internalType": "address",
          "name": "_pool",
          "type": "address"
        },
        {
          "internalType": "string",
          "name": "name_",
          "type": "string"
        },
        {
          "internalType": "string",
          "name": "symbol_",
          "type": "string"
        },
        {
          "internalType": "uint8",
          "name": "decimals_",
          "type": "uint8"
        }
      ],
      "name": "initialize",
      "outputs": [],
      "stateMutability": "nonpayable",
      "type": "function"
    },
    {
      "inputs": [
        {
          "internalType": "uint256",
          "name": "amount",
          "type": "uint256"
        },
        {
          "internalType": "address",
          "name": "account",
          "type": "address"
        }
      ],
      "name": "mint",
      "outputs": [
        {
          "internalType": "bool",
          "name": "",
          "type": "bool"
        }
      ],
      "stateMutability": "nonpayable",
      "type": "function"
    },
    {
      "inputs": [],
      "name": "name",
      "outputs": [
        {
          "internalType": "string",
          "name": "",
          "type": "string"
        }
      ],
      "stateMutability": "view",
      "type": "function"
    },
    {
      "inputs": [],
      "name": "owner",
      "outputs": [
        {
          "internalType": "address",
          "name": "",
          "type": "address"
        }
      ],
      "stateMutability": "view",
      "type": "function"
    },
    {
      "inputs": [],
      "name": "symbol",
      "outputs": [
        {
          "internalType": "string",
          "name": "",
          "type": "string"
        }
      ],
      "stateMutability": "view",
      "type": "function"
    },
    {
      "inputs": [],
      "name": "totalSupply",
      "outputs": [
        {
          "internalType": "uint256",
          "name": "",
          "type": "uint256"
        }
      ],
      "stateMutability": "view",
      "type": "function"
    },
    {
      "inputs": [
        {
          "internalType": "address",
          "name": "recipient",
          "type": "address"
        },
        {
          "internalType": "uint256",
          "name": "amount",
          "type": "uint256"
        }
      ],
      "name": "transfer",
      "outputs": [
        {
          "internalType": "bool",
          "name": "",
          "type": "bool"
        }
      ],
      "stateMutability": "nonpayable",
      "type": "function"
    },
    {
      "inputs": [
        {
          "internalType": "address",
          "name": "sender",
          "type": "address"
        },
        {
          "internalType": "address",
          "name": "recipient",
          "type": "address"
        },
        {
          "internalType": "uint256",
          "name": "amount",
          "type": "uint256"
        }
      ],
      "name": "transferFrom",
      "outputs": [
        {
          "internalType": "bool",
          "name": "",
          "type": "bool"
        }
      ],
      "stateMutability": "nonpayable",
      "type": "function"
    },
    {
      "inputs": [
        {
          "internalType": "address",
          "name": "_owner",
          "type": "address"
        }
      ],
      "name": "transferOwnership",
      "outputs": [],
      "stateMutability": "nonpayable",
      "type": "function"
    }
  ],
  "bytecode": "0x60806040523480156200001157600080fd5b506040516200121038038062001210833981016040819052620000349162000175565b6040518060400160405280600a8152602001692120a9a2afaa27a5a2a760b11b815250604051806040016040528060048152602001634241534560e01b81525082828281600390805190602001906200008f929190620000cf565b508051620000a5906004906020840190620000cf565b50506005805460ff909316620100000262ff0000199093169290921790915550620001de92505050565b828054620000dd90620001a1565b90600052602060002090601f0160209004810192826200010157600085556200014c565b82601f106200011c57805160ff19168380011785556200014c565b828001600101855582156200014c579182015b828111156200014c5782518255916020019190600101906200012f565b506200015a9291506200015e565b5090565b5b808211156200015a57600081556001016200015f565b6000602082840312156200018857600080fd5b815160ff811681146200019a57600080fd5b9392505050565b600181811c90821680620001b657607f821691505b60208210811415620001d857634e487b7160e01b600052602260045260246000fd5b50919050565b61102280620001ee6000396000f3fe608060405234801561001057600080fd5b50600436106101005760003560e01c806394bf804d11610097578063dd62ed3e11610066578063dd62ed3e14610231578063f2fde38b1461026a578063f6d2ee861461027f578063fcd3533c1461029257600080fd5b806394bf804d146101f057806395d89b4114610203578063a457c2d71461020b578063a9059cbb1461021e57600080fd5b8063313ce567116100d3578063313ce5671461016b578063395093511461018957806370a082311461019c5780638da5cb5b146101c557600080fd5b806306fdde0314610105578063095ea7b31461012357806318160ddd1461014657806323b872dd14610158575b600080fd5b61010d6102a5565b60405161011a9190610ed3565b60405180910390f35b610136610131366004610e86565b610337565b604051901515815260200161011a565b6002545b60405190815260200161011a565b610136610166366004610dbd565b61034d565b60055462010000900460ff1660405160ff909116815260200161011a565b610136610197366004610e86565b6103fc565b61014a6101aa366004610d68565b6001600160a01b031660009081526020819052604090205490565b6008546101d8906001600160a01b031681565b6040516001600160a01b03909116815260200161011a565b6101366101fe366004610eb0565b610438565b61010d61046f565b610136610219366004610e86565b61047e565b61013661022c366004610e86565b610517565b61014a61023f366004610d8a565b6001600160a01b03918216600090815260016020908152604080832093909416825291909152205490565b61027d610278366004610d68565b610524565b005b61027d61028d366004610df9565b6105c6565b6101366102a0366004610eb0565b6106d6565b6060600680546102b490610f85565b80601f01602080910402602001604051908101604052809291908181526020018280546102e090610f85565b801561032d5780601f106103025761010080835404028352916020019161032d565b820191906000526020600020905b81548152906001019060200180831161031057829003601f168201915b5050505050905090565b600061034433848461070d565b50600192915050565b600061035a848484610832565b6001600160a01b0384166000908152600160209081526040808320338452909152902054828110156103e45760405162461bcd60e51b815260206004820152602860248201527f45524332303a207472616e7366657220616d6f756e74206578636565647320616044820152676c6c6f77616e636560c01b60648201526084015b60405180910390fd5b6103f1853385840361070d565b506001949350505050565b3360008181526001602090815260408083206001600160a01b03871684529091528120549091610344918590610433908690610f56565b61070d565b6008546000906001600160a01b031633146104655760405162461bcd60e51b81526004016103db90610f28565b6103448284610a01565b6060600780546102b490610f85565b3360009081526001602090815260408083206001600160a01b0386168452909152812054828110156105005760405162461bcd60e51b815260206004820152602560248201527f45524332303a2064656372656173656420616c6c6f77616e63652062656c6f77604482015264207a65726f60d81b60648201526084016103db565b61050d338585840361070d565b5060019392505050565b6000610344338484610832565b6008546001600160a01b0316331461054e5760405162461bcd60e51b81526004016103db90610f28565b6001600160a01b0381166105a45760405162461bcd60e51b815260206004820152601b60248201527f4f776e65723a2073657474696e6720746f20302061646472657373000000000060448201526064016103db565b600880546001600160a01b0319166001600160a01b0392909216919091179055565b600554610100900460ff16806105df575060055460ff16155b6106425760405162461bcd60e51b815260206004820152602e60248201527f496e697469616c697a61626c653a20636f6e747261637420697320616c72656160448201526d191e481a5b9a5d1a585b1a5e995960921b60648201526084016103db565b600554610100900460ff16158015610664576005805461ffff19166101011790555b600880546001600160a01b0319166001600160a01b0387161790558351610692906006906020870190610c26565b5082516106a6906007906020860190610c26565b506005805462ff000019166201000060ff85160217905580156106cf576005805461ff00191690555b5050505050565b6008546000906001600160a01b031633146107035760405162461bcd60e51b81526004016103db90610f28565b6103448284610ae0565b6001600160a01b03831661076f5760405162461bcd60e51b8152602060048201526024808201527f45524332303a20617070726f76652066726f6d20746865207a65726f206164646044820152637265737360e01b60648201526084016103db565b6001600160a01b0382166107d05760405162461bcd60e51b815260206004820152602260248201527f45524332303a20617070726f766520746f20746865207a65726f206164647265604482015261737360f01b60648201526084016103db565b6001600160a01b0383811660008181526001602090815260408083209487168084529482529182902085905590518481527f8c5be1e5ebec7d5bd14f71427d1e84f3dd0314c0f7b2291e5b200ac8c7c3b92591015b60405180910390a3505050565b6001600160a01b0383166108965760405162461bcd60e51b815260206004820152602560248201527f45524332303a207472616e736665722066726f6d20746865207a65726f206164604482015264647265737360d81b60648201526084016103db565b6001600160a01b0382166108f85760405162461bcd60e51b815260206004820152602360248201527f45524332303a207472616e7366657220746f20746865207a65726f206164647260448201526265737360e81b60648201526084016103db565b6001600160a01b038316600090815260208190526040902054818110156109705760405162461bcd60e51b815260206004820152602660248201527f45524332303a207472616e7366657220616d6f756e7420657863656564732062604482015265616c616e636560d01b60648201526084016103db565b6001600160a01b038085166000908152602081905260408082208585039055918516815290812080548492906109a7908490610f56565b92505081905550826001600160a01b0316846001600160a01b03167fddf252ad1be2c89b69c2b068fc378daa952ba7f163c4a11628f55a4df523b3ef846040516109f391815260200190565b60405180910390a350505050565b6001600160a01b038216610a575760405162461bcd60e51b815260206004820152601f60248201527f45524332303a206d696e7420746f20746865207a65726f20616464726573730060448201526064016103db565b8060026000828254610a699190610f56565b90915550506001600160a01b03821660009081526020819052604081208054839290610a96908490610f56565b90915550506040518181526001600160a01b038316906000907fddf252ad1be2c89b69c2b068fc378daa952ba7f163c4a11628f55a4df523b3ef9060200160405180910390a35050565b6001600160a01b038216610b405760405162461bcd60e51b815260206004820152602160248201527f45524332303a206275726e2066726f6d20746865207a65726f206164647265736044820152607360f81b60648201526084016103db565b6001600160a01b03821660009081526020819052604090205481811015610bb45760405162461bcd60e51b815260206004820152602260248201527f45524332303a206275726e20616d6f756e7420657863656564732062616c616e604482015261636560f01b60648201526084016103db565b6001600160a01b0383166000908152602081905260408120838303905560028054849290610be3908490610f6e565b90915550506040518281526000906001600160a01b038516907fddf252ad1be2c89b69c2b068fc378daa952ba7f163c4a11628f55a4df523b3ef90602001610825565b828054610c3290610f85565b90600052602060002090601f016020900481019282610c545760008555610c9a565b82601f10610c6d57805160ff1916838001178555610c9a565b82800160010185558215610c9a579182015b82811115610c9a578251825591602001919060010190610c7f565b50610ca6929150610caa565b5090565b5b80821115610ca65760008155600101610cab565b80356001600160a01b0381168114610cd657600080fd5b919050565b600082601f830112610cec57600080fd5b813567ffffffffffffffff80821115610d0757610d07610fd6565b604051601f8301601f19908116603f01168101908282118183101715610d2f57610d2f610fd6565b81604052838152866020858801011115610d4857600080fd5b836020870160208301376000602085830101528094505050505092915050565b600060208284031215610d7a57600080fd5b610d8382610cbf565b9392505050565b60008060408385031215610d9d57600080fd5b610da683610cbf565b9150610db460208401610cbf565b90509250929050565b600080600060608486031215610dd257600080fd5b610ddb84610cbf565b9250610de960208501610cbf565b9150604084013590509250925092565b60008060008060808587031215610e0f57600080fd5b610e1885610cbf565b9350602085013567ffffffffffffffff80821115610e3557600080fd5b610e4188838901610cdb565b94506040870135915080821115610e5757600080fd5b50610e6487828801610cdb565b925050606085013560ff81168114610e7b57600080fd5b939692955090935050565b60008060408385031215610e9957600080fd5b610ea283610cbf565b946020939093013593505050565b60008060408385031215610ec357600080fd5b82359150610db460208401610cbf565b600060208083528351808285015260005b81811015610f0057858101830151858201604001528201610ee4565b81811115610f12576000604083870101525b50601f01601f1916929092016040019392505050565b60208082526014908201527336b9b39739b2b73232b9103737ba1037bbb732b960611b604082015260600190565b60008219821115610f6957610f69610fc0565b500190565b600082821015610f8057610f80610fc0565b500390565b600181811c90821680610f9957607f821691505b60208210811415610fba57634e487b7160e01b600052602260045260246000fd5b50919050565b634e487b7160e01b600052601160045260246000fd5b634e487b7160e01b600052604160045260246000fdfea26469706673582212207c87cda234a81f67da55383e6777723cd02e3646c72a9ac54ed0abd1942c4c2864736f6c63430008070033",
  "linkReferences": {},
  "deployedLinkReferences": {}
}