{
  "_format": "hh-sol-artifact-1",
  "contractName": "PoolFactory",
  "sourceName": "contracts/implementation/PoolFactory.sol",
  "abi": [
    {
      "inputs": [
        {
          "internalType": "address",
          "name": "_feeReceiver",
          "type": "address"
        }
      ],
      "stateMutability": "nonpayable",
      "type": "constructor"
    },
    {
      "anonymous": false,
      "inputs": [
        {
          "indexed": true,
          "internalType": "address",
          "name": "pool",
          "type": "address"
        },
        {
          "indexed": false,
          "internalType": "string",
          "name": "ticker",
          "type": "string"
        }
      ],
      "name": "DeployPool",
      "type": "event"
    },
    {
      "anonymous": false,
      "inputs": [
        {
          "indexed": true,
          "internalType": "address",
          "name": "previousOwner",
          "type": "address"
        },
        {
          "indexed": true,
          "internalType": "address",
          "name": "newOwner",
          "type": "address"
        }
      ],
      "name": "OwnershipTransferred",
      "type": "event"
    },
    {
      "anonymous": false,
      "inputs": [
        {
          "indexed": false,
          "internalType": "address",
          "name": "_poolCommitterDeployer",
          "type": "address"
        }
      ],
      "name": "PoolCommitterDeployerChanged",
      "type": "event"
    },
    {
      "anonymous": false,
      "inputs": [
        {
          "indexed": false,
          "internalType": "address",
          "name": "_poolKeeper",
          "type": "address"
        }
      ],
      "name": "PoolKeeperChanged",
      "type": "event"
    },
    {
      "inputs": [
        {
          "components": [
            {
              "internalType": "string",
              "name": "poolName",
              "type": "string"
            },
            {
              "internalType": "uint32",
              "name": "frontRunningInterval",
              "type": "uint32"
            },
            {
              "internalType": "uint32",
              "name": "updateInterval",
              "type": "uint32"
            },
            {
              "internalType": "uint16",
              "name": "leverageAmount",
              "type": "uint16"
            },
            {
              "internalType": "address",
              "name": "quoteToken",
              "type": "address"
            },
            {
              "internalType": "address",
              "name": "oracleWrapper",
              "type": "address"
            },
            {
              "internalType": "address",
              "name": "settlementEthOracle",
              "type": "address"
            },
            {
              "internalType": "uint128",
              "name": "minimumCommitSize",
              "type": "uint128"
            },
            {
              "internalType": "uint128",
              "name": "maximumCommitQueueLength",
              "type": "uint128"
            }
          ],
          "internalType": "struct IPoolFactory.PoolDeployment",
          "name": "deploymentParameters",
          "type": "tuple"
        }
      ],
      "name": "deployPool",
      "outputs": [
        {
          "internalType": "address",
          "name": "",
          "type": "address"
        }
      ],
      "stateMutability": "nonpayable",
      "type": "function"
    },
    {
      "inputs": [],
      "name": "fee",
      "outputs": [
        {
          "internalType": "uint256",
          "name": "",
          "type": "uint256"
        }
      ],
      "stateMutability": "view",
      "type": "function"
    },
    {
      "inputs": [],
      "name": "feeReceiver",
      "outputs": [
        {
          "internalType": "address",
          "name": "",
          "type": "address"
        }
      ],
      "stateMutability": "view",
      "type": "function"
    },
    {
      "inputs": [],
      "name": "getOwner",
      "outputs": [
        {
          "internalType": "address",
          "name": "",
          "type": "address"
        }
      ],
      "stateMutability": "view",
      "type": "function"
    },
    {
      "inputs": [
        {
          "internalType": "address",
          "name": "",
          "type": "address"
        }
      ],
      "name": "isValidPool",
      "outputs": [
        {
          "internalType": "bool",
          "name": "",
          "type": "bool"
        }
      ],
      "stateMutability": "view",
      "type": "function"
    },
    {
      "inputs": [],
      "name": "maxLeverage",
      "outputs": [
        {
          "internalType": "uint16",
          "name": "",
          "type": "uint16"
        }
      ],
      "stateMutability": "view",
      "type": "function"
    },
    {
      "inputs": [],
      "name": "numPools",
      "outputs": [
        {
          "internalType": "uint256",
          "name": "",
          "type": "uint256"
        }
      ],
      "stateMutability": "view",
      "type": "function"
    },
    {
      "inputs": [],
      "name": "owner",
      "outputs": [
        {
          "internalType": "address",
          "name": "",
          "type": "address"
        }
      ],
      "stateMutability": "view",
      "type": "function"
    },
    {
      "inputs": [],
      "name": "pairTokenBase",
      "outputs": [
        {
          "internalType": "contract PoolToken",
          "name": "",
          "type": "address"
        }
      ],
      "stateMutability": "view",
      "type": "function"
    },
    {
      "inputs": [],
      "name": "pairTokenBaseAddress",
      "outputs": [
        {
          "internalType": "address",
          "name": "",
          "type": "address"
        }
      ],
      "stateMutability": "view",
      "type": "function"
    },
    {
      "inputs": [],
      "name": "poolBase",
      "outputs": [
        {
          "internalType": "contract LeveragedPool",
          "name": "",
          "type": "address"
        }
      ],
      "stateMutability": "view",
      "type": "function"
    },
    {
      "inputs": [],
      "name": "poolBaseAddress",
      "outputs": [
        {
          "internalType": "address",
          "name": "",
          "type": "address"
        }
      ],
      "stateMutability": "view",
      "type": "function"
    },
    {
      "inputs": [],
      "name": "poolCommitterDeployer",
      "outputs": [
        {
          "internalType": "contract IPoolCommitterDeployer",
          "name": "",
          "type": "address"
        }
      ],
      "stateMutability": "view",
      "type": "function"
    },
    {
      "inputs": [],
      "name": "poolKeeper",
      "outputs": [
        {
          "internalType": "contract IPoolKeeper",
          "name": "",
          "type": "address"
        }
      ],
      "stateMutability": "view",
      "type": "function"
    },
    {
      "inputs": [
        {
          "internalType": "uint256",
          "name": "",
          "type": "uint256"
        }
      ],
      "name": "pools",
      "outputs": [
        {
          "internalType": "address",
          "name": "",
          "type": "address"
        }
      ],
      "stateMutability": "view",
      "type": "function"
    },
    {
      "inputs": [],
      "name": "renounceOwnership",
      "outputs": [],
      "stateMutability": "nonpayable",
      "type": "function"
    },
    {
      "inputs": [
        {
          "internalType": "uint256",
          "name": "_fee",
          "type": "uint256"
        }
      ],
      "name": "setFee",
      "outputs": [],
      "stateMutability": "nonpayable",
      "type": "function"
    },
    {
      "inputs": [
        {
          "internalType": "address",
          "name": "_feeReceiver",
          "type": "address"
        }
      ],
      "name": "setFeeReceiver",
      "outputs": [],
      "stateMutability": "nonpayable",
      "type": "function"
    },
    {
      "inputs": [
        {
          "internalType": "uint16",
          "name": "newMaxLeverage",
          "type": "uint16"
        }
      ],
      "name": "setMaxLeverage",
      "outputs": [],
      "stateMutability": "nonpayable",
      "type": "function"
    },
    {
      "inputs": [
        {
          "internalType": "address",
          "name": "_poolCommitterDeployer",
          "type": "address"
        }
      ],
      "name": "setPoolCommitterDeployer",
      "outputs": [],
      "stateMutability": "nonpayable",
      "type": "function"
    },
    {
      "inputs": [
        {
          "internalType": "address",
          "name": "_poolKeeper",
          "type": "address"
        }
      ],
      "name": "setPoolKeeper",
      "outputs": [],
      "stateMutability": "nonpayable",
      "type": "function"
    },
    {
      "inputs": [
        {
          "internalType": "address",
          "name": "newOwner",
          "type": "address"
        }
      ],
      "name": "transferOwnership",
      "outputs": [],
      "stateMutability": "nonpayable",
      "type": "function"
    }
  ],
  "bytecode": "0x60c06040526004805461ffff60a01b1916600560a11b1790553480156200002557600080fd5b5060405162005afa38038062005afa833981016040819052620000489162000332565b6200005333620002c6565b6012604051620000639062000316565b60ff9091168152602001604051809103906000f0801580156200008a573d6000803e3d6000fd5b50600180546001600160a01b0319166001600160a01b03831617905560601b6001600160601b031916608052604051620000c49062000324565b604051809103906000f080158015620000e1573d6000803e3d6000fd5b50600280546001600160a01b0319166001600160a01b038316908117909155606091821b6001600160601b03191660a0908152604080516101c0810182523080825260208083018290528284018290529582018190526080820181905292810183905260c08101839052815180830183526009815268109054d157d413d3d360ba1b9581019590955260e0810194909452600f610100850152601e6101208501526000610140850152600161016085015261018084018290526101a08401919091525163554bb62160e01b815263554bb62190620001c4908490600401620003b4565b600060405180830381600087803b158015620001df57600080fd5b505af1158015620001f4573d6000803e3d6000fd5b5050600154604051637b69774360e11b81523060048083019190915260806024830152600a6084830152692120a9a2afaa27a5a2a760b11b60a483015260c0604483015260c4820152634241534560e01b60e4820152601260648201526001600160a01b03909116925063f6d2ee86915061010401600060405180830381600087803b1580156200028457600080fd5b505af115801562000299573d6000803e3d6000fd5b5050600580546001600160a01b0319166001600160a01b0395909516949094179093555062000507915050565b600080546001600160a01b038381166001600160a01b0319831681178455604051919092169283917f8be0079c531659141344cd1fd0a4f28419497f9722a3daafe3b4186f6b6457e09190a35050565b6112108062001c8f83390190565b612c5b8062002e9f83390190565b6000602082840312156200034557600080fd5b81516001600160a01b03811681146200035d57600080fd5b9392505050565b6000815180845260005b818110156200038c576020818501810151868301820152016200036e565b818111156200039f576000602083870101525b50601f01601f19169290920160200192915050565b60208152620003cf6020820183516001600160a01b03169052565b60006020830151620003ec60408401826001600160a01b03169052565b5060408301516001600160a01b03811660608401525060608301516001600160a01b03811660808401525060808301516001600160a01b03811660a08401525060a08301516001600160a01b03811660c08401525060c08301516001600160a01b03811660e08401525060e08301516101c06101008181860152620004766101e086018462000364565b90860151909250610120620004928682018363ffffffff169052565b8601519050610140620004ac8682018363ffffffff169052565b860151610160868101919091528601519050610180620004d18187018361ffff169052565b86015190506101a0620004ee868201836001600160a01b03169052565b909501516001600160a01b031693019290925250919050565b60805160601c60a05160601c61174e620005416000396000818161030d015261072e0152600081816101ce0152611085015261174e6000f3fe608060405234801561001057600080fd5b50600436106101425760003560e01c8063715018a6116100b8578063b3f006741161007c578063b3f00674146102d9578063d723c68b146102ec578063ddca3f43146102ff578063ed3f7e2614610308578063efdcd9741461032f578063f2fde38b1461034257600080fd5b8063715018a61461026f578063893d20e8146102775780638da5cb5b14610277578063ac4afa3814610288578063ae3302c2146102b157600080fd5b80634690092c1161010a5780634690092c146101c9578063568212f6146101f05780635ab78ee1146102035780635bae377a1461023657806367e047561461024957806369fe0e2d1461025c57600080fd5b80630679d36214610147578063178f9e351461015c57806335c62bc21461018c57806340339cbf146101a3578063430ed6eb146101b6575b600080fd5b61015a610155366004611210565b610355565b005b60035461016f906001600160a01b031681565b6040516001600160a01b0390911681526020015b60405180910390f35b61019560085481565b604051908152602001610183565b61016f6101b13660046111ab565b610408565b61015a6101c436600461116a565b610c07565b61016f7f000000000000000000000000000000000000000000000000000000000000000081565b61015a6101fe36600461116a565b610cac565b61022661021136600461116a565b60096020526000908152604090205460ff1681565b6040519015158152602001610183565b60025461016f906001600160a01b031681565b60045461016f906001600160a01b031681565b61015a61026a366004611234565b610d4a565b61015a610d79565b6000546001600160a01b031661016f565b61016f610296366004611234565b6007602052600090815260409020546001600160a01b031681565b6004546102c690600160a01b900461ffff1681565b60405161ffff9091168152602001610183565b60055461016f906001600160a01b031681565b60015461016f906001600160a01b031681565b61019560065481565b61016f7f000000000000000000000000000000000000000000000000000000000000000081565b61015a61033d36600461116a565b610daf565b61015a61035036600461116a565b610e21565b6000546001600160a01b031633146103885760405162461bcd60e51b815260040161037f906113e3565b60405180910390fd5b60008161ffff16116103e65760405162461bcd60e51b815260206004820152602160248201527f4d6178696d756d206c65766572616765206d757374206265206e6f6e2d7a65726044820152606f60f81b606482015260840161037f565b6004805461ffff909216600160a01b0261ffff60a01b19909216919091179055565b600080546001600160a01b031633146104635760405162461bcd60e51b815260206004820152601960248201527f6d73672e73656e646572206e6f7420676f7665726e616e636500000000000000604482015260640161037f565b6003546001600160a01b0316806104b15760405162461bcd60e51b8152602060048201526012602482015271141bdbdb12d9595c195c881b9bdd081cd95d60721b604482015260640161037f565b6004546001600160a01b03166105095760405162461bcd60e51b815260206004820152601d60248201527f506f6f6c436f6d6d69747465724465706c6f796572206e6f7420736574000000604482015260640161037f565b6004546000906001600160a01b0316639604198361052e610100870160e088016111e7565b610540610120880161010089016111e7565b6040516001600160e01b031960e085901b1681526001600160801b03928316600482015291166024820152604401602060405180830381600087803b15801561058857600080fd5b505af115801561059c573d6000803e3d6000fd5b505050506040513d601f19601f820116820180604052508101906105c0919061118e565b905060016105d46080860160608701611210565b61ffff16101580156106065750600454600160a01b900461ffff166105ff6080860160608701611210565b61ffff1611155b61065e5760405162461bcd60e51b8152602060048201526024808201527f506f6f6c4b65657065723a206c657665726167656420616d6f756e7420696e76604482015263185b1a5960e21b606482015260840161037f565b601261067060a086016080870161116a565b6001600160a01b031663313ce5676040518163ffffffff1660e01b815260040160206040518083038186803b1580156106a857600080fd5b505afa1580156106bc573d6000803e3d6000fd5b505050506040513d601f19601f820116820180604052508101906106e09190611273565b60ff1611156107275760405162461bcd60e51b81526020600482015260136024820152720a8ded6cadc40c8cac6d2dac2d8e6407c40627606b1b604482015260640161037f565b60006107527f0000000000000000000000000000000000000000000000000000000000000000610ebc565b9050806001600160a01b0381167fd76cdb035f3aba359cb02087e4c5bd75f911562b407fc3a52ed2bedfb46585b661078a8880611593565b6040516107989291906113b4565b60405180910390a260006107be6107b56080890160608a01611210565b61ffff16610f54565b90506000816107cd8980611593565b6040516020016107df939291906112c2565b60408051601f1981840301815291905290506000826107fe8a80611593565b604051602001610810939291906112fa565b60408051601f198184030181529190529050600061083460a08b0160808c0161116a565b6001600160a01b031663313ce5676040518163ffffffff1660e01b815260040160206040518083038186803b15801561086c57600080fd5b505afa158015610880573d6000803e3d6000fd5b505050506040513d601f19601f820116820180604052508101906108a49190611273565b905060006108b48684858561107d565b905060006108c48786878661107d565b90506000604051806101c001604052806108e66000546001600160a01b031690565b6001600160a01b031681526020018c6001600160a01b031681526020018e60a0016020810190610916919061116a565b6001600160a01b031681526020018e60c0016020810190610937919061116a565b6001600160a01b03168152602001836001600160a01b03168152602001846001600160a01b031681526020018b6001600160a01b03168152602001888f80600001906109839190611593565b60405160200161099593929190611332565b60405160208183030381529060405281526020018e60200160208101906109bc919061124d565b63ffffffff1681526020018e60400160208101906109da919061124d565b63ffffffff16815260200160065481526020018e6060016020810190610a009190611210565b61ffff168152602001600560009054906101000a90046001600160a01b03166001600160a01b031681526020018e6080016020810190610a40919061116a565b6001600160a01b03168152509050886001600160a01b031663554bb621826040518263ffffffff1660e01b8152600401610a7a9190611448565b600060405180830381600087803b158015610a9457600080fd5b505af1158015610aa8573d6000803e3d6000fd5b50505050896001600160a01b031663fd555fb98e6080016020810190610ace919061116a565b6040516001600160e01b031960e084901b1681526001600160a01b039182166004820152908b166024820152604401600060405180830381600087803b158015610b1757600080fd5b505af1158015610b2b573d6000803e3d6000fd5b5050600354604051633c5c7fb360e01b81526001600160a01b038c811660048301529091169250633c5c7fb39150602401600060405180830381600087803b158015610b7657600080fd5b505af1158015610b8a573d6000803e3d6000fd5b505060088054600090815260076020526040812080546001600160a01b0319166001600160a01b038e1617905581546001945091925090610bcc9084906115e1565b9091555050506001600160a01b0387166000908152600960205260409020805460ff191660011790555094985050505050505050505b919050565b6000546001600160a01b03163314610c315760405162461bcd60e51b815260040161037f906113e3565b6001600160a01b038116610c575760405162461bcd60e51b815260040161037f90611418565b600380546001600160a01b0319166001600160a01b0383169081179091556040519081527ff33ed59034aadf61086c54204694b493ee22a3d903bddbe94c276f7bb442f4e3906020015b60405180910390a150565b6000546001600160a01b03163314610cd65760405162461bcd60e51b815260040161037f906113e3565b6001600160a01b038116610cfc5760405162461bcd60e51b815260040161037f90611418565b600480546001600160a01b0319166001600160a01b0383169081179091556040519081527f71ef8cdf92396d830b1bb3e195158a279020af78e559c0997223f1bc4c735e0d90602001610ca1565b6000546001600160a01b03163314610d745760405162461bcd60e51b815260040161037f906113e3565b600655565b6000546001600160a01b03163314610da35760405162461bcd60e51b815260040161037f906113e3565b610dad600061111a565b565b6000546001600160a01b03163314610dd95760405162461bcd60e51b815260040161037f906113e3565b6001600160a01b038116610dff5760405162461bcd60e51b815260040161037f90611418565b600580546001600160a01b0319166001600160a01b0392909216919091179055565b6000546001600160a01b03163314610e4b5760405162461bcd60e51b815260040161037f906113e3565b6001600160a01b038116610eb05760405162461bcd60e51b815260206004820152602660248201527f4f776e61626c653a206e6577206f776e657220697320746865207a65726f206160448201526564647265737360d01b606482015260840161037f565b610eb98161111a565b50565b6000604051733d602d80600a3d3981f3363d3d373d3d3d363d7360601b81528260601b60148201526e5af43d82803e903d91602b57fd5bf360881b60288201526037816000f09150506001600160a01b038116610c025760405162461bcd60e51b8152602060048201526016602482015275115490cc4c4d8dce8818dc99585d194819985a5b195960521b604482015260640161037f565b606081610f785750506040805180820190915260018152600360fc1b602082015290565b8160005b8115610fa25780610f8c816116a6565b9150610f9b9050600a8361161e565b9150610f7c565b60008167ffffffffffffffff811115610fbd57610fbd6116ed565b6040519080825280601f01601f191660200182016040528015610fe7576020820181803683370190505b509050815b851561107457610ffd60018261165f565b9050600061100c600a8861161e565b61101790600a611640565b611021908861165f565b61102c9060306115f9565b905060008160f81b905080848481518110611049576110496116d7565b60200101906001600160f81b031916908160001a90535061106b600a8961161e565b97505050610fec565b50949350505050565b6000806110a97f0000000000000000000000000000000000000000000000000000000000000000610ebc565b604051637b69774360e11b81529091506001600160a01b0382169063f6d2ee86906110de908990899089908990600401611369565b600060405180830381600087803b1580156110f857600080fd5b505af115801561110c573d6000803e3d6000fd5b509298975050505050505050565b600080546001600160a01b038381166001600160a01b0319831681178455604051919092169283917f8be0079c531659141344cd1fd0a4f28419497f9722a3daafe3b4186f6b6457e09190a35050565b60006020828403121561117c57600080fd5b813561118781611703565b9392505050565b6000602082840312156111a057600080fd5b815161118781611703565b6000602082840312156111bd57600080fd5b813567ffffffffffffffff8111156111d457600080fd5b8201610120818503121561118757600080fd5b6000602082840312156111f957600080fd5b81356001600160801b038116811461118757600080fd5b60006020828403121561122257600080fd5b813561ffff8116811461118757600080fd5b60006020828403121561124657600080fd5b5035919050565b60006020828403121561125f57600080fd5b813563ffffffff8116811461118757600080fd5b60006020828403121561128557600080fd5b815160ff8116811461118757600080fd5b600081518084526112ae816020860160208601611676565b601f01601f19169290920160200192915050565b600084516112d4818460208901611676565b614c2d60f01b908301908152838560028301376000930160020192835250909392505050565b6000845161130c818460208901611676565b61532d60f01b908301908152838560028301376000930160020192835250909392505050565b60008451611344818460208901611676565b602d60f81b908301908152838560018301376000930160010192835250909392505050565b6001600160a01b038516815260806020820181905260009061138d90830186611296565b828103604084015261139f8186611296565b91505060ff8316606083015295945050505050565b60208152816020820152818360408301376000818301604090810191909152601f909201601f19160101919050565b6020808252818101527f4f776e61626c653a2063616c6c6572206973206e6f7420746865206f776e6572604082015260600190565b6020808252601690820152751859191c995cdcc818d85b9b9bdd081899481b9d5b1b60521b604082015260600190565b602081526114626020820183516001600160a01b03169052565b6000602083015161147e60408401826001600160a01b03169052565b5060408301516001600160a01b03811660608401525060608301516001600160a01b03811660808401525060808301516001600160a01b03811660a08401525060a08301516001600160a01b03811660c08401525060c08301516001600160a01b03811660e08401525060e08301516101c061010081818601526115066101e0860184611296565b908601519092506101206115218682018363ffffffff169052565b860151905061014061153a8682018363ffffffff169052565b86015161016086810191909152860151905061018061155e8187018361ffff169052565b86015190506101a061157a868201836001600160a01b03169052565b909501516001600160a01b031693019290925250919050565b6000808335601e198436030181126115aa57600080fd5b83018035915067ffffffffffffffff8211156115c557600080fd5b6020019150368190038213156115da57600080fd5b9250929050565b600082198211156115f4576115f46116c1565b500190565b600060ff821660ff84168060ff03821115611616576116166116c1565b019392505050565b60008261163b57634e487b7160e01b600052601260045260246000fd5b500490565b600081600019048311821515161561165a5761165a6116c1565b500290565b600082821015611671576116716116c1565b500390565b60005b83811015611691578181015183820152602001611679565b838111156116a0576000848401525b50505050565b60006000198214156116ba576116ba6116c1565b5060010190565b634e487b7160e01b600052601160045260246000fd5b634e487b7160e01b600052603260045260246000fd5b634e487b7160e01b600052604160045260246000fd5b6001600160a01b0381168114610eb957600080fdfea2646970667358221220f6bb4010910f3bf5491896923e2cd6a7d59c731d5ea4badc1eb99d9e095e0d2d64736f6c6343000807003360806040523480156200001157600080fd5b506040516200121038038062001210833981016040819052620000349162000175565b6040518060400160405280600a8152602001692120a9a2afaa27a5a2a760b11b815250604051806040016040528060048152602001634241534560e01b81525082828281600390805190602001906200008f929190620000cf565b508051620000a5906004906020840190620000cf565b50506005805460ff909316620100000262ff0000199093169290921790915550620001de92505050565b828054620000dd90620001a1565b90600052602060002090601f0160209004810192826200010157600085556200014c565b82601f106200011c57805160ff19168380011785556200014c565b828001600101855582156200014c579182015b828111156200014c5782518255916020019190600101906200012f565b506200015a9291506200015e565b5090565b5b808211156200015a57600081556001016200015f565b6000602082840312156200018857600080fd5b815160ff811681146200019a57600080fd5b9392505050565b600181811c90821680620001b657607f821691505b60208210811415620001d857634e487b7160e01b600052602260045260246000fd5b50919050565b61102280620001ee6000396000f3fe608060405234801561001057600080fd5b50600436106101005760003560e01c806394bf804d11610097578063dd62ed3e11610066578063dd62ed3e14610231578063f2fde38b1461026a578063f6d2ee861461027f578063fcd3533c1461029257600080fd5b806394bf804d146101f057806395d89b4114610203578063a457c2d71461020b578063a9059cbb1461021e57600080fd5b8063313ce567116100d3578063313ce5671461016b578063395093511461018957806370a082311461019c5780638da5cb5b146101c557600080fd5b806306fdde0314610105578063095ea7b31461012357806318160ddd1461014657806323b872dd14610158575b600080fd5b61010d6102a5565b60405161011a9190610ed3565b60405180910390f35b610136610131366004610e86565b610337565b604051901515815260200161011a565b6002545b60405190815260200161011a565b610136610166366004610dbd565b61034d565b60055462010000900460ff1660405160ff909116815260200161011a565b610136610197366004610e86565b6103fc565b61014a6101aa366004610d68565b6001600160a01b031660009081526020819052604090205490565b6008546101d8906001600160a01b031681565b6040516001600160a01b03909116815260200161011a565b6101366101fe366004610eb0565b610438565b61010d61046f565b610136610219366004610e86565b61047e565b61013661022c366004610e86565b610517565b61014a61023f366004610d8a565b6001600160a01b03918216600090815260016020908152604080832093909416825291909152205490565b61027d610278366004610d68565b610524565b005b61027d61028d366004610df9565b6105c6565b6101366102a0366004610eb0565b6106d6565b6060600680546102b490610f85565b80601f01602080910402602001604051908101604052809291908181526020018280546102e090610f85565b801561032d5780601f106103025761010080835404028352916020019161032d565b820191906000526020600020905b81548152906001019060200180831161031057829003601f168201915b5050505050905090565b600061034433848461070d565b50600192915050565b600061035a848484610832565b6001600160a01b0384166000908152600160209081526040808320338452909152902054828110156103e45760405162461bcd60e51b815260206004820152602860248201527f45524332303a207472616e7366657220616d6f756e74206578636565647320616044820152676c6c6f77616e636560c01b60648201526084015b60405180910390fd5b6103f1853385840361070d565b506001949350505050565b3360008181526001602090815260408083206001600160a01b03871684529091528120549091610344918590610433908690610f56565b61070d565b6008546000906001600160a01b031633146104655760405162461bcd60e51b81526004016103db90610f28565b6103448284610a01565b6060600780546102b490610f85565b3360009081526001602090815260408083206001600160a01b0386168452909152812054828110156105005760405162461bcd60e51b815260206004820152602560248201527f45524332303a2064656372656173656420616c6c6f77616e63652062656c6f77604482015264207a65726f60d81b60648201526084016103db565b61050d338585840361070d565b5060019392505050565b6000610344338484610832565b6008546001600160a01b0316331461054e5760405162461bcd60e51b81526004016103db90610f28565b6001600160a01b0381166105a45760405162461bcd60e51b815260206004820152601b60248201527f4f776e65723a2073657474696e6720746f20302061646472657373000000000060448201526064016103db565b600880546001600160a01b0319166001600160a01b0392909216919091179055565b600554610100900460ff16806105df575060055460ff16155b6106425760405162461bcd60e51b815260206004820152602e60248201527f496e697469616c697a61626c653a20636f6e747261637420697320616c72656160448201526d191e481a5b9a5d1a585b1a5e995960921b60648201526084016103db565b600554610100900460ff16158015610664576005805461ffff19166101011790555b600880546001600160a01b0319166001600160a01b0387161790558351610692906006906020870190610c26565b5082516106a6906007906020860190610c26565b506005805462ff000019166201000060ff85160217905580156106cf576005805461ff00191690555b5050505050565b6008546000906001600160a01b031633146107035760405162461bcd60e51b81526004016103db90610f28565b6103448284610ae0565b6001600160a01b03831661076f5760405162461bcd60e51b8152602060048201526024808201527f45524332303a20617070726f76652066726f6d20746865207a65726f206164646044820152637265737360e01b60648201526084016103db565b6001600160a01b0382166107d05760405162461bcd60e51b815260206004820152602260248201527f45524332303a20617070726f766520746f20746865207a65726f206164647265604482015261737360f01b60648201526084016103db565b6001600160a01b0383811660008181526001602090815260408083209487168084529482529182902085905590518481527f8c5be1e5ebec7d5bd14f71427d1e84f3dd0314c0f7b2291e5b200ac8c7c3b92591015b60405180910390a3505050565b6001600160a01b0383166108965760405162461bcd60e51b815260206004820152602560248201527f45524332303a207472616e736665722066726f6d20746865207a65726f206164604482015264647265737360d81b60648201526084016103db565b6001600160a01b0382166108f85760405162461bcd60e51b815260206004820152602360248201527f45524332303a207472616e7366657220746f20746865207a65726f206164647260448201526265737360e81b60648201526084016103db565b6001600160a01b038316600090815260208190526040902054818110156109705760405162461bcd60e51b815260206004820152602660248201527f45524332303a207472616e7366657220616d6f756e7420657863656564732062604482015265616c616e636560d01b60648201526084016103db565b6001600160a01b038085166000908152602081905260408082208585039055918516815290812080548492906109a7908490610f56565b92505081905550826001600160a01b0316846001600160a01b03167fddf252ad1be2c89b69c2b068fc378daa952ba7f163c4a11628f55a4df523b3ef846040516109f391815260200190565b60405180910390a350505050565b6001600160a01b038216610a575760405162461bcd60e51b815260206004820152601f60248201527f45524332303a206d696e7420746f20746865207a65726f20616464726573730060448201526064016103db565b8060026000828254610a699190610f56565b90915550506001600160a01b03821660009081526020819052604081208054839290610a96908490610f56565b90915550506040518181526001600160a01b038316906000907fddf252ad1be2c89b69c2b068fc378daa952ba7f163c4a11628f55a4df523b3ef9060200160405180910390a35050565b6001600160a01b038216610b405760405162461bcd60e51b815260206004820152602160248201527f45524332303a206275726e2066726f6d20746865207a65726f206164647265736044820152607360f81b60648201526084016103db565b6001600160a01b03821660009081526020819052604090205481811015610bb45760405162461bcd60e51b815260206004820152602260248201527f45524332303a206275726e20616d6f756e7420657863656564732062616c616e604482015261636560f01b60648201526084016103db565b6001600160a01b0383166000908152602081905260408120838303905560028054849290610be3908490610f6e565b90915550506040518281526000906001600160a01b038516907fddf252ad1be2c89b69c2b068fc378daa952ba7f163c4a11628f55a4df523b3ef90602001610825565b828054610c3290610f85565b90600052602060002090601f016020900481019282610c545760008555610c9a565b82601f10610c6d57805160ff1916838001178555610c9a565b82800160010185558215610c9a579182015b82811115610c9a578251825591602001919060010190610c7f565b50610ca6929150610caa565b5090565b5b80821115610ca65760008155600101610cab565b80356001600160a01b0381168114610cd657600080fd5b919050565b600082601f830112610cec57600080fd5b813567ffffffffffffffff80821115610d0757610d07610fd6565b604051601f8301601f19908116603f01168101908282118183101715610d2f57610d2f610fd6565b81604052838152866020858801011115610d4857600080fd5b836020870160208301376000602085830101528094505050505092915050565b600060208284031215610d7a57600080fd5b610d8382610cbf565b9392505050565b60008060408385031215610d9d57600080fd5b610da683610cbf565b9150610db460208401610cbf565b90509250929050565b600080600060608486031215610dd257600080fd5b610ddb84610cbf565b9250610de960208501610cbf565b9150604084013590509250925092565b60008060008060808587031215610e0f57600080fd5b610e1885610cbf565b9350602085013567ffffffffffffffff80821115610e3557600080fd5b610e4188838901610cdb565b94506040870135915080821115610e5757600080fd5b50610e6487828801610cdb565b925050606085013560ff81168114610e7b57600080fd5b939692955090935050565b60008060408385031215610e9957600080fd5b610ea283610cbf565b946020939093013593505050565b60008060408385031215610ec357600080fd5b82359150610db460208401610cbf565b600060208083528351808285015260005b81811015610f0057858101830151858201604001528201610ee4565b81811115610f12576000604083870101525b50601f01601f1916929092016040019392505050565b60208082526014908201527336b9b39739b2b73232b9103737ba1037bbb732b960611b604082015260600190565b60008219821115610f6957610f69610fc0565b500190565b600082821015610f8057610f80610fc0565b500390565b600181811c90821680610f9957607f821691505b60208210811415610fba57634e487b7160e01b600052602260045260246000fd5b50919050565b634e487b7160e01b600052601160045260246000fd5b634e487b7160e01b600052604160045260246000fdfea26469706673582212207c87cda234a81f67da55383e6777723cd02e3646c72a9ac54ed0abd1942c4c2864736f6c63430008070033608060405234801561001057600080fd5b50612c3b806100206000396000f3fe608060405234801561001057600080fd5b506004361061023d5760003560e01c80637bbf10331161013b578063b9ed8abf116100b8578063ddca3f431161007c578063ddca3f43146104de578063f164e2a7146104f2578063f3466dfa14610506578063f633a7401461051b578063fd2c80ae1461052e57600080fd5b8063b9ed8abf14610489578063ba8d54681461049c578063bbcaac38146104a5578063cd39f30f146104b8578063d38bfff4146104cb57600080fd5b80638456cb59116100ff5780638456cb591461042257806387f9ca5d1461042a5780639fd552451461043d578063ab47c2b314610450578063aced16611461047657600080fd5b80637bbf1033146103d05780637bfe789a146103d85780637de93f93146103fd5780637e71fc7d146104065780638226f3961461040f57600080fd5b80635aa6e675116101c9578063748747e61161018d578063748747e61461036657806375c66e2f14610379578063796da7af1461038c5780637b0a0c90146103a25780637bb98a68146103b557600080fd5b80635aa6e675146102ff5780635c975abb146103125780635d36b190146103365780636d3e313e1461033e5780636dc2b2711461035357600080fd5b80633f4ba83a116102105780633f4ba83a146102ab57806341275358146102b35780634f64b2be146102c6578063554bb621146102d95780635817f0c6146102ec57600080fd5b806304883c2714610242578063217a4b70146102635780633c3f82521461028e5780633d4c485d146102a3575b600080fd5b61024a610546565b60405161025a94939291906129c3565b60405180910390f35b600a54610276906001600160a01b031681565b6040516001600160a01b03909116815260200161025a565b6102a161029c3660046127b9565b6105f9565b005b6102a1610661565b6102a1610771565b600954610276906001600160a01b031681565b6102766102d436600461283b565b6107d3565b6102a16102e73660046127db565b6107f3565b6102a16102fa366004612671565b61117d565b600754610276906001600160a01b031681565b60105461032690600160a81b900460ff1681565b604051901515815260200161025a565b6102a161123e565b61034661137c565b60405161025a9190612989565b610326610361366004612671565b6113c0565b6102a161037436600461261a565b61158a565b6102a1610387366004612878565b611691565b610394611871565b60405190815260200161025a565b6102a16103b0366004612635565b6118f3565b6001546002546040805192835260208301919091520161025a565b610326611a0b565b6003546103e89063ffffffff1681565b60405163ffffffff909116815260200161025a565b610394600c5481565b61039460025481565b600f54610276906001600160a01b031681565b6102a1611a35565b6102a1610438366004612878565b611a9d565b601054610276906001600160a01b031681565b60045461045d9060801b81565b6040516001600160801b0319909116815260200161025a565b600854610276906001600160a01b031681565b600e54610276906001600160a01b031681565b61039460015481565b6102a16104b336600461261a565b611c78565b600b54610276906001600160a01b031681565b6102a16104d936600461261a565b611d74565b60035461045d90600160401b900460801b81565b60105461032690600160a01b900460ff1681565b61050e611e83565b60405161025a91906129ef565b6102a16105293660046127b9565b611f11565b6003546103e890640100000000900463ffffffff1681565b60006060600080600e60009054906101000a90046001600160a01b03166001600160a01b031663db6d8fcf6040518163ffffffff1660e01b815260040160006040518083038186803b15801561059b57600080fd5b505afa1580156105af573d6000803e3d6000fd5b505050506040513d6000823e601f3d908101601f191682016040526105d79190810190612700565b600c546003549297919650945064010000000090910463ffffffff1692509050565b600b546001600160a01b0316331461062c5760405162461bcd60e51b815260040161062390612a2a565b60405180910390fd5b601054600160a81b900460ff16156106565760405162461bcd60e51b815260040161062390612a02565b600291909155600155565b6007546001600160a01b0316331461068b5760405162461bcd60e51b815260040161062390612a61565b601054600160a81b900460ff166106d35760405162461bcd60e51b815260206004820152600c60248201526b506f6f6c206973206c69766560a01b6044820152606401610623565b600a546040516370a0823160e01b81523060048201526001600160a01b039091169060009082906370a082319060240160206040518083038186803b15801561071b57600080fd5b505afa15801561072f573d6000803e3d6000fd5b505050506040513d601f19601f8201168201806040525081019061075391906126e7565b600a5490915061076d906001600160a01b0316338361205b565b5050565b6007546001600160a01b0316331461079b5760405162461bcd60e51b815260040161062390612a61565b6010805460ff60a81b191690556040517fa45f47fdea8a1efdd9029a5691c7f759c32b7c698632b563573e155625d1693390600090a1565b600581600281106107e357600080fd5b01546001600160a01b0316905081565b600054610100900460ff168061080c575060005460ff16155b61086f5760405162461bcd60e51b815260206004820152602e60248201527f496e697469616c697a61626c653a20636f6e747261637420697320616c72656160448201526d191e481a5b9a5d1a585b1a5e995960921b6064820152608401610623565b600054610100900460ff16158015610891576000805461ffff19166101011790555b60006108a56101a08401610180850161261a565b6001600160a01b031614156108fc5760405162461bcd60e51b815260206004820152601f60248201527f46656520616464726573732063616e6e6f7420626520302061646472657373006044820152606401610623565b60006109106101c084016101a0850161261a565b6001600160a01b031614156109675760405162461bcd60e51b815260206004820152601f60248201527f51756f746520746f6b656e2063616e6e6f7420626520302061646472657373006044820152606401610623565b6000610979606084016040850161261a565b6001600160a01b031614156109db5760405162461bcd60e51b815260206004820152602260248201527f4f7261636c6520777261707065722063616e6e6f742062652030206164647265604482015261737360f01b6064820152608401610623565b60006109ed608084016060850161261a565b6001600160a01b03161415610a4e5760405162461bcd60e51b815260206004820152602160248201527f4b6565706572206f7261636c652063616e6e6f742062652030206164647265736044820152607360f81b6064820152608401610623565b6000610a5d602084018461261a565b6001600160a01b03161415610ab45760405162461bcd60e51b815260206004820152601960248201527f4f776e65722063616e6e6f7420626520302061646472657373000000000000006044820152606401610623565b6000610ac6604084016020850161261a565b6001600160a01b03161415610b1d5760405162461bcd60e51b815260206004820152601a60248201527f4b65657065722063616e6e6f74206265203020616464726573730000000000006044820152606401610623565b6000610b2f60a084016080850161261a565b6001600160a01b03161415610b865760405162461bcd60e51b815260206004820152601e60248201527f4c6f6e6720746f6b656e2063616e6e6f742062652030206164647265737300006044820152606401610623565b6000610b9860c0840160a0850161261a565b6001600160a01b03161415610bef5760405162461bcd60e51b815260206004820152601f60248201527f53686f727420746f6b656e2063616e6e6f7420626520302061646472657373006044820152606401610623565b6000610c0160e0840160c0850161261a565b6001600160a01b03161415610c625760405162461bcd60e51b815260206004820152602160248201527f506f6f6c436f6d6d69747465722063616e6e6f742062652030206164647265736044820152607360f81b6064820152608401610623565b610c74610140830161012084016128db565b63ffffffff16610c8c610120840161010085016128db565b63ffffffff1610610cdf5760405162461bcd60e51b815260206004820152601d60248201527f66726f6e7452756e6e696e67203e20757064617465496e74657276616c0000006044820152606401610623565b610cf2670de0b6b3a76400006001612afe565b82610140013510610d335760405162461bcd60e51b815260206004820152600b60248201526a466565203e3d203130302560a81b6044820152606401610623565b610d40602083018361261a565b600780546001600160a01b0319166001600160a01b0392909216919091179055610d70604083016020840161261a565b600880546001600160a01b0319166001600160a01b0392909216919091179055610da0606083016040840161261a565b600e80546001600160a01b0319166001600160a01b0392909216919091179055610dd0608083016060840161261a565b600f80546001600160a01b0319166001600160a01b0392909216919091179055610e026101c083016101a0840161261a565b600a80546001600160a01b0319166001600160a01b0392909216919091179055610e34610120830161010084016128db565b6003805463ffffffff191663ffffffff92909216919091179055610e60610140830161012084016128db565b6003805463ffffffff929092166401000000000267ffffffff0000000019909216919091179055604051636fedf26d60e11b8152610140830135600482015273__$dc3b4b0a367edd91a2d74c73e2da54c142$__9063dfdbe4da9060240160206040518083038186803b158015610ed657600080fd5b505af4158015610eea573d6000803e3d6000fd5b505050506040513d601f19601f82011682018060405250810190610f0e91906126bd565b6003805460809290921c600160401b0277ffffffffffffffffffffffffffffffff00000000000000001990921691909117905573__$dc3b4b0a367edd91a2d74c73e2da54c142$__63dfdbe4da610f6d61018085016101608601612817565b6040516001600160e01b031960e084901b16815261ffff909116600482015260240160206040518083038186803b158015610fa757600080fd5b505af4158015610fbb573d6000803e3d6000fd5b505050506040513d601f19601f82011682018060405250810190610fdf91906126bd565b600480546001600160801b03191660809290921c91909117905561100b6101a08301610180840161261a565b600980546001600160a01b0319166001600160a01b039290921691909117905542600c5561103c60e0830183612a98565b61104891600d91612547565b5061105960a083016080840161261a565b600560000180546001600160a01b0319166001600160a01b039290921691909117905561108c60c0830160a0840161261a565b600560010180546001600160a01b0319166001600160a01b03929092169190911790556110bf60e0830160c0840161261a565b600b80546001600160a01b0319166001600160a01b03929092169190911790556110ef60c0830160a0840161261a565b6001600160a01b031661110860a084016080850161261a565b6001600160a01b03167fbc8bd61e5dd69ff5cb8c389529c029503515ba368eaafbdaa406e072fdd360726111446101c086016101a0870161261a565b61115160e0870187612a98565b60405161116093929190612949565b60405180910390a3801561076d576000805461ff00191690555050565b600b546001600160a01b031633146111a75760405162461bcd60e51b815260040161062390612a2a565b601054600160a81b900460ff16156111d15760405162461bcd60e51b815260040161062390612a02565b6001600160a01b0382166112275760405162461bcd60e51b815260206004820152601e60248201527f546f20616464726573732063616e6e6f742062652030206164647265737300006044820152606401610623565b600a5461076d906001600160a01b0316838361205b565b601054600160a81b900460ff16156112685760405162461bcd60e51b815260040161062390612a02565b601054600160a01b900460ff166112c15760405162461bcd60e51b815260206004820152601b60248201527f4e6f20676f7665726e616e6365206368616e67652061637469766500000000006044820152606401610623565b6010546001600160a01b0316331461131b5760405162461bcd60e51b815260206004820152601860248201527f4e6f742070726f766973696f6e616c20676f7665726e6f7200000000000000006044820152606401610623565b60078054601080546001600160a01b038082166001600160a01b03198516811790955560ff60a01b199091169091556040519116919082907f023588d3d1dcaad34e471c9e01b616b794156174bc693539c8fe15c0bfd5d82690600090a350565b6113846125cb565b60408051808201918290529060059060029082845b81546001600160a01b03168152600190910190602001808311611399575050505050905090565b6008546000906001600160a01b031633146114155760405162461bcd60e51b815260206004820152601560248201527436b9b39739b2b73232b9103737ba1035b2b2b832b960591b6044820152606401610623565b601054600160a81b900460ff161561143f5760405162461bcd60e51b815260040161062390612a02565b6001600160a01b03831661149f5760405162461bcd60e51b815260206004820152602160248201527f52656365697069656e7420616464726573732063616e6e6f74206265206e756c6044820152601b60fa1b6064820152608401610623565b6001546002546114af8183612ae6565b84106114c057600092505050611584565b60405163dc35bc1360e01b8152600481018590526024810183905260448101829052600090819073__$dc3b4b0a367edd91a2d74c73e2da54c142$__9063dc35bc1390606401604080518083038186803b15801561151d57600080fd5b505af4158015611531573d6000803e3d6000fd5b505050506040513d601f19601f820116820180604052508101906115559190612854565b60018290556002819055600a54919350915061157b906001600160a01b0316888861205b565b60019450505050505b92915050565b6007546001600160a01b031633146115b45760405162461bcd60e51b815260040161062390612a61565b601054600160a81b900460ff16156115de5760405162461bcd60e51b815260040161062390612a02565b6001600160a01b03811661163f5760405162461bcd60e51b815260206004820152602260248201527f4b656570657220616464726573732063616e6e6f742062652030206164647265604482015261737360f01b6064820152608401610623565b600880546001600160a01b038381166001600160a01b0319831681179093556040519116919082907f402b3f9a8de3e388e7653c7a5892204fe18b579c8c23db19d6e00f1043ceb92190600090a35050565b600b546001600160a01b031633146116bb5760405162461bcd60e51b815260040161062390612a2a565b601054600160a81b900460ff16156116e55760405162461bcd60e51b815260040161062390612a02565b6001600160a01b0381166117465760405162461bcd60e51b815260206004820152602260248201527f4d696e74657220616464726573732063616e6e6f742062652030206164647265604482015261737360f01b6064820152608401610623565b8215806117535750826001145b61179a5760405162461bcd60e51b8152602060048201526018602482015277506f6f6c3a20746f6b656e206f7574206f662072616e676560401b6044820152606401610623565b600583600281106117ad576117ad612bd9565b01546040516394bf804d60e01b8152600481018490526001600160a01b038381166024830152909116906394bf804d90604401602060405180830381600087803b1580156117fa57600080fd5b505af115801561180e573d6000803e3d6000fd5b505050506040513d601f19601f82011682018060405250810190611832919061269b565b61186c5760405162461bcd60e51b815260206004820152600b60248201526a135a5b9d0819985a5b195960aa1b6044820152606401610623565b505050565b600e5460408051634c6afee560e11b815290516000926001600160a01b0316916398d5fdca916004808301926020929190829003018186803b1580156118b657600080fd5b505afa1580156118ca573d6000803e3d6000fd5b505050506040513d601f19601f820116820180604052508101906118ee91906126e7565b905090565b600b546001600160a01b0316331461191d5760405162461bcd60e51b815260040161062390612a2a565b601054600160a81b900460ff16156119475760405162461bcd60e51b815260040161062390612a02565b6001600160a01b03831661199d5760405162461bcd60e51b815260206004820181905260248201527f46726f6d20616464726573732063616e6e6f74206265203020616464726573736044820152606401610623565b6001600160a01b0382166119f35760405162461bcd60e51b815260206004820152601e60248201527f546f20616464726573732063616e6e6f742062652030206164647265737300006044820152606401610623565b600a5461186c906001600160a01b03168484846120be565b600354600c54600091611a2d9164010000000090910463ffffffff1690612ae6565b421015905090565b6007546001600160a01b03163314611a5f5760405162461bcd60e51b815260040161062390612a61565b6010805460ff60a81b1916600160a81b1790556040517f9e87fac88ff661f02d44f95383c817fece4bce600a3dab7a54406878b965e75290600090a1565b600b546001600160a01b03163314611ac75760405162461bcd60e51b815260040161062390612a2a565b601054600160a81b900460ff1615611af15760405162461bcd60e51b815260040161062390612a02565b6001600160a01b038116611b525760405162461bcd60e51b815260206004820152602260248201527f4275726e657220616464726573732063616e6e6f742062652030206164647265604482015261737360f01b6064820152608401610623565b821580611b5f5750826001145b611ba65760405162461bcd60e51b8152602060048201526018602482015277506f6f6c3a20746f6b656e206f7574206f662072616e676560401b6044820152606401610623565b60058360028110611bb957611bb9612bd9565b0154604051633f34d4cf60e21b8152600481018490526001600160a01b0383811660248301529091169063fcd3533c90604401602060405180830381600087803b158015611c0657600080fd5b505af1158015611c1a573d6000803e3d6000fd5b505050506040513d601f19601f82011682018060405250810190611c3e919061269b565b61186c5760405162461bcd60e51b815260206004820152600b60248201526a109d5c9b8819985a5b195960aa1b6044820152606401610623565b6007546001600160a01b03163314611ca25760405162461bcd60e51b815260040161062390612a61565b601054600160a81b900460ff1615611ccc5760405162461bcd60e51b815260040161062390612a02565b6001600160a01b038116611d225760405162461bcd60e51b815260206004820152601b60248201527f4163636f756e742063616e6e6f742062652030206164647265737300000000006044820152606401610623565b600980546001600160a01b038381166001600160a01b0319831681179093556040519116919082907f11f35a22548bcd4c3788ab4a7e4fba427a2014f02e5d5e2da9af62212c03183f90600090a35050565b6007546001600160a01b03163314611d9e5760405162461bcd60e51b815260040161062390612a61565b601054600160a81b900460ff1615611dc85760405162461bcd60e51b815260040161062390612a02565b6001600160a01b038116611e2d5760405162461bcd60e51b815260206004820152602660248201527f476f7665726e616e636520616464726573732063616e6e6f742062652030206160448201526564647265737360d01b6064820152608401610623565b601080546001600160a81b0319166001600160a01b0380841691909117600160a01b17918290556040519116907f35681f4f23137fb58510a9854f1b6e95f90a2cf0b66d2fce4df74cc0becc82d590600090a250565b600d8054611e9090612b88565b80601f0160208091040260200160405190810160405280929190818152602001828054611ebc90612b88565b8015611f095780601f10611ede57610100808354040283529160200191611f09565b820191906000526020600020905b815481529060010190602001808311611eec57829003601f168201915b505050505081565b6008546001600160a01b03163314611f635760405162461bcd60e51b815260206004820152601560248201527436b9b39739b2b73232b9103737ba1035b2b2b832b960591b6044820152606401610623565b601054600160a81b900460ff1615611f8d5760405162461bcd60e51b815260040161062390612a02565b611f95611a0b565b611fe15760405162461bcd60e51b815260206004820152601d60248201527f55706461746520696e74657276616c206861736e2774207061737365640000006044820152606401610623565b611feb82826120fc565b600b60009054906101000a90046001600160a01b03166001600160a01b0316631c536da46040518163ffffffff1660e01b8152600401600060405180830381600087803b15801561203b57600080fd5b505af115801561204f573d6000803e3d6000fd5b505042600c5550505050565b6040516001600160a01b03831660248201526044810182905261186c90849063a9059cbb60e01b906064015b60408051601f198184030181529190526020810180516001600160e01b03166001600160e01b0319909316929092179091526122fb565b6040516001600160a01b03808516602483015283166044820152606481018290526120f69085906323b872dd60e01b90608401612087565b50505050565b601054600160a81b900460ff16156121265760405162461bcd60e51b815260040161062390612a02565b600082131580612137575060008113155b1561216d57604051819083907f27f70c863f1bd3e335bb4d6bf2a31075c861752f0b21a03b816a356035b1dec690600090a35050565b6001546002546040805160c0810182528581526020810185815281830184815260608301868152600480546001600160801b0319608091821b8116828801908152600354600160401b900490921b811660a088019081529751632920706d60e21b815287519381019390935294516024830152925160448201529051606482015290518216608482015292511660a4830152906000908190819073__$dc3b4b0a367edd91a2d74c73e2da54c142$__9063a481c1b49060c40160606040518083038186803b15801561223e57600080fd5b505af4158015612252573d6000803e3d6000fd5b505050506040513d601f19601f8201168201806040525081019061227691906128ad565b919450925090507f3a4a53e86baa9b577f931e849a3472fd6be844c0916377bc806be891847a5c2b6122a88784612b1d565b6122b28786612b1d565b6040805192835260208301919091520160405180910390a160028390556001829055600954600a546122f1916001600160a01b0391821691168361205b565b5050505050505050565b6000612350826040518060400160405280602081526020017f5361666545524332303a206c6f772d6c6576656c2063616c6c206661696c6564815250856001600160a01b03166123cd9092919063ffffffff16565b80519091501561186c578080602001905181019061236e919061269b565b61186c5760405162461bcd60e51b815260206004820152602a60248201527f5361666545524332303a204552433230206f7065726174696f6e20646964206e6044820152691bdd081cdd58d8d9595960b21b6064820152608401610623565b60606123dc84846000856123e6565b90505b9392505050565b6060824710156124475760405162461bcd60e51b815260206004820152602660248201527f416464726573733a20696e73756666696369656e742062616c616e636520666f6044820152651c8818d85b1b60d21b6064820152608401610623565b843b6124955760405162461bcd60e51b815260206004820152601d60248201527f416464726573733a2063616c6c20746f206e6f6e2d636f6e74726163740000006044820152606401610623565b600080866001600160a01b031685876040516124b1919061292d565b60006040518083038185875af1925050503d80600081146124ee576040519150601f19603f3d011682016040523d82523d6000602084013e6124f3565b606091505b509150915061250382828661250e565b979650505050505050565b6060831561251d5750816123df565b82511561252d5782518084602001fd5b8160405162461bcd60e51b815260040161062391906129ef565b82805461255390612b88565b90600052602060002090601f01602090048101928261257557600085556125bb565b82601f1061258e5782800160ff198235161785556125bb565b828001600101855582156125bb579182015b828111156125bb5782358255916020019190600101906125a0565b506125c79291506125e9565b5090565b60405180604001604052806002906020820280368337509192915050565b5b808211156125c757600081556001016125ea565b80356001600160a01b038116811461261557600080fd5b919050565b60006020828403121561262c57600080fd5b6123df826125fe565b60008060006060848603121561264a57600080fd5b612653846125fe565b9250612661602085016125fe565b9150604084013590509250925092565b6000806040838503121561268457600080fd5b61268d836125fe565b946020939093013593505050565b6000602082840312156126ad57600080fd5b815180151581146123df57600080fd5b6000602082840312156126cf57600080fd5b81516001600160801b0319811681146123df57600080fd5b6000602082840312156126f957600080fd5b5051919050565b6000806040838503121561271357600080fd5b82519150602083015167ffffffffffffffff8082111561273257600080fd5b818501915085601f83011261274657600080fd5b81518181111561275857612758612bef565b604051601f8201601f19908116603f0116810190838211818310171561278057612780612bef565b8160405282815288602084870101111561279957600080fd5b6127aa836020830160208801612b5c565b80955050505050509250929050565b600080604083850312156127cc57600080fd5b50508035926020909101359150565b6000602082840312156127ed57600080fd5b813567ffffffffffffffff81111561280457600080fd5b82016101c081850312156123df57600080fd5b60006020828403121561282957600080fd5b813561ffff811681146123df57600080fd5b60006020828403121561284d57600080fd5b5035919050565b6000806040838503121561286757600080fd5b505080516020909101519092909150565b60008060006060848603121561288d57600080fd5b83359250602084013591506128a4604085016125fe565b90509250925092565b6000806000606084860312156128c257600080fd5b8351925060208401519150604084015190509250925092565b6000602082840312156128ed57600080fd5b813563ffffffff811681146123df57600080fd5b60008151808452612919816020860160208601612b5c565b601f01601f19169290920160200192915050565b6000825161293f818460208701612b5c565b9190910192915050565b6001600160a01b03841681526040602082018190528101829052818360608301376000818301606090810191909152601f909201601f1916010192915050565b60408101818360005b60028110156129ba5781516001600160a01b0316835260209283019290910190600101612992565b50505092915050565b8481526080602082015260006129dc6080830186612901565b6040830194909452506060015292915050565b6020815260006123df6020830184612901565b6020808252600e908201526d141bdbdb081a5cc81c185d5cd95960921b604082015260600190565b6020808252601c908201527f6d73672e73656e646572206e6f7420706f6f6c436f6d6d697474657200000000604082015260600190565b60208082526019908201527f6d73672e73656e646572206e6f7420676f7665726e616e636500000000000000604082015260600190565b6000808335601e19843603018112612aaf57600080fd5b83018035915067ffffffffffffffff821115612aca57600080fd5b602001915036819003821315612adf57600080fd5b9250929050565b60008219821115612af957612af9612bc3565b500190565b6000816000190483118215151615612b1857612b18612bc3565b500290565b60008083128015600160ff1b850184121615612b3b57612b3b612bc3565b6001600160ff1b0384018313811615612b5657612b56612bc3565b50500390565b60005b83811015612b77578181015183820152602001612b5f565b838111156120f65750506000910152565b600181811c90821680612b9c57607f821691505b60208210811415612bbd57634e487b7160e01b600052602260045260246000fd5b50919050565b634e487b7160e01b600052601160045260246000fd5b634e487b7160e01b600052603260045260246000fd5b634e487b7160e01b600052604160045260246000fdfea26469706673582212206ca4d81db1ecc41390057f6e549ccb6245d40b949e556f91555ccabbb1538d6c64736f6c63430008070033",
  "linkReferences": {
    "contracts/implementation/PoolSwapLibrary.sol": {
      "PoolSwapLibrary": [
        {
          "length": 20,
          "start": 15712
        },
        {
          "length": 20,
          "start": 15874
        },
        {
          "length": 20,
          "start": 17320
        },
        {
          "length": 20,
          "start": 20680
        }
      ]
    }
  },
  "deployedLinkReferences": {}
}