{
  "address": "0xF8f2A07D299c1683E8F06611733908D135700d14",
  "abi": [
    {
      "inputs": [],
      "stateMutability": "nonpayable",
      "type": "constructor"
    },
    {
      "anonymous": false,
      "inputs": [
        {
          "indexed": true,
          "internalType": "bytes32",
          "name": "role",
          "type": "bytes32"
        },
        {
          "indexed": true,
          "internalType": "bytes32",
          "name": "previousAdminRole",
          "type": "bytes32"
        },
        {
          "indexed": true,
          "internalType": "bytes32",
          "name": "newAdminRole",
          "type": "bytes32"
        }
      ],
      "name": "RoleAdminChanged",
      "type": "event"
    },
    {
      "anonymous": false,
      "inputs": [
        {
          "indexed": true,
          "internalType": "bytes32",
          "name": "role",
          "type": "bytes32"
        },
        {
          "indexed": true,
          "internalType": "address",
          "name": "account",
          "type": "address"
        },
        {
          "indexed": true,
          "internalType": "address",
          "name": "sender",
          "type": "address"
        }
      ],
      "name": "RoleGranted",
      "type": "event"
    },
    {
      "anonymous": false,
      "inputs": [
        {
          "indexed": true,
          "internalType": "bytes32",
          "name": "role",
          "type": "bytes32"
        },
        {
          "indexed": true,
          "internalType": "address",
          "name": "account",
          "type": "address"
        },
        {
          "indexed": true,
          "internalType": "address",
          "name": "sender",
          "type": "address"
        }
      ],
      "name": "RoleRevoked",
      "type": "event"
    },
    {
      "inputs": [],
      "name": "ADMIN",
      "outputs": [
        {
          "internalType": "bytes32",
          "name": "",
          "type": "bytes32"
        }
      ],
      "stateMutability": "view",
      "type": "function"
    },
    {
      "inputs": [],
      "name": "DEFAULT_ADMIN_ROLE",
      "outputs": [
        {
          "internalType": "bytes32",
          "name": "",
          "type": "bytes32"
        }
      ],
      "stateMutability": "view",
      "type": "function"
    },
    {
      "inputs": [],
      "name": "OPERATOR",
      "outputs": [
        {
          "internalType": "bytes32",
          "name": "",
          "type": "bytes32"
        }
      ],
      "stateMutability": "view",
      "type": "function"
    },
    {
      "inputs": [
        {
          "internalType": "string",
          "name": "",
          "type": "string"
        }
      ],
      "name": "assetOracles",
      "outputs": [
        {
          "internalType": "address",
          "name": "",
          "type": "address"
        }
      ],
      "stateMutability": "view",
      "type": "function"
    },
    {
      "inputs": [
        {
          "internalType": "string",
          "name": "marketCode",
          "type": "string"
        }
      ],
      "name": "getPrice",
      "outputs": [
        {
          "internalType": "int256",
          "name": "",
          "type": "int256"
        }
      ],
      "stateMutability": "view",
      "type": "function"
    },
    {
      "inputs": [
        {
          "internalType": "bytes32",
          "name": "role",
          "type": "bytes32"
        }
      ],
      "name": "getRoleAdmin",
      "outputs": [
        {
          "internalType": "bytes32",
          "name": "",
          "type": "bytes32"
        }
      ],
      "stateMutability": "view",
      "type": "function"
    },
    {
      "inputs": [
        {
          "internalType": "bytes32",
          "name": "role",
          "type": "bytes32"
        },
        {
          "internalType": "uint256",
          "name": "index",
          "type": "uint256"
        }
      ],
      "name": "getRoleMember",
      "outputs": [
        {
          "internalType": "address",
          "name": "",
          "type": "address"
        }
      ],
      "stateMutability": "view",
      "type": "function"
    },
    {
      "inputs": [
        {
          "internalType": "bytes32",
          "name": "role",
          "type": "bytes32"
        }
      ],
      "name": "getRoleMemberCount",
      "outputs": [
        {
          "internalType": "uint256",
          "name": "",
          "type": "uint256"
        }
      ],
      "stateMutability": "view",
      "type": "function"
    },
    {
      "inputs": [
        {
          "internalType": "bytes32",
          "name": "role",
          "type": "bytes32"
        },
        {
          "internalType": "address",
          "name": "account",
          "type": "address"
        }
      ],
      "name": "grantRole",
      "outputs": [],
      "stateMutability": "nonpayable",
      "type": "function"
    },
    {
      "inputs": [
        {
          "internalType": "bytes32",
          "name": "role",
          "type": "bytes32"
        },
        {
          "internalType": "address",
          "name": "account",
          "type": "address"
        }
      ],
      "name": "hasRole",
      "outputs": [
        {
          "internalType": "bool",
          "name": "",
          "type": "bool"
        }
      ],
      "stateMutability": "view",
      "type": "function"
    },
    {
      "inputs": [
        {
          "internalType": "bytes32",
          "name": "role",
          "type": "bytes32"
        },
        {
          "internalType": "address",
          "name": "account",
          "type": "address"
        }
      ],
      "name": "renounceRole",
      "outputs": [],
      "stateMutability": "nonpayable",
      "type": "function"
    },
    {
      "inputs": [
        {
          "internalType": "bytes32",
          "name": "role",
          "type": "bytes32"
        },
        {
          "internalType": "address",
          "name": "account",
          "type": "address"
        }
      ],
      "name": "revokeRole",
      "outputs": [],
      "stateMutability": "nonpayable",
      "type": "function"
    },
    {
      "inputs": [
        {
          "internalType": "string",
          "name": "marketCode",
          "type": "string"
        },
        {
          "internalType": "address",
          "name": "oracle",
          "type": "address"
        }
      ],
      "name": "setOracle",
      "outputs": [],
      "stateMutability": "nonpayable",
      "type": "function"
    }
  ],
  "transactionHash": "0x51d2aff96e6c8a4169883d2634daf7be6173386e36930831bd0f56124cac737e",
  "args": [],
  "solcInputHash": "a2ec7e07fca8e553b102fcc1ce58ddd3",
  "bytecode": "0x60806040523480156200001157600080fd5b50620000447fdf8b4c520ffe197c5343c6f5aec59570151ef9a492f2c624fd45ddde6135ec42336200009c60201b60201c565b620000967f523a704056dcd17bcf83bed8b68c59416dac1119be77755efe3bde0a64e46e0c7fdf8b4c520ffe197c5343c6f5aec59570151ef9a492f2c624fd45ddde6135ec42620000b260201b60201c565b62000294565b620000ae82826200011460201b60201c565b5050565b8060008084815260200190815260200160002060020154837fbd79b86ffe0ab8e8776151514217cd7cacd52c909f66475c3af44e129f0b00ff60405160405180910390a480600080848152602001908152602001600020600201819055505050565b6200014281600080858152602001908152602001600020600001620001b760201b620007c11790919060201c565b15620001b35762000158620001ef60201b60201c565b73ffffffffffffffffffffffffffffffffffffffff168173ffffffffffffffffffffffffffffffffffffffff16837f2f8788117e7eff1d82e926ec794901d17c78024a50270940304540a733656f0d60405160405180910390a45b5050565b6000620001e7836000018373ffffffffffffffffffffffffffffffffffffffff1660001b620001f760201b60201c565b905092915050565b600033905090565b60006200020b83836200027160201b60201c565b620002665782600001829080600181540180825580915050600190039060005260206000200160009091909190915055826000018054905083600101600084815260200190815260200160002081905550600190506200026b565b600090505b92915050565b600080836001016000848152602001908152602001600020541415905092915050565b6112c180620002a46000396000f3fe608060405234801561001057600080fd5b50600436106100cf5760003560e01c80639010d07c1161008c578063a217fddf11610066578063a217fddf14610224578063c982aa1714610242578063ca15c87314610272578063d547741f146102a2576100cf565b80639010d07c146101a657806391d14854146101d6578063983d273714610206576100cf565b8063248a9ca3146100d45780632970fdfa146101045780632a0acc6a146101205780632f2ff15d1461013e57806336568abe1461015a578063524f388914610176575b600080fd5b6100ee60048036038101906100e99190610ca3565b6102be565b6040516100fb9190610f99565b60405180910390f35b61011e60048036038101906101199190610d85565b6102dd565b005b6101286103e1565b6040516101359190610f99565b60405180910390f35b61015860048036038101906101539190610ccc565b610405565b005b610174600480360381019061016f9190610ccc565b61048e565b005b610190600480360381019061018b9190610d44565b610527565b60405161019d9190610fb4565b60405180910390f35b6101c060048036038101906101bb9190610d08565b61063c565b6040516101cd9190610f63565b60405180910390f35b6101f060048036038101906101eb9190610ccc565b61066d565b6040516101fd9190610f7e565b60405180910390f35b61020e61069e565b60405161021b9190610f99565b60405180910390f35b61022c6106c2565b6040516102399190610f99565b60405180910390f35b61025c60048036038101906102579190610d44565b6106c9565b6040516102699190610f63565b60405180910390f35b61028c60048036038101906102879190610ca3565b610712565b604051610299919061100f565b60405180910390f35b6102bc60048036038101906102b79190610ccc565b610738565b005b6000806000838152602001908152602001600020600201549050919050565b6103077f523a704056dcd17bcf83bed8b68c59416dac1119be77755efe3bde0a64e46e0c3361066d565b61031057600080fd5b600073ffffffffffffffffffffffffffffffffffffffff168173ffffffffffffffffffffffffffffffffffffffff161415610380576040517f08c379a000000000000000000000000000000000000000000000000000000000815260040161037790610fef565b60405180910390fd5b806001836040516103919190610f4c565b908152602001604051809103902060006101000a81548173ffffffffffffffffffffffffffffffffffffffff021916908373ffffffffffffffffffffffffffffffffffffffff1602179055505050565b7fdf8b4c520ffe197c5343c6f5aec59570151ef9a492f2c624fd45ddde6135ec4281565b61042b600080848152602001908152602001600020600201546104266107f1565b61066d565b610480576040517f08c379a000000000000000000000000000000000000000000000000000000000815260040180806020018281038252602f8152602001806111fe602f913960400191505060405180910390fd5b61048a82826107f9565b5050565b6104966107f1565b73ffffffffffffffffffffffffffffffffffffffff168173ffffffffffffffffffffffffffffffffffffffff1614610519576040517f08c379a000000000000000000000000000000000000000000000000000000000815260040180806020018281038252602f81526020018061125d602f913960400191505060405180910390fd5b610523828261088c565b5050565b600080600060018460405161053c9190610f4c565b908152602001604051809103902060009054906101000a900473ffffffffffffffffffffffffffffffffffffffff1673ffffffffffffffffffffffffffffffffffffffff1663feaf968c6040518163ffffffff1660e01b815260040160a06040518083038186803b1580156105b057600080fd5b505afa1580156105c4573d6000803e3d6000fd5b505050506040513d601f19601f820116820180604052508101906105e89190610dd9565b5093505092505060008111610632576040517f08c379a000000000000000000000000000000000000000000000000000000000815260040161062990610fcf565b60405180910390fd5b8192505050919050565b60006106658260008086815260200190815260200160002060000161091f90919063ffffffff16565b905092915050565b60006106968260008086815260200190815260200160002060000161093990919063ffffffff16565b905092915050565b7f523a704056dcd17bcf83bed8b68c59416dac1119be77755efe3bde0a64e46e0c81565b6000801b81565b6001818051602081018201805184825260208301602085012081835280955050505050506000915054906101000a900473ffffffffffffffffffffffffffffffffffffffff1681565b6000610731600080848152602001908152602001600020600001610969565b9050919050565b61075e600080848152602001908152602001600020600201546107596107f1565b61066d565b6107b3576040517f08c379a000000000000000000000000000000000000000000000000000000000815260040180806020018281038252603081526020018061122d6030913960400191505060405180910390fd5b6107bd828261088c565b5050565b60006107e9836000018373ffffffffffffffffffffffffffffffffffffffff1660001b61097e565b905092915050565b600033905090565b610820816000808581526020019081526020016000206000016107c190919063ffffffff16565b156108885761082d6107f1565b73ffffffffffffffffffffffffffffffffffffffff168173ffffffffffffffffffffffffffffffffffffffff16837f2f8788117e7eff1d82e926ec794901d17c78024a50270940304540a733656f0d60405160405180910390a45b5050565b6108b3816000808581526020019081526020016000206000016109ee90919063ffffffff16565b1561091b576108c06107f1565b73ffffffffffffffffffffffffffffffffffffffff168173ffffffffffffffffffffffffffffffffffffffff16837ff6391f5c32d9c69d2a47ea670b442974b53935d1edc7fd64eb21e047a839171b60405160405180910390a45b5050565b600061092e8360000183610a1e565b60001c905092915050565b6000610961836000018373ffffffffffffffffffffffffffffffffffffffff1660001b610aa1565b905092915050565b600061097782600001610ac4565b9050919050565b600061098a8383610aa1565b6109e35782600001829080600181540180825580915050600190039060005260206000200160009091909190915055826000018054905083600101600084815260200190815260200160002081905550600190506109e8565b600090505b92915050565b6000610a16836000018373ffffffffffffffffffffffffffffffffffffffff1660001b610ad5565b905092915050565b600081836000018054905011610a7f576040517f08c379a00000000000000000000000000000000000000000000000000000000081526004018080602001828103825260228152602001806111dc6022913960400191505060405180910390fd5b826000018281548110610a8e57fe5b9060005260206000200154905092915050565b600080836001016000848152602001908152602001600020541415905092915050565b600081600001805490509050919050565b60008083600101600084815260200190815260200160002054905060008114610bb15760006001820390506000600186600001805490500390506000866000018281548110610b2057fe5b9060005260206000200154905080876000018481548110610b3d57fe5b9060005260206000200181905550600183018760010160008381526020019081526020016000208190555086600001805480610b7557fe5b60019003818190600052602060002001600090559055866001016000878152602001908152602001600020600090556001945050505050610bb7565b60009150505b92915050565b6000610bd0610bcb8461105b565b61102a565b905082815260208101848484011115610be857600080fd5b610bf3848285611124565b509392505050565b600081359050610c0a81611168565b92915050565b600081359050610c1f8161117f565b92915050565b600081519050610c3481611196565b92915050565b600082601f830112610c4b57600080fd5b8135610c5b848260208601610bbd565b91505092915050565b600081359050610c73816111ad565b92915050565b600081519050610c88816111ad565b92915050565b600081519050610c9d816111c4565b92915050565b600060208284031215610cb557600080fd5b6000610cc384828501610c10565b91505092915050565b60008060408385031215610cdf57600080fd5b6000610ced85828601610c10565b9250506020610cfe85828601610bfb565b9150509250929050565b60008060408385031215610d1b57600080fd5b6000610d2985828601610c10565b9250506020610d3a85828601610c64565b9150509250929050565b600060208284031215610d5657600080fd5b600082013567ffffffffffffffff811115610d7057600080fd5b610d7c84828501610c3a565b91505092915050565b60008060408385031215610d9857600080fd5b600083013567ffffffffffffffff811115610db257600080fd5b610dbe85828601610c3a565b9250506020610dcf85828601610bfb565b9150509250929050565b600080600080600060a08688031215610df157600080fd5b6000610dff88828901610c8e565b9550506020610e1088828901610c25565b9450506040610e2188828901610c79565b9350506060610e3288828901610c79565b9250506080610e4388828901610c8e565b9150509295509295909350565b610e59816110b2565b82525050565b610e68816110c4565b82525050565b610e77816110d0565b82525050565b610e86816110da565b82525050565b6000610e978261108b565b610ea181856110a7565b9350610eb1818560208601611133565b80840191505092915050565b6000610eca601283611096565b91507f526f756e64206e6f7420636f6d706c65746500000000000000000000000000006000830152602082019050919050565b6000610f0a601a83611096565b91507f4f7261636c652063616e6e6f74206265203020616464726573730000000000006000830152602082019050919050565b610f4681611104565b82525050565b6000610f588284610e8c565b915081905092915050565b6000602082019050610f786000830184610e50565b92915050565b6000602082019050610f936000830184610e5f565b92915050565b6000602082019050610fae6000830184610e6e565b92915050565b6000602082019050610fc96000830184610e7d565b92915050565b60006020820190508181036000830152610fe881610ebd565b9050919050565b6000602082019050818103600083015261100881610efd565b9050919050565b60006020820190506110246000830184610f3d565b92915050565b6000604051905081810181811067ffffffffffffffff8211171561105157611050611166565b5b8060405250919050565b600067ffffffffffffffff82111561107657611075611166565b5b601f19601f8301169050602081019050919050565b600081519050919050565b600082825260208201905092915050565b600081905092915050565b60006110bd826110e4565b9050919050565b60008115159050919050565b6000819050919050565b6000819050919050565b600073ffffffffffffffffffffffffffffffffffffffff82169050919050565b6000819050919050565b600069ffffffffffffffffffff82169050919050565b82818337600083830152505050565b60005b83811015611151578082015181840152602081019050611136565b83811115611160576000848401525b50505050565bfe5b611171816110b2565b811461117c57600080fd5b50565b611188816110d0565b811461119357600080fd5b50565b61119f816110da565b81146111aa57600080fd5b50565b6111b681611104565b81146111c157600080fd5b50565b6111cd8161110e565b81146111d857600080fd5b5056fe456e756d657261626c655365743a20696e646578206f7574206f6620626f756e6473416363657373436f6e74726f6c3a2073656e646572206d75737420626520616e2061646d696e20746f206772616e74416363657373436f6e74726f6c3a2073656e646572206d75737420626520616e2061646d696e20746f207265766f6b65416363657373436f6e74726f6c3a2063616e206f6e6c792072656e6f756e636520726f6c657320666f722073656c66a26469706673582212208b19d7e0d075e3270517b4245ef515467ba87e4f829a6f87ffa6d509971eec7964736f6c63430007060033",
  "libraries": {
    "PoolSwapLibrary": "0xd046bC64854a7aF5bB61C207A9B2636148B04CAf"
  },
  "devdoc": {
    "kind": "dev",
    "methods": {
      "getPrice(string)": {
        "params": {
          "marketCode": "The market code for the asset to quote for."
        },
        "returns": {
          "_0": "The latest price"
        }
      },
      "getRoleAdmin(bytes32)": {
        "details": "Returns the admin role that controls `role`. See {grantRole} and {revokeRole}. To change a role's admin, use {_setRoleAdmin}."
      },
      "getRoleMember(bytes32,uint256)": {
        "details": "Returns one of the accounts that have `role`. `index` must be a value between 0 and {getRoleMemberCount}, non-inclusive. Role bearers are not sorted in any particular way, and their ordering may change at any point. WARNING: When using {getRoleMember} and {getRoleMemberCount}, make sure you perform all queries on the same block. See the following https://forum.openzeppelin.com/t/iterating-over-elements-on-enumerableset-in-openzeppelin-contracts/2296[forum post] for more information."
      },
      "getRoleMemberCount(bytes32)": {
        "details": "Returns the number of accounts that have `role`. Can be used together with {getRoleMember} to enumerate all bearers of a role."
      },
      "grantRole(bytes32,address)": {
        "details": "Grants `role` to `account`. If `account` had not been already granted `role`, emits a {RoleGranted} event. Requirements: - the caller must have ``role``'s admin role."
      },
      "hasRole(bytes32,address)": {
        "details": "Returns `true` if `account` has been granted `role`."
      },
      "renounceRole(bytes32,address)": {
        "details": "Revokes `role` from the calling account. Roles are often managed via {grantRole} and {revokeRole}: this function's purpose is to provide a mechanism for accounts to lose their privileges if they are compromised (such as when a trusted device is misplaced). If the calling account had been granted `role`, emits a {RoleRevoked} event. Requirements: - the caller must be `account`."
      },
      "revokeRole(bytes32,address)": {
        "details": "Revokes `role` from `account`. If `account` had been granted `role`, emits a {RoleRevoked} event. Requirements: - the caller must have ``role``'s admin role."
      },
      "setOracle(string,address)": {
        "details": "Should be secured, ideally only allowing the PoolKeeper to access.",
        "params": {
          "marketCode": "The market code for the market.",
          "oracle": "The oracle to set for the market"
        }
      }
    },
    "stateVariables": {
      "assetOracles": {
        "details": "override in place for the getter function definition from the interface"
      }
    },
    "version": 1
  },
  "userdoc": {
    "kind": "user",
    "methods": {
      "OPERATOR()": {
        "notice": "Use the Operator role to restrict access to the setOracle function"
      },
      "assetOracles(string)": {
        "notice": "Format: Market code => oracle address. Market code looks like TSLA/USD+aDAI"
      },
      "getPrice(string)": {
        "notice": "Returns the current price for the asset in question"
      },
      "setOracle(string,address)": {
        "notice": "Sets the oracle for a given market"
      }
    },
    "version": 1
  },
  "storageLayout": {
    "storage": [
      {
        "astId": 142,
        "contract": "contracts/implementation/OracleWrapper.sol:OracleWrapper",
        "label": "_roles",
        "offset": 0,
        "slot": "0",
        "type": "t_mapping(t_bytes32,t_struct(RoleData)138_storage)"
      },
      {
        "astId": 8699,
        "contract": "contracts/implementation/OracleWrapper.sol:OracleWrapper",
        "label": "assetOracles",
        "offset": 0,
        "slot": "1",
        "type": "t_mapping(t_string_memory_ptr,t_address)"
      }
    ],
    "types": {
      "t_address": {
        "encoding": "inplace",
        "label": "address",
        "numberOfBytes": "20"
      },
      "t_array(t_bytes32)dyn_storage": {
        "base": "t_bytes32",
        "encoding": "dynamic_array",
        "label": "bytes32[]",
        "numberOfBytes": "32"
      },
      "t_bytes32": {
        "encoding": "inplace",
        "label": "bytes32",
        "numberOfBytes": "32"
      },
      "t_mapping(t_bytes32,t_struct(RoleData)138_storage)": {
        "encoding": "mapping",
        "key": "t_bytes32",
        "label": "mapping(bytes32 => struct AccessControl.RoleData)",
        "numberOfBytes": "32",
        "value": "t_struct(RoleData)138_storage"
      },
      "t_mapping(t_bytes32,t_uint256)": {
        "encoding": "mapping",
        "key": "t_bytes32",
        "label": "mapping(bytes32 => uint256)",
        "numberOfBytes": "32",
        "value": "t_uint256"
      },
      "t_mapping(t_string_memory_ptr,t_address)": {
        "encoding": "mapping",
        "key": "t_string_memory_ptr",
        "label": "mapping(string => address)",
        "numberOfBytes": "32",
        "value": "t_address"
      },
      "t_string_memory_ptr": {
        "encoding": "bytes",
        "label": "string",
        "numberOfBytes": "32"
      },
      "t_struct(AddressSet)2258_storage": {
        "encoding": "inplace",
        "label": "struct EnumerableSet.AddressSet",
        "members": [
          {
            "astId": 2257,
            "contract": "contracts/implementation/OracleWrapper.sol:OracleWrapper",
            "label": "_inner",
            "offset": 0,
            "slot": "0",
            "type": "t_struct(Set)1993_storage"
          }
        ],
        "numberOfBytes": "64"
      },
      "t_struct(RoleData)138_storage": {
        "encoding": "inplace",
        "label": "struct AccessControl.RoleData",
        "members": [
          {
            "astId": 135,
            "contract": "contracts/implementation/OracleWrapper.sol:OracleWrapper",
            "label": "members",
            "offset": 0,
            "slot": "0",
            "type": "t_struct(AddressSet)2258_storage"
          },
          {
            "astId": 137,
            "contract": "contracts/implementation/OracleWrapper.sol:OracleWrapper",
            "label": "adminRole",
            "offset": 0,
            "slot": "2",
            "type": "t_bytes32"
          }
        ],
        "numberOfBytes": "96"
      },
      "t_struct(Set)1993_storage": {
        "encoding": "inplace",
        "label": "struct EnumerableSet.Set",
        "members": [
          {
            "astId": 1988,
            "contract": "contracts/implementation/OracleWrapper.sol:OracleWrapper",
            "label": "_values",
            "offset": 0,
            "slot": "0",
            "type": "t_array(t_bytes32)dyn_storage"
          },
          {
            "astId": 1992,
            "contract": "contracts/implementation/OracleWrapper.sol:OracleWrapper",
            "label": "_indexes",
            "offset": 0,
            "slot": "1",
            "type": "t_mapping(t_bytes32,t_uint256)"
          }
        ],
        "numberOfBytes": "64"
      },
      "t_uint256": {
        "encoding": "inplace",
        "label": "uint256",
        "numberOfBytes": "32"
      }
    }
  }
}