{
    "address": "0xcD95A675eD9df9b7f280E6C0BE5199DA574A7B3b",
    "abi": [
        {
            "inputs": [],
            "stateMutability": "nonpayable",
            "type": "constructor"
        },
        {
            "anonymous": false,
            "inputs": [
                {
                    "indexed": true,
                    "internalType": "address",
                    "name": "pool",
                    "type": "address"
                },
                {
                    "indexed": false,
                    "internalType": "string",
                    "name": "poolCode",
                    "type": "string"
                }
            ],
            "name": "DeployPool",
            "type": "event"
        },
        {
            "inputs": [
                {
                    "internalType": "address",
                    "name": "_owner",
                    "type": "address"
                },
                {
                    "internalType": "string",
                    "name": "_poolCode",
                    "type": "string"
                },
                {
                    "internalType": "uint32",
                    "name": "_frontRunningInterval",
                    "type": "uint32"
                },
                {
                    "internalType": "bytes16",
                    "name": "_fee",
                    "type": "bytes16"
                },
                {
                    "internalType": "uint16",
                    "name": "_leverageAmount",
                    "type": "uint16"
                },
                {
                    "internalType": "address",
                    "name": "_feeAddress",
                    "type": "address"
                },
                {
                    "internalType": "address",
                    "name": "_quoteToken",
                    "type": "address"
                }
            ],
            "name": "deployPool",
            "outputs": [
                {
                    "internalType": "address",
                    "name": "",
                    "type": "address"
                }
            ],
            "stateMutability": "nonpayable",
            "type": "function"
        },
        {
            "inputs": [],
            "name": "pairTokenBase",
            "outputs": [
                {
                    "internalType": "contract PoolToken",
                    "name": "",
                    "type": "address"
                }
            ],
            "stateMutability": "view",
            "type": "function"
        },
        {
            "inputs": [],
            "name": "poolBase",
            "outputs": [
                {
                    "internalType": "contract LeveragedPool",
                    "name": "",
                    "type": "address"
                }
            ],
            "stateMutability": "view",
            "type": "function"
        }
    ],
    "transactionHash": "0x30278e712123a2ceb6d5a6db332855164858ba9efd9e7396a340bcad0d20eb3e",
    "args": [],
    "solcInputHash": "3769971eababface19a2a1822d2ddf0e",
    "bytecode": "0x60806040523480156200001157600080fd5b50604051620000209062000220565b604051809103906000f0801580156200003d573d6000803e3d6000fd5b506000806101000a81548173ffffffffffffffffffffffffffffffffffffffff021916908373ffffffffffffffffffffffffffffffffffffffff1602179055506040516200008b906200022e565b604051809103906000f080158015620000a8573d6000803e3d6000fd5b50600160006101000a81548173ffffffffffffffffffffffffffffffffffffffff021916908373ffffffffffffffffffffffffffffffffffffffff160217905550600160009054906101000a900473ffffffffffffffffffffffffffffffffffffffff1673ffffffffffffffffffffffffffffffffffffffff166309987d4d30600080600260008030306040518963ffffffff1660e01b81526004016200015798979695949392919062000357565b600060405180830381600087803b1580156200017257600080fd5b505af115801562000187573d6000803e3d6000fd5b5050505060008054906101000a900473ffffffffffffffffffffffffffffffffffffffff1673ffffffffffffffffffffffffffffffffffffffff166390657147306040518263ffffffff1660e01b8152600401620001e69190620003fb565b600060405180830381600087803b1580156200020157600080fd5b505af115801562000216573d6000803e3d6000fd5b505050506200053e565b6126a8806200111f83390190565b61596e80620037c783390190565b6200024781620004af565b82525050565b620002588162000453565b82525050565b6200026981620004c3565b82525050565b6200027a81620004e1565b82525050565b6200028b81620004f5565b82525050565b6000620002a060048362000442565b91507f42415345000000000000000000000000000000000000000000000000000000006000830152602082019050919050565b6000620002e260098362000442565b91507f424153455f504f4f4c00000000000000000000000000000000000000000000006000830152602082019050919050565b600062000324600a8362000442565b91507f424153455f544f4b454e000000000000000000000000000000000000000000006000830152602082019050919050565b6000610120820190506200036f600083018b6200024d565b6200037e602083018a6200023c565b6200038d60408301896200023c565b8181036060830152620003a081620002d3565b9050620003b1608083018862000280565b620003c060a08301876200025e565b620003cf60c08301866200026f565b620003de60e08301856200024d565b620003ee6101008301846200024d565b9998505050505050505050565b60006060820190506200041260008301846200024d565b8181036020830152620004258162000315565b905081810360408301526200043a8162000291565b905092915050565b600082825260208201905092915050565b600062000460826200047f565b9050919050565b6000819050919050565b600061ffff82169050919050565b600073ffffffffffffffffffffffffffffffffffffffff82169050919050565b600063ffffffff82169050919050565b6000620004bc8262000509565b9050919050565b6000620004da620004d48362000467565b62000531565b9050919050565b6000620004ee8262000471565b9050919050565b600062000502826200049f565b9050919050565b600062000516826200051d565b9050919050565b60006200052a826200047f565b9050919050565b60008160801b9050919050565b610bd1806200054e6000396000f3fe608060405234801561001057600080fd5b50600436106100415760003560e01c80635bae377a14610046578063d723c68b14610064578063d8c32a9a14610082575b600080fd5b61004e6100b2565b60405161005b9190610946565b60405180910390f35b61006c6100d8565b6040516100799190610961565b60405180910390f35b61009c60048036038101906100979190610550565b6100fc565b6040516100a99190610852565b60405180910390f35b600160009054906101000a900473ffffffffffffffffffffffffffffffffffffffff1681565b60008054906101000a900473ffffffffffffffffffffffffffffffffffffffff1681565b600080610151600160009054906101000a900473ffffffffffffffffffffffffffffffffffffffff1689604051602001610136919061097c565b604051602081830303815290604052805190602001206102bb565b90508073ffffffffffffffffffffffffffffffffffffffff167fd76cdb035f3aba359cb02087e4c5bd75f911562b407fc3a52ed2bedfb46585b689604051610199919061097c565b60405180910390a28073ffffffffffffffffffffffffffffffffffffffff166309987d4d8a610207848c6040516020016101d391906107ec565b6040516020818303038152906040528d6040516020016101f3919061080e565b6040516020818303038152906040526103c5565b610250858d60405160200161021c91906107ca565b6040516020818303038152906040528e60405160200161023c9190610830565b6040516020818303038152906040526103c5565b8c8c8c8c8c8c6040518a63ffffffff1660e01b815260040161027a9998979695949392919061086d565b600060405180830381600087803b15801561029457600080fd5b505af11580156102a8573d6000803e3d6000fd5b5050505080915050979650505050505050565b60006040517f3d602d80600a3d3981f3363d3d373d3d3d363d7300000000000000000000000081528360601b60148201527f5af43d82803e903d91602b57fd5bf300000000000000000000000000000000006028820152826037826000f5915050600073ffffffffffffffffffffffffffffffffffffffff168173ffffffffffffffffffffffffffffffffffffffff1614156103bf576040517f08c379a00000000000000000000000000000000000000000000000000000000081526004018080602001828103825260178152602001807f455243313136373a2063726561746532206661696c656400000000000000000081525060200191505060405180910390fd5b92915050565b60008061041860008054906101000a900473ffffffffffffffffffffffffffffffffffffffff16856040516020016103fd919061097c565b604051602081830303815290604052805190602001206102bb565b90508073ffffffffffffffffffffffffffffffffffffffff1663906571478686866040518463ffffffff1660e01b815260040161045793929190610901565b600060405180830381600087803b15801561047157600080fd5b505af1158015610485573d6000803e3d6000fd5b50505050809150509392505050565b60006104a76104a2846109cf565b61099e565b9050828152602081018484840111156104bf57600080fd5b6104ca848285610aea565b509392505050565b6000813590506104e181610b3f565b92915050565b6000813590506104f681610b56565b92915050565b600082601f83011261050d57600080fd5b813561051d848260208601610494565b91505092915050565b60008135905061053581610b6d565b92915050565b60008135905061054a81610b84565b92915050565b600080600080600080600060e0888a03121561056b57600080fd5b60006105798a828b016104d2565b975050602088013567ffffffffffffffff81111561059657600080fd5b6105a28a828b016104fc565b96505060406105b38a828b0161053b565b95505060606105c48a828b016104e7565b94505060806105d58a828b01610526565b93505060a06105e68a828b016104d2565b92505060c06105f78a828b016104d2565b91505092959891949750929550565b61060f81610a26565b82525050565b61061e81610a38565b82525050565b61062d81610aa2565b82525050565b61063c81610ac6565b82525050565b600061064d826109ff565b6106578185610a0a565b9350610667818560208601610af9565b61067081610b2e565b840191505092915050565b6000610686826109ff565b6106908185610a1b565b93506106a0818560208601610af9565b80840191505092915050565b60006106b9600683610a1b565b91507f2d53484f525400000000000000000000000000000000000000000000000000006000830152600682019050919050565b60006106f9600283610a1b565b91507f4c2d0000000000000000000000000000000000000000000000000000000000006000830152600282019050919050565b6000610739600283610a1b565b91507f532d0000000000000000000000000000000000000000000000000000000000006000830152600282019050919050565b6000610779600583610a1b565b91507f2d4c4f4e470000000000000000000000000000000000000000000000000000006000830152600582019050919050565b6107b581610a64565b82525050565b6107c481610a92565b82525050565b60006107d6828461067b565b91506107e1826106ac565b915081905092915050565b60006107f8828461067b565b91506108038261076c565b915081905092915050565b6000610819826106ec565b9150610825828461067b565b915081905092915050565b600061083b8261072c565b9150610847828461067b565b915081905092915050565b60006020820190506108676000830184610606565b92915050565b600061012082019050610883600083018c610606565b610890602083018b610606565b61089d604083018a610606565b81810360608301526108af8189610642565b90506108be60808301886107bb565b6108cb60a0830187610615565b6108d860c08301866107ac565b6108e560e0830185610606565b6108f3610100830184610606565b9a9950505050505050505050565b60006060820190506109166000830186610606565b81810360208301526109288185610642565b9050818103604083015261093c8184610642565b9050949350505050565b600060208201905061095b6000830184610624565b92915050565b60006020820190506109766000830184610633565b92915050565b600060208201905081810360008301526109968184610642565b905092915050565b6000604051905081810181811067ffffffffffffffff821117156109c5576109c4610b2c565b5b8060405250919050565b600067ffffffffffffffff8211156109ea576109e9610b2c565b5b601f19601f8301169050602081019050919050565b600081519050919050565b600082825260208201905092915050565b600081905092915050565b6000610a3182610a72565b9050919050565b60007fffffffffffffffffffffffffffffffff0000000000000000000000000000000082169050919050565b600061ffff82169050919050565b600073ffffffffffffffffffffffffffffffffffffffff82169050919050565b600063ffffffff82169050919050565b6000610aad82610ab4565b9050919050565b6000610abf82610a72565b9050919050565b6000610ad182610ad8565b9050919050565b6000610ae382610a72565b9050919050565b82818337600083830152505050565b60005b83811015610b17578082015181840152602081019050610afc565b83811115610b26576000848401525b50505050565bfe5b6000601f19601f8301169050919050565b610b4881610a26565b8114610b5357600080fd5b50565b610b5f81610a38565b8114610b6a57600080fd5b50565b610b7681610a64565b8114610b8157600080fd5b50565b610b8d81610a92565b8114610b9857600080fd5b5056fea2646970667358221220e8c8274b967a49bf64bc014544e6acfadd3890abc22415496495456e5356b13e64736f6c6343000706003360806040523480156200001157600080fd5b506040518060400160405280600a81526020017f424153455f544f4b454e000000000000000000000000000000000000000000008152506040518060400160405280600481526020017f4241534500000000000000000000000000000000000000000000000000000000815250816005908051906020019062000096929190620000d4565b508060069080519060200190620000af929190620000d4565b506012600760006101000a81548160ff021916908360ff16021790555050506200018a565b828054600181600116156101000203166002900490600052602060002090601f0160209004810192826200010c576000855562000158565b82601f106200012757805160ff191683800117855562000158565b8280016001018555821562000158579182015b82811115620001575782518255916020019190600101906200013a565b5b5090506200016791906200016b565b5090565b5b80821115620001865760008160009055506001016200016c565b5090565b61250e806200019a6000396000f3fe608060405234801561001057600080fd5b506004361061014d5760003560e01c80639010d07c116100c3578063a457c2d71161007c578063a457c2d7146103da578063a9059cbb1461040a578063ca15c8731461043a578063d547741f1461046a578063dd62ed3e14610486578063fcd3533c146104b65761014d565b80639010d07c146102f2578063906571471461032257806391d148541461033e57806394bf804d1461036e57806395d89b411461039e578063a217fddf146103bc5761014d565b80632f2ff15d116101155780632f2ff15d1461021e578063313ce5671461023a57806336568abe14610258578063395093511461027457806370a08231146102a45780637535d246146102d45761014d565b806306fdde0314610152578063095ea7b31461017057806318160ddd146101a057806323b872dd146101be578063248a9ca3146101ee575b600080fd5b61015a6104e6565b60405161016791906120e8565b60405180910390f35b61018a60048036038101906101859190611efa565b610588565b60405161019791906120b2565b60405180910390f35b6101a86105a6565b6040516101b5919061210a565b60405180910390f35b6101d860048036038101906101d39190611e2c565b6105b0565b6040516101e591906120b2565b60405180910390f35b61020860048036038101906102039190611f36565b610689565b60405161021591906120cd565b60405180910390f35b61023860048036038101906102339190611f5f565b6106a8565b005b610242610731565b60405161024f9190612125565b60405180910390f35b610272600480360381019061026d9190611f5f565b610748565b005b61028e60048036038101906102899190611efa565b6107e1565b60405161029b91906120b2565b60405180910390f35b6102be60048036038101906102b99190611dc7565b610894565b6040516102cb919061210a565b60405180910390f35b6102dc6108dd565b6040516102e991906120cd565b60405180910390f35b61030c60048036038101906103079190611f9b565b610901565b6040516103199190612097565b60405180910390f35b61033c60048036038101906103379190611e7b565b610932565b005b61035860048036038101906103539190611f5f565b610aa5565b60405161036591906120b2565b60405180910390f35b61038860048036038101906103839190611fd7565b610ad6565b60405161039591906120b2565b60405180910390f35b6103a6610b1f565b6040516103b391906120e8565b60405180910390f35b6103c4610bc1565b6040516103d191906120cd565b60405180910390f35b6103f460048036038101906103ef9190611efa565b610bc8565b60405161040191906120b2565b60405180910390f35b610424600480360381019061041f9190611efa565b610c95565b60405161043191906120b2565b60405180910390f35b610454600480360381019061044f9190611f36565b610cb3565b604051610461919061210a565b60405180910390f35b610484600480360381019061047f9190611f5f565b610cd9565b005b6104a0600480360381019061049b9190611df0565b610d62565b6040516104ad919061210a565b60405180910390f35b6104d060048036038101906104cb9190611fd7565b610de9565b6040516104dd91906120b2565b60405180910390f35b606060058054600181600116156101000203166002900480601f01602080910402602001604051908101604052809291908181526020018280546001816001161561010002031660029004801561057e5780601f106105535761010080835404028352916020019161057e565b820191906000526020600020905b81548152906001019060200180831161056157829003601f168201915b5050505050905090565b600061059c610595610e32565b8484610e3a565b6001905092915050565b6000600454905090565b60006105bd848484611031565b61067e846105c9610e32565b610679856040518060600160405280602881526020016123f360289139600360008b73ffffffffffffffffffffffffffffffffffffffff1673ffffffffffffffffffffffffffffffffffffffff168152602001908152602001600020600061062f610e32565b73ffffffffffffffffffffffffffffffffffffffff1673ffffffffffffffffffffffffffffffffffffffff168152602001908152602001600020546112f69092919063ffffffff16565b610e3a565b600190509392505050565b6000806000838152602001908152602001600020600201549050919050565b6106ce600080848152602001908152602001600020600201546106c9610e32565b610aa5565b610723576040517f08c379a000000000000000000000000000000000000000000000000000000000815260040180806020018281038252602f8152602001806122fc602f913960400191505060405180910390fd5b61072d82826113b0565b5050565b6000600760009054906101000a900460ff16905090565b610750610e32565b73ffffffffffffffffffffffffffffffffffffffff168173ffffffffffffffffffffffffffffffffffffffff16146107d3576040517f08c379a000000000000000000000000000000000000000000000000000000000815260040180806020018281038252602f8152602001806124aa602f913960400191505060405180910390fd5b6107dd8282611443565b5050565b600061088a6107ee610e32565b8461088585600360006107ff610e32565b73ffffffffffffffffffffffffffffffffffffffff1673ffffffffffffffffffffffffffffffffffffffff16815260200190815260200160002060008973ffffffffffffffffffffffffffffffffffffffff1673ffffffffffffffffffffffffffffffffffffffff168152602001908152602001600020546114d690919063ffffffff16565b610e3a565b6001905092915050565b6000600260008373ffffffffffffffffffffffffffffffffffffffff1673ffffffffffffffffffffffffffffffffffffffff168152602001908152602001600020549050919050565b7f5d5c2d2522b7f6ec8d1c86f44956b9ecd4376b1842cd263d54a5368aa149486d81565b600061092a8260008086815260200190815260200160002060000161155e90919063ffffffff16565b905092915050565b60018054906101000a900460ff168061094f575061094e611578565b5b806109675750600160009054906101000a900460ff16155b6109bc576040517f08c379a000000000000000000000000000000000000000000000000000000000815260040180806020018281038252602e8152602001806123c5602e913960400191505060405180910390fd5b600060018054906101000a900460ff161590508015610a0a5760018060016101000a81548160ff02191690831515021790555060018060006101000a81548160ff0219169083151502179055505b610a347f5d5c2d2522b7f6ec8d1c86f44956b9ecd4376b1842cd263d54a5368aa149486d85611589565b8260059080519060200190610a4a929190611c75565b508160069080519060200190610a61929190611c75565b506012600760006101000a81548160ff021916908360ff1602179055508015610a9f5760006001806101000a81548160ff0219169083151502179055505b50505050565b6000610ace8260008086815260200190815260200160002060000161159790919063ffffffff16565b905092915050565b6000610b027f5d5c2d2522b7f6ec8d1c86f44956b9ecd4376b1842cd263d54a5368aa149486d33610aa5565b610b0b57600080fd5b610b1582846115c7565b6001905092915050565b606060068054600181600116156101000203166002900480601f016020809104026020016040519081016040528092919081815260200182805460018160011615610100020316600290048015610bb75780601f10610b8c57610100808354040283529160200191610bb7565b820191906000526020600020905b815481529060010190602001808311610b9a57829003601f168201915b5050505050905090565b6000801b81565b6000610c8b610bd5610e32565b84610c86856040518060600160405280602581526020016124856025913960036000610bff610e32565b73ffffffffffffffffffffffffffffffffffffffff1673ffffffffffffffffffffffffffffffffffffffff16815260200190815260200160002060008a73ffffffffffffffffffffffffffffffffffffffff1673ffffffffffffffffffffffffffffffffffffffff168152602001908152602001600020546112f69092919063ffffffff16565b610e3a565b6001905092915050565b6000610ca9610ca2610e32565b8484611031565b6001905092915050565b6000610cd2600080848152602001908152602001600020600001611790565b9050919050565b610cff60008084815260200190815260200160002060020154610cfa610e32565b610aa5565b610d54576040517f08c379a00000000000000000000000000000000000000000000000000000000081526004018080602001828103825260308152602001806123956030913960400191505060405180910390fd5b610d5e8282611443565b5050565b6000600360008473ffffffffffffffffffffffffffffffffffffffff1673ffffffffffffffffffffffffffffffffffffffff16815260200190815260200160002060008373ffffffffffffffffffffffffffffffffffffffff1673ffffffffffffffffffffffffffffffffffffffff16815260200190815260200160002054905092915050565b6000610e157f5d5c2d2522b7f6ec8d1c86f44956b9ecd4376b1842cd263d54a5368aa149486d33610aa5565b610e1e57600080fd5b610e2882846117a5565b6001905092915050565b600033905090565b600073ffffffffffffffffffffffffffffffffffffffff168373ffffffffffffffffffffffffffffffffffffffff161415610ec0576040517f08c379a00000000000000000000000000000000000000000000000000000000081526004018080602001828103825260248152602001806124616024913960400191505060405180910390fd5b600073ffffffffffffffffffffffffffffffffffffffff168273ffffffffffffffffffffffffffffffffffffffff161415610f46576040517f08c379a000000000000000000000000000000000000000000000000000000000815260040180806020018281038252602281526020018061234d6022913960400191505060405180910390fd5b80600360008573ffffffffffffffffffffffffffffffffffffffff1673ffffffffffffffffffffffffffffffffffffffff16815260200190815260200160002060008473ffffffffffffffffffffffffffffffffffffffff1673ffffffffffffffffffffffffffffffffffffffff168152602001908152602001600020819055508173ffffffffffffffffffffffffffffffffffffffff168373ffffffffffffffffffffffffffffffffffffffff167f8c5be1e5ebec7d5bd14f71427d1e84f3dd0314c0f7b2291e5b200ac8c7c3b925836040518082815260200191505060405180910390a3505050565b600073ffffffffffffffffffffffffffffffffffffffff168373ffffffffffffffffffffffffffffffffffffffff1614156110b7576040517f08c379a000000000000000000000000000000000000000000000000000000000815260040180806020018281038252602581526020018061243c6025913960400191505060405180910390fd5b600073ffffffffffffffffffffffffffffffffffffffff168273ffffffffffffffffffffffffffffffffffffffff16141561113d576040517f08c379a00000000000000000000000000000000000000000000000000000000081526004018080602001828103825260238152602001806122d96023913960400191505060405180910390fd5b61114883838361196b565b6111b48160405180606001604052806026815260200161236f60269139600260008773ffffffffffffffffffffffffffffffffffffffff1673ffffffffffffffffffffffffffffffffffffffff168152602001908152602001600020546112f69092919063ffffffff16565b600260008573ffffffffffffffffffffffffffffffffffffffff1673ffffffffffffffffffffffffffffffffffffffff1681526020019081526020016000208190555061124981600260008573ffffffffffffffffffffffffffffffffffffffff1673ffffffffffffffffffffffffffffffffffffffff168152602001908152602001600020546114d690919063ffffffff16565b600260008473ffffffffffffffffffffffffffffffffffffffff1673ffffffffffffffffffffffffffffffffffffffff168152602001908152602001600020819055508173ffffffffffffffffffffffffffffffffffffffff168373ffffffffffffffffffffffffffffffffffffffff167fddf252ad1be2c89b69c2b068fc378daa952ba7f163c4a11628f55a4df523b3ef836040518082815260200191505060405180910390a3505050565b60008383111582906113a3576040517f08c379a00000000000000000000000000000000000000000000000000000000081526004018080602001828103825283818151815260200191508051906020019080838360005b8381101561136857808201518184015260208101905061134d565b50505050905090810190601f1680156113955780820380516001836020036101000a031916815260200191505b509250505060405180910390fd5b5082840390509392505050565b6113d78160008085815260200190815260200160002060000161197090919063ffffffff16565b1561143f576113e4610e32565b73ffffffffffffffffffffffffffffffffffffffff168173ffffffffffffffffffffffffffffffffffffffff16837f2f8788117e7eff1d82e926ec794901d17c78024a50270940304540a733656f0d60405160405180910390a45b5050565b61146a816000808581526020019081526020016000206000016119a090919063ffffffff16565b156114d257611477610e32565b73ffffffffffffffffffffffffffffffffffffffff168173ffffffffffffffffffffffffffffffffffffffff16837ff6391f5c32d9c69d2a47ea670b442974b53935d1edc7fd64eb21e047a839171b60405160405180910390a45b5050565b600080828401905083811015611554576040517f08c379a000000000000000000000000000000000000000000000000000000000815260040180806020018281038252601b8152602001807f536166654d6174683a206164646974696f6e206f766572666c6f77000000000081525060200191505060405180910390fd5b8091505092915050565b600061156d83600001836119d0565b60001c905092915050565b600061158330611a53565b15905090565b61159382826113b0565b5050565b60006115bf836000018373ffffffffffffffffffffffffffffffffffffffff1660001b611a66565b905092915050565b600073ffffffffffffffffffffffffffffffffffffffff168273ffffffffffffffffffffffffffffffffffffffff16141561166a576040517f08c379a000000000000000000000000000000000000000000000000000000000815260040180806020018281038252601f8152602001807f45524332303a206d696e7420746f20746865207a65726f20616464726573730081525060200191505060405180910390fd5b6116766000838361196b565b61168b816004546114d690919063ffffffff16565b6004819055506116e381600260008573ffffffffffffffffffffffffffffffffffffffff1673ffffffffffffffffffffffffffffffffffffffff168152602001908152602001600020546114d690919063ffffffff16565b600260008473ffffffffffffffffffffffffffffffffffffffff1673ffffffffffffffffffffffffffffffffffffffff168152602001908152602001600020819055508173ffffffffffffffffffffffffffffffffffffffff16600073ffffffffffffffffffffffffffffffffffffffff167fddf252ad1be2c89b69c2b068fc378daa952ba7f163c4a11628f55a4df523b3ef836040518082815260200191505060405180910390a35050565b600061179e82600001611a89565b9050919050565b600073ffffffffffffffffffffffffffffffffffffffff168273ffffffffffffffffffffffffffffffffffffffff16141561182b576040517f08c379a000000000000000000000000000000000000000000000000000000000815260040180806020018281038252602181526020018061241b6021913960400191505060405180910390fd5b6118378260008361196b565b6118a38160405180606001604052806022815260200161232b60229139600260008673ffffffffffffffffffffffffffffffffffffffff1673ffffffffffffffffffffffffffffffffffffffff168152602001908152602001600020546112f69092919063ffffffff16565b600260008473ffffffffffffffffffffffffffffffffffffffff1673ffffffffffffffffffffffffffffffffffffffff168152602001908152602001600020819055506118fb81600454611a9a90919063ffffffff16565b600481905550600073ffffffffffffffffffffffffffffffffffffffff168273ffffffffffffffffffffffffffffffffffffffff167fddf252ad1be2c89b69c2b068fc378daa952ba7f163c4a11628f55a4df523b3ef836040518082815260200191505060405180910390a35050565b505050565b6000611998836000018373ffffffffffffffffffffffffffffffffffffffff1660001b611b1d565b905092915050565b60006119c8836000018373ffffffffffffffffffffffffffffffffffffffff1660001b611b8d565b905092915050565b600081836000018054905011611a31576040517f08c379a00000000000000000000000000000000000000000000000000000000081526004018080602001828103825260228152602001806122b76022913960400191505060405180910390fd5b826000018281548110611a4057fe5b9060005260206000200154905092915050565b600080823b905060008111915050919050565b600080836001016000848152602001908152602001600020541415905092915050565b600081600001805490509050919050565b600082821115611b12576040517f08c379a000000000000000000000000000000000000000000000000000000000815260040180806020018281038252601e8152602001807f536166654d6174683a207375627472616374696f6e206f766572666c6f77000081525060200191505060405180910390fd5b818303905092915050565b6000611b298383611a66565b611b82578260000182908060018154018082558091505060019003906000526020600020016000909190919091505582600001805490508360010160008481526020019081526020016000208190555060019050611b87565b600090505b92915050565b60008083600101600084815260200190815260200160002054905060008114611c695760006001820390506000600186600001805490500390506000866000018281548110611bd857fe5b9060005260206000200154905080876000018481548110611bf557fe5b9060005260206000200181905550600183018760010160008381526020019081526020016000208190555086600001805480611c2d57fe5b60019003818190600052602060002001600090559055866001016000878152602001908152602001600020600090556001945050505050611c6f565b60009150505b92915050565b828054600181600116156101000203166002900490600052602060002090601f016020900481019282611cab5760008555611cf2565b82601f10611cc457805160ff1916838001178555611cf2565b82800160010185558215611cf2579182015b82811115611cf1578251825591602001919060010190611cd6565b5b509050611cff9190611d03565b5090565b5b80821115611d1c576000816000905550600101611d04565b5090565b6000611d33611d2e84612171565b612140565b905082815260208101848484011115611d4b57600080fd5b611d5684828561221c565b509392505050565b600081359050611d6d81612271565b92915050565b600081359050611d8281612288565b92915050565b600082601f830112611d9957600080fd5b8135611da9848260208601611d20565b91505092915050565b600081359050611dc18161229f565b92915050565b600060208284031215611dd957600080fd5b6000611de784828501611d5e565b91505092915050565b60008060408385031215611e0357600080fd5b6000611e1185828601611d5e565b9250506020611e2285828601611d5e565b9150509250929050565b600080600060608486031215611e4157600080fd5b6000611e4f86828701611d5e565b9350506020611e6086828701611d5e565b9250506040611e7186828701611db2565b9150509250925092565b600080600060608486031215611e9057600080fd5b6000611e9e86828701611d5e565b935050602084013567ffffffffffffffff811115611ebb57600080fd5b611ec786828701611d88565b925050604084013567ffffffffffffffff811115611ee457600080fd5b611ef086828701611d88565b9150509250925092565b60008060408385031215611f0d57600080fd5b6000611f1b85828601611d5e565b9250506020611f2c85828601611db2565b9150509250929050565b600060208284031215611f4857600080fd5b6000611f5684828501611d73565b91505092915050565b60008060408385031215611f7257600080fd5b6000611f8085828601611d73565b9250506020611f9185828601611d5e565b9150509250929050565b60008060408385031215611fae57600080fd5b6000611fbc85828601611d73565b9250506020611fcd85828601611db2565b9150509250929050565b60008060408385031215611fea57600080fd5b6000611ff885828601611db2565b925050602061200985828601611d5e565b9150509250929050565b61201c816121bd565b82525050565b61202b816121cf565b82525050565b61203a816121db565b82525050565b600061204b826121a1565b61205581856121ac565b935061206581856020860161222b565b61206e81612260565b840191505092915050565b61208281612205565b82525050565b6120918161220f565b82525050565b60006020820190506120ac6000830184612013565b92915050565b60006020820190506120c76000830184612022565b92915050565b60006020820190506120e26000830184612031565b92915050565b600060208201905081810360008301526121028184612040565b905092915050565b600060208201905061211f6000830184612079565b92915050565b600060208201905061213a6000830184612088565b92915050565b6000604051905081810181811067ffffffffffffffff821117156121675761216661225e565b5b8060405250919050565b600067ffffffffffffffff82111561218c5761218b61225e565b5b601f19601f8301169050602081019050919050565b600081519050919050565b600082825260208201905092915050565b60006121c8826121e5565b9050919050565b60008115159050919050565b6000819050919050565b600073ffffffffffffffffffffffffffffffffffffffff82169050919050565b6000819050919050565b600060ff82169050919050565b82818337600083830152505050565b60005b8381101561224957808201518184015260208101905061222e565b83811115612258576000848401525b50505050565bfe5b6000601f19601f8301169050919050565b61227a816121bd565b811461228557600080fd5b50565b612291816121db565b811461229c57600080fd5b50565b6122a881612205565b81146122b357600080fd5b5056fe456e756d657261626c655365743a20696e646578206f7574206f6620626f756e647345524332303a207472616e7366657220746f20746865207a65726f2061646472657373416363657373436f6e74726f6c3a2073656e646572206d75737420626520616e2061646d696e20746f206772616e7445524332303a206275726e20616d6f756e7420657863656564732062616c616e636545524332303a20617070726f766520746f20746865207a65726f206164647265737345524332303a207472616e7366657220616d6f756e7420657863656564732062616c616e6365416363657373436f6e74726f6c3a2073656e646572206d75737420626520616e2061646d696e20746f207265766f6b65496e697469616c697a61626c653a20636f6e747261637420697320616c726561647920696e697469616c697a656445524332303a207472616e7366657220616d6f756e74206578636565647320616c6c6f77616e636545524332303a206275726e2066726f6d20746865207a65726f206164647265737345524332303a207472616e736665722066726f6d20746865207a65726f206164647265737345524332303a20617070726f76652066726f6d20746865207a65726f206164647265737345524332303a2064656372656173656420616c6c6f77616e63652062656c6f77207a65726f416363657373436f6e74726f6c3a2063616e206f6e6c792072656e6f756e636520726f6c657320666f722073656c66a2646970667358221220f56f02d56e9ffd23f399bab39900a8627cb55322363d7880dac6f3b353011b8064736f6c63430007060033608060405234801561001057600080fd5b5061594d80620000216000396000f3fe608060405234801561001057600080fd5b50600436106101da5760003560e01c80637de93f9311610104578063ab47c2b3116100a2578063ca15c87311610071578063ca15c8731461054a578063d547741f1461057a578063ddca3f4314610596578063f9a0e14e146105b4576101da565b8063ab47c2b3146104d6578063ac27f0a0146104f4578063ba8d546814610510578063bbcaac381461052e576101da565b806391d14854116100de57806391d148541461044e57806394a686301461047e5780639a46760b1461049c578063a217fddf146104b8576101da565b80637de93f93146103e25780637e71fc7d146104005780639010d07c1461041e576101da565b806336568abe1161017c57806351b450f61161014b57806351b450f61461035c5780636045fe991461037857806366c33dae146103a85780637bfe789a146103c4576101da565b806336568abe146102d45780633ef1889b146102f0578063412753581461030e5780634f64b2be1461032c576101da565b806329075d71116101b857806329075d71146102495780632a0acc6a1461027c5780632f2ff15d1461029a578063358ba773146102b6576101da565b806309987d4d146101df578063217a4b70146101fb578063248a9ca314610219575b600080fd5b6101f960048036038101906101f49190614860565b6105d2565b005b610203610be1565b6040516102109190614fa7565b60405180910390f35b610233600480360381019061022e91906149d1565b610c07565b604051610240919061517e565b60405180910390f35b610263600480360381019061025e9190614b65565b610c26565b60405161027394939291906153ac565b60405180910390f35b610284610cae565b604051610291919061517e565b60405180910390f35b6102b460048036038101906102af91906149fa565b610cd2565b005b6102be610d5b565b6040516102cb91906151dd565b60405180910390f35b6102ee60048036038101906102e991906149fa565b610df9565b005b6102f8610e92565b604051610305919061517e565b60405180910390f35b610316610eb6565b6040516103239190614fa7565b60405180910390f35b61034660048036038101906103419190614b8e565b610edc565b6040516103539190614fa7565b60405180910390f35b61037660048036038101906103719190614b65565b610f12565b005b610392600480360381019061038d9190614a72565b611651565b60405161039f919061533f565b60405180910390f35b6103c260048036038101906103bd9190614ad7565b61167e565b005b6103cc61221d565b6040516103d9919061546b565b60405180910390f35b6103ea612233565b6040516103f79190615486565b60405180910390f35b61040861224a565b604051610415919061533f565b60405180910390f35b61043860048036038101906104339190614a36565b61226a565b6040516104459190614fa7565b60405180910390f35b610468600480360381019061046391906149fa565b61229b565b604051610475919061507b565b60405180910390f35b6104866122cc565b604051610493919061517e565b60405180910390f35b6104b660048036038101906104b19190614a9b565b6122f0565b005b6104c06129f2565b6040516104cd919061517e565b60405180910390f35b6104de6129f9565b6040516104eb91906150b1565b60405180910390f35b61050e6004803603810190610509919061493e565b612a0c565b005b610518612cd5565b604051610525919061533f565b60405180910390f35b61054860048036038101906105439190614837565b612cf5565b005b610564600480360381019061055f91906149d1565b612ddc565b6040516105719190615450565b60405180910390f35b610594600480360381019061058f91906149fa565b612e02565b005b61059e612e8b565b6040516105ab91906150b1565b60405180910390f35b6105bc612e9e565b6040516105c9919061541a565b60405180910390f35b60018054906101000a900460ff16806105ef57506105ee612ec0565b5b806106075750600160009054906101000a900460ff16155b61065c576040517f08c379a000000000000000000000000000000000000000000000000000000000815260040180806020018281038252602e8152602001806158bb602e913960400191505060405180910390fd5b600060018054906101000a900460ff1615905080156106aa5760018060016101000a81548160ff02191690831515021790555060018060006101000a81548160ff0219169083151502179055505b600073ffffffffffffffffffffffffffffffffffffffff168373ffffffffffffffffffffffffffffffffffffffff16141561071a576040517f08c379a00000000000000000000000000000000000000000000000000000000081526004016107119061531f565b60405180910390fd5b600073ffffffffffffffffffffffffffffffffffffffff168273ffffffffffffffffffffffffffffffffffffffff16141561078a576040517f08c379a0000000000000000000000000000000000000000000000000000000008152600401610781906152ff565b60405180910390fd5b6107d47fe7d07e22cc47e0674aa5610dfc0c7c09a0a3b7491679c731a125fba46498854e7fdf8b4c520ffe197c5343c6f5aec59570151ef9a492f2c624fd45ddde6135ec42612ed1565b61081e7fd966713f04b5544a6d58a354c8f5113232ee91f25a7851f4218a448e05d406ee7fdf8b4c520ffe197c5343c6f5aec59570151ef9a492f2c624fd45ddde6135ec42612ed1565b6108487fe7d07e22cc47e0674aa5610dfc0c7c09a0a3b7491679c731a125fba46498854e8b612f33565b6108727fdf8b4c520ffe197c5343c6f5aec59570151ef9a492f2c624fd45ddde6135ec428b612f33565b61089c7fd966713f04b5544a6d58a354c8f5113232ee91f25a7851f4218a448e05d406ee84612f33565b81600760006101000a81548173ffffffffffffffffffffffffffffffffffffffff021916908373ffffffffffffffffffffffffffffffffffffffff16021790555085600260006101000a81548163ffffffff021916908363ffffffff16021790555084600260046101000a8154816fffffffffffffffffffffffffffffffff021916908360801c021790555073d046bC64854a7aF5bB61C207A9B2636148B04CAf63c60838cb856040518263ffffffff1660e01b815260040161095f9190615435565b60206040518083038186803b15801561097757600080fd5b505af415801561098b573d6000803e3d6000fd5b505050506040513d601f19601f820116820180604052508101906109af91906149a8565b600360006101000a8154816fffffffffffffffffffffffffffffffff021916908360801c021790555082600660006101000a81548173ffffffffffffffffffffffffffffffffffffffff021916908373ffffffffffffffffffffffffffffffffffffffff16021790555042600760146101000a81548164ffffffffff021916908364ffffffffff16021790555086600b9080519060200190610a529291906144f3565b50886004600060028110610a6257fe5b0160006101000a81548173ffffffffffffffffffffffffffffffffffffffff021916908373ffffffffffffffffffffffffffffffffffffffff160217905550876004600160028110610ab057fe5b0160006101000a81548173ffffffffffffffffffffffffffffffffffffffff021916908373ffffffffffffffffffffffffffffffffffffffff1602179055506004600160028110610afd57fe5b0160009054906101000a900473ffffffffffffffffffffffffffffffffffffffff1673ffffffffffffffffffffffffffffffffffffffff166004600060028110610b4357fe5b0160009054906101000a900473ffffffffffffffffffffffffffffffffffffffff1673ffffffffffffffffffffffffffffffffffffffff167fbc8bd61e5dd69ff5cb8c389529c029503515ba368eaafbdaa406e072fdd36072848a604051610bac929190615022565b60405180910390a38015610bd55760006001806101000a81548160ff0219169083151502179055505b50505050505050505050565b600760009054906101000a900473ffffffffffffffffffffffffffffffffffffffff1681565b6000806000838152602001908152602001600020600201549050919050565b60096020528060005260406000206000915090508060000160009054906101000a90046dffffffffffffffffffffffffffff169080600001600e9054906101000a900460ff169080600001600f9054906101000a900464ffffffffff16908060010160009054906101000a900473ffffffffffffffffffffffffffffffffffffffff16905084565b7fdf8b4c520ffe197c5343c6f5aec59570151ef9a492f2c624fd45ddde6135ec4281565b610cf860008084815260200190815260200160002060020154610cf3612f41565b61229b565b610d4d576040517f08c379a000000000000000000000000000000000000000000000000000000000815260040180806020018281038252602f81526020018061585c602f913960400191505060405180910390fd5b610d578282612f49565b5050565b600b8054600181600116156101000203166002900480601f016020809104026020016040519081016040528092919081815260200182805460018160011615610100020316600290048015610df15780601f10610dc657610100808354040283529160200191610df1565b820191906000526020600020905b815481529060010190602001808311610dd457829003601f168201915b505050505081565b610e01612f41565b73ffffffffffffffffffffffffffffffffffffffff168173ffffffffffffffffffffffffffffffffffffffff1614610e84576040517f08c379a000000000000000000000000000000000000000000000000000000000815260040180806020018281038252602f8152602001806158e9602f913960400191505060405180910390fd5b610e8e8282612fdc565b5050565b7fd966713f04b5544a6d58a354c8f5113232ee91f25a7851f4218a448e05d406ee81565b600660009054906101000a900473ffffffffffffffffffffffffffffffffffffffff1681565b60048160028110610eec57600080fd5b016000915054906101000a900473ffffffffffffffffffffffffffffffffffffffff1681565b600060096000836fffffffffffffffffffffffffffffffff166fffffffffffffffffffffffffffffffff1681526020019081526020016000206040518060800160405290816000820160009054906101000a90046dffffffffffffffffffffffffffff166dffffffffffffffffffffffffffff166dffffffffffffffffffffffffffff16815260200160008201600e9054906101000a900460ff166003811115610fb857fe5b6003811115610fc357fe5b815260200160008201600f9054906101000a900464ffffffffff1664ffffffffff1664ffffffffff1681526020016001820160009054906101000a900473ffffffffffffffffffffffffffffffffffffffff1673ffffffffffffffffffffffffffffffffffffffff1673ffffffffffffffffffffffffffffffffffffffff16815250509050806060015173ffffffffffffffffffffffffffffffffffffffff163373ffffffffffffffffffffffffffffffffffffffff16146110ba576040517f08c379a00000000000000000000000000000000000000000000000000000000081526004016110b19061521f565b60405180910390fd5b600073ffffffffffffffffffffffffffffffffffffffff16816060015173ffffffffffffffffffffffffffffffffffffffff16141561112e576040517f08c379a00000000000000000000000000000000000000000000000000000000081526004016111259061523f565b60405180910390fd5b8060000151600a60008360200151600381111561114757fe5b600381111561115257fe5b815260200190815260200160002060008282829054906101000a90046dffffffffffffffffffffffffffff160392506101000a8154816dffffffffffffffffffffffffffff02191690836dffffffffffffffffffffffffffff160217905550806020015160038111156111c157fe5b81600001516dffffffffffffffffffffffffffff16836fffffffffffffffffffffffffffffffff167f487c35d10ec275944e956f1d652e32048a7359dea185388c2f9bcb1e2db96b0b60405160405180910390a460096000836fffffffffffffffffffffffffffffffff166fffffffffffffffffffffffffffffffff168152602001908152602001600020600080820160006101000a8154906dffffffffffffffffffffffffffff021916905560008201600e6101000a81549060ff021916905560008201600f6101000a81549064ffffffffff02191690556001820160006101000a81549073ffffffffffffffffffffffffffffffffffffffff02191690555050600260038111156112d057fe5b816020015160038111156112e057fe5b14806113065750600060038111156112f457fe5b8160200151600381111561130457fe5b145b1561140257600760009054906101000a900473ffffffffffffffffffffffffffffffffffffffff1673ffffffffffffffffffffffffffffffffffffffff1663a9059cbb3383600001516040518363ffffffff1660e01b815260040161136c929190614ff9565b602060405180830381600087803b15801561138657600080fd5b505af115801561139a573d6000803e3d6000fd5b505050506040513d601f19601f820116820180604052508101906113be919061497f565b6113fd576040517f08c379a00000000000000000000000000000000000000000000000000000000081526004016113f49061525f565b60405180910390fd5b61164d565b60038081111561140e57fe5b8160200151600381111561141e57fe5b141561152857600460006002811061143257fe5b0160009054906101000a900473ffffffffffffffffffffffffffffffffffffffff1673ffffffffffffffffffffffffffffffffffffffff166394bf804d8260000151336040518363ffffffff1660e01b8152600401611492929190615383565b602060405180830381600087803b1580156114ac57600080fd5b505af11580156114c0573d6000803e3d6000fd5b505050506040513d601f19601f820116820180604052508101906114e4919061497f565b611523576040517f08c379a000000000000000000000000000000000000000000000000000000000815260040161151a9061525f565b60405180910390fd5b61164c565b6001600381111561153557fe5b8160200151600381111561154557fe5b141561164b57600460016002811061155957fe5b0160009054906101000a900473ffffffffffffffffffffffffffffffffffffffff1673ffffffffffffffffffffffffffffffffffffffff166394bf804d8260000151336040518363ffffffff1660e01b81526004016115b9929190615383565b602060405180830381600087803b1580156115d357600080fd5b505af11580156115e7573d6000803e3d6000fd5b505050506040513d601f19601f8201168201806040525081019061160b919061497f565b61164a576040517f08c379a00000000000000000000000000000000000000000000000000000000081526004016116419061525f565b60405180910390fd5b5b5b5b5050565b600a6020528060005260406000206000915054906101000a90046dffffffffffffffffffffffffffff1681565b6116a87fe7d07e22cc47e0674aa5610dfc0c7c09a0a3b7491679c731a125fba46498854e3361229b565b6116b157600080fd5b600073d046bC64854a7aF5bB61C207A9B2636148B04CAf63aeb64d7d73d046bC64854a7aF5bB61C207A9B2636148B04CAf63422051e7600260049054906101000a900460801b600160109054906101000a90046dffffffffffffffffffffffffffff166040518363ffffffff1660e01b8152600401611731929190615155565b60206040518083038186803b15801561174957600080fd5b505af415801561175d573d6000803e3d6000fd5b505050506040513d601f19601f8201168201806040525081019061178191906149a8565b6040518263ffffffff1660e01b815260040161179d9190615096565b60206040518083038186803b1580156117b557600080fd5b505af41580156117c9573d6000803e3d6000fd5b505050506040513d601f19601f820116820180604052508101906117ed9190614bb7565b9050600073d046bC64854a7aF5bB61C207A9B2636148B04CAf63aeb64d7d73d046bC64854a7aF5bB61C207A9B2636148B04CAf63422051e7600260049054906101000a900460801b600160029054906101000a90046dffffffffffffffffffffffffffff166040518363ffffffff1660e01b815260040161186f929190615155565b60206040518083038186803b15801561188757600080fd5b505af415801561189b573d6000803e3d6000fd5b505050506040513d601f19601f820116820180604052508101906118bf91906149a8565b6040518263ffffffff1660e01b81526004016118db9190615096565b60206040518083038186803b1580156118f357600080fd5b505af4158015611907573d6000803e3d6000fd5b505050506040513d601f19601f8201168201806040525081019061192b9190614bb7565b90506000816dffffffffffffffffffffffffffff16600160029054906101000a90046dffffffffffffffffffffffffffff166dffffffffffffffffffffffffffff1610611a0b576119b182600160029054906101000a90046dffffffffffffffffffffffffffff166dffffffffffffffffffffffffffff1661306f90919063ffffffff16565b600160026101000a8154816dffffffffffffffffffffffffffff02191690836dffffffffffffffffffffffffffff160217905550611a0882826dffffffffffffffffffffffffffff1661311290919063ffffffff16565b90505b826dffffffffffffffffffffffffffff16600160109054906101000a90046dffffffffffffffffffffffffffff166dffffffffffffffffffffffffffff1610611ae757611a8d83600160109054906101000a90046dffffffffffffffffffffffffffff166dffffffffffffffffffffffffffff1661306f90919063ffffffff16565b600160106101000a8154816dffffffffffffffffffffffffffff02191690836dffffffffffffffffffffffffffff160217905550611ae483826dffffffffffffffffffffffffffff1661311290919063ffffffff16565b90505b600073d046bC64854a7aF5bB61C207A9B2636148B04CAf63202f125786886040518363ffffffff1660e01b8152600401611b229291906151b4565b60206040518083038186803b158015611b3a57600080fd5b505af4158015611b4e573d6000803e3d6000fd5b505050506040513d601f19601f82011682018060405250810190611b7291906149a8565b9050600073d046bC64854a7aF5bB61C207A9B2636148B04CAf631842c9d8836f3fff000000000000000000000000000060801b6040518363ffffffff1660e01b8152600401611bc29291906150cc565b60206040518083038186803b158015611bda57600080fd5b505af4158015611bee573d6000803e3d6000fd5b505050506040513d601f19601f82011682018060405250810190611c129190614b13565b9050600073d046bC64854a7aF5bB61C207A9B2636148B04CAf63c3ff80918484600360009054906101000a900460801b6040518463ffffffff1660e01b8152600401611c60939291906150f5565b60206040518083038186803b158015611c7857600080fd5b505af4158015611c8c573d6000803e3d6000fd5b505050506040513d601f19601f82011682018060405250810190611cb091906149a8565b905060008260000b12158015611cf257506000600160029054906101000a90046dffffffffffffffffffffffffffff166dffffffffffffffffffffffffffff16115b15611ecb57600073d046bC64854a7aF5bB61C207A9B2636148B04CAf63f07f2ed383600160029054906101000a90046dffffffffffffffffffffffffffff166040518363ffffffff1660e01b8152600401611d4e92919061512c565b60206040518083038186803b158015611d6657600080fd5b505af4158015611d7a573d6000803e3d6000fd5b505050506040513d601f19601f82011682018060405250810190611d9e9190614bb7565b9050611ddf81600160029054906101000a90046dffffffffffffffffffffffffffff166dffffffffffffffffffffffffffff1661306f90919063ffffffff16565b600160026101000a8154816dffffffffffffffffffffffffffff02191690836dffffffffffffffffffffffffffff160217905550611e5281600160109054906101000a90046dffffffffffffffffffffffffffff166dffffffffffffffffffffffffffff1661311290919063ffffffff16565b600160106101000a8154816dffffffffffffffffffffffffffff02191690836dffffffffffffffffffffffffffff160217905550806dffffffffffffffffffffffffffff16888a7fb3b18fa4e3f3fc41f4de9d1e5d0831295802790e9e446387c6e926d05ebaddf960405160405180910390a4506120e0565b60008260000b128015611f0a57506000600160109054906101000a90046dffffffffffffffffffffffffffff166dffffffffffffffffffffffffffff16115b156120df57600073d046bC64854a7aF5bB61C207A9B2636148B04CAf63f07f2ed383600160109054906101000a90046dffffffffffffffffffffffffffff166040518363ffffffff1660e01b8152600401611f6692919061512c565b60206040518083038186803b158015611f7e57600080fd5b505af4158015611f92573d6000803e3d6000fd5b505050506040513d601f19601f82011682018060405250810190611fb69190614bb7565b9050611ff781600160029054906101000a90046dffffffffffffffffffffffffffff166dffffffffffffffffffffffffffff1661311290919063ffffffff16565b600160026101000a8154816dffffffffffffffffffffffffffff02191690836dffffffffffffffffffffffffffff16021790555061206a81600160109054906101000a90046dffffffffffffffffffffffffffff166dffffffffffffffffffffffffffff1661306f90919063ffffffff16565b600160106101000a8154816dffffffffffffffffffffffffffff02191690836dffffffffffffffffffffffffffff160217905550806dffffffffffffffffffffffffffff16888a7fb3b18fa4e3f3fc41f4de9d1e5d0831295802790e9e446387c6e926d05ebaddf960405160405180910390a4505b5b42600760146101000a81548164ffffffffff021916908364ffffffffff160217905550600760009054906101000a900473ffffffffffffffffffffffffffffffffffffffff1673ffffffffffffffffffffffffffffffffffffffff1663a9059cbb600660009054906101000a900473ffffffffffffffffffffffffffffffffffffffff16866040518363ffffffff1660e01b8152600401612182929190615052565b602060405180830381600087803b15801561219c57600080fd5b505af11580156121b0573d6000803e3d6000fd5b505050506040513d601f19601f820116820180604052508101906121d4919061497f565b612213576040517f08c379a000000000000000000000000000000000000000000000000000000000815260040161220a906152bf565b60405180910390fd5b5050505050505050565b600260009054906101000a900463ffffffff1681565b600760149054906101000a900464ffffffffff1681565b600160109054906101000a90046dffffffffffffffffffffffffffff1681565b6000612293826000808681526020019081526020016000206000016131ba90919063ffffffff16565b905092915050565b60006122c4826000808681526020019081526020016000206000016131d490919063ffffffff16565b905092915050565b7fe7d07e22cc47e0674aa5610dfc0c7c09a0a3b7491679c731a125fba46498854e81565b6000816dffffffffffffffffffffffffffff1611612343576040517f08c379a000000000000000000000000000000000000000000000000000000000815260040161233a9061529f565b60405180910390fd5b6123876001600860009054906101000a90046fffffffffffffffffffffffffffffffff166fffffffffffffffffffffffffffffffff1661320490919063ffffffff16565b600860006101000a8154816fffffffffffffffffffffffffffffffff02191690836fffffffffffffffffffffffffffffffff1602179055506040518060800160405280826dffffffffffffffffffffffffffff1681526020018360038111156123ec57fe5b81526020014264ffffffffff1681526020013373ffffffffffffffffffffffffffffffffffffffff1681525060096000600860009054906101000a90046fffffffffffffffffffffffffffffffff166fffffffffffffffffffffffffffffffff166fffffffffffffffffffffffffffffffff16815260200190815260200160002060008201518160000160006101000a8154816dffffffffffffffffffffffffffff02191690836dffffffffffffffffffffffffffff160217905550602082015181600001600e6101000a81548160ff021916908360038111156124cc57fe5b0217905550604082015181600001600f6101000a81548164ffffffffff021916908364ffffffffff16021790555060608201518160010160006101000a81548173ffffffffffffffffffffffffffffffffffffffff021916908373ffffffffffffffffffffffffffffffffffffffff1602179055509050506125aa81600a600085600381111561255857fe5b600381111561256357fe5b815260200190815260200160002060009054906101000a90046dffffffffffffffffffffffffffff166dffffffffffffffffffffffffffff1661311290919063ffffffff16565b600a60008460038111156125ba57fe5b60038111156125c557fe5b815260200190815260200160002060006101000a8154816dffffffffffffffffffffffffffff02191690836dffffffffffffffffffffffffffff160217905550806dffffffffffffffffffffffffffff16600860009054906101000a90046fffffffffffffffffffffffffffffffff166fffffffffffffffffffffffffffffffff167f85f5090190b6b1dd154a45f8125e39dc5cd285ba717d165c2425b396dac37d25846040516126769190615199565b60405180910390a36002600381111561268b57fe5b82600381111561269757fe5b14806126b95750600060038111156126ab57fe5b8260038111156126b757fe5b145b156127b357600760009054906101000a900473ffffffffffffffffffffffffffffffffffffffff1673ffffffffffffffffffffffffffffffffffffffff166323b872dd3330846040518463ffffffff1660e01b815260040161271d93929190614fc2565b602060405180830381600087803b15801561273757600080fd5b505af115801561274b573d6000803e3d6000fd5b505050506040513d601f19601f8201168201806040525081019061276f919061497f565b6127ae576040517f08c379a00000000000000000000000000000000000000000000000000000000081526004016127a59061525f565b60405180910390fd5b6129ee565b6003808111156127bf57fe5b8260038111156127cb57fe5b14156128d15760046000600281106127df57fe5b0160009054906101000a900473ffffffffffffffffffffffffffffffffffffffff1673ffffffffffffffffffffffffffffffffffffffff1663fcd3533c82336040518363ffffffff1660e01b815260040161283b929190615383565b602060405180830381600087803b15801561285557600080fd5b505af1158015612869573d6000803e3d6000fd5b505050506040513d601f19601f8201168201806040525081019061288d919061497f565b6128cc576040517f08c379a00000000000000000000000000000000000000000000000000000000081526004016128c39061525f565b60405180910390fd5b6129ed565b600160038111156128de57fe5b8260038111156128ea57fe5b14156129ec5760046001600281106128fe57fe5b0160009054906101000a900473ffffffffffffffffffffffffffffffffffffffff1673ffffffffffffffffffffffffffffffffffffffff1663fcd3533c82336040518363ffffffff1660e01b815260040161295a929190615383565b602060405180830381600087803b15801561297457600080fd5b505af1158015612988573d6000803e3d6000fd5b505050506040513d601f19601f820116820180604052508101906129ac919061497f565b6129eb576040517f08c379a00000000000000000000000000000000000000000000000000000000081526004016129e29061525f565b60405180910390fd5b5b5b5b5050565b6000801b81565b600360009054906101000a900460801b81565b612a14614581565b60005b8251816fffffffffffffffffffffffffffffffff161015612cd0576009600084836fffffffffffffffffffffffffffffffff1681518110612a5457fe5b60200260200101516fffffffffffffffffffffffffffffffff166fffffffffffffffffffffffffffffffff1681526020019081526020016000206040518060800160405290816000820160009054906101000a90046dffffffffffffffffffffffffffff166dffffffffffffffffffffffffffff166dffffffffffffffffffffffffffff16815260200160008201600e9054906101000a900460ff166003811115612afb57fe5b6003811115612b0657fe5b815260200160008201600f9054906101000a900464ffffffffff1664ffffffffff1664ffffffffff1681526020016001820160009054906101000a900473ffffffffffffffffffffffffffffffffffffffff1673ffffffffffffffffffffffffffffffffffffffff1673ffffffffffffffffffffffffffffffffffffffff168152505091506009600084836fffffffffffffffffffffffffffffffff1681518110612bad57fe5b60200260200101516fffffffffffffffffffffffffffffffff166fffffffffffffffffffffffffffffffff168152602001908152602001600020600080820160006101000a8154906dffffffffffffffffffffffffffff021916905560008201600e6101000a81549060ff021916905560008201600f6101000a81549064ffffffffff02191690556001820160006101000a81549073ffffffffffffffffffffffffffffffffffffffff021916905550507f53e7d7eb888194c67870ec86b8523606069fb6eeeab81f458a6065b9e88defa983826fffffffffffffffffffffffffffffffff1681518110612c9d57fe5b6020026020010151604051612cb2919061541a565b60405180910390a1612cc3826132b0565b8080600101915050612a17565b505050565b600160029054906101000a90046dffffffffffffffffffffffffffff1681565b612d1f7fd966713f04b5544a6d58a354c8f5113232ee91f25a7851f4218a448e05d406ee3361229b565b612d2857600080fd5b600073ffffffffffffffffffffffffffffffffffffffff168173ffffffffffffffffffffffffffffffffffffffff161415612d98576040517f08c379a0000000000000000000000000000000000000000000000000000000008152600401612d8f906151ff565b60405180910390fd5b80600660006101000a81548173ffffffffffffffffffffffffffffffffffffffff021916908373ffffffffffffffffffffffffffffffffffffffff16021790555050565b6000612dfb600080848152602001908152602001600020600001613f49565b9050919050565b612e2860008084815260200190815260200160002060020154612e23612f41565b61229b565b612e7d576040517f08c379a000000000000000000000000000000000000000000000000000000000815260040180806020018281038252603081526020018061588b6030913960400191505060405180910390fd5b612e878282612fdc565b5050565b600260049054906101000a900460801b81565b600860009054906101000a90046fffffffffffffffffffffffffffffffff1681565b6000612ecb30613f5e565b15905090565b8060008084815260200190815260200160002060020154837fbd79b86ffe0ab8e8776151514217cd7cacd52c909f66475c3af44e129f0b00ff60405160405180910390a480600080848152602001908152602001600020600201819055505050565b612f3d8282612f49565b5050565b600033905090565b612f7081600080858152602001908152602001600020600001613f7190919063ffffffff16565b15612fd857612f7d612f41565b73ffffffffffffffffffffffffffffffffffffffff168173ffffffffffffffffffffffffffffffffffffffff16837f2f8788117e7eff1d82e926ec794901d17c78024a50270940304540a733656f0d60405160405180910390a45b5050565b61300381600080858152602001908152602001600020600001613fa190919063ffffffff16565b1561306b57613010612f41565b73ffffffffffffffffffffffffffffffffffffffff168173ffffffffffffffffffffffffffffffffffffffff16837ff6391f5c32d9c69d2a47ea670b442974b53935d1edc7fd64eb21e047a839171b60405160405180910390a45b5050565b6000826dffffffffffffffffffffffffffff16826dffffffffffffffffffffffffffff161115613107576040517f08c379a000000000000000000000000000000000000000000000000000000000815260040180806020018281038252601e8152602001807f536166654d6174683a207375627472616374696f6e206f766572666c6f77000081525060200191505060405180910390fd5b818303905092915050565b6000808284019050836dffffffffffffffffffffffffffff16816dffffffffffffffffffffffffffff1610156131b0576040517f08c379a000000000000000000000000000000000000000000000000000000000815260040180806020018281038252601b8152602001807f536166654d6174683a206164646974696f6e206f766572666c6f77000000000081525060200191505060405180910390fd5b8091505092915050565b60006131c98360000183613fd1565b60001c905092915050565b60006131fc836000018373ffffffffffffffffffffffffffffffffffffffff1660001b614054565b905092915050565b6000808284019050836fffffffffffffffffffffffffffffffff16816fffffffffffffffffffffffffffffffff1610156132a6576040517f08c379a000000000000000000000000000000000000000000000000000000000815260040180806020018281038252601b8152602001807f536166654d6174683a206164646974696f6e206f766572666c6f77000000000081525060200191505060405180910390fd5b8091505092915050565b600073ffffffffffffffffffffffffffffffffffffffff16816060015173ffffffffffffffffffffffffffffffffffffffff161415613324576040517f08c379a000000000000000000000000000000000000000000000000000000000815260040161331b9061523f565b60405180910390fd5b600260009054906101000a900463ffffffff1663ffffffff1661336e8260400151600760149054906101000a900464ffffffffff1664ffffffffff1661407790919063ffffffff16565b64ffffffffff16116133b5576040517f08c379a00000000000000000000000000000000000000000000000000000000081526004016133ac906152df565b60405180910390fd5b6134238160000151600a6000846020015160038111156133d157fe5b60038111156133dc57fe5b815260200190815260200160002060009054906101000a90046dffffffffffffffffffffffffffff166dffffffffffffffffffffffffffff1661306f90919063ffffffff16565b600a60008360200151600381111561343757fe5b600381111561344257fe5b815260200190815260200160002060006101000a8154816dffffffffffffffffffffffffffff02191690836dffffffffffffffffffffffffffff1602179055506002600381111561348f57fe5b8160200151600381111561349f57fe5b14156135ea576134e88160000151600160109054906101000a90046dffffffffffffffffffffffffffff166dffffffffffffffffffffffffffff1661311290919063ffffffff16565b600160106101000a8154816dffffffffffffffffffffffffffff02191690836dffffffffffffffffffffffffffff1602179055506135e5600460006002811061352d57fe5b0160009054906101000a900473ffffffffffffffffffffffffffffffffffffffff1682600001516135978460000151600160109054906101000a90046dffffffffffffffffffffffffffff166dffffffffffffffffffffffffffff1661306f90919063ffffffff16565b600a60006003808111156135a757fe5b60038111156135b257fe5b815260200190815260200160002060009054906101000a90046dffffffffffffffffffffffffffff168560600151614108565b613f46565b6003808111156135f657fe5b8160200151600381111561360657fe5b14156139e357600073d046bC64854a7aF5bB61C207A9B2636148B04CAf63af2f0e6973d046bC64854a7aF5bB61C207A9B2636148B04CAf632c20a03f600160109054906101000a90046dffffffffffffffffffffffffffff166137978760000151613779600a600060038081111561367a57fe5b600381111561368557fe5b815260200190815260200160002060009054906101000a90046dffffffffffffffffffffffffffff1660046000600281106136bc57fe5b0160009054906101000a900473ffffffffffffffffffffffffffffffffffffffff1673ffffffffffffffffffffffffffffffffffffffff166318160ddd6040518163ffffffff1660e01b815260040160206040518083038186803b15801561372357600080fd5b505afa158015613737573d6000803e3d6000fd5b505050506040513d601f19601f8201168201806040525081019061375b9190614bb7565b6dffffffffffffffffffffffffffff1661311290919063ffffffff16565b6dffffffffffffffffffffffffffff1661311290919063ffffffff16565b6040518363ffffffff1660e01b81526004016137b49291906153f1565b60206040518083038186803b1580156137cc57600080fd5b505af41580156137e0573d6000803e3d6000fd5b505050506040513d601f19601f8201168201806040525081019061380491906149a8565b84600001516040518363ffffffff1660e01b815260040161382692919061512c565b60206040518083038186803b15801561383e57600080fd5b505af4158015613852573d6000803e3d6000fd5b505050506040513d601f19601f820116820180604052508101906138769190614b3c565b90506138b781600160109054906101000a90046dffffffffffffffffffffffffffff166dffffffffffffffffffffffffffff1661306f90919063ffffffff16565b600160106101000a8154816dffffffffffffffffffffffffffff02191690836dffffffffffffffffffffffffffff160217905550600760009054906101000a900473ffffffffffffffffffffffffffffffffffffffff1673ffffffffffffffffffffffffffffffffffffffff1663a9059cbb8360600151836040518363ffffffff1660e01b815260040161394c929190615052565b602060405180830381600087803b15801561396657600080fd5b505af115801561397a573d6000803e3d6000fd5b505050506040513d601f19601f8201168201806040525081019061399e919061497f565b6139dd576040517f08c379a00000000000000000000000000000000000000000000000000000000081526004016139d49061525f565b60405180910390fd5b50613f45565b600060038111156139f057fe5b81602001516003811115613a0057fe5b1415613b4c57613a498160000151600160029054906101000a90046dffffffffffffffffffffffffffff166dffffffffffffffffffffffffffff1661311290919063ffffffff16565b600160026101000a8154816dffffffffffffffffffffffffffff02191690836dffffffffffffffffffffffffffff160217905550613b476004600160028110613a8e57fe5b0160009054906101000a900473ffffffffffffffffffffffffffffffffffffffff168260000151613af88460000151600160029054906101000a90046dffffffffffffffffffffffffffff166dffffffffffffffffffffffffffff1661306f90919063ffffffff16565b600a600060016003811115613b0957fe5b6003811115613b1457fe5b815260200190815260200160002060009054906101000a90046dffffffffffffffffffffffffffff168560600151614108565b613f44565b60016003811115613b5957fe5b81602001516003811115613b6957fe5b1415613f4357600073d046bC64854a7aF5bB61C207A9B2636148B04CAf63af2f0e6973d046bC64854a7aF5bB61C207A9B2636148B04CAf632c20a03f600160029054906101000a90046dffffffffffffffffffffffffffff16613cfb8760000151613cdd600a600060016003811115613bde57fe5b6003811115613be957fe5b815260200190815260200160002060009054906101000a90046dffffffffffffffffffffffffffff166004600160028110613c2057fe5b0160009054906101000a900473ffffffffffffffffffffffffffffffffffffffff1673ffffffffffffffffffffffffffffffffffffffff166318160ddd6040518163ffffffff1660e01b815260040160206040518083038186803b158015613c8757600080fd5b505afa158015613c9b573d6000803e3d6000fd5b505050506040513d601f19601f82011682018060405250810190613cbf9190614bb7565b6dffffffffffffffffffffffffffff1661311290919063ffffffff16565b6dffffffffffffffffffffffffffff1661311290919063ffffffff16565b6040518363ffffffff1660e01b8152600401613d189291906153f1565b60206040518083038186803b158015613d3057600080fd5b505af4158015613d44573d6000803e3d6000fd5b505050506040513d601f19601f82011682018060405250810190613d6891906149a8565b84600001516040518363ffffffff1660e01b8152600401613d8a92919061512c565b60206040518083038186803b158015613da257600080fd5b505af4158015613db6573d6000803e3d6000fd5b505050506040513d601f19601f82011682018060405250810190613dda9190614b3c565b9050613e1b81600160029054906101000a90046dffffffffffffffffffffffffffff166dffffffffffffffffffffffffffff1661306f90919063ffffffff16565b600160026101000a8154816dffffffffffffffffffffffffffff02191690836dffffffffffffffffffffffffffff160217905550600760009054906101000a900473ffffffffffffffffffffffffffffffffffffffff1673ffffffffffffffffffffffffffffffffffffffff1663a9059cbb8360600151836040518363ffffffff1660e01b8152600401613eb0929190615052565b602060405180830381600087803b158015613eca57600080fd5b505af1158015613ede573d6000803e3d6000fd5b505050506040513d601f19601f82011682018060405250810190613f02919061497f565b613f41576040517f08c379a0000000000000000000000000000000000000000000000000000000008152600401613f389061525f565b60405180910390fd5b505b5b5b5b50565b6000613f578260000161438a565b9050919050565b600080823b905060008111915050919050565b6000613f99836000018373ffffffffffffffffffffffffffffffffffffffff1660001b61439b565b905092915050565b6000613fc9836000018373ffffffffffffffffffffffffffffffffffffffff1660001b61440b565b905092915050565b600081836000018054905011614032576040517f08c379a000000000000000000000000000000000000000000000000000000000815260040180806020018281038252602281526020018061583a6022913960400191505060405180910390fd5b82600001828154811061404157fe5b9060005260206000200154905092915050565b600080836001016000848152602001908152602001600020541415905092915050565b60008264ffffffffff168264ffffffffff1611156140fd576040517f08c379a000000000000000000000000000000000000000000000000000000000815260040180806020018281038252601e8152602001807f536166654d6174683a207375627472616374696f6e206f766572666c6f77000081525060200191505060405180910390fd5b818303905092915050565b8473ffffffffffffffffffffffffffffffffffffffff166394bf804d73d046bC64854a7aF5bB61C207A9B2636148B04CAf63af2f0e6973d046bC64854a7aF5bB61C207A9B2636148B04CAf632c20a03f6141f8888c73ffffffffffffffffffffffffffffffffffffffff166318160ddd6040518163ffffffff1660e01b815260040160206040518083038186803b1580156141a257600080fd5b505afa1580156141b6573d6000803e3d6000fd5b505050506040513d601f19601f820116820180604052508101906141da9190614bb7565b6dffffffffffffffffffffffffffff1661311290919063ffffffff16565b896040518363ffffffff1660e01b81526004016142169291906153f1565b60206040518083038186803b15801561422e57600080fd5b505af4158015614242573d6000803e3d6000fd5b505050506040513d601f19601f8201168201806040525081019061426691906149a8565b886040518363ffffffff1660e01b815260040161428492919061512c565b60206040518083038186803b15801561429c57600080fd5b505af41580156142b0573d6000803e3d6000fd5b505050506040513d601f19601f820116820180604052508101906142d49190614b3c565b836040518363ffffffff1660e01b81526004016142f292919061535a565b602060405180830381600087803b15801561430c57600080fd5b505af1158015614320573d6000803e3d6000fd5b505050506040513d601f19601f82011682018060405250810190614344919061497f565b614383576040517f08c379a000000000000000000000000000000000000000000000000000000000815260040161437a9061527f565b60405180910390fd5b5050505050565b600081600001805490509050919050565b60006143a78383614054565b614400578260000182908060018154018082558091505060019003906000526020600020016000909190919091505582600001805490508360010160008481526020019081526020016000208190555060019050614405565b600090505b92915050565b600080836001016000848152602001908152602001600020549050600081146144e7576000600182039050600060018660000180549050039050600086600001828154811061445657fe5b906000526020600020015490508087600001848154811061447357fe5b90600052602060002001819055506001830187600101600083815260200190815260200160002081905550866000018054806144ab57fe5b600190038181906000526020600020016000905590558660010160008781526020019081526020016000206000905560019450505050506144ed565b60009150505b92915050565b828054600181600116156101000203166002900490600052602060002090601f0160209004810192826145295760008555614570565b82601f1061454257805160ff1916838001178555614570565b82800160010185558215614570579182015b8281111561456f578251825591602001919060010190614554565b5b50905061457d91906145e1565b5090565b604051806080016040528060006dffffffffffffffffffffffffffff168152602001600060038111156145b057fe5b8152602001600064ffffffffff168152602001600073ffffffffffffffffffffffffffffffffffffffff1681525090565b5b808211156145fa5760008160009055506001016145e2565b5090565b600061461161460c846154d2565b6154a1565b9050808382526020820190508285602086028201111561463057600080fd5b60005b85811015614660578161464688826147ce565b845260208401935060208301925050600181019050614633565b5050509392505050565b600061467d614678846154fe565b6154a1565b90508281526020810184848401111561469557600080fd5b6146a08482856156c3565b509392505050565b6000813590506146b78161572c565b92915050565b600082601f8301126146ce57600080fd5b81356146de8482602086016145fe565b91505092915050565b6000815190506146f681615743565b92915050565b60008135905061470b8161575a565b92915050565b6000815190506147208161575a565b92915050565b60008135905061473581615771565b92915050565b60008135905061474a81615788565b92915050565b60008135905061475f81615798565b92915050565b600081519050614774816157af565b92915050565b600082601f83011261478b57600080fd5b813561479b84826020860161466a565b91505092915050565b6000813590506147b3816157c6565b92915050565b6000815190506147c8816157c6565b92915050565b6000813590506147dd816157dd565b92915050565b6000813590506147f2816157f4565b92915050565b6000813590506148078161580b565b92915050565b60008151905061481c8161580b565b92915050565b60008135905061483181615822565b92915050565b60006020828403121561484957600080fd5b6000614857848285016146a8565b91505092915050565b60008060008060008060008060006101208a8c03121561487f57600080fd5b600061488d8c828d016146a8565b995050602061489e8c828d016146a8565b98505060406148af8c828d016146a8565b97505060608a013567ffffffffffffffff8111156148cc57600080fd5b6148d88c828d0161477a565b96505060806148e98c828d01614822565b95505060a06148fa8c828d016146fc565b94505060c061490b8c828d016147e3565b93505060e061491c8c828d016146a8565b92505061010061492e8c828d016146a8565b9150509295985092959850929598565b60006020828403121561495057600080fd5b600082013567ffffffffffffffff81111561496a57600080fd5b614976848285016146bd565b91505092915050565b60006020828403121561499157600080fd5b600061499f848285016146e7565b91505092915050565b6000602082840312156149ba57600080fd5b60006149c884828501614711565b91505092915050565b6000602082840312156149e357600080fd5b60006149f184828501614726565b91505092915050565b60008060408385031215614a0d57600080fd5b6000614a1b85828601614726565b9250506020614a2c858286016146a8565b9150509250929050565b60008060408385031215614a4957600080fd5b6000614a5785828601614726565b9250506020614a68858286016147f8565b9150509250929050565b600060208284031215614a8457600080fd5b6000614a928482850161473b565b91505092915050565b60008060408385031215614aae57600080fd5b6000614abc8582860161473b565b9250506020614acd858286016147a4565b9150509250929050565b60008060408385031215614aea57600080fd5b6000614af885828601614750565b9250506020614b0985828601614750565b9150509250929050565b600060208284031215614b2557600080fd5b6000614b3384828501614765565b91505092915050565b600060208284031215614b4e57600080fd5b6000614b5c848285016147b9565b91505092915050565b600060208284031215614b7757600080fd5b6000614b85848285016147ce565b91505092915050565b600060208284031215614ba057600080fd5b6000614bae848285016147f8565b91505092915050565b600060208284031215614bc957600080fd5b6000614bd78482850161480d565b91505092915050565b614be981615657565b82525050565b614bf88161554a565b82525050565b614c078161555c565b82525050565b614c1681615568565b82525050565b614c2581615568565b82525050565b614c3481615594565b82525050565b614c4381615669565b82525050565b614c52816155b1565b82525050565b614c61816155bb565b82525050565b6000614c728261552e565b614c7c8185615539565b9350614c8c8185602086016156d2565b614c9581615707565b840191505092915050565b6000614cad600f83615539565b91507f496e76616c6964206164647265737300000000000000000000000000000000006000830152602082019050919050565b6000614ced600c83615539565b91507f556e617574686f72697a656400000000000000000000000000000000000000006000830152602082019050919050565b6000614d2d600e83615539565b91507f496e76616c696420636f6d6d69740000000000000000000000000000000000006000830152602082019050919050565b6000614d6d600f83615539565b91507f5472616e73666572206661696c656400000000000000000000000000000000006000830152602082019050919050565b6000614dad600b83615539565b91507f4d696e74206661696c65640000000000000000000000000000000000000000006000830152602082019050919050565b6000614ded601783615539565b91507f416d6f756e74206d757374206e6f74206265207a65726f0000000000000000006000830152602082019050919050565b6000614e2d601383615539565b91507f466565207472616e73666572206661696c6564000000000000000000000000006000830152602082019050919050565b6000614e6d600e83615539565b91507f436f6d6d697420746f6f206e65770000000000000000000000000000000000006000830152602082019050919050565b6000614ead601f83615539565b91507f51756f746520746f6b656e2063616e6e6f7420626520302061646472657373006000830152602082019050919050565b6000614eed601f83615539565b91507f46656520616464726573732063616e6e6f7420626520302061646472657373006000830152602082019050919050565b614f29816155c8565b82525050565b614f38816155c8565b82525050565b614f478161567b565b82525050565b614f568161567b565b82525050565b614f65816155e2565b82525050565b614f74816156b1565b82525050565b614f838161562c565b82525050565b614f9281615636565b82525050565b614fa181615646565b82525050565b6000602082019050614fbc6000830184614bef565b92915050565b6000606082019050614fd76000830186614be0565b614fe46020830185614bef565b614ff16040830184614f3e565b949350505050565b600060408201905061500e6000830185614be0565b61501b6020830184614f3e565b9392505050565b60006040820190506150376000830185614bef565b81810360208301526150498184614c67565b90509392505050565b60006040820190506150676000830185614bef565b6150746020830184614f3e565b9392505050565b60006020820190506150906000830184614bfe565b92915050565b60006020820190506150ab6000830184614c1c565b92915050565b60006020820190506150c66000830184614c0d565b92915050565b60006040820190506150e16000830185614c1c565b6150ee6020830184614c1c565b9392505050565b600060608201905061510a6000830186614c1c565b6151176020830185614c58565b6151246040830184614c1c565b949350505050565b60006040820190506151416000830185614c1c565b61514e6020830184614f2f565b9392505050565b600060408201905061516a6000830185614c1c565b6151776020830184614f4d565b9392505050565b60006020820190506151936000830184614c2b565b92915050565b60006020820190506151ae6000830184614c3a565b92915050565b60006040820190506151c96000830185614c49565b6151d66020830184614c49565b9392505050565b600060208201905081810360008301526151f78184614c67565b905092915050565b6000602082019050818103600083015261521881614ca0565b9050919050565b6000602082019050818103600083015261523881614ce0565b9050919050565b6000602082019050818103600083015261525881614d20565b9050919050565b6000602082019050818103600083015261527881614d60565b9050919050565b6000602082019050818103600083015261529881614da0565b9050919050565b600060208201905081810360008301526152b881614de0565b9050919050565b600060208201905081810360008301526152d881614e20565b9050919050565b600060208201905081810360008301526152f881614e60565b9050919050565b6000602082019050818103600083015261531881614ea0565b9050919050565b6000602082019050818103600083015261533881614ee0565b9050919050565b60006020820190506153546000830184614f20565b92915050565b600060408201905061536f6000830185614f3e565b61537c6020830184614bef565b9392505050565b60006040820190506153986000830185614f3e565b6153a56020830184614be0565b9392505050565b60006080820190506153c16000830187614f20565b6153ce6020830186614c3a565b6153db6040830185614f98565b6153e86060830184614bef565b95945050505050565b60006040820190506154066000830185614f2f565b6154136020830184614f2f565b9392505050565b600060208201905061542f6000830184614f5c565b92915050565b600060208201905061544a6000830184614f6b565b92915050565b60006020820190506154656000830184614f7a565b92915050565b60006020820190506154806000830184614f89565b92915050565b600060208201905061549b6000830184614f98565b92915050565b6000604051905081810181811067ffffffffffffffff821117156154c8576154c7615705565b5b8060405250919050565b600067ffffffffffffffff8211156154ed576154ec615705565b5b602082029050602081019050919050565b600067ffffffffffffffff82111561551957615518615705565b5b601f19601f8301169050602081019050919050565b600081519050919050565b600082825260208201905092915050565b60006155558261560c565b9050919050565b60008115159050919050565b60007fffffffffffffffffffffffffffffffff0000000000000000000000000000000082169050919050565b6000819050919050565b60008190506155ac82615718565b919050565b6000819050919050565b60008160000b9050919050565b60006dffffffffffffffffffffffffffff82169050919050565b60006fffffffffffffffffffffffffffffffff82169050919050565b600061ffff82169050919050565b600073ffffffffffffffffffffffffffffffffffffffff82169050919050565b6000819050919050565b600063ffffffff82169050919050565b600064ffffffffff82169050919050565b60006156628261568d565b9050919050565b60006156748261559e565b9050919050565b6000615686826155c8565b9050919050565b60006156988261569f565b9050919050565b60006156aa8261560c565b9050919050565b60006156bc826155fe565b9050919050565b82818337600083830152505050565b60005b838110156156f05780820151818401526020810190506156d5565b838111156156ff576000848401525b50505050565bfe5b6000601f19601f8301169050919050565b6004811061572957615728615705565b5b50565b6157358161554a565b811461574057600080fd5b50565b61574c8161555c565b811461575757600080fd5b50565b61576381615568565b811461576e57600080fd5b50565b61577a81615594565b811461578557600080fd5b50565b6004811061579557600080fd5b50565b6157a1816155b1565b81146157ac57600080fd5b50565b6157b8816155bb565b81146157c357600080fd5b50565b6157cf816155c8565b81146157da57600080fd5b50565b6157e6816155e2565b81146157f157600080fd5b50565b6157fd816155fe565b811461580857600080fd5b50565b6158148161562c565b811461581f57600080fd5b50565b61582b81615636565b811461583657600080fd5b5056fe456e756d657261626c655365743a20696e646578206f7574206f6620626f756e6473416363657373436f6e74726f6c3a2073656e646572206d75737420626520616e2061646d696e20746f206772616e74416363657373436f6e74726f6c3a2073656e646572206d75737420626520616e2061646d696e20746f207265766f6b65496e697469616c697a61626c653a20636f6e747261637420697320616c726561647920696e697469616c697a6564416363657373436f6e74726f6c3a2063616e206f6e6c792072656e6f756e636520726f6c657320666f722073656c66a264697066735822122045a9c94e67c34c92e205c7900e4b0da90993236a2811b27860687ddeef738a6064736f6c63430007060033",
    "libraries": {
        "PoolSwapLibrary": "0xd046bC64854a7aF5bB61C207A9B2636148B04CAf"
    },
    "devdoc": {
        "kind": "dev",
        "methods": {},
        "version": 1
    },
    "userdoc": {
        "kind": "user",
        "methods": {},
        "version": 1
    },
    "storageLayout": {
        "storage": [
            {
                "astId": 8068,
                "contract": "contracts/implementation/PoolFactory.sol:PoolFactory",
                "label": "pairTokenBase",
                "offset": 0,
                "slot": "0",
                "type": "t_contract(PoolToken)9525"
            },
            {
                "astId": 8070,
                "contract": "contracts/implementation/PoolFactory.sol:PoolFactory",
                "label": "poolBase",
                "offset": 0,
                "slot": "1",
                "type": "t_contract(LeveragedPool)8057"
            }
        ],
        "types": {
            "t_contract(LeveragedPool)8057": {
                "encoding": "inplace",
                "label": "contract LeveragedPool",
                "numberOfBytes": "20"
            },
            "t_contract(PoolToken)9525": {
                "encoding": "inplace",
                "label": "contract PoolToken",
                "numberOfBytes": "20"
            }
        }
    }
}