{
    "address": "0x205Bfd2f07d69483a1a1ecC7a2174BBE3356485D",
    "abi": [
        {
            "inputs": [
                {
                    "internalType": "address",
                    "name": "_factory",
                    "type": "address"
                }
            ],
            "stateMutability": "nonpayable",
            "type": "constructor"
        },
        {
            "anonymous": false,
            "inputs": [
                {
                    "indexed": true,
                    "internalType": "address",
                    "name": "_pool",
                    "type": "address"
                },
                {
                    "indexed": true,
                    "internalType": "address",
                    "name": "keeper",
                    "type": "address"
                },
                {
                    "indexed": false,
                    "internalType": "uint256",
                    "name": "reward",
                    "type": "uint256"
                }
            ],
            "name": "KeeperPaid",
            "type": "event"
        },
        {
            "anonymous": false,
            "inputs": [
                {
                    "indexed": true,
                    "internalType": "address",
                    "name": "_pool",
                    "type": "address"
                },
                {
                    "indexed": true,
                    "internalType": "address",
                    "name": "keeper",
                    "type": "address"
                },
                {
                    "indexed": false,
                    "internalType": "uint256",
                    "name": "expectedReward",
                    "type": "uint256"
                }
            ],
            "name": "KeeperPaymentError",
            "type": "event"
        },
        {
            "anonymous": false,
            "inputs": [
                {
                    "indexed": true,
                    "internalType": "address",
                    "name": "previousOwner",
                    "type": "address"
                },
                {
                    "indexed": true,
                    "internalType": "address",
                    "name": "newOwner",
                    "type": "address"
                }
            ],
            "name": "OwnershipTransferred",
            "type": "event"
        },
        {
            "anonymous": false,
            "inputs": [
                {
                    "indexed": true,
                    "internalType": "address",
                    "name": "poolAddress",
                    "type": "address"
                },
                {
                    "indexed": true,
                    "internalType": "int256",
                    "name": "firstPrice",
                    "type": "int256"
                }
            ],
            "name": "PoolAdded",
            "type": "event"
        },
        {
            "anonymous": false,
            "inputs": [
                {
                    "indexed": true,
                    "internalType": "address",
                    "name": "pool",
                    "type": "address"
                },
                {
                    "indexed": false,
                    "internalType": "string",
                    "name": "reason",
                    "type": "string"
                }
            ],
            "name": "PoolUpkeepError",
            "type": "event"
        },
        {
            "inputs": [],
            "name": "BASE_TIP",
            "outputs": [
                {
                    "internalType": "uint256",
                    "name": "",
                    "type": "uint256"
                }
            ],
            "stateMutability": "view",
            "type": "function"
        },
        {
            "inputs": [],
            "name": "BLOCK_TIME",
            "outputs": [
                {
                    "internalType": "uint256",
                    "name": "",
                    "type": "uint256"
                }
            ],
            "stateMutability": "view",
            "type": "function"
        },
        {
            "inputs": [],
            "name": "MAX_DECIMALS",
            "outputs": [
                {
                    "internalType": "uint256",
                    "name": "",
                    "type": "uint256"
                }
            ],
            "stateMutability": "view",
            "type": "function"
        },
        {
            "inputs": [],
            "name": "TIP_DELTA_PER_BLOCK",
            "outputs": [
                {
                    "internalType": "uint256",
                    "name": "",
                    "type": "uint256"
                }
            ],
            "stateMutability": "view",
            "type": "function"
        },
        {
            "inputs": [
                {
                    "internalType": "address[]",
                    "name": "_pools",
                    "type": "address[]"
                }
            ],
            "name": "checkUpkeepMultiplePools",
            "outputs": [
                {
                    "internalType": "bool",
                    "name": "",
                    "type": "bool"
                }
            ],
            "stateMutability": "view",
            "type": "function"
        },
        {
            "inputs": [
                {
                    "internalType": "address",
                    "name": "_pool",
                    "type": "address"
                }
            ],
            "name": "checkUpkeepSinglePool",
            "outputs": [
                {
                    "internalType": "bool",
                    "name": "",
                    "type": "bool"
                }
            ],
            "stateMutability": "view",
            "type": "function"
        },
        {
            "inputs": [
                {
                    "internalType": "address",
                    "name": "",
                    "type": "address"
                }
            ],
            "name": "executionPrice",
            "outputs": [
                {
                    "internalType": "int256",
                    "name": "",
                    "type": "int256"
                }
            ],
            "stateMutability": "view",
            "type": "function"
        },
        {
            "inputs": [],
            "name": "factory",
            "outputs": [
                {
                    "internalType": "contract IPoolFactory",
                    "name": "",
                    "type": "address"
                }
            ],
            "stateMutability": "view",
            "type": "function"
        },
        {
            "inputs": [
                {
                    "internalType": "address",
                    "name": "_pool",
                    "type": "address"
                },
                {
                    "internalType": "uint256",
                    "name": "_gasPrice",
                    "type": "uint256"
                },
                {
                    "internalType": "uint256",
                    "name": "_gasSpent",
                    "type": "uint256"
                }
            ],
            "name": "keeperGas",
            "outputs": [
                {
                    "internalType": "uint256",
                    "name": "",
                    "type": "uint256"
                }
            ],
            "stateMutability": "view",
            "type": "function"
        },
        {
            "inputs": [
                {
                    "internalType": "address",
                    "name": "_pool",
                    "type": "address"
                },
                {
                    "internalType": "uint256",
                    "name": "_gasPrice",
                    "type": "uint256"
                },
                {
                    "internalType": "uint256",
                    "name": "_gasSpent",
                    "type": "uint256"
                },
                {
                    "internalType": "uint256",
                    "name": "_savedPreviousUpdatedTimestamp",
                    "type": "uint256"
                },
                {
                    "internalType": "uint256",
                    "name": "_poolInterval",
                    "type": "uint256"
                }
            ],
            "name": "keeperReward",
            "outputs": [
                {
                    "internalType": "uint256",
                    "name": "",
                    "type": "uint256"
                }
            ],
            "stateMutability": "view",
            "type": "function"
        },
        {
            "inputs": [
                {
                    "internalType": "uint256",
                    "name": "_savedPreviousUpdatedTimestamp",
                    "type": "uint256"
                },
                {
                    "internalType": "uint256",
                    "name": "_poolInterval",
                    "type": "uint256"
                }
            ],
            "name": "keeperTip",
            "outputs": [
                {
                    "internalType": "uint256",
                    "name": "",
                    "type": "uint256"
                }
            ],
            "stateMutability": "view",
            "type": "function"
        },
        {
            "inputs": [
                {
                    "internalType": "address",
                    "name": "_poolAddress",
                    "type": "address"
                }
            ],
            "name": "newPool",
            "outputs": [],
            "stateMutability": "nonpayable",
            "type": "function"
        },
        {
            "inputs": [],
            "name": "owner",
            "outputs": [
                {
                    "internalType": "address",
                    "name": "",
                    "type": "address"
                }
            ],
            "stateMutability": "view",
            "type": "function"
        },
        {
            "inputs": [
                {
                    "internalType": "address[]",
                    "name": "pools",
                    "type": "address[]"
                }
            ],
            "name": "performUpkeepMultiplePools",
            "outputs": [],
            "stateMutability": "nonpayable",
            "type": "function"
        },
        {
            "inputs": [
                {
                    "internalType": "address",
                    "name": "_pool",
                    "type": "address"
                }
            ],
            "name": "performUpkeepSinglePool",
            "outputs": [],
            "stateMutability": "nonpayable",
            "type": "function"
        },
        {
            "inputs": [],
            "name": "renounceOwnership",
            "outputs": [],
            "stateMutability": "nonpayable",
            "type": "function"
        },
        {
            "inputs": [
                {
                    "internalType": "address",
                    "name": "_factory",
                    "type": "address"
                }
            ],
            "name": "setFactory",
            "outputs": [],
            "stateMutability": "nonpayable",
            "type": "function"
        },
        {
            "inputs": [
                {
                    "internalType": "address",
                    "name": "newOwner",
                    "type": "address"
                }
            ],
            "name": "transferOwnership",
            "outputs": [],
            "stateMutability": "nonpayable",
            "type": "function"
        }
    ],
    "transactionHash": "0x14fc4b17a74975424b5e61ea15b4c6e4a9cab3fb05ad032d9820185f076fa469",
    "args": [
        "0x24d73Dd9Aa5ca7C7eA59e5aB3B5f5BA9784733F5"
    ],
    "solcInputHash": "fbe836eae600467d274908d7e5994f61",
    "bytecode": "0x60806040523480156200001157600080fd5b5060405162003828380380620038288339818101604052810190620000379190620001f5565b620000576200004b6200011260201b60201c565b6200011a60201b60201c565b600073ffffffffffffffffffffffffffffffffffffffff168173ffffffffffffffffffffffffffffffffffffffff161415620000ca576040517f08c379a0000000000000000000000000000000000000000000000000000000008152600401620000c1906200024e565b60405180910390fd5b80600260006101000a81548173ffffffffffffffffffffffffffffffffffffffff021916908373ffffffffffffffffffffffffffffffffffffffff16021790555050620002fd565b600033905090565b60008060009054906101000a900473ffffffffffffffffffffffffffffffffffffffff169050816000806101000a81548173ffffffffffffffffffffffffffffffffffffffff021916908373ffffffffffffffffffffffffffffffffffffffff1602179055508173ffffffffffffffffffffffffffffffffffffffff168173ffffffffffffffffffffffffffffffffffffffff167f8be0079c531659141344cd1fd0a4f28419497f9722a3daafe3b4186f6b6457e060405160405180910390a35050565b600081519050620001ef81620002e3565b92915050565b6000602082840312156200020e576200020d620002b5565b5b60006200021e84828501620001de565b91505092915050565b600062000236601b8362000270565b91506200024382620002ba565b602082019050919050565b60006020820190508181036000830152620002698162000227565b9050919050565b600082825260208201905092915050565b60006200028e8262000295565b9050919050565b600073ffffffffffffffffffffffffffffffffffffffff82169050919050565b600080fd5b7f466163746f72792063616e6e6f74206265203020616464726573730000000000600082015250565b620002ee8162000281565b8114620002fa57600080fd5b50565b61351b806200030d6000396000f3fe608060405234801561001057600080fd5b50600436106101165760003560e01c8063aea8acb1116100a2578063cdd9e13711610071578063cdd9e137146102cf578063ce1dcdfc146102ff578063f2fde38b1461032f578063f93019101461034b578063fcab9e981461036957610116565b8063aea8acb114610233578063b3fbb7c414610251578063b9c6536514610281578063c45a0155146102b157610116565b8063715018a6116100e9578063715018a6146101a15780638da5cb5b146101ab57806391a60782146101c95780639f9a3d95146101e5578063a40d6b801461020357610116565b80630417cf8e1461011b578063225739b1146101395780633c5c7fb3146101695780635bb4780814610185575b600080fd5b610123610385565b6040516101309190612f21565b60405180910390f35b610153600480360381019061014e9190612a4f565b61038a565b6040516101609190612e25565b60405180910390f35b610183600480360381019061017e9190612a4f565b6104ca565b005b61019f600480360381019061019a9190612a4f565b61071d565b005b6101a96107dd565b005b6101b3610865565b6040516101c09190612de1565b60405180910390f35b6101e360048036038101906101de9190612a4f565b61088e565b005b6101ed610cd2565b6040516101fa9190612f21565b60405180910390f35b61021d60048036038101906102189190612aa9565b610cd7565b60405161022a9190612f21565b60405180910390f35b61023b610e49565b6040516102489190612f21565b60405180910390f35b61026b60048036038101906102669190612afc565b610e4e565b6040516102789190612f21565b60405180910390f35b61029b60048036038101906102969190612c4b565b611090565b6040516102a89190612f21565b60405180910390f35b6102b96110da565b6040516102c69190612e40565b60405180910390f35b6102e960048036038101906102e49190612a4f565b611100565b6040516102f69190612e5b565b60405180910390f35b61031960048036038101906103149190612b77565b611118565b6040516103269190612e25565b60405180910390f35b61034960048036038101906103449190612a4f565b611189565b005b610353611281565b6040516103609190612f21565b60405180910390f35b610383600480360381019061037e9190612b77565b611286565b005b601281565b6000600260009054906101000a900473ffffffffffffffffffffffffffffffffffffffff1673ffffffffffffffffffffffffffffffffffffffff16635ab78ee1836040518263ffffffff1660e01b81526004016103e79190612de1565b60206040518083038186803b1580156103ff57600080fd5b505afa158015610413573d6000803e3d6000fd5b505050506040513d601f19601f820116820180604052508101906104379190612bc4565b61044457600090506104c5565b8173ffffffffffffffffffffffffffffffffffffffff16637bbf10336040518163ffffffff1660e01b815260040160206040518083038186803b15801561048a57600080fd5b505afa15801561049e573d6000803e3d6000fd5b505050506040513d601f19601f820116820180604052508101906104c29190612bc4565b90505b919050565b600260009054906101000a900473ffffffffffffffffffffffffffffffffffffffff1673ffffffffffffffffffffffffffffffffffffffff163373ffffffffffffffffffffffffffffffffffffffff161461055a576040517f08c379a000000000000000000000000000000000000000000000000000000000815260040161055190612f01565b60405180910390fd5b60008173ffffffffffffffffffffffffffffffffffffffff1663b9ed8abf6040518163ffffffff1660e01b815260040160206040518083038186803b1580156105a257600080fd5b505afa1580156105b6573d6000803e3d6000fd5b505050506040513d601f19601f820116820180604052508101906105da9190612a7c565b905060008173ffffffffffffffffffffffffffffffffffffffff166398d5fdca6040518163ffffffff1660e01b815260040160206040518083038186803b15801561062457600080fd5b505afa158015610638573d6000803e3d6000fd5b505050506040513d601f19601f8201168201806040525081019061065c9190612bf1565b9050600061068d61068861066f846112dc565b6f403abc16d674ec80000000000000000060801b61138a565b61181f565b9050818473ffffffffffffffffffffffffffffffffffffffff167fe950cb32f7a787627d713d7365623fef2d762ef8fcf813b865a04350852deb9b60405160405180910390a380600160008673ffffffffffffffffffffffffffffffffffffffff1673ffffffffffffffffffffffffffffffffffffffff1681526020019081526020016000208190555050505050565b61072561197f565b73ffffffffffffffffffffffffffffffffffffffff16610743610865565b73ffffffffffffffffffffffffffffffffffffffff1614610799576040517f08c379a000000000000000000000000000000000000000000000000000000000815260040161079090612ee1565b60405180910390fd5b80600260006101000a81548173ffffffffffffffffffffffffffffffffffffffff021916908373ffffffffffffffffffffffffffffffffffffffff16021790555050565b6107e561197f565b73ffffffffffffffffffffffffffffffffffffffff16610803610865565b73ffffffffffffffffffffffffffffffffffffffff1614610859576040517f08c379a000000000000000000000000000000000000000000000000000000000815260040161085090612ee1565b60405180910390fd5b6108636000611987565b565b60008060009054906101000a900473ffffffffffffffffffffffffffffffffffffffff16905090565b60005a905061089c8261038a565b6108a65750610ccf565b600082905060008173ffffffffffffffffffffffffffffffffffffffff1663b9ed8abf6040518163ffffffff1660e01b815260040160206040518083038186803b1580156108f357600080fd5b505afa158015610907573d6000803e3d6000fd5b505050506040513d601f19601f8201168201806040525081019061092b9190612a7c565b73ffffffffffffffffffffffffffffffffffffffff166398d5fdca6040518163ffffffff1660e01b815260040160206040518083038186803b15801561097057600080fd5b505afa158015610984573d6000803e3d6000fd5b505050506040513d601f19601f820116820180604052508101906109a89190612bf1565b90506000600160008673ffffffffffffffffffffffffffffffffffffffff1673ffffffffffffffffffffffffffffffffffffffff168152602001908152602001600020549050610a1b610a166109fd846112dc565b6f403abc16d674ec80000000000000000060801b61138a565b61181f565b600160008773ffffffffffffffffffffffffffffffffffffffff1673ffffffffffffffffffffffffffffffffffffffff1681526020019081526020016000208190555060008373ffffffffffffffffffffffffffffffffffffffff16637de93f936040518163ffffffff1660e01b815260040160206040518083038186803b158015610aa657600080fd5b505afa158015610aba573d6000803e3d6000fd5b505050506040513d601f19601f82011682018060405250810190610ade9190612c1e565b905060008473ffffffffffffffffffffffffffffffffffffffff1663fd2c80ae6040518163ffffffff1660e01b815260040160206040518083038186803b158015610b2857600080fd5b505afa158015610b3c573d6000803e3d6000fd5b505050506040513d601f19601f82011682018060405250810190610b609190612c8b565b63ffffffff1690508473ffffffffffffffffffffffffffffffffffffffff1663f633a74084600160008b73ffffffffffffffffffffffffffffffffffffffff1673ffffffffffffffffffffffffffffffffffffffff168152602001908152602001600020546040518363ffffffff1660e01b8152600401610be2929190612e76565b600060405180830381600087803b158015610bfc57600080fd5b505af1925050508015610c0d575060015b610c9e57610c196132cb565b806308c379a01415610c8d5750610c2e6133c5565b80610c395750610c8f565b8773ffffffffffffffffffffffffffffffffffffffff167f8a47468bf96478429d382ed6385d9c77fba8b89540cd88199b1b51d5723b11fa82604051610c7f9190612e9f565b60405180910390a250610c99565b505b3d6000803e3d6000fd5b610cc8565b60005a87610cac919061306c565b905060006402540be4009050610cc58982848787611a4b565b50505b5050505050505b50565b600581565b6000808473ffffffffffffffffffffffffffffffffffffffff16638226f3966040518163ffffffff1660e01b815260040160206040518083038186803b158015610d2057600080fd5b505afa158015610d34573d6000803e3d6000fd5b505050506040513d601f19601f82011682018060405250810190610d589190612a7c565b73ffffffffffffffffffffffffffffffffffffffff166398d5fdca6040518163ffffffff1660e01b815260040160206040518083038186803b158015610d9d57600080fd5b505afa158015610db1573d6000803e3d6000fd5b505050506040513d601f19601f82011682018060405250810190610dd59190612bf1565b905060008113610de9576000915050610e42565b6000610dff8486610dfa9190613012565b611bc6565b90506000610e0c83611bc6565b9050610e3c610e37610e1e848461138a565b6f403abc16d674ec80000000000000000060801b611c44565b61210d565b93505050505b9392505050565b600581565b600080610e5c878787610cd7565b90506000610e8e610e75610e708787611090565b611bc6565b6f403abc16d674ec80000000000000000060801b61138a565b9050610ea381610e9e6064611bc6565b611c44565b90506000610eee610ee9610eb685611bc6565b610ee4610ecb610ec588611bc6565b8761138a565b6f403abc16d674ec80000000000000000060801b611c44565b61220b565b61181f565b905060008973ffffffffffffffffffffffffffffffffffffffff1663217a4b706040518163ffffffff1660e01b815260040160206040518083038186803b158015610f3857600080fd5b505afa158015610f4c573d6000803e3d6000fd5b505050506040513d601f19601f82011682018060405250810190610f709190612a7c565b73ffffffffffffffffffffffffffffffffffffffff1663313ce5676040518163ffffffff1660e01b815260040160206040518083038186803b158015610fb557600080fd5b505afa158015610fc9573d6000803e3d6000fd5b505050506040513d601f19601f82011682018060405250810190610fed9190612cb8565b60ff1690506000733f4a6959e5D34E24a192B8AbF9AA7cc451a1986463bf36f0e984846040518363ffffffff1660e01b815260040161102d929190612f3c565b60206040518083038186803b15801561104557600080fd5b505af4158015611059573d6000803e3d6000fd5b505050506040513d601f19601f8201168201806040525081019061107d9190612c1e565b9050809550505050505095945050505050565b600080600d83856110a19190612f8b565b426110ac919061306c565b6110b69190612fe1565b90508060056110c59190613012565b60056110d19190612f8b565b91505092915050565b600260009054906101000a900473ffffffffffffffffffffffffffffffffffffffff1681565b60016020528060005260406000206000915090505481565b600080600090505b8383905081101561117d5761115b8484838181106111415761114061326d565b5b90506020020160208101906111569190612a4f565b61038a565b1561116a576001915050611183565b808061117590613197565b915050611120565b50600090505b92915050565b61119161197f565b73ffffffffffffffffffffffffffffffffffffffff166111af610865565b73ffffffffffffffffffffffffffffffffffffffff1614611205576040517f08c379a00000000000000000000000000000000000000000000000000000000081526004016111fc90612ee1565b60405180910390fd5b600073ffffffffffffffffffffffffffffffffffffffff168173ffffffffffffffffffffffffffffffffffffffff161415611275576040517f08c379a000000000000000000000000000000000000000000000000000000000815260040161126c90612ec1565b60405180910390fd5b61127e81611987565b50565b600d81565b60005b828290508110156112d7576112c48383838181106112aa576112a961326d565b5b90506020020160208101906112bf9190612a4f565b61088e565b80806112cf90613197565b915050611289565b505050565b6000808214156112f257600060801b9050611385565b60008083136113045782600003611306565b825b9050600061131382612870565b9050607081101561132c578060700382901b9150611340565b607081111561133f576070810382901c91505b5b607081613fff01901b6dffffffffffffffffffffffffffff8316179150600084121561137c576f80000000000000000000000000000000821791505b8160801b925050505b919050565b600080617fff60708560801c6fffffffffffffffffffffffffffffffff16901c166fffffffffffffffffffffffffffffffff1690506000617fff60708560801c6fffffffffffffffffffffffffffffffff16901c166fffffffffffffffffffffffffffffffff169050617fff82141561152157617fff8114156114af57836fffffffffffffffffffffffffffffffff1916856fffffffffffffffffffffffffffffffff19161415611456576f8000000000000000000000000000000060801b8416851892505050611819565b6f8000000000000000000000000000000060801b8486186fffffffffffffffffffffffffffffffff191614156114925783851792505050611819565b6f7fff800000000000000000000000000060801b92505050611819565b600060801b6f7fffffffffffffffffffffffffffffff60801b85166fffffffffffffffffffffffffffffffff19161415611500576f7fff800000000000000000000000000060801b92505050611819565b6f8000000000000000000000000000000060801b8416851892505050611819565b617fff81141561159d57600060801b6f7fffffffffffffffffffffffffffffff60801b86166fffffffffffffffffffffffffffffffff1916141561157c576f7fff800000000000000000000000000060801b92505050611819565b6f8000000000000000000000000000000060801b8516841892505050611819565b60006dffffffffffffffffffffffffffff8660801c166fffffffffffffffffffffffffffffffff16905060008314156115d957600192506115ee565b6e010000000000000000000000000000811790505b60006dffffffffffffffffffffffffffff8660801c166fffffffffffffffffffffffffffffffff169050600083141561162a576001925061163f565b6e010000000000000000000000000000811790505b808202915060008214156116ac57600060801b6f8000000000000000000000000000000060801b878918166fffffffffffffffffffffffffffffffff19161161168c57600060801b6116a1565b6f8000000000000000000000000000000060801b5b945050505050611819565b828401935060007c0200000000000000000000000000000000000000000000000000000000831015611713577c010000000000000000000000000000000000000000000000000000000083101561170b5761170683612870565b61170e565b60e05b611716565b60e15b905061407081860110156117315760009450600092506117d9565b6140e081860110156117755761407085101561175657846140700383901c925061176c565b61407085111561176b57614070850383901b92505b5b600094506117d8565b61c0dd818601111561178f57617fff9450600092506117d7565b60708111156117a6576070810383901c92506117ba565b60708110156117b9578060700383901b92505b5b6dffffffffffffffffffffffffffff831692506140df8186010394505b5b5b82607086901b6f8000000000000000000000000000000060801b898b181660801c6fffffffffffffffffffffffffffffffff16171760801b955050505050505b92915050565b600080617fff60708460801c6fffffffffffffffffffffffffffffffff16901c166fffffffffffffffffffffffffffffffff1690506140fe81111561186357600080fd5b613fff81101561187757600091505061197a565b60006e0100000000000000000000000000006dffffffffffffffffffffffffffff8560801c6fffffffffffffffffffffffffffffffff161617905061406f8210156118cb578161406f0381901c90506118e1565b61406f8211156118e05761406f820381901b90505b5b6f800000000000000000000000000000008460801c6fffffffffffffffffffffffffffffffff1610611947577f800000000000000000000000000000000000000000000000000000000000000081111561193a57600080fd5b806000039250505061197a565b7f7fffffffffffffffffffffffffffffffffffffffffffffffffffffffffffffff81111561197457600080fd5b80925050505b919050565b600033905090565b60008060009054906101000a900473ffffffffffffffffffffffffffffffffffffffff169050816000806101000a81548173ffffffffffffffffffffffffffffffffffffffff021916908373ffffffffffffffffffffffffffffffffffffffff1602179055508173ffffffffffffffffffffffffffffffffffffffff168173ffffffffffffffffffffffffffffffffffffffff167f8be0079c531659141344cd1fd0a4f28419497f9722a3daafe3b4186f6b6457e060405160405180910390a35050565b6000611a5a8686868686610e4e565b90508573ffffffffffffffffffffffffffffffffffffffff16636dc2b27133836040518363ffffffff1660e01b8152600401611a97929190612dfc565b602060405180830381600087803b158015611ab157600080fd5b505af1158015611ac5573d6000803e3d6000fd5b505050506040513d601f19601f82011682018060405250810190611ae99190612bc4565b15611b58573373ffffffffffffffffffffffffffffffffffffffff168673ffffffffffffffffffffffffffffffffffffffff167ff03012dd4aab142682aa01439f94e975e2ec77ef558352323bc05f382f74b08283604051611b4b9190612f21565b60405180910390a3611bbe565b3373ffffffffffffffffffffffffffffffffffffffff168673ffffffffffffffffffffffffffffffffffffffff167f08b35d4c86707ba44cdcc5efaa79b8a307e6c7f789f1eb86ca1ff1e9bde0569783604051611bb59190612f21565b60405180910390a35b505050505050565b600080821415611bdc57600060801b9050611c3f565b60008290506000611bec82612870565b90506070811015611c05578060700382901b9150611c19565b6070811115611c18576070810382901c91505b5b607081613fff01901b6dffffffffffffffffffffffffffff83161791508160801b925050505b919050565b600080617fff60708560801c6fffffffffffffffffffffffffffffffff16901c166fffffffffffffffffffffffffffffffff1690506000617fff60708560801c6fffffffffffffffffffffffffffffffff16901c166fffffffffffffffffffffffffffffffff169050617fff821415611cff57617fff811415611cde576f7fff800000000000000000000000000060801b92505050612107565b6f8000000000000000000000000000000060801b8416851892505050612107565b617fff811415611d7e57600060801b6dffffffffffffffffffffffffffff60801b85166fffffffffffffffffffffffffffffffff191614611d57576f7fff800000000000000000000000000060801b92505050612107565b6f8000000000000000000000000000000060801b84861816600060801b1792505050612107565b600060801b6f7fffffffffffffffffffffffffffffff60801b85166fffffffffffffffffffffffffffffffff19161415611e3957600060801b6f7fffffffffffffffffffffffffffffff60801b86166fffffffffffffffffffffffffffffffff19161415611e03576f7fff800000000000000000000000000060801b92505050612107565b6f8000000000000000000000000000000060801b848618166f7fff000000000000000000000000000060801b1792505050612107565b60006dffffffffffffffffffffffffffff8560801c166fffffffffffffffffffffffffffffffff1690506000821415611e755760019150611e8a565b6e010000000000000000000000000000811790505b60006dffffffffffffffffffffffffffff8760801c166fffffffffffffffffffffffffffffffff1690506000841415611eee5760008114611ee9576000611ed082612870565b60e20390508082901b9150600194506072810384019350505b611f07565b60726e0100000000000000000000000000008217901b90505b818181611f1757611f1661323e565b5b0490506000811415611f8257600060801b6f8000000000000000000000000000000060801b878918166fffffffffffffffffffffffffffffffff191611611f6257600060801b611f77565b6f8000000000000000000000000000000060801b5b945050505050612107565b6d1000000000000000000000000000811015611fa157611fa06131e0565b5b60006e080000000000000000000000000000821015612002576e040000000000000000000000000000821015611ff7576e020000000000000000000000000000821015611fef576070611ff2565b60715b611ffa565b60725b60ff1661200c565b61200b82612870565b5b90506140718401818601111561202a57617fff9450600091506120c7565b83613ffc8287010110156120455760009450600091506120c6565b83613f8c8287010110156120935783613ffc860111156120705783613ffc86010382901b915061208a565b83613ffc8601101561208957613ffc8585030382901c91505b5b600094506120c5565b60708111156120a6576070810382901c91505b6dffffffffffffffffffffffffffff8216915083613f8d828701010394505b5b5b81607086901b6f8000000000000000000000000000000060801b898b181660801c6fffffffffffffffffffffffffffffffff16171760801b955050505050505b92915050565b600080617fff60708460801c6fffffffffffffffffffffffffffffffff16901c166fffffffffffffffffffffffffffffffff169050613fff811015612156576000915050612206565b6f800000000000000000000000000000008360801c6fffffffffffffffffffffffffffffffff161061218757600080fd5b6140fe81111561219657600080fd5b60006e0100000000000000000000000000006dffffffffffffffffffffffffffff8560801c6fffffffffffffffffffffffffffffffff161617905061406f8210156121ea578161406f0381901c9050612200565b61406f8211156121ff5761406f820381901b90505b5b80925050505b919050565b600080617fff60708560801c6fffffffffffffffffffffffffffffffff16901c166fffffffffffffffffffffffffffffffff1690506000617fff60708560801c6fffffffffffffffffffffffffffffffff16901c166fffffffffffffffffffffffffffffffff169050617fff8214156122e757617fff8114156122dd57836fffffffffffffffffffffffffffffffff1916856fffffffffffffffffffffffffffffffff191614156122c057849250505061286a565b6f7fff800000000000000000000000000060801b9250505061286a565b849250505061286a565b617fff8114156122fb57839250505061286a565b60006f800000000000000000000000000000008660801c6fffffffffffffffffffffffffffffffff161015905060006dffffffffffffffffffffffffffff8760801c166fffffffffffffffffffffffffffffffff16905060008414156123645760019350612379565b6e010000000000000000000000000000811790505b60006f800000000000000000000000000000008760801c6fffffffffffffffffffffffffffffffff161015905060006dffffffffffffffffffffffffffff8860801c166fffffffffffffffffffffffffffffffff16905060008514156123e257600194506123f7565b6e010000000000000000000000000000811790505b6000831415612459576f8000000000000000000000000000000060801b6fffffffffffffffffffffffffffffffff1916886fffffffffffffffffffffffffffffffff191614612446578761244c565b600060801b5b965050505050505061286a565b60008114156124bb576f8000000000000000000000000000000060801b6fffffffffffffffffffffffffffffffff1916896fffffffffffffffffffffffffffffffff1916146124a857886124ae565b600060801b5b965050505050505061286a565b6000858703905082151585151514156126395760708113156124e6578997505050505050505061286a565b60008113156124fa578082901c9150612548565b7fffffffffffffffffffffffffffffffffffffffffffffffffffffffffffffff90811215612531578897505050505050505061286a565b6000811215612547578060000384901c93508596505b5b81840193506e020000000000000000000000000000841061257157600184901c93506001870196505b617fff8714156125bc5784612599576f7fff000000000000000000000000000060801b6125ae565b6fffff000000000000000000000000000060801b5b97505050505050505061286a565b6e0100000000000000000000000000008410156125dc57600096506125f0565b6dffffffffffffffffffffffffffff841693505b83607088901b86612602576000612614565b6f800000000000000000000000000000005b6fffffffffffffffffffffffffffffffff16171760801b97505050505050505061286a565b600081131561265457600184901b935060018703965061266c565b600081121561266b57600182901b91506001860396505b5b607081131561267e5760019150612708565b600181131561269a57600180820360018403901c019150612707565b7fffffffffffffffffffffffffffffffffffffffffffffffffffffffffffffff908112156126cb5760019350612706565b7fffffffffffffffffffffffffffffffffffffffffffffffffffffffffffffffff81121561270557600180826000030360018603901c0193505b5b5b5b818410612719578184039350612722565b83820393508294505b600084141561273e57600060801b97505050505050505061286a565b600061274985612870565b90506071811415612776576dffffffffffffffffffffffffffff600186901c1694506001880197506127d8565b60708110156127c3576000816070039050808911156127af576dffffffffffffffffffffffffffff8187901b16955080890398506127bd565b6001890386901b9550600098505b506127d7565b6dffffffffffffffffffffffffffff851694505b5b617fff8814156128245785612800576f7fff000000000000000000000000000060801b612815565b6fffff000000000000000000000000000060801b5b9850505050505050505061286a565b84607089901b87612836576000612848565b6f800000000000000000000000000000005b6fffffffffffffffffffffffffffffffff16171760801b985050505050505050505b92915050565b600080821161287e57600080fd5b600070010000000000000000000000000000000083106128a657608083901c92506080810190505b6801000000000000000083106128c457604083901c92506040810190505b64010000000083106128de57602083901c92506020810190505b6201000083106128f657601083901c92506010810190505b610100831061290d57600883901c92506008810190505b6010831061292357600483901c92506004810190505b6004831061293957600283901c92506002810190505b60028310612948576001810190505b80915050919050565b6000813590506129608161345b565b92915050565b6000815190506129758161345b565b92915050565b60008083601f840112612991576129906132f2565b5b8235905067ffffffffffffffff8111156129ae576129ad6132ed565b5b6020830191508360208202830111156129ca576129c96132f7565b5b9250929050565b6000815190506129e081613472565b92915050565b6000815190506129f581613489565b92915050565b600081359050612a0a816134a0565b92915050565b600081519050612a1f816134a0565b92915050565b600081519050612a34816134b7565b92915050565b600081519050612a49816134ce565b92915050565b600060208284031215612a6557612a64613301565b5b6000612a7384828501612951565b91505092915050565b600060208284031215612a9257612a91613301565b5b6000612aa084828501612966565b91505092915050565b600080600060608486031215612ac257612ac1613301565b5b6000612ad086828701612951565b9350506020612ae1868287016129fb565b9250506040612af2868287016129fb565b9150509250925092565b600080600080600060a08688031215612b1857612b17613301565b5b6000612b2688828901612951565b9550506020612b37888289016129fb565b9450506040612b48888289016129fb565b9350506060612b59888289016129fb565b9250506080612b6a888289016129fb565b9150509295509295909350565b60008060208385031215612b8e57612b8d613301565b5b600083013567ffffffffffffffff811115612bac57612bab6132fc565b5b612bb88582860161297b565b92509250509250929050565b600060208284031215612bda57612bd9613301565b5b6000612be8848285016129d1565b91505092915050565b600060208284031215612c0757612c06613301565b5b6000612c15848285016129e6565b91505092915050565b600060208284031215612c3457612c33613301565b5b6000612c4284828501612a10565b91505092915050565b60008060408385031215612c6257612c61613301565b5b6000612c70858286016129fb565b9250506020612c81858286016129fb565b9150509250929050565b600060208284031215612ca157612ca0613301565b5b6000612caf84828501612a25565b91505092915050565b600060208284031215612cce57612ccd613301565b5b6000612cdc84828501612a3a565b91505092915050565b612cee816130a0565b82525050565b612cfd816130b2565b82525050565b612d0c8161310f565b82525050565b612d1b816130be565b82525050565b6000612d2c82612f6f565b612d368185612f7a565b9350612d46818560208601613133565b612d4f81613306565b840191505092915050565b6000612d67602683612f7a565b9150612d7282613324565b604082019050919050565b6000612d8a602083612f7a565b9150612d9582613373565b602082019050919050565b6000612dad601283612f7a565b9150612db88261339c565b602082019050919050565b612dcc816130e8565b82525050565b612ddb816130e8565b82525050565b6000602082019050612df66000830184612ce5565b92915050565b6000604082019050612e116000830185612ce5565b612e1e6020830184612dc3565b9392505050565b6000602082019050612e3a6000830184612cf4565b92915050565b6000602082019050612e556000830184612d03565b92915050565b6000602082019050612e706000830184612d12565b92915050565b6000604082019050612e8b6000830185612d12565b612e986020830184612d12565b9392505050565b60006020820190508181036000830152612eb98184612d21565b905092915050565b60006020820190508181036000830152612eda81612d5a565b9050919050565b60006020820190508181036000830152612efa81612d7d565b9050919050565b60006020820190508181036000830152612f1a81612da0565b9050919050565b6000602082019050612f366000830184612dc3565b92915050565b6000604082019050612f516000830185612dd2565b612f5e6020830184612dd2565b9392505050565b6000604051905090565b600081519050919050565b600082825260208201905092915050565b6000612f96826130e8565b9150612fa1836130e8565b9250827fffffffffffffffffffffffffffffffffffffffffffffffffffffffffffffffff03821115612fd657612fd561320f565b5b828201905092915050565b6000612fec826130e8565b9150612ff7836130e8565b9250826130075761300661323e565b5b828204905092915050565b600061301d826130e8565b9150613028836130e8565b9250817fffffffffffffffffffffffffffffffffffffffffffffffffffffffffffffffff04831182151516156130615761306061320f565b5b828202905092915050565b6000613077826130e8565b9150613082836130e8565b9250828210156130955761309461320f565b5b828203905092915050565b60006130ab826130c8565b9050919050565b60008115159050919050565b6000819050919050565b600073ffffffffffffffffffffffffffffffffffffffff82169050919050565b6000819050919050565b600063ffffffff82169050919050565b600060ff82169050919050565b600061311a82613121565b9050919050565b600061312c826130c8565b9050919050565b60005b83811015613151578082015181840152602081019050613136565b83811115613160576000848401525b50505050565b61316f82613306565b810181811067ffffffffffffffff8211171561318e5761318d61329c565b5b80604052505050565b60006131a2826130e8565b91507fffffffffffffffffffffffffffffffffffffffffffffffffffffffffffffffff8214156131d5576131d461320f565b5b600182019050919050565b7f4e487b7100000000000000000000000000000000000000000000000000000000600052600160045260246000fd5b7f4e487b7100000000000000000000000000000000000000000000000000000000600052601160045260246000fd5b7f4e487b7100000000000000000000000000000000000000000000000000000000600052601260045260246000fd5b7f4e487b7100000000000000000000000000000000000000000000000000000000600052603260045260246000fd5b7f4e487b7100000000000000000000000000000000000000000000000000000000600052604160045260246000fd5b600060033d11156132ea5760046000803e6132e7600051613317565b90505b90565b600080fd5b600080fd5b600080fd5b600080fd5b600080fd5b6000601f19601f8301169050919050565b60008160e01c9050919050565b7f4f776e61626c653a206e6577206f776e657220697320746865207a65726f206160008201527f6464726573730000000000000000000000000000000000000000000000000000602082015250565b7f4f776e61626c653a2063616c6c6572206973206e6f7420746865206f776e6572600082015250565b7f43616c6c6572206e6f7420666163746f72790000000000000000000000000000600082015250565b600060443d10156133d557613458565b6133dd612f65565b60043d036004823e80513d602482011167ffffffffffffffff82111715613405575050613458565b808201805167ffffffffffffffff8111156134235750505050613458565b80602083010160043d038501811115613440575050505050613458565b61344f82602001850186613166565b82955050505050505b90565b613464816130a0565b811461346f57600080fd5b50565b61347b816130b2565b811461348657600080fd5b50565b613492816130be565b811461349d57600080fd5b50565b6134a9816130e8565b81146134b457600080fd5b50565b6134c0816130f2565b81146134cb57600080fd5b50565b6134d781613102565b81146134e257600080fd5b5056fea2646970667358221220cd1d1892c23aba169f2ce9ec0b60540260ee9095770d13be4b33462ff7dbc7b064736f6c63430008060033",
    "deployedBytecode": "0x608060405234801561001057600080fd5b50600436106101165760003560e01c8063aea8acb1116100a2578063cdd9e13711610071578063cdd9e137146102cf578063ce1dcdfc146102ff578063f2fde38b1461032f578063f93019101461034b578063fcab9e981461036957610116565b8063aea8acb114610233578063b3fbb7c414610251578063b9c6536514610281578063c45a0155146102b157610116565b8063715018a6116100e9578063715018a6146101a15780638da5cb5b146101ab57806391a60782146101c95780639f9a3d95146101e5578063a40d6b801461020357610116565b80630417cf8e1461011b578063225739b1146101395780633c5c7fb3146101695780635bb4780814610185575b600080fd5b610123610385565b6040516101309190612f21565b60405180910390f35b610153600480360381019061014e9190612a4f565b61038a565b6040516101609190612e25565b60405180910390f35b610183600480360381019061017e9190612a4f565b6104ca565b005b61019f600480360381019061019a9190612a4f565b61071d565b005b6101a96107dd565b005b6101b3610865565b6040516101c09190612de1565b60405180910390f35b6101e360048036038101906101de9190612a4f565b61088e565b005b6101ed610cd2565b6040516101fa9190612f21565b60405180910390f35b61021d60048036038101906102189190612aa9565b610cd7565b60405161022a9190612f21565b60405180910390f35b61023b610e49565b6040516102489190612f21565b60405180910390f35b61026b60048036038101906102669190612afc565b610e4e565b6040516102789190612f21565b60405180910390f35b61029b60048036038101906102969190612c4b565b611090565b6040516102a89190612f21565b60405180910390f35b6102b96110da565b6040516102c69190612e40565b60405180910390f35b6102e960048036038101906102e49190612a4f565b611100565b6040516102f69190612e5b565b60405180910390f35b61031960048036038101906103149190612b77565b611118565b6040516103269190612e25565b60405180910390f35b61034960048036038101906103449190612a4f565b611189565b005b610353611281565b6040516103609190612f21565b60405180910390f35b610383600480360381019061037e9190612b77565b611286565b005b601281565b6000600260009054906101000a900473ffffffffffffffffffffffffffffffffffffffff1673ffffffffffffffffffffffffffffffffffffffff16635ab78ee1836040518263ffffffff1660e01b81526004016103e79190612de1565b60206040518083038186803b1580156103ff57600080fd5b505afa158015610413573d6000803e3d6000fd5b505050506040513d601f19601f820116820180604052508101906104379190612bc4565b61044457600090506104c5565b8173ffffffffffffffffffffffffffffffffffffffff16637bbf10336040518163ffffffff1660e01b815260040160206040518083038186803b15801561048a57600080fd5b505afa15801561049e573d6000803e3d6000fd5b505050506040513d601f19601f820116820180604052508101906104c29190612bc4565b90505b919050565b600260009054906101000a900473ffffffffffffffffffffffffffffffffffffffff1673ffffffffffffffffffffffffffffffffffffffff163373ffffffffffffffffffffffffffffffffffffffff161461055a576040517f08c379a000000000000000000000000000000000000000000000000000000000815260040161055190612f01565b60405180910390fd5b60008173ffffffffffffffffffffffffffffffffffffffff1663b9ed8abf6040518163ffffffff1660e01b815260040160206040518083038186803b1580156105a257600080fd5b505afa1580156105b6573d6000803e3d6000fd5b505050506040513d601f19601f820116820180604052508101906105da9190612a7c565b905060008173ffffffffffffffffffffffffffffffffffffffff166398d5fdca6040518163ffffffff1660e01b815260040160206040518083038186803b15801561062457600080fd5b505afa158015610638573d6000803e3d6000fd5b505050506040513d601f19601f8201168201806040525081019061065c9190612bf1565b9050600061068d61068861066f846112dc565b6f403abc16d674ec80000000000000000060801b61138a565b61181f565b9050818473ffffffffffffffffffffffffffffffffffffffff167fe950cb32f7a787627d713d7365623fef2d762ef8fcf813b865a04350852deb9b60405160405180910390a380600160008673ffffffffffffffffffffffffffffffffffffffff1673ffffffffffffffffffffffffffffffffffffffff1681526020019081526020016000208190555050505050565b61072561197f565b73ffffffffffffffffffffffffffffffffffffffff16610743610865565b73ffffffffffffffffffffffffffffffffffffffff1614610799576040517f08c379a000000000000000000000000000000000000000000000000000000000815260040161079090612ee1565b60405180910390fd5b80600260006101000a81548173ffffffffffffffffffffffffffffffffffffffff021916908373ffffffffffffffffffffffffffffffffffffffff16021790555050565b6107e561197f565b73ffffffffffffffffffffffffffffffffffffffff16610803610865565b73ffffffffffffffffffffffffffffffffffffffff1614610859576040517f08c379a000000000000000000000000000000000000000000000000000000000815260040161085090612ee1565b60405180910390fd5b6108636000611987565b565b60008060009054906101000a900473ffffffffffffffffffffffffffffffffffffffff16905090565b60005a905061089c8261038a565b6108a65750610ccf565b600082905060008173ffffffffffffffffffffffffffffffffffffffff1663b9ed8abf6040518163ffffffff1660e01b815260040160206040518083038186803b1580156108f357600080fd5b505afa158015610907573d6000803e3d6000fd5b505050506040513d601f19601f8201168201806040525081019061092b9190612a7c565b73ffffffffffffffffffffffffffffffffffffffff166398d5fdca6040518163ffffffff1660e01b815260040160206040518083038186803b15801561097057600080fd5b505afa158015610984573d6000803e3d6000fd5b505050506040513d601f19601f820116820180604052508101906109a89190612bf1565b90506000600160008673ffffffffffffffffffffffffffffffffffffffff1673ffffffffffffffffffffffffffffffffffffffff168152602001908152602001600020549050610a1b610a166109fd846112dc565b6f403abc16d674ec80000000000000000060801b61138a565b61181f565b600160008773ffffffffffffffffffffffffffffffffffffffff1673ffffffffffffffffffffffffffffffffffffffff1681526020019081526020016000208190555060008373ffffffffffffffffffffffffffffffffffffffff16637de93f936040518163ffffffff1660e01b815260040160206040518083038186803b158015610aa657600080fd5b505afa158015610aba573d6000803e3d6000fd5b505050506040513d601f19601f82011682018060405250810190610ade9190612c1e565b905060008473ffffffffffffffffffffffffffffffffffffffff1663fd2c80ae6040518163ffffffff1660e01b815260040160206040518083038186803b158015610b2857600080fd5b505afa158015610b3c573d6000803e3d6000fd5b505050506040513d601f19601f82011682018060405250810190610b609190612c8b565b63ffffffff1690508473ffffffffffffffffffffffffffffffffffffffff1663f633a74084600160008b73ffffffffffffffffffffffffffffffffffffffff1673ffffffffffffffffffffffffffffffffffffffff168152602001908152602001600020546040518363ffffffff1660e01b8152600401610be2929190612e76565b600060405180830381600087803b158015610bfc57600080fd5b505af1925050508015610c0d575060015b610c9e57610c196132cb565b806308c379a01415610c8d5750610c2e6133c5565b80610c395750610c8f565b8773ffffffffffffffffffffffffffffffffffffffff167f8a47468bf96478429d382ed6385d9c77fba8b89540cd88199b1b51d5723b11fa82604051610c7f9190612e9f565b60405180910390a250610c99565b505b3d6000803e3d6000fd5b610cc8565b60005a87610cac919061306c565b905060006402540be4009050610cc58982848787611a4b565b50505b5050505050505b50565b600581565b6000808473ffffffffffffffffffffffffffffffffffffffff16638226f3966040518163ffffffff1660e01b815260040160206040518083038186803b158015610d2057600080fd5b505afa158015610d34573d6000803e3d6000fd5b505050506040513d601f19601f82011682018060405250810190610d589190612a7c565b73ffffffffffffffffffffffffffffffffffffffff166398d5fdca6040518163ffffffff1660e01b815260040160206040518083038186803b158015610d9d57600080fd5b505afa158015610db1573d6000803e3d6000fd5b505050506040513d601f19601f82011682018060405250810190610dd59190612bf1565b905060008113610de9576000915050610e42565b6000610dff8486610dfa9190613012565b611bc6565b90506000610e0c83611bc6565b9050610e3c610e37610e1e848461138a565b6f403abc16d674ec80000000000000000060801b611c44565b61210d565b93505050505b9392505050565b600581565b600080610e5c878787610cd7565b90506000610e8e610e75610e708787611090565b611bc6565b6f403abc16d674ec80000000000000000060801b61138a565b9050610ea381610e9e6064611bc6565b611c44565b90506000610eee610ee9610eb685611bc6565b610ee4610ecb610ec588611bc6565b8761138a565b6f403abc16d674ec80000000000000000060801b611c44565b61220b565b61181f565b905060008973ffffffffffffffffffffffffffffffffffffffff1663217a4b706040518163ffffffff1660e01b815260040160206040518083038186803b158015610f3857600080fd5b505afa158015610f4c573d6000803e3d6000fd5b505050506040513d601f19601f82011682018060405250810190610f709190612a7c565b73ffffffffffffffffffffffffffffffffffffffff1663313ce5676040518163ffffffff1660e01b815260040160206040518083038186803b158015610fb557600080fd5b505afa158015610fc9573d6000803e3d6000fd5b505050506040513d601f19601f82011682018060405250810190610fed9190612cb8565b60ff169050600073__$dc3b4b0a367edd91a2d74c73e2da54c142$__63bf36f0e984846040518363ffffffff1660e01b815260040161102d929190612f3c565b60206040518083038186803b15801561104557600080fd5b505af4158015611059573d6000803e3d6000fd5b505050506040513d601f19601f8201168201806040525081019061107d9190612c1e565b9050809550505050505095945050505050565b600080600d83856110a19190612f8b565b426110ac919061306c565b6110b69190612fe1565b90508060056110c59190613012565b60056110d19190612f8b565b91505092915050565b600260009054906101000a900473ffffffffffffffffffffffffffffffffffffffff1681565b60016020528060005260406000206000915090505481565b600080600090505b8383905081101561117d5761115b8484838181106111415761114061326d565b5b90506020020160208101906111569190612a4f565b61038a565b1561116a576001915050611183565b808061117590613197565b915050611120565b50600090505b92915050565b61119161197f565b73ffffffffffffffffffffffffffffffffffffffff166111af610865565b73ffffffffffffffffffffffffffffffffffffffff1614611205576040517f08c379a00000000000000000000000000000000000000000000000000000000081526004016111fc90612ee1565b60405180910390fd5b600073ffffffffffffffffffffffffffffffffffffffff168173ffffffffffffffffffffffffffffffffffffffff161415611275576040517f08c379a000000000000000000000000000000000000000000000000000000000815260040161126c90612ec1565b60405180910390fd5b61127e81611987565b50565b600d81565b60005b828290508110156112d7576112c48383838181106112aa576112a961326d565b5b90506020020160208101906112bf9190612a4f565b61088e565b80806112cf90613197565b915050611289565b505050565b6000808214156112f257600060801b9050611385565b60008083136113045782600003611306565b825b9050600061131382612870565b9050607081101561132c578060700382901b9150611340565b607081111561133f576070810382901c91505b5b607081613fff01901b6dffffffffffffffffffffffffffff8316179150600084121561137c576f80000000000000000000000000000000821791505b8160801b925050505b919050565b600080617fff60708560801c6fffffffffffffffffffffffffffffffff16901c166fffffffffffffffffffffffffffffffff1690506000617fff60708560801c6fffffffffffffffffffffffffffffffff16901c166fffffffffffffffffffffffffffffffff169050617fff82141561152157617fff8114156114af57836fffffffffffffffffffffffffffffffff1916856fffffffffffffffffffffffffffffffff19161415611456576f8000000000000000000000000000000060801b8416851892505050611819565b6f8000000000000000000000000000000060801b8486186fffffffffffffffffffffffffffffffff191614156114925783851792505050611819565b6f7fff800000000000000000000000000060801b92505050611819565b600060801b6f7fffffffffffffffffffffffffffffff60801b85166fffffffffffffffffffffffffffffffff19161415611500576f7fff800000000000000000000000000060801b92505050611819565b6f8000000000000000000000000000000060801b8416851892505050611819565b617fff81141561159d57600060801b6f7fffffffffffffffffffffffffffffff60801b86166fffffffffffffffffffffffffffffffff1916141561157c576f7fff800000000000000000000000000060801b92505050611819565b6f8000000000000000000000000000000060801b8516841892505050611819565b60006dffffffffffffffffffffffffffff8660801c166fffffffffffffffffffffffffffffffff16905060008314156115d957600192506115ee565b6e010000000000000000000000000000811790505b60006dffffffffffffffffffffffffffff8660801c166fffffffffffffffffffffffffffffffff169050600083141561162a576001925061163f565b6e010000000000000000000000000000811790505b808202915060008214156116ac57600060801b6f8000000000000000000000000000000060801b878918166fffffffffffffffffffffffffffffffff19161161168c57600060801b6116a1565b6f8000000000000000000000000000000060801b5b945050505050611819565b828401935060007c0200000000000000000000000000000000000000000000000000000000831015611713577c010000000000000000000000000000000000000000000000000000000083101561170b5761170683612870565b61170e565b60e05b611716565b60e15b905061407081860110156117315760009450600092506117d9565b6140e081860110156117755761407085101561175657846140700383901c925061176c565b61407085111561176b57614070850383901b92505b5b600094506117d8565b61c0dd818601111561178f57617fff9450600092506117d7565b60708111156117a6576070810383901c92506117ba565b60708110156117b9578060700383901b92505b5b6dffffffffffffffffffffffffffff831692506140df8186010394505b5b5b82607086901b6f8000000000000000000000000000000060801b898b181660801c6fffffffffffffffffffffffffffffffff16171760801b955050505050505b92915050565b600080617fff60708460801c6fffffffffffffffffffffffffffffffff16901c166fffffffffffffffffffffffffffffffff1690506140fe81111561186357600080fd5b613fff81101561187757600091505061197a565b60006e0100000000000000000000000000006dffffffffffffffffffffffffffff8560801c6fffffffffffffffffffffffffffffffff161617905061406f8210156118cb578161406f0381901c90506118e1565b61406f8211156118e05761406f820381901b90505b5b6f800000000000000000000000000000008460801c6fffffffffffffffffffffffffffffffff1610611947577f800000000000000000000000000000000000000000000000000000000000000081111561193a57600080fd5b806000039250505061197a565b7f7fffffffffffffffffffffffffffffffffffffffffffffffffffffffffffffff81111561197457600080fd5b80925050505b919050565b600033905090565b60008060009054906101000a900473ffffffffffffffffffffffffffffffffffffffff169050816000806101000a81548173ffffffffffffffffffffffffffffffffffffffff021916908373ffffffffffffffffffffffffffffffffffffffff1602179055508173ffffffffffffffffffffffffffffffffffffffff168173ffffffffffffffffffffffffffffffffffffffff167f8be0079c531659141344cd1fd0a4f28419497f9722a3daafe3b4186f6b6457e060405160405180910390a35050565b6000611a5a8686868686610e4e565b90508573ffffffffffffffffffffffffffffffffffffffff16636dc2b27133836040518363ffffffff1660e01b8152600401611a97929190612dfc565b602060405180830381600087803b158015611ab157600080fd5b505af1158015611ac5573d6000803e3d6000fd5b505050506040513d601f19601f82011682018060405250810190611ae99190612bc4565b15611b58573373ffffffffffffffffffffffffffffffffffffffff168673ffffffffffffffffffffffffffffffffffffffff167ff03012dd4aab142682aa01439f94e975e2ec77ef558352323bc05f382f74b08283604051611b4b9190612f21565b60405180910390a3611bbe565b3373ffffffffffffffffffffffffffffffffffffffff168673ffffffffffffffffffffffffffffffffffffffff167f08b35d4c86707ba44cdcc5efaa79b8a307e6c7f789f1eb86ca1ff1e9bde0569783604051611bb59190612f21565b60405180910390a35b505050505050565b600080821415611bdc57600060801b9050611c3f565b60008290506000611bec82612870565b90506070811015611c05578060700382901b9150611c19565b6070811115611c18576070810382901c91505b5b607081613fff01901b6dffffffffffffffffffffffffffff83161791508160801b925050505b919050565b600080617fff60708560801c6fffffffffffffffffffffffffffffffff16901c166fffffffffffffffffffffffffffffffff1690506000617fff60708560801c6fffffffffffffffffffffffffffffffff16901c166fffffffffffffffffffffffffffffffff169050617fff821415611cff57617fff811415611cde576f7fff800000000000000000000000000060801b92505050612107565b6f8000000000000000000000000000000060801b8416851892505050612107565b617fff811415611d7e57600060801b6dffffffffffffffffffffffffffff60801b85166fffffffffffffffffffffffffffffffff191614611d57576f7fff800000000000000000000000000060801b92505050612107565b6f8000000000000000000000000000000060801b84861816600060801b1792505050612107565b600060801b6f7fffffffffffffffffffffffffffffff60801b85166fffffffffffffffffffffffffffffffff19161415611e3957600060801b6f7fffffffffffffffffffffffffffffff60801b86166fffffffffffffffffffffffffffffffff19161415611e03576f7fff800000000000000000000000000060801b92505050612107565b6f8000000000000000000000000000000060801b848618166f7fff000000000000000000000000000060801b1792505050612107565b60006dffffffffffffffffffffffffffff8560801c166fffffffffffffffffffffffffffffffff1690506000821415611e755760019150611e8a565b6e010000000000000000000000000000811790505b60006dffffffffffffffffffffffffffff8760801c166fffffffffffffffffffffffffffffffff1690506000841415611eee5760008114611ee9576000611ed082612870565b60e20390508082901b9150600194506072810384019350505b611f07565b60726e0100000000000000000000000000008217901b90505b818181611f1757611f1661323e565b5b0490506000811415611f8257600060801b6f8000000000000000000000000000000060801b878918166fffffffffffffffffffffffffffffffff191611611f6257600060801b611f77565b6f8000000000000000000000000000000060801b5b945050505050612107565b6d1000000000000000000000000000811015611fa157611fa06131e0565b5b60006e080000000000000000000000000000821015612002576e040000000000000000000000000000821015611ff7576e020000000000000000000000000000821015611fef576070611ff2565b60715b611ffa565b60725b60ff1661200c565b61200b82612870565b5b90506140718401818601111561202a57617fff9450600091506120c7565b83613ffc8287010110156120455760009450600091506120c6565b83613f8c8287010110156120935783613ffc860111156120705783613ffc86010382901b915061208a565b83613ffc8601101561208957613ffc8585030382901c91505b5b600094506120c5565b60708111156120a6576070810382901c91505b6dffffffffffffffffffffffffffff8216915083613f8d828701010394505b5b5b81607086901b6f8000000000000000000000000000000060801b898b181660801c6fffffffffffffffffffffffffffffffff16171760801b955050505050505b92915050565b600080617fff60708460801c6fffffffffffffffffffffffffffffffff16901c166fffffffffffffffffffffffffffffffff169050613fff811015612156576000915050612206565b6f800000000000000000000000000000008360801c6fffffffffffffffffffffffffffffffff161061218757600080fd5b6140fe81111561219657600080fd5b60006e0100000000000000000000000000006dffffffffffffffffffffffffffff8560801c6fffffffffffffffffffffffffffffffff161617905061406f8210156121ea578161406f0381901c9050612200565b61406f8211156121ff5761406f820381901b90505b5b80925050505b919050565b600080617fff60708560801c6fffffffffffffffffffffffffffffffff16901c166fffffffffffffffffffffffffffffffff1690506000617fff60708560801c6fffffffffffffffffffffffffffffffff16901c166fffffffffffffffffffffffffffffffff169050617fff8214156122e757617fff8114156122dd57836fffffffffffffffffffffffffffffffff1916856fffffffffffffffffffffffffffffffff191614156122c057849250505061286a565b6f7fff800000000000000000000000000060801b9250505061286a565b849250505061286a565b617fff8114156122fb57839250505061286a565b60006f800000000000000000000000000000008660801c6fffffffffffffffffffffffffffffffff161015905060006dffffffffffffffffffffffffffff8760801c166fffffffffffffffffffffffffffffffff16905060008414156123645760019350612379565b6e010000000000000000000000000000811790505b60006f800000000000000000000000000000008760801c6fffffffffffffffffffffffffffffffff161015905060006dffffffffffffffffffffffffffff8860801c166fffffffffffffffffffffffffffffffff16905060008514156123e257600194506123f7565b6e010000000000000000000000000000811790505b6000831415612459576f8000000000000000000000000000000060801b6fffffffffffffffffffffffffffffffff1916886fffffffffffffffffffffffffffffffff191614612446578761244c565b600060801b5b965050505050505061286a565b60008114156124bb576f8000000000000000000000000000000060801b6fffffffffffffffffffffffffffffffff1916896fffffffffffffffffffffffffffffffff1916146124a857886124ae565b600060801b5b965050505050505061286a565b6000858703905082151585151514156126395760708113156124e6578997505050505050505061286a565b60008113156124fa578082901c9150612548565b7fffffffffffffffffffffffffffffffffffffffffffffffffffffffffffffff90811215612531578897505050505050505061286a565b6000811215612547578060000384901c93508596505b5b81840193506e020000000000000000000000000000841061257157600184901c93506001870196505b617fff8714156125bc5784612599576f7fff000000000000000000000000000060801b6125ae565b6fffff000000000000000000000000000060801b5b97505050505050505061286a565b6e0100000000000000000000000000008410156125dc57600096506125f0565b6dffffffffffffffffffffffffffff841693505b83607088901b86612602576000612614565b6f800000000000000000000000000000005b6fffffffffffffffffffffffffffffffff16171760801b97505050505050505061286a565b600081131561265457600184901b935060018703965061266c565b600081121561266b57600182901b91506001860396505b5b607081131561267e5760019150612708565b600181131561269a57600180820360018403901c019150612707565b7fffffffffffffffffffffffffffffffffffffffffffffffffffffffffffffff908112156126cb5760019350612706565b7fffffffffffffffffffffffffffffffffffffffffffffffffffffffffffffffff81121561270557600180826000030360018603901c0193505b5b5b5b818410612719578184039350612722565b83820393508294505b600084141561273e57600060801b97505050505050505061286a565b600061274985612870565b90506071811415612776576dffffffffffffffffffffffffffff600186901c1694506001880197506127d8565b60708110156127c3576000816070039050808911156127af576dffffffffffffffffffffffffffff8187901b16955080890398506127bd565b6001890386901b9550600098505b506127d7565b6dffffffffffffffffffffffffffff851694505b5b617fff8814156128245785612800576f7fff000000000000000000000000000060801b612815565b6fffff000000000000000000000000000060801b5b9850505050505050505061286a565b84607089901b87612836576000612848565b6f800000000000000000000000000000005b6fffffffffffffffffffffffffffffffff16171760801b985050505050505050505b92915050565b600080821161287e57600080fd5b600070010000000000000000000000000000000083106128a657608083901c92506080810190505b6801000000000000000083106128c457604083901c92506040810190505b64010000000083106128de57602083901c92506020810190505b6201000083106128f657601083901c92506010810190505b610100831061290d57600883901c92506008810190505b6010831061292357600483901c92506004810190505b6004831061293957600283901c92506002810190505b60028310612948576001810190505b80915050919050565b6000813590506129608161345b565b92915050565b6000815190506129758161345b565b92915050565b60008083601f840112612991576129906132f2565b5b8235905067ffffffffffffffff8111156129ae576129ad6132ed565b5b6020830191508360208202830111156129ca576129c96132f7565b5b9250929050565b6000815190506129e081613472565b92915050565b6000815190506129f581613489565b92915050565b600081359050612a0a816134a0565b92915050565b600081519050612a1f816134a0565b92915050565b600081519050612a34816134b7565b92915050565b600081519050612a49816134ce565b92915050565b600060208284031215612a6557612a64613301565b5b6000612a7384828501612951565b91505092915050565b600060208284031215612a9257612a91613301565b5b6000612aa084828501612966565b91505092915050565b600080600060608486031215612ac257612ac1613301565b5b6000612ad086828701612951565b9350506020612ae1868287016129fb565b9250506040612af2868287016129fb565b9150509250925092565b600080600080600060a08688031215612b1857612b17613301565b5b6000612b2688828901612951565b9550506020612b37888289016129fb565b9450506040612b48888289016129fb565b9350506060612b59888289016129fb565b9250506080612b6a888289016129fb565b9150509295509295909350565b60008060208385031215612b8e57612b8d613301565b5b600083013567ffffffffffffffff811115612bac57612bab6132fc565b5b612bb88582860161297b565b92509250509250929050565b600060208284031215612bda57612bd9613301565b5b6000612be8848285016129d1565b91505092915050565b600060208284031215612c0757612c06613301565b5b6000612c15848285016129e6565b91505092915050565b600060208284031215612c3457612c33613301565b5b6000612c4284828501612a10565b91505092915050565b60008060408385031215612c6257612c61613301565b5b6000612c70858286016129fb565b9250506020612c81858286016129fb565b9150509250929050565b600060208284031215612ca157612ca0613301565b5b6000612caf84828501612a25565b91505092915050565b600060208284031215612cce57612ccd613301565b5b6000612cdc84828501612a3a565b91505092915050565b612cee816130a0565b82525050565b612cfd816130b2565b82525050565b612d0c8161310f565b82525050565b612d1b816130be565b82525050565b6000612d2c82612f6f565b612d368185612f7a565b9350612d46818560208601613133565b612d4f81613306565b840191505092915050565b6000612d67602683612f7a565b9150612d7282613324565b604082019050919050565b6000612d8a602083612f7a565b9150612d9582613373565b602082019050919050565b6000612dad601283612f7a565b9150612db88261339c565b602082019050919050565b612dcc816130e8565b82525050565b612ddb816130e8565b82525050565b6000602082019050612df66000830184612ce5565b92915050565b6000604082019050612e116000830185612ce5565b612e1e6020830184612dc3565b9392505050565b6000602082019050612e3a6000830184612cf4565b92915050565b6000602082019050612e556000830184612d03565b92915050565b6000602082019050612e706000830184612d12565b92915050565b6000604082019050612e8b6000830185612d12565b612e986020830184612d12565b9392505050565b60006020820190508181036000830152612eb98184612d21565b905092915050565b60006020820190508181036000830152612eda81612d5a565b9050919050565b60006020820190508181036000830152612efa81612d7d565b9050919050565b60006020820190508181036000830152612f1a81612da0565b9050919050565b6000602082019050612f366000830184612dc3565b92915050565b6000604082019050612f516000830185612dd2565b612f5e6020830184612dd2565b9392505050565b6000604051905090565b600081519050919050565b600082825260208201905092915050565b6000612f96826130e8565b9150612fa1836130e8565b9250827fffffffffffffffffffffffffffffffffffffffffffffffffffffffffffffffff03821115612fd657612fd561320f565b5b828201905092915050565b6000612fec826130e8565b9150612ff7836130e8565b9250826130075761300661323e565b5b828204905092915050565b600061301d826130e8565b9150613028836130e8565b9250817fffffffffffffffffffffffffffffffffffffffffffffffffffffffffffffffff04831182151516156130615761306061320f565b5b828202905092915050565b6000613077826130e8565b9150613082836130e8565b9250828210156130955761309461320f565b5b828203905092915050565b60006130ab826130c8565b9050919050565b60008115159050919050565b6000819050919050565b600073ffffffffffffffffffffffffffffffffffffffff82169050919050565b6000819050919050565b600063ffffffff82169050919050565b600060ff82169050919050565b600061311a82613121565b9050919050565b600061312c826130c8565b9050919050565b60005b83811015613151578082015181840152602081019050613136565b83811115613160576000848401525b50505050565b61316f82613306565b810181811067ffffffffffffffff8211171561318e5761318d61329c565b5b80604052505050565b60006131a2826130e8565b91507fffffffffffffffffffffffffffffffffffffffffffffffffffffffffffffffff8214156131d5576131d461320f565b5b600182019050919050565b7f4e487b7100000000000000000000000000000000000000000000000000000000600052600160045260246000fd5b7f4e487b7100000000000000000000000000000000000000000000000000000000600052601160045260246000fd5b7f4e487b7100000000000000000000000000000000000000000000000000000000600052601260045260246000fd5b7f4e487b7100000000000000000000000000000000000000000000000000000000600052603260045260246000fd5b7f4e487b7100000000000000000000000000000000000000000000000000000000600052604160045260246000fd5b600060033d11156132ea5760046000803e6132e7600051613317565b90505b90565b600080fd5b600080fd5b600080fd5b600080fd5b600080fd5b6000601f19601f8301169050919050565b60008160e01c9050919050565b7f4f776e61626c653a206e6577206f776e657220697320746865207a65726f206160008201527f6464726573730000000000000000000000000000000000000000000000000000602082015250565b7f4f776e61626c653a2063616c6c6572206973206e6f7420746865206f776e6572600082015250565b7f43616c6c6572206e6f7420666163746f72790000000000000000000000000000600082015250565b600060443d10156133d557613458565b6133dd612f65565b60043d036004823e80513d602482011167ffffffffffffffff82111715613405575050613458565b808201805167ffffffffffffffff8111156134235750505050613458565b80602083010160043d038501811115613440575050505050613458565b61344f82602001850186613166565b82955050505050505b90565b613464816130a0565b811461346f57600080fd5b50565b61347b816130b2565b811461348657600080fd5b50565b613492816130be565b811461349d57600080fd5b50565b6134a9816130e8565b81146134b457600080fd5b50565b6134c0816130f2565b81146134cb57600080fd5b50565b6134d781613102565b81146134e257600080fd5b5056fea2646970667358221220cd1d1892c23aba169f2ce9ec0b60540260ee9095770d13be4b33462ff7dbc7b064736f6c63430008060033",
    "libraries": {
        "PoolSwapLibrary": "0x3f4a6959e5D34E24a192B8AbF9AA7cc451a19864"
    },
    "devdoc": {
        "kind": "dev",
        "methods": {
            "checkUpkeepMultiplePools(address[])": {
                "params": {
                    "_pools": "The array of pools to check"
                },
                "returns": {
                    "_0": "upkeepNeeded Whether or not at least one pool needs upkeeping"
                }
            },
            "checkUpkeepSinglePool(address)": {
                "params": {
                    "_pool": "The address of the pool to upkeep"
                },
                "returns": {
                    "_0": "upkeepNeeded Whether or not upkeep is needed for this single pool"
                }
            },
            "keeperGas(address,uint256,uint256)": {
                "params": {
                    "_gasPrice": "Price of a single gas unit (in ETH)",
                    "_gasSpent": "Number of gas units spent",
                    "_pool": "Address of the given pool"
                },
                "returns": {
                    "_0": "Keeper's gas compensation"
                }
            },
            "keeperReward(address,uint256,uint256,uint256,uint256)": {
                "params": {
                    "_gasPrice": "Price of a single gas unit (in ETH)",
                    "_gasSpent": "Number of gas units spent",
                    "_pool": "Address of the given pool",
                    "_poolInterval": "Pool interval of the given pool",
                    "_savedPreviousUpdatedTimestamp": "Last timestamp when the pool's price execution happened"
                },
                "returns": {
                    "_0": "Number of settlement tokens to give to the keeper for work performed"
                }
            },
            "keeperTip(uint256,uint256)": {
                "params": {
                    "_poolInterval": "Pool interval of the given pool",
                    "_savedPreviousUpdatedTimestamp": "Last timestamp when the pool's price execution happened"
                },
                "returns": {
                    "_0": "Percent of the `keeperGas` cost to add to payment, as a percent"
                }
            },
            "newPool(address)": {
                "params": {
                    "_poolAddress": "The address of the newly-created pools"
                }
            },
            "owner()": {
                "details": "Returns the address of the current owner."
            },
            "performUpkeepMultiplePools(address[])": {
                "params": {
                    "pools": "pool codes to perform the update for"
                }
            },
            "performUpkeepSinglePool(address)": {
                "params": {
                    "_pool": "The pool code to perform the update for"
                }
            },
            "renounceOwnership()": {
                "details": "Leaves the contract without owner. It will not be possible to call `onlyOwner` functions anymore. Can only be called by the current owner. NOTE: Renouncing ownership will leave the contract without an owner, thereby removing any functionality that is only available to the owner."
            },
            "transferOwnership(address)": {
                "details": "Transfers ownership of the contract to a new account (`newOwner`). Can only be called by the current owner."
            }
        },
        "title": "The manager contract for multiple markets and the pools in them",
        "version": 1
    },
    "userdoc": {
        "events": {
            "KeeperPaid(address,address,uint256)": {
                "notice": "Creates a notification when a keeper is paid for doing upkeep for a pool"
            },
            "KeeperPaymentError(address,address,uint256)": {
                "notice": "Creates a notification when a keeper's payment for upkeeping a pool failed"
            },
            "PoolAdded(address,int256)": {
                "notice": "Creates a notification when a pool is created"
            },
            "PoolUpkeepError(address,string)": {
                "notice": "Creates a notification of a failed pool update"
            }
        },
        "kind": "user",
        "methods": {
            "checkUpkeepMultiplePools(address[])": {
                "notice": "Checks multiple pools if any of them need updating"
            },
            "checkUpkeepSinglePool(address)": {
                "notice": "Check if upkeep is required"
            },
            "executionPrice(address)": {
                "notice": "Format: Pool address => last executionPrice"
            },
            "keeperGas(address,uint256,uint256)": {
                "notice": "Compensation a keeper will receive for their gas expenditure"
            },
            "keeperReward(address,uint256,uint256,uint256,uint256)": {
                "notice": "Payment keeper receives for performing upkeep on a given pool"
            },
            "keeperTip(uint256,uint256)": {
                "notice": "Tip a keeper will receive for successfully updating the specified pool"
            },
            "newPool(address)": {
                "notice": "When a pool is created, this function is called by the factory to initiate price trackings"
            },
            "performUpkeepMultiplePools(address[])": {
                "notice": "Called by keepers to perform an update on multiple pools"
            },
            "performUpkeepSinglePool(address)": {
                "notice": "Called by keepers to perform an update on a single pool"
            }
        },
        "version": 1
    },
    "storageLayout": {
        "storage": [
            {
                "astId": 110,
                "contract": "contracts/implementation/PoolKeeper.sol:PoolKeeper",
                "label": "_owner",
                "offset": 0,
                "slot": "0",
                "type": "t_address"
            },
            {
                "astId": 8485,
                "contract": "contracts/implementation/PoolKeeper.sol:PoolKeeper",
                "label": "executionPrice",
                "offset": 0,
                "slot": "1",
                "type": "t_mapping(t_address,t_int256)"
            },
            {
                "astId": 8488,
                "contract": "contracts/implementation/PoolKeeper.sol:PoolKeeper",
                "label": "factory",
                "offset": 0,
                "slot": "2",
                "type": "t_contract(IPoolFactory)10117"
            }
        ],
        "types": {
            "t_address": {
                "encoding": "inplace",
                "label": "address",
                "numberOfBytes": "20"
            },
            "t_contract(IPoolFactory)10117": {
                "encoding": "inplace",
                "label": "contract IPoolFactory",
                "numberOfBytes": "20"
            },
            "t_int256": {
                "encoding": "inplace",
                "label": "int256",
                "numberOfBytes": "32"
            },
            "t_mapping(t_address,t_int256)": {
                "encoding": "mapping",
                "key": "t_address",
                "label": "mapping(address => int256)",
                "numberOfBytes": "32",
                "value": "t_int256"
            }
        }
    }
}