{
    "address": "0xe3aB9987a8A8331b85A651fEb85855c6548CD0Db",
    "abi": [
        {
            "inputs": [
                {
                    "internalType": "address",
                    "name": "_oracleWrapper",
                    "type": "address"
                },
                {
                    "internalType": "address",
                    "name": "_factory",
                    "type": "address"
                }
            ],
            "stateMutability": "nonpayable",
            "type": "constructor"
        },
        {
            "anonymous": false,
            "inputs": [
                {
                    "indexed": false,
                    "internalType": "string",
                    "name": "marketCode",
                    "type": "string"
                },
                {
                    "indexed": false,
                    "internalType": "address",
                    "name": "oracle",
                    "type": "address"
                }
            ],
            "name": "CreateMarket",
            "type": "event"
        },
        {
            "anonymous": false,
            "inputs": [
                {
                    "indexed": true,
                    "internalType": "address",
                    "name": "poolAddress",
                    "type": "address"
                },
                {
                    "indexed": true,
                    "internalType": "int256",
                    "name": "firstPrice",
                    "type": "int256"
                },
                {
                    "indexed": true,
                    "internalType": "uint32",
                    "name": "updateInterval",
                    "type": "uint32"
                },
                {
                    "indexed": false,
                    "internalType": "string",
                    "name": "market",
                    "type": "string"
                }
            ],
            "name": "CreatePool",
            "type": "event"
        },
        {
            "anonymous": false,
            "inputs": [
                {
                    "indexed": true,
                    "internalType": "int256",
                    "name": "oldPrice",
                    "type": "int256"
                },
                {
                    "indexed": true,
                    "internalType": "int256",
                    "name": "newPrice",
                    "type": "int256"
                },
                {
                    "indexed": true,
                    "internalType": "uint32",
                    "name": "updateInterval",
                    "type": "uint32"
                },
                {
                    "indexed": false,
                    "internalType": "string",
                    "name": "market",
                    "type": "string"
                },
                {
                    "indexed": false,
                    "internalType": "string",
                    "name": "pool",
                    "type": "string"
                }
            ],
            "name": "ExecutePriceChange",
            "type": "event"
        },
        {
            "anonymous": false,
            "inputs": [
                {
                    "indexed": true,
                    "internalType": "int256",
                    "name": "oldPrice",
                    "type": "int256"
                },
                {
                    "indexed": true,
                    "internalType": "int256",
                    "name": "newPrice",
                    "type": "int256"
                },
                {
                    "indexed": true,
                    "internalType": "uint32",
                    "name": "updateInterval",
                    "type": "uint32"
                },
                {
                    "indexed": false,
                    "internalType": "string",
                    "name": "market",
                    "type": "string"
                }
            ],
            "name": "NewRound",
            "type": "event"
        },
        {
            "anonymous": false,
            "inputs": [
                {
                    "indexed": true,
                    "internalType": "string",
                    "name": "poolCode",
                    "type": "string"
                },
                {
                    "indexed": false,
                    "internalType": "string",
                    "name": "reason",
                    "type": "string"
                }
            ],
            "name": "PoolUpdateError",
            "type": "event"
        },
        {
            "anonymous": false,
            "inputs": [
                {
                    "indexed": true,
                    "internalType": "int256",
                    "name": "cumulativePrice",
                    "type": "int256"
                },
                {
                    "indexed": true,
                    "internalType": "int256",
                    "name": "count",
                    "type": "int256"
                },
                {
                    "indexed": true,
                    "internalType": "uint32",
                    "name": "updateInterval",
                    "type": "uint32"
                },
                {
                    "indexed": false,
                    "internalType": "string",
                    "name": "market",
                    "type": "string"
                }
            ],
            "name": "PriceSample",
            "type": "event"
        },
        {
            "anonymous": false,
            "inputs": [
                {
                    "indexed": true,
                    "internalType": "bytes32",
                    "name": "role",
                    "type": "bytes32"
                },
                {
                    "indexed": true,
                    "internalType": "bytes32",
                    "name": "previousAdminRole",
                    "type": "bytes32"
                },
                {
                    "indexed": true,
                    "internalType": "bytes32",
                    "name": "newAdminRole",
                    "type": "bytes32"
                }
            ],
            "name": "RoleAdminChanged",
            "type": "event"
        },
        {
            "anonymous": false,
            "inputs": [
                {
                    "indexed": true,
                    "internalType": "bytes32",
                    "name": "role",
                    "type": "bytes32"
                },
                {
                    "indexed": true,
                    "internalType": "address",
                    "name": "account",
                    "type": "address"
                },
                {
                    "indexed": true,
                    "internalType": "address",
                    "name": "sender",
                    "type": "address"
                }
            ],
            "name": "RoleGranted",
            "type": "event"
        },
        {
            "anonymous": false,
            "inputs": [
                {
                    "indexed": true,
                    "internalType": "bytes32",
                    "name": "role",
                    "type": "bytes32"
                },
                {
                    "indexed": true,
                    "internalType": "address",
                    "name": "account",
                    "type": "address"
                },
                {
                    "indexed": true,
                    "internalType": "address",
                    "name": "sender",
                    "type": "address"
                }
            ],
            "name": "RoleRevoked",
            "type": "event"
        },
        {
            "inputs": [],
            "name": "ADMIN",
            "outputs": [
                {
                    "internalType": "bytes32",
                    "name": "",
                    "type": "bytes32"
                }
            ],
            "stateMutability": "view",
            "type": "function"
        },
        {
            "inputs": [],
            "name": "DEFAULT_ADMIN_ROLE",
            "outputs": [
                {
                    "internalType": "bytes32",
                    "name": "",
                    "type": "bytes32"
                }
            ],
            "stateMutability": "view",
            "type": "function"
        },
        {
            "inputs": [
                {
                    "internalType": "bytes",
                    "name": "checkData",
                    "type": "bytes"
                }
            ],
            "name": "checkUpkeep",
            "outputs": [
                {
                    "internalType": "bool",
                    "name": "upkeepNeeded",
                    "type": "bool"
                },
                {
                    "internalType": "bytes",
                    "name": "performData",
                    "type": "bytes"
                }
            ],
            "stateMutability": "view",
            "type": "function"
        },
        {
            "inputs": [
                {
                    "internalType": "string",
                    "name": "marketCode",
                    "type": "string"
                },
                {
                    "internalType": "address",
                    "name": "oracle",
                    "type": "address"
                }
            ],
            "name": "createMarket",
            "outputs": [],
            "stateMutability": "nonpayable",
            "type": "function"
        },
        {
            "inputs": [
                {
                    "internalType": "string",
                    "name": "_marketCode",
                    "type": "string"
                },
                {
                    "internalType": "string",
                    "name": "_poolCode",
                    "type": "string"
                },
                {
                    "internalType": "uint32",
                    "name": "_updateInterval",
                    "type": "uint32"
                },
                {
                    "internalType": "uint32",
                    "name": "_frontRunningInterval",
                    "type": "uint32"
                },
                {
                    "internalType": "bytes16",
                    "name": "_fee",
                    "type": "bytes16"
                },
                {
                    "internalType": "uint16",
                    "name": "_leverageAmount",
                    "type": "uint16"
                },
                {
                    "internalType": "address",
                    "name": "_feeAddress",
                    "type": "address"
                },
                {
                    "internalType": "address",
                    "name": "_quoteToken",
                    "type": "address"
                }
            ],
            "name": "createPool",
            "outputs": [],
            "stateMutability": "nonpayable",
            "type": "function"
        },
        {
            "inputs": [],
            "name": "factory",
            "outputs": [
                {
                    "internalType": "contract PoolFactory",
                    "name": "",
                    "type": "address"
                }
            ],
            "stateMutability": "view",
            "type": "function"
        },
        {
            "inputs": [
                {
                    "internalType": "bytes32",
                    "name": "role",
                    "type": "bytes32"
                }
            ],
            "name": "getRoleAdmin",
            "outputs": [
                {
                    "internalType": "bytes32",
                    "name": "",
                    "type": "bytes32"
                }
            ],
            "stateMutability": "view",
            "type": "function"
        },
        {
            "inputs": [
                {
                    "internalType": "bytes32",
                    "name": "role",
                    "type": "bytes32"
                },
                {
                    "internalType": "uint256",
                    "name": "index",
                    "type": "uint256"
                }
            ],
            "name": "getRoleMember",
            "outputs": [
                {
                    "internalType": "address",
                    "name": "",
                    "type": "address"
                }
            ],
            "stateMutability": "view",
            "type": "function"
        },
        {
            "inputs": [
                {
                    "internalType": "bytes32",
                    "name": "role",
                    "type": "bytes32"
                }
            ],
            "name": "getRoleMemberCount",
            "outputs": [
                {
                    "internalType": "uint256",
                    "name": "",
                    "type": "uint256"
                }
            ],
            "stateMutability": "view",
            "type": "function"
        },
        {
            "inputs": [
                {
                    "internalType": "bytes32",
                    "name": "role",
                    "type": "bytes32"
                },
                {
                    "internalType": "address",
                    "name": "account",
                    "type": "address"
                }
            ],
            "name": "grantRole",
            "outputs": [],
            "stateMutability": "nonpayable",
            "type": "function"
        },
        {
            "inputs": [
                {
                    "internalType": "bytes32",
                    "name": "role",
                    "type": "bytes32"
                },
                {
                    "internalType": "address",
                    "name": "account",
                    "type": "address"
                }
            ],
            "name": "hasRole",
            "outputs": [
                {
                    "internalType": "bool",
                    "name": "",
                    "type": "bool"
                }
            ],
            "stateMutability": "view",
            "type": "function"
        },
        {
            "inputs": [
                {
                    "internalType": "string",
                    "name": "",
                    "type": "string"
                }
            ],
            "name": "lastExecutionTime",
            "outputs": [
                {
                    "internalType": "uint40",
                    "name": "",
                    "type": "uint40"
                }
            ],
            "stateMutability": "view",
            "type": "function"
        },
        {
            "inputs": [],
            "name": "oracleWrapper",
            "outputs": [
                {
                    "internalType": "address",
                    "name": "",
                    "type": "address"
                }
            ],
            "stateMutability": "view",
            "type": "function"
        },
        {
            "inputs": [
                {
                    "internalType": "bytes",
                    "name": "performData",
                    "type": "bytes"
                }
            ],
            "name": "performUpkeep",
            "outputs": [],
            "stateMutability": "nonpayable",
            "type": "function"
        },
        {
            "inputs": [
                {
                    "internalType": "string",
                    "name": "",
                    "type": "string"
                },
                {
                    "internalType": "uint32",
                    "name": "",
                    "type": "uint32"
                }
            ],
            "name": "poolMarkets",
            "outputs": [
                {
                    "internalType": "string",
                    "name": "",
                    "type": "string"
                }
            ],
            "stateMutability": "view",
            "type": "function"
        },
        {
            "inputs": [
                {
                    "internalType": "string",
                    "name": "",
                    "type": "string"
                }
            ],
            "name": "pools",
            "outputs": [
                {
                    "internalType": "address",
                    "name": "",
                    "type": "address"
                }
            ],
            "stateMutability": "view",
            "type": "function"
        },
        {
            "inputs": [
                {
                    "internalType": "bytes32",
                    "name": "role",
                    "type": "bytes32"
                },
                {
                    "internalType": "address",
                    "name": "account",
                    "type": "address"
                }
            ],
            "name": "renounceRole",
            "outputs": [],
            "stateMutability": "nonpayable",
            "type": "function"
        },
        {
            "inputs": [
                {
                    "internalType": "bytes32",
                    "name": "role",
                    "type": "bytes32"
                },
                {
                    "internalType": "address",
                    "name": "account",
                    "type": "address"
                }
            ],
            "name": "revokeRole",
            "outputs": [],
            "stateMutability": "nonpayable",
            "type": "function"
        },
        {
            "inputs": [
                {
                    "internalType": "address",
                    "name": "oracle",
                    "type": "address"
                }
            ],
            "name": "updateOracleWrapper",
            "outputs": [],
            "stateMutability": "nonpayable",
            "type": "function"
        },
        {
            "inputs": [
                {
                    "internalType": "string",
                    "name": "",
                    "type": "string"
                },
                {
                    "internalType": "uint32",
                    "name": "",
                    "type": "uint32"
                }
            ],
            "name": "upkeep",
            "outputs": [
                {
                    "internalType": "int256",
                    "name": "cumulativePrice",
                    "type": "int256"
                },
                {
                    "internalType": "int256",
                    "name": "lastSamplePrice",
                    "type": "int256"
                },
                {
                    "internalType": "int256",
                    "name": "executionPrice",
                    "type": "int256"
                },
                {
                    "internalType": "int256",
                    "name": "lastExecutionPrice",
                    "type": "int256"
                },
                {
                    "internalType": "uint32",
                    "name": "count",
                    "type": "uint32"
                },
                {
                    "internalType": "uint32",
                    "name": "updateInterval",
                    "type": "uint32"
                },
                {
                    "internalType": "uint40",
                    "name": "roundStart",
                    "type": "uint40"
                }
            ],
            "stateMutability": "view",
            "type": "function"
        }
    ],
    "transactionHash": "0x3fa950713d32220167d579c3b466437d1e00db313e6942cb32397f98ddbc101c",
    "args": [
        "0xF8f2A07D299c1683E8F06611733908D135700d14",
        "0xcD95A675eD9df9b7f280E6C0BE5199DA574A7B3b"
    ],
    "solcInputHash": "3769971eababface19a2a1822d2ddf0e",
    "bytecode": "0x60a06040523480156200001157600080fd5b5060405162004ce338038062004ce383398181016040528101906200003791906200037c565b600073ffffffffffffffffffffffffffffffffffffffff168273ffffffffffffffffffffffffffffffffffffffff161415620000aa576040517f08c379a0000000000000000000000000000000000000000000000000000000008152600401620000a19062000463565b60405180910390fd5b600073ffffffffffffffffffffffffffffffffffffffff168173ffffffffffffffffffffffffffffffffffffffff1614156200011d576040517f08c379a0000000000000000000000000000000000000000000000000000000008152600401620001149062000441565b60405180910390fd5b81600560006101000a81548173ffffffffffffffffffffffffffffffffffffffff021916908373ffffffffffffffffffffffffffffffffffffffff160217905550620001907fdf8b4c520ffe197c5343c6f5aec59570151ef9a492f2c624fd45ddde6135ec4233620001cf60201b60201c565b8073ffffffffffffffffffffffffffffffffffffffff1660808173ffffffffffffffffffffffffffffffffffffffff1660601b815250505050620004e4565b620001e18282620001e560201b60201c565b5050565b62000213816000808581526020019081526020016000206000016200028860201b62001d7f1790919060201c565b15620002845762000229620002c060201b60201c565b73ffffffffffffffffffffffffffffffffffffffff168173ffffffffffffffffffffffffffffffffffffffff16837f2f8788117e7eff1d82e926ec794901d17c78024a50270940304540a733656f0d60405160405180910390a45b5050565b6000620002b8836000018373ffffffffffffffffffffffffffffffffffffffff1660001b620002c860201b60201c565b905092915050565b600033905090565b6000620002dc83836200034260201b60201c565b620003375782600001829080600181540180825580915050600190039060005260206000200160009091909190915055826000018054905083600101600084815260200190815260200160002081905550600190506200033c565b600090505b92915050565b600080836001016000848152602001908152602001600020541415905092915050565b6000815190506200037681620004ca565b92915050565b600080604083850312156200039057600080fd5b6000620003a08582860162000365565b9250506020620003b38582860162000365565b9150509250929050565b6000620003cc601b8362000485565b91507f466163746f72792063616e6e6f742062652030206164647265737300000000006000830152602082019050919050565b60006200040e601a8362000485565b91507f4f7261636c652063616e6e6f74206265203020616464726573730000000000006000830152602082019050919050565b600060208201905081810360008301526200045c81620003bd565b9050919050565b600060208201905081810360008301526200047e81620003ff565b9050919050565b600082825260208201905092915050565b6000620004a382620004aa565b9050919050565b600073ffffffffffffffffffffffffffffffffffffffff82169050919050565b620004d58162000496565b8114620004e157600080fd5b50565b60805160601c6147d2620005116000398061163852806116fd52806117705280611bc752506147d26000f3fe608060405234801561001057600080fd5b506004361061012b5760003560e01c806391d14854116100ad578063bf1f167d11610071578063bf1f167d14610381578063c45a01551461039d578063ca15c873146103bb578063d547741f146103eb578063fc67b62b146104075761012b565b806391d14854146102af5780639d6f17a8146102df578063a217fddf1461030f578063b5505a831461032d578063b9ed8abf146103635761012b565b806336568abe116100f457806336568abe146101fa5780634585e33b146102165780636e04ff0d1461023257806383883e1c146102635780639010d07c1461027f5761012b565b80629ac4b8146101305780631173721b14610160578063248a9ca3146101905780632a0acc6a146101c05780632f2ff15d146101de575b600080fd5b61014a600480360381019061014591906139e1565b610423565b604051610157919061430e565b60405180910390f35b61017a60048036038101906101759190613b58565b61045d565b604051610187919061418a565b60405180910390f35b6101aa60048036038101906101a591906138a9565b610530565b6040516101b791906140bc565b60405180910390f35b6101c861054f565b6040516101d591906140bc565b60405180910390f35b6101f860048036038101906101f391906138d2565b610573565b005b610214600480360381019061020f91906138d2565b6105fc565b005b610230600480360381019061022b919061394a565b610695565b005b61024c6004803603810190610247919061394a565b610c5b565b60405161025a92919061408c565b60405180910390f35b61027d60048036038101906102789190613a76565b611005565b005b6102996004803603810190610294919061390e565b61188e565b6040516102a69190613fe0565b60405180910390f35b6102c960048036038101906102c491906138d2565b6118bf565b6040516102d69190614071565b60405180910390f35b6102f960048036038101906102f491906139e1565b6118f0565b6040516103069190613fe0565b60405180910390f35b610317611939565b60405161032491906140bc565b60405180910390f35b61034760048036038101906103429190613b58565b611940565b60405161035a979695949392919061411b565b60405180910390f35b61036b6119d6565b6040516103789190613fe0565b60405180910390f35b61039b60048036038101906103969190613a22565b6119fc565b005b6103a5611bc5565b6040516103b291906140d7565b60405180910390f35b6103d560048036038101906103d091906138a9565b611be9565b6040516103e291906142f3565b60405180910390f35b610405600480360381019061040091906138d2565b611c0f565b005b610421600480360381019061041c9190613857565b611c98565b005b6004818051602081018201805184825260208301602085012081835280955050505050506000915054906101000a900464ffffffffff1681565b600282805160208101820180518482526020830160208501208183528095505050505050602052806000526040600020600091509150508054600181600116156101000203166002900480601f0160208091040260200160405190810160405280929190818152602001828054600181600116156101000203166002900480156105285780601f106104fd57610100808354040283529160200191610528565b820191906000526020600020905b81548152906001019060200180831161050b57829003601f168201915b505050505081565b6000806000838152602001908152602001600020600201549050919050565b7fdf8b4c520ffe197c5343c6f5aec59570151ef9a492f2c624fd45ddde6135ec4281565b61059960008084815260200190815260200160002060020154610594611daf565b6118bf565b6105ee576040517f08c379a000000000000000000000000000000000000000000000000000000000815260040180806020018281038252602f8152602001806146ee602f913960400191505060405180910390fd5b6105f88282611db7565b5050565b610604611daf565b73ffffffffffffffffffffffffffffffffffffffff168173ffffffffffffffffffffffffffffffffffffffff1614610687576040517f08c379a000000000000000000000000000000000000000000000000000000000815260040180806020018281038252602f81526020018061476e602f913960400191505060405180910390fd5b6106918282611e4a565b5050565b6000806000806106a58686611edd565b9350935093509350836106ed576040517f08c379a00000000000000000000000000000000000000000000000000000000081526004016106e490614273565b60405180910390fd5b60006003836040516106ff9190613fb2565b908152602001604051809103902060008563ffffffff1663ffffffff1681526020019081526020016000206040518060e0016040529081600082015481526020016001820154815260200160028201548152602001600382015481526020016004820160009054906101000a900463ffffffff1663ffffffff1663ffffffff1681526020016004820160049054906101000a900463ffffffff1663ffffffff1663ffffffff1681526020016004820160089054906101000a900464ffffffffff1664ffffffffff1664ffffffffff168152505090506000600560009054906101000a900473ffffffffffffffffffffffffffffffffffffffff1673ffffffffffffffffffffffffffffffffffffffff1663524f3889856040518263ffffffff1660e01b8152600401610831919061418a565b60206040518083038186803b15801561084957600080fd5b505afa15801561085d573d6000803e3d6000fd5b505050506040513d601f19601f8201168201806040525081019061088191906139b8565b90506108ab8260a0015163ffffffff168360c0015164ffffffffff1661218990919063ffffffff16565b64ffffffffff164210610a6a5760006108cc8360000151846080015161221f565b90506040518060e0016040528083815260200183815260200182815260200184604001518152602001600163ffffffff1681526020018460a0015163ffffffff1681526020014264ffffffffff1681525060038660405161092d9190613fb2565b908152602001604051809103902060008863ffffffff1663ffffffff1681526020019081526020016000206000820151816000015560208201518160010155604082015181600201556060820151816003015560808201518160040160006101000a81548163ffffffff021916908363ffffffff16021790555060a08201518160040160046101000a81548163ffffffff021916908363ffffffff16021790555060c08201518160040160086101000a81548164ffffffffff021916908364ffffffffff1602179055509050508260a0015163ffffffff168184604001517f8782e8485ffd35eea2850cfd71b2bf39927def6b2ae29f22760db0c376bdb6a888604051610a3a919061418a565b60405180910390a4610a5e4263ffffffff16868560a00151878760400151866122b5565b50505050505050610c57565b81602001518114610c32576000610a8e82846000015161253790919063ffffffff16565b90506000610ab06001856080015163ffffffff166125c590919063ffffffff16565b90506040518060e0016040528083815260200184815260200185604001518152602001856060015181526020018263ffffffff1681526020018560a0015163ffffffff1681526020018560c0015164ffffffffff16815250600387604051610b189190613fb2565b908152602001604051809103902060008963ffffffff1663ffffffff1681526020019081526020016000206000820151816000015560208201518160010155604082015181600201556060820151816003015560808201518160040160006101000a81548163ffffffff021916908363ffffffff16021790555060a08201518160040160046101000a81548163ffffffff021916908363ffffffff16021790555060c08201518160040160086101000a81548164ffffffffff021916908364ffffffffff1602179055509050508360a0015163ffffffff168163ffffffff16837f274d9ae549fe3dd836778d08a864585cf2cc1f0ad763eba6848efb8044f50f8d89604051610c27919061418a565b60405180910390a450505b610c508260c00151858460a0015186866060015187604001516122b5565b5050505050505b5050565b60006060600080600080610c6f8888611edd565b935093509350935083610cd65760008067ffffffffffffffff81118015610c9557600080fd5b506040519080825280601f01601f191660200182016040528015610cc85781602001600182028036833780820191505090505b509550955050505050610ffe565b6000600383604051610ce89190613fb2565b908152602001604051809103902060008563ffffffff1663ffffffff1681526020019081526020016000206040518060e0016040529081600082015481526020016001820154815260200160028201548152602001600382015481526020016004820160009054906101000a900463ffffffff1663ffffffff1663ffffffff1681526020016004820160049054906101000a900463ffffffff1663ffffffff1663ffffffff1681526020016004820160089054906101000a900464ffffffffff1664ffffffffff1664ffffffffff168152505090506000600560009054906101000a900473ffffffffffffffffffffffffffffffffffffffff1673ffffffffffffffffffffffffffffffffffffffff1663524f3889856040518263ffffffff1660e01b8152600401610e1a919061418a565b60206040518083038186803b158015610e3257600080fd5b505afa158015610e46573d6000803e3d6000fd5b505050506040513d601f19601f82011682018060405250810190610e6a91906139b8565b905081602001518114610ed35760018a8a81818080601f016020809104026020016040519081016040528093929190818152602001838380828437600081840152601f19601f820116905080830192505050505050509050905097509750505050505050610ffe565b60005b8351811015610fa5578260c0015164ffffffffff166004858381518110610ef957fe5b6020026020010151604051610f0e9190613fb2565b908152602001604051809103902060009054906101000a900464ffffffffff1664ffffffffff161015610f985760018b8b81818080601f016020809104026020016040519081016040528093929190818152602001838380828437600081840152601f19601f82011690508083019250505050505050905090509850985050505050505050610ffe565b8080600101915050610ed6565b5060008a8a81818080601f016020809104026020016040519081016040528093929190818152602001838380828437600081840152601f19601f8201169050808301925050505050505090509050975097505050505050505b9250929050565b600073ffffffffffffffffffffffffffffffffffffffff1660018860405161102d9190613fb2565b908152602001604051809103902060009054906101000a900473ffffffffffffffffffffffffffffffffffffffff1673ffffffffffffffffffffffffffffffffffffffff16146110b2576040517f08c379a00000000000000000000000000000000000000000000000000000000081526004016110a9906142d3565b60405180910390fd5b6000600560009054906101000a900473ffffffffffffffffffffffffffffffffffffffff169050600073ffffffffffffffffffffffffffffffffffffffff168173ffffffffffffffffffffffffffffffffffffffff1663c982aa178b6040518263ffffffff1660e01b815260040161112a919061418a565b60206040518083038186803b15801561114257600080fd5b505afa158015611156573d6000803e3d6000fd5b505050506040513d601f19601f8201168201806040525081019061117a9190613880565b73ffffffffffffffffffffffffffffffffffffffff1614156111d1576040517f08c379a00000000000000000000000000000000000000000000000000000000081526004016111c890614293565b60405180910390fd5b8563ffffffff168763ffffffff161161121f576040517f08c379a000000000000000000000000000000000000000000000000000000000815260040161121690614253565b60405180910390fd5b60008173ffffffffffffffffffffffffffffffffffffffff1663524f38898b6040518263ffffffff1660e01b815260040161125a919061418a565b60206040518083038186803b15801561127257600080fd5b505afa158015611286573d6000803e3d6000fd5b505050506040513d601f19601f820116820180604052508101906112aa91906139b8565b9050600060038b6040516112be9190613fb2565b908152602001604051809103902060008a63ffffffff1663ffffffff1681526020019081526020016000206040518060e0016040529081600082015481526020016001820154815260200160028201548152602001600382015481526020016004820160009054906101000a900463ffffffff1663ffffffff1663ffffffff1681526020016004820160049054906101000a900463ffffffff1663ffffffff1663ffffffff1681526020016004820160089054906101000a900464ffffffffff1664ffffffffff1664ffffffffff168152505090506000816060015114156114fb5760006113cf6113ca6113b185612659565b6f403abc16d674ec80000000000000000060801b612707565b612b9c565b90506040518060e00160405280848152602001848152602001828152602001828152602001600163ffffffff1681526020018b63ffffffff1681526020014264ffffffffff1681525060038d6040516114289190613fb2565b908152602001604051809103902060008c63ffffffff1663ffffffff1681526020019081526020016000206000820151816000015560208201518160010155604082015181600201556060820151816003015560808201518160040160006101000a81548163ffffffff021916908363ffffffff16021790555060a08201518160040160046101000a81548163ffffffff021916908363ffffffff16021790555060c08201518160040160086101000a81548164ffffffffff021916908364ffffffffff160217905550905050506115db565b806020015182146115da5761151d82826000015161253790919063ffffffff16565b60038c60405161152d9190613fb2565b908152602001604051809103902060008b63ffffffff1663ffffffff1681526020019081526020016000206000018190555061157d6001826080015163ffffffff166125c590919063ffffffff16565b60038c60405161158d9190613fb2565b908152602001604051809103902060008b63ffffffff1663ffffffff16815260200190815260200160002060040160006101000a81548163ffffffff021916908363ffffffff1602179055505b5b8a60028b6040516115ec9190613fb2565b908152602001604051809103902060008b63ffffffff1663ffffffff168152602001908152602001600020908051906020019061162a9291906135b6565b508863ffffffff16826117217f000000000000000000000000000000000000000000000000000000000000000073ffffffffffffffffffffffffffffffffffffffff16635bae377a6040518163ffffffff1660e01b815260040160206040518083038186803b15801561169c57600080fd5b505afa1580156116b0573d6000803e3d6000fd5b505050506040513d601f19601f820116820180604052508101906116d4919061398f565b8d6040516020016116e5919061418a565b604051602081830303815290604052805190602001207f0000000000000000000000000000000000000000000000000000000000000000612cfc565b73ffffffffffffffffffffffffffffffffffffffff167f1e00aa67eede0d1aad03cc45e84faadca504fdc232a574bd69cdcd00264803f88e604051611766919061418a565b60405180910390a47f000000000000000000000000000000000000000000000000000000000000000073ffffffffffffffffffffffffffffffffffffffff1663d8c32a9a308c8b8b8b8b8b6040518863ffffffff1660e01b81526004016117d39796959493929190613ffb565b602060405180830381600087803b1580156117ed57600080fd5b505af1158015611801573d6000803e3d6000fd5b505050506040513d601f19601f820116820180604052508101906118259190613880565b60018b6040516118359190613fb2565b908152602001604051809103902060006101000a81548173ffffffffffffffffffffffffffffffffffffffff021916908373ffffffffffffffffffffffffffffffffffffffff1602179055505050505050505050505050565b60006118b782600080868152602001908152602001600020600001612d7c90919063ffffffff16565b905092915050565b60006118e882600080868152602001908152602001600020600001612d9690919063ffffffff16565b905092915050565b6001818051602081018201805184825260208301602085012081835280955050505050506000915054906101000a900473ffffffffffffffffffffffffffffffffffffffff1681565b6000801b81565b600382805160208101820180518482526020830160208501208183528095505050505050602052806000526040600020600091509150508060000154908060010154908060020154908060030154908060040160009054906101000a900463ffffffff16908060040160049054906101000a900463ffffffff16908060040160089054906101000a900464ffffffffff16905087565b600560009054906101000a900473ffffffffffffffffffffffffffffffffffffffff1681565b6000600560009054906101000a900473ffffffffffffffffffffffffffffffffffffffff169050600073ffffffffffffffffffffffffffffffffffffffff168173ffffffffffffffffffffffffffffffffffffffff1663c982aa17856040518263ffffffff1660e01b8152600401611a74919061418a565b60206040518083038186803b158015611a8c57600080fd5b505afa158015611aa0573d6000803e3d6000fd5b505050506040513d601f19601f82011682018060405250810190611ac49190613880565b73ffffffffffffffffffffffffffffffffffffffff1614611b1a576040517f08c379a0000000000000000000000000000000000000000000000000000000008152600401611b1190614233565b60405180910390fd5b7fabaad8c6f02ea596d146cf7c25e033a91ce458031581f24cdf6ff5a9ba0be81d8383604051611b4b9291906141ac565b60405180910390a18073ffffffffffffffffffffffffffffffffffffffff16632970fdfa84846040518363ffffffff1660e01b8152600401611b8e9291906141ac565b600060405180830381600087803b158015611ba857600080fd5b505af1158015611bbc573d6000803e3d6000fd5b50505050505050565b7f000000000000000000000000000000000000000000000000000000000000000081565b6000611c08600080848152602001908152602001600020600001612dc6565b9050919050565b611c3560008084815260200190815260200160002060020154611c30611daf565b6118bf565b611c8a576040517f08c379a000000000000000000000000000000000000000000000000000000000815260040180806020018281038252603081526020018061473e6030913960400191505060405180910390fd5b611c948282611e4a565b5050565b611cc27fdf8b4c520ffe197c5343c6f5aec59570151ef9a492f2c624fd45ddde6135ec42336118bf565b611ccb57600080fd5b600073ffffffffffffffffffffffffffffffffffffffff168173ffffffffffffffffffffffffffffffffffffffff161415611d3b576040517f08c379a0000000000000000000000000000000000000000000000000000000008152600401611d32906142b3565b60405180910390fd5b80600560006101000a81548173ffffffffffffffffffffffffffffffffffffffff021916908373ffffffffffffffffffffffffffffffffffffffff16021790555050565b6000611da7836000018373ffffffffffffffffffffffffffffffffffffffff1660001b612ddb565b905092915050565b600033905090565b611dde81600080858152602001908152602001600020600001611d7f90919063ffffffff16565b15611e4657611deb611daf565b73ffffffffffffffffffffffffffffffffffffffff168173ffffffffffffffffffffffffffffffffffffffff16837f2f8788117e7eff1d82e926ec794901d17c78024a50270940304540a733656f0d60405160405180910390a45b5050565b611e7181600080858152602001908152602001600020600001612e4b90919063ffffffff16565b15611ed957611e7e611daf565b73ffffffffffffffffffffffffffffffffffffffff168173ffffffffffffffffffffffffffffffffffffffff16837ff6391f5c32d9c69d2a47ea670b442974b53935d1edc7fd64eb21e047a839171b60405160405180910390a45b5050565b60008060608060008060008888810190611ef79190613bac565b9250925092506000600560009054906101000a900473ffffffffffffffffffffffffffffffffffffffff169050600073ffffffffffffffffffffffffffffffffffffffff168173ffffffffffffffffffffffffffffffffffffffff1663c982aa17856040518263ffffffff1660e01b8152600401611f75919061418a565b60206040518083038186803b158015611f8d57600080fd5b505afa158015611fa1573d6000803e3d6000fd5b505050506040513d601f19601f82011682018060405250810190611fc59190613880565b73ffffffffffffffffffffffffffffffffffffffff161415611ff7576000848484975097509750975050505050612180565b60005b82518160ff16101561216d57836040516020016120179190613fb2565b604051602081830303815290604052805190602001206002848360ff168151811061203e57fe5b60200260200101516040516120539190613fb2565b908152602001604051809103902060008763ffffffff1663ffffffff16815260200190815260200160002060405160200161208e9190613fc9565b60405160208183030381529060405280519060200120146120c057600085858598509850985098505050505050612180565b600073ffffffffffffffffffffffffffffffffffffffff166001848360ff16815181106120e957fe5b60200260200101516040516120fe9190613fb2565b908152602001604051809103902060009054906101000a900473ffffffffffffffffffffffffffffffffffffffff1673ffffffffffffffffffffffffffffffffffffffff16141561216057600085858598509850985098505050505050612180565b8080600101915050611ffa565b5060018484849750975097509750505050505b92959194509250565b60008082840190508364ffffffffff168164ffffffffff161015612215576040517f08c379a000000000000000000000000000000000000000000000000000000000815260040180806020018281038252601b8152602001807f536166654d6174683a206164646974696f6e206f766572666c6f77000000000081525060200191505060405180910390fd5b8091505092915050565b6000808263ffffffff1611612269576040517f08c379a000000000000000000000000000000000000000000000000000000000815260040161226090614213565b60405180910390fd5b6122ad6122a861229461227b86612659565b6f403abc16d674ec80000000000000000060801b612707565b6122a38563ffffffff16612659565b612e7b565b612b9c565b905092915050565b600082131561252f5760005b83518160ff16101561252d578664ffffffffff166004858360ff16815181106122e657fe5b60200260200101516040516122fb9190613fb2565b908152602001604051809103902060009054906101000a900464ffffffffff1664ffffffffff16101561252057426004858360ff168151811061233a57fe5b602002602001015160405161234f9190613fb2565b908152602001604051809103902060006101000a81548164ffffffffff021916908364ffffffffff1602179055508463ffffffff1682847f3b1c15ba0b5ca3052d5e2ecda9ed91c3681c2be725d7efd14092339054c34ec089888660ff16815181106123b757fe5b60200260200101516040516123cd9291906141dc565b60405180910390a46001848260ff16815181106123e657fe5b60200260200101516040516123fb9190613fb2565b908152602001604051809103902060009054906101000a900473ffffffffffffffffffffffffffffffffffffffff1673ffffffffffffffffffffffffffffffffffffffff166366c33dae84846040518363ffffffff1660e01b81526004016124649291906140f2565b600060405180830381600087803b15801561247e57600080fd5b505af192505050801561248f575060015b61251e5761249b61455d565b806124a6575061250f565b848260ff16815181106124b557fe5b60200260200101516040516124ca9190613fb2565b60405180910390207ffe89c7ae4eef450f5d67f124226f4caa51d3c7006110c0468d096d050e1075d082604051612501919061418a565b60405180910390a250612519565b3d6000803e3d6000fd5b61251f565b5b5b80806001019150506122c1565b505b505050505050565b6000808284019050600083121580156125505750838112155b80612566575060008312801561256557508381125b5b6125bb576040517f08c379a000000000000000000000000000000000000000000000000000000000815260040180806020018281038252602181526020018061471d6021913960400191505060405180910390fd5b8091505092915050565b60008082840190508363ffffffff168163ffffffff16101561264f576040517f08c379a000000000000000000000000000000000000000000000000000000000815260040180806020018281038252601b8152602001807f536166654d6174683a206164646974696f6e206f766572666c6f77000000000081525060200191505060405180910390fd5b8091505092915050565b60008082141561266f57600060801b9050612702565b60008083136126815782600003612683565b825b9050600061269082613336565b905060708110156126a9578060700382901b91506126bd565b60708111156126bc576070810382901c91505b5b607081613fff01901b6dffffffffffffffffffffffffffff831617915060008412156126f9576f80000000000000000000000000000000821791505b8160801b925050505b919050565b600080617fff60708560801c6fffffffffffffffffffffffffffffffff16901c166fffffffffffffffffffffffffffffffff1690506000617fff60708560801c6fffffffffffffffffffffffffffffffff16901c166fffffffffffffffffffffffffffffffff169050617fff82141561289e57617fff81141561282c57836fffffffffffffffffffffffffffffffff1916856fffffffffffffffffffffffffffffffff191614156127d3576f8000000000000000000000000000000060801b8416851892505050612b96565b6f8000000000000000000000000000000060801b8486186fffffffffffffffffffffffffffffffff1916141561280f5783851792505050612b96565b6f7fff800000000000000000000000000060801b92505050612b96565b600060801b6f7fffffffffffffffffffffffffffffff60801b85166fffffffffffffffffffffffffffffffff1916141561287d576f7fff800000000000000000000000000060801b92505050612b96565b6f8000000000000000000000000000000060801b8416851892505050612b96565b617fff81141561291a57600060801b6f7fffffffffffffffffffffffffffffff60801b86166fffffffffffffffffffffffffffffffff191614156128f9576f7fff800000000000000000000000000060801b92505050612b96565b6f8000000000000000000000000000000060801b8516841892505050612b96565b60006dffffffffffffffffffffffffffff8660801c166fffffffffffffffffffffffffffffffff1690506000831415612956576001925061296b565b6e010000000000000000000000000000811790505b60006dffffffffffffffffffffffffffff8660801c166fffffffffffffffffffffffffffffffff16905060008314156129a757600192506129bc565b6e010000000000000000000000000000811790505b80820291506000821415612a2957600060801b6f8000000000000000000000000000000060801b878918166fffffffffffffffffffffffffffffffff191611612a0957600060801b612a1e565b6f8000000000000000000000000000000060801b5b945050505050612b96565b828401935060007c0200000000000000000000000000000000000000000000000000000000831015612a90577c0100000000000000000000000000000000000000000000000000000000831015612a8857612a8383613336565b612a8b565b60e05b612a93565b60e15b90506140708186011015612aae576000945060009250612b56565b6140e08186011015612af257614070851015612ad357846140700383901c9250612ae9565b614070851115612ae857614070850383901b92505b5b60009450612b55565b61c0dd8186011115612b0c57617fff945060009250612b54565b6070811115612b23576070810383901c9250612b37565b6070811015612b36578060700383901b92505b5b6dffffffffffffffffffffffffffff831692506140df8186010394505b5b5b82607086901b6f8000000000000000000000000000000060801b898b181660801c6fffffffffffffffffffffffffffffffff16171760801b955050505050505b92915050565b600080617fff60708460801c6fffffffffffffffffffffffffffffffff16901c166fffffffffffffffffffffffffffffffff1690506140fe811115612be057600080fd5b613fff811015612bf4576000915050612cf7565b60006e0100000000000000000000000000006dffffffffffffffffffffffffffff8560801c6fffffffffffffffffffffffffffffffff161617905061406f821015612c48578161406f0381901c9050612c5e565b61406f821115612c5d5761406f820381901b90505b5b6f800000000000000000000000000000008460801c6fffffffffffffffffffffffffffffffff1610612cc4577f8000000000000000000000000000000000000000000000000000000000000000811115612cb757600080fd5b8060000392505050612cf7565b7f7fffffffffffffffffffffffffffffffffffffffffffffffffffffffffffffff811115612cf157600080fd5b80925050505b919050565b60006040517f3d602d80600a3d3981f3363d3d373d3d3d363d7300000000000000000000000081528460601b60148201527f5af43d82803e903d91602b57fd5bf3ff0000000000000000000000000000000060288201528260601b603882015283604c82015260378120606c820152605560378201209150509392505050565b6000612d8b8360000183613417565b60001c905092915050565b6000612dbe836000018373ffffffffffffffffffffffffffffffffffffffff1660001b61349a565b905092915050565b6000612dd4826000016134bd565b9050919050565b6000612de7838361349a565b612e40578260000182908060018154018082558091505060019003906000526020600020016000909190919091505582600001805490508360010160008481526020019081526020016000208190555060019050612e45565b600090505b92915050565b6000612e73836000018373ffffffffffffffffffffffffffffffffffffffff1660001b6134ce565b905092915050565b600080617fff60708560801c6fffffffffffffffffffffffffffffffff16901c166fffffffffffffffffffffffffffffffff1690506000617fff60708560801c6fffffffffffffffffffffffffffffffff16901c166fffffffffffffffffffffffffffffffff169050617fff821415612f3657617fff811415612f15576f7fff800000000000000000000000000060801b92505050613330565b6f8000000000000000000000000000000060801b8416851892505050613330565b617fff811415612fb557600060801b6dffffffffffffffffffffffffffff60801b85166fffffffffffffffffffffffffffffffff191614612f8e576f7fff800000000000000000000000000060801b92505050613330565b6f8000000000000000000000000000000060801b84861816600060801b1792505050613330565b600060801b6f7fffffffffffffffffffffffffffffff60801b85166fffffffffffffffffffffffffffffffff1916141561307057600060801b6f7fffffffffffffffffffffffffffffff60801b86166fffffffffffffffffffffffffffffffff1916141561303a576f7fff800000000000000000000000000060801b92505050613330565b6f8000000000000000000000000000000060801b848618166f7fff000000000000000000000000000060801b1792505050613330565b60006dffffffffffffffffffffffffffff8560801c166fffffffffffffffffffffffffffffffff16905060008214156130ac57600191506130c1565b6e010000000000000000000000000000811790505b60006dffffffffffffffffffffffffffff8760801c166fffffffffffffffffffffffffffffffff1690506000841415613125576000811461312057600061310782613336565b60e20390508082901b9150600194506072810384019350505b61313e565b60726e0100000000000000000000000000008217901b90505b81818161314757fe5b04905060008114156131b257600060801b6f8000000000000000000000000000000060801b878918166fffffffffffffffffffffffffffffffff19161161319257600060801b6131a7565b6f8000000000000000000000000000000060801b5b945050505050613330565b6d10000000000000000000000000008110156131ca57fe5b60006e08000000000000000000000000000082101561322b576e040000000000000000000000000000821015613220576e02000000000000000000000000000082101561321857607061321b565b60715b613223565b60725b60ff16613235565b61323482613336565b5b90506140718401818601111561325357617fff9450600091506132f0565b83613ffc82870101101561326e5760009450600091506132ef565b83613f8c8287010110156132bc5783613ffc860111156132995783613ffc86010382901b91506132b3565b83613ffc860110156132b257613ffc8585030382901c91505b5b600094506132ee565b60708111156132cf576070810382901c91505b6dffffffffffffffffffffffffffff8216915083613f8d828701010394505b5b5b81607086901b6f8000000000000000000000000000000060801b898b181660801c6fffffffffffffffffffffffffffffffff16171760801b955050505050505b92915050565b600080821161334457600080fd5b6000700100000000000000000000000000000000831061336c57608083901c92506080810190505b68010000000000000000831061338a57604083901c92506040810190505b64010000000083106133a457602083901c92506020810190505b6201000083106133bc57601083901c92506010810190505b61010083106133d357600883901c92506008810190505b601083106133e957600483901c92506004810190505b600483106133ff57600283901c92506002810190505b6002831061340e576001810190505b80915050919050565b600081836000018054905011613478576040517f08c379a00000000000000000000000000000000000000000000000000000000081526004018080602001828103825260228152602001806146cc6022913960400191505060405180910390fd5b82600001828154811061348757fe5b9060005260206000200154905092915050565b600080836001016000848152602001908152602001600020541415905092915050565b600081600001805490509050919050565b600080836001016000848152602001908152602001600020549050600081146135aa576000600182039050600060018660000180549050039050600086600001828154811061351957fe5b906000526020600020015490508087600001848154811061353657fe5b906000526020600020018190555060018301876001016000838152602001908152602001600020819055508660000180548061356e57fe5b600190038181906000526020600020016000905590558660010160008781526020019081526020016000206000905560019450505050506135b0565b60009150505b92915050565b828054600181600116156101000203166002900490600052602060002090601f0160209004810192826135ec5760008555613633565b82601f1061360557805160ff1916838001178555613633565b82800160010185558215613633579182015b82811115613632578251825591602001919060010190613617565b5b5090506136409190613644565b5090565b5b8082111561365d576000816000905550600101613645565b5090565b600061367461366f8461435a565b614329565b9050808382526020820190508260005b858110156136b4578135850161369a88826137ee565b845260208401935060208301925050600181019050613684565b5050509392505050565b60006136d16136cc84614386565b614329565b9050828152602081018484840111156136e957600080fd5b6136f48482856144fb565b509392505050565b60008135905061370b81614613565b92915050565b60008151905061372081614613565b92915050565b600082601f83011261373757600080fd5b8135613747848260208601613661565b91505092915050565b60008135905061375f8161462a565b92915050565b60008135905061377481614641565b92915050565b60008083601f84011261378c57600080fd5b8235905067ffffffffffffffff8111156137a557600080fd5b6020830191508360018202830111156137bd57600080fd5b9250929050565b6000815190506137d381614658565b92915050565b6000815190506137e88161466f565b92915050565b600082601f8301126137ff57600080fd5b813561380f8482602086016136be565b91505092915050565b60008135905061382781614686565b92915050565b60008135905061383c8161469d565b92915050565b600081359050613851816146b4565b92915050565b60006020828403121561386957600080fd5b6000613877848285016136fc565b91505092915050565b60006020828403121561389257600080fd5b60006138a084828501613711565b91505092915050565b6000602082840312156138bb57600080fd5b60006138c984828501613765565b91505092915050565b600080604083850312156138e557600080fd5b60006138f385828601613765565b9250506020613904858286016136fc565b9150509250929050565b6000806040838503121561392157600080fd5b600061392f85828601613765565b92505060206139408582860161382d565b9150509250929050565b6000806020838503121561395d57600080fd5b600083013567ffffffffffffffff81111561397757600080fd5b6139838582860161377a565b92509250509250929050565b6000602082840312156139a157600080fd5b60006139af848285016137c4565b91505092915050565b6000602082840312156139ca57600080fd5b60006139d8848285016137d9565b91505092915050565b6000602082840312156139f357600080fd5b600082013567ffffffffffffffff811115613a0d57600080fd5b613a19848285016137ee565b91505092915050565b60008060408385031215613a3557600080fd5b600083013567ffffffffffffffff811115613a4f57600080fd5b613a5b858286016137ee565b9250506020613a6c858286016136fc565b9150509250929050565b600080600080600080600080610100898b031215613a9357600080fd5b600089013567ffffffffffffffff811115613aad57600080fd5b613ab98b828c016137ee565b985050602089013567ffffffffffffffff811115613ad657600080fd5b613ae28b828c016137ee565b9750506040613af38b828c01613842565b9650506060613b048b828c01613842565b9550506080613b158b828c01613750565b94505060a0613b268b828c01613818565b93505060c0613b378b828c016136fc565b92505060e0613b488b828c016136fc565b9150509295985092959890939650565b60008060408385031215613b6b57600080fd5b600083013567ffffffffffffffff811115613b8557600080fd5b613b91858286016137ee565b9250506020613ba285828601613842565b9150509250929050565b600080600060608486031215613bc157600080fd5b6000613bcf86828701613842565b935050602084013567ffffffffffffffff811115613bec57600080fd5b613bf8868287016137ee565b925050604084013567ffffffffffffffff811115613c1557600080fd5b613c2186828701613726565b9150509250925092565b613c348161440e565b82525050565b613c4381614420565b82525050565b613c528161442c565b82525050565b613c6181614458565b82525050565b6000613c72826143cb565b613c7c81856143e1565b9350613c8c81856020860161450a565b613c958161453f565b840191505092915050565b613ca9816144d7565b82525050565b613cb881614474565b82525050565b6000613cc9826143d6565b613cd381856143f2565b9350613ce381856020860161450a565b613cec8161453f565b840191505092915050565b6000613d02826143d6565b613d0c8185614403565b9350613d1c81856020860161450a565b80840191505092915050565b600081546001811660008114613d455760018114613d6a57613dae565b607f6002830416613d568187614403565b955060ff1983168652808601935050613dae565b60028204613d788187614403565b9550613d83856143b6565b60005b82811015613da557815481890152600182019150602081019050613d86565b82880195505050505b505092915050565b6000613dc36009836143f2565b91507f436f756e74203c203100000000000000000000000000000000000000000000006000830152602082019050919050565b6000613e036018836143f2565b91507f5072652d6578697374696e67206d61726b657420636f646500000000000000006000830152602082019050919050565b6000613e43601e836143f2565b91507f55706461746520696e74657276616c203c3d20465220696e74657276616c00006000830152602082019050919050565b6000613e836015836143f2565b91507f496e707574206461746120697320696e76616c696400000000000000000000006000830152602082019050919050565b6000613ec36017836143f2565b91507f4d61726b6574206d7573742065786973742066697273740000000000000000006000830152602082019050919050565b6000613f03601a836143f2565b91507f4f7261636c652063616e6e6f74206265203020616464726573730000000000006000830152602082019050919050565b6000613f436016836143f2565b91507f5072652d6578697374696e6720706f6f6c20636f6465000000000000000000006000830152602082019050919050565b613f7f8161447e565b82525050565b613f8e816144ac565b82525050565b613f9d816144b6565b82525050565b613fac816144c6565b82525050565b6000613fbe8284613cf7565b915081905092915050565b6000613fd58284613d28565b915081905092915050565b6000602082019050613ff56000830184613c2b565b92915050565b600060e082019050614010600083018a613c2b565b81810360208301526140228189613cbe565b90506140316040830188613f94565b61403e6060830187613c49565b61404b6080830186613f76565b61405860a0830185613c2b565b61406560c0830184613c2b565b98975050505050505050565b60006020820190506140866000830184613c3a565b92915050565b60006040820190506140a16000830185613c3a565b81810360208301526140b38184613c67565b90509392505050565b60006020820190506140d16000830184613c58565b92915050565b60006020820190506140ec6000830184613ca0565b92915050565b60006040820190506141076000830185613caf565b6141146020830184613caf565b9392505050565b600060e082019050614130600083018a613caf565b61413d6020830189613caf565b61414a6040830188613caf565b6141576060830187613caf565b6141646080830186613f94565b61417160a0830185613f94565b61417e60c0830184613fa3565b98975050505050505050565b600060208201905081810360008301526141a48184613cbe565b905092915050565b600060408201905081810360008301526141c68185613cbe565b90506141d56020830184613c2b565b9392505050565b600060408201905081810360008301526141f68185613cbe565b9050818103602083015261420a8184613cbe565b90509392505050565b6000602082019050818103600083015261422c81613db6565b9050919050565b6000602082019050818103600083015261424c81613df6565b9050919050565b6000602082019050818103600083015261426c81613e36565b9050919050565b6000602082019050818103600083015261428c81613e76565b9050919050565b600060208201905081810360008301526142ac81613eb6565b9050919050565b600060208201905081810360008301526142cc81613ef6565b9050919050565b600060208201905081810360008301526142ec81613f36565b9050919050565b60006020820190506143086000830184613f85565b92915050565b60006020820190506143236000830184613fa3565b92915050565b6000604051905081810181811067ffffffffffffffff821117156143505761434f61453d565b5b8060405250919050565b600067ffffffffffffffff8211156143755761437461453d565b5b602082029050602081019050919050565b600067ffffffffffffffff8211156143a1576143a061453d565b5b601f19601f8301169050602081019050919050565b60008190508160005260206000209050919050565b600081519050919050565b600081519050919050565b600082825260208201905092915050565b600082825260208201905092915050565b600081905092915050565b60006144198261448c565b9050919050565b60008115159050919050565b60007fffffffffffffffffffffffffffffffff0000000000000000000000000000000082169050919050565b6000819050919050565b600061446d8261440e565b9050919050565b6000819050919050565b600061ffff82169050919050565b600073ffffffffffffffffffffffffffffffffffffffff82169050919050565b6000819050919050565b600063ffffffff82169050919050565b600064ffffffffff82169050919050565b60006144e2826144e9565b9050919050565b60006144f48261448c565b9050919050565b82818337600083830152505050565b60005b8381101561452857808201518184015260208101905061450d565b83811115614537576000848401525b50505050565bfe5b6000601f19601f8301169050919050565b60008160e01c9050919050565b600060443d101561456d57614610565b60046000803e61457e600051614550565b6308c379a0811461458f5750614610565b60405160043d036004823e80513d602482011167ffffffffffffffff821117156145bb57505050614610565b808201805167ffffffffffffffff8111156145da575050505050614610565b8060208301013d85018111156145f557505050505050614610565b6145fe8261453f565b60208401016040528296505050505050505b90565b61461c8161440e565b811461462757600080fd5b50565b6146338161442c565b811461463e57600080fd5b50565b61464a81614458565b811461465557600080fd5b50565b61466181614462565b811461466c57600080fd5b50565b61467881614474565b811461468357600080fd5b50565b61468f8161447e565b811461469a57600080fd5b50565b6146a6816144ac565b81146146b157600080fd5b50565b6146bd816144b6565b81146146c857600080fd5b5056fe456e756d657261626c655365743a20696e646578206f7574206f6620626f756e6473416363657373436f6e74726f6c3a2073656e646572206d75737420626520616e2061646d696e20746f206772616e745369676e6564536166654d6174683a206164646974696f6e206f766572666c6f77416363657373436f6e74726f6c3a2073656e646572206d75737420626520616e2061646d696e20746f207265766f6b65416363657373436f6e74726f6c3a2063616e206f6e6c792072656e6f756e636520726f6c657320666f722073656c66a26469706673582212202d39745318b68886bf49a851da578ddafe4053057b56a6c0109fe4e5b81caa0b64736f6c63430007060033",
    "libraries": {
        "PoolSwapLibrary": "0xd046bC64854a7aF5bB61C207A9B2636148B04CAf"
    },
    "devdoc": {
        "kind": "dev",
        "methods": {
            "checkUpkeep(bytes)": {
                "details": "This should not be called or executed.",
                "params": {
                    "checkData": "ABI encoded market code, pool codes, and update interval. There are two types of upkeep: market and pool. Market updates will manage the average price calculations, and pool updates will execute a price change in one or more pools"
                },
                "returns": {
                    "performData": "The data to pass to the performUpkeep method when updating",
                    "upkeepNeeded": "Whether or not upkeep is needed"
                }
            },
            "createMarket(string,address)": {
                "details": "This cannot be used to update a market's oracle, and will revert if attempted.",
                "params": {
                    "marketCode": "The market code to identify this market"
                }
            },
            "getRoleAdmin(bytes32)": {
                "details": "Returns the admin role that controls `role`. See {grantRole} and {revokeRole}. To change a role's admin, use {_setRoleAdmin}."
            },
            "getRoleMember(bytes32,uint256)": {
                "details": "Returns one of the accounts that have `role`. `index` must be a value between 0 and {getRoleMemberCount}, non-inclusive. Role bearers are not sorted in any particular way, and their ordering may change at any point. WARNING: When using {getRoleMember} and {getRoleMemberCount}, make sure you perform all queries on the same block. See the following https://forum.openzeppelin.com/t/iterating-over-elements-on-enumerableset-in-openzeppelin-contracts/2296[forum post] for more information."
            },
            "getRoleMemberCount(bytes32)": {
                "details": "Returns the number of accounts that have `role`. Can be used together with {getRoleMember} to enumerate all bearers of a role."
            },
            "grantRole(bytes32,address)": {
                "details": "Grants `role` to `account`. If `account` had not been already granted `role`, emits a {RoleGranted} event. Requirements: - the caller must have ``role``'s admin role."
            },
            "hasRole(bytes32,address)": {
                "details": "Returns `true` if `account` has been granted `role`."
            },
            "performUpkeep(bytes)": {
                "params": {
                    "performData": "The upkeep data (market code, update interval, pool codes) to perform the update for."
                }
            },
            "renounceRole(bytes32,address)": {
                "details": "Revokes `role` from the calling account. Roles are often managed via {grantRole} and {revokeRole}: this function's purpose is to provide a mechanism for accounts to lose their privileges if they are compromised (such as when a trusted device is misplaced). If the calling account had been granted `role`, emits a {RoleRevoked} event. Requirements: - the caller must be `account`."
            },
            "revokeRole(bytes32,address)": {
                "details": "Revokes `role` from `account`. If `account` had been granted `role`, emits a {RoleRevoked} event. Requirements: - the caller must have ``role``'s admin role."
            },
            "updateOracleWrapper(address)": {
                "details": "Should be restricted to authorised users with access controls",
                "params": {
                    "oracle": "The new OracleWrapper to use"
                }
            }
        },
        "stateVariables": {
            "lastExecutionTime": {
                "details": "Used to allow multiple upkeep registrations to use the same market/update interval price data."
            }
        },
        "version": 1
    },
    "userdoc": {
        "events": {
            "CreateMarket(string,address)": {
                "notice": "Creates a notification when a market is created"
            },
            "CreatePool(address,int256,uint32,string)": {
                "notice": "Creates a notification when a pool is created"
            },
            "ExecutePriceChange(int256,int256,uint32,string,string)": {
                "notice": "Creates notification of a price execution for a set of pools"
            },
            "NewRound(int256,int256,uint32,string)": {
                "notice": "Creates notification of a new round for a market/update interval pair"
            },
            "PoolUpdateError(string,string)": {
                "notice": "Creates a notification of a failed pool update"
            },
            "PriceSample(int256,int256,uint32,string)": {
                "notice": "Creates a notification of a price sample being taken"
            }
        },
        "kind": "user",
        "methods": {
            "checkUpkeep(bytes)": {
                "notice": "Simulated by chainlink keeper nodes to check if upkeep is required"
            },
            "createMarket(string,address)": {
                "notice": "Creates a new market and sets the oracle to use for it."
            },
            "lastExecutionTime(string)": {
                "notice": "Format: Pool code => timestamp of last price execution"
            },
            "performUpkeep(bytes)": {
                "notice": "Called by keepers to perform an update"
            },
            "poolMarkets(string,uint32)": {
                "notice": "Format: Pool Code => update interval => Market code. Used to prevent a pool from being updated with pricing from a market it doesn't belong to."
            },
            "pools(string)": {
                "notice": "Format: Pool code => pool address, where pool code looks like TSLA/USD^5+aDAI"
            },
            "updateOracleWrapper(address)": {
                "notice": "Updates the address of the oracle wrapper."
            },
            "upkeep(string,uint32)": {
                "notice": "Format: market code => updateInterval => Upkeep details"
            }
        },
        "version": 1
    },
    "storageLayout": {
        "storage": [
            {
                "astId": 39,
                "contract": "contracts/implementation/PoolKeeper.sol:PoolKeeper",
                "label": "_roles",
                "offset": 0,
                "slot": "0",
                "type": "t_mapping(t_bytes32,t_struct(RoleData)35_storage)"
            },
            {
                "astId": 8312,
                "contract": "contracts/implementation/PoolKeeper.sol:PoolKeeper",
                "label": "pools",
                "offset": 0,
                "slot": "1",
                "type": "t_mapping(t_string_memory_ptr,t_address)"
            },
            {
                "astId": 8319,
                "contract": "contracts/implementation/PoolKeeper.sol:PoolKeeper",
                "label": "poolMarkets",
                "offset": 0,
                "slot": "2",
                "type": "t_mapping(t_string_memory_ptr,t_mapping(t_uint32,t_string_storage))"
            },
            {
                "astId": 8326,
                "contract": "contracts/implementation/PoolKeeper.sol:PoolKeeper",
                "label": "upkeep",
                "offset": 0,
                "slot": "3",
                "type": "t_mapping(t_string_memory_ptr,t_mapping(t_uint32,t_struct(Upkeep)9721_storage))"
            },
            {
                "astId": 8331,
                "contract": "contracts/implementation/PoolKeeper.sol:PoolKeeper",
                "label": "lastExecutionTime",
                "offset": 0,
                "slot": "4",
                "type": "t_mapping(t_string_memory_ptr,t_uint40)"
            },
            {
                "astId": 8333,
                "contract": "contracts/implementation/PoolKeeper.sol:PoolKeeper",
                "label": "oracleWrapper",
                "offset": 0,
                "slot": "5",
                "type": "t_address"
            }
        ],
        "types": {
            "t_address": {
                "encoding": "inplace",
                "label": "address",
                "numberOfBytes": "20"
            },
            "t_array(t_bytes32)dyn_storage": {
                "base": "t_bytes32",
                "encoding": "dynamic_array",
                "label": "bytes32[]",
                "numberOfBytes": "32"
            },
            "t_bytes32": {
                "encoding": "inplace",
                "label": "bytes32",
                "numberOfBytes": "32"
            },
            "t_int256": {
                "encoding": "inplace",
                "label": "int256",
                "numberOfBytes": "32"
            },
            "t_mapping(t_bytes32,t_struct(RoleData)35_storage)": {
                "encoding": "mapping",
                "key": "t_bytes32",
                "label": "mapping(bytes32 => struct AccessControl.RoleData)",
                "numberOfBytes": "32",
                "value": "t_struct(RoleData)35_storage"
            },
            "t_mapping(t_bytes32,t_uint256)": {
                "encoding": "mapping",
                "key": "t_bytes32",
                "label": "mapping(bytes32 => uint256)",
                "numberOfBytes": "32",
                "value": "t_uint256"
            },
            "t_mapping(t_string_memory_ptr,t_address)": {
                "encoding": "mapping",
                "key": "t_string_memory_ptr",
                "label": "mapping(string => address)",
                "numberOfBytes": "32",
                "value": "t_address"
            },
            "t_mapping(t_string_memory_ptr,t_mapping(t_uint32,t_string_storage))": {
                "encoding": "mapping",
                "key": "t_string_memory_ptr",
                "label": "mapping(string => mapping(uint32 => string))",
                "numberOfBytes": "32",
                "value": "t_mapping(t_uint32,t_string_storage)"
            },
            "t_mapping(t_string_memory_ptr,t_mapping(t_uint32,t_struct(Upkeep)9721_storage))": {
                "encoding": "mapping",
                "key": "t_string_memory_ptr",
                "label": "mapping(string => mapping(uint32 => struct IPoolKeeper.Upkeep))",
                "numberOfBytes": "32",
                "value": "t_mapping(t_uint32,t_struct(Upkeep)9721_storage)"
            },
            "t_mapping(t_string_memory_ptr,t_uint40)": {
                "encoding": "mapping",
                "key": "t_string_memory_ptr",
                "label": "mapping(string => uint40)",
                "numberOfBytes": "32",
                "value": "t_uint40"
            },
            "t_mapping(t_uint32,t_string_storage)": {
                "encoding": "mapping",
                "key": "t_uint32",
                "label": "mapping(uint32 => string)",
                "numberOfBytes": "32",
                "value": "t_string_storage"
            },
            "t_mapping(t_uint32,t_struct(Upkeep)9721_storage)": {
                "encoding": "mapping",
                "key": "t_uint32",
                "label": "mapping(uint32 => struct IPoolKeeper.Upkeep)",
                "numberOfBytes": "32",
                "value": "t_struct(Upkeep)9721_storage"
            },
            "t_string_memory_ptr": {
                "encoding": "bytes",
                "label": "string",
                "numberOfBytes": "32"
            },
            "t_string_storage": {
                "encoding": "bytes",
                "label": "string",
                "numberOfBytes": "32"
            },
            "t_struct(AddressSet)1652_storage": {
                "encoding": "inplace",
                "label": "struct EnumerableSet.AddressSet",
                "members": [
                    {
                        "astId": 1651,
                        "contract": "contracts/implementation/PoolKeeper.sol:PoolKeeper",
                        "label": "_inner",
                        "offset": 0,
                        "slot": "0",
                        "type": "t_struct(Set)1387_storage"
                    }
                ],
                "numberOfBytes": "64"
            },
            "t_struct(RoleData)35_storage": {
                "encoding": "inplace",
                "label": "struct AccessControl.RoleData",
                "members": [
                    {
                        "astId": 32,
                        "contract": "contracts/implementation/PoolKeeper.sol:PoolKeeper",
                        "label": "members",
                        "offset": 0,
                        "slot": "0",
                        "type": "t_struct(AddressSet)1652_storage"
                    },
                    {
                        "astId": 34,
                        "contract": "contracts/implementation/PoolKeeper.sol:PoolKeeper",
                        "label": "adminRole",
                        "offset": 0,
                        "slot": "2",
                        "type": "t_bytes32"
                    }
                ],
                "numberOfBytes": "96"
            },
            "t_struct(Set)1387_storage": {
                "encoding": "inplace",
                "label": "struct EnumerableSet.Set",
                "members": [
                    {
                        "astId": 1382,
                        "contract": "contracts/implementation/PoolKeeper.sol:PoolKeeper",
                        "label": "_values",
                        "offset": 0,
                        "slot": "0",
                        "type": "t_array(t_bytes32)dyn_storage"
                    },
                    {
                        "astId": 1386,
                        "contract": "contracts/implementation/PoolKeeper.sol:PoolKeeper",
                        "label": "_indexes",
                        "offset": 0,
                        "slot": "1",
                        "type": "t_mapping(t_bytes32,t_uint256)"
                    }
                ],
                "numberOfBytes": "64"
            },
            "t_struct(Upkeep)9721_storage": {
                "encoding": "inplace",
                "label": "struct IPoolKeeper.Upkeep",
                "members": [
                    {
                        "astId": 9708,
                        "contract": "contracts/implementation/PoolKeeper.sol:PoolKeeper",
                        "label": "cumulativePrice",
                        "offset": 0,
                        "slot": "0",
                        "type": "t_int256"
                    },
                    {
                        "astId": 9710,
                        "contract": "contracts/implementation/PoolKeeper.sol:PoolKeeper",
                        "label": "lastSamplePrice",
                        "offset": 0,
                        "slot": "1",
                        "type": "t_int256"
                    },
                    {
                        "astId": 9712,
                        "contract": "contracts/implementation/PoolKeeper.sol:PoolKeeper",
                        "label": "executionPrice",
                        "offset": 0,
                        "slot": "2",
                        "type": "t_int256"
                    },
                    {
                        "astId": 9714,
                        "contract": "contracts/implementation/PoolKeeper.sol:PoolKeeper",
                        "label": "lastExecutionPrice",
                        "offset": 0,
                        "slot": "3",
                        "type": "t_int256"
                    },
                    {
                        "astId": 9716,
                        "contract": "contracts/implementation/PoolKeeper.sol:PoolKeeper",
                        "label": "count",
                        "offset": 0,
                        "slot": "4",
                        "type": "t_uint32"
                    },
                    {
                        "astId": 9718,
                        "contract": "contracts/implementation/PoolKeeper.sol:PoolKeeper",
                        "label": "updateInterval",
                        "offset": 4,
                        "slot": "4",
                        "type": "t_uint32"
                    },
                    {
                        "astId": 9720,
                        "contract": "contracts/implementation/PoolKeeper.sol:PoolKeeper",
                        "label": "roundStart",
                        "offset": 8,
                        "slot": "4",
                        "type": "t_uint40"
                    }
                ],
                "numberOfBytes": "160"
            },
            "t_uint256": {
                "encoding": "inplace",
                "label": "uint256",
                "numberOfBytes": "32"
            },
            "t_uint32": {
                "encoding": "inplace",
                "label": "uint32",
                "numberOfBytes": "4"
            },
            "t_uint40": {
                "encoding": "inplace",
                "label": "uint40",
                "numberOfBytes": "5"
            }
        }
    }
}